{
  "_format": "hh-sol-artifact-1",
  "contractName": "UtilsNftLock",
  "sourceName": "contracts/NFT/UtilsNftLock.sol",
  "abi": [
    {
      "inputs": [],
      "stateMutability": "nonpayable",
      "type": "constructor"
    },
    {
      "anonymous": false,
      "inputs": [
        {
          "indexed": false,
          "internalType": "uint256",
          "name": "tokenId",
          "type": "uint256"
        },
        {
          "components": [
            {
              "internalType": "address payable",
              "name": "account",
              "type": "address"
            },
            {
              "internalType": "uint96",
              "name": "value",
              "type": "uint96"
            }
          ],
          "indexed": false,
          "internalType": "struct LibPart.Part[]",
          "name": "royalties",
          "type": "tuple[]"
        }
      ],
      "name": "RoyaltiesSet",
      "type": "event"
    },
    {
      "inputs": [
        {
          "internalType": "bytes",
          "name": "data",
          "type": "bytes"
        }
      ],
      "name": "base64",
      "outputs": [
        {
          "internalType": "string",
          "name": "",
          "type": "string"
        }
      ],
      "stateMutability": "pure",
      "type": "function"
    },
    {
      "inputs": [
        {
          "internalType": "uint256",
          "name": "id",
          "type": "uint256"
        }
      ],
      "name": "getRaribleRoyalties",
      "outputs": [
        {
          "components": [
            {
              "internalType": "address payable",
              "name": "account",
              "type": "address"
            },
            {
              "internalType": "uint96",
              "name": "value",
              "type": "uint96"
            }
          ],
          "internalType": "struct LibPart.Part[]",
          "name": "",
          "type": "tuple[]"
        }
      ],
      "stateMutability": "view",
      "type": "function"
    },
    {
      "inputs": [],
      "name": "rgnLock",
      "outputs": [
        {
          "internalType": "address",
          "name": "",
          "type": "address"
        }
      ],
      "stateMutability": "view",
      "type": "function"
    },
    {
      "inputs": [],
      "name": "royaltiesAddress",
      "outputs": [
        {
          "internalType": "address",
          "name": "",
          "type": "address"
        }
      ],
      "stateMutability": "view",
      "type": "function"
    },
    {
      "inputs": [
        {
          "internalType": "uint256",
          "name": "_tokenId",
          "type": "uint256"
        },
        {
          "internalType": "uint256",
          "name": "_salePrice",
          "type": "uint256"
        }
      ],
      "name": "royaltyInfo",
      "outputs": [
        {
          "internalType": "address",
          "name": "receiver",
          "type": "address"
        },
        {
          "internalType": "uint256",
          "name": "royaltyAmount",
          "type": "uint256"
        }
      ],
      "stateMutability": "view",
      "type": "function"
    },
    {
      "inputs": [
        {
          "internalType": "address",
          "name": "_rgnLock",
          "type": "address"
        }
      ],
      "name": "setRgnLock",
      "outputs": [],
      "stateMutability": "nonpayable",
      "type": "function"
    },
    {
      "inputs": [
        {
          "internalType": "uint256",
          "name": "tokenId",
          "type": "uint256"
        },
        {
          "internalType": "uint96",
          "name": "percentageBasisPoints",
          "type": "uint96"
        }
      ],
      "name": "setRoyalties",
      "outputs": [],
      "stateMutability": "nonpayable",
      "type": "function"
    },
    {
      "inputs": [
        {
          "internalType": "address",
          "name": "_addr",
          "type": "address"
        }
      ],
      "name": "setRoyaltiesAddress",
      "outputs": [],
      "stateMutability": "nonpayable",
      "type": "function"
    },
    {
      "inputs": [
        {
          "internalType": "uint256",
          "name": "_i",
          "type": "uint256"
        }
      ],
      "name": "uint2str",
      "outputs": [
        {
          "internalType": "string",
          "name": "_uintAsString",
          "type": "string"
        }
      ],
      "stateMutability": "pure",
      "type": "function"
    }
  ],
  "bytecode": "0x608060405234801561001057600080fd5b50610e05806100206000396000f3fe608060405234801561001057600080fd5b50600436106100835760003560e01c80630dd05e08146100885780632a55205a1461009d57806332882535146100d4578063c2b50d1a146100ff578063c36184ae14610112578063daa68c2114610125578063dc95c4a714610145578063f76f950e14610158578063fc56251d1461016b575b600080fd5b61009b610096366004610a59565b61018b565b005b6100b06100ab366004610b49565b61020f565b604080516001600160a01b0390931683526020830191909152015b60405180910390f35b6001546100e7906001600160a01b031681565b6040516001600160a01b0390911681526020016100cb565b61009b61010d366004610b6a565b610328565b6002546100e7906001600160a01b031681565b610138610133366004610a87565b610425565b6040516100cb9190610c0e565b61009b610153366004610a59565b61059e565b610138610166366004610b31565b6105ea565b61017e610179366004610b31565b610730565b6040516100cb9190610bfb565b3373f39fd6e51aad88f6f4ce6ab8827279cfffb92266146101ed5760405162461bcd60e51b815260206004820152601760248201527622b93937b9103737ba1030b2323932b9b99037bbb732b960491b60448201526064015b60405180910390fd5b600280546001600160a01b0319166001600160a01b0392909216919091179055565b600082815260208181526040808320805482518185028101850190935280835284938493929190849084015b8282101561028a57600084815260209081902060408051808201909152908401546001600160a01b0381168252600160a01b90046001600160601b03168183015282526001909201910161023b565b50505050905060008151111561031f57806000815181106102bb57634e487b7160e01b600052603260045260246000fd5b602002602001015160000151612710826000815181106102eb57634e487b7160e01b600052603260045260246000fd5b6020026020010151602001516001600160601b03168661030b9190610d12565b6103159190610cf2565b9250925050610321565b505b9250929050565b6002546001600160a01b031633146103525760405162461bcd60e51b81526004016101e490610c61565b604080516001808252818301909252600091816020015b604080518082019091526000808252602082015281526020019060019003908161036957905050905081816000815181106103b457634e487b7160e01b600052603260045260246000fd5b6020908102919091018101516001600160601b0390921691015260035481516001600160a01b039091169082906000906103fe57634e487b7160e01b600052603260045260246000fd5b60209081029190910101516001600160a01b03909116905261042083826107b6565b505050565b60608151600014156104465750604080516020810190915260008152610599565b6000604051806060016040528060408152602001610d9060409139905060006003845160026104759190610cb5565b61047f9190610cf2565b61048a906004610d12565b90506000610499826020610cb5565b67ffffffffffffffff8111156104bf57634e487b7160e01b600052604160045260246000fd5b6040519080825280601f01601f1916602001820160405280156104e9576020820181803683370190505b509050818152600183018586518101602084015b818310156105575760039283018051603f601282901c811687015160f890811b8552600c83901c8216880151811b6001860152600683901c8216880151811b60028601529116860151901b938201939093526004016104fd565b60038951066001811461057157600281146105825761058e565b613d3d60f01b60011983015261058e565b603d60f81b6000198301525b509396505050505050505b919050565b6002546001600160a01b031633146105c85760405162461bcd60e51b81526004016101e490610c61565b600380546001600160a01b0319166001600160a01b0392909216919091179055565b60608161060f57506040805180820190915260018152600360fc1b6020820152610599565b8160005b8115610639578061062381610d48565b91506106329050600a83610cf2565b9150610613565b60008167ffffffffffffffff81111561066257634e487b7160e01b600052604160045260246000fd5b6040519080825280601f01601f19166020018201604052801561068c576020820181803683370190505b509050815b8515610727576106a2600182610d31565b905060006106b1600a88610cf2565b6106bc90600a610d12565b6106c69088610d31565b6106d1906030610ccd565b905060008160f81b9050808484815181106106fc57634e487b7160e01b600052603260045260246000fd5b60200101906001600160f81b031916908160001a90535061071e600a89610cf2565b97505050610691565b50949350505050565b600081815260208181526040808320805482518185028101850190935280835260609492939192909184015b828210156107ab57600084815260209081902060408051808201909152908401546001600160a01b0381168252600160a01b90046001600160601b03168183015282526001909201910161075c565b505050509050919050565b6000805b82518110156109b75760006001600160a01b03168382815181106107ee57634e487b7160e01b600052603260045260246000fd5b6020026020010151600001516001600160a01b031614156108515760405162461bcd60e51b815260206004820152601b60248201527f526563697069656e742073686f756c642062652070726573656e74000000000060448201526064016101e4565b82818151811061087157634e487b7160e01b600052603260045260246000fd5b6020026020010151602001516001600160601b0316600014156108d65760405162461bcd60e51b815260206004820181905260248201527f526f79616c74792076616c75652073686f756c6420626520706f73697469766560448201526064016101e4565b8281815181106108f657634e487b7160e01b600052603260045260246000fd5b6020026020010151602001516001600160601b0316826109169190610cb5565b915060008085815260200190815260200160002083828151811061094a57634e487b7160e01b600052603260045260246000fd5b602090810291909101810151825460018101845560009384529282902081519301805491909201516001600160601b0316600160a01b026001600160a01b039384166001600160a01b031990921691909117909216919091179055806109af81610d48565b9150506107ba565b506127108110610a175760405162461bcd60e51b815260206004820152602560248201527f526f79616c747920746f74616c2076616c75652073686f756c64206265203c20604482015264031303030360dc1b60648201526084016101e4565b61042083837f3fa96d7b6bcbfe71ef171666d84db3cf52fa2d1c8afdb1cc8e486177f208b7df8282604051610a4d929190610c94565b60405180910390a15050565b600060208284031215610a6a578081fd5b81356001600160a01b0381168114610a80578182fd5b9392505050565b600060208284031215610a98578081fd5b813567ffffffffffffffff80821115610aaf578283fd5b818401915084601f830112610ac2578283fd5b813581811115610ad457610ad4610d79565b604051601f8201601f19908116603f01168101908382118183101715610afc57610afc610d79565b81604052828152876020848701011115610b14578586fd5b826020860160208301379182016020019490945295945050505050565b600060208284031215610b42578081fd5b5035919050565b60008060408385031215610b5b578081fd5b50508035926020909101359150565b60008060408385031215610b7c578182fd5b8235915060208301356001600160601b0381168114610b99578182fd5b809150509250929050565b6000815180845260208085019450808401835b83811015610bf057815180516001600160a01b031688528301516001600160601b03168388015260409096019590820190600101610bb7565b509495945050505050565b600060208252610a806020830184610ba4565b6000602080835283518082850152825b81811015610c3a57858101830151858201604001528201610c1e565b81811115610c4b5783604083870101525b50601f01601f1916929092016040019392505050565b6020808252601990820152784572726f72206e6f7420616464726573732072676e4c6f636b60381b604082015260600190565b600083825260406020830152610cad6040830184610ba4565b949350505050565b60008219821115610cc857610cc8610d63565b500190565b600060ff821660ff84168060ff03821115610cea57610cea610d63565b019392505050565b600082610d0d57634e487b7160e01b81526012600452602481fd5b500490565b6000816000190483118215151615610d2c57610d2c610d63565b500290565b600082821015610d4357610d43610d63565b500390565b6000600019821415610d5c57610d5c610d63565b5060010190565b634e487b7160e01b600052601160045260246000fd5b634e487b7160e01b600052604160045260246000fdfe4142434445464748494a4b4c4d4e4f505152535455565758595a6162636465666768696a6b6c6d6e6f707172737475767778797a303132333435363738392b2fa2646970667358221220802a6bf7585210a110d8d1b57bf949cd9af5cecc946bd72afbf3aee433f50bef64736f6c63430008020033",
  "linkReferences": {},
  "deployedLinkReferences": {}
}