{
  "_format": "hh-sol-artifact-1",
  "contractName": "UtilsNftLock",
  "sourceName": "contracts/NFT/UtilsNftLock.sol",
  "abi": [
    {
      "inputs": [],
      "stateMutability": "nonpayable",
      "type": "constructor"
    },
    {
      "anonymous": false,
      "inputs": [
        {
          "indexed": false,
          "internalType": "uint256",
          "name": "tokenId",
          "type": "uint256"
        },
        {
          "components": [
            {
              "internalType": "address payable",
              "name": "account",
              "type": "address"
            },
            {
              "internalType": "uint96",
              "name": "value",
              "type": "uint96"
            }
          ],
          "indexed": false,
          "internalType": "struct LibPart.Part[]",
          "name": "royalties",
          "type": "tuple[]"
        }
      ],
      "name": "RoyaltiesSet",
      "type": "event"
    },
    {
      "inputs": [
        {
          "internalType": "bytes",
          "name": "data",
          "type": "bytes"
        }
      ],
      "name": "base64",
      "outputs": [
        {
          "internalType": "string",
          "name": "",
          "type": "string"
        }
      ],
      "stateMutability": "pure",
      "type": "function"
    },
    {
      "inputs": [
        {
          "internalType": "uint256",
          "name": "id",
          "type": "uint256"
        }
      ],
      "name": "getRaribleRoyalties",
      "outputs": [
        {
          "components": [
            {
              "internalType": "address payable",
              "name": "account",
              "type": "address"
            },
            {
              "internalType": "uint96",
              "name": "value",
              "type": "uint96"
            }
          ],
          "internalType": "struct LibPart.Part[]",
          "name": "",
          "type": "tuple[]"
        }
      ],
      "stateMutability": "view",
      "type": "function"
    },
    {
      "inputs": [],
      "name": "rgnLock",
      "outputs": [
        {
          "internalType": "address",
          "name": "",
          "type": "address"
        }
      ],
      "stateMutability": "view",
      "type": "function"
    },
    {
      "inputs": [],
      "name": "royaltiesAddress",
      "outputs": [
        {
          "internalType": "address",
          "name": "",
          "type": "address"
        }
      ],
      "stateMutability": "view",
      "type": "function"
    },
    {
      "inputs": [
        {
          "internalType": "uint256",
          "name": "_tokenId",
          "type": "uint256"
        },
        {
          "internalType": "uint256",
          "name": "_salePrice",
          "type": "uint256"
        }
      ],
      "name": "royaltyInfo",
      "outputs": [
        {
          "internalType": "address",
          "name": "receiver",
          "type": "address"
        },
        {
          "internalType": "uint256",
          "name": "royaltyAmount",
          "type": "uint256"
        }
      ],
      "stateMutability": "view",
      "type": "function"
    },
    {
      "inputs": [
        {
          "internalType": "address",
          "name": "_rgnLock",
          "type": "address"
        }
      ],
      "name": "setRgnLock",
      "outputs": [],
      "stateMutability": "nonpayable",
      "type": "function"
    },
    {
      "inputs": [
        {
          "internalType": "uint256",
          "name": "tokenId",
          "type": "uint256"
        },
        {
          "internalType": "uint96",
          "name": "percentageBasisPoints",
          "type": "uint96"
        }
      ],
      "name": "setRoyalties",
      "outputs": [],
      "stateMutability": "nonpayable",
      "type": "function"
    },
    {
      "inputs": [
        {
          "internalType": "address",
          "name": "_addr",
          "type": "address"
        }
      ],
      "name": "setRoyaltiesAddress",
      "outputs": [],
      "stateMutability": "nonpayable",
      "type": "function"
    },
    {
      "inputs": [
        {
          "internalType": "uint256",
          "name": "_i",
          "type": "uint256"
        }
      ],
      "name": "uint2str",
      "outputs": [
        {
          "internalType": "string",
          "name": "_uintAsString",
          "type": "string"
        }
      ],
      "stateMutability": "pure",
      "type": "function"
    }
  ],
  "bytecode": "0x608060405234801561001057600080fd5b50610e40806100206000396000f3fe608060405234801561001057600080fd5b50600436106100935760003560e01c8063c36184ae11610066578063c36184ae14610122578063daa68c2114610135578063dc95c4a714610155578063f76f950e14610168578063fc56251d1461017b57610093565b80630dd05e08146100985780632a55205a146100ad57806332882535146100e4578063c2b50d1a1461010f575b600080fd5b6100ab6100a6366004610ac7565b61019b565b005b6100c06100bb366004610bb7565b610225565b604080516001600160a01b0390931683526020830191909152015b60405180910390f35b6001546100f7906001600160a01b031681565b6040516001600160a01b0390911681526020016100db565b6100ab61011d366004610bd8565b61033e565b6002546100f7906001600160a01b031681565b610148610143366004610af5565b610467565b6040516100db9190610c7c565b6100ab610163366004610ac7565b6105e0565b610148610176366004610b9f565b610658565b61018e610189366004610b9f565b61079e565b6040516100db9190610c69565b3373f39fd6e51aad88f6f4ce6ab8827279cfffb92266146102035760405162461bcd60e51b815260206004820152601760248201527f4572726f72206e6f742061646472657373206f776e657200000000000000000060448201526064015b60405180910390fd5b600280546001600160a01b0319166001600160a01b0392909216919091179055565b600082815260208181526040808320805482518185028101850190935280835284938493929190849084015b828210156102a057600084815260209081902060408051808201909152908401546001600160a01b0381168252600160a01b90046001600160601b031681830152825260019092019101610251565b50505050905060008151111561033557806000815181106102d157634e487b7160e01b600052603260045260246000fd5b6020026020010151600001516127108260008151811061030157634e487b7160e01b600052603260045260246000fd5b6020026020010151602001516001600160601b0316866103219190610d4d565b61032b9190610d2d565b9250925050610337565b505b9250929050565b6002546001600160a01b031633146103945760405162461bcd60e51b81526020600482015260196024820152784572726f72206e6f7420616464726573732072676e4c6f636b60381b60448201526064016101fa565b604080516001808252818301909252600091816020015b60408051808201909152600080825260208201528152602001906001900390816103ab57905050905081816000815181106103f657634e487b7160e01b600052603260045260246000fd5b6020908102919091018101516001600160601b0390921691015260035481516001600160a01b0390911690829060009061044057634e487b7160e01b600052603260045260246000fd5b60209081029190910101516001600160a01b0390911690526104628382610824565b505050565b606081516000141561048857506040805160208101909152600081526105db565b6000604051806060016040528060408152602001610dcb60409139905060006003845160026104b79190610cf0565b6104c19190610d2d565b6104cc906004610d4d565b905060006104db826020610cf0565b67ffffffffffffffff81111561050157634e487b7160e01b600052604160045260246000fd5b6040519080825280601f01601f19166020018201604052801561052b576020820181803683370190505b509050818152600183018586518101602084015b818310156105995760039283018051603f601282901c811687015160f890811b8552600c83901c8216880151811b6001860152600683901c8216880151811b60028601529116860151901b9382019390935260040161053f565b6003895106600181146105b357600281146105c4576105d0565b613d3d60f01b6001198301526105d0565b603d60f81b6000198301525b509396505050505050505b919050565b6002546001600160a01b031633146106365760405162461bcd60e51b81526020600482015260196024820152784572726f72206e6f7420616464726573732072676e4c6f636b60381b60448201526064016101fa565b600380546001600160a01b0319166001600160a01b0392909216919091179055565b60608161067d57506040805180820190915260018152600360fc1b60208201526105db565b8160005b81156106a7578061069181610d83565b91506106a09050600a83610d2d565b9150610681565b60008167ffffffffffffffff8111156106d057634e487b7160e01b600052604160045260246000fd5b6040519080825280601f01601f1916602001820160405280156106fa576020820181803683370190505b509050815b851561079557610710600182610d6c565b9050600061071f600a88610d2d565b61072a90600a610d4d565b6107349088610d6c565b61073f906030610d08565b905060008160f81b90508084848151811061076a57634e487b7160e01b600052603260045260246000fd5b60200101906001600160f81b031916908160001a90535061078c600a89610d2d565b975050506106ff565b50949350505050565b600081815260208181526040808320805482518185028101850190935280835260609492939192909184015b8282101561081957600084815260209081902060408051808201909152908401546001600160a01b0381168252600160a01b90046001600160601b0316818301528252600190920191016107ca565b505050509050919050565b6000805b8251811015610a255760006001600160a01b031683828151811061085c57634e487b7160e01b600052603260045260246000fd5b6020026020010151600001516001600160a01b031614156108bf5760405162461bcd60e51b815260206004820152601b60248201527f526563697069656e742073686f756c642062652070726573656e74000000000060448201526064016101fa565b8281815181106108df57634e487b7160e01b600052603260045260246000fd5b6020026020010151602001516001600160601b0316600014156109445760405162461bcd60e51b815260206004820181905260248201527f526f79616c74792076616c75652073686f756c6420626520706f73697469766560448201526064016101fa565b82818151811061096457634e487b7160e01b600052603260045260246000fd5b6020026020010151602001516001600160601b0316826109849190610cf0565b91506000808581526020019081526020016000208382815181106109b857634e487b7160e01b600052603260045260246000fd5b602090810291909101810151825460018101845560009384529282902081519301805491909201516001600160601b0316600160a01b026001600160a01b039384166001600160a01b03199092169190911790921691909117905580610a1d81610d83565b915050610828565b506127108110610a855760405162461bcd60e51b815260206004820152602560248201527f526f79616c747920746f74616c2076616c75652073686f756c64206265203c20604482015264031303030360dc1b60648201526084016101fa565b61046283837f3fa96d7b6bcbfe71ef171666d84db3cf52fa2d1c8afdb1cc8e486177f208b7df8282604051610abb929190610ccf565b60405180910390a15050565b600060208284031215610ad8578081fd5b81356001600160a01b0381168114610aee578182fd5b9392505050565b600060208284031215610b06578081fd5b813567ffffffffffffffff80821115610b1d578283fd5b818401915084601f830112610b30578283fd5b813581811115610b4257610b42610db4565b604051601f8201601f19908116603f01168101908382118183101715610b6a57610b6a610db4565b81604052828152876020848701011115610b82578586fd5b826020860160208301379182016020019490945295945050505050565b600060208284031215610bb0578081fd5b5035919050565b60008060408385031215610bc9578081fd5b50508035926020909101359150565b60008060408385031215610bea578182fd5b8235915060208301356001600160601b0381168114610c07578182fd5b809150509250929050565b6000815180845260208085019450808401835b83811015610c5e57815180516001600160a01b031688528301516001600160601b03168388015260409096019590820190600101610c25565b509495945050505050565b600060208252610aee6020830184610c12565b6000602080835283518082850152825b81811015610ca857858101830151858201604001528201610c8c565b81811115610cb95783604083870101525b50601f01601f1916929092016040019392505050565b600083825260406020830152610ce86040830184610c12565b949350505050565b60008219821115610d0357610d03610d9e565b500190565b600060ff821660ff84168060ff03821115610d2557610d25610d9e565b019392505050565b600082610d4857634e487b7160e01b81526012600452602481fd5b500490565b6000816000190483118215151615610d6757610d67610d9e565b500290565b600082821015610d7e57610d7e610d9e565b500390565b6000600019821415610d9757610d97610d9e565b5060010190565b634e487b7160e01b600052601160045260246000fd5b634e487b7160e01b600052604160045260246000fdfe4142434445464748494a4b4c4d4e4f505152535455565758595a6162636465666768696a6b6c6d6e6f707172737475767778797a303132333435363738392b2fa26469706673582212209552dc4f6e1da8ab6f84534154d98a72dc1ca8cdeb17a1e5ebe4898df5e5cd5e64736f6c63430008020033",
  "linkReferences": {},
  "deployedLinkReferences": {}
}