{
  "_format": "hh-sol-artifact-1",
  "contractName": "BaseRewardPool",
  "sourceName": "contracts/Rewarders/BaseRewardPool.sol",
  "abi": [
    {
      "inputs": [
        {
          "internalType": "address",
          "name": "_stakingToken",
          "type": "address"
        },
        {
          "internalType": "address",
          "name": "_rewardToken",
          "type": "address"
        },
        {
          "internalType": "address",
          "name": "_operator",
          "type": "address"
        },
        {
          "internalType": "address",
          "name": "_rewardManager",
          "type": "address"
        }
      ],
      "stateMutability": "nonpayable",
      "type": "constructor"
    },
    {
      "anonymous": false,
      "inputs": [
        {
          "indexed": true,
          "internalType": "address",
          "name": "previousOwner",
          "type": "address"
        },
        {
          "indexed": true,
          "internalType": "address",
          "name": "newOwner",
          "type": "address"
        }
      ],
      "name": "OwnershipTransferred",
      "type": "event"
    },
    {
      "anonymous": false,
      "inputs": [
        {
          "indexed": false,
          "internalType": "uint256",
          "name": "reward",
          "type": "uint256"
        },
        {
          "indexed": true,
          "internalType": "address",
          "name": "token",
          "type": "address"
        }
      ],
      "name": "RewardAdded",
      "type": "event"
    },
    {
      "anonymous": false,
      "inputs": [
        {
          "indexed": true,
          "internalType": "address",
          "name": "user",
          "type": "address"
        },
        {
          "indexed": false,
          "internalType": "uint256",
          "name": "reward",
          "type": "uint256"
        },
        {
          "indexed": true,
          "internalType": "address",
          "name": "token",
          "type": "address"
        }
      ],
      "name": "RewardPaid",
      "type": "event"
    },
    {
      "anonymous": false,
      "inputs": [
        {
          "indexed": true,
          "internalType": "address",
          "name": "user",
          "type": "address"
        },
        {
          "indexed": false,
          "internalType": "uint256",
          "name": "amount",
          "type": "uint256"
        }
      ],
      "name": "Staked",
      "type": "event"
    },
    {
      "anonymous": false,
      "inputs": [
        {
          "indexed": true,
          "internalType": "address",
          "name": "user",
          "type": "address"
        },
        {
          "indexed": false,
          "internalType": "uint256",
          "name": "amount",
          "type": "uint256"
        }
      ],
      "name": "Withdrawn",
      "type": "event"
    },
    {
      "inputs": [
        {
          "internalType": "address",
          "name": "_account",
          "type": "address"
        }
      ],
      "name": "balanceOf",
      "outputs": [
        {
          "internalType": "uint256",
          "name": "",
          "type": "uint256"
        }
      ],
      "stateMutability": "view",
      "type": "function"
    },
    {
      "inputs": [
        {
          "internalType": "uint256",
          "name": "_amountReward",
          "type": "uint256"
        },
        {
          "internalType": "address",
          "name": "_rewardToken",
          "type": "address"
        }
      ],
      "name": "donateRewards",
      "outputs": [
        {
          "internalType": "bool",
          "name": "",
          "type": "bool"
        }
      ],
      "stateMutability": "nonpayable",
      "type": "function"
    },
    {
      "inputs": [
        {
          "internalType": "address",
          "name": "_account",
          "type": "address"
        },
        {
          "internalType": "address",
          "name": "_rewardToken",
          "type": "address"
        }
      ],
      "name": "earned",
      "outputs": [
        {
          "internalType": "uint256",
          "name": "",
          "type": "uint256"
        }
      ],
      "stateMutability": "view",
      "type": "function"
    },
    {
      "inputs": [
        {
          "internalType": "address",
          "name": "_account",
          "type": "address"
        }
      ],
      "name": "getReward",
      "outputs": [
        {
          "internalType": "bool",
          "name": "",
          "type": "bool"
        }
      ],
      "stateMutability": "nonpayable",
      "type": "function"
    },
    {
      "inputs": [],
      "name": "getRewardUser",
      "outputs": [
        {
          "internalType": "bool",
          "name": "",
          "type": "bool"
        }
      ],
      "stateMutability": "nonpayable",
      "type": "function"
    },
    {
      "inputs": [],
      "name": "getStakingToken",
      "outputs": [
        {
          "internalType": "address",
          "name": "",
          "type": "address"
        }
      ],
      "stateMutability": "view",
      "type": "function"
    },
    {
      "inputs": [
        {
          "internalType": "address",
          "name": "",
          "type": "address"
        }
      ],
      "name": "isRewardToken",
      "outputs": [
        {
          "internalType": "bool",
          "name": "",
          "type": "bool"
        }
      ],
      "stateMutability": "view",
      "type": "function"
    },
    {
      "inputs": [],
      "name": "mainRewardToken",
      "outputs": [
        {
          "internalType": "address",
          "name": "",
          "type": "address"
        }
      ],
      "stateMutability": "view",
      "type": "function"
    },
    {
      "inputs": [],
      "name": "operator",
      "outputs": [
        {
          "internalType": "address",
          "name": "",
          "type": "address"
        }
      ],
      "stateMutability": "view",
      "type": "function"
    },
    {
      "inputs": [],
      "name": "owner",
      "outputs": [
        {
          "internalType": "address",
          "name": "",
          "type": "address"
        }
      ],
      "stateMutability": "view",
      "type": "function"
    },
    {
      "inputs": [
        {
          "internalType": "uint256",
          "name": "_amountReward",
          "type": "uint256"
        },
        {
          "internalType": "address",
          "name": "_rewardToken",
          "type": "address"
        }
      ],
      "name": "queueNewRewards",
      "outputs": [
        {
          "internalType": "bool",
          "name": "",
          "type": "bool"
        }
      ],
      "stateMutability": "nonpayable",
      "type": "function"
    },
    {
      "inputs": [],
      "name": "renounceOwnership",
      "outputs": [],
      "stateMutability": "nonpayable",
      "type": "function"
    },
    {
      "inputs": [
        {
          "internalType": "address",
          "name": "_rewardToken",
          "type": "address"
        }
      ],
      "name": "rewardDecimals",
      "outputs": [
        {
          "internalType": "uint256",
          "name": "",
          "type": "uint256"
        }
      ],
      "stateMutability": "view",
      "type": "function"
    },
    {
      "inputs": [],
      "name": "rewardManager",
      "outputs": [
        {
          "internalType": "address",
          "name": "",
          "type": "address"
        }
      ],
      "stateMutability": "view",
      "type": "function"
    },
    {
      "inputs": [
        {
          "internalType": "address",
          "name": "_rewardToken",
          "type": "address"
        }
      ],
      "name": "rewardPerToken",
      "outputs": [
        {
          "internalType": "uint256",
          "name": "",
          "type": "uint256"
        }
      ],
      "stateMutability": "view",
      "type": "function"
    },
    {
      "inputs": [
        {
          "internalType": "uint256",
          "name": "",
          "type": "uint256"
        }
      ],
      "name": "rewardTokens",
      "outputs": [
        {
          "internalType": "address",
          "name": "",
          "type": "address"
        }
      ],
      "stateMutability": "view",
      "type": "function"
    },
    {
      "inputs": [
        {
          "internalType": "address",
          "name": "",
          "type": "address"
        }
      ],
      "name": "rewards",
      "outputs": [
        {
          "internalType": "address",
          "name": "rewardToken",
          "type": "address"
        },
        {
          "internalType": "uint256",
          "name": "rewardPerTokenStored",
          "type": "uint256"
        },
        {
          "internalType": "uint256",
          "name": "queuedRewards",
          "type": "uint256"
        },
        {
          "internalType": "uint256",
          "name": "historicalRewards",
          "type": "uint256"
        }
      ],
      "stateMutability": "view",
      "type": "function"
    },
    {
      "inputs": [
        {
          "internalType": "address",
          "name": "_for",
          "type": "address"
        },
        {
          "internalType": "uint256",
          "name": "_amount",
          "type": "uint256"
        }
      ],
      "name": "stakeFor",
      "outputs": [
        {
          "internalType": "bool",
          "name": "",
          "type": "bool"
        }
      ],
      "stateMutability": "nonpayable",
      "type": "function"
    },
    {
      "inputs": [],
      "name": "stakingDecimals",
      "outputs": [
        {
          "internalType": "uint256",
          "name": "",
          "type": "uint256"
        }
      ],
      "stateMutability": "view",
      "type": "function"
    },
    {
      "inputs": [],
      "name": "stakingToken",
      "outputs": [
        {
          "internalType": "address",
          "name": "",
          "type": "address"
        }
      ],
      "stateMutability": "view",
      "type": "function"
    },
    {
      "inputs": [],
      "name": "totalSupply",
      "outputs": [
        {
          "internalType": "uint256",
          "name": "",
          "type": "uint256"
        }
      ],
      "stateMutability": "view",
      "type": "function"
    },
    {
      "inputs": [
        {
          "internalType": "address",
          "name": "newOwner",
          "type": "address"
        }
      ],
      "name": "transferOwnership",
      "outputs": [],
      "stateMutability": "nonpayable",
      "type": "function"
    },
    {
      "inputs": [
        {
          "internalType": "address",
          "name": "_account",
          "type": "address"
        }
      ],
      "name": "updateFor",
      "outputs": [],
      "stateMutability": "nonpayable",
      "type": "function"
    },
    {
      "inputs": [
        {
          "internalType": "address",
          "name": "",
          "type": "address"
        },
        {
          "internalType": "address",
          "name": "",
          "type": "address"
        }
      ],
      "name": "userRewardPerTokenPaid",
      "outputs": [
        {
          "internalType": "uint256",
          "name": "",
          "type": "uint256"
        }
      ],
      "stateMutability": "view",
      "type": "function"
    },
    {
      "inputs": [
        {
          "internalType": "address",
          "name": "",
          "type": "address"
        },
        {
          "internalType": "address",
          "name": "",
          "type": "address"
        }
      ],
      "name": "userRewards",
      "outputs": [
        {
          "internalType": "uint256",
          "name": "",
          "type": "uint256"
        }
      ],
      "stateMutability": "view",
      "type": "function"
    },
    {
      "inputs": [
        {
          "internalType": "address",
          "name": "_for",
          "type": "address"
        },
        {
          "internalType": "uint256",
          "name": "_amount",
          "type": "uint256"
        },
        {
          "internalType": "bool",
          "name": "claim",
          "type": "bool"
        }
      ],
      "name": "withdrawFor",
      "outputs": [
        {
          "internalType": "bool",
          "name": "",
          "type": "bool"
        }
      ],
      "stateMutability": "nonpayable",
      "type": "function"
    }
  ],
  "bytecode": "0x60e06040523480156200001157600080fd5b5060405162001b2b38038062001b2b83398101604081905262000034916200018e565b6200003f3362000121565b6001600160601b0319606094851b8116608090815292851b811660a0526040805193840181526001600160a01b0394851680855260006020808701828152878501838152888b018481528585526005845286852099518a549b166001600160a01b03199b8c16178a5591516001808b019190915590516002808b0191909155915160039099019890985580548089019091557f405787fa12a823e0f2b7631cc41b3ba8828b3321ca811111fa75cd3aa3bb5ace01805490981683179097559081526008909552909320805460ff191690921790915590911b1660c052620001ea565b600080546001600160a01b038381166001600160a01b0319831681178455604051919092169283917f8be0079c531659141344cd1fd0a4f28419497f9722a3daafe3b4186f6b6457e09190a35050565b80516001600160a01b03811681146200018957600080fd5b919050565b60008060008060808587031215620001a4578384fd5b620001af8562000171565b9350620001bf6020860162000171565b9250620001cf6040860162000171565b9150620001df6060860162000171565b905092959194509250565b60805160601c60a05160601c60c05160601c6118de6200024d6000396000818161023e0152610cdc0152600081816102bd0152818161053d015281816109510152610f0e01526000818161033d015281816103ab015261103f01526118de6000f3fe608060405234801561001057600080fd5b506004361061018e5760003560e01c806372f702f3116100de578063a980356a11610097578063c11f534411610071578063c11f534414610430578063f122977714610438578063f2fde38b1461044b578063f3fc7c2b1461045e5761018e565b8063a980356a146103cf578063b5fd73f8146103fa578063c00007b01461041d5761018e565b806372f702f3146103385780637bb7bed11461035f5780638da5cb5b146103725780638fcf48221461038357806399da1729146103965780639f9106d1146103a95761018e565b8063211dc32d1161014b5780635bc59ce7116101255780635bc59ce7146102df5780637035ab98146102f257806370a082311461031d578063715018a6146103305761018e565b8063211dc32d146102925780632ee40908146102a5578063570ca735146102b85761018e565b80630700037d146101935780630e0a5968146102015780630e19c699146102165780630f4ef8a61461023957806318160ddd1461027857806318838d331461028a575b600080fd5b6101d26101a136600461151a565b60056020526000908152604090208054600182015460028301546003909301546001600160a01b0390921692909184565b604080516001600160a01b03909516855260208501939093529183015260608201526080015b60405180910390f35b61021461020f36600461151a565b610471565b005b61022961022436600461158f565b610530565b60405190151581526020016101f8565b6102607f000000000000000000000000000000000000000000000000000000000000000081565b6040516001600160a01b0390911681526020016101f8565b6003545b6040519081526020016101f8565b6102296106e9565b61027c6102a0366004611534565b610892565b6102296102b3366004611566565b610944565b6102607f000000000000000000000000000000000000000000000000000000000000000081565b6102296102ed366004611602565b610ae2565b61027c610300366004611534565b600660209081526000928352604080842090915290825290205481565b61027c61032b36600461151a565b610c20565b610214610c3f565b6102607f000000000000000000000000000000000000000000000000000000000000000081565b61026061036d3660046115ea565b610ca5565b6000546001600160a01b0316610260565b610229610391366004611602565b610ccf565b61027c6103a436600461151a565b610dc8565b7f0000000000000000000000000000000000000000000000000000000000000000610260565b61027c6103dd366004611534565b600760209081526000928352604080842090915290825290205481565b61022961040836600461151a565b60086020526000908152604090205460ff1681565b61022961042b36600461151a565b610e44565b61027c61103b565b61027c61044636600461151a565b6110d6565b61021461045936600461151a565b6110f4565b600154610260906001600160a01b031681565b60025460005b8181101561052b576000600282815481106104a257634e487b7160e01b600052603260045260246000fd5b6000918252602090912001546001600160a01b031690506104c38482610892565b6001600160a01b038083166000908152600760209081526040808320938916835292905220556104f2816110d6565b6001600160a01b0391821660009081526006602090815260408083209488168352939052919091205561052481611869565b9050610477565b505050565b6000336001600160a01b037f000000000000000000000000000000000000000000000000000000000000000016146105835760405162461bcd60e51b815260040161057a90611694565b60405180910390fd5b600254849060005b8181101561063f576000600282815481106105b657634e487b7160e01b600052603260045260246000fd5b6000918252602090912001546001600160a01b031690506105d78482610892565b6001600160a01b03808316600090815260076020908152604080832093891683529290522055610606816110d6565b6001600160a01b0391821660009081526006602090815260408083209488168352939052919091205561063881611869565b905061058b565b508460035461064e9190611826565b6003556001600160a01b038616600090815260046020526040902054610675908690611826565b6001600160a01b038716600081815260046020526040908190209290925590517f7084f5476618d8e60b11ef0d7d3f06914655adb8793e28ff7f018d4c76d505d5906106c49088815260200190565b60405180910390a283156106dd576106db86610e44565b505b50600195945050505050565b6002546000903390825b818110156107a75760006002828154811061071e57634e487b7160e01b600052603260045260246000fd5b6000918252602090912001546001600160a01b0316905061073f8482610892565b6001600160a01b0380831660009081526007602090815260408083209389168352929052205561076e816110d6565b6001600160a01b039182166000908152600660209081526040808320948816835293905291909120556107a081611869565b90506106f3565b5060025460005b81811015610887576000600282815481106107d957634e487b7160e01b600052603260045260246000fd5b60009182526020822001546001600160a01b031691506107f93383610892565b90508015610874576001600160a01b03821660008181526007602090815260408083203380855292528220919091556108339190836111bf565b6040518181526001600160a01b0383169033907f8e0d3fa908fd7ee819155b3ce71e292b601bbeb0cd00d7758b9d226a523cb8279060200160405180910390a35b50508061088090611869565b90506107ae565b506001935050505090565b6001600160a01b0380821660009081526007602090815260408083209386168352929052908120546108c261103b565b6108cd90600a611739565b6001600160a01b038085166000908152600660209081526040808320938916835292905220546108fc856110d6565b6109069190611826565b6001600160a01b0386166000908152600460205260409020546109299190611807565b61093391906116d3565b61093d91906116bb565b9392505050565b6000336001600160a01b037f0000000000000000000000000000000000000000000000000000000000000000161461098e5760405162461bcd60e51b815260040161057a90611694565b600254839060005b81811015610a4a576000600282815481106109c157634e487b7160e01b600052603260045260246000fd5b6000918252602090912001546001600160a01b031690506109e28482610892565b6001600160a01b03808316600090815260076020908152604080832093891683529290522055610a11816110d6565b6001600160a01b03918216600090815260066020908152604080832094881683529390529190912055610a4381611869565b9050610996565b5083600354610a5991906116bb565b6003556001600160a01b038516600090815260046020526040902054610a809085906116bb565b6001600160a01b038616600081815260046020526040908190209290925590517f9e71bc8eea02a63969f509818f2dafb9254532904319f9dbda79b67bd34a5f3d90610acf9087815260200190565b60405180910390a2506001949350505050565b6001600160a01b03811660009081526008602052604081205460ff16610b0757600080fd5b610b1c6001600160a01b038316333086611222565b6001600160a01b03821660009081526005602052604090206003810154610b449085906116bb565b60038083019190915554610b715783816002016000828254610b6691906116bb565b90915550610bd39050565b600281015415610b94576002810154610b8a90856116bb565b6000600283015593505b600354610b9f61103b565b610baa90600a611739565b610bb49086611807565b610bbe91906116d3565b8160010154610bcd91906116bb565b60018201555b826001600160a01b03167ffb5edb6eb340a01f6a67189edc978df97841c43752c212fc85995ea23001763585604051610c0e91815260200190565b60405180910390a25060019392505050565b6001600160a01b0381166000908152600460205260409020545b919050565b6000546001600160a01b03163314610c995760405162461bcd60e51b815260206004820181905260248201527f4f776e61626c653a2063616c6c6572206973206e6f7420746865206f776e6572604482015260640161057a565b610ca36000611260565b565b60028181548110610cb557600080fd5b6000918252602090912001546001600160a01b0316905081565b6000336001600160a01b037f00000000000000000000000000000000000000000000000000000000000000001614610d385760405162461bcd60e51b815260206004820152600c60248201526b27b7363c9026b0b730b3b2b960a11b604482015260640161057a565b6001600160a01b03821660009081526008602052604090205460ff16610b07576002805460018082019092557f405787fa12a823e0f2b7631cc41b3ba8828b3321ca811111fa75cd3aa3bb5ace0180546001600160a01b0319166001600160a01b0385169081179091556000818152600860205260409020805460ff1916909217909155610b1c90333086611222565b6000816001600160a01b031663313ce5676040518163ffffffff1660e01b815260040160206040518083038186803b158015610e0357600080fd5b505afa158015610e17573d6000803e3d6000fd5b505050506040513d601f19601f82011682018060405250810190610e3b9190611624565b60ff1692915050565b6002546000908290825b81811015610f0257600060028281548110610e7957634e487b7160e01b600052603260045260246000fd5b6000918252602090912001546001600160a01b03169050610e9a8482610892565b6001600160a01b03808316600090815260076020908152604080832093891683529290522055610ec9816110d6565b6001600160a01b03918216600090815260066020908152604080832094881683529390529190912055610efb81611869565b9050610e4e565b50336001600160a01b037f00000000000000000000000000000000000000000000000000000000000000001614610f4b5760405162461bcd60e51b815260040161057a90611694565b60025460005b818110156106dd57600060028281548110610f7c57634e487b7160e01b600052603260045260246000fd5b60009182526020822001546001600160a01b03169150610f9c8883610892565b90508015611028576001600160a01b038083166000818152600760209081526040808320948d16835293905291822091909155610fda9089836111bf565b816001600160a01b0316886001600160a01b03167f8e0d3fa908fd7ee819155b3ce71e292b601bbeb0cd00d7758b9d226a523cb8278360405161101f91815260200190565b60405180910390a35b50508061103490611869565b9050610f51565b60007f00000000000000000000000000000000000000000000000000000000000000006001600160a01b031663313ce5676040518163ffffffff1660e01b815260040160206040518083038186803b15801561109657600080fd5b505afa1580156110aa573d6000803e3d6000fd5b505050506040513d601f19601f820116820180604052508101906110ce9190611624565b60ff16905090565b6001600160a01b031660009081526005602052604090206001015490565b6000546001600160a01b0316331461114e5760405162461bcd60e51b815260206004820181905260248201527f4f776e61626c653a2063616c6c6572206973206e6f7420746865206f776e6572604482015260640161057a565b6001600160a01b0381166111b35760405162461bcd60e51b815260206004820152602660248201527f4f776e61626c653a206e6577206f776e657220697320746865207a65726f206160448201526564647265737360d01b606482015260840161057a565b6111bc81611260565b50565b6040516001600160a01b03831660248201526044810182905261052b90849063a9059cbb60e01b906064015b60408051601f198184030181529190526020810180516001600160e01b03166001600160e01b0319909316929092179091526112b0565b6040516001600160a01b038085166024830152831660448201526064810182905261125a9085906323b872dd60e01b906084016111eb565b50505050565b600080546001600160a01b038381166001600160a01b0319831681178455604051919092169283917f8be0079c531659141344cd1fd0a4f28419497f9722a3daafe3b4186f6b6457e09190a35050565b6000611305826040518060400160405280602081526020017f5361666545524332303a206c6f772d6c6576656c2063616c6c206661696c6564815250856001600160a01b03166113829092919063ffffffff16565b80519091501561052b578080602001905181019061132391906115ce565b61052b5760405162461bcd60e51b815260206004820152602a60248201527f5361666545524332303a204552433230206f7065726174696f6e20646964206e6044820152691bdd081cdd58d8d9595960b21b606482015260840161057a565b60606113918484600085611399565b949350505050565b6060824710156113fa5760405162461bcd60e51b815260206004820152602660248201527f416464726573733a20696e73756666696369656e742062616c616e636520666f6044820152651c8818d85b1b60d21b606482015260840161057a565b6001600160a01b0385163b6114515760405162461bcd60e51b815260206004820152601d60248201527f416464726573733a2063616c6c20746f206e6f6e2d636f6e7472616374000000604482015260640161057a565b600080866001600160a01b0316858760405161146d9190611645565b60006040518083038185875af1925050503d80600081146114aa576040519150601f19603f3d011682016040523d82523d6000602084013e6114af565b606091505b50915091506114bf8282866114ca565b979650505050505050565b606083156114d957508161093d565b8251156114e95782518084602001fd5b8160405162461bcd60e51b815260040161057a9190611661565b80356001600160a01b0381168114610c3a57600080fd5b60006020828403121561152b578081fd5b61093d82611503565b60008060408385031215611546578081fd5b61154f83611503565b915061155d60208401611503565b90509250929050565b60008060408385031215611578578182fd5b61158183611503565b946020939093013593505050565b6000806000606084860312156115a3578081fd5b6115ac84611503565b92506020840135915060408401356115c38161189a565b809150509250925092565b6000602082840312156115df578081fd5b815161093d8161189a565b6000602082840312156115fb578081fd5b5035919050565b60008060408385031215611614578182fd5b8235915061155d60208401611503565b600060208284031215611635578081fd5b815160ff8116811461093d578182fd5b6000825161165781846020870161183d565b9190910192915050565b600060208252825180602084015261168081604085016020870161183d565b601f01601f19169190910160400192915050565b6020808252600d908201526c27b7363c9027b832b930ba37b960991b604082015260600190565b600082198211156116ce576116ce611884565b500190565b6000826116ee57634e487b7160e01b81526012600452602481fd5b500490565b80825b60018086116117055750611730565b81870482111561171757611717611884565b8086161561172457918102915b9490941c9380026116f6565b94509492505050565b600061093d60001984846000826117525750600161093d565b8161175f5750600061093d565b8160018114611775576002811461177f576117ac565b600191505061093d565b60ff84111561179057611790611884565b6001841b9150848211156117a6576117a6611884565b5061093d565b5060208310610133831016604e8410600b84101617156117df575081810a838111156117da576117da611884565b61093d565b6117ec84848460016116f3565b8086048211156117fe576117fe611884565b02949350505050565b600081600019048311821515161561182157611821611884565b500290565b60008282101561183857611838611884565b500390565b60005b83811015611858578181015183820152602001611840565b8381111561125a5750506000910152565b600060001982141561187d5761187d611884565b5060010190565b634e487b7160e01b600052601160045260246000fd5b80151581146111bc57600080fdfea2646970667358221220044eed6e4501f4265a5c0bdd356fddc6b82202658cbddc5f531cb46bff14852b64736f6c63430008020033",
  "linkReferences": {},
  "deployedLinkReferences": {}
}