{
  "_format": "hh-sol-artifact-1",
  "contractName": "RGN",
  "sourceName": "contracts/Tokens/RGN.sol",
  "abi": [
    {
      "inputs": [
        {
          "internalType": "string",
          "name": "_name",
          "type": "string"
        },
        {
          "internalType": "string",
          "name": "_symbol",
          "type": "string"
        },
        {
          "internalType": "uint256",
          "name": "_initialMint",
          "type": "uint256"
        },
        {
          "internalType": "address",
          "name": "_initialMintTo",
          "type": "address"
        }
      ],
      "stateMutability": "nonpayable",
      "type": "constructor"
    },
    {
      "anonymous": false,
      "inputs": [
        {
          "indexed": true,
          "internalType": "address",
          "name": "owner",
          "type": "address"
        },
        {
          "indexed": true,
          "internalType": "address",
          "name": "spender",
          "type": "address"
        },
        {
          "indexed": false,
          "internalType": "uint256",
          "name": "value",
          "type": "uint256"
        }
      ],
      "name": "Approval",
      "type": "event"
    },
    {
      "anonymous": false,
      "inputs": [
        {
          "indexed": true,
          "internalType": "address",
          "name": "previousOwner",
          "type": "address"
        },
        {
          "indexed": true,
          "internalType": "address",
          "name": "newOwner",
          "type": "address"
        }
      ],
      "name": "OwnershipTransferred",
      "type": "event"
    },
    {
      "anonymous": false,
      "inputs": [
        {
          "indexed": true,
          "internalType": "address",
          "name": "from",
          "type": "address"
        },
        {
          "indexed": true,
          "internalType": "address",
          "name": "to",
          "type": "address"
        },
        {
          "indexed": false,
          "internalType": "uint256",
          "name": "value",
          "type": "uint256"
        }
      ],
      "name": "Transfer",
      "type": "event"
    },
    {
      "inputs": [],
      "name": "MAX_SUPPLY",
      "outputs": [
        {
          "internalType": "uint256",
          "name": "",
          "type": "uint256"
        }
      ],
      "stateMutability": "view",
      "type": "function"
    },
    {
      "inputs": [
        {
          "internalType": "address",
          "name": "_minter",
          "type": "address"
        }
      ],
      "name": "addMinter",
      "outputs": [],
      "stateMutability": "nonpayable",
      "type": "function"
    },
    {
      "inputs": [
        {
          "internalType": "address",
          "name": "owner",
          "type": "address"
        },
        {
          "internalType": "address",
          "name": "spender",
          "type": "address"
        }
      ],
      "name": "allowance",
      "outputs": [
        {
          "internalType": "uint256",
          "name": "",
          "type": "uint256"
        }
      ],
      "stateMutability": "view",
      "type": "function"
    },
    {
      "inputs": [],
      "name": "amountConverted",
      "outputs": [
        {
          "internalType": "uint256",
          "name": "",
          "type": "uint256"
        }
      ],
      "stateMutability": "view",
      "type": "function"
    },
    {
      "inputs": [
        {
          "internalType": "address",
          "name": "spender",
          "type": "address"
        },
        {
          "internalType": "uint256",
          "name": "amount",
          "type": "uint256"
        }
      ],
      "name": "approve",
      "outputs": [
        {
          "internalType": "bool",
          "name": "",
          "type": "bool"
        }
      ],
      "stateMutability": "nonpayable",
      "type": "function"
    },
    {
      "inputs": [
        {
          "internalType": "address",
          "name": "account",
          "type": "address"
        }
      ],
      "name": "balanceOf",
      "outputs": [
        {
          "internalType": "uint256",
          "name": "",
          "type": "uint256"
        }
      ],
      "stateMutability": "view",
      "type": "function"
    },
    {
      "inputs": [
        {
          "internalType": "address",
          "name": "_from",
          "type": "address"
        },
        {
          "internalType": "uint256",
          "name": "_amount",
          "type": "uint256"
        }
      ],
      "name": "burn",
      "outputs": [],
      "stateMutability": "nonpayable",
      "type": "function"
    },
    {
      "inputs": [],
      "name": "decimals",
      "outputs": [
        {
          "internalType": "uint8",
          "name": "",
          "type": "uint8"
        }
      ],
      "stateMutability": "view",
      "type": "function"
    },
    {
      "inputs": [
        {
          "internalType": "address",
          "name": "spender",
          "type": "address"
        },
        {
          "internalType": "uint256",
          "name": "subtractedValue",
          "type": "uint256"
        }
      ],
      "name": "decreaseAllowance",
      "outputs": [
        {
          "internalType": "bool",
          "name": "",
          "type": "bool"
        }
      ],
      "stateMutability": "nonpayable",
      "type": "function"
    },
    {
      "inputs": [
        {
          "internalType": "uint256",
          "name": "_amount",
          "type": "uint256"
        }
      ],
      "name": "deposit",
      "outputs": [],
      "stateMutability": "nonpayable",
      "type": "function"
    },
    {
      "inputs": [
        {
          "internalType": "address",
          "name": "spender",
          "type": "address"
        },
        {
          "internalType": "uint256",
          "name": "addedValue",
          "type": "uint256"
        }
      ],
      "name": "increaseAllowance",
      "outputs": [
        {
          "internalType": "bool",
          "name": "",
          "type": "bool"
        }
      ],
      "stateMutability": "nonpayable",
      "type": "function"
    },
    {
      "inputs": [],
      "name": "maxSupplyUpdated",
      "outputs": [
        {
          "internalType": "uint256",
          "name": "",
          "type": "uint256"
        }
      ],
      "stateMutability": "view",
      "type": "function"
    },
    {
      "inputs": [
        {
          "internalType": "address",
          "name": "_to",
          "type": "address"
        },
        {
          "internalType": "uint256",
          "name": "_amount",
          "type": "uint256"
        }
      ],
      "name": "mint",
      "outputs": [],
      "stateMutability": "nonpayable",
      "type": "function"
    },
    {
      "inputs": [],
      "name": "name",
      "outputs": [
        {
          "internalType": "string",
          "name": "",
          "type": "string"
        }
      ],
      "stateMutability": "view",
      "type": "function"
    },
    {
      "inputs": [],
      "name": "owner",
      "outputs": [
        {
          "internalType": "address",
          "name": "",
          "type": "address"
        }
      ],
      "stateMutability": "view",
      "type": "function"
    },
    {
      "inputs": [],
      "name": "previousLRGN",
      "outputs": [
        {
          "internalType": "address",
          "name": "",
          "type": "address"
        }
      ],
      "stateMutability": "view",
      "type": "function"
    },
    {
      "inputs": [],
      "name": "previousRGN",
      "outputs": [
        {
          "internalType": "address",
          "name": "",
          "type": "address"
        }
      ],
      "stateMutability": "view",
      "type": "function"
    },
    {
      "inputs": [
        {
          "internalType": "address",
          "name": "_minter",
          "type": "address"
        }
      ],
      "name": "removeMinter",
      "outputs": [],
      "stateMutability": "nonpayable",
      "type": "function"
    },
    {
      "inputs": [],
      "name": "renounceOwnership",
      "outputs": [],
      "stateMutability": "nonpayable",
      "type": "function"
    },
    {
      "inputs": [
        {
          "internalType": "address",
          "name": "_previousLRGN",
          "type": "address"
        }
      ],
      "name": "setPreviousLRGN",
      "outputs": [],
      "stateMutability": "nonpayable",
      "type": "function"
    },
    {
      "inputs": [
        {
          "internalType": "address",
          "name": "_previousRGN",
          "type": "address"
        }
      ],
      "name": "setPreviousRGN",
      "outputs": [],
      "stateMutability": "nonpayable",
      "type": "function"
    },
    {
      "inputs": [],
      "name": "symbol",
      "outputs": [
        {
          "internalType": "string",
          "name": "",
          "type": "string"
        }
      ],
      "stateMutability": "view",
      "type": "function"
    },
    {
      "inputs": [],
      "name": "totalSupply",
      "outputs": [
        {
          "internalType": "uint256",
          "name": "",
          "type": "uint256"
        }
      ],
      "stateMutability": "view",
      "type": "function"
    },
    {
      "inputs": [
        {
          "internalType": "address",
          "name": "to",
          "type": "address"
        },
        {
          "internalType": "uint256",
          "name": "amount",
          "type": "uint256"
        }
      ],
      "name": "transfer",
      "outputs": [
        {
          "internalType": "bool",
          "name": "",
          "type": "bool"
        }
      ],
      "stateMutability": "nonpayable",
      "type": "function"
    },
    {
      "inputs": [
        {
          "internalType": "address",
          "name": "from",
          "type": "address"
        },
        {
          "internalType": "address",
          "name": "to",
          "type": "address"
        },
        {
          "internalType": "uint256",
          "name": "amount",
          "type": "uint256"
        }
      ],
      "name": "transferFrom",
      "outputs": [
        {
          "internalType": "bool",
          "name": "",
          "type": "bool"
        }
      ],
      "stateMutability": "nonpayable",
      "type": "function"
    },
    {
      "inputs": [
        {
          "internalType": "address",
          "name": "newOwner",
          "type": "address"
        }
      ],
      "name": "transferOwnership",
      "outputs": [],
      "stateMutability": "nonpayable",
      "type": "function"
    },
    {
      "inputs": [],
      "name": "updateMaxSupply",
      "outputs": [],
      "stateMutability": "nonpayable",
      "type": "function"
    }
  ],
  "bytecode": "0x60806040526a52b7d2dcc80cd2e40000006009553480156200002057600080fd5b5060405162001a9c38038062001a9c833981016040819052620000439162000342565b8383818181600390805190602001906200005f929190620001e9565b50805162000075906004906020840190620001e9565b505050620000926200008c620000ab60201b60201c565b620000af565b50620000a19050818362000101565b505050506200044b565b3390565b600580546001600160a01b038381166001600160a01b0319831681179093556040519116919082907f8be0079c531659141344cd1fd0a4f28419497f9722a3daafe3b4186f6b6457e090600090a35050565b6001600160a01b0382166200015c5760405162461bcd60e51b815260206004820152601f60248201527f45524332303a206d696e7420746f20746865207a65726f206164647265737300604482015260640160405180910390fd5b8060026000828254620001709190620003d3565b90915550506001600160a01b038216600090815260208190526040812080548392906200019f908490620003d3565b90915550506040518181526001600160a01b038316906000907fddf252ad1be2c89b69c2b068fc378daa952ba7f163c4a11628f55a4df523b3ef9060200160405180910390a35050565b828054620001f790620003f8565b90600052602060002090601f0160209004810192826200021b576000855562000266565b82601f106200023657805160ff191683800117855562000266565b8280016001018555821562000266579182015b828111156200026657825182559160200191906001019062000249565b506200027492915062000278565b5090565b5b8082111562000274576000815560010162000279565b600082601f830112620002a0578081fd5b81516001600160401b0380821115620002bd57620002bd62000435565b604051601f8301601f19908116603f01168101908282118183101715620002e857620002e862000435565b8160405283815260209250868385880101111562000304578485fd5b8491505b8382101562000327578582018301518183018401529082019062000308565b838211156200033857848385830101525b9695505050505050565b6000806000806080858703121562000358578384fd5b84516001600160401b03808211156200036f578586fd5b6200037d888389016200028f565b9550602087015191508082111562000393578485fd5b50620003a2878288016200028f565b60408701516060880151919550935090506001600160a01b0381168114620003c8578182fd5b939692955090935050565b60008219821115620003f357634e487b7160e01b81526011600452602481fd5b500190565b6002810460018216806200040d57607f821691505b602082108114156200042f57634e487b7160e01b600052602260045260246000fd5b50919050565b634e487b7160e01b600052604160045260246000fd5b611641806200045b6000396000f3fe608060405234801561001057600080fd5b50600436106101a95760003560e01c8063715018a6116100f9578063a9059cbb11610097578063dd62ed3e11610071578063dd62ed3e1461036a578063e0a0da0b146103a3578063e3248d72146103b6578063f2fde38b146103be576101a9565b8063a9059cbb14610331578063b6b55f2514610344578063d1b3fc2214610357576101a9565b8063983b2d56116100d3578063983b2d56146102e55780639dc29fac146102f85780639fdc87cd1461030b578063a457c2d71461031e576101a9565b8063715018a6146102c45780638da5cb5b146102cc57806395d89b41146102dd576101a9565b80633092afd5116101665780633950935111610140578063395093511461026057806340c10f19146102735780635b6481a51461028657806370a08231146102b1576101a9565b80633092afd51461022a578063313ce5671461023f57806332cb6b0c1461024e576101a9565b806306fdde03146101ae578063095ea7b3146101cc5780631677d179146101ef57806318160ddd1461020657806322fb40461461020e57806323b872dd14610217575b600080fd5b6101b66103d1565b6040516101c391906114f7565b60405180910390f35b6101df6101da366004611462565b610463565b60405190151581526020016101c3565b6101f8600a5481565b6040519081526020016101c3565b6002546101f8565b6101f860095481565b6101df610225366004611427565b61047b565b61023d6102383660046113db565b6104a1565b005b604051601281526020016101c3565b6101f86a52b7d2dcc80cd2e400000081565b6101df61026e366004611462565b6104f5565b61023d610281366004611462565b610534565b600854610299906001600160a01b031681565b6040516001600160a01b0390911681526020016101c3565b6101f86102bf3660046113db565b610590565b61023d6105af565b6005546001600160a01b0316610299565b6101b66105e5565b61023d6102f33660046113db565b6105f4565b61023d610306366004611462565b610642565b61023d6103193660046113db565b61069a565b6101df61032c366004611462565b61072d565b6101df61033f366004611462565b6107ca565b61023d6103523660046114ab565b6107d8565b61023d6103653660046113db565b6108a4565b6101f86103783660046113f5565b6001600160a01b03918216600090815260016020908152604080832093909416825291909152205490565b600754610299906001600160a01b031681565b61023d610937565b61023d6103cc3660046113db565b610a91565b6060600380546103e0906115ba565b80601f016020809104026020016040519081016040528092919081815260200182805461040c906115ba565b80156104595780601f1061042e57610100808354040283529160200191610459565b820191906000526020600020905b81548152906001019060200180831161043c57829003601f168201915b5050505050905090565b600033610471818585610b2c565b5060019392505050565b600033610489858285610c51565b610494858585610ce3565b60019150505b9392505050565b6005546001600160a01b031633146104d45760405162461bcd60e51b81526004016104cb9061152a565b60405180910390fd5b6001600160a01b03166000908152600660205260409020805460ff19169055565b3360008181526001602090815260408083206001600160a01b0387168452909152812054909190610471908290869061052f90879061155f565b610b2c565b3360009081526006602052604090205460ff166105825760405162461bcd60e51b815260206004820152600c60248201526b2737ba10309036b4b73a32b960a11b60448201526064016104cb565b61058c8282610eb1565b5050565b6001600160a01b0381166000908152602081905260409020545b919050565b6005546001600160a01b031633146105d95760405162461bcd60e51b81526004016104cb9061152a565b6105e36000610f91565b565b6060600480546103e0906115ba565b6005546001600160a01b0316331461061e5760405162461bcd60e51b81526004016104cb9061152a565b6001600160a01b03166000908152600660205260409020805460ff19166001179055565b3360009081526006602052604090205460ff166106905760405162461bcd60e51b815260206004820152600c60248201526b2737ba10309036b4b73a32b960a11b60448201526064016104cb565b61058c8282610fe3565b6005546001600160a01b031633146106c45760405162461bcd60e51b81526004016104cb9061152a565b6008546001600160a01b03161561070b5760405162461bcd60e51b815260206004820152600b60248201526a626164206164647265737360a81b60448201526064016104cb565b600880546001600160a01b0319166001600160a01b0392909216919091179055565b3360008181526001602090815260408083206001600160a01b0387168452909152812054909190838110156107b25760405162461bcd60e51b815260206004820152602560248201527f45524332303a2064656372656173656420616c6c6f77616e63652062656c6f77604482015264207a65726f60d81b60648201526084016104cb565b6107bf8286868403610b2c565b506001949350505050565b600033610471818585610ce3565b6007546001600160a01b03166108275760405162461bcd60e51b8152602060048201526014602482015273141c995d9a5bdd5cc81491d3881b9bdd081cd95d60621b60448201526064016104cb565b6a52b7d2dcc80cd2e40000008161083d60025490565b610847919061155f565b111561086857600254610865906a52b7d2dcc80cd2e4000000611577565b90505b600754610880906001600160a01b031633308461112e565b61088a3382610eb1565b80600a600082825461089c919061155f565b909155505050565b6005546001600160a01b031633146108ce5760405162461bcd60e51b81526004016104cb9061152a565b6007546001600160a01b0316156109155760405162461bcd60e51b815260206004820152600b60248201526a626164206164647265737360a81b60448201526064016104cb565b600780546001600160a01b0319166001600160a01b0392909216919091179055565b6005546001600160a01b031633146109615760405162461bcd60e51b81526004016104cb9061152a565b600860009054906101000a90046001600160a01b03166001600160a01b03166318160ddd6040518163ffffffff1660e01b815260040160206040518083038186803b1580156109af57600080fd5b505afa1580156109c3573d6000803e3d6000fd5b505050506040513d601f19601f820116820180604052508101906109e791906114c3565b600760009054906101000a90046001600160a01b03166001600160a01b03166318160ddd6040518163ffffffff1660e01b815260040160206040518083038186803b158015610a3557600080fd5b505afa158015610a49573d6000803e3d6000fd5b505050506040513d601f19601f82011682018060405250810190610a6d91906114c3565b610a82906a52b7d2dcc80cd2e4000000611577565b610a8c919061155f565b600955565b6005546001600160a01b03163314610abb5760405162461bcd60e51b81526004016104cb9061152a565b6001600160a01b038116610b205760405162461bcd60e51b815260206004820152602660248201527f4f776e61626c653a206e6577206f776e657220697320746865207a65726f206160448201526564647265737360d01b60648201526084016104cb565b610b2981610f91565b50565b6001600160a01b038316610b8e5760405162461bcd60e51b8152602060048201526024808201527f45524332303a20617070726f76652066726f6d20746865207a65726f206164646044820152637265737360e01b60648201526084016104cb565b6001600160a01b038216610bef5760405162461bcd60e51b815260206004820152602260248201527f45524332303a20617070726f766520746f20746865207a65726f206164647265604482015261737360f01b60648201526084016104cb565b6001600160a01b0383811660008181526001602090815260408083209487168084529482529182902085905590518481527f8c5be1e5ebec7d5bd14f71427d1e84f3dd0314c0f7b2291e5b200ac8c7c3b92591015b60405180910390a3505050565b6001600160a01b038381166000908152600160209081526040808320938616835292905220546000198114610cdd5781811015610cd05760405162461bcd60e51b815260206004820152601d60248201527f45524332303a20696e73756666696369656e7420616c6c6f77616e636500000060448201526064016104cb565b610cdd8484848403610b2c565b50505050565b6001600160a01b038316610d475760405162461bcd60e51b815260206004820152602560248201527f45524332303a207472616e736665722066726f6d20746865207a65726f206164604482015264647265737360d81b60648201526084016104cb565b6001600160a01b038216610da95760405162461bcd60e51b815260206004820152602360248201527f45524332303a207472616e7366657220746f20746865207a65726f206164647260448201526265737360e81b60648201526084016104cb565b6001600160a01b03831660009081526020819052604090205481811015610e215760405162461bcd60e51b815260206004820152602660248201527f45524332303a207472616e7366657220616d6f756e7420657863656564732062604482015265616c616e636560d01b60648201526084016104cb565b6001600160a01b03808516600090815260208190526040808220858503905591851681529081208054849290610e5890849061155f565b92505081905550826001600160a01b0316846001600160a01b03167fddf252ad1be2c89b69c2b068fc378daa952ba7f163c4a11628f55a4df523b3ef84604051610ea491815260200190565b60405180910390a3610cdd565b6001600160a01b038216610f075760405162461bcd60e51b815260206004820152601f60248201527f45524332303a206d696e7420746f20746865207a65726f20616464726573730060448201526064016104cb565b8060026000828254610f19919061155f565b90915550506001600160a01b03821660009081526020819052604081208054839290610f4690849061155f565b90915550506040518181526001600160a01b038316906000907fddf252ad1be2c89b69c2b068fc378daa952ba7f163c4a11628f55a4df523b3ef9060200160405180910390a361058c565b600580546001600160a01b038381166001600160a01b0319831681179093556040519116919082907f8be0079c531659141344cd1fd0a4f28419497f9722a3daafe3b4186f6b6457e090600090a35050565b6001600160a01b0382166110435760405162461bcd60e51b815260206004820152602160248201527f45524332303a206275726e2066726f6d20746865207a65726f206164647265736044820152607360f81b60648201526084016104cb565b6001600160a01b038216600090815260208190526040902054818110156110b75760405162461bcd60e51b815260206004820152602260248201527f45524332303a206275726e20616d6f756e7420657863656564732062616c616e604482015261636560f01b60648201526084016104cb565b6001600160a01b03831660009081526020819052604081208383039055600280548492906110e6908490611577565b90915550506040518281526000906001600160a01b038516907fddf252ad1be2c89b69c2b068fc378daa952ba7f163c4a11628f55a4df523b3ef90602001610c44565b505050565b604080516001600160a01b038581166024830152848116604483015260648083018590528351808403909101815260849092018352602080830180516001600160e01b03166323b872dd60e01b17905283518085019094528084527f5361666545524332303a206c6f772d6c6576656c2063616c6c206661696c656490840152610cdd928792916000916111c6918516908490611243565b80519091501561112957808060200190518101906111e4919061148b565b6111295760405162461bcd60e51b815260206004820152602a60248201527f5361666545524332303a204552433230206f7065726174696f6e20646964206e6044820152691bdd081cdd58d8d9595960b21b60648201526084016104cb565b6060611252848460008561125a565b949350505050565b6060824710156112bb5760405162461bcd60e51b815260206004820152602660248201527f416464726573733a20696e73756666696369656e742062616c616e636520666f6044820152651c8818d85b1b60d21b60648201526084016104cb565b6001600160a01b0385163b6113125760405162461bcd60e51b815260206004820152601d60248201527f416464726573733a2063616c6c20746f206e6f6e2d636f6e747261637400000060448201526064016104cb565b600080866001600160a01b0316858760405161132e91906114db565b60006040518083038185875af1925050503d806000811461136b576040519150601f19603f3d011682016040523d82523d6000602084013e611370565b606091505b509150915061138082828661138b565b979650505050505050565b6060831561139a57508161049a565b8251156113aa5782518084602001fd5b8160405162461bcd60e51b81526004016104cb91906114f7565b80356001600160a01b03811681146105aa57600080fd5b6000602082840312156113ec578081fd5b61049a826113c4565b60008060408385031215611407578081fd5b611410836113c4565b915061141e602084016113c4565b90509250929050565b60008060006060848603121561143b578081fd5b611444846113c4565b9250611452602085016113c4565b9150604084013590509250925092565b60008060408385031215611474578182fd5b61147d836113c4565b946020939093013593505050565b60006020828403121561149c578081fd5b8151801515811461049a578182fd5b6000602082840312156114bc578081fd5b5035919050565b6000602082840312156114d4578081fd5b5051919050565b600082516114ed81846020870161158e565b9190910192915050565b600060208252825180602084015261151681604085016020870161158e565b601f01601f19169190910160400192915050565b6020808252818101527f4f776e61626c653a2063616c6c6572206973206e6f7420746865206f776e6572604082015260600190565b60008219821115611572576115726115f5565b500190565b600082821015611589576115896115f5565b500390565b60005b838110156115a9578181015183820152602001611591565b83811115610cdd5750506000910152565b6002810460018216806115ce57607f821691505b602082108114156115ef57634e487b7160e01b600052602260045260246000fd5b50919050565b634e487b7160e01b600052601160045260246000fdfea264697066735822122099e772802c47cccae61d232fdb84f480ba2d2d6fe79be9b59e3281f2ea4bef1964736f6c63430008020033",
  "linkReferences": {},
  "deployedLinkReferences": {}
}