{
  "_format": "hh-sol-artifact-1",
  "contractName": "RGN",
  "sourceName": "contracts/Tokens/RGN.sol",
  "abi": [
    {
      "inputs": [
        {
          "internalType": "string",
          "name": "_name",
          "type": "string"
        },
        {
          "internalType": "string",
          "name": "_symbol",
          "type": "string"
        },
        {
          "internalType": "uint256",
          "name": "_initialMint",
          "type": "uint256"
        },
        {
          "internalType": "address",
          "name": "_initialMintTo",
          "type": "address"
        }
      ],
      "stateMutability": "nonpayable",
      "type": "constructor"
    },
    {
      "anonymous": false,
      "inputs": [
        {
          "indexed": true,
          "internalType": "address",
          "name": "owner",
          "type": "address"
        },
        {
          "indexed": true,
          "internalType": "address",
          "name": "spender",
          "type": "address"
        },
        {
          "indexed": false,
          "internalType": "uint256",
          "name": "value",
          "type": "uint256"
        }
      ],
      "name": "Approval",
      "type": "event"
    },
    {
      "anonymous": false,
      "inputs": [
        {
          "indexed": true,
          "internalType": "address",
          "name": "previousOwner",
          "type": "address"
        },
        {
          "indexed": true,
          "internalType": "address",
          "name": "newOwner",
          "type": "address"
        }
      ],
      "name": "OwnershipTransferred",
      "type": "event"
    },
    {
      "anonymous": false,
      "inputs": [
        {
          "indexed": true,
          "internalType": "address",
          "name": "from",
          "type": "address"
        },
        {
          "indexed": true,
          "internalType": "address",
          "name": "to",
          "type": "address"
        },
        {
          "indexed": false,
          "internalType": "uint256",
          "name": "value",
          "type": "uint256"
        }
      ],
      "name": "Transfer",
      "type": "event"
    },
    {
      "inputs": [],
      "name": "MAX_SUPPLY",
      "outputs": [
        {
          "internalType": "uint256",
          "name": "",
          "type": "uint256"
        }
      ],
      "stateMutability": "view",
      "type": "function"
    },
    {
      "inputs": [
        {
          "internalType": "address",
          "name": "owner",
          "type": "address"
        },
        {
          "internalType": "address",
          "name": "spender",
          "type": "address"
        }
      ],
      "name": "allowance",
      "outputs": [
        {
          "internalType": "uint256",
          "name": "",
          "type": "uint256"
        }
      ],
      "stateMutability": "view",
      "type": "function"
    },
    {
      "inputs": [],
      "name": "amountConverted",
      "outputs": [
        {
          "internalType": "uint256",
          "name": "",
          "type": "uint256"
        }
      ],
      "stateMutability": "view",
      "type": "function"
    },
    {
      "inputs": [
        {
          "internalType": "address",
          "name": "spender",
          "type": "address"
        },
        {
          "internalType": "uint256",
          "name": "amount",
          "type": "uint256"
        }
      ],
      "name": "approve",
      "outputs": [
        {
          "internalType": "bool",
          "name": "",
          "type": "bool"
        }
      ],
      "stateMutability": "nonpayable",
      "type": "function"
    },
    {
      "inputs": [
        {
          "internalType": "address",
          "name": "account",
          "type": "address"
        }
      ],
      "name": "balanceOf",
      "outputs": [
        {
          "internalType": "uint256",
          "name": "",
          "type": "uint256"
        }
      ],
      "stateMutability": "view",
      "type": "function"
    },
    {
      "inputs": [
        {
          "internalType": "address",
          "name": "account",
          "type": "address"
        },
        {
          "internalType": "uint256",
          "name": "amount",
          "type": "uint256"
        }
      ],
      "name": "burn",
      "outputs": [],
      "stateMutability": "nonpayable",
      "type": "function"
    },
    {
      "inputs": [],
      "name": "decimals",
      "outputs": [
        {
          "internalType": "uint8",
          "name": "",
          "type": "uint8"
        }
      ],
      "stateMutability": "view",
      "type": "function"
    },
    {
      "inputs": [
        {
          "internalType": "address",
          "name": "spender",
          "type": "address"
        },
        {
          "internalType": "uint256",
          "name": "subtractedValue",
          "type": "uint256"
        }
      ],
      "name": "decreaseAllowance",
      "outputs": [
        {
          "internalType": "bool",
          "name": "",
          "type": "bool"
        }
      ],
      "stateMutability": "nonpayable",
      "type": "function"
    },
    {
      "inputs": [
        {
          "internalType": "uint256",
          "name": "_amount",
          "type": "uint256"
        }
      ],
      "name": "deposit",
      "outputs": [],
      "stateMutability": "nonpayable",
      "type": "function"
    },
    {
      "inputs": [
        {
          "internalType": "address",
          "name": "spender",
          "type": "address"
        },
        {
          "internalType": "uint256",
          "name": "addedValue",
          "type": "uint256"
        }
      ],
      "name": "increaseAllowance",
      "outputs": [
        {
          "internalType": "bool",
          "name": "",
          "type": "bool"
        }
      ],
      "stateMutability": "nonpayable",
      "type": "function"
    },
    {
      "inputs": [],
      "name": "maxSupplyUpdated",
      "outputs": [
        {
          "internalType": "uint256",
          "name": "",
          "type": "uint256"
        }
      ],
      "stateMutability": "view",
      "type": "function"
    },
    {
      "inputs": [
        {
          "internalType": "address",
          "name": "_to",
          "type": "address"
        },
        {
          "internalType": "uint256",
          "name": "_amount",
          "type": "uint256"
        }
      ],
      "name": "mint",
      "outputs": [],
      "stateMutability": "nonpayable",
      "type": "function"
    },
    {
      "inputs": [],
      "name": "minter",
      "outputs": [
        {
          "internalType": "address",
          "name": "",
          "type": "address"
        }
      ],
      "stateMutability": "view",
      "type": "function"
    },
    {
      "inputs": [],
      "name": "name",
      "outputs": [
        {
          "internalType": "string",
          "name": "",
          "type": "string"
        }
      ],
      "stateMutability": "view",
      "type": "function"
    },
    {
      "inputs": [],
      "name": "owner",
      "outputs": [
        {
          "internalType": "address",
          "name": "",
          "type": "address"
        }
      ],
      "stateMutability": "view",
      "type": "function"
    },
    {
      "inputs": [],
      "name": "previousLRGN",
      "outputs": [
        {
          "internalType": "address",
          "name": "",
          "type": "address"
        }
      ],
      "stateMutability": "view",
      "type": "function"
    },
    {
      "inputs": [],
      "name": "previousRGN",
      "outputs": [
        {
          "internalType": "address",
          "name": "",
          "type": "address"
        }
      ],
      "stateMutability": "view",
      "type": "function"
    },
    {
      "inputs": [],
      "name": "renounceOwnership",
      "outputs": [],
      "stateMutability": "nonpayable",
      "type": "function"
    },
    {
      "inputs": [
        {
          "internalType": "address",
          "name": "_minter",
          "type": "address"
        }
      ],
      "name": "setMinter",
      "outputs": [],
      "stateMutability": "nonpayable",
      "type": "function"
    },
    {
      "inputs": [
        {
          "internalType": "address",
          "name": "_previousLRGN",
          "type": "address"
        }
      ],
      "name": "setPreviousLRGN",
      "outputs": [],
      "stateMutability": "nonpayable",
      "type": "function"
    },
    {
      "inputs": [
        {
          "internalType": "address",
          "name": "_previousRGN",
          "type": "address"
        }
      ],
      "name": "setPreviousRGN",
      "outputs": [],
      "stateMutability": "nonpayable",
      "type": "function"
    },
    {
      "inputs": [],
      "name": "symbol",
      "outputs": [
        {
          "internalType": "string",
          "name": "",
          "type": "string"
        }
      ],
      "stateMutability": "view",
      "type": "function"
    },
    {
      "inputs": [],
      "name": "totalSupply",
      "outputs": [
        {
          "internalType": "uint256",
          "name": "",
          "type": "uint256"
        }
      ],
      "stateMutability": "view",
      "type": "function"
    },
    {
      "inputs": [
        {
          "internalType": "address",
          "name": "to",
          "type": "address"
        },
        {
          "internalType": "uint256",
          "name": "amount",
          "type": "uint256"
        }
      ],
      "name": "transfer",
      "outputs": [
        {
          "internalType": "bool",
          "name": "",
          "type": "bool"
        }
      ],
      "stateMutability": "nonpayable",
      "type": "function"
    },
    {
      "inputs": [
        {
          "internalType": "address",
          "name": "from",
          "type": "address"
        },
        {
          "internalType": "address",
          "name": "to",
          "type": "address"
        },
        {
          "internalType": "uint256",
          "name": "amount",
          "type": "uint256"
        }
      ],
      "name": "transferFrom",
      "outputs": [
        {
          "internalType": "bool",
          "name": "",
          "type": "bool"
        }
      ],
      "stateMutability": "nonpayable",
      "type": "function"
    },
    {
      "inputs": [
        {
          "internalType": "address",
          "name": "newOwner",
          "type": "address"
        }
      ],
      "name": "transferOwnership",
      "outputs": [],
      "stateMutability": "nonpayable",
      "type": "function"
    },
    {
      "inputs": [],
      "name": "updateMaxSupply",
      "outputs": [],
      "stateMutability": "nonpayable",
      "type": "function"
    }
  ],
  "bytecode": "0x60806040526a52b7d2dcc80cd2e40000006009553480156200002057600080fd5b5060405162001b4838038062001b48833981016040819052620000439162000342565b8383818181600390805190602001906200005f929190620001e9565b50805162000075906004906020840190620001e9565b505050620000926200008c620000ab60201b60201c565b620000af565b50620000a19050818362000101565b505050506200044b565b3390565b600580546001600160a01b038381166001600160a01b0319831681179093556040519116919082907f8be0079c531659141344cd1fd0a4f28419497f9722a3daafe3b4186f6b6457e090600090a35050565b6001600160a01b0382166200015c5760405162461bcd60e51b815260206004820152601f60248201527f45524332303a206d696e7420746f20746865207a65726f206164647265737300604482015260640160405180910390fd5b8060026000828254620001709190620003d3565b90915550506001600160a01b038216600090815260208190526040812080548392906200019f908490620003d3565b90915550506040518181526001600160a01b038316906000907fddf252ad1be2c89b69c2b068fc378daa952ba7f163c4a11628f55a4df523b3ef9060200160405180910390a35050565b828054620001f790620003f8565b90600052602060002090601f0160209004810192826200021b576000855562000266565b82601f106200023657805160ff191683800117855562000266565b8280016001018555821562000266579182015b828111156200026657825182559160200191906001019062000249565b506200027492915062000278565b5090565b5b8082111562000274576000815560010162000279565b600082601f830112620002a0578081fd5b81516001600160401b0380821115620002bd57620002bd62000435565b604051601f8301601f19908116603f01168101908282118183101715620002e857620002e862000435565b8160405283815260209250868385880101111562000304578485fd5b8491505b8382101562000327578582018301518183018401529082019062000308565b838211156200033857848385830101525b9695505050505050565b6000806000806080858703121562000358578384fd5b84516001600160401b03808211156200036f578586fd5b6200037d888389016200028f565b9550602087015191508082111562000393578485fd5b50620003a2878288016200028f565b60408701516060880151919550935090506001600160a01b0381168114620003c8578182fd5b939692955090935050565b60008219821115620003f357634e487b7160e01b81526011600452602481fd5b500190565b6002810460018216806200040d57607f821691505b602082108114156200042f57634e487b7160e01b600052602260045260246000fd5b50919050565b634e487b7160e01b600052604160045260246000fd5b6116ed806200045b6000396000f3fe608060405234801561001057600080fd5b50600436106101a95760003560e01c8063715018a6116100f9578063b6b55f2511610097578063e0a0da0b11610071578063e0a0da0b14610390578063e3248d72146103a3578063f2fde38b146103ab578063fca3b5aa146103be576101a9565b8063b6b55f2514610331578063d1b3fc2214610344578063dd62ed3e14610357576101a9565b80639dc29fac116100d35780639dc29fac146102e55780639fdc87cd146102f8578063a457c2d71461030b578063a9059cbb1461031e576101a9565b8063715018a6146102c45780638da5cb5b146102cc57806395d89b41146102dd576101a9565b806323b872dd116101665780633950935111610140578063395093511461027657806340c10f19146102895780635b6481a51461029e57806370a08231146102b1576101a9565b806323b872dd14610242578063313ce5671461025557806332cb6b0c14610264576101a9565b806306fdde03146101ae57806307546172146101cc578063095ea7b3146101f75780631677d1791461021a57806318160ddd1461023157806322fb404614610239575b600080fd5b6101b66103d1565b6040516101c39190611599565b60405180910390f35b6006546101df906001600160a01b031681565b6040516001600160a01b0390911681526020016101c3565b61020a6102053660046114d8565b610463565b60405190151581526020016101c3565b610223600a5481565b6040519081526020016101c3565b600254610223565b61022360095481565b61020a61025036600461149d565b61047b565b604051601281526020016101c3565b6102236a52b7d2dcc80cd2e400000081565b61020a6102843660046114d8565b6104a1565b61029c6102973660046114d8565b6104e0565b005b6008546101df906001600160a01b031681565b6102236102bf366004611451565b610585565b61029c6105a4565b6005546001600160a01b03166101df565b6101b66105da565b61029c6102f33660046114d8565b6105e9565b61029c610306366004611451565b61061d565b61020a6103193660046114d8565b6106b0565b61020a61032c3660046114d8565b61074d565b61029c61033f366004611521565b61075b565b61029c610352366004611451565b610827565b61022361036536600461146b565b6001600160a01b03918216600090815260016020908152604080832093909416825291909152205490565b6007546101df906001600160a01b031681565b61029c6108ba565b61029c6103b9366004611451565b610a14565b61029c6103cc366004611451565b610aaf565b6060600380546103e090611666565b80601f016020809104026020016040519081016040528092919081815260200182805461040c90611666565b80156104595780601f1061042e57610100808354040283529160200191610459565b820191906000526020600020905b81548152906001019060200180831161043c57829003601f168201915b5050505050905090565b600033610471818585610b25565b5060019392505050565b600033610489858285610c4a565b610494858585610cdc565b60019150505b9392505050565b3360008181526001602090815260408083206001600160a01b038716845290915281205490919061047190829086906104db90879061160b565b610b25565b6006546001600160a01b0316331461052d5760405162461bcd60e51b815260206004820152600b60248201526a27b7363c9026b4b73a32b960a91b60448201526064015b60405180910390fd5b600a5460095461053d919061160b565b8161054760025490565b610551919061160b565b111561057757600254600a5460095461056a919061160b565b6105749190611623565b90505b6105818282610eaa565b5050565b6001600160a01b0381166000908152602081905260409020545b919050565b6005546001600160a01b031633146105ce5760405162461bcd60e51b8152600401610524906115d6565b6105d86000610f8a565b565b6060600480546103e090611666565b6005546001600160a01b031633146106135760405162461bcd60e51b8152600401610524906115d6565b6105818282610fdc565b6005546001600160a01b031633146106475760405162461bcd60e51b8152600401610524906115d6565b6008546001600160a01b03161561068e5760405162461bcd60e51b815260206004820152600b60248201526a626164206164647265737360a81b6044820152606401610524565b600880546001600160a01b0319166001600160a01b0392909216919091179055565b3360008181526001602090815260408083206001600160a01b0387168452909152812054909190838110156107355760405162461bcd60e51b815260206004820152602560248201527f45524332303a2064656372656173656420616c6c6f77616e63652062656c6f77604482015264207a65726f60d81b6064820152608401610524565b6107428286868403610b25565b506001949350505050565b600033610471818585610cdc565b6007546001600160a01b03166107aa5760405162461bcd60e51b8152602060048201526014602482015273141c995d9a5bdd5cc81491d3881b9bdd081cd95d60621b6044820152606401610524565b6a52b7d2dcc80cd2e4000000816107c060025490565b6107ca919061160b565b11156107eb576002546107e8906a52b7d2dcc80cd2e4000000611623565b90505b600754610803906001600160a01b0316333084611127565b61080d3382610eaa565b80600a600082825461081f919061160b565b909155505050565b6005546001600160a01b031633146108515760405162461bcd60e51b8152600401610524906115d6565b6007546001600160a01b0316156108985760405162461bcd60e51b815260206004820152600b60248201526a626164206164647265737360a81b6044820152606401610524565b600780546001600160a01b0319166001600160a01b0392909216919091179055565b6005546001600160a01b031633146108e45760405162461bcd60e51b8152600401610524906115d6565b600860009054906101000a90046001600160a01b03166001600160a01b03166318160ddd6040518163ffffffff1660e01b815260040160206040518083038186803b15801561093257600080fd5b505afa158015610946573d6000803e3d6000fd5b505050506040513d601f19601f8201168201806040525081019061096a9190611539565b600760009054906101000a90046001600160a01b03166001600160a01b03166318160ddd6040518163ffffffff1660e01b815260040160206040518083038186803b1580156109b857600080fd5b505afa1580156109cc573d6000803e3d6000fd5b505050506040513d601f19601f820116820180604052508101906109f09190611539565b610a05906a52b7d2dcc80cd2e4000000611623565b610a0f919061160b565b600955565b6005546001600160a01b03163314610a3e5760405162461bcd60e51b8152600401610524906115d6565b6001600160a01b038116610aa35760405162461bcd60e51b815260206004820152602660248201527f4f776e61626c653a206e6577206f776e657220697320746865207a65726f206160448201526564647265737360d01b6064820152608401610524565b610aac81610f8a565b50565b6005546001600160a01b03163314610ad95760405162461bcd60e51b8152600401610524906115d6565b600680546001600160a01b0319166001600160a01b03831617905560408051808201909152601081526f026b4b73a32b91039b2ba101d1012b9960851b6020820152610aac9082611181565b6001600160a01b038316610b875760405162461bcd60e51b8152602060048201526024808201527f45524332303a20617070726f76652066726f6d20746865207a65726f206164646044820152637265737360e01b6064820152608401610524565b6001600160a01b038216610be85760405162461bcd60e51b815260206004820152602260248201527f45524332303a20617070726f766520746f20746865207a65726f206164647265604482015261737360f01b6064820152608401610524565b6001600160a01b0383811660008181526001602090815260408083209487168084529482529182902085905590518481527f8c5be1e5ebec7d5bd14f71427d1e84f3dd0314c0f7b2291e5b200ac8c7c3b92591015b60405180910390a3505050565b6001600160a01b038381166000908152600160209081526040808320938616835292905220546000198114610cd65781811015610cc95760405162461bcd60e51b815260206004820152601d60248201527f45524332303a20696e73756666696369656e7420616c6c6f77616e63650000006044820152606401610524565b610cd68484848403610b25565b50505050565b6001600160a01b038316610d405760405162461bcd60e51b815260206004820152602560248201527f45524332303a207472616e736665722066726f6d20746865207a65726f206164604482015264647265737360d81b6064820152608401610524565b6001600160a01b038216610da25760405162461bcd60e51b815260206004820152602360248201527f45524332303a207472616e7366657220746f20746865207a65726f206164647260448201526265737360e81b6064820152608401610524565b6001600160a01b03831660009081526020819052604090205481811015610e1a5760405162461bcd60e51b815260206004820152602660248201527f45524332303a207472616e7366657220616d6f756e7420657863656564732062604482015265616c616e636560d01b6064820152608401610524565b6001600160a01b03808516600090815260208190526040808220858503905591851681529081208054849290610e5190849061160b565b92505081905550826001600160a01b0316846001600160a01b03167fddf252ad1be2c89b69c2b068fc378daa952ba7f163c4a11628f55a4df523b3ef84604051610e9d91815260200190565b60405180910390a3610cd6565b6001600160a01b038216610f005760405162461bcd60e51b815260206004820152601f60248201527f45524332303a206d696e7420746f20746865207a65726f2061646472657373006044820152606401610524565b8060026000828254610f12919061160b565b90915550506001600160a01b03821660009081526020819052604081208054839290610f3f90849061160b565b90915550506040518181526001600160a01b038316906000907fddf252ad1be2c89b69c2b068fc378daa952ba7f163c4a11628f55a4df523b3ef9060200160405180910390a3610581565b600580546001600160a01b038381166001600160a01b0319831681179093556040519116919082907f8be0079c531659141344cd1fd0a4f28419497f9722a3daafe3b4186f6b6457e090600090a35050565b6001600160a01b03821661103c5760405162461bcd60e51b815260206004820152602160248201527f45524332303a206275726e2066726f6d20746865207a65726f206164647265736044820152607360f81b6064820152608401610524565b6001600160a01b038216600090815260208190526040902054818110156110b05760405162461bcd60e51b815260206004820152602260248201527f45524332303a206275726e20616d6f756e7420657863656564732062616c616e604482015261636560f01b6064820152608401610524565b6001600160a01b03831660009081526020819052604081208383039055600280548492906110df908490611623565b90915550506040518281526000906001600160a01b038516907fddf252ad1be2c89b69c2b068fc378daa952ba7f163c4a11628f55a4df523b3ef90602001610c3d565b505050565b604080516001600160a01b0385811660248301528416604482015260648082018490528251808303909101815260849091019091526020810180516001600160e01b03166323b872dd60e01b179052610cd69085906111c6565b61058182826040516024016111979291906115ac565b60408051601f198184030181529190526020810180516001600160e01b031663319af33360e01b179052611298565b600061121b826040518060400160405280602081526020017f5361666545524332303a206c6f772d6c6576656c2063616c6c206661696c6564815250856001600160a01b03166112b99092919063ffffffff16565b80519091501561112257808060200190518101906112399190611501565b6111225760405162461bcd60e51b815260206004820152602a60248201527f5361666545524332303a204552433230206f7065726174696f6e20646964206e6044820152691bdd081cdd58d8d9595960b21b6064820152608401610524565b80516a636f6e736f6c652e6c6f67602083016000808483855afa5050505050565b60606112c884846000856112d0565b949350505050565b6060824710156113315760405162461bcd60e51b815260206004820152602660248201527f416464726573733a20696e73756666696369656e742062616c616e636520666f6044820152651c8818d85b1b60d21b6064820152608401610524565b6001600160a01b0385163b6113885760405162461bcd60e51b815260206004820152601d60248201527f416464726573733a2063616c6c20746f206e6f6e2d636f6e74726163740000006044820152606401610524565b600080866001600160a01b031685876040516113a4919061157d565b60006040518083038185875af1925050503d80600081146113e1576040519150601f19603f3d011682016040523d82523d6000602084013e6113e6565b606091505b50915091506113f6828286611401565b979650505050505050565b6060831561141057508161049a565b8251156114205782518084602001fd5b8160405162461bcd60e51b81526004016105249190611599565b80356001600160a01b038116811461059f57600080fd5b600060208284031215611462578081fd5b61049a8261143a565b6000806040838503121561147d578081fd5b6114868361143a565b91506114946020840161143a565b90509250929050565b6000806000606084860312156114b1578081fd5b6114ba8461143a565b92506114c86020850161143a565b9150604084013590509250925092565b600080604083850312156114ea578182fd5b6114f38361143a565b946020939093013593505050565b600060208284031215611512578081fd5b8151801515811461049a578182fd5b600060208284031215611532578081fd5b5035919050565b60006020828403121561154a578081fd5b5051919050565b6000815180845261156981602086016020860161163a565b601f01601f19169290920160200192915050565b6000825161158f81846020870161163a565b9190910192915050565b60006020825261049a6020830184611551565b6000604082526115bf6040830185611551565b905060018060a01b03831660208301529392505050565b6020808252818101527f4f776e61626c653a2063616c6c6572206973206e6f7420746865206f776e6572604082015260600190565b6000821982111561161e5761161e6116a1565b500190565b600082821015611635576116356116a1565b500390565b60005b8381101561165557818101518382015260200161163d565b83811115610cd65750506000910152565b60028104600182168061167a57607f821691505b6020821081141561169b57634e487b7160e01b600052602260045260246000fd5b50919050565b634e487b7160e01b600052601160045260246000fdfea264697066735822122035937e8cb067cd3c06ccd2b3f184778d2063cecfe42284667d20479bf40b016164736f6c63430008020033",
  "linkReferences": {},
  "deployedLinkReferences": {}
}