{
  "_format": "hh-sol-artifact-1",
  "contractName": "RoyaltiesImpl",
  "sourceName": "contracts/NFT/imports/RoyaltiesImpl.sol",
  "abi": [
    {
      "anonymous": false,
      "inputs": [
        {
          "indexed": false,
          "internalType": "uint256",
          "name": "tokenId",
          "type": "uint256"
        },
        {
          "components": [
            {
              "internalType": "address payable",
              "name": "account",
              "type": "address"
            },
            {
              "internalType": "uint96",
              "name": "value",
              "type": "uint96"
            }
          ],
          "indexed": false,
          "internalType": "struct LibPart.Part[]",
          "name": "royalties",
          "type": "tuple[]"
        }
      ],
      "name": "RoyaltiesSet",
      "type": "event"
    },
    {
      "inputs": [
        {
          "internalType": "uint256",
          "name": "id",
          "type": "uint256"
        }
      ],
      "name": "getRaribleRoyalties",
      "outputs": [
        {
          "components": [
            {
              "internalType": "address payable",
              "name": "account",
              "type": "address"
            },
            {
              "internalType": "uint96",
              "name": "value",
              "type": "uint96"
            }
          ],
          "internalType": "struct LibPart.Part[]",
          "name": "",
          "type": "tuple[]"
        }
      ],
      "stateMutability": "view",
      "type": "function"
    }
  ],
  "bytecode": "0x608060405234801561001057600080fd5b50610198806100206000396000f3fe608060405234801561001057600080fd5b506004361061002b5760003560e01c8063fc56251d14610030575b600080fd5b61004361003e3660046100e4565b610059565b60405161005091906100fc565b60405180910390f35b600081815260208181526040808320805482518185028101850190935280835260609492939192909184015b828210156100d957600084815260209081902060408051808201909152908401546001600160a01b0381168252600160a01b90046bffffffffffffffffffffffff1681830152825260019092019101610085565b505050509050919050565b6000602082840312156100f5578081fd5b5035919050565b602080825282518282018190526000919060409081850190868401855b8281101561015557815180516001600160a01b031685528601516bffffffffffffffffffffffff16868501529284019290850190600101610119565b509197965050505050505056fea2646970667358221220d9c1024492de2ad2444052ef826ed47c93dc27a8c434b093f5d132b510f1271a64736f6c63430008020033",
  "linkReferences": {},
  "deployedLinkReferences": {}
}