{
  "_format": "hh-sol-artifact-1",
  "contractName": "RoyaltiesImpl",
  "sourceName": "contracts/NFT/imports/RoyaltiesImpl.sol",
  "abi": [
    {
      "anonymous": false,
      "inputs": [
        {
          "indexed": false,
          "internalType": "uint256",
          "name": "tokenId",
          "type": "uint256"
        },
        {
          "components": [
            {
              "internalType": "address payable",
              "name": "account",
              "type": "address"
            },
            {
              "internalType": "uint96",
              "name": "value",
              "type": "uint96"
            }
          ],
          "indexed": false,
          "internalType": "struct LibPart.Part[]",
          "name": "royalties",
          "type": "tuple[]"
        }
      ],
      "name": "RoyaltiesSet",
      "type": "event"
    },
    {
      "inputs": [
        {
          "internalType": "uint256",
          "name": "id",
          "type": "uint256"
        }
      ],
      "name": "getRaribleRoyalties",
      "outputs": [
        {
          "components": [
            {
              "internalType": "address payable",
              "name": "account",
              "type": "address"
            },
            {
              "internalType": "uint96",
              "name": "value",
              "type": "uint96"
            }
          ],
          "internalType": "struct LibPart.Part[]",
          "name": "",
          "type": "tuple[]"
        }
      ],
      "stateMutability": "view",
      "type": "function"
    }
  ],
  "bytecode": "0x608060405234801561001057600080fd5b5061018e806100206000396000f3fe608060405234801561001057600080fd5b506004361061002b5760003560e01c8063fc56251d14610030575b600080fd5b61004361003e3660046100df565b610059565b60405161005091906100f7565b60405180910390f35b600081815260208181526040808320805482518185028101850190935280835260609492939192909184015b828210156100d457600084815260209081902060408051808201909152908401546001600160a01b0381168252600160a01b90046001600160601b031681830152825260019092019101610085565b505050509050919050565b6000602082840312156100f0578081fd5b5035919050565b602080825282518282018190526000919060409081850190868401855b8281101561014b57815180516001600160a01b031685528601516001600160601b0316868501529284019290850190600101610114565b509197965050505050505056fea26469706673582212205fb2bf11fe703cd56e0a7dfea3db33baa27520fab786a6c21b378aeab2916dbb64736f6c63430008020033",
  "linkReferences": {},
  "deployedLinkReferences": {}
}