{
  "_format": "hh-sol-artifact-1",
  "contractName": "TransparentUpgradeableProxy",
  "sourceName": "contracts/MainProtocol/TransparentUpgradeableProxy.sol",
  "abi": [
    {
      "inputs": [
        {
          "internalType": "address",
          "name": "_logic",
          "type": "address"
        },
        {
          "internalType": "address",
          "name": "admin_",
          "type": "address"
        },
        {
          "internalType": "bytes",
          "name": "_data",
          "type": "bytes"
        }
      ],
      "stateMutability": "payable",
      "type": "constructor"
    },
    {
      "anonymous": false,
      "inputs": [
        {
          "indexed": false,
          "internalType": "address",
          "name": "previousAdmin",
          "type": "address"
        },
        {
          "indexed": false,
          "internalType": "address",
          "name": "newAdmin",
          "type": "address"
        }
      ],
      "name": "AdminChanged",
      "type": "event"
    },
    {
      "anonymous": false,
      "inputs": [
        {
          "indexed": true,
          "internalType": "address",
          "name": "beacon",
          "type": "address"
        }
      ],
      "name": "BeaconUpgraded",
      "type": "event"
    },
    {
      "anonymous": false,
      "inputs": [
        {
          "indexed": true,
          "internalType": "address",
          "name": "implementation",
          "type": "address"
        }
      ],
      "name": "Upgraded",
      "type": "event"
    },
    {
      "stateMutability": "payable",
      "type": "fallback"
    },
    {
      "inputs": [],
      "name": "admin",
      "outputs": [
        {
          "internalType": "address",
          "name": "admin_",
          "type": "address"
        }
      ],
      "stateMutability": "nonpayable",
      "type": "function"
    },
    {
      "inputs": [
        {
          "internalType": "address",
          "name": "newAdmin",
          "type": "address"
        }
      ],
      "name": "changeAdmin",
      "outputs": [],
      "stateMutability": "nonpayable",
      "type": "function"
    },
    {
      "inputs": [],
      "name": "changeTimelock",
      "outputs": [],
      "stateMutability": "nonpayable",
      "type": "function"
    },
    {
      "inputs": [],
      "name": "implementation",
      "outputs": [
        {
          "internalType": "address",
          "name": "implementation_",
          "type": "address"
        }
      ],
      "stateMutability": "nonpayable",
      "type": "function"
    },
    {
      "inputs": [],
      "name": "nextImplementation",
      "outputs": [
        {
          "internalType": "address",
          "name": "",
          "type": "address"
        }
      ],
      "stateMutability": "view",
      "type": "function"
    },
    {
      "inputs": [],
      "name": "nextTimelock",
      "outputs": [
        {
          "internalType": "uint256",
          "name": "",
          "type": "uint256"
        }
      ],
      "stateMutability": "view",
      "type": "function"
    },
    {
      "inputs": [
        {
          "internalType": "uint256",
          "name": "_value",
          "type": "uint256"
        }
      ],
      "name": "submitNewTimelock",
      "outputs": [],
      "stateMutability": "nonpayable",
      "type": "function"
    },
    {
      "inputs": [
        {
          "internalType": "address",
          "name": "newImplementation",
          "type": "address"
        }
      ],
      "name": "submitUpgrade",
      "outputs": [],
      "stateMutability": "nonpayable",
      "type": "function"
    },
    {
      "inputs": [],
      "name": "timelockEndForTimelock",
      "outputs": [
        {
          "internalType": "uint256",
          "name": "",
          "type": "uint256"
        }
      ],
      "stateMutability": "view",
      "type": "function"
    },
    {
      "inputs": [],
      "name": "timelockEndForUpgrade",
      "outputs": [
        {
          "internalType": "uint256",
          "name": "",
          "type": "uint256"
        }
      ],
      "stateMutability": "view",
      "type": "function"
    },
    {
      "inputs": [],
      "name": "timelockLength",
      "outputs": [
        {
          "internalType": "uint256",
          "name": "",
          "type": "uint256"
        }
      ],
      "stateMutability": "view",
      "type": "function"
    },
    {
      "inputs": [],
      "name": "upgradeTo",
      "outputs": [],
      "stateMutability": "nonpayable",
      "type": "function"
    },
    {
      "inputs": [
        {
          "internalType": "bytes",
          "name": "data",
          "type": "bytes"
        }
      ],
      "name": "upgradeToAndCall",
      "outputs": [],
      "stateMutability": "payable",
      "type": "function"
    },
    {
      "stateMutability": "payable",
      "type": "receive"
    }
  ],
  "bytecode": "0x60806040526202a30060005560006003556040516200135f3803806200135f8339810160408190526200003291620004f7565b82816200006160017f360894a13ba1a3210667c828492db98dca3e2076cc3735a920a3ca505d382bbd62000626565b60008051602062001318833981519152146200008d57634e487b7160e01b600052600160045260246000fd5b6200009b828260006200010b565b50620000cb905060017fb53127684a568b3173ae13b9f8a6016e243e63b6e8ee1178d6a717850b5d610462000626565b600080516020620012f883398151915214620000f757634e487b7160e01b600052600160045260246000fd5b620001028262000148565b5050506200068f565b6200011683620001a3565b600082511180620001245750805b156200014357620001418383620001e560201b620005d01760201c565b505b505050565b7f7e644d79422f17c01e4894b5f4f588d331ebfa28653d42ae832dc59e38c9798f6200017362000214565b604080516001600160a01b03928316815291841660208301520160405180910390a1620001a0816200024d565b50565b620001ae8162000302565b6040516001600160a01b038216907fbc7cd75a20ee27fd9adebab32041f755214dbc6bffa90cc0225b39da2e5c2d3b90600090a250565b60606200020d83836040518060600160405280602781526020016200133860279139620003a5565b9392505050565b60006200023e600080516020620012f883398151915260001b6200048b60201b620004601760201c565b546001600160a01b0316905090565b6001600160a01b038116620002b85760405162461bcd60e51b815260206004820152602660248201527f455243313936373a206e65772061646d696e20697320746865207a65726f206160448201526564647265737360d01b60648201526084015b60405180910390fd5b80620002e1600080516020620012f883398151915260001b6200048b60201b620004601760201c565b80546001600160a01b0319166001600160a01b039290921691909117905550565b62000318816200048e60201b620005fc1760201c565b6200037c5760405162461bcd60e51b815260206004820152602d60248201527f455243313936373a206e657720696d706c656d656e746174696f6e206973206e60448201526c1bdd08184818dbdb9d1c9858dd609a1b6064820152608401620002af565b80620002e16000805160206200131883398151915260001b6200048b60201b620004601760201c565b6060620003b2846200048e565b6200040f5760405162461bcd60e51b815260206004820152602660248201527f416464726573733a2064656c65676174652063616c6c20746f206e6f6e2d636f6044820152651b9d1c9858dd60d21b6064820152608401620002af565b600080856001600160a01b0316856040516200042c9190620005d3565b600060405180830381855af49150503d806000811462000469576040519150601f19603f3d011682016040523d82523d6000602084013e6200046e565b606091505b50909250905062000481828286620004a1565b9695505050505050565b90565b6001600160a01b0381163b15155b919050565b60608315620004b25750816200020d565b825115620004c35782518084602001fd5b8160405162461bcd60e51b8152600401620002af9190620005f1565b80516001600160a01b03811681146200049c57600080fd5b6000806000606084860312156200050c578283fd5b6200051784620004df565b92506200052760208501620004df565b60408501519092506001600160401b038082111562000544578283fd5b818601915086601f83011262000558578283fd5b8151818111156200056d576200056d62000679565b604051601f8201601f19908116603f0116810190838211818310171562000598576200059862000679565b81604052828152896020848701011115620005b1578586fd5b620005c48360208301602088016200064a565b80955050505050509250925092565b60008251620005e78184602087016200064a565b9190910192915050565b6000602082528251806020840152620006128160408501602087016200064a565b601f01601f19169190910160400192915050565b6000828210156200064557634e487b7160e01b81526011600452602481fd5b500390565b60005b83811015620006675781810151838201526020016200064d565b83811115620001415750506000910152565b634e487b7160e01b600052604160045260246000fd5b610c59806200069f6000396000f3fe6080604052600436106100b65760003560e01c80633da239c71161006f5780633da239c71461018f5780635c60da1b146101a45780638f283970146101b95780639461e673146101d95780639df4d08e146101ef578063a469af1a14610202578063f851a44014610222576100c5565b806309ff18f0146100cd57806316a27ecd1461010a578063176ee7e51461011f5780631e3f4cc214610143578063219a1f8114610159578063343851fa1461016f576100c5565b366100c5576100c3610237565b005b6100c3610237565b3480156100d957600080fd5b506004546100ed906001600160a01b031681565b6040516001600160a01b0390911681526020015b60405180910390f35b34801561011657600080fd5b506100c3610251565b34801561012b57600080fd5b5061013560025481565b604051908152602001610101565b34801561014f57600080fd5b5061013560035481565b34801561016557600080fd5b5061013560005481565b34801561017b57600080fd5b506100c361018a366004610a4b565b610308565b34801561019b57600080fd5b506100c3610364565b3480156101b057600080fd5b506100ed610426565b3480156101c557600080fd5b506100c36101d4366004610a4b565b610463565b3480156101e557600080fd5b5061013560015481565b6100c36101fd366004610a72565b610492565b34801561020e57600080fd5b506100c361021d366004610adf565b61056a565b34801561022e57600080fd5b506100ed6105a5565b61023f61060b565b61024f61024a6106aa565b6106b9565b565b6102596106e2565b6001600160a01b0316336001600160a01b03161415610300576004546001600160a01b03166102a35760405162461bcd60e51b815260040161029a90610b46565b60405180910390fd5b60015442116102c45760405162461bcd60e51b815260040161029a90610b7d565b600454604080516020810190915260008082526102eb926001600160a01b03169190610715565b600480546001600160a01b031916905561024f565b61024f610237565b6103106106e2565b6001600160a01b0316336001600160a01b0316141561035957600480546001600160a01b0319166001600160a01b0383161790556000546103519042610bac565b600155610361565b610361610237565b50565b61036c6106e2565b6001600160a01b0316336001600160a01b03161415610300576003546103cf5760405162461bcd60e51b8152602060048201526018602482015277043616e6e6f74207365742074696d656c6f636b20746f20360441b604482015260640161029a565b6002544210156104165760405162461bcd60e51b8152602060048201526012602482015271151a5b595b1bd8dac81b9bdd08195b99195960721b604482015260640161029a565b600380546000908155905561024f565b60006104306106e2565b6001600160a01b0316336001600160a01b03161415610458576104516106aa565b9050610460565b610460610237565b90565b61046b6106e2565b6001600160a01b0316336001600160a01b031614156103595761048d81610740565b610361565b61049a6106e2565b6001600160a01b0316336001600160a01b0316141561055e576004546001600160a01b03166104db5760405162461bcd60e51b815260040161029a90610b46565b60015442116104fc5760405162461bcd60e51b815260040161029a90610b7d565b600454604080516020601f8501819004810282018101909252838152610549926001600160a01b031691859085908190840183828082843760009201919091525060019250610715915050565b600480546001600160a01b0319169055610566565b610566610237565b5050565b6105726106e2565b6001600160a01b0316336001600160a01b0316141561035957600381905560005461059d9042610bac565b600255610361565b60006105af6106e2565b6001600160a01b0316336001600160a01b03161415610458576104516106e2565b60606105f58383604051806060016040528060278152602001610bfd60279139610794565b9392505050565b6001600160a01b03163b151590565b6106136106e2565b6001600160a01b0316336001600160a01b031614156106a55760405162461bcd60e51b815260206004820152604260248201527f5472616e73706172656e745570677261646561626c6550726f78793a2061646d60448201527f696e2063616e6e6f742066616c6c6261636b20746f2070726f78792074617267606482015261195d60f21b608482015260a40161029a565b61024f565b60006106b461086f565b905090565b3660008037600080366000845af43d6000803e8080156106d8573d6000f35b3d6000fd5b505050565b60007fb53127684a568b3173ae13b9f8a6016e243e63b6e8ee1178d6a717850b5d61035b546001600160a01b0316905090565b61071e83610897565b60008251118061072b5750805b156106dd5761073a83836105d0565b50505050565b7f7e644d79422f17c01e4894b5f4f588d331ebfa28653d42ae832dc59e38c9798f6107696106e2565b604080516001600160a01b03928316815291841660208301520160405180910390a1610361816108d7565b606061079f846105fc565b6107fa5760405162461bcd60e51b815260206004820152602660248201527f416464726573733a2064656c65676174652063616c6c20746f206e6f6e2d636f6044820152651b9d1c9858dd60d21b606482015260840161029a565b600080856001600160a01b0316856040516108159190610af7565b600060405180830381855af49150503d8060008114610850576040519150601f19603f3d011682016040523d82523d6000602084013e610855565b606091505b5091509150610865828286610980565b9695505050505050565b60007f360894a13ba1a3210667c828492db98dca3e2076cc3735a920a3ca505d382bbc610706565b6108a0816109b9565b6040516001600160a01b038216907fbc7cd75a20ee27fd9adebab32041f755214dbc6bffa90cc0225b39da2e5c2d3b90600090a250565b6001600160a01b03811661093c5760405162461bcd60e51b815260206004820152602660248201527f455243313936373a206e65772061646d696e20697320746865207a65726f206160448201526564647265737360d01b606482015260840161029a565b807fb53127684a568b3173ae13b9f8a6016e243e63b6e8ee1178d6a717850b5d61035b80546001600160a01b0319166001600160a01b039290921691909117905550565b6060831561098f5750816105f5565b82511561099f5782518084602001fd5b8160405162461bcd60e51b815260040161029a9190610b13565b6109c2816105fc565b610a245760405162461bcd60e51b815260206004820152602d60248201527f455243313936373a206e657720696d706c656d656e746174696f6e206973206e60448201526c1bdd08184818dbdb9d1c9858dd609a1b606482015260840161029a565b807f360894a13ba1a3210667c828492db98dca3e2076cc3735a920a3ca505d382bbc61095f565b600060208284031215610a5c578081fd5b81356001600160a01b03811681146105f5578182fd5b60008060208385031215610a84578081fd5b823567ffffffffffffffff80821115610a9b578283fd5b818501915085601f830112610aae578283fd5b813581811115610abc578384fd5b866020828501011115610acd578384fd5b60209290920196919550909350505050565b600060208284031215610af0578081fd5b5035919050565b60008251610b09818460208701610bd0565b9190910192915050565b6000602082528251806020840152610b32816040850160208701610bd0565b601f01601f19169190910160400192915050565b6020808252601a908201527f43616e2774207570677261646520746f20616464726573732030000000000000604082015260600190565b602080825260159082015274151a5b595b1bd8dac81b9bdd08199a5b9a5cda1959605a1b604082015260600190565b60008219821115610bcb57634e487b7160e01b81526011600452602481fd5b500190565b60005b83811015610beb578181015183820152602001610bd3565b8381111561073a575050600091015256fe416464726573733a206c6f772d6c6576656c2064656c65676174652063616c6c206661696c6564a264697066735822122008defb3c82348fb04e5b6bd7c4fab1ab230901c649aa52adf43cffccf4eacd1464736f6c63430008020033b53127684a568b3173ae13b9f8a6016e243e63b6e8ee1178d6a717850b5d6103360894a13ba1a3210667c828492db98dca3e2076cc3735a920a3ca505d382bbc416464726573733a206c6f772d6c6576656c2064656c65676174652063616c6c206661696c6564",
  "linkReferences": {},
  "deployedLinkReferences": {}
}