{
  "_format": "hh-sol-artifact-1",
  "contractName": "TransparentUpgradeableProxy",
  "sourceName": "contracts/MainProtocol/TransparentUpgradeableProxy.sol",
  "abi": [
    {
      "inputs": [
        {
          "internalType": "address",
          "name": "_logic",
          "type": "address"
        },
        {
          "internalType": "address",
          "name": "admin_",
          "type": "address"
        },
        {
          "internalType": "bytes",
          "name": "_data",
          "type": "bytes"
        }
      ],
      "stateMutability": "payable",
      "type": "constructor"
    },
    {
      "anonymous": false,
      "inputs": [
        {
          "indexed": false,
          "internalType": "address",
          "name": "previousAdmin",
          "type": "address"
        },
        {
          "indexed": false,
          "internalType": "address",
          "name": "newAdmin",
          "type": "address"
        }
      ],
      "name": "AdminChanged",
      "type": "event"
    },
    {
      "anonymous": false,
      "inputs": [
        {
          "indexed": true,
          "internalType": "address",
          "name": "beacon",
          "type": "address"
        }
      ],
      "name": "BeaconUpgraded",
      "type": "event"
    },
    {
      "anonymous": false,
      "inputs": [
        {
          "indexed": true,
          "internalType": "address",
          "name": "implementation",
          "type": "address"
        }
      ],
      "name": "Upgraded",
      "type": "event"
    },
    {
      "stateMutability": "payable",
      "type": "fallback"
    },
    {
      "inputs": [],
      "name": "admin",
      "outputs": [
        {
          "internalType": "address",
          "name": "admin_",
          "type": "address"
        }
      ],
      "stateMutability": "nonpayable",
      "type": "function"
    },
    {
      "inputs": [
        {
          "internalType": "address",
          "name": "newAdmin",
          "type": "address"
        }
      ],
      "name": "changeAdmin",
      "outputs": [],
      "stateMutability": "nonpayable",
      "type": "function"
    },
    {
      "inputs": [],
      "name": "implementation",
      "outputs": [
        {
          "internalType": "address",
          "name": "implementation_",
          "type": "address"
        }
      ],
      "stateMutability": "nonpayable",
      "type": "function"
    },
    {
      "inputs": [],
      "name": "nextImplementation",
      "outputs": [
        {
          "internalType": "address",
          "name": "",
          "type": "address"
        }
      ],
      "stateMutability": "view",
      "type": "function"
    },
    {
      "inputs": [
        {
          "internalType": "address",
          "name": "newImplementation",
          "type": "address"
        }
      ],
      "name": "submitUpgrade",
      "outputs": [],
      "stateMutability": "nonpayable",
      "type": "function"
    },
    {
      "inputs": [],
      "name": "upgradeTo",
      "outputs": [],
      "stateMutability": "nonpayable",
      "type": "function"
    },
    {
      "inputs": [
        {
          "internalType": "bytes",
          "name": "data",
          "type": "bytes"
        }
      ],
      "name": "upgradeToAndCall",
      "outputs": [],
      "stateMutability": "payable",
      "type": "function"
    },
    {
      "stateMutability": "payable",
      "type": "receive"
    }
  ],
  "bytecode": "0x6080604052604051620010e4380380620010e48339810160408190526200002691620004eb565b82816200005560017f360894a13ba1a3210667c828492db98dca3e2076cc3735a920a3ca505d382bbd6200061a565b6000805160206200109d833981519152146200008157634e487b7160e01b600052600160045260246000fd5b6200008f82826000620000ff565b50620000bf905060017fb53127684a568b3173ae13b9f8a6016e243e63b6e8ee1178d6a717850b5d61046200061a565b6000805160206200107d83398151915214620000eb57634e487b7160e01b600052600160045260246000fd5b620000f6826200013c565b50505062000683565b6200010a8362000197565b600082511180620001185750805b156200013757620001358383620001d960201b620003ff1760201c565b505b505050565b7f7e644d79422f17c01e4894b5f4f588d331ebfa28653d42ae832dc59e38c9798f6200016762000208565b604080516001600160a01b03928316815291841660208301520160405180910390a1620001948162000241565b50565b620001a281620002f6565b6040516001600160a01b038216907fbc7cd75a20ee27fd9adebab32041f755214dbc6bffa90cc0225b39da2e5c2d3b90600090a250565b6060620002018383604051806060016040528060278152602001620010bd6027913962000399565b9392505050565b6000620002326000805160206200107d83398151915260001b6200047f60201b620002bb1760201c565b546001600160a01b0316905090565b6001600160a01b038116620002ac5760405162461bcd60e51b815260206004820152602660248201527f455243313936373a206e65772061646d696e20697320746865207a65726f206160448201526564647265737360d01b60648201526084015b60405180910390fd5b80620002d56000805160206200107d83398151915260001b6200047f60201b620002bb1760201c565b80546001600160a01b0319166001600160a01b039290921691909117905550565b6200030c816200048260201b6200042b1760201c565b620003705760405162461bcd60e51b815260206004820152602d60248201527f455243313936373a206e657720696d706c656d656e746174696f6e206973206e60448201526c1bdd08184818dbdb9d1c9858dd609a1b6064820152608401620002a3565b80620002d56000805160206200109d83398151915260001b6200047f60201b620002bb1760201c565b6060620003a68462000482565b620004035760405162461bcd60e51b815260206004820152602660248201527f416464726573733a2064656c65676174652063616c6c20746f206e6f6e2d636f6044820152651b9d1c9858dd60d21b6064820152608401620002a3565b600080856001600160a01b031685604051620004209190620005c7565b600060405180830381855af49150503d80600081146200045d576040519150601f19603f3d011682016040523d82523d6000602084013e62000462565b606091505b5090925090506200047582828662000495565b9695505050505050565b90565b6001600160a01b0381163b15155b919050565b60608315620004a657508162000201565b825115620004b75782518084602001fd5b8160405162461bcd60e51b8152600401620002a39190620005e5565b80516001600160a01b03811681146200049057600080fd5b60008060006060848603121562000500578283fd5b6200050b84620004d3565b92506200051b60208501620004d3565b60408501519092506001600160401b038082111562000538578283fd5b818601915086601f8301126200054c578283fd5b8151818111156200056157620005616200066d565b604051601f8201601f19908116603f011681019083821181831017156200058c576200058c6200066d565b81604052828152896020848701011115620005a5578586fd5b620005b88360208301602088016200063e565b80955050505050509250925092565b60008251620005db8184602087016200063e565b9190910192915050565b6000602082528251806020840152620006068160408501602087016200063e565b601f01601f19169190910160400192915050565b6000828210156200063957634e487b7160e01b81526011600452602481fd5b500390565b60005b838110156200065b57818101518382015260200162000641565b83811115620001355750506000910152565b634e487b7160e01b600052604160045260246000fd5b6109ea80620006936000396000f3fe6080604052600436106100745760003560e01c80635c60da1b1161004e5780635c60da1b146100fc5780638f283970146101115780639df4d08e14610131578063f851a4401461014457610083565b806309ff18f01461008b57806316a27ecd146100c7578063343851fa146100dc57610083565b3661008357610081610159565b005b610081610159565b34801561009757600080fd5b506000546100ab906001600160a01b031681565b6040516001600160a01b03909116815260200160405180910390f35b3480156100d357600080fd5b50610081610173565b3480156100e857600080fd5b506100816100f736600461087e565b610235565b34801561010857600080fd5b506100ab610281565b34801561011d57600080fd5b5061008161012c36600461087e565b6102be565b61008161013f3660046108a5565b6102ed565b34801561015057600080fd5b506100ab6103d4565b61016161043a565b61017161016c6104d9565b6104e8565b565b61017b610511565b6001600160a01b0316336001600160a01b0316141561022d576000546001600160a01b03166101f15760405162461bcd60e51b815260206004820152601a60248201527f43616e2774207570677261646520746f2061646472657373203000000000000060448201526064015b60405180910390fd5b600080546040805160208101909152828152610218926001600160a01b0390921691610544565b600080546001600160a01b0319169055610171565b610171610159565b61023d610511565b6001600160a01b0316336001600160a01b0316141561027657600080546001600160a01b0319166001600160a01b03831617905561027e565b61027e610159565b50565b600061028b610511565b6001600160a01b0316336001600160a01b031614156102b3576102ac6104d9565b90506102bb565b6102bb610159565b90565b6102c6610511565b6001600160a01b0316336001600160a01b03161415610276576102e88161056f565b61027e565b6102f5610511565b6001600160a01b0316336001600160a01b031614156103c8576000546001600160a01b03166103665760405162461bcd60e51b815260206004820152601a60248201527f43616e2774207570677261646520746f2061646472657373203000000000000060448201526064016101e8565b600054604080516020601f85018190048102820181019092528381526103b3926001600160a01b031691859085908190840183828082843760009201919091525060019250610544915050565b600080546001600160a01b03191690556103d0565b6103d0610159565b5050565b60006103de610511565b6001600160a01b0316336001600160a01b031614156102b3576102ac610511565b6060610424838360405180606001604052806027815260200161098e602791396105c3565b9392505050565b6001600160a01b03163b151590565b610442610511565b6001600160a01b0316336001600160a01b031614156104d45760405162461bcd60e51b815260206004820152604260248201527f5472616e73706172656e745570677261646561626c6550726f78793a2061646d60448201527f696e2063616e6e6f742066616c6c6261636b20746f2070726f78792074617267606482015261195d60f21b608482015260a4016101e8565b610171565b60006104e36106a0565b905090565b3660008037600080366000845af43d6000803e808015610507573d6000f35b3d6000fd5b505050565b60007fb53127684a568b3173ae13b9f8a6016e243e63b6e8ee1178d6a717850b5d61035b546001600160a01b0316905090565b61054d836106c8565b60008251118061055a5750805b1561050c5761056983836103ff565b50505050565b7f7e644d79422f17c01e4894b5f4f588d331ebfa28653d42ae832dc59e38c9798f610598610511565b604080516001600160a01b03928316815291841660208301520160405180910390a161027e81610708565b60606001600160a01b0384163b61062b5760405162461bcd60e51b815260206004820152602660248201527f416464726573733a2064656c65676174652063616c6c20746f206e6f6e2d636f6044820152651b9d1c9858dd60d21b60648201526084016101e8565b600080856001600160a01b0316856040516106469190610912565b600060405180830381855af49150503d8060008114610681576040519150601f19603f3d011682016040523d82523d6000602084013e610686565b606091505b50915091506106968282866107b1565b9695505050505050565b60007f360894a13ba1a3210667c828492db98dca3e2076cc3735a920a3ca505d382bbc610535565b6106d1816107ea565b6040516001600160a01b038216907fbc7cd75a20ee27fd9adebab32041f755214dbc6bffa90cc0225b39da2e5c2d3b90600090a250565b6001600160a01b03811661076d5760405162461bcd60e51b815260206004820152602660248201527f455243313936373a206e65772061646d696e20697320746865207a65726f206160448201526564647265737360d01b60648201526084016101e8565b807fb53127684a568b3173ae13b9f8a6016e243e63b6e8ee1178d6a717850b5d61035b80546001600160a01b0319166001600160a01b039290921691909117905550565b606083156107c0575081610424565b8251156107d05782518084602001fd5b8160405162461bcd60e51b81526004016101e8919061092e565b6001600160a01b0381163b6108575760405162461bcd60e51b815260206004820152602d60248201527f455243313936373a206e657720696d706c656d656e746174696f6e206973206e60448201526c1bdd08184818dbdb9d1c9858dd609a1b60648201526084016101e8565b807f360894a13ba1a3210667c828492db98dca3e2076cc3735a920a3ca505d382bbc610790565b60006020828403121561088f578081fd5b81356001600160a01b0381168114610424578182fd5b600080602083850312156108b7578081fd5b823567ffffffffffffffff808211156108ce578283fd5b818501915085601f8301126108e1578283fd5b8135818111156108ef578384fd5b866020828501011115610900578384fd5b60209290920196919550909350505050565b60008251610924818460208701610961565b9190910192915050565b600060208252825180602084015261094d816040850160208701610961565b601f01601f19169190910160400192915050565b60005b8381101561097c578181015183820152602001610964565b83811115610569575050600091015256fe416464726573733a206c6f772d6c6576656c2064656c65676174652063616c6c206661696c6564a26469706673582212202736db5a61999b563802416466573e2f5ff2815fb220558e1cd142b69dc3e69b64736f6c63430008020033b53127684a568b3173ae13b9f8a6016e243e63b6e8ee1178d6a717850b5d6103360894a13ba1a3210667c828492db98dca3e2076cc3735a920a3ca505d382bbc416464726573733a206c6f772d6c6576656c2064656c65676174652063616c6c206661696c6564",
  "linkReferences": {},
  "deployedLinkReferences": {}
}