{
  "_format": "hh-sol-artifact-1",
  "contractName": "TransparentUpgradeableProxy",
  "sourceName": "contracts/MainProtocol/TransparentUpgradeableProxy.sol",
  "abi": [
    {
      "inputs": [
        {
          "internalType": "address",
          "name": "_logic",
          "type": "address"
        },
        {
          "internalType": "address",
          "name": "admin_",
          "type": "address"
        },
        {
          "internalType": "bytes",
          "name": "_data",
          "type": "bytes"
        }
      ],
      "stateMutability": "payable",
      "type": "constructor"
    },
    {
      "anonymous": false,
      "inputs": [
        {
          "indexed": false,
          "internalType": "address",
          "name": "previousAdmin",
          "type": "address"
        },
        {
          "indexed": false,
          "internalType": "address",
          "name": "newAdmin",
          "type": "address"
        }
      ],
      "name": "AdminChanged",
      "type": "event"
    },
    {
      "anonymous": false,
      "inputs": [
        {
          "indexed": true,
          "internalType": "address",
          "name": "beacon",
          "type": "address"
        }
      ],
      "name": "BeaconUpgraded",
      "type": "event"
    },
    {
      "anonymous": false,
      "inputs": [
        {
          "indexed": true,
          "internalType": "address",
          "name": "implementation",
          "type": "address"
        }
      ],
      "name": "Upgraded",
      "type": "event"
    },
    {
      "stateMutability": "payable",
      "type": "fallback"
    },
    {
      "inputs": [],
      "name": "admin",
      "outputs": [
        {
          "internalType": "address",
          "name": "admin_",
          "type": "address"
        }
      ],
      "stateMutability": "nonpayable",
      "type": "function"
    },
    {
      "inputs": [
        {
          "internalType": "address",
          "name": "newAdmin",
          "type": "address"
        }
      ],
      "name": "changeAdmin",
      "outputs": [],
      "stateMutability": "nonpayable",
      "type": "function"
    },
    {
      "inputs": [],
      "name": "changeTimelock",
      "outputs": [],
      "stateMutability": "nonpayable",
      "type": "function"
    },
    {
      "inputs": [],
      "name": "implementation",
      "outputs": [
        {
          "internalType": "address",
          "name": "implementation_",
          "type": "address"
        }
      ],
      "stateMutability": "nonpayable",
      "type": "function"
    },
    {
      "inputs": [],
      "name": "nextImplementation",
      "outputs": [
        {
          "internalType": "address",
          "name": "",
          "type": "address"
        }
      ],
      "stateMutability": "view",
      "type": "function"
    },
    {
      "inputs": [],
      "name": "nextTimelock",
      "outputs": [
        {
          "internalType": "uint256",
          "name": "",
          "type": "uint256"
        }
      ],
      "stateMutability": "view",
      "type": "function"
    },
    {
      "inputs": [
        {
          "internalType": "uint256",
          "name": "_value",
          "type": "uint256"
        }
      ],
      "name": "submitNewTimelock",
      "outputs": [],
      "stateMutability": "nonpayable",
      "type": "function"
    },
    {
      "inputs": [
        {
          "internalType": "address",
          "name": "newImplementation",
          "type": "address"
        }
      ],
      "name": "submitUpgrade",
      "outputs": [],
      "stateMutability": "nonpayable",
      "type": "function"
    },
    {
      "inputs": [],
      "name": "timelockEndForTimelock",
      "outputs": [
        {
          "internalType": "uint256",
          "name": "",
          "type": "uint256"
        }
      ],
      "stateMutability": "view",
      "type": "function"
    },
    {
      "inputs": [],
      "name": "timelockEndForUpgrade",
      "outputs": [
        {
          "internalType": "uint256",
          "name": "",
          "type": "uint256"
        }
      ],
      "stateMutability": "view",
      "type": "function"
    },
    {
      "inputs": [],
      "name": "timelockLength",
      "outputs": [
        {
          "internalType": "uint256",
          "name": "",
          "type": "uint256"
        }
      ],
      "stateMutability": "view",
      "type": "function"
    },
    {
      "inputs": [],
      "name": "upgradeTo",
      "outputs": [],
      "stateMutability": "nonpayable",
      "type": "function"
    },
    {
      "inputs": [
        {
          "internalType": "bytes",
          "name": "data",
          "type": "bytes"
        }
      ],
      "name": "upgradeToAndCall",
      "outputs": [],
      "stateMutability": "payable",
      "type": "function"
    },
    {
      "stateMutability": "payable",
      "type": "receive"
    }
  ],
  "bytecode": "0x60806040526202a3006000556000600355604051620013be380380620013be8339810160408190526200003291620004f7565b82816200006160017f360894a13ba1a3210667c828492db98dca3e2076cc3735a920a3ca505d382bbd62000626565b60008051602062001377833981519152146200008d57634e487b7160e01b600052600160045260246000fd5b6200009b828260006200010b565b50620000cb905060017fb53127684a568b3173ae13b9f8a6016e243e63b6e8ee1178d6a717850b5d610462000626565b6000805160206200135783398151915214620000f757634e487b7160e01b600052600160045260246000fd5b620001028262000148565b5050506200068f565b6200011683620001a3565b600082511180620001245750805b156200014357620001418383620001e560201b620006911760201c565b505b505050565b7f7e644d79422f17c01e4894b5f4f588d331ebfa28653d42ae832dc59e38c9798f6200017362000214565b604080516001600160a01b03928316815291841660208301520160405180910390a1620001a0816200024d565b50565b620001ae8162000302565b6040516001600160a01b038216907fbc7cd75a20ee27fd9adebab32041f755214dbc6bffa90cc0225b39da2e5c2d3b90600090a250565b60606200020d83836040518060600160405280602781526020016200139760279139620003a5565b9392505050565b60006200023e6000805160206200135783398151915260001b6200048b60201b620004c91760201c565b546001600160a01b0316905090565b6001600160a01b038116620002b85760405162461bcd60e51b815260206004820152602660248201527f455243313936373a206e65772061646d696e20697320746865207a65726f206160448201526564647265737360d01b60648201526084015b60405180910390fd5b80620002e16000805160206200135783398151915260001b6200048b60201b620004c91760201c565b80546001600160a01b0319166001600160a01b039290921691909117905550565b62000318816200048e60201b620006bd1760201c565b6200037c5760405162461bcd60e51b815260206004820152602d60248201527f455243313936373a206e657720696d706c656d656e746174696f6e206973206e60448201526c1bdd08184818dbdb9d1c9858dd609a1b6064820152608401620002af565b80620002e16000805160206200137783398151915260001b6200048b60201b620004c91760201c565b6060620003b2846200048e565b6200040f5760405162461bcd60e51b815260206004820152602660248201527f416464726573733a2064656c65676174652063616c6c20746f206e6f6e2d636f6044820152651b9d1c9858dd60d21b6064820152608401620002af565b600080856001600160a01b0316856040516200042c9190620005d3565b600060405180830381855af49150503d806000811462000469576040519150601f19603f3d011682016040523d82523d6000602084013e6200046e565b606091505b50909250905062000481828286620004a1565b9695505050505050565b90565b6001600160a01b0381163b15155b919050565b60608315620004b25750816200020d565b825115620004c35782518084602001fd5b8160405162461bcd60e51b8152600401620002af9190620005f1565b80516001600160a01b03811681146200049c57600080fd5b6000806000606084860312156200050c578283fd5b6200051784620004df565b92506200052760208501620004df565b60408501519092506001600160401b038082111562000544578283fd5b818601915086601f83011262000558578283fd5b8151818111156200056d576200056d62000679565b604051601f8201601f19908116603f0116810190838211818310171562000598576200059862000679565b81604052828152896020848701011115620005b1578586fd5b620005c48360208301602088016200064a565b80955050505050509250925092565b60008251620005e78184602087016200064a565b9190910192915050565b6000602082528251806020840152620006128160408501602087016200064a565b601f01601f19169190910160400192915050565b6000828210156200064557634e487b7160e01b81526011600452602481fd5b500390565b60005b83811015620006675781810151838201526020016200064d565b83811115620001415750506000910152565b634e487b7160e01b600052604160045260246000fd5b610cb8806200069f6000396000f3fe6080604052600436106100c65760003560e01c80633da239c71161007f5780639461e673116100595780639461e673146101e95780639df4d08e146101ff578063a469af1a14610212578063f851a44014610232576100d5565b80633da239c71461019f5780635c60da1b146101b45780638f283970146101c9576100d5565b806309ff18f0146100dd57806316a27ecd1461011a578063176ee7e51461012f5780631e3f4cc214610153578063219a1f8114610169578063343851fa1461017f576100d5565b366100d5576100d3610247565b005b6100d3610247565b3480156100e957600080fd5b506004546100fd906001600160a01b031681565b6040516001600160a01b0390911681526020015b60405180910390f35b34801561012657600080fd5b506100d3610261565b34801561013b57600080fd5b5061014560025481565b604051908152602001610111565b34801561015f57600080fd5b5061014560035481565b34801561017557600080fd5b5061014560005481565b34801561018b57600080fd5b506100d361019a366004610b10565b61036c565b3480156101ab57600080fd5b506100d36103c8565b3480156101c057600080fd5b506100fd61048f565b3480156101d557600080fd5b506100d36101e4366004610b10565b6104cc565b3480156101f557600080fd5b5061014560015481565b6100d361020d366004610b37565b6104fb565b34801561021e57600080fd5b506100d361022d366004610ba4565b61062b565b34801561023e57600080fd5b506100fd610666565b61024f6106cc565b61025f61025a61076b565b61077a565b565b6102696107a3565b6001600160a01b0316336001600160a01b03161415610364576004546001600160a01b03166102df5760405162461bcd60e51b815260206004820152601a60248201527f43616e2774207570677261646520746f2061646472657373203000000000000060448201526064015b60405180910390fd5b60015442116103285760405162461bcd60e51b8152602060048201526015602482015274151a5b595b1bd8dac81b9bdd08199a5b9a5cda1959605a1b60448201526064016102d6565b6004546040805160208101909152600080825261034f926001600160a01b031691906107d6565b600480546001600160a01b031916905561025f565b61025f610247565b6103746107a3565b6001600160a01b0316336001600160a01b031614156103bd57600480546001600160a01b0319166001600160a01b0383161790556000546103b59042610c0b565b6001556103c5565b6103c5610247565b50565b6103d06107a3565b6001600160a01b0316336001600160a01b03161415610364576003546104385760405162461bcd60e51b815260206004820152601860248201527f43616e6e6f74207365742074696d656c6f636b20746f2030000000000000000060448201526064016102d6565b60025442101561047f5760405162461bcd60e51b8152602060048201526012602482015271151a5b595b1bd8dac81b9bdd08195b99195960721b60448201526064016102d6565b600380546000908155905561025f565b60006104996107a3565b6001600160a01b0316336001600160a01b031614156104c1576104ba61076b565b90506104c9565b6104c9610247565b90565b6104d46107a3565b6001600160a01b0316336001600160a01b031614156103bd576104f681610801565b6103c5565b6105036107a3565b6001600160a01b0316336001600160a01b0316141561061f576004546001600160a01b03166105745760405162461bcd60e51b815260206004820152601a60248201527f43616e2774207570677261646520746f2061646472657373203000000000000060448201526064016102d6565b60015442116105bd5760405162461bcd60e51b8152602060048201526015602482015274151a5b595b1bd8dac81b9bdd08199a5b9a5cda1959605a1b60448201526064016102d6565b600454604080516020601f850181900481028201810190925283815261060a926001600160a01b0316918590859081908401838280828437600092019190915250600192506107d6915050565b600480546001600160a01b0319169055610627565b610627610247565b5050565b6106336107a3565b6001600160a01b0316336001600160a01b031614156103bd57600381905560005461065e9042610c0b565b6002556103c5565b60006106706107a3565b6001600160a01b0316336001600160a01b031614156104c1576104ba6107a3565b60606106b68383604051806060016040528060278152602001610c5c60279139610855565b9392505050565b6001600160a01b03163b151590565b6106d46107a3565b6001600160a01b0316336001600160a01b031614156107665760405162461bcd60e51b815260206004820152604260248201527f5472616e73706172656e745570677261646561626c6550726f78793a2061646d60448201527f696e2063616e6e6f742066616c6c6261636b20746f2070726f78792074617267606482015261195d60f21b608482015260a4016102d6565b61025f565b6000610775610932565b905090565b3660008037600080366000845af43d6000803e808015610799573d6000f35b3d6000fd5b505050565b60007fb53127684a568b3173ae13b9f8a6016e243e63b6e8ee1178d6a717850b5d61035b546001600160a01b0316905090565b6107df8361095a565b6000825111806107ec5750805b1561079e576107fb8383610691565b50505050565b7f7e644d79422f17c01e4894b5f4f588d331ebfa28653d42ae832dc59e38c9798f61082a6107a3565b604080516001600160a01b03928316815291841660208301520160405180910390a16103c58161099a565b60606001600160a01b0384163b6108bd5760405162461bcd60e51b815260206004820152602660248201527f416464726573733a2064656c65676174652063616c6c20746f206e6f6e2d636f6044820152651b9d1c9858dd60d21b60648201526084016102d6565b600080856001600160a01b0316856040516108d89190610bbc565b600060405180830381855af49150503d8060008114610913576040519150601f19603f3d011682016040523d82523d6000602084013e610918565b606091505b5091509150610928828286610a43565b9695505050505050565b60007f360894a13ba1a3210667c828492db98dca3e2076cc3735a920a3ca505d382bbc6107c7565b61096381610a7c565b6040516001600160a01b038216907fbc7cd75a20ee27fd9adebab32041f755214dbc6bffa90cc0225b39da2e5c2d3b90600090a250565b6001600160a01b0381166109ff5760405162461bcd60e51b815260206004820152602660248201527f455243313936373a206e65772061646d696e20697320746865207a65726f206160448201526564647265737360d01b60648201526084016102d6565b807fb53127684a568b3173ae13b9f8a6016e243e63b6e8ee1178d6a717850b5d61035b80546001600160a01b0319166001600160a01b039290921691909117905550565b60608315610a525750816106b6565b825115610a625782518084602001fd5b8160405162461bcd60e51b81526004016102d69190610bd8565b6001600160a01b0381163b610ae95760405162461bcd60e51b815260206004820152602d60248201527f455243313936373a206e657720696d706c656d656e746174696f6e206973206e60448201526c1bdd08184818dbdb9d1c9858dd609a1b60648201526084016102d6565b807f360894a13ba1a3210667c828492db98dca3e2076cc3735a920a3ca505d382bbc610a22565b600060208284031215610b21578081fd5b81356001600160a01b03811681146106b6578182fd5b60008060208385031215610b49578081fd5b823567ffffffffffffffff80821115610b60578283fd5b818501915085601f830112610b73578283fd5b813581811115610b81578384fd5b866020828501011115610b92578384fd5b60209290920196919550909350505050565b600060208284031215610bb5578081fd5b5035919050565b60008251610bce818460208701610c2f565b9190910192915050565b6000602082528251806020840152610bf7816040850160208701610c2f565b601f01601f19169190910160400192915050565b60008219821115610c2a57634e487b7160e01b81526011600452602481fd5b500190565b60005b83811015610c4a578181015183820152602001610c32565b838111156107fb575050600091015256fe416464726573733a206c6f772d6c6576656c2064656c65676174652063616c6c206661696c6564a2646970667358221220b1819999d01b741c0bbfe087760abd511adf8dee8f9b6700e96ad09bf86ed5d164736f6c63430008020033b53127684a568b3173ae13b9f8a6016e243e63b6e8ee1178d6a717850b5d6103360894a13ba1a3210667c828492db98dca3e2076cc3735a920a3ca505d382bbc416464726573733a206c6f772d6c6576656c2064656c65676174652063616c6c206661696c6564",
  "linkReferences": {},
  "deployedLinkReferences": {}
}