{
  "_format": "hh-sol-artifact-1",
  "contractName": "veYETI",
  "sourceName": "contracts/MainProtocol/veYeti.sol",
  "abi": [
    {
      "anonymous": false,
      "inputs": [
        {
          "indexed": false,
          "internalType": "address",
          "name": "_rewarder",
          "type": "address"
        },
        {
          "indexed": false,
          "internalType": "bool",
          "name": "_updatable",
          "type": "bool"
        }
      ],
      "name": "RewarderStatusUpdate",
      "type": "event"
    },
    {
      "anonymous": false,
      "inputs": [
        {
          "indexed": false,
          "internalType": "address",
          "name": "_contractAddress",
          "type": "address"
        },
        {
          "indexed": false,
          "internalType": "bool",
          "name": "_isWhitelisted",
          "type": "bool"
        }
      ],
      "name": "UpdatedWhitelistedContracts",
      "type": "event"
    },
    {
      "anonymous": false,
      "inputs": [
        {
          "indexed": false,
          "internalType": "address",
          "name": "_user",
          "type": "address"
        },
        {
          "indexed": false,
          "internalType": "bool",
          "name": "_isStakeIncrease",
          "type": "bool"
        },
        {
          "indexed": false,
          "internalType": "uint256",
          "name": "_stakeAmount",
          "type": "uint256"
        }
      ],
      "name": "UserUpdate",
      "type": "event"
    },
    {
      "inputs": [],
      "name": "accumulationRate",
      "outputs": [
        {
          "internalType": "uint256",
          "name": "",
          "type": "uint256"
        }
      ],
      "stateMutability": "view",
      "type": "function"
    },
    {
      "inputs": [
        {
          "internalType": "address",
          "name": "_rewarder",
          "type": "address"
        }
      ],
      "name": "addUpdatableRewarder",
      "outputs": [],
      "stateMutability": "nonpayable",
      "type": "function"
    },
    {
      "inputs": [],
      "name": "emitter",
      "outputs": [
        {
          "internalType": "contract IEmitter",
          "name": "",
          "type": "address"
        }
      ],
      "stateMutability": "view",
      "type": "function"
    },
    {
      "inputs": [],
      "name": "getAccumulationRate",
      "outputs": [
        {
          "internalType": "uint256",
          "name": "",
          "type": "uint256"
        }
      ],
      "stateMutability": "view",
      "type": "function"
    },
    {
      "inputs": [],
      "name": "getEmitter",
      "outputs": [
        {
          "internalType": "address",
          "name": "",
          "type": "address"
        }
      ],
      "stateMutability": "view",
      "type": "function"
    },
    {
      "inputs": [
        {
          "internalType": "address",
          "name": "_user",
          "type": "address"
        }
      ],
      "name": "getTotalVeYeti",
      "outputs": [
        {
          "internalType": "uint256",
          "name": "",
          "type": "uint256"
        }
      ],
      "stateMutability": "view",
      "type": "function"
    },
    {
      "inputs": [
        {
          "internalType": "address",
          "name": "_user",
          "type": "address"
        }
      ],
      "name": "getTotalYeti",
      "outputs": [
        {
          "internalType": "uint256",
          "name": "",
          "type": "uint256"
        }
      ],
      "stateMutability": "view",
      "type": "function"
    },
    {
      "inputs": [],
      "name": "getUpdatableRewarders",
      "outputs": [
        {
          "internalType": "address[]",
          "name": "",
          "type": "address[]"
        }
      ],
      "stateMutability": "view",
      "type": "function"
    },
    {
      "inputs": [
        {
          "internalType": "address",
          "name": "_user",
          "type": "address"
        },
        {
          "internalType": "address",
          "name": "_rewarder",
          "type": "address"
        }
      ],
      "name": "getUserYetiOnRewarder",
      "outputs": [
        {
          "internalType": "uint256",
          "name": "",
          "type": "uint256"
        }
      ],
      "stateMutability": "view",
      "type": "function"
    },
    {
      "inputs": [
        {
          "internalType": "address",
          "name": "_user",
          "type": "address"
        },
        {
          "internalType": "address",
          "name": "_rewarder",
          "type": "address"
        }
      ],
      "name": "getVeYetiOnRewarder",
      "outputs": [
        {
          "internalType": "uint256",
          "name": "",
          "type": "uint256"
        }
      ],
      "stateMutability": "view",
      "type": "function"
    },
    {
      "inputs": [],
      "name": "notifyAllRewarders",
      "outputs": [],
      "stateMutability": "nonpayable",
      "type": "function"
    },
    {
      "inputs": [
        {
          "internalType": "address[]",
          "name": "rewarders",
          "type": "address[]"
        }
      ],
      "name": "notifyRewarders",
      "outputs": [],
      "stateMutability": "nonpayable",
      "type": "function"
    },
    {
      "inputs": [
        {
          "internalType": "uint256",
          "name": "_index",
          "type": "uint256"
        }
      ],
      "name": "removeUpdatableRewarder",
      "outputs": [],
      "stateMutability": "nonpayable",
      "type": "function"
    },
    {
      "inputs": [
        {
          "internalType": "contract IEmitter",
          "name": "_emitter",
          "type": "address"
        }
      ],
      "name": "setEmitter",
      "outputs": [],
      "stateMutability": "nonpayable",
      "type": "function"
    },
    {
      "inputs": [
        {
          "internalType": "contract IERC20",
          "name": "_yeti",
          "type": "address"
        },
        {
          "internalType": "address",
          "name": "_yetiController",
          "type": "address"
        },
        {
          "internalType": "uint256",
          "name": "_accumulationRate",
          "type": "uint256"
        }
      ],
      "name": "setup",
      "outputs": [],
      "stateMutability": "nonpayable",
      "type": "function"
    },
    {
      "inputs": [],
      "name": "totalYeti",
      "outputs": [
        {
          "internalType": "uint256",
          "name": "",
          "type": "uint256"
        }
      ],
      "stateMutability": "view",
      "type": "function"
    },
    {
      "inputs": [
        {
          "internalType": "uint256",
          "name": "",
          "type": "uint256"
        }
      ],
      "name": "updatableRewarders",
      "outputs": [
        {
          "internalType": "address",
          "name": "",
          "type": "address"
        }
      ],
      "stateMutability": "view",
      "type": "function"
    },
    {
      "inputs": [
        {
          "components": [
            {
              "internalType": "address",
              "name": "rewarder",
              "type": "address"
            },
            {
              "internalType": "uint256",
              "name": "amount",
              "type": "uint256"
            },
            {
              "internalType": "bool",
              "name": "isIncrease",
              "type": "bool"
            }
          ],
          "internalType": "struct veYETI.RewarderUpdate[]",
          "name": "_yetiAdjustments",
          "type": "tuple[]"
        }
      ],
      "name": "update",
      "outputs": [],
      "stateMutability": "nonpayable",
      "type": "function"
    },
    {
      "inputs": [
        {
          "internalType": "address",
          "name": "_newcontractController",
          "type": "address"
        }
      ],
      "name": "updateContractController",
      "outputs": [],
      "stateMutability": "nonpayable",
      "type": "function"
    },
    {
      "inputs": [
        {
          "internalType": "address",
          "name": "_contractAddress",
          "type": "address"
        },
        {
          "internalType": "bool",
          "name": "_isWhitelisted",
          "type": "bool"
        }
      ],
      "name": "updateWhitelistedCallers",
      "outputs": [],
      "stateMutability": "nonpayable",
      "type": "function"
    },
    {
      "inputs": [],
      "name": "yetiToken",
      "outputs": [
        {
          "internalType": "contract IERC20",
          "name": "",
          "type": "address"
        }
      ],
      "stateMutability": "view",
      "type": "function"
    }
  ],
  "bytecode": "0x608060405234801561001057600080fd5b50611995806100206000396000f3fe608060405234801561001057600080fd5b50600436106101375760003560e01c806379aaef55116100b8578063cbe406221161007c578063cbe4062214610283578063dce1137514610296578063de6c20fd146102a9578063deec2270146102bc578063ec5ea9f1146102cf578063f1fc698a146102d857610137565b806379aaef55146101fc5780639f903ff614610221578063afa72b8014610234578063b03d659b1461025d578063c90025951461027057610137565b80633f3af770116100ff5780633f3af770146101a857806345783a82146101bb5780634b879069146101ce57806362757d37146101e15780636491d409146101e957610137565b80630a95bceb1461013c5780630f0028ef14610162578063121a5805146101775780632f7baebb146101805780633746452e14610193575b600080fd5b61014f61014a36600461146b565b6102e0565b6040519081526020015b60405180910390f35b61017561017036600461146b565b610345565b005b61014f60025481565b61014f61018e36600461148e565b6104d5565b61019b610506565b604051610159919061173b565b6101756101b63660046116c0565b610568565b6101756101c936600461146b565b610704565b6101756101dc3660046114c6565b610775565b60035461014f565b6101756101f73660046114f3565b610837565b6007546001600160a01b03165b6040516001600160a01b039091168152602001610159565b61017561022f36600461146b565b610841565b61014f61024236600461146b565b6001600160a01b031660009081526006602052604090205490565b61014f61026b36600461148e565b61090a565b61020961027e3660046116c0565b610972565b610175610291366004611680565b61099c565b600754610209906001600160a01b031681565b600054610209906001600160a01b031681565b6101756102ca366004611591565b610a28565b61014f60035481565b610175610b22565b6001600160a01b03811660009081526006602052604081206002810154829061030990426118de565b9050600081600354846000015461032091906118bf565b61032a91906118bf565b905080836003015461033c9190611887565b95945050505050565b600a546001600160a01b031633146103785760405162461bcd60e51b815260040161036f90611802565b60405180910390fd5b6001600160a01b03811660009081526009602052604090205460ff16156103e15760405162461bcd60e51b815260206004820152601e60248201527f7665594554493a20726577617264657220616c72656164792061646465640000604482015260640161036f565b600854600a116104335760405162461bcd60e51b815260206004820152601a60248201527f7665594554493a20746f6f206d616e7920726577617264657273000000000000604482015260640161036f565b6001600160a01b0381166000818152600960209081526040808320805460ff1916600190811790915560088054808301825594527ff3f7a9fe364faab93b216da50a3214154f22a0a2b415b23a84c8169e8b636ee390930180546001600160a01b031916851790558051938452908301919091527f2e09b860d94f988a28d5226aaf8e221845ffc2209d169811b255636933128b0d910160405180910390a150565b6001600160a01b03808316600090815260066020908152604080832093851683526001909301905220545b92915050565b6060600880548060200260200160405190810160405280929190818152602001828054801561055e57602002820191906000526020600020905b81546001600160a01b03168152600190910190602001808311610540575b5050505050905090565b600a546001600160a01b031633146105925760405162461bcd60e51b815260040161036f90611802565b6000600882815481106105b557634e487b7160e01b600052603260045260246000fd5b600091825260209091200154600880546001600160a01b039092169250906105df906001906118de565b815481106105fd57634e487b7160e01b600052603260045260246000fd5b600091825260209091200154600880546001600160a01b03909216918490811061063757634e487b7160e01b600052603260045260246000fd5b9060005260206000200160006101000a8154816001600160a01b0302191690836001600160a01b03160217905550600880548061068457634e487b7160e01b600052603160045260246000fd5b60008281526020808220600019908401810180546001600160a01b03191690559092019092556001600160a01b038316808352600982526040808420805460ff191690558051918252918101929092527f2e09b860d94f988a28d5226aaf8e221845ffc2209d169811b255636933128b0d91015b60405180910390a15050565b600a546001600160a01b031661073f57600a80546001600160a01b03191673f39fd6e51aad88f6f4ce6ab8827279cfffb92266179055610772565b600a546001600160a01b0316331461075657600080fd5b600a80546001600160a01b0319166001600160a01b0383161790555b50565b6001546001600160a01b031633146107db5760405162461bcd60e51b8152602060048201526024808201527f7665594554493a2043616c6c6572206973206e6f742059657469436f6e74726f604482015263363632b960e11b606482015260840161036f565b6001600160a01b038216600081815260056020908152604091829020805460ff19168515159081179091558251938452908301527fda2ee3571935b8b77a334c28a935df4905fd3da7875f28b4328989d43f9d692491016106f8565b6107723382610b86565b6007546001600160a01b0316156108905760405162461bcd60e51b8152602060048201526013602482015272195b5a5d1d195c88185b1c9958591e481cd95d606a1b604482015260640161036f565b600a546001600160a01b031633146108ba5760405162461bcd60e51b815260040161036f90611802565b600780546001600160a01b0319166001600160a01b03838116919091179182905560408051808201909152600c81526b456d6974746572203d20257360a01b602082015261077292909116610cc5565b6001600160a01b03821660009081526006602052604081208054610932576000915050610500565b600061093d856102e0565b82546001600160a01b03861660009081526001850160205260409020549192509061096890836118bf565b61033c919061189f565b6008818154811061098257600080fd5b6000918252602090912001546001600160a01b0316905081565b60045460ff16156109e75760405162461bcd60e51b815260206004820152601560248201527407665594554493a20616c726561647920736574757605c1b604482015260640161036f565b600080546001600160a01b039485166001600160a01b031991821617909155600180549390941692169190911782556003556004805460ff19169091179055565b610a30610d0e565b3360009081526006602052604081209080610a4a84610da8565b91509150610a583383610e91565b610a623385610f0e565b610a6d8383836110c3565b428360020181905550610ada336008805480602002602001604051908101604052809291908181526020018280548015610ad057602002820191906000526020600020905b81546001600160a01b03168152600190910190602001808311610ab2575b5050505050610b86565b6040805133815283151560208201529081018290527fab3ddac2c28890b26a232d2fcdc94156965213b4cfdf5b1cdd69fc24a04d22a59060600160405180910390a150505050565b610b84336008805480602002602001604051908101604052809291908181526020018280548015610ad0576020028201919060005260206000209081546001600160a01b03168152600190910190602001808311610ab2575050505050610b86565b565b6001600160a01b038216600090815260066020526040812090610ba8846102e0565b905060005b8351811015610cbe576000848281518110610bd857634e487b7160e01b600052603260045260246000fd5b6020908102919091018101516001600160a01b0381166000908152600990925260409091205490915060ff1615610cab57835460009015610c475784546001600160a01b0383166000908152600187016020526040902054610c3a90866118bf565b610c44919061189f565b90505b604051632780549f60e11b81526001600160a01b03888116600483015260248201839052831690634f00a93e90604401600060405180830381600087803b158015610c9157600080fd5b505af1158015610ca5573d6000803e3d6000fd5b50505050505b5080610cb6816118f5565b915050610bad565b5050505050565b610d0a8282604051602401610cdb929190611788565b60408051601f198184030181529190526020810180516001600160e01b031663319af33360e01b179052611387565b5050565b333214610b84573360009081526005602052604090205460ff16610b845760405162461bcd60e51b8152602060048201526044602482018190527f7665594554493a2075706461746528292063616e206f6e6c792062652063616c908201527f6c656420627920454f4173206f722077686974656c697374656420636f6e74726064820152636163747360e01b608482015260a40161036f565b60008060008060008551905060005b81811015610e7a57868181518110610ddf57634e487b7160e01b600052603260045260246000fd5b60200260200101516040015115610e2e57868181518110610e1057634e487b7160e01b600052603260045260246000fd5b60200260200101516020015184610e279190611887565b9350610e68565b868181518110610e4e57634e487b7160e01b600052603260045260246000fd5b60200260200101516020015183610e659190611887565b92505b80610e72816118f5565b915050610db7565b50610e8583836113a8565b94509450505050915091565b6001600160a01b03821660009081526006602052604090208115610f01576000816002015442610ec191906118de565b90506000816003548460000154610ed891906118bf565b610ee291906118bf565b9050808360030154610ef49190611887565b600384015550610f099050565b600060038201555b505050565b6001600160a01b0382166000908152600660205260408120825190915b81811015610cbe576000848281518110610f5557634e487b7160e01b600052603260045260246000fd5b60200260200101516000015190506000858381518110610f8557634e487b7160e01b600052603260045260246000fd5b60200260200101516040015190506000868481518110610fb557634e487b7160e01b600052603260045260246000fd5b60200260200101516020015190508115610ffe576001600160a01b038316600090815260018701602052604081208054839290610ff3908490611887565b909155506110ad9050565b6001600160a01b038316600090815260018701602052604090205481111561107d5760405162461bcd60e51b815260206004820152602c60248201527f7665594554493a20696e73756666696369656e742059657469207374616b656460448201526b1037b7103932bbb0b93232b960a11b606482015260840161036f565b6001600160a01b0383166000908152600187016020526040812080548392906110a79084906118de565b90915550505b50505080806110bb906118f5565b915050610f2b565b80156113035781156111e4576110fd6040518060400160405280600c81526020016b5f616d6f756e74203d20257360a01b815250826113df565b604080518082018252601281527162616c616e63654f6628257329203d20257360701b602082015260005491516370a0823160e01b815233600482018190526111ac9390916001600160a01b03909116906370a082319060240160206040518083038186803b15801561116f57600080fd5b505afa158015611183573d6000803e3d6000fd5b505050506040513d601f19601f820116820180604052508101906111a791906116d8565b611424565b808360000160008282546111c09190611887565b9250508190555080600260008282546111d99190611887565b909155506113039050565b825481111561124b5760405162461bcd60e51b815260206004820152602d60248201527f7665594554493a20696e73756666696369656e74205965746920666f7220757360448201526c657220746f20756e7374616b6560981b606482015260840161036f565b8083600001600082825461125f91906118de565b92505081905550806002600082825461127891906118de565b909155505060005460405163a9059cbb60e01b8152336004820152602481018390526001600160a01b039091169063a9059cbb90604401602060405180830381600087803b1580156112c957600080fd5b505af11580156112dd573d6000803e3d6000fd5b505050506040513d601f19601f820116820180604052508101906113019190611664565b505b6b019d971e4fe8401e740000006002541115610f095760405162461bcd60e51b815260206004820152603760248201527f6d6f72652059657469207374616b656420696e207468697320636f6e7472616360448201527f74207468616e2074686520746f74616c20737570706c79000000000000000000606482015260840161036f565b80516a636f6e736f6c652e6c6f67602083016000808483855afa5050505050565b6000808284106113c75760016113be84866118de565b915091506113d8565b60006113d385856118de565b915091505b9250929050565b610d0a82826040516024016113f59291906117e0565b60408051601f198184030181529190526020810180516001600160e01b03166309710a9d60e41b179052611387565b610f0983838360405160240161143c939291906117b2565b60408051601f198184030181529190526020810180516001600160e01b03166307c8121760e01b179052611387565b60006020828403121561147c578081fd5b81356114878161193c565b9392505050565b600080604083850312156114a0578081fd5b82356114ab8161193c565b915060208301356114bb8161193c565b809150509250929050565b600080604083850312156114d8578182fd5b82356114e38161193c565b915060208301356114bb81611951565b60006020808385031215611505578182fd5b823567ffffffffffffffff81111561151b578283fd5b8301601f8101851361152b578283fd5b803561153e61153982611863565b611832565b818152838101908385018584028501860189101561155a578687fd5b8694505b838510156115855780356115718161193c565b83526001949094019391850191850161155e565b50979650505050505050565b600060208083850312156115a3578182fd5b823567ffffffffffffffff8111156115b9578283fd5b8301601f810185136115c9578283fd5b80356115d761153982611863565b818152838101908385016060808502860187018a10156115f5578788fd5b8795505b848610156116565780828b03121561160f578788fd5b61161881611832565b82356116238161193c565b8152828801358882015260408084013561163c81611951565b9082015284526001959095019492860192908101906115f9565b509098975050505050505050565b600060208284031215611675578081fd5b815161148781611951565b600080600060608486031215611694578081fd5b833561169f8161193c565b925060208401356116af8161193c565b929592945050506040919091013590565b6000602082840312156116d1578081fd5b5035919050565b6000602082840312156116e9578081fd5b5051919050565b60008151808452815b81811015611715576020818501810151868301820152016116f9565b818111156117265782602083870101525b50601f01601f19169290920160200192915050565b6020808252825182820181905260009190848201906040850190845b8181101561177c5783516001600160a01b031683529284019291840191600101611757565b50909695505050505050565b60006040825261179b60408301856116f0565b905060018060a01b03831660208301529392505050565b6000606082526117c560608301866116f0565b6001600160a01b039490941660208301525060400152919050565b6000604082526117f360408301856116f0565b90508260208301529392505050565b6020808252601690820152753b32aca2aa249d1034b73b30b634b21031b0b63632b960511b604082015260600190565b604051601f8201601f1916810167ffffffffffffffff8111828210171561185b5761185b611926565b604052919050565b600067ffffffffffffffff82111561187d5761187d611926565b5060209081020190565b6000821982111561189a5761189a611910565b500190565b6000826118ba57634e487b7160e01b81526012600452602481fd5b500490565b60008160001904831182151516156118d9576118d9611910565b500290565b6000828210156118f0576118f0611910565b500390565b600060001982141561190957611909611910565b5060010190565b634e487b7160e01b600052601160045260246000fd5b634e487b7160e01b600052604160045260246000fd5b6001600160a01b038116811461077257600080fd5b801515811461077257600080fdfea2646970667358221220acb58d00b750efa139d12e2431aa1573de410ec81d3b63b8e12a7086bd27f87964736f6c63430008020033",
  "linkReferences": {},
  "deployedLinkReferences": {}
}