{
  "_format": "hh-sol-artifact-1",
  "contractName": "RGNYETI",
  "sourceName": "contracts/Tokens/RGNYeti.sol",
  "abi": [
    {
      "inputs": [
        {
          "internalType": "address",
          "name": "_mainContract",
          "type": "address"
        },
        {
          "internalType": "address",
          "name": "_yeti",
          "type": "address"
        }
      ],
      "stateMutability": "nonpayable",
      "type": "constructor"
    },
    {
      "anonymous": false,
      "inputs": [
        {
          "indexed": true,
          "internalType": "address",
          "name": "owner",
          "type": "address"
        },
        {
          "indexed": true,
          "internalType": "address",
          "name": "spender",
          "type": "address"
        },
        {
          "indexed": false,
          "internalType": "uint256",
          "name": "value",
          "type": "uint256"
        }
      ],
      "name": "Approval",
      "type": "event"
    },
    {
      "anonymous": false,
      "inputs": [
        {
          "indexed": true,
          "internalType": "address",
          "name": "user",
          "type": "address"
        },
        {
          "indexed": false,
          "internalType": "uint256",
          "name": "amount",
          "type": "uint256"
        }
      ],
      "name": "RgnYetiMinted",
      "type": "event"
    },
    {
      "anonymous": false,
      "inputs": [
        {
          "indexed": true,
          "internalType": "address",
          "name": "from",
          "type": "address"
        },
        {
          "indexed": true,
          "internalType": "address",
          "name": "to",
          "type": "address"
        },
        {
          "indexed": false,
          "internalType": "uint256",
          "name": "value",
          "type": "uint256"
        }
      ],
      "name": "Transfer",
      "type": "event"
    },
    {
      "inputs": [
        {
          "internalType": "address",
          "name": "owner",
          "type": "address"
        },
        {
          "internalType": "address",
          "name": "spender",
          "type": "address"
        }
      ],
      "name": "allowance",
      "outputs": [
        {
          "internalType": "uint256",
          "name": "",
          "type": "uint256"
        }
      ],
      "stateMutability": "view",
      "type": "function"
    },
    {
      "inputs": [
        {
          "internalType": "address",
          "name": "spender",
          "type": "address"
        },
        {
          "internalType": "uint256",
          "name": "amount",
          "type": "uint256"
        }
      ],
      "name": "approve",
      "outputs": [
        {
          "internalType": "bool",
          "name": "",
          "type": "bool"
        }
      ],
      "stateMutability": "nonpayable",
      "type": "function"
    },
    {
      "inputs": [
        {
          "internalType": "address",
          "name": "account",
          "type": "address"
        }
      ],
      "name": "balanceOf",
      "outputs": [
        {
          "internalType": "uint256",
          "name": "",
          "type": "uint256"
        }
      ],
      "stateMutability": "view",
      "type": "function"
    },
    {
      "inputs": [],
      "name": "decimals",
      "outputs": [
        {
          "internalType": "uint8",
          "name": "",
          "type": "uint8"
        }
      ],
      "stateMutability": "view",
      "type": "function"
    },
    {
      "inputs": [
        {
          "internalType": "address",
          "name": "spender",
          "type": "address"
        },
        {
          "internalType": "uint256",
          "name": "subtractedValue",
          "type": "uint256"
        }
      ],
      "name": "decreaseAllowance",
      "outputs": [
        {
          "internalType": "bool",
          "name": "",
          "type": "bool"
        }
      ],
      "stateMutability": "nonpayable",
      "type": "function"
    },
    {
      "inputs": [
        {
          "internalType": "uint256",
          "name": "_amount",
          "type": "uint256"
        }
      ],
      "name": "deposit",
      "outputs": [],
      "stateMutability": "nonpayable",
      "type": "function"
    },
    {
      "inputs": [
        {
          "internalType": "address",
          "name": "spender",
          "type": "address"
        },
        {
          "internalType": "uint256",
          "name": "addedValue",
          "type": "uint256"
        }
      ],
      "name": "increaseAllowance",
      "outputs": [
        {
          "internalType": "bool",
          "name": "",
          "type": "bool"
        }
      ],
      "stateMutability": "nonpayable",
      "type": "function"
    },
    {
      "inputs": [],
      "name": "mainContract",
      "outputs": [
        {
          "internalType": "address",
          "name": "",
          "type": "address"
        }
      ],
      "stateMutability": "view",
      "type": "function"
    },
    {
      "inputs": [],
      "name": "name",
      "outputs": [
        {
          "internalType": "string",
          "name": "",
          "type": "string"
        }
      ],
      "stateMutability": "view",
      "type": "function"
    },
    {
      "inputs": [],
      "name": "symbol",
      "outputs": [
        {
          "internalType": "string",
          "name": "",
          "type": "string"
        }
      ],
      "stateMutability": "view",
      "type": "function"
    },
    {
      "inputs": [],
      "name": "totalSupply",
      "outputs": [
        {
          "internalType": "uint256",
          "name": "",
          "type": "uint256"
        }
      ],
      "stateMutability": "view",
      "type": "function"
    },
    {
      "inputs": [
        {
          "internalType": "address",
          "name": "to",
          "type": "address"
        },
        {
          "internalType": "uint256",
          "name": "amount",
          "type": "uint256"
        }
      ],
      "name": "transfer",
      "outputs": [
        {
          "internalType": "bool",
          "name": "",
          "type": "bool"
        }
      ],
      "stateMutability": "nonpayable",
      "type": "function"
    },
    {
      "inputs": [
        {
          "internalType": "address",
          "name": "from",
          "type": "address"
        },
        {
          "internalType": "address",
          "name": "to",
          "type": "address"
        },
        {
          "internalType": "uint256",
          "name": "amount",
          "type": "uint256"
        }
      ],
      "name": "transferFrom",
      "outputs": [
        {
          "internalType": "bool",
          "name": "",
          "type": "bool"
        }
      ],
      "stateMutability": "nonpayable",
      "type": "function"
    },
    {
      "inputs": [],
      "name": "yeti",
      "outputs": [
        {
          "internalType": "address",
          "name": "",
          "type": "address"
        }
      ],
      "stateMutability": "view",
      "type": "function"
    }
  ],
  "bytecode": "0x60c06040523480156200001157600080fd5b50604051620010b4380380620010b4833981016040819052620000349162000171565b60408051808201825260078082526672676e5945544960c81b6020808401828152855180870190965292855284015281519192916200007691600391620000ae565b5080516200008c906004906020840190620000ae565b5050506001600160601b0319606092831b8116608052911b1660a052620001e5565b828054620000bc90620001a8565b90600052602060002090601f016020900481019282620000e057600085556200012b565b82601f10620000fb57805160ff19168380011785556200012b565b828001600101855582156200012b579182015b828111156200012b5782518255916020019190600101906200010e565b50620001399291506200013d565b5090565b5b808211156200013957600081556001016200013e565b80516001600160a01b03811681146200016c57600080fd5b919050565b6000806040838503121562000184578182fd5b6200018f8362000154565b91506200019f6020840162000154565b90509250929050565b600281046001821680620001bd57607f821691505b60208210811415620001df57634e487b7160e01b600052602260045260246000fd5b50919050565b60805160601c60a05160601c610e8e620002266000396000818161016901526104660152600081816102110152818161048901526104c40152610e8e6000f3fe608060405234801561001057600080fd5b50600436106100ea5760003560e01c806370a082311161008c578063a9059cbb11610066578063a9059cbb146101e4578063b6b55f25146101f7578063d270e7ab1461020c578063dd62ed3e14610233576100ea565b806370a08231146101b657806395d89b41146101c9578063a457c2d7146101d1576100ea565b806323b872dd116100c857806323b872dd14610142578063313ce56714610155578063343e613a1461016457806339509351146101a3576100ea565b806306fdde03146100ef578063095ea7b31461010d57806318160ddd14610130575b600080fd5b6100f761026c565b6040516101049190610d9a565b60405180910390f35b61012061011b366004610d1d565b6102fe565b6040519015158152602001610104565b6002545b604051908152602001610104565b610120610150366004610ce2565b610316565b60405160128152602001610104565b61018b7f000000000000000000000000000000000000000000000000000000000000000081565b6040516001600160a01b039091168152602001610104565b6101206101b1366004610d1d565b61033c565b6101346101c4366004610c96565b61037b565b6100f761039a565b6101206101df366004610d1d565b6103a9565b6101206101f2366004610d1d565b61044b565b61020a610205366004610d66565b610459565b005b61018b7f000000000000000000000000000000000000000000000000000000000000000081565b610134610241366004610cb0565b6001600160a01b03918216600090815260016020908152604080832093909416825291909152205490565b60606003805461027b90610e1d565b80601f01602080910402602001604051908101604052809291908181526020018280546102a790610e1d565b80156102f45780601f106102c9576101008083540402835291602001916102f4565b820191906000526020600020905b8154815290600101906020018083116102d757829003601f168201915b5050505050905090565b60003361030c81858561056a565b5060019392505050565b60003361032485828561068e565b61032f858585610720565b60019150505b9392505050565b3360008181526001602090815260408083206001600160a01b038716845290915281205490919061030c9082908690610376908790610dcd565b61056a565b6001600160a01b0381166000908152602081905260409020545b919050565b60606004805461027b90610e1d565b3360008181526001602090815260408083206001600160a01b0387168452909152812054909190838110156104335760405162461bcd60e51b815260206004820152602560248201527f45524332303a2064656372656173656420616c6c6f77616e63652062656c6f77604482015264207a65726f60d81b60648201526084015b60405180910390fd5b610440828686840361056a565b506001949350505050565b60003361030c818585610720565b6104ae6001600160a01b037f000000000000000000000000000000000000000000000000000000000000000016337f0000000000000000000000000000000000000000000000000000000000000000846108ee565b60405163ea0d8a3960e01b8152600481018290527f00000000000000000000000000000000000000000000000000000000000000006001600160a01b03169063ea0d8a3990602401600060405180830381600087803b15801561051057600080fd5b505af1158015610524573d6000803e3d6000fd5b505050506105323382610948565b60405181815233907f2e401257118768f7005bbd0f068c0cc8fdc70255140ed103df47c412bc62d2329060200160405180910390a250565b6001600160a01b0383166105cc5760405162461bcd60e51b8152602060048201526024808201527f45524332303a20617070726f76652066726f6d20746865207a65726f206164646044820152637265737360e01b606482015260840161042a565b6001600160a01b03821661062d5760405162461bcd60e51b815260206004820152602260248201527f45524332303a20617070726f766520746f20746865207a65726f206164647265604482015261737360f01b606482015260840161042a565b6001600160a01b0383811660008181526001602090815260408083209487168084529482529182902085905590518481527f8c5be1e5ebec7d5bd14f71427d1e84f3dd0314c0f7b2291e5b200ac8c7c3b925910160405180910390a3505050565b6001600160a01b03838116600090815260016020908152604080832093861683529290522054600019811461071a578181101561070d5760405162461bcd60e51b815260206004820152601d60248201527f45524332303a20696e73756666696369656e7420616c6c6f77616e6365000000604482015260640161042a565b61071a848484840361056a565b50505050565b6001600160a01b0383166107845760405162461bcd60e51b815260206004820152602560248201527f45524332303a207472616e736665722066726f6d20746865207a65726f206164604482015264647265737360d81b606482015260840161042a565b6001600160a01b0382166107e65760405162461bcd60e51b815260206004820152602360248201527f45524332303a207472616e7366657220746f20746865207a65726f206164647260448201526265737360e81b606482015260840161042a565b6001600160a01b0383166000908152602081905260409020548181101561085e5760405162461bcd60e51b815260206004820152602660248201527f45524332303a207472616e7366657220616d6f756e7420657863656564732062604482015265616c616e636560d01b606482015260840161042a565b6001600160a01b03808516600090815260208190526040808220858503905591851681529081208054849290610895908490610dcd565b92505081905550826001600160a01b0316846001600160a01b03167fddf252ad1be2c89b69c2b068fc378daa952ba7f163c4a11628f55a4df523b3ef846040516108e191815260200190565b60405180910390a361071a565b604080516001600160a01b0385811660248301528416604482015260648082018490528251808303909101815260849091019091526020810180516001600160e01b03166323b872dd60e01b17905261071a908590610a2c565b6001600160a01b03821661099e5760405162461bcd60e51b815260206004820152601f60248201527f45524332303a206d696e7420746f20746865207a65726f206164647265737300604482015260640161042a565b80600260008282546109b09190610dcd565b90915550506001600160a01b038216600090815260208190526040812080548392906109dd908490610dcd565b90915550506040518181526001600160a01b038316906000907fddf252ad1be2c89b69c2b068fc378daa952ba7f163c4a11628f55a4df523b3ef9060200160405180910390a35050565b505050565b6000610a81826040518060400160405280602081526020017f5361666545524332303a206c6f772d6c6576656c2063616c6c206661696c6564815250856001600160a01b0316610afe9092919063ffffffff16565b805190915015610a275780806020019051810190610a9f9190610d46565b610a275760405162461bcd60e51b815260206004820152602a60248201527f5361666545524332303a204552433230206f7065726174696f6e20646964206e6044820152691bdd081cdd58d8d9595960b21b606482015260840161042a565b6060610b0d8484600085610b15565b949350505050565b606082471015610b765760405162461bcd60e51b815260206004820152602660248201527f416464726573733a20696e73756666696369656e742062616c616e636520666f6044820152651c8818d85b1b60d21b606482015260840161042a565b6001600160a01b0385163b610bcd5760405162461bcd60e51b815260206004820152601d60248201527f416464726573733a2063616c6c20746f206e6f6e2d636f6e7472616374000000604482015260640161042a565b600080866001600160a01b03168587604051610be99190610d7e565b60006040518083038185875af1925050503d8060008114610c26576040519150601f19603f3d011682016040523d82523d6000602084013e610c2b565b606091505b5091509150610c3b828286610c46565b979650505050505050565b60608315610c55575081610335565b825115610c655782518084602001fd5b8160405162461bcd60e51b815260040161042a9190610d9a565b80356001600160a01b038116811461039557600080fd5b600060208284031215610ca7578081fd5b61033582610c7f565b60008060408385031215610cc2578081fd5b610ccb83610c7f565b9150610cd960208401610c7f565b90509250929050565b600080600060608486031215610cf6578081fd5b610cff84610c7f565b9250610d0d60208501610c7f565b9150604084013590509250925092565b60008060408385031215610d2f578182fd5b610d3883610c7f565b946020939093013593505050565b600060208284031215610d57578081fd5b81518015158114610335578182fd5b600060208284031215610d77578081fd5b5035919050565b60008251610d90818460208701610df1565b9190910192915050565b6000602082528251806020840152610db9816040850160208701610df1565b601f01601f19169190910160400192915050565b60008219821115610dec57634e487b7160e01b81526011600452602481fd5b500190565b60005b83811015610e0c578181015183820152602001610df4565b8381111561071a5750506000910152565b600281046001821680610e3157607f821691505b60208210811415610e5257634e487b7160e01b600052602260045260246000fd5b5091905056fea2646970667358221220b7d161bc832b6197f308362679c3d3630d78bcb1c78dd4e68fc6ea58c8d7496164736f6c63430008020033",
  "linkReferences": {},
  "deployedLinkReferences": {}
}