{
  "_format": "hh-sol-artifact-1",
  "contractName": "RGNYETI",
  "sourceName": "contracts/Tokens/RGNYeti.sol",
  "abi": [
    {
      "inputs": [
        {
          "internalType": "address",
          "name": "_mainContract",
          "type": "address"
        },
        {
          "internalType": "address",
          "name": "_yeti",
          "type": "address"
        }
      ],
      "stateMutability": "nonpayable",
      "type": "constructor"
    },
    {
      "anonymous": false,
      "inputs": [
        {
          "indexed": true,
          "internalType": "address",
          "name": "owner",
          "type": "address"
        },
        {
          "indexed": true,
          "internalType": "address",
          "name": "spender",
          "type": "address"
        },
        {
          "indexed": false,
          "internalType": "uint256",
          "name": "value",
          "type": "uint256"
        }
      ],
      "name": "Approval",
      "type": "event"
    },
    {
      "anonymous": false,
      "inputs": [
        {
          "indexed": true,
          "internalType": "address",
          "name": "user",
          "type": "address"
        },
        {
          "indexed": false,
          "internalType": "uint256",
          "name": "amount",
          "type": "uint256"
        }
      ],
      "name": "RgnYetiMinted",
      "type": "event"
    },
    {
      "anonymous": false,
      "inputs": [
        {
          "indexed": true,
          "internalType": "address",
          "name": "from",
          "type": "address"
        },
        {
          "indexed": true,
          "internalType": "address",
          "name": "to",
          "type": "address"
        },
        {
          "indexed": false,
          "internalType": "uint256",
          "name": "value",
          "type": "uint256"
        }
      ],
      "name": "Transfer",
      "type": "event"
    },
    {
      "inputs": [
        {
          "internalType": "address",
          "name": "owner",
          "type": "address"
        },
        {
          "internalType": "address",
          "name": "spender",
          "type": "address"
        }
      ],
      "name": "allowance",
      "outputs": [
        {
          "internalType": "uint256",
          "name": "",
          "type": "uint256"
        }
      ],
      "stateMutability": "view",
      "type": "function"
    },
    {
      "inputs": [
        {
          "internalType": "address",
          "name": "spender",
          "type": "address"
        },
        {
          "internalType": "uint256",
          "name": "amount",
          "type": "uint256"
        }
      ],
      "name": "approve",
      "outputs": [
        {
          "internalType": "bool",
          "name": "",
          "type": "bool"
        }
      ],
      "stateMutability": "nonpayable",
      "type": "function"
    },
    {
      "inputs": [
        {
          "internalType": "address",
          "name": "account",
          "type": "address"
        }
      ],
      "name": "balanceOf",
      "outputs": [
        {
          "internalType": "uint256",
          "name": "",
          "type": "uint256"
        }
      ],
      "stateMutability": "view",
      "type": "function"
    },
    {
      "inputs": [],
      "name": "decimals",
      "outputs": [
        {
          "internalType": "uint8",
          "name": "",
          "type": "uint8"
        }
      ],
      "stateMutability": "view",
      "type": "function"
    },
    {
      "inputs": [
        {
          "internalType": "address",
          "name": "spender",
          "type": "address"
        },
        {
          "internalType": "uint256",
          "name": "subtractedValue",
          "type": "uint256"
        }
      ],
      "name": "decreaseAllowance",
      "outputs": [
        {
          "internalType": "bool",
          "name": "",
          "type": "bool"
        }
      ],
      "stateMutability": "nonpayable",
      "type": "function"
    },
    {
      "inputs": [
        {
          "internalType": "uint256",
          "name": "_amount",
          "type": "uint256"
        }
      ],
      "name": "deposit",
      "outputs": [],
      "stateMutability": "nonpayable",
      "type": "function"
    },
    {
      "inputs": [
        {
          "internalType": "address",
          "name": "spender",
          "type": "address"
        },
        {
          "internalType": "uint256",
          "name": "addedValue",
          "type": "uint256"
        }
      ],
      "name": "increaseAllowance",
      "outputs": [
        {
          "internalType": "bool",
          "name": "",
          "type": "bool"
        }
      ],
      "stateMutability": "nonpayable",
      "type": "function"
    },
    {
      "inputs": [],
      "name": "mainContract",
      "outputs": [
        {
          "internalType": "address",
          "name": "",
          "type": "address"
        }
      ],
      "stateMutability": "view",
      "type": "function"
    },
    {
      "inputs": [],
      "name": "name",
      "outputs": [
        {
          "internalType": "string",
          "name": "",
          "type": "string"
        }
      ],
      "stateMutability": "view",
      "type": "function"
    },
    {
      "inputs": [],
      "name": "symbol",
      "outputs": [
        {
          "internalType": "string",
          "name": "",
          "type": "string"
        }
      ],
      "stateMutability": "view",
      "type": "function"
    },
    {
      "inputs": [],
      "name": "totalSupply",
      "outputs": [
        {
          "internalType": "uint256",
          "name": "",
          "type": "uint256"
        }
      ],
      "stateMutability": "view",
      "type": "function"
    },
    {
      "inputs": [
        {
          "internalType": "address",
          "name": "to",
          "type": "address"
        },
        {
          "internalType": "uint256",
          "name": "amount",
          "type": "uint256"
        }
      ],
      "name": "transfer",
      "outputs": [
        {
          "internalType": "bool",
          "name": "",
          "type": "bool"
        }
      ],
      "stateMutability": "nonpayable",
      "type": "function"
    },
    {
      "inputs": [
        {
          "internalType": "address",
          "name": "from",
          "type": "address"
        },
        {
          "internalType": "address",
          "name": "to",
          "type": "address"
        },
        {
          "internalType": "uint256",
          "name": "amount",
          "type": "uint256"
        }
      ],
      "name": "transferFrom",
      "outputs": [
        {
          "internalType": "bool",
          "name": "",
          "type": "bool"
        }
      ],
      "stateMutability": "nonpayable",
      "type": "function"
    },
    {
      "inputs": [],
      "name": "yeti",
      "outputs": [
        {
          "internalType": "address",
          "name": "",
          "type": "address"
        }
      ],
      "stateMutability": "view",
      "type": "function"
    }
  ],
  "bytecode": "0x60c06040523480156200001157600080fd5b506040516200108138038062001081833981016040819052620000349162000171565b60408051808201825260078082526672676e5945544960c81b6020808401828152855180870190965292855284015281519192916200007691600391620000ae565b5080516200008c906004906020840190620000ae565b5050506001600160601b0319606092831b8116608052911b1660a052620001e5565b828054620000bc90620001a8565b90600052602060002090601f016020900481019282620000e057600085556200012b565b82601f10620000fb57805160ff19168380011785556200012b565b828001600101855582156200012b579182015b828111156200012b5782518255916020019190600101906200010e565b50620001399291506200013d565b5090565b5b808211156200013957600081556001016200013e565b80516001600160a01b03811681146200016c57600080fd5b919050565b6000806040838503121562000184578182fd5b6200018f8362000154565b91506200019f6020840162000154565b90509250929050565b600281046001821680620001bd57607f821691505b60208210811415620001df57634e487b7160e01b600052602260045260246000fd5b50919050565b60805160601c60a05160601c610e5b620002266000396000818161014901526104200152600081816101f101528181610443015261047e0152610e5b6000f3fe608060405234801561001057600080fd5b50600436106100ca5760003560e01c806370a082311161007c57806370a082311461019657806395d89b41146101a9578063a457c2d7146101b1578063a9059cbb146101c4578063b6b55f25146101d7578063d270e7ab146101ec578063dd62ed3e14610213576100ca565b806306fdde03146100cf578063095ea7b3146100ed57806318160ddd1461011057806323b872dd14610122578063313ce56714610135578063343e613a146101445780633950935114610183575b600080fd5b6100d7610226565b6040516100e49190610d67565b60405180910390f35b6101006100fb366004610cea565b6102b8565b60405190151581526020016100e4565b6002545b6040519081526020016100e4565b610100610130366004610caf565b6102d0565b604051601281526020016100e4565b61016b7f000000000000000000000000000000000000000000000000000000000000000081565b6040516001600160a01b0390911681526020016100e4565b610100610191366004610cea565b6102f6565b6101146101a4366004610c63565b610335565b6100d7610354565b6101006101bf366004610cea565b610363565b6101006101d2366004610cea565b610405565b6101ea6101e5366004610d33565b610413565b005b61016b7f000000000000000000000000000000000000000000000000000000000000000081565b610114610221366004610c7d565b610524565b60606003805461023590610dea565b80601f016020809104026020016040519081016040528092919081815260200182805461026190610dea565b80156102ae5780601f10610283576101008083540402835291602001916102ae565b820191906000526020600020905b81548152906001019060200180831161029157829003601f168201915b5050505050905090565b6000336102c681858561054f565b5060019392505050565b6000336102de858285610673565b6102e98585856106ed565b60019150505b9392505050565b3360008181526001602090815260408083206001600160a01b03871684529091528120549091906102c69082908690610330908790610d9a565b61054f565b6001600160a01b0381166000908152602081905260409020545b919050565b60606004805461023590610dea565b3360008181526001602090815260408083206001600160a01b0387168452909152812054909190838110156103ed5760405162461bcd60e51b815260206004820152602560248201527f45524332303a2064656372656173656420616c6c6f77616e63652062656c6f77604482015264207a65726f60d81b60648201526084015b60405180910390fd5b6103fa828686840361054f565b506001949350505050565b6000336102c68185856106ed565b6104686001600160a01b037f000000000000000000000000000000000000000000000000000000000000000016337f0000000000000000000000000000000000000000000000000000000000000000846108bb565b60405163ea0d8a3960e01b8152600481018290527f00000000000000000000000000000000000000000000000000000000000000006001600160a01b03169063ea0d8a3990602401600060405180830381600087803b1580156104ca57600080fd5b505af11580156104de573d6000803e3d6000fd5b505050506104ec3382610915565b60405181815233907f2e401257118768f7005bbd0f068c0cc8fdc70255140ed103df47c412bc62d2329060200160405180910390a250565b6001600160a01b03918216600090815260016020908152604080832093909416825291909152205490565b6001600160a01b0383166105b15760405162461bcd60e51b8152602060048201526024808201527f45524332303a20617070726f76652066726f6d20746865207a65726f206164646044820152637265737360e01b60648201526084016103e4565b6001600160a01b0382166106125760405162461bcd60e51b815260206004820152602260248201527f45524332303a20617070726f766520746f20746865207a65726f206164647265604482015261737360f01b60648201526084016103e4565b6001600160a01b0383811660008181526001602090815260408083209487168084529482529182902085905590518481527f8c5be1e5ebec7d5bd14f71427d1e84f3dd0314c0f7b2291e5b200ac8c7c3b925910160405180910390a3505050565b600061067f8484610524565b905060001981146106e757818110156106da5760405162461bcd60e51b815260206004820152601d60248201527f45524332303a20696e73756666696369656e7420616c6c6f77616e636500000060448201526064016103e4565b6106e7848484840361054f565b50505050565b6001600160a01b0383166107515760405162461bcd60e51b815260206004820152602560248201527f45524332303a207472616e736665722066726f6d20746865207a65726f206164604482015264647265737360d81b60648201526084016103e4565b6001600160a01b0382166107b35760405162461bcd60e51b815260206004820152602360248201527f45524332303a207472616e7366657220746f20746865207a65726f206164647260448201526265737360e81b60648201526084016103e4565b6001600160a01b0383166000908152602081905260409020548181101561082b5760405162461bcd60e51b815260206004820152602660248201527f45524332303a207472616e7366657220616d6f756e7420657863656564732062604482015265616c616e636560d01b60648201526084016103e4565b6001600160a01b03808516600090815260208190526040808220858503905591851681529081208054849290610862908490610d9a565b92505081905550826001600160a01b0316846001600160a01b03167fddf252ad1be2c89b69c2b068fc378daa952ba7f163c4a11628f55a4df523b3ef846040516108ae91815260200190565b60405180910390a36106e7565b604080516001600160a01b0385811660248301528416604482015260648082018490528251808303909101815260849091019091526020810180516001600160e01b03166323b872dd60e01b1790526106e79085906109f9565b6001600160a01b03821661096b5760405162461bcd60e51b815260206004820152601f60248201527f45524332303a206d696e7420746f20746865207a65726f20616464726573730060448201526064016103e4565b806002600082825461097d9190610d9a565b90915550506001600160a01b038216600090815260208190526040812080548392906109aa908490610d9a565b90915550506040518181526001600160a01b038316906000907fddf252ad1be2c89b69c2b068fc378daa952ba7f163c4a11628f55a4df523b3ef9060200160405180910390a35050565b505050565b6000610a4e826040518060400160405280602081526020017f5361666545524332303a206c6f772d6c6576656c2063616c6c206661696c6564815250856001600160a01b0316610acb9092919063ffffffff16565b8051909150156109f45780806020019051810190610a6c9190610d13565b6109f45760405162461bcd60e51b815260206004820152602a60248201527f5361666545524332303a204552433230206f7065726174696f6e20646964206e6044820152691bdd081cdd58d8d9595960b21b60648201526084016103e4565b6060610ada8484600085610ae2565b949350505050565b606082471015610b435760405162461bcd60e51b815260206004820152602660248201527f416464726573733a20696e73756666696369656e742062616c616e636520666f6044820152651c8818d85b1b60d21b60648201526084016103e4565b6001600160a01b0385163b610b9a5760405162461bcd60e51b815260206004820152601d60248201527f416464726573733a2063616c6c20746f206e6f6e2d636f6e747261637400000060448201526064016103e4565b600080866001600160a01b03168587604051610bb69190610d4b565b60006040518083038185875af1925050503d8060008114610bf3576040519150601f19603f3d011682016040523d82523d6000602084013e610bf8565b606091505b5091509150610c08828286610c13565b979650505050505050565b60608315610c225750816102ef565b825115610c325782518084602001fd5b8160405162461bcd60e51b81526004016103e49190610d67565b80356001600160a01b038116811461034f57600080fd5b600060208284031215610c74578081fd5b6102ef82610c4c565b60008060408385031215610c8f578081fd5b610c9883610c4c565b9150610ca660208401610c4c565b90509250929050565b600080600060608486031215610cc3578081fd5b610ccc84610c4c565b9250610cda60208501610c4c565b9150604084013590509250925092565b60008060408385031215610cfc578182fd5b610d0583610c4c565b946020939093013593505050565b600060208284031215610d24578081fd5b815180151581146102ef578182fd5b600060208284031215610d44578081fd5b5035919050565b60008251610d5d818460208701610dbe565b9190910192915050565b6000602082528251806020840152610d86816040850160208701610dbe565b601f01601f19169190910160400192915050565b60008219821115610db957634e487b7160e01b81526011600452602481fd5b500190565b60005b83811015610dd9578181015183820152602001610dc1565b838111156106e75750506000910152565b600281046001821680610dfe57607f821691505b60208210811415610e1f57634e487b7160e01b600052602260045260246000fd5b5091905056fea2646970667358221220b941dd8ced358d347245fcb52c35d8841ee30ddc35c96b819deb97455e9f4e4a64736f6c63430008020033",
  "linkReferences": {},
  "deployedLinkReferences": {}
}