{
  "_format": "hh-sol-artifact-1",
  "contractName": "BRGN",
  "sourceName": "contracts/NFT/BRGN.sol",
  "abi": [
    {
      "inputs": [],
      "stateMutability": "nonpayable",
      "type": "constructor"
    },
    {
      "anonymous": false,
      "inputs": [
        {
          "indexed": true,
          "internalType": "address",
          "name": "owner",
          "type": "address"
        },
        {
          "indexed": true,
          "internalType": "address",
          "name": "spender",
          "type": "address"
        },
        {
          "indexed": false,
          "internalType": "uint256",
          "name": "value",
          "type": "uint256"
        }
      ],
      "name": "Approval",
      "type": "event"
    },
    {
      "anonymous": false,
      "inputs": [
        {
          "indexed": true,
          "internalType": "address",
          "name": "from",
          "type": "address"
        },
        {
          "indexed": true,
          "internalType": "address",
          "name": "to",
          "type": "address"
        },
        {
          "indexed": false,
          "internalType": "uint256",
          "name": "value",
          "type": "uint256"
        }
      ],
      "name": "Transfer",
      "type": "event"
    },
    {
      "inputs": [
        {
          "internalType": "address",
          "name": "owner",
          "type": "address"
        },
        {
          "internalType": "address",
          "name": "spender",
          "type": "address"
        }
      ],
      "name": "allowance",
      "outputs": [
        {
          "internalType": "uint256",
          "name": "",
          "type": "uint256"
        }
      ],
      "stateMutability": "view",
      "type": "function"
    },
    {
      "inputs": [
        {
          "internalType": "address",
          "name": "spender",
          "type": "address"
        },
        {
          "internalType": "uint256",
          "name": "amount",
          "type": "uint256"
        }
      ],
      "name": "approve",
      "outputs": [
        {
          "internalType": "bool",
          "name": "",
          "type": "bool"
        }
      ],
      "stateMutability": "nonpayable",
      "type": "function"
    },
    {
      "inputs": [
        {
          "internalType": "address",
          "name": "owner",
          "type": "address"
        },
        {
          "internalType": "address",
          "name": "spender",
          "type": "address"
        },
        {
          "internalType": "uint256",
          "name": "amount",
          "type": "uint256"
        }
      ],
      "name": "approve",
      "outputs": [],
      "stateMutability": "nonpayable",
      "type": "function"
    },
    {
      "inputs": [
        {
          "internalType": "address",
          "name": "account",
          "type": "address"
        }
      ],
      "name": "balanceOf",
      "outputs": [
        {
          "internalType": "uint256",
          "name": "",
          "type": "uint256"
        }
      ],
      "stateMutability": "view",
      "type": "function"
    },
    {
      "inputs": [
        {
          "internalType": "address",
          "name": "from",
          "type": "address"
        },
        {
          "internalType": "uint256",
          "name": "amount",
          "type": "uint256"
        }
      ],
      "name": "burn",
      "outputs": [],
      "stateMutability": "nonpayable",
      "type": "function"
    },
    {
      "inputs": [],
      "name": "decimals",
      "outputs": [
        {
          "internalType": "uint8",
          "name": "",
          "type": "uint8"
        }
      ],
      "stateMutability": "view",
      "type": "function"
    },
    {
      "inputs": [
        {
          "internalType": "address",
          "name": "spender",
          "type": "address"
        },
        {
          "internalType": "uint256",
          "name": "subtractedValue",
          "type": "uint256"
        }
      ],
      "name": "decreaseAllowance",
      "outputs": [
        {
          "internalType": "bool",
          "name": "",
          "type": "bool"
        }
      ],
      "stateMutability": "nonpayable",
      "type": "function"
    },
    {
      "inputs": [
        {
          "internalType": "address",
          "name": "spender",
          "type": "address"
        },
        {
          "internalType": "uint256",
          "name": "addedValue",
          "type": "uint256"
        }
      ],
      "name": "increaseAllowance",
      "outputs": [
        {
          "internalType": "bool",
          "name": "",
          "type": "bool"
        }
      ],
      "stateMutability": "nonpayable",
      "type": "function"
    },
    {
      "inputs": [
        {
          "internalType": "address",
          "name": "to",
          "type": "address"
        },
        {
          "internalType": "uint256",
          "name": "amount",
          "type": "uint256"
        }
      ],
      "name": "mint",
      "outputs": [],
      "stateMutability": "nonpayable",
      "type": "function"
    },
    {
      "inputs": [],
      "name": "name",
      "outputs": [
        {
          "internalType": "string",
          "name": "",
          "type": "string"
        }
      ],
      "stateMutability": "view",
      "type": "function"
    },
    {
      "inputs": [],
      "name": "symbol",
      "outputs": [
        {
          "internalType": "string",
          "name": "",
          "type": "string"
        }
      ],
      "stateMutability": "view",
      "type": "function"
    },
    {
      "inputs": [],
      "name": "totalSupply",
      "outputs": [
        {
          "internalType": "uint256",
          "name": "",
          "type": "uint256"
        }
      ],
      "stateMutability": "view",
      "type": "function"
    },
    {
      "inputs": [
        {
          "internalType": "address",
          "name": "to",
          "type": "address"
        },
        {
          "internalType": "uint256",
          "name": "amount",
          "type": "uint256"
        }
      ],
      "name": "transfer",
      "outputs": [
        {
          "internalType": "bool",
          "name": "",
          "type": "bool"
        }
      ],
      "stateMutability": "nonpayable",
      "type": "function"
    },
    {
      "inputs": [
        {
          "internalType": "address",
          "name": "from",
          "type": "address"
        },
        {
          "internalType": "address",
          "name": "to",
          "type": "address"
        },
        {
          "internalType": "uint256",
          "name": "amount",
          "type": "uint256"
        }
      ],
      "name": "transferFrom",
      "outputs": [
        {
          "internalType": "bool",
          "name": "",
          "type": "bool"
        }
      ],
      "stateMutability": "nonpayable",
      "type": "function"
    }
  ],
  "bytecode": "0x608060405234801561001057600080fd5b50604080518082018252600480825263212923a760e11b60208084018281528551808701909652928552840152815191929161004e9160039161006a565b50805161006290600490602084019061006a565b50505061013e565b82805461007690610103565b90600052602060002090601f01602090048101928261009857600085556100de565b82601f106100b157805160ff19168380011785556100de565b828001600101855582156100de579182015b828111156100de5782518255916020019190600101906100c3565b506100ea9291506100ee565b5090565b5b808211156100ea57600081556001016100ef565b60028104600182168061011757607f821691505b6020821081141561013857634e487b7160e01b600052602260045260246000fd5b50919050565b610b748061014d6000396000f3fe608060405234801561001057600080fd5b50600436106100ca5760003560e01c806370a082311161007c57806370a082311461016c57806395d89b411461017f5780639dc29fac14610187578063a457c2d71461019a578063a9059cbb146101ad578063dd62ed3e146101c0578063e1f21c67146101d3576100ca565b806306fdde03146100cf578063095ea7b3146100ed57806318160ddd1461011057806323b872dd14610122578063313ce56714610135578063395093511461014457806340c10f1914610157575b600080fd5b6100d76101e6565b6040516100e49190610a4b565b60405180910390f35b6101006100fb366004610a22565b610278565b60405190151581526020016100e4565b6002545b6040519081526020016100e4565b6101006101303660046109e7565b610290565b604051601281526020016100e4565b610100610152366004610a22565b6102b4565b61016a610165366004610a22565b6102f3565b005b61011461017a366004610994565b610301565b6100d7610320565b61016a610195366004610a22565b61032f565b6101006101a8366004610a22565b610339565b6101006101bb366004610a22565b6103d0565b6101146101ce3660046109b5565b6103de565b61016a6101e13660046109e7565b610409565b6060600380546101f590610acd565b80601f016020809104026020016040519081016040528092919081815260200182805461022190610acd565b801561026e5780601f106102435761010080835404028352916020019161026e565b820191906000526020600020905b81548152906001019060200180831161025157829003601f168201915b5050505050905090565b600033610286818585610419565b5060019392505050565b60003361029e85828561053d565b6102a98585856105b7565b506001949350505050565b3360008181526001602090815260408083206001600160a01b038716845290915281205490919061028690829086906102ee908790610a9e565b610419565b6102fd8282610773565b5050565b6001600160a01b0381166000908152602081905260409020545b919050565b6060600480546101f590610acd565b6102fd8282610841565b3360008181526001602090815260408083206001600160a01b0387168452909152812054909190838110156103c35760405162461bcd60e51b815260206004820152602560248201527f45524332303a2064656372656173656420616c6c6f77616e63652062656c6f77604482015264207a65726f60d81b60648201526084015b60405180910390fd5b6102a98286868403610419565b6000336102868185856105b7565b6001600160a01b03918216600090815260016020908152604080832093909416825291909152205490565b610414838383610419565b505050565b6001600160a01b03831661047b5760405162461bcd60e51b8152602060048201526024808201527f45524332303a20617070726f76652066726f6d20746865207a65726f206164646044820152637265737360e01b60648201526084016103ba565b6001600160a01b0382166104dc5760405162461bcd60e51b815260206004820152602260248201527f45524332303a20617070726f766520746f20746865207a65726f206164647265604482015261737360f01b60648201526084016103ba565b6001600160a01b0383811660008181526001602090815260408083209487168084529482529182902085905590518481527f8c5be1e5ebec7d5bd14f71427d1e84f3dd0314c0f7b2291e5b200ac8c7c3b925910160405180910390a3505050565b600061054984846103de565b905060001981146105b157818110156105a45760405162461bcd60e51b815260206004820152601d60248201527f45524332303a20696e73756666696369656e7420616c6c6f77616e636500000060448201526064016103ba565b6105b18484848403610419565b50505050565b6001600160a01b03831661061b5760405162461bcd60e51b815260206004820152602560248201527f45524332303a207472616e736665722066726f6d20746865207a65726f206164604482015264647265737360d81b60648201526084016103ba565b6001600160a01b03821661067d5760405162461bcd60e51b815260206004820152602360248201527f45524332303a207472616e7366657220746f20746865207a65726f206164647260448201526265737360e81b60648201526084016103ba565b6001600160a01b038316600090815260208190526040902054818110156106f55760405162461bcd60e51b815260206004820152602660248201527f45524332303a207472616e7366657220616d6f756e7420657863656564732062604482015265616c616e636560d01b60648201526084016103ba565b6001600160a01b0380851660009081526020819052604080822085850390559185168152908120805484929061072c908490610a9e565b92505081905550826001600160a01b0316846001600160a01b0316600080516020610b1f8339815191528460405161076691815260200190565b60405180910390a36105b1565b6001600160a01b0382166107c95760405162461bcd60e51b815260206004820152601f60248201527f45524332303a206d696e7420746f20746865207a65726f20616464726573730060448201526064016103ba565b80600260008282546107db9190610a9e565b90915550506001600160a01b03821660009081526020819052604081208054839290610808908490610a9e565b90915550506040518181526001600160a01b03831690600090600080516020610b1f8339815191529060200160405180910390a36102fd565b6001600160a01b0382166108a15760405162461bcd60e51b815260206004820152602160248201527f45524332303a206275726e2066726f6d20746865207a65726f206164647265736044820152607360f81b60648201526084016103ba565b6001600160a01b038216600090815260208190526040902054818110156109155760405162461bcd60e51b815260206004820152602260248201527f45524332303a206275726e20616d6f756e7420657863656564732062616c616e604482015261636560f01b60648201526084016103ba565b6001600160a01b0383166000908152602081905260408120838303905560028054849290610944908490610ab6565b90915550506040518281526000906001600160a01b03851690600080516020610b1f8339815191529060200160405180910390a3610414565b80356001600160a01b038116811461031b57600080fd5b6000602082840312156109a5578081fd5b6109ae8261097d565b9392505050565b600080604083850312156109c7578081fd5b6109d08361097d565b91506109de6020840161097d565b90509250929050565b6000806000606084860312156109fb578081fd5b610a048461097d565b9250610a126020850161097d565b9150604084013590509250925092565b60008060408385031215610a34578182fd5b610a3d8361097d565b946020939093013593505050565b6000602080835283518082850152825b81811015610a7757858101830151858201604001528201610a5b565b81811115610a885783604083870101525b50601f01601f1916929092016040019392505050565b60008219821115610ab157610ab1610b08565b500190565b600082821015610ac857610ac8610b08565b500390565b600281046001821680610ae157607f821691505b60208210811415610b0257634e487b7160e01b600052602260045260246000fd5b50919050565b634e487b7160e01b600052601160045260246000fdfeddf252ad1be2c89b69c2b068fc378daa952ba7f163c4a11628f55a4df523b3efa2646970667358221220df8a3207caccb0bf3011bb67a00de998cd15afe19110fcce721a8c32a0f9646964736f6c63430008020033",
  "linkReferences": {},
  "deployedLinkReferences": {}
}