{
  "_format": "hh-sol-artifact-1",
  "contractName": "BRGN",
  "sourceName": "contracts/NFT/BRGN.sol",
  "abi": [
    {
      "inputs": [],
      "stateMutability": "nonpayable",
      "type": "constructor"
    },
    {
      "anonymous": false,
      "inputs": [
        {
          "indexed": true,
          "internalType": "address",
          "name": "owner",
          "type": "address"
        },
        {
          "indexed": true,
          "internalType": "address",
          "name": "spender",
          "type": "address"
        },
        {
          "indexed": false,
          "internalType": "uint256",
          "name": "value",
          "type": "uint256"
        }
      ],
      "name": "Approval",
      "type": "event"
    },
    {
      "anonymous": false,
      "inputs": [
        {
          "indexed": true,
          "internalType": "address",
          "name": "previousOwner",
          "type": "address"
        },
        {
          "indexed": true,
          "internalType": "address",
          "name": "newOwner",
          "type": "address"
        }
      ],
      "name": "OwnershipTransferred",
      "type": "event"
    },
    {
      "anonymous": false,
      "inputs": [
        {
          "indexed": true,
          "internalType": "address",
          "name": "from",
          "type": "address"
        },
        {
          "indexed": true,
          "internalType": "address",
          "name": "to",
          "type": "address"
        },
        {
          "indexed": false,
          "internalType": "uint256",
          "name": "value",
          "type": "uint256"
        }
      ],
      "name": "Transfer",
      "type": "event"
    },
    {
      "inputs": [
        {
          "internalType": "address",
          "name": "owner",
          "type": "address"
        },
        {
          "internalType": "address",
          "name": "spender",
          "type": "address"
        }
      ],
      "name": "allowance",
      "outputs": [
        {
          "internalType": "uint256",
          "name": "",
          "type": "uint256"
        }
      ],
      "stateMutability": "view",
      "type": "function"
    },
    {
      "inputs": [
        {
          "internalType": "address",
          "name": "spender",
          "type": "address"
        },
        {
          "internalType": "uint256",
          "name": "amount",
          "type": "uint256"
        }
      ],
      "name": "approve",
      "outputs": [
        {
          "internalType": "bool",
          "name": "",
          "type": "bool"
        }
      ],
      "stateMutability": "nonpayable",
      "type": "function"
    },
    {
      "inputs": [
        {
          "internalType": "address",
          "name": "owner",
          "type": "address"
        },
        {
          "internalType": "address",
          "name": "spender",
          "type": "address"
        },
        {
          "internalType": "uint256",
          "name": "amount",
          "type": "uint256"
        }
      ],
      "name": "approve",
      "outputs": [],
      "stateMutability": "nonpayable",
      "type": "function"
    },
    {
      "inputs": [
        {
          "internalType": "address",
          "name": "account",
          "type": "address"
        }
      ],
      "name": "balanceOf",
      "outputs": [
        {
          "internalType": "uint256",
          "name": "",
          "type": "uint256"
        }
      ],
      "stateMutability": "view",
      "type": "function"
    },
    {
      "inputs": [
        {
          "internalType": "address",
          "name": "from",
          "type": "address"
        },
        {
          "internalType": "uint256",
          "name": "amount",
          "type": "uint256"
        }
      ],
      "name": "burn",
      "outputs": [],
      "stateMutability": "nonpayable",
      "type": "function"
    },
    {
      "inputs": [],
      "name": "decimals",
      "outputs": [
        {
          "internalType": "uint8",
          "name": "",
          "type": "uint8"
        }
      ],
      "stateMutability": "view",
      "type": "function"
    },
    {
      "inputs": [
        {
          "internalType": "address",
          "name": "spender",
          "type": "address"
        },
        {
          "internalType": "uint256",
          "name": "subtractedValue",
          "type": "uint256"
        }
      ],
      "name": "decreaseAllowance",
      "outputs": [
        {
          "internalType": "bool",
          "name": "",
          "type": "bool"
        }
      ],
      "stateMutability": "nonpayable",
      "type": "function"
    },
    {
      "inputs": [
        {
          "internalType": "address",
          "name": "spender",
          "type": "address"
        },
        {
          "internalType": "uint256",
          "name": "addedValue",
          "type": "uint256"
        }
      ],
      "name": "increaseAllowance",
      "outputs": [
        {
          "internalType": "bool",
          "name": "",
          "type": "bool"
        }
      ],
      "stateMutability": "nonpayable",
      "type": "function"
    },
    {
      "inputs": [
        {
          "internalType": "address",
          "name": "to",
          "type": "address"
        },
        {
          "internalType": "uint256",
          "name": "amount",
          "type": "uint256"
        }
      ],
      "name": "mint",
      "outputs": [],
      "stateMutability": "nonpayable",
      "type": "function"
    },
    {
      "inputs": [],
      "name": "name",
      "outputs": [
        {
          "internalType": "string",
          "name": "",
          "type": "string"
        }
      ],
      "stateMutability": "view",
      "type": "function"
    },
    {
      "inputs": [],
      "name": "owner",
      "outputs": [
        {
          "internalType": "address",
          "name": "",
          "type": "address"
        }
      ],
      "stateMutability": "view",
      "type": "function"
    },
    {
      "inputs": [],
      "name": "renounceOwnership",
      "outputs": [],
      "stateMutability": "nonpayable",
      "type": "function"
    },
    {
      "inputs": [],
      "name": "symbol",
      "outputs": [
        {
          "internalType": "string",
          "name": "",
          "type": "string"
        }
      ],
      "stateMutability": "view",
      "type": "function"
    },
    {
      "inputs": [],
      "name": "totalSupply",
      "outputs": [
        {
          "internalType": "uint256",
          "name": "",
          "type": "uint256"
        }
      ],
      "stateMutability": "view",
      "type": "function"
    },
    {
      "inputs": [
        {
          "internalType": "address",
          "name": "to",
          "type": "address"
        },
        {
          "internalType": "uint256",
          "name": "amount",
          "type": "uint256"
        }
      ],
      "name": "transfer",
      "outputs": [
        {
          "internalType": "bool",
          "name": "",
          "type": "bool"
        }
      ],
      "stateMutability": "nonpayable",
      "type": "function"
    },
    {
      "inputs": [
        {
          "internalType": "address",
          "name": "from",
          "type": "address"
        },
        {
          "internalType": "address",
          "name": "to",
          "type": "address"
        },
        {
          "internalType": "uint256",
          "name": "amount",
          "type": "uint256"
        }
      ],
      "name": "transferFrom",
      "outputs": [
        {
          "internalType": "bool",
          "name": "",
          "type": "bool"
        }
      ],
      "stateMutability": "nonpayable",
      "type": "function"
    },
    {
      "inputs": [
        {
          "internalType": "address",
          "name": "newOwner",
          "type": "address"
        }
      ],
      "name": "transferOwnership",
      "outputs": [],
      "stateMutability": "nonpayable",
      "type": "function"
    }
  ],
  "bytecode": "0x60806040523480156200001157600080fd5b50604080518082018252600480825263212923a760e11b6020808401828152855180870190965292855284015281519192916200005191600391620000e0565b50805162000067906004906020840190620000e0565b505050620000846200007e6200008a60201b60201c565b6200008e565b620001c3565b3390565b600580546001600160a01b038381166001600160a01b0319831681179093556040519116919082907f8be0079c531659141344cd1fd0a4f28419497f9722a3daafe3b4186f6b6457e090600090a35050565b828054620000ee9062000186565b90600052602060002090601f0160209004810192826200011257600085556200015d565b82601f106200012d57805160ff19168380011785556200015d565b828001600101855582156200015d579182015b828111156200015d57825182559160200191906001019062000140565b506200016b9291506200016f565b5090565b5b808211156200016b576000815560010162000170565b6002810460018216806200019b57607f821691505b60208210811415620001bd57634e487b7160e01b600052602260045260246000fd5b50919050565b610d2780620001d36000396000f3fe608060405234801561001057600080fd5b50600436106100eb5760003560e01c8063715018a611610092578063715018a6146101a05780638da5cb5b146101a857806395d89b41146101c35780639dc29fac146101cb578063a457c2d7146101de578063a9059cbb146101f1578063dd62ed3e14610204578063e1f21c6714610217578063f2fde38b1461022a576100eb565b806306fdde03146100f0578063095ea7b31461010e57806318160ddd1461013157806323b872dd14610143578063313ce56714610156578063395093511461016557806340c10f191461017857806370a082311461018d575b600080fd5b6100f861023d565b6040516101059190610bc9565b60405180910390f35b61012161011c366004610ba0565b6102cf565b6040519015158152602001610105565b6002545b604051908152602001610105565b610121610151366004610b65565b6102e7565b60405160128152602001610105565b610121610173366004610ba0565b61030b565b61018b610186366004610ba0565b61034a565b005b61013561019b366004610b12565b610358565b61018b610377565b6005546040516001600160a01b039091168152602001610105565b6100f86103b6565b61018b6101d9366004610ba0565b6103c5565b6101216101ec366004610ba0565b6103cf565b6101216101ff366004610ba0565b610461565b610135610212366004610b33565b61046f565b61018b610225366004610b65565b61049a565b61018b610238366004610b12565b6104aa565b60606003805461024c90610c80565b80601f016020809104026020016040519081016040528092919081815260200182805461027890610c80565b80156102c55780601f1061029a576101008083540402835291602001916102c5565b820191906000526020600020905b8154815290600101906020018083116102a857829003601f168201915b5050505050905090565b6000336102dd818585610545565b5060019392505050565b6000336102f5858285610669565b6103008585856106e3565b506001949350505050565b3360008181526001602090815260408083206001600160a01b03871684529091528120549091906102dd9082908690610345908790610c51565b610545565b610354828261089f565b5050565b6001600160a01b0381166000908152602081905260409020545b919050565b6005546001600160a01b031633146103aa5760405162461bcd60e51b81526004016103a190610c1c565b60405180910390fd5b6103b4600061096d565b565b60606004805461024c90610c80565b61035482826109bf565b3360008181526001602090815260408083206001600160a01b0387168452909152812054909190838110156104545760405162461bcd60e51b815260206004820152602560248201527f45524332303a2064656372656173656420616c6c6f77616e63652062656c6f77604482015264207a65726f60d81b60648201526084016103a1565b6103008286868403610545565b6000336102dd8185856106e3565b6001600160a01b03918216600090815260016020908152604080832093909416825291909152205490565b6104a5838383610545565b505050565b6005546001600160a01b031633146104d45760405162461bcd60e51b81526004016103a190610c1c565b6001600160a01b0381166105395760405162461bcd60e51b815260206004820152602660248201527f4f776e61626c653a206e6577206f776e657220697320746865207a65726f206160448201526564647265737360d01b60648201526084016103a1565b6105428161096d565b50565b6001600160a01b0383166105a75760405162461bcd60e51b8152602060048201526024808201527f45524332303a20617070726f76652066726f6d20746865207a65726f206164646044820152637265737360e01b60648201526084016103a1565b6001600160a01b0382166106085760405162461bcd60e51b815260206004820152602260248201527f45524332303a20617070726f766520746f20746865207a65726f206164647265604482015261737360f01b60648201526084016103a1565b6001600160a01b0383811660008181526001602090815260408083209487168084529482529182902085905590518481527f8c5be1e5ebec7d5bd14f71427d1e84f3dd0314c0f7b2291e5b200ac8c7c3b925910160405180910390a3505050565b6000610675848461046f565b905060001981146106dd57818110156106d05760405162461bcd60e51b815260206004820152601d60248201527f45524332303a20696e73756666696369656e7420616c6c6f77616e636500000060448201526064016103a1565b6106dd8484848403610545565b50505050565b6001600160a01b0383166107475760405162461bcd60e51b815260206004820152602560248201527f45524332303a207472616e736665722066726f6d20746865207a65726f206164604482015264647265737360d81b60648201526084016103a1565b6001600160a01b0382166107a95760405162461bcd60e51b815260206004820152602360248201527f45524332303a207472616e7366657220746f20746865207a65726f206164647260448201526265737360e81b60648201526084016103a1565b6001600160a01b038316600090815260208190526040902054818110156108215760405162461bcd60e51b815260206004820152602660248201527f45524332303a207472616e7366657220616d6f756e7420657863656564732062604482015265616c616e636560d01b60648201526084016103a1565b6001600160a01b03808516600090815260208190526040808220858503905591851681529081208054849290610858908490610c51565b92505081905550826001600160a01b0316846001600160a01b0316600080516020610cd28339815191528460405161089291815260200190565b60405180910390a36106dd565b6001600160a01b0382166108f55760405162461bcd60e51b815260206004820152601f60248201527f45524332303a206d696e7420746f20746865207a65726f20616464726573730060448201526064016103a1565b80600260008282546109079190610c51565b90915550506001600160a01b03821660009081526020819052604081208054839290610934908490610c51565b90915550506040518181526001600160a01b03831690600090600080516020610cd28339815191529060200160405180910390a3610354565b600580546001600160a01b038381166001600160a01b0319831681179093556040519116919082907f8be0079c531659141344cd1fd0a4f28419497f9722a3daafe3b4186f6b6457e090600090a35050565b6001600160a01b038216610a1f5760405162461bcd60e51b815260206004820152602160248201527f45524332303a206275726e2066726f6d20746865207a65726f206164647265736044820152607360f81b60648201526084016103a1565b6001600160a01b03821660009081526020819052604090205481811015610a935760405162461bcd60e51b815260206004820152602260248201527f45524332303a206275726e20616d6f756e7420657863656564732062616c616e604482015261636560f01b60648201526084016103a1565b6001600160a01b0383166000908152602081905260408120838303905560028054849290610ac2908490610c69565b90915550506040518281526000906001600160a01b03851690600080516020610cd28339815191529060200160405180910390a36104a5565b80356001600160a01b038116811461037257600080fd5b600060208284031215610b23578081fd5b610b2c82610afb565b9392505050565b60008060408385031215610b45578081fd5b610b4e83610afb565b9150610b5c60208401610afb565b90509250929050565b600080600060608486031215610b79578081fd5b610b8284610afb565b9250610b9060208501610afb565b9150604084013590509250925092565b60008060408385031215610bb2578182fd5b610bbb83610afb565b946020939093013593505050565b6000602080835283518082850152825b81811015610bf557858101830151858201604001528201610bd9565b81811115610c065783604083870101525b50601f01601f1916929092016040019392505050565b6020808252818101527f4f776e61626c653a2063616c6c6572206973206e6f7420746865206f776e6572604082015260600190565b60008219821115610c6457610c64610cbb565b500190565b600082821015610c7b57610c7b610cbb565b500390565b600281046001821680610c9457607f821691505b60208210811415610cb557634e487b7160e01b600052602260045260246000fd5b50919050565b634e487b7160e01b600052601160045260246000fdfeddf252ad1be2c89b69c2b068fc378daa952ba7f163c4a11628f55a4df523b3efa26469706673582212202935477b4e331758f808d85f417a823f688f9693c250684401682909c5ec82f164736f6c63430008020033",
  "linkReferences": {},
  "deployedLinkReferences": {}
}