{
  "_format": "hh-sol-artifact-1",
  "contractName": "BRGN",
  "sourceName": "contracts/NFT/BRGN.sol",
  "abi": [
    {
      "inputs": [],
      "stateMutability": "nonpayable",
      "type": "constructor"
    },
    {
      "anonymous": false,
      "inputs": [
        {
          "indexed": true,
          "internalType": "address",
          "name": "owner",
          "type": "address"
        },
        {
          "indexed": true,
          "internalType": "address",
          "name": "spender",
          "type": "address"
        },
        {
          "indexed": false,
          "internalType": "uint256",
          "name": "value",
          "type": "uint256"
        }
      ],
      "name": "Approval",
      "type": "event"
    },
    {
      "anonymous": false,
      "inputs": [
        {
          "indexed": true,
          "internalType": "address",
          "name": "from",
          "type": "address"
        },
        {
          "indexed": true,
          "internalType": "address",
          "name": "to",
          "type": "address"
        },
        {
          "indexed": false,
          "internalType": "uint256",
          "name": "value",
          "type": "uint256"
        }
      ],
      "name": "Transfer",
      "type": "event"
    },
    {
      "inputs": [
        {
          "internalType": "address",
          "name": "owner",
          "type": "address"
        },
        {
          "internalType": "address",
          "name": "spender",
          "type": "address"
        }
      ],
      "name": "allowance",
      "outputs": [
        {
          "internalType": "uint256",
          "name": "",
          "type": "uint256"
        }
      ],
      "stateMutability": "view",
      "type": "function"
    },
    {
      "inputs": [
        {
          "internalType": "address",
          "name": "spender",
          "type": "address"
        },
        {
          "internalType": "uint256",
          "name": "amount",
          "type": "uint256"
        }
      ],
      "name": "approve",
      "outputs": [
        {
          "internalType": "bool",
          "name": "",
          "type": "bool"
        }
      ],
      "stateMutability": "nonpayable",
      "type": "function"
    },
    {
      "inputs": [
        {
          "internalType": "address",
          "name": "owner",
          "type": "address"
        },
        {
          "internalType": "address",
          "name": "spender",
          "type": "address"
        },
        {
          "internalType": "uint256",
          "name": "amount",
          "type": "uint256"
        }
      ],
      "name": "approve",
      "outputs": [],
      "stateMutability": "nonpayable",
      "type": "function"
    },
    {
      "inputs": [
        {
          "internalType": "address",
          "name": "account",
          "type": "address"
        }
      ],
      "name": "balanceOf",
      "outputs": [
        {
          "internalType": "uint256",
          "name": "",
          "type": "uint256"
        }
      ],
      "stateMutability": "view",
      "type": "function"
    },
    {
      "inputs": [
        {
          "internalType": "address",
          "name": "from",
          "type": "address"
        },
        {
          "internalType": "uint256",
          "name": "amount",
          "type": "uint256"
        }
      ],
      "name": "burn",
      "outputs": [],
      "stateMutability": "nonpayable",
      "type": "function"
    },
    {
      "inputs": [],
      "name": "decimals",
      "outputs": [
        {
          "internalType": "uint8",
          "name": "",
          "type": "uint8"
        }
      ],
      "stateMutability": "view",
      "type": "function"
    },
    {
      "inputs": [
        {
          "internalType": "address",
          "name": "spender",
          "type": "address"
        },
        {
          "internalType": "uint256",
          "name": "subtractedValue",
          "type": "uint256"
        }
      ],
      "name": "decreaseAllowance",
      "outputs": [
        {
          "internalType": "bool",
          "name": "",
          "type": "bool"
        }
      ],
      "stateMutability": "nonpayable",
      "type": "function"
    },
    {
      "inputs": [
        {
          "internalType": "address",
          "name": "spender",
          "type": "address"
        },
        {
          "internalType": "uint256",
          "name": "addedValue",
          "type": "uint256"
        }
      ],
      "name": "increaseAllowance",
      "outputs": [
        {
          "internalType": "bool",
          "name": "",
          "type": "bool"
        }
      ],
      "stateMutability": "nonpayable",
      "type": "function"
    },
    {
      "inputs": [
        {
          "internalType": "address",
          "name": "to",
          "type": "address"
        },
        {
          "internalType": "uint256",
          "name": "amount",
          "type": "uint256"
        }
      ],
      "name": "mint",
      "outputs": [],
      "stateMutability": "nonpayable",
      "type": "function"
    },
    {
      "inputs": [],
      "name": "name",
      "outputs": [
        {
          "internalType": "string",
          "name": "",
          "type": "string"
        }
      ],
      "stateMutability": "view",
      "type": "function"
    },
    {
      "inputs": [],
      "name": "symbol",
      "outputs": [
        {
          "internalType": "string",
          "name": "",
          "type": "string"
        }
      ],
      "stateMutability": "view",
      "type": "function"
    },
    {
      "inputs": [],
      "name": "totalSupply",
      "outputs": [
        {
          "internalType": "uint256",
          "name": "",
          "type": "uint256"
        }
      ],
      "stateMutability": "view",
      "type": "function"
    },
    {
      "inputs": [
        {
          "internalType": "address",
          "name": "to",
          "type": "address"
        },
        {
          "internalType": "uint256",
          "name": "amount",
          "type": "uint256"
        }
      ],
      "name": "transfer",
      "outputs": [
        {
          "internalType": "bool",
          "name": "",
          "type": "bool"
        }
      ],
      "stateMutability": "nonpayable",
      "type": "function"
    },
    {
      "inputs": [
        {
          "internalType": "address",
          "name": "from",
          "type": "address"
        },
        {
          "internalType": "address",
          "name": "to",
          "type": "address"
        },
        {
          "internalType": "uint256",
          "name": "amount",
          "type": "uint256"
        }
      ],
      "name": "transferFrom",
      "outputs": [
        {
          "internalType": "bool",
          "name": "",
          "type": "bool"
        }
      ],
      "stateMutability": "nonpayable",
      "type": "function"
    }
  ],
  "bytecode": "0x608060405234801561001057600080fd5b50604080518082018252600480825263212923a760e11b60208084018281528551808701909652928552840152815191929161004e9160039161006a565b50805161006290600490602084019061006a565b50505061013e565b82805461007690610103565b90600052602060002090601f01602090048101928261009857600085556100de565b82601f106100b157805160ff19168380011785556100de565b828001600101855582156100de579182015b828111156100de5782518255916020019190600101906100c3565b506100ea9291506100ee565b5090565b5b808211156100ea57600081556001016100ef565b60028104600182168061011757607f821691505b6020821081141561013857634e487b7160e01b600052602260045260246000fd5b50919050565b610bbd806200014e6000396000f3fe608060405234801561001057600080fd5b50600436106100ea5760003560e01c806370a082311161008c578063a457c2d711610066578063a457c2d7146101ba578063a9059cbb146101cd578063dd62ed3e146101e0578063e1f21c6714610219576100ea565b806370a082311461018c57806395d89b411461019f5780639dc29fac146101a7576100ea565b806323b872dd116100c857806323b872dd14610142578063313ce56714610155578063395093511461016457806340c10f1914610177576100ea565b806306fdde03146100ef578063095ea7b31461010d57806318160ddd14610130575b600080fd5b6100f761022c565b6040516101049190610ab4565b60405180910390f35b61012061011b366004610a8b565b6102be565b6040519015158152602001610104565b6002545b604051908152602001610104565b610120610150366004610a50565b6102d6565b60405160128152602001610104565b610120610172366004610a8b565b6102fa565b61018a610185366004610a8b565b610339565b005b61013461019a3660046109fd565b610347565b6100f7610366565b61018a6101b5366004610a8b565b610375565b6101206101c8366004610a8b565b61037f565b6101206101db366004610a8b565b610416565b6101346101ee366004610a1e565b6001600160a01b03918216600090815260016020908152604080832093909416825291909152205490565b61018a610227366004610a50565b610424565b60606003805461023b90610b36565b80601f016020809104026020016040519081016040528092919081815260200182805461026790610b36565b80156102b45780601f10610289576101008083540402835291602001916102b4565b820191906000526020600020905b81548152906001019060200180831161029757829003601f168201915b5050505050905090565b6000336102cc818585610434565b5060019392505050565b6000336102e4858285610558565b6102ef8585856105ea565b506001949350505050565b3360008181526001602090815260408083206001600160a01b03871684529091528120549091906102cc9082908690610334908790610b07565b610434565b61034382826107b8565b5050565b6001600160a01b0381166000908152602081905260409020545b919050565b60606004805461023b90610b36565b6103438282610898565b3360008181526001602090815260408083206001600160a01b0387168452909152812054909190838110156104095760405162461bcd60e51b815260206004820152602560248201527f45524332303a2064656372656173656420616c6c6f77616e63652062656c6f77604482015264207a65726f60d81b60648201526084015b60405180910390fd5b6102ef8286868403610434565b6000336102cc8185856105ea565b61042f838383610434565b505050565b6001600160a01b0383166104965760405162461bcd60e51b8152602060048201526024808201527f45524332303a20617070726f76652066726f6d20746865207a65726f206164646044820152637265737360e01b6064820152608401610400565b6001600160a01b0382166104f75760405162461bcd60e51b815260206004820152602260248201527f45524332303a20617070726f766520746f20746865207a65726f206164647265604482015261737360f01b6064820152608401610400565b6001600160a01b0383811660008181526001602090815260408083209487168084529482529182902085905590518481527f8c5be1e5ebec7d5bd14f71427d1e84f3dd0314c0f7b2291e5b200ac8c7c3b925910160405180910390a3505050565b6001600160a01b0383811660009081526001602090815260408083209386168352929052205460001981146105e457818110156105d75760405162461bcd60e51b815260206004820152601d60248201527f45524332303a20696e73756666696369656e7420616c6c6f77616e63650000006044820152606401610400565b6105e48484848403610434565b50505050565b6001600160a01b03831661064e5760405162461bcd60e51b815260206004820152602560248201527f45524332303a207472616e736665722066726f6d20746865207a65726f206164604482015264647265737360d81b6064820152608401610400565b6001600160a01b0382166106b05760405162461bcd60e51b815260206004820152602360248201527f45524332303a207472616e7366657220746f20746865207a65726f206164647260448201526265737360e81b6064820152608401610400565b6001600160a01b038316600090815260208190526040902054818110156107285760405162461bcd60e51b815260206004820152602660248201527f45524332303a207472616e7366657220616d6f756e7420657863656564732062604482015265616c616e636560d01b6064820152608401610400565b6001600160a01b0380851660009081526020819052604080822085850390559185168152908120805484929061075f908490610b07565b92505081905550826001600160a01b0316846001600160a01b03167fddf252ad1be2c89b69c2b068fc378daa952ba7f163c4a11628f55a4df523b3ef846040516107ab91815260200190565b60405180910390a36105e4565b6001600160a01b03821661080e5760405162461bcd60e51b815260206004820152601f60248201527f45524332303a206d696e7420746f20746865207a65726f2061646472657373006044820152606401610400565b80600260008282546108209190610b07565b90915550506001600160a01b0382166000908152602081905260408120805483929061084d908490610b07565b90915550506040518181526001600160a01b038316906000907fddf252ad1be2c89b69c2b068fc378daa952ba7f163c4a11628f55a4df523b3ef9060200160405180910390a3610343565b6001600160a01b0382166108f85760405162461bcd60e51b815260206004820152602160248201527f45524332303a206275726e2066726f6d20746865207a65726f206164647265736044820152607360f81b6064820152608401610400565b6001600160a01b0382166000908152602081905260409020548181101561096c5760405162461bcd60e51b815260206004820152602260248201527f45524332303a206275726e20616d6f756e7420657863656564732062616c616e604482015261636560f01b6064820152608401610400565b6001600160a01b038316600090815260208190526040812083830390556002805484929061099b908490610b1f565b90915550506040518281526000906001600160a01b038516907fddf252ad1be2c89b69c2b068fc378daa952ba7f163c4a11628f55a4df523b3ef9060200160405180910390a361042f565b80356001600160a01b038116811461036157600080fd5b600060208284031215610a0e578081fd5b610a17826109e6565b9392505050565b60008060408385031215610a30578081fd5b610a39836109e6565b9150610a47602084016109e6565b90509250929050565b600080600060608486031215610a64578081fd5b610a6d846109e6565b9250610a7b602085016109e6565b9150604084013590509250925092565b60008060408385031215610a9d578182fd5b610aa6836109e6565b946020939093013593505050565b6000602080835283518082850152825b81811015610ae057858101830151858201604001528201610ac4565b81811115610af15783604083870101525b50601f01601f1916929092016040019392505050565b60008219821115610b1a57610b1a610b71565b500190565b600082821015610b3157610b31610b71565b500390565b600281046001821680610b4a57607f821691505b60208210811415610b6b57634e487b7160e01b600052602260045260246000fd5b50919050565b634e487b7160e01b600052601160045260246000fdfea264697066735822122014fd75360c571345ad7c0d105bd8d1b61510d5612efc681683b313bfd8673f5364736f6c63430008020033",
  "linkReferences": {},
  "deployedLinkReferences": {}
}