{
  "_format": "hh-sol-artifact-1",
  "contractName": "MasterChefRGN",
  "sourceName": "contracts/MainProtocol/MasterChef.sol",
  "abi": [
    {
      "anonymous": false,
      "inputs": [
        {
          "indexed": false,
          "internalType": "uint256",
          "name": "allocPoint",
          "type": "uint256"
        },
        {
          "indexed": true,
          "internalType": "address",
          "name": "lpToken",
          "type": "address"
        },
        {
          "indexed": true,
          "internalType": "contract IBaseRewardPool",
          "name": "rewarder",
          "type": "address"
        }
      ],
      "name": "Add",
      "type": "event"
    },
    {
      "anonymous": false,
      "inputs": [
        {
          "indexed": true,
          "internalType": "address",
          "name": "user",
          "type": "address"
        },
        {
          "indexed": true,
          "internalType": "address",
          "name": "lpToken",
          "type": "address"
        },
        {
          "indexed": false,
          "internalType": "uint256",
          "name": "amount",
          "type": "uint256"
        }
      ],
      "name": "Deposit",
      "type": "event"
    },
    {
      "anonymous": false,
      "inputs": [
        {
          "indexed": true,
          "internalType": "address",
          "name": "user",
          "type": "address"
        },
        {
          "indexed": true,
          "internalType": "address",
          "name": "lpToken",
          "type": "address"
        },
        {
          "indexed": false,
          "internalType": "uint256",
          "name": "amount",
          "type": "uint256"
        }
      ],
      "name": "EmergencyWithdraw",
      "type": "event"
    },
    {
      "anonymous": false,
      "inputs": [
        {
          "indexed": true,
          "internalType": "address",
          "name": "user",
          "type": "address"
        },
        {
          "indexed": true,
          "internalType": "address",
          "name": "lpToken",
          "type": "address"
        },
        {
          "indexed": false,
          "internalType": "uint256",
          "name": "amount",
          "type": "uint256"
        }
      ],
      "name": "Harvest",
      "type": "event"
    },
    {
      "anonymous": false,
      "inputs": [
        {
          "indexed": true,
          "internalType": "address",
          "name": "user",
          "type": "address"
        },
        {
          "indexed": true,
          "internalType": "address",
          "name": "lpToken",
          "type": "address"
        },
        {
          "indexed": false,
          "internalType": "uint256",
          "name": "amount",
          "type": "uint256"
        }
      ],
      "name": "Locked",
      "type": "event"
    },
    {
      "anonymous": false,
      "inputs": [
        {
          "indexed": true,
          "internalType": "address",
          "name": "previousOwner",
          "type": "address"
        },
        {
          "indexed": true,
          "internalType": "address",
          "name": "newOwner",
          "type": "address"
        }
      ],
      "name": "OwnershipTransferred",
      "type": "event"
    },
    {
      "anonymous": false,
      "inputs": [
        {
          "indexed": true,
          "internalType": "address",
          "name": "lpToken",
          "type": "address"
        },
        {
          "indexed": false,
          "internalType": "uint256",
          "name": "allocPoint",
          "type": "uint256"
        },
        {
          "indexed": true,
          "internalType": "contract IBaseRewardPool",
          "name": "rewarder",
          "type": "address"
        },
        {
          "indexed": true,
          "internalType": "address",
          "name": "locker",
          "type": "address"
        },
        {
          "indexed": false,
          "internalType": "bool",
          "name": "overwrite",
          "type": "bool"
        }
      ],
      "name": "Set",
      "type": "event"
    },
    {
      "anonymous": false,
      "inputs": [
        {
          "indexed": true,
          "internalType": "address",
          "name": "user",
          "type": "address"
        },
        {
          "indexed": true,
          "internalType": "address",
          "name": "lpToken",
          "type": "address"
        },
        {
          "indexed": false,
          "internalType": "uint256",
          "name": "amount",
          "type": "uint256"
        }
      ],
      "name": "Unlocked",
      "type": "event"
    },
    {
      "anonymous": false,
      "inputs": [
        {
          "indexed": true,
          "internalType": "address",
          "name": "user",
          "type": "address"
        },
        {
          "indexed": false,
          "internalType": "uint256",
          "name": "_rgnPerSec",
          "type": "uint256"
        }
      ],
      "name": "UpdateEmissionRate",
      "type": "event"
    },
    {
      "anonymous": false,
      "inputs": [
        {
          "indexed": true,
          "internalType": "address",
          "name": "lpToken",
          "type": "address"
        },
        {
          "indexed": false,
          "internalType": "uint256",
          "name": "lastRewardTimestamp",
          "type": "uint256"
        },
        {
          "indexed": false,
          "internalType": "uint256",
          "name": "lpSupply",
          "type": "uint256"
        },
        {
          "indexed": false,
          "internalType": "uint256",
          "name": "accRGNPerShare",
          "type": "uint256"
        }
      ],
      "name": "UpdatePool",
      "type": "event"
    },
    {
      "anonymous": false,
      "inputs": [
        {
          "indexed": true,
          "internalType": "address",
          "name": "user",
          "type": "address"
        },
        {
          "indexed": true,
          "internalType": "address",
          "name": "lpToken",
          "type": "address"
        },
        {
          "indexed": false,
          "internalType": "uint256",
          "name": "amount",
          "type": "uint256"
        }
      ],
      "name": "Withdraw",
      "type": "event"
    },
    {
      "inputs": [
        {
          "internalType": "address",
          "name": "_rgn",
          "type": "address"
        },
        {
          "internalType": "uint256",
          "name": "_rgnPerSec",
          "type": "uint256"
        },
        {
          "internalType": "uint256",
          "name": "_startTimestamp",
          "type": "uint256"
        }
      ],
      "name": "__MasterChefRGN_init",
      "outputs": [],
      "stateMutability": "nonpayable",
      "type": "function"
    },
    {
      "inputs": [
        {
          "internalType": "uint256",
          "name": "_allocPoint",
          "type": "uint256"
        },
        {
          "internalType": "address",
          "name": "_lpToken",
          "type": "address"
        },
        {
          "internalType": "address",
          "name": "_rewarder",
          "type": "address"
        },
        {
          "internalType": "address",
          "name": "_helper",
          "type": "address"
        }
      ],
      "name": "add",
      "outputs": [],
      "stateMutability": "nonpayable",
      "type": "function"
    },
    {
      "inputs": [
        {
          "internalType": "address",
          "name": "",
          "type": "address"
        }
      ],
      "name": "addressToPoolInfo",
      "outputs": [
        {
          "internalType": "address",
          "name": "lpToken",
          "type": "address"
        },
        {
          "internalType": "uint256",
          "name": "allocPoint",
          "type": "uint256"
        },
        {
          "internalType": "uint256",
          "name": "lastRewardTimestamp",
          "type": "uint256"
        },
        {
          "internalType": "uint256",
          "name": "accRGNPerShare",
          "type": "uint256"
        },
        {
          "internalType": "address",
          "name": "rewarder",
          "type": "address"
        },
        {
          "internalType": "address",
          "name": "helper",
          "type": "address"
        },
        {
          "internalType": "address",
          "name": "locker",
          "type": "address"
        }
      ],
      "stateMutability": "view",
      "type": "function"
    },
    {
      "inputs": [],
      "name": "allowEmergency",
      "outputs": [],
      "stateMutability": "nonpayable",
      "type": "function"
    },
    {
      "inputs": [
        {
          "internalType": "address",
          "name": "_lp",
          "type": "address"
        }
      ],
      "name": "claimLock",
      "outputs": [],
      "stateMutability": "nonpayable",
      "type": "function"
    },
    {
      "inputs": [
        {
          "internalType": "address",
          "name": "_lpToken",
          "type": "address"
        },
        {
          "internalType": "address",
          "name": "mainRewardToken",
          "type": "address"
        }
      ],
      "name": "createRewarder",
      "outputs": [
        {
          "internalType": "address",
          "name": "",
          "type": "address"
        }
      ],
      "stateMutability": "nonpayable",
      "type": "function"
    },
    {
      "inputs": [
        {
          "internalType": "address",
          "name": "_lp",
          "type": "address"
        },
        {
          "internalType": "uint256",
          "name": "_amount",
          "type": "uint256"
        }
      ],
      "name": "deposit",
      "outputs": [],
      "stateMutability": "nonpayable",
      "type": "function"
    },
    {
      "inputs": [
        {
          "internalType": "address",
          "name": "_lp",
          "type": "address"
        },
        {
          "internalType": "uint256",
          "name": "_amount",
          "type": "uint256"
        },
        {
          "internalType": "address",
          "name": "sender",
          "type": "address"
        }
      ],
      "name": "depositFor",
      "outputs": [],
      "stateMutability": "nonpayable",
      "type": "function"
    },
    {
      "inputs": [
        {
          "internalType": "address",
          "name": "_lp",
          "type": "address"
        },
        {
          "internalType": "address",
          "name": "_user",
          "type": "address"
        }
      ],
      "name": "depositInfo",
      "outputs": [
        {
          "internalType": "uint256",
          "name": "availableAmount",
          "type": "uint256"
        }
      ],
      "stateMutability": "view",
      "type": "function"
    },
    {
      "inputs": [
        {
          "internalType": "address",
          "name": "_lp",
          "type": "address"
        }
      ],
      "name": "emergencyWithdraw",
      "outputs": [],
      "stateMutability": "nonpayable",
      "type": "function"
    },
    {
      "inputs": [
        {
          "internalType": "address",
          "name": "_lp",
          "type": "address"
        }
      ],
      "name": "emergencyWithdrawWithReward",
      "outputs": [],
      "stateMutability": "nonpayable",
      "type": "function"
    },
    {
      "inputs": [
        {
          "internalType": "address",
          "name": "token",
          "type": "address"
        }
      ],
      "name": "getPoolInfo",
      "outputs": [
        {
          "internalType": "uint256",
          "name": "emission",
          "type": "uint256"
        },
        {
          "internalType": "uint256",
          "name": "allocpoint",
          "type": "uint256"
        },
        {
          "internalType": "uint256",
          "name": "sizeOfPool",
          "type": "uint256"
        },
        {
          "internalType": "uint256",
          "name": "totalPoint",
          "type": "uint256"
        }
      ],
      "stateMutability": "view",
      "type": "function"
    },
    {
      "inputs": [
        {
          "internalType": "address",
          "name": "_lp",
          "type": "address"
        },
        {
          "internalType": "uint256",
          "name": "_amount",
          "type": "uint256"
        },
        {
          "internalType": "uint256",
          "name": "_index",
          "type": "uint256"
        },
        {
          "internalType": "bool",
          "name": "force",
          "type": "bool"
        }
      ],
      "name": "lock",
      "outputs": [],
      "stateMutability": "nonpayable",
      "type": "function"
    },
    {
      "inputs": [],
      "name": "massUpdatePools",
      "outputs": [],
      "stateMutability": "nonpayable",
      "type": "function"
    },
    {
      "inputs": [
        {
          "internalType": "address",
          "name": "_lp",
          "type": "address"
        },
        {
          "internalType": "uint256[]",
          "name": "_amount",
          "type": "uint256[]"
        },
        {
          "internalType": "uint256[]",
          "name": "_index",
          "type": "uint256[]"
        }
      ],
      "name": "multiUnlock",
      "outputs": [],
      "stateMutability": "nonpayable",
      "type": "function"
    },
    {
      "inputs": [
        {
          "internalType": "address[]",
          "name": "_lps",
          "type": "address[]"
        },
        {
          "internalType": "address",
          "name": "userAddress",
          "type": "address"
        }
      ],
      "name": "multiclaim",
      "outputs": [],
      "stateMutability": "nonpayable",
      "type": "function"
    },
    {
      "inputs": [],
      "name": "owner",
      "outputs": [
        {
          "internalType": "address",
          "name": "",
          "type": "address"
        }
      ],
      "stateMutability": "view",
      "type": "function"
    },
    {
      "inputs": [
        {
          "internalType": "address",
          "name": "_lp",
          "type": "address"
        },
        {
          "internalType": "address",
          "name": "_user",
          "type": "address"
        },
        {
          "internalType": "address",
          "name": "token",
          "type": "address"
        }
      ],
      "name": "pendingTokens",
      "outputs": [
        {
          "internalType": "uint256",
          "name": "pendingRGN",
          "type": "uint256"
        },
        {
          "internalType": "address",
          "name": "bonusTokenAddress",
          "type": "address"
        },
        {
          "internalType": "string",
          "name": "bonusTokenSymbol",
          "type": "string"
        },
        {
          "internalType": "uint256",
          "name": "pendingBonusToken",
          "type": "uint256"
        }
      ],
      "stateMutability": "view",
      "type": "function"
    },
    {
      "inputs": [],
      "name": "poolLength",
      "outputs": [
        {
          "internalType": "uint256",
          "name": "",
          "type": "uint256"
        }
      ],
      "stateMutability": "view",
      "type": "function"
    },
    {
      "inputs": [
        {
          "internalType": "address",
          "name": "",
          "type": "address"
        }
      ],
      "name": "poolManagers",
      "outputs": [
        {
          "internalType": "bool",
          "name": "",
          "type": "bool"
        }
      ],
      "stateMutability": "view",
      "type": "function"
    },
    {
      "inputs": [],
      "name": "realEmergencyAllowed",
      "outputs": [
        {
          "internalType": "bool",
          "name": "",
          "type": "bool"
        }
      ],
      "stateMutability": "view",
      "type": "function"
    },
    {
      "inputs": [
        {
          "internalType": "address",
          "name": "_lp",
          "type": "address"
        }
      ],
      "name": "realEmergencyWithdraw",
      "outputs": [],
      "stateMutability": "nonpayable",
      "type": "function"
    },
    {
      "inputs": [
        {
          "internalType": "uint256",
          "name": "",
          "type": "uint256"
        }
      ],
      "name": "registeredToken",
      "outputs": [
        {
          "internalType": "address",
          "name": "",
          "type": "address"
        }
      ],
      "stateMutability": "view",
      "type": "function"
    },
    {
      "inputs": [],
      "name": "renounceOwnership",
      "outputs": [],
      "stateMutability": "nonpayable",
      "type": "function"
    },
    {
      "inputs": [],
      "name": "rgn",
      "outputs": [
        {
          "internalType": "contract RGN",
          "name": "",
          "type": "address"
        }
      ],
      "stateMutability": "view",
      "type": "function"
    },
    {
      "inputs": [],
      "name": "rgnPerSec",
      "outputs": [
        {
          "internalType": "uint256",
          "name": "",
          "type": "uint256"
        }
      ],
      "stateMutability": "view",
      "type": "function"
    },
    {
      "inputs": [
        {
          "internalType": "address",
          "name": "_lp",
          "type": "address"
        },
        {
          "internalType": "uint256",
          "name": "_allocPoint",
          "type": "uint256"
        },
        {
          "internalType": "address",
          "name": "_rewarder",
          "type": "address"
        },
        {
          "internalType": "address",
          "name": "_locker",
          "type": "address"
        },
        {
          "internalType": "bool",
          "name": "overwrite",
          "type": "bool"
        }
      ],
      "name": "set",
      "outputs": [],
      "stateMutability": "nonpayable",
      "type": "function"
    },
    {
      "inputs": [
        {
          "internalType": "address",
          "name": "_address",
          "type": "address"
        },
        {
          "internalType": "bool",
          "name": "_bool",
          "type": "bool"
        }
      ],
      "name": "setPoolManagerStatus",
      "outputs": [],
      "stateMutability": "nonpayable",
      "type": "function"
    },
    {
      "inputs": [],
      "name": "startTimestamp",
      "outputs": [
        {
          "internalType": "uint256",
          "name": "",
          "type": "uint256"
        }
      ],
      "stateMutability": "view",
      "type": "function"
    },
    {
      "inputs": [],
      "name": "totalAllocPoint",
      "outputs": [
        {
          "internalType": "uint256",
          "name": "",
          "type": "uint256"
        }
      ],
      "stateMutability": "view",
      "type": "function"
    },
    {
      "inputs": [
        {
          "internalType": "address",
          "name": "newOwner",
          "type": "address"
        }
      ],
      "name": "transferOwnership",
      "outputs": [],
      "stateMutability": "nonpayable",
      "type": "function"
    },
    {
      "inputs": [
        {
          "internalType": "address",
          "name": "_lp",
          "type": "address"
        },
        {
          "internalType": "uint256",
          "name": "_amount",
          "type": "uint256"
        },
        {
          "internalType": "uint256",
          "name": "_index",
          "type": "uint256"
        }
      ],
      "name": "unlock",
      "outputs": [],
      "stateMutability": "nonpayable",
      "type": "function"
    },
    {
      "inputs": [
        {
          "internalType": "uint256",
          "name": "_rgnPerSec",
          "type": "uint256"
        }
      ],
      "name": "updateEmissionRate",
      "outputs": [],
      "stateMutability": "nonpayable",
      "type": "function"
    },
    {
      "inputs": [
        {
          "internalType": "address",
          "name": "_lp",
          "type": "address"
        }
      ],
      "name": "updatePool",
      "outputs": [],
      "stateMutability": "nonpayable",
      "type": "function"
    },
    {
      "inputs": [
        {
          "internalType": "address",
          "name": "_lp",
          "type": "address"
        },
        {
          "internalType": "uint256",
          "name": "_amount",
          "type": "uint256"
        }
      ],
      "name": "withdraw",
      "outputs": [],
      "stateMutability": "nonpayable",
      "type": "function"
    },
    {
      "inputs": [
        {
          "internalType": "address",
          "name": "_lp",
          "type": "address"
        },
        {
          "internalType": "uint256",
          "name": "_amount",
          "type": "uint256"
        },
        {
          "internalType": "address",
          "name": "_sender",
          "type": "address"
        }
      ],
      "name": "withdrawFor",
      "outputs": [],
      "stateMutability": "nonpayable",
      "type": "function"
    }
  ],
  "bytecode": "0x608060405234801561001057600080fd5b506155f6806100206000396000f3fe60806040523480156200001157600080fd5b5060043610620002495760003560e01c80637b46c54f116200013d578063b5674c6811620000bb578063e6fd48bc1162000086578063e6fd48bc14620005e7578063e952fddc14620005f1578063efe33cfa1462000608578063f2fde38b146200061f578063f3fef3a3146200063657600080fd5b8063b5674c6814620005a5578063c8820f6c14620005bc578063cdfaeab614620005d3578063d4ac0fa114620005dd57600080fd5b806397f3b304116200010857806397f3b3041462000520578063986e853914620005375780639bf92698146200054e5780639c7e26551462000565578063ad05e627146200057c57600080fd5b80637b46c54f14620004ba5780638a64e0c414620004d15780638da5cb5b14620004f75780639742f6cd146200050957600080fd5b80634545b1b411620001cb578063630b5ba11162000196578063630b5ba114620003d55780636766efbe14620003df5780636ff1c9bc14620003f6578063715018a6146200040d57806375b1aadc146200041757600080fd5b80634545b1b4146200034957806347e7ef241462000368578063493b0170146200037f57806356a2ff6814620003be57600080fd5b806317e54830116200021857806317e5483014620002c0578063266f24b714620002d757806337fb24cf14620002ee5780633b3f0ee6146200031b5780633e8d54e1146200033257600080fd5b806306bfa938146200024e578063081e3eda146200028a5780630ba84cd2146200029d57806317caf6f114620002b6575b600080fd5b620002656200025f366004620033bb565b6200064d565b6040805194855260208501939093529183015260608201526080015b60405180910390f35b6067545b60405190815260200162000281565b620002b4620002ae36600462003780565b62000750565b005b6200028e606b5481565b620002b4620002d136600462003668565b6200081d565b620002b4620002e8366004620037b2565b62000a1a565b60655462000302906001600160a01b031681565b6040516001600160a01b03909116815260200162000281565b620003026200032c366004620033d8565b62000ced565b620002b46200034336600462003458565b62000d81565b606d54620003579060ff1681565b604051901515815260200162000281565b620002b4620003793660046200351a565b62000e46565b6200028e62000390366004620033d8565b6001600160a01b039182166000908152606a6020908152604080832093909416825291909152206002015490565b620002b4620003cf3660046200357d565b62001185565b620002b4620013b3565b620002b4620003f036600462003546565b6200141a565b620002b462000407366004620033bb565b620016a8565b620002b4620017fb565b6200047462000428366004620033bb565b60686020526000908152604090208054600182015460028301546003840154600485015460058601546006909601546001600160a01b0395861696949593949293918216928216911687565b604080516001600160a01b0398891681526020810197909752860194909452606085019290925284166080840152831660a083015290911660c082015260e00162000281565b620002b4620004cb366004620033bb565b62001836565b62000357620004e2366004620033bb565b606e6020526000908152604090205460ff1681565b6033546001600160a01b031662000302565b620002b46200051a366004620035e7565b620019cb565b620002b462000531366004620033bb565b62001b51565b620002b462000548366004620033bb565b62001c70565b620002b46200055f3660046200361c565b62001deb565b620003026200057636600462003780565b62001f54565b620005936200058d3660046200340f565b62001f7f565b60405162000281949392919062003961565b620002b4620005b6366004620035e7565b6200222f565b620002b4620005cd36600462003546565b62002337565b620002b4620026e4565b6200028e60665481565b6200028e606c5481565b620002b462000602366004620033bb565b62002720565b620002b462000619366004620034df565b62002844565b620002b462000630366004620033bb565b6200289c565b620002b4620006473660046200351a565b6200293e565b6001600160a01b038181166000818152606860209081526040808320815160e081018352815487168152600182015493810184905260028201548184015260038201546060820152600480830154881660808301526005830154881660a083015260069092015490961660c087015260665491516370a0823160e01b81523091810191909152929485948594859492939291906370a082319060240160206040518083038186803b1580156200070257600080fd5b505afa15801562000717573d6000803e3d6000fd5b505050506040513d601f19601f820116820180604052508101906200073d919062003799565b606b549450945094509450509193509193565b6033546001600160a01b03163314620007865760405162461bcd60e51b81526004016200077d90620038b5565b60405180910390fd5b69d3c21bcecceda1000000811115620007d65760405162461bcd60e51b815260206004820152601160248201527008adad2e6e6d2dedc40e8dede40d0d2ced607b1b60448201526064016200077d565b620007e0620013b3565b606681905560405181815233907fe2492e003bbe8afa53088b406f0c1cb5d9e280370fc72a74cf116ffd343c40539060200160405180910390a250565b8160005b8181101562000a135760008585838181106200084d57634e487b7160e01b600052603260045260246000fd5b9050602002016020810190620008649190620033bb565b6001600160a01b038082166000908152606860209081526040808320606a8352818420948a16845293909152902091925090620008a18362001836565b80541562000931576000816001015464e8d4a5100084600301548460000154620008cc9190620039da565b620008d89190620039b9565b620008e49190620039fc565b9050620008f2878262002b48565b836001600160a01b0316876001600160a01b0316600080516020620055a1833981519152836040516200092791815260200190565b60405180910390a3505b8054600383015464e8d4a51000916200094b9190620039da565b620009579190620039b9565b600182015560048201546001600160a01b031615620009fc57600482810154604051630c00007b60e41b81526001600160a01b0389811693820193909352911690819063c00007b090602401602060405180830381600087803b158015620009be57600080fd5b505af1158015620009d3573d6000803e3d6000fd5b505050506040513d601f19601f82011682018060405250810190620009f99190620036b7565b50505b5050508062000a0b9062003a45565b905062000821565b5050505050565b336000908152606e602052604090205460ff1662000a4c5760405162461bcd60e51b81526004016200077d9062003889565b6001600160a01b0383163b62000aa55760405162461bcd60e51b815260206004820152601f60248201527f6164643a204c5020746b6e206d7573742062652076616c696420636e7472740060448201526064016200077d565b6001600160a01b0382163b15158062000ac557506001600160a01b038216155b62000b135760405162461bcd60e51b815260206004820181905260248201527f6164643a207265776172646572206d75737420626520636e747274206f72203060448201526064016200077d565b6001600160a01b03831660009081526069602052604090205460ff161562000b765760405162461bcd60e51b81526020600482015260156024820152741859190e88131408185b1c9958591e481859191959605a1b60448201526064016200077d565b62000b80620013b3565b6000606c54421162000b9557606c5462000b97565b425b905084606b5462000ba991906200399e565b606b556067805460018082019092557f9787eeb91fe3101235e4a76063c7023ecb40f923f97916639c598592fa30d6ae0180546001600160a01b03199081166001600160a01b038881169182179093556040805160e08101825282815260208082018c81528284018981526000606085018181528d8a16608087018181528e8c1660a0890190815260c089018581528b8652606889528a862099518a548e16908f16178a559651898f0155945160028901559151600388015590516004870180548b16918c1691909117905591516005860180548a16918b16919091179055915160069094018054909716939097169290921790945560698452819020805460ff191690951790945592518881529192917fec85b1d1f037ff3a8722aaf5d4d8e7d93c7ff10c056430c18d76a9ec23aa397e91015b60405180910390a35050505050565b336000908152606e602052604081205460ff1662000d1f5760405162461bcd60e51b81526004016200077d9062003889565b60008383303360405162000d339062003343565b6001600160a01b039485168152928416602084015290831660408301529091166060820152608001604051809103906000f08015801562000d78573d6000803e3d6000fd5b50949350505050565b82811462000dc45760405162461bcd60e51b815260206004820152600f60248201526e0dcdee840e6c2daca40d8cadccee8d608b1b60448201526064016200077d565b60005b8381101562000e3e5762000e2b8686868481811062000df657634e487b7160e01b600052603260045260246000fd5b9050602002013585858581811062000e1e57634e487b7160e01b600052603260045260246000fd5b905060200201356200222f565b62000e368162003a45565b905062000dc7565b505050505050565b6001600160a01b0380831660009081526068602052604090208054909162000e72911633308562002d05565b6001600160a01b0383166000908152606a60209081526040808320338452909152902062000ea08462001836565b80541562000f22576000816001015464e8d4a510008460030154846000015462000ecb9190620039da565b62000ed79190620039b9565b62000ee39190620039fc565b905062000ef1338262002b48565b6040518181526001600160a01b038616903390600080516020620055a18339815191529060200160405180910390a3505b805462000f319084906200399e565b8155600281015462000f459084906200399e565b60028201556003820154815464e8d4a510009162000f6391620039da565b62000f6f9190620039b9565b60018201556001600160a01b03808516600090815260686020526040902060040154168315801562000fa957506001600160a01b03811615155b156200103357604051630c00007b60e41b81523360048201526001600160a01b0382169063c00007b090602401602060405180830381600087803b15801562000ff157600080fd5b505af115801562001006573d6000803e3d6000fd5b505050506040513d601f19601f820116820180604052508101906200102c9190620036b7565b5062000a13565b6001600160a01b0381161562001147576040516305dc812160e31b8152336004820152602481018590526001600160a01b03821690632ee4090890604401602060405180830381600087803b1580156200108c57600080fd5b505af1158015620010a1573d6000803e3d6000fd5b505050506040513d601f19601f82011682018060405250810190620010c79190620036b7565b50604051630c00007b60e41b81523360048201526001600160a01b0382169063c00007b090602401602060405180830381600087803b1580156200110a57600080fd5b505af11580156200111f573d6000803e3d6000fd5b505050506040513d601f19601f82011682018060405250810190620011459190620036b7565b505b6040518481526001600160a01b0386169033907f5548c837ab068cf56a2c2479df0882a4922fd203edb7517321831d95078c5f629060200162000cde565b336000908152606e602052604090205460ff16620011b75760405162461bcd60e51b81526004016200077d9062003889565b6001600160a01b0383163b151580620011d757506001600160a01b038316155b620012255760405162461bcd60e51b815260206004820181905260248201527f7365743a207265776172646572206d75737420626520636e747274206f72203060448201526064016200077d565b6001600160a01b0382163b1515806200124557506001600160a01b038216155b620012935760405162461bcd60e51b815260206004820152601e60248201527f7365743a206c6f636b6572206d75737420626520636e747274206f722030000060448201526064016200077d565b6200129d620013b3565b6001600160a01b038516600090815260686020526040902060010154606b548591620012c991620039fc565b620012d591906200399e565b606b556001600160a01b0385166000908152606860205260409020600101849055801562001343576001600160a01b0385811660009081526068602052604090206004810180546001600160a01b031990811687851617909155600690910180549091169184169190911790555b6001600160a01b03858116600081815260686020908152604091829020600681015460049091015483518a815287151593810193909352908516941692917ffb3ab4aea5ded0c6d65edd630d307af393aaaa6632fe2bcb1b8b382dd5f1029f910160405180910390a45050505050565b60675460005b8181101562001416576200140360678281548110620013e857634e487b7160e01b600052603260045260246000fd5b6000918252602090912001546001600160a01b031662001836565b6200140e8162003a45565b9050620013b9565b5050565b6001600160a01b038381166000908152606860209081526040808320606a83528184208686168552909252909120600582015491929091163314620014a25760405162461bcd60e51b815260206004820152601b60248201527f4f6e6c792048656c7065722063616e205769746864726177466f72000000000060448201526064016200077d565b8381600201541015620014c95760405162461bcd60e51b81526004016200077d90620038ea565b620014d48562001836565b6000816001015464e8d4a5100084600301548460000154620014f79190620039da565b620015039190620039b9565b6200150f9190620039fc565b90506200151d848262002b48565b856001600160a01b0316846001600160a01b0316600080516020620055a1833981519152836040516200155291815260200190565b60405180910390a3815462001569908690620039fc565b825560028201546200157d908690620039fc565b60028301556003830154825464e8d4a51000916200159b91620039da565b620015a79190620039b9565b60018301556001600160a01b038087166000908152606860205260409020600401541680156200163957604051630e19c69960e01b81526001600160a01b03821690630e19c69990620016049088908a9060019060040162003851565b600060405180830381600087803b1580156200161f57600080fd5b505af115801562001634573d6000803e3d6000fd5b505050505b835462001651906001600160a01b0316338862002d72565b866001600160a01b0316856001600160a01b03167f9b1bfa7fa9ee420a16e124f794c35ac9f90472acc99140eb2f6447c714cad8eb886040516200169791815260200190565b60405180910390a350505050505050565b6001600160a01b038082166000818152606860208181526040808420606a83528185203380875290845291852095855292909152600482015460028501805494905582549295908116939262001702929116908362002d72565b6040518181526001600160a01b0386169033907ff24ef89f38eadc1bde50701ad6e4d6d11a2dc24f7cf834a486991f38833285049060200160405180910390a3825462001751908290620039fc565b808455600385015464e8d4a51000916200176c9190620039da565b620017789190620039b9565b60018401556001600160a01b0382161562000a1357604051630e19c69960e01b81526001600160a01b03831690630e19c69990620017c0903390859060009060040162003851565b600060405180830381600087803b158015620017db57600080fd5b505af1158015620017f0573d6000803e3d6000fd5b505050505050505050565b6033546001600160a01b03163314620018285760405162461bcd60e51b81526004016200077d90620038b5565b62001834600062002da4565b565b6001600160a01b0381166000908152606860205260409020600281015442116200185e575050565b80546040516370a0823160e01b81523060048201526000916001600160a01b0316906370a082319060240160206040518083038186803b158015620018a257600080fd5b505afa158015620018b7573d6000803e3d6000fd5b505050506040513d601f19601f82011682018060405250810190620018dd919062003799565b905080620018f057504260029091015550565b6000826002015442620019049190620039fc565b90506000606b54846001015460665484620019209190620039da565b6200192c9190620039da565b620019389190620039b9565b9050826200194c8264e8d4a51000620039da565b620019589190620039b9565b84600301546200196991906200399e565b60038501819055426002860181905560408051918252602082018690528101919091526001600160a01b038616907f50a1a2d4fcb1c08863a0b14fcc7d9d728e2b21d8d7588b9cfa3991efe8112ee79060600160405180910390a25050505050565b600054610100900460ff16620019e85760005460ff1615620019ec565b303b155b62001a515760405162461bcd60e51b815260206004820152602e60248201527f496e697469616c697a61626c653a20636f6e747261637420697320616c72656160448201526d191e481a5b9a5d1a585b1a5e995960921b60648201526084016200077d565b600054610100900460ff1615801562001a74576000805461ffff19166101011790555b62001a7e62002df6565b69d3c21bcecceda100000083111562001ace5760405162461bcd60e51b815260206004820152601160248201527008adad2e6e6d2dedc40e8dede40d0d2ced607b1b60448201526064016200077d565b606580546001600160a01b0386166001600160a01b0319909116179055606c8290556000606b819055600190606e9062001b106033546001600160a01b031690565b6001600160a01b031681526020810191909152604001600020805460ff1916911515919091179055801562001b4b576000805461ff00191690555b50505050565b6001600160a01b038082166000908152606860209081526040808320606a83528184203380865293529083206002810180549490558154919490939262001b9d92909116908362002d72565b6040518181526001600160a01b0385169033907ff24ef89f38eadc1bde50701ad6e4d6d11a2dc24f7cf834a486991f38833285049060200160405180910390a3815462001bec908290620039fc565b808355600384015464e8d4a510009162001c079190620039da565b62001c139190620039b9565b60018301556001600160a01b0380851660009081526068602052604090206004015416801562000a1357604051630e19c69960e01b81526001600160a01b03821690630e19c69990620017c0903390869060019060040162003851565b6001600160a01b0381166000908152606860209081526040808320606a835281842033855290925290912062001ca68362001836565b80541562001d28576000816001015464e8d4a510008460030154846000015462001cd19190620039da565b62001cdd9190620039b9565b62001ce99190620039fc565b905062001cf7338262002b48565b6040518181526001600160a01b038516903390600080516020620055a18339815191529060200160405180910390a3505b6003820154815464e8d4a510009162001d4191620039da565b62001d4d9190620039b9565b60018201556001600160a01b03838116600090815260686020526040908190206004908101549151630c00007b60e41b81523391810191909152911690819063c00007b090602401602060405180830381600087803b15801562001db057600080fd5b505af115801562001dc5573d6000803e3d6000fd5b505050506040513d601f19601f8201168201806040525081019062000a139190620036b7565b6001600160a01b0384166000908152606860209081526040808320606a8352818420338552909252909120600281015485111562001e625760405162461bcd60e51b81526020600482015260136024820152721b1bd8dac8195e18d959591cc81cdd185ad959606a1b60448201526064016200077d565b84816002015462001e749190620039fc565b60028201556006820154604051633460552960e21b8152600481018790526024810186905233604482015284151560648201526001600160a01b039091169063d18154a490608401600060405180830381600087803b15801562001ed757600080fd5b505af115801562001eec573d6000803e3d6000fd5b505050600683015462001f0b91506001600160a01b0316863362002e34565b6040518581526001600160a01b0387169033907f989eaa915cbb416ea3d6f9a63b1a3de51770c7674b11fe21ecdf76b4e1d13910906020015b60405180910390a3505050505050565b6067818154811062001f6557600080fd5b6000918252602090912001546001600160a01b0316905081565b6001600160a01b038381166000908152606860209081526040808320606a835281842087861685529092528083206003830154835492516370a0823160e01b81523060048201529495869560609587959094939286929116906370a082319060240160206040518083038186803b15801562001ffa57600080fd5b505afa1580156200200f573d6000803e3d6000fd5b505050506040513d601f19601f8201168201806040525081019062002035919062003799565b90508360020154421180156200204a57508015155b15620020c9576000846002015442620020649190620039fc565b90506000606b54866001015460665484620020809190620039da565b6200208c9190620039da565b620020989190620039b9565b905082620020ac8264e8d4a51000620039da565b620020b89190620039b9565b620020c490856200399e565b935050505b6001830154835464e8d4a5100090620020e4908590620039da565b620020f09190620039b9565b620020fc9190620039fc565b60048501549098506001600160a01b031615620022225788896001600160a01b03166395d89b416040518163ffffffff1660e01b815260040160006040518083038186803b1580156200214e57600080fd5b505afa15801562002163573d6000803e3d6000fd5b505050506040513d6000823e601f3d908101601f191682016040526200218d9190810190620036d6565b60048681015460405163211dc32d60e01b81526001600160a01b038f8116938201939093528d83166024820152939a50919850169063211dc32d9060440160206040518083038186803b158015620021e457600080fd5b505afa158015620021f9573d6000803e3d6000fd5b505050506040513d601f19601f820116820180604052508101906200221f919062003799565b94505b5050505093509350935093565b6001600160a01b038084166000908152606860209081526040808320606a835281842033808652935292206006830154929390926200227392911690869062002e6d565b6006820154604051630ec9c06f60e01b815260048101869052602481018590523360448201526001600160a01b0390911690630ec9c06f90606401600060405180830381600087803b158015620022c957600080fd5b505af1158015620022de573d6000803e3d6000fd5b50505050838160020154620022f491906200399e565b60028201556040518481526001600160a01b0386169033907fe6e0ef9cd056ca98561ca60e347ada61e1ede2f1142a078951b7a52e1e508e609060200162000cde565b6001600160a01b038381166000908152606860209081526040808320606a83528184208686168552909252909120600582015491929091163314620023bf5760405162461bcd60e51b815260206004820152601f60248201527f4f6e6c792068656c7065722063616e2063616c6c206465706f736974466f720060448201526064016200077d565b8154620023d8906001600160a01b031633308762002d05565b620023e38562001836565b80541562002473576000816001015464e8d4a51000846003015484600001546200240e9190620039da565b6200241a9190620039b9565b620024269190620039fc565b905062002434848262002b48565b856001600160a01b0316846001600160a01b0316600080516020620055a1833981519152836040516200246991815260200190565b60405180910390a3505b8054620024829085906200399e565b81556002810154620024969085906200399e565b60028201556003820154815464e8d4a5100091620024b491620039da565b620024c09190620039b9565b60018201556001600160a01b038086166000908152606860205260409020600401541684158015620024fa57506001600160a01b03811615155b156200258657604051630c00007b60e41b81526001600160a01b03858116600483015282169063c00007b090602401602060405180830381600087803b1580156200254457600080fd5b505af115801562002559573d6000803e3d6000fd5b505050506040513d601f19601f820116820180604052508101906200257f9190620036b7565b5062000e3e565b6001600160a01b038116156200269e576040516305dc812160e31b81526001600160a01b03858116600483015260248201879052821690632ee4090890604401602060405180830381600087803b158015620025e157600080fd5b505af1158015620025f6573d6000803e3d6000fd5b505050506040513d601f19601f820116820180604052508101906200261c9190620036b7565b50604051630c00007b60e41b81526001600160a01b03858116600483015282169063c00007b090602401602060405180830381600087803b1580156200266157600080fd5b505af115801562002676573d6000803e3d6000fd5b505050506040513d601f19601f820116820180604052508101906200269c9190620036b7565b505b856001600160a01b0316846001600160a01b03167f5548c837ab068cf56a2c2479df0882a4922fd203edb7517321831d95078c5f628760405162001f4491815260200190565b6033546001600160a01b03163314620027115760405162461bcd60e51b81526004016200077d90620038b5565b606d805460ff19166001179055565b606d5460ff16620027745760405162461bcd60e51b815260206004820152601f60248201527f5265616c20656d20616c6c6f77656420696620656d57697468206661696c730060448201526064016200077d565b6001600160a01b038082166000908152606860209081526040808320606a835281842033808652935290832060028101805494905581549194909392620027c092909116908362002d72565b6040518181526001600160a01b0385169033907ff24ef89f38eadc1bde50701ad6e4d6d11a2dc24f7cf834a486991f38833285049060200160405180910390a381546200280f908290620039fc565b808355600384015464e8d4a51000916200282a9190620039da565b620028369190620039b9565b826001018190555050505050565b6033546001600160a01b03163314620028715760405162461bcd60e51b81526004016200077d90620038b5565b6001600160a01b03919091166000908152606e60205260409020805460ff1916911515919091179055565b6033546001600160a01b03163314620028c95760405162461bcd60e51b81526004016200077d90620038b5565b6001600160a01b038116620029305760405162461bcd60e51b815260206004820152602660248201527f4f776e61626c653a206e6577206f776e657220697320746865207a65726f206160448201526564647265737360d01b60648201526084016200077d565b6200293b8162002da4565b50565b6001600160a01b0382166000908152606860209081526040808320606a83528184203385529092529091206002810154831115620029905760405162461bcd60e51b81526004016200077d90620038ea565b6200299b8462001836565b6000816001015464e8d4a5100084600301548460000154620029be9190620039da565b620029ca9190620039b9565b620029d69190620039fc565b9050620029e4338262002b48565b6040518181526001600160a01b038616903390600080516020620055a18339815191529060200160405180910390a3815462002a22908590620039fc565b8255600282015462002a36908590620039fc565b60028301556003830154825464e8d4a510009162002a5491620039da565b62002a609190620039b9565b60018301556001600160a01b0380861660009081526068602052604090206004015416801562002af257604051630e19c69960e01b81526001600160a01b03821690630e19c6999062002abd903390899060019060040162003851565b600060405180830381600087803b15801562002ad857600080fd5b505af115801562002aed573d6000803e3d6000fd5b505050505b835462002b0a906001600160a01b0316338762002d72565b6040518581526001600160a01b0387169033907f9b1bfa7fa9ee420a16e124f794c35ac9f90472acc99140eb2f6447c714cad8eb9060200162001f44565b6065546040516340c10f1960e01b8152306004820152602481018390526001600160a01b03909116906340c10f1990604401600060405180830381600087803b15801562002b9557600080fd5b505af115801562002baa573d6000803e3d6000fd5b50506065546040516370a0823160e01b8152306004820152600093506001600160a01b0390911691506370a082319060240160206040518083038186803b15801562002bf557600080fd5b505afa15801562002c0a573d6000803e3d6000fd5b505050506040513d601f19601f8201168201806040525081019062002c30919062003799565b90508082111562002cc65760655460405163a9059cbb60e01b81526001600160a01b038581166004830152602482018490529091169063a9059cbb906044015b602060405180830381600087803b15801562002c8b57600080fd5b505af115801562002ca0573d6000803e3d6000fd5b505050506040513d601f19601f8201168201806040525081019062001b4b9190620036b7565b60655460405163a9059cbb60e01b81526001600160a01b038581166004830152602482018590529091169063a9059cbb9060440162002c70565b505050565b6040516001600160a01b038085166024830152831660448201526064810182905262001b4b9085906323b872dd60e01b906084015b60408051601f198184030181529190526020810180516001600160e01b03166001600160e01b03199093169290921790915262003077565b6040516001600160a01b03831660248201526044810182905262002d0090849063a9059cbb60e01b9060640162002d3a565b603380546001600160a01b038381166001600160a01b0319831681179093556040519116919082907f8be0079c531659141344cd1fd0a4f28419497f9722a3daafe3b4186f6b6457e090600090a35050565b600054610100900460ff1662002e205760405162461bcd60e51b81526004016200077d9062003916565b62002e2a62003150565b620018346200317a565b6001600160a01b038084166000908152606860209081526040808320606a83528184209486168452939091529020620023e38562001836565b6001600160a01b038084166000908152606860209081526040808320606a83528184209486168452939091529020600281015484111562002ec25760405162461bcd60e51b81526004016200077d90620038ea565b62002ecd8562001836565b6000816001015464e8d4a510008460030154846000015462002ef09190620039da565b62002efc9190620039b9565b62002f089190620039fc565b905062002f16848262002b48565b856001600160a01b0316846001600160a01b0316600080516020620055a18339815191528360405162002f4b91815260200190565b60405180910390a3815462002f62908690620039fc565b8255600282015462002f76908690620039fc565b60028301556003830154825464e8d4a510009162002f9491620039da565b62002fa09190620039b9565b60018301556001600160a01b038087166000908152606860205260409020600401541680156200165157604051630e19c69960e01b81526001600160a01b03821690630e19c6999062002ffd9088908a9060019060040162003851565b600060405180830381600087803b1580156200301857600080fd5b505af11580156200302d573d6000803e3d6000fd5b50505050866001600160a01b0316856001600160a01b03167f9b1bfa7fa9ee420a16e124f794c35ac9f90472acc99140eb2f6447c714cad8eb886040516200169791815260200190565b6000620030ce826040518060400160405280602081526020017f5361666545524332303a206c6f772d6c6576656c2063616c6c206661696c6564815250856001600160a01b0316620031af9092919063ffffffff16565b80519091501562002d005780806020019051810190620030ef9190620036b7565b62002d005760405162461bcd60e51b815260206004820152602a60248201527f5361666545524332303a204552433230206f7065726174696f6e20646964206e6044820152691bdd081cdd58d8d9595960b21b60648201526084016200077d565b600054610100900460ff16620018345760405162461bcd60e51b81526004016200077d9062003916565b600054610100900460ff16620031a45760405162461bcd60e51b81526004016200077d9062003916565b620018343362002da4565b6060620031c08484600085620031ca565b90505b9392505050565b6060824710156200322d5760405162461bcd60e51b815260206004820152602660248201527f416464726573733a20696e73756666696369656e742062616c616e636520666f6044820152651c8818d85b1b60d21b60648201526084016200077d565b6001600160a01b0385163b620032865760405162461bcd60e51b815260206004820152601d60248201527f416464726573733a2063616c6c20746f206e6f6e2d636f6e747261637400000060448201526064016200077d565b600080866001600160a01b03168587604051620032a4919062003833565b60006040518083038185875af1925050503d8060008114620032e3576040519150601f19603f3d011682016040523d82523d6000602084013e620032e8565b606091505b5091509150620032fa82828662003305565b979650505050505050565b6060831562003316575081620031c3565b825115620033275782518084602001fd5b8160405162461bcd60e51b81526004016200077d919062003874565b611b028062003a9f83390190565b80356001600160a01b03811681146200336957600080fd5b919050565b60008083601f84011262003380578081fd5b50813567ffffffffffffffff81111562003398578182fd5b6020830191508360208260051b8501011115620033b457600080fd5b9250929050565b600060208284031215620033cd578081fd5b620031c38262003351565b60008060408385031215620033eb578081fd5b620033f68362003351565b9150620034066020840162003351565b90509250929050565b60008060006060848603121562003424578081fd5b6200342f8462003351565b92506200343f6020850162003351565b91506200344f6040850162003351565b90509250925092565b60008060008060006060868803121562003470578081fd5b6200347b8662003351565b9450602086013567ffffffffffffffff8082111562003498578283fd5b620034a689838a016200336e565b90965094506040880135915080821115620034bf578283fd5b50620034ce888289016200336e565b969995985093965092949392505050565b60008060408385031215620034f2578182fd5b620034fd8362003351565b915060208301356200350f8162003a8f565b809150509250929050565b600080604083850312156200352d578182fd5b620035388362003351565b946020939093013593505050565b6000806000606084860312156200355b578283fd5b620035668462003351565b9250602084013591506200344f6040850162003351565b600080600080600060a0868803121562003595578081fd5b620035a08662003351565b945060208601359350620035b76040870162003351565b9250620035c76060870162003351565b91506080860135620035d98162003a8f565b809150509295509295909350565b600080600060608486031215620035fc578283fd5b620036078462003351565b95602085013595506040909401359392505050565b6000806000806080858703121562003632578384fd5b6200363d8562003351565b9350602085013592506040850135915060608501356200365d8162003a8f565b939692955090935050565b6000806000604084860312156200367d578081fd5b833567ffffffffffffffff81111562003694578182fd5b620036a2868287016200336e565b90945092506200344f90506020850162003351565b600060208284031215620036c9578081fd5b8151620031c38162003a8f565b600060208284031215620036e8578081fd5b815167ffffffffffffffff8082111562003700578283fd5b818401915084601f83011262003714578283fd5b81518181111562003729576200372962003a79565b604051601f8201601f19908116603f0116810190838211818310171562003754576200375462003a79565b816040528281528760208487010111156200376d578586fd5b620032fa83602083016020880162003a16565b60006020828403121562003792578081fd5b5035919050565b600060208284031215620037ab578081fd5b5051919050565b60008060008060808587031215620037c8578182fd5b84359350620037da6020860162003351565b9250620037ea6040860162003351565b9150620037fa6060860162003351565b905092959194509250565b600081518084526200381f81602086016020860162003a16565b601f01601f19169290920160200192915050565b600082516200384781846020870162003a16565b9190910192915050565b6001600160a01b0393909316835260208301919091521515604082015260600190565b602081526000620031c3602083018462003805565b6020808252601290820152712737ba1030902837b7b61026b0b730b3b2b960711b604082015260600190565b6020808252818101527f4f776e61626c653a2063616c6c6572206973206e6f7420746865206f776e6572604082015260600190565b6020808252601290820152711dda5d1a191c985dce881b9bdd0819dbdbd960721b604082015260600190565b6020808252602b908201527f496e697469616c697a61626c653a20636f6e7472616374206973206e6f74206960408201526a6e697469616c697a696e6760a81b606082015260800190565b8481526001600160a01b03841660208201526080604082018190526000906200398d9083018562003805565b905082606083015295945050505050565b60008219821115620039b457620039b462003a63565b500190565b600082620039d557634e487b7160e01b81526012600452602481fd5b500490565b6000816000190483118215151615620039f757620039f762003a63565b500290565b60008282101562003a115762003a1162003a63565b500390565b60005b8381101562003a3357818101518382015260200162003a19565b8381111562001b4b5750506000910152565b600060001982141562003a5c5762003a5c62003a63565b5060010190565b634e487b7160e01b600052601160045260246000fd5b634e487b7160e01b600052604160045260246000fd5b80151581146200293b57600080fdfe60e06040523480156200001157600080fd5b5060405162001b0238038062001b0283398101604081905262000034916200018e565b6200003f3362000121565b6001600160601b0319606094851b8116608090815292851b811660a0526040805193840181526001600160a01b0394851680855260006020808701828152878501838152888b018481528585526005845286852099518a549b166001600160a01b03199b8c16178a5591516001808b019190915590516002808b0191909155915160039099019890985580548089019091557f405787fa12a823e0f2b7631cc41b3ba8828b3321ca811111fa75cd3aa3bb5ace01805490981683179097559081526008909552909320805460ff191690921790915590911b1660c052620001ea565b600080546001600160a01b038381166001600160a01b0319831681178455604051919092169283917f8be0079c531659141344cd1fd0a4f28419497f9722a3daafe3b4186f6b6457e09190a35050565b80516001600160a01b03811681146200018957600080fd5b919050565b60008060008060808587031215620001a4578384fd5b620001af8562000171565b9350620001bf6020860162000171565b9250620001cf6040860162000171565b9150620001df6060860162000171565b905092959194509250565b60805160601c60a05160601c60c05160601c6118b56200024d6000396000818161023e0152610cd50152600081816102bd01528181610553015281816109690152610f07015260008181610353015281816103c1015261103801526118b56000f3fe608060405234801561001057600080fd5b506004361061018e5760003560e01c806372f702f3116100de578063a980356a11610097578063c11f534411610071578063c11f534414610446578063f12297771461044e578063f2fde38b14610461578063f3fc7c2b1461047457600080fd5b8063a980356a146103e5578063b5fd73f814610410578063c00007b01461043357600080fd5b806372f702f31461034e5780637bb7bed1146103755780638da5cb5b146103885780638fcf48221461039957806399da1729146103ac5780639f9106d1146103bf57600080fd5b8063211dc32d1161014b5780635bc59ce7116101255780635bc59ce7146102df5780637035ab98146102f257806370a082311461031d578063715018a61461034657600080fd5b8063211dc32d146102925780632ee40908146102a5578063570ca735146102b857600080fd5b80630700037d146101935780630e0a5968146102015780630e19c699146102165780630f4ef8a61461023957806318160ddd1461027857806318838d331461028a575b600080fd5b6101d26101a136600461151a565b60056020526000908152604090208054600182015460028301546003909301546001600160a01b0390921692909184565b604080516001600160a01b03909516855260208501939093529183015260608201526080015b60405180910390f35b61021461020f36600461151a565b610487565b005b61022961022436600461158f565b610546565b60405190151581526020016101f8565b6102607f000000000000000000000000000000000000000000000000000000000000000081565b6040516001600160a01b0390911681526020016101f8565b6003545b6040519081526020016101f8565b6102296106ff565b61027c6102a0366004611534565b6108a8565b6102296102b3366004611566565b61095c565b6102607f000000000000000000000000000000000000000000000000000000000000000081565b6102296102ed366004611602565b610afa565b61027c610300366004611534565b600660209081526000928352604080842090915290825290205481565b61027c61032b36600461151a565b6001600160a01b031660009081526004602052604090205490565b610214610c38565b6102607f000000000000000000000000000000000000000000000000000000000000000081565b6102606103833660046115ea565b610c9e565b6000546001600160a01b0316610260565b6102296103a7366004611602565b610cc8565b61027c6103ba36600461151a565b610dc1565b7f0000000000000000000000000000000000000000000000000000000000000000610260565b61027c6103f3366004611534565b600760209081526000928352604080842090915290825290205481565b61022961041e36600461151a565b60086020526000908152604090205460ff1681565b61022961044136600461151a565b610e3d565b61027c611034565b61027c61045c36600461151a565b6110cf565b61021461046f36600461151a565b6110ed565b600154610260906001600160a01b031681565b60025460005b81811015610541576000600282815481106104b857634e487b7160e01b600052603260045260246000fd5b6000918252602090912001546001600160a01b031690506104d984826108a8565b6001600160a01b03808316600090815260076020908152604080832093891683529290522055610508816110cf565b6001600160a01b0391821660009081526006602090815260408083209488168352939052919091205561053a81611840565b905061048d565b505050565b6000336001600160a01b037f000000000000000000000000000000000000000000000000000000000000000016146105995760405162461bcd60e51b815260040161059090611694565b60405180910390fd5b600254849060005b81811015610655576000600282815481106105cc57634e487b7160e01b600052603260045260246000fd5b6000918252602090912001546001600160a01b031690506105ed84826108a8565b6001600160a01b0380831660009081526007602090815260408083209389168352929052205561061c816110cf565b6001600160a01b0391821660009081526006602090815260408083209488168352939052919091205561064e81611840565b90506105a1565b508460035461066491906117fd565b6003556001600160a01b03861660009081526004602052604090205461068b9086906117fd565b6001600160a01b038716600081815260046020526040908190209290925590517f7084f5476618d8e60b11ef0d7d3f06914655adb8793e28ff7f018d4c76d505d5906106da9088815260200190565b60405180910390a283156106f3576106f186610e3d565b505b50600195945050505050565b6002546000903390825b818110156107bd5760006002828154811061073457634e487b7160e01b600052603260045260246000fd5b6000918252602090912001546001600160a01b0316905061075584826108a8565b6001600160a01b03808316600090815260076020908152604080832093891683529290522055610784816110cf565b6001600160a01b039182166000908152600660209081526040808320948816835293905291909120556107b681611840565b9050610709565b5060025460005b8181101561089d576000600282815481106107ef57634e487b7160e01b600052603260045260246000fd5b60009182526020822001546001600160a01b0316915061080f33836108a8565b9050801561088a576001600160a01b03821660008181526007602090815260408083203380855292528220919091556108499190836111b8565b6040518181526001600160a01b0383169033907f8e0d3fa908fd7ee819155b3ce71e292b601bbeb0cd00d7758b9d226a523cb8279060200160405180910390a35b50508061089690611840565b90506107c4565b506001935050505090565b6001600160a01b0380821660009081526007602090815260408083209386168352929052908120546108d8611034565b6108e390600a611736565b6001600160a01b03808516600090815260066020908152604080832093891683529290522054610912856110cf565b61091c91906117fd565b6001600160a01b03861660009081526004602052604090205461093f91906117de565b61094991906116d3565b61095391906116bb565b90505b92915050565b6000336001600160a01b037f000000000000000000000000000000000000000000000000000000000000000016146109a65760405162461bcd60e51b815260040161059090611694565b600254839060005b81811015610a62576000600282815481106109d957634e487b7160e01b600052603260045260246000fd5b6000918252602090912001546001600160a01b031690506109fa84826108a8565b6001600160a01b03808316600090815260076020908152604080832093891683529290522055610a29816110cf565b6001600160a01b03918216600090815260066020908152604080832094881683529390529190912055610a5b81611840565b90506109ae565b5083600354610a7191906116bb565b6003556001600160a01b038516600090815260046020526040902054610a989085906116bb565b6001600160a01b038616600081815260046020526040908190209290925590517f9e71bc8eea02a63969f509818f2dafb9254532904319f9dbda79b67bd34a5f3d90610ae79087815260200190565b60405180910390a2506001949350505050565b6001600160a01b03811660009081526008602052604081205460ff16610b1f57600080fd5b610b346001600160a01b03831633308661121b565b6001600160a01b03821660009081526005602052604090206003810154610b5c9085906116bb565b60038083019190915554610b895783816002016000828254610b7e91906116bb565b90915550610beb9050565b600281015415610bac576002810154610ba290856116bb565b6000600283015593505b600354610bb7611034565b610bc290600a611736565b610bcc90866117de565b610bd691906116d3565b8160010154610be591906116bb565b60018201555b826001600160a01b03167ffb5edb6eb340a01f6a67189edc978df97841c43752c212fc85995ea23001763585604051610c2691815260200190565b60405180910390a25060019392505050565b6000546001600160a01b03163314610c925760405162461bcd60e51b815260206004820181905260248201527f4f776e61626c653a2063616c6c6572206973206e6f7420746865206f776e65726044820152606401610590565b610c9c6000611259565b565b60028181548110610cae57600080fd5b6000918252602090912001546001600160a01b0316905081565b6000336001600160a01b037f00000000000000000000000000000000000000000000000000000000000000001614610d315760405162461bcd60e51b815260206004820152600c60248201526b27b7363c9026b0b730b3b2b960a11b6044820152606401610590565b6001600160a01b03821660009081526008602052604090205460ff16610b1f576002805460018082019092557f405787fa12a823e0f2b7631cc41b3ba8828b3321ca811111fa75cd3aa3bb5ace0180546001600160a01b0319166001600160a01b0385169081179091556000818152600860205260409020805460ff1916909217909155610b349033308661121b565b6000816001600160a01b031663313ce5676040518163ffffffff1660e01b815260040160206040518083038186803b158015610dfc57600080fd5b505afa158015610e10573d6000803e3d6000fd5b505050506040513d601f19601f82011682018060405250810190610e349190611624565b60ff1692915050565b6002546000908290825b81811015610efb57600060028281548110610e7257634e487b7160e01b600052603260045260246000fd5b6000918252602090912001546001600160a01b03169050610e9384826108a8565b6001600160a01b03808316600090815260076020908152604080832093891683529290522055610ec2816110cf565b6001600160a01b03918216600090815260066020908152604080832094881683529390529190912055610ef481611840565b9050610e47565b50336001600160a01b037f00000000000000000000000000000000000000000000000000000000000000001614610f445760405162461bcd60e51b815260040161059090611694565b60025460005b818110156106f357600060028281548110610f7557634e487b7160e01b600052603260045260246000fd5b60009182526020822001546001600160a01b03169150610f9588836108a8565b90508015611021576001600160a01b038083166000818152600760209081526040808320948d16835293905291822091909155610fd39089836111b8565b816001600160a01b0316886001600160a01b03167f8e0d3fa908fd7ee819155b3ce71e292b601bbeb0cd00d7758b9d226a523cb8278360405161101891815260200190565b60405180910390a35b50508061102d90611840565b9050610f4a565b60007f00000000000000000000000000000000000000000000000000000000000000006001600160a01b031663313ce5676040518163ffffffff1660e01b815260040160206040518083038186803b15801561108f57600080fd5b505afa1580156110a3573d6000803e3d6000fd5b505050506040513d601f19601f820116820180604052508101906110c79190611624565b60ff16905090565b6001600160a01b031660009081526005602052604090206001015490565b6000546001600160a01b031633146111475760405162461bcd60e51b815260206004820181905260248201527f4f776e61626c653a2063616c6c6572206973206e6f7420746865206f776e65726044820152606401610590565b6001600160a01b0381166111ac5760405162461bcd60e51b815260206004820152602660248201527f4f776e61626c653a206e6577206f776e657220697320746865207a65726f206160448201526564647265737360d01b6064820152608401610590565b6111b581611259565b50565b6040516001600160a01b03831660248201526044810182905261054190849063a9059cbb60e01b906064015b60408051601f198184030181529190526020810180516001600160e01b03166001600160e01b0319909316929092179091526112a9565b6040516001600160a01b03808516602483015283166044820152606481018290526112539085906323b872dd60e01b906084016111e4565b50505050565b600080546001600160a01b038381166001600160a01b0319831681178455604051919092169283917f8be0079c531659141344cd1fd0a4f28419497f9722a3daafe3b4186f6b6457e09190a35050565b60006112fe826040518060400160405280602081526020017f5361666545524332303a206c6f772d6c6576656c2063616c6c206661696c6564815250856001600160a01b031661137b9092919063ffffffff16565b805190915015610541578080602001905181019061131c91906115ce565b6105415760405162461bcd60e51b815260206004820152602a60248201527f5361666545524332303a204552433230206f7065726174696f6e20646964206e6044820152691bdd081cdd58d8d9595960b21b6064820152608401610590565b606061138a8484600085611394565b90505b9392505050565b6060824710156113f55760405162461bcd60e51b815260206004820152602660248201527f416464726573733a20696e73756666696369656e742062616c616e636520666f6044820152651c8818d85b1b60d21b6064820152608401610590565b6001600160a01b0385163b61144c5760405162461bcd60e51b815260206004820152601d60248201527f416464726573733a2063616c6c20746f206e6f6e2d636f6e74726163740000006044820152606401610590565b600080866001600160a01b031685876040516114689190611645565b60006040518083038185875af1925050503d80600081146114a5576040519150601f19603f3d011682016040523d82523d6000602084013e6114aa565b606091505b50915091506114ba8282866114c5565b979650505050505050565b606083156114d457508161138d565b8251156114e45782518084602001fd5b8160405162461bcd60e51b81526004016105909190611661565b80356001600160a01b038116811461151557600080fd5b919050565b60006020828403121561152b578081fd5b610953826114fe565b60008060408385031215611546578081fd5b61154f836114fe565b915061155d602084016114fe565b90509250929050565b60008060408385031215611578578182fd5b611581836114fe565b946020939093013593505050565b6000806000606084860312156115a3578081fd5b6115ac846114fe565b92506020840135915060408401356115c381611871565b809150509250925092565b6000602082840312156115df578081fd5b815161138d81611871565b6000602082840312156115fb578081fd5b5035919050565b60008060408385031215611614578182fd5b8235915061155d602084016114fe565b600060208284031215611635578081fd5b815160ff8116811461138d578182fd5b60008251611657818460208701611814565b9190910192915050565b6020815260008251806020840152611680816040850160208701611814565b601f01601f19169190910160400192915050565b6020808252600d908201526c27b7363c9027b832b930ba37b960991b604082015260600190565b600082198211156116ce576116ce61185b565b500190565b6000826116ee57634e487b7160e01b81526012600452602481fd5b500490565b600181815b8085111561172e5781600019048211156117145761171461185b565b8085161561172157918102915b93841c93908002906116f8565b509250929050565b6000610953838360008261174c57506001610956565b8161175957506000610956565b816001811461176f576002811461177957611795565b6001915050610956565b60ff84111561178a5761178a61185b565b50506001821b610956565b5060208310610133831016604e8410600b84101617156117b8575081810a610956565b6117c283836116f3565b80600019048211156117d6576117d661185b565b029392505050565b60008160001904831182151516156117f8576117f861185b565b500290565b60008282101561180f5761180f61185b565b500390565b60005b8381101561182f578181015183820152602001611817565b838111156112535750506000910152565b60006000198214156118545761185461185b565b5060010190565b634e487b7160e01b600052601160045260246000fd5b80151581146111b557600080fdfea264697066735822122083fa8f4f6765682376d6660bb31b0203ea032c76430a1e1ba3df6712ddf2ea7664736f6c63430008040033a0306f61d3fafe13787b78e276cb6b644382854a66cb46daae14227d3ec26797a26469706673582212201f7cebadfce8f7a18ce626fcf575e479156f0a121417f26520ebe4f6c0494e1f64736f6c63430008040033",
  "linkReferences": {},
  "deployedLinkReferences": {}
}