{
  "_format": "hh-sol-artifact-1",
  "contractName": "PoolHelper",
  "sourceName": "contracts/MainProtocol/interfaces/poolHelper.sol",
  "abi": [
    {
      "inputs": [
        {
          "internalType": "uint256",
          "name": "_pid",
          "type": "uint256"
        },
        {
          "internalType": "address",
          "name": "_stakingToken",
          "type": "address"
        },
        {
          "internalType": "address",
          "name": "_depositToken",
          "type": "address"
        },
        {
          "internalType": "address",
          "name": "_mainStaking",
          "type": "address"
        },
        {
          "internalType": "address",
          "name": "_masterChef",
          "type": "address"
        },
        {
          "internalType": "address",
          "name": "_rewarder",
          "type": "address"
        },
        {
          "internalType": "address",
          "name": "_rjoe",
          "type": "address"
        }
      ],
      "stateMutability": "nonpayable",
      "type": "constructor"
    },
    {
      "anonymous": false,
      "inputs": [
        {
          "indexed": true,
          "internalType": "address",
          "name": "user",
          "type": "address"
        },
        {
          "indexed": false,
          "internalType": "uint256",
          "name": "amount",
          "type": "uint256"
        }
      ],
      "name": "NewDeposit",
      "type": "event"
    },
    {
      "anonymous": false,
      "inputs": [
        {
          "indexed": true,
          "internalType": "address",
          "name": "user",
          "type": "address"
        },
        {
          "indexed": false,
          "internalType": "uint256",
          "name": "amount",
          "type": "uint256"
        }
      ],
      "name": "NewWithdraw",
      "type": "event"
    },
    {
      "inputs": [
        {
          "internalType": "address",
          "name": "_address",
          "type": "address"
        }
      ],
      "name": "balance",
      "outputs": [
        {
          "internalType": "uint256",
          "name": "",
          "type": "uint256"
        }
      ],
      "stateMutability": "view",
      "type": "function"
    },
    {
      "inputs": [
        {
          "internalType": "uint256",
          "name": "amount",
          "type": "uint256"
        }
      ],
      "name": "deposit",
      "outputs": [],
      "stateMutability": "nonpayable",
      "type": "function"
    },
    {
      "inputs": [],
      "name": "depositToken",
      "outputs": [
        {
          "internalType": "address",
          "name": "",
          "type": "address"
        }
      ],
      "stateMutability": "view",
      "type": "function"
    },
    {
      "inputs": [],
      "name": "depositTokenBalance",
      "outputs": [
        {
          "internalType": "uint256",
          "name": "",
          "type": "uint256"
        }
      ],
      "stateMutability": "view",
      "type": "function"
    },
    {
      "inputs": [
        {
          "internalType": "address",
          "name": "token",
          "type": "address"
        }
      ],
      "name": "earned",
      "outputs": [
        {
          "internalType": "uint256",
          "name": "vtxAmount",
          "type": "uint256"
        },
        {
          "internalType": "uint256",
          "name": "tokenAmount",
          "type": "uint256"
        }
      ],
      "stateMutability": "view",
      "type": "function"
    },
    {
      "inputs": [],
      "name": "getReward",
      "outputs": [],
      "stateMutability": "nonpayable",
      "type": "function"
    },
    {
      "inputs": [],
      "name": "harvest",
      "outputs": [],
      "stateMutability": "nonpayable",
      "type": "function"
    },
    {
      "inputs": [],
      "name": "mainStaking",
      "outputs": [
        {
          "internalType": "address",
          "name": "",
          "type": "address"
        }
      ],
      "stateMutability": "view",
      "type": "function"
    },
    {
      "inputs": [],
      "name": "masterChef",
      "outputs": [
        {
          "internalType": "address",
          "name": "",
          "type": "address"
        }
      ],
      "stateMutability": "view",
      "type": "function"
    },
    {
      "inputs": [],
      "name": "pendingJOE",
      "outputs": [
        {
          "internalType": "uint256",
          "name": "pendingTokens",
          "type": "uint256"
        }
      ],
      "stateMutability": "view",
      "type": "function"
    },
    {
      "inputs": [],
      "name": "pid",
      "outputs": [
        {
          "internalType": "uint256",
          "name": "",
          "type": "uint256"
        }
      ],
      "stateMutability": "view",
      "type": "function"
    },
    {
      "inputs": [
        {
          "internalType": "address",
          "name": "token",
          "type": "address"
        }
      ],
      "name": "rewardPerToken",
      "outputs": [
        {
          "internalType": "uint256",
          "name": "",
          "type": "uint256"
        }
      ],
      "stateMutability": "view",
      "type": "function"
    },
    {
      "inputs": [],
      "name": "rewarder",
      "outputs": [
        {
          "internalType": "address",
          "name": "",
          "type": "address"
        }
      ],
      "stateMutability": "view",
      "type": "function"
    },
    {
      "inputs": [],
      "name": "rjoe",
      "outputs": [
        {
          "internalType": "address",
          "name": "",
          "type": "address"
        }
      ],
      "stateMutability": "view",
      "type": "function"
    },
    {
      "inputs": [
        {
          "internalType": "uint256",
          "name": "_amount",
          "type": "uint256"
        }
      ],
      "name": "stake",
      "outputs": [],
      "stateMutability": "nonpayable",
      "type": "function"
    },
    {
      "inputs": [],
      "name": "stakingToken",
      "outputs": [
        {
          "internalType": "address",
          "name": "",
          "type": "address"
        }
      ],
      "stateMutability": "view",
      "type": "function"
    },
    {
      "inputs": [],
      "name": "totalSupply",
      "outputs": [
        {
          "internalType": "uint256",
          "name": "",
          "type": "uint256"
        }
      ],
      "stateMutability": "view",
      "type": "function"
    },
    {
      "inputs": [],
      "name": "update",
      "outputs": [],
      "stateMutability": "nonpayable",
      "type": "function"
    },
    {
      "inputs": [
        {
          "internalType": "uint256",
          "name": "amount",
          "type": "uint256"
        }
      ],
      "name": "withdraw",
      "outputs": [],
      "stateMutability": "nonpayable",
      "type": "function"
    }
  ],
  "bytecode": "0x6101606040523480156200001257600080fd5b5060405162002698380380620026988339818101604052810190620000389190620001c8565b8661014081815250508573ffffffffffffffffffffffffffffffffffffffff1660a08173ffffffffffffffffffffffffffffffffffffffff1660601b815250508473ffffffffffffffffffffffffffffffffffffffff1660808173ffffffffffffffffffffffffffffffffffffffff1660601b815250508373ffffffffffffffffffffffffffffffffffffffff166101008173ffffffffffffffffffffffffffffffffffffffff1660601b815250508273ffffffffffffffffffffffffffffffffffffffff1660e08173ffffffffffffffffffffffffffffffffffffffff1660601b815250508173ffffffffffffffffffffffffffffffffffffffff166101208173ffffffffffffffffffffffffffffffffffffffff1660601b815250508073ffffffffffffffffffffffffffffffffffffffff1660c08173ffffffffffffffffffffffffffffffffffffffff1660601b8152505050505050505050620002e7565b600081519050620001ab81620002b3565b92915050565b600081519050620001c281620002cd565b92915050565b600080600080600080600060e0888a031215620001e457600080fd5b6000620001f48a828b01620001b1565b9750506020620002078a828b016200019a565b96505060406200021a8a828b016200019a565b95505060606200022d8a828b016200019a565b9450506080620002408a828b016200019a565b93505060a0620002538a828b016200019a565b92505060c0620002668a828b016200019a565b91505092959891949750929550565b6000620002828262000289565b9050919050565b600073ffffffffffffffffffffffffffffffffffffffff82169050919050565b6000819050919050565b620002be8162000275565b8114620002ca57600080fd5b50565b620002d881620002a9565b8114620002e457600080fd5b50565b60805160601c60a05160601c60c05160601c60e05160601c6101005160601c6101205160601c6101405161222c6200046c6000396000818161106101526112f601526000818161046301528181610a2d0152818161122001528181611246015261131c01526000818161043d01528181610506015281816105be015281816106be0152818161081e01528181610c8701528181610de201528181610fa80152818161108201526111480152600081816103590152818161076c015281816109c101528181610b4301528181610bd5015281816113cc015281816115ca015261165c0152600081816108d0015281816109790152610a09015260008181610395015281816107a8015281816109e501528181610ac001528181610b0701528181610c1101528181610d3701528181610e93015281816114080152818161158e0152611698015260008181610542015281816105fa015281816106fa0152818161085a01528181610cc301528181610e1e01528181611122015261118d015261222c6000f3fe608060405234801561001057600080fd5b50600436106101205760003560e01c8063a2e62045116100ad578063cee7b7d211610071578063cee7b7d21461029a578063dcc3e06e146102b8578063e3d670d7146102d6578063f106845414610306578063f12297771461032457610120565b8063a2e620451461021c578063a694fc3a14610226578063b6b55f2514610242578063c4fe336e1461025e578063c89039c51461027c57610120565b80633d18b912116100f45780633d18b912146101ae5780634641257d146101b8578063575a86b2146101c257806372f702f3146101e057806392c87f5f146101fe57610120565b80628cc262146101255780631208e15b1461015657806318160ddd146101745780632e1a7d4d14610192575b600080fd5b61013f600480360381019061013a9190611a5b565b610354565b60405161014d929190611ed8565b60405180910390f35b61015e61043b565b60405161016b9190611cc9565b60405180910390f35b61017c61045f565b6040516101899190611e94565b60405180910390f35b6101ac60048036038101906101a79190611ad6565b610504565b005b6101b66106bc565b005b6101c061081c565b005b6101ca6109bf565b6040516101d79190611cc9565b60405180910390f35b6101e86109e3565b6040516101f59190611cc9565b60405180910390f35b610206610a07565b6040516102139190611cc9565b60405180910390f35b610224610a2b565b005b610240600480360381019061023b9190611ad6565b610ab8565b005b61025c60048036038101906102579190611ad6565b610c85565b005b610266610fa4565b6040516102739190611e94565b60405180910390f35b610284611120565b6040516102919190611cc9565b60405180910390f35b6102a2611144565b6040516102af9190611e94565b60405180910390f35b6102c061121e565b6040516102cd9190611cc9565b60405180910390f35b6102f060048036038101906102eb9190611a5b565b611242565b6040516102fd9190611e94565b60405180910390f35b61030e6112f4565b60405161031b9190611e94565b60405180910390f35b61033e60048036038101906103399190611a5b565b611318565b60405161034b9190611e94565b60405180910390f35b6000807f000000000000000000000000000000000000000000000000000000000000000073ffffffffffffffffffffffffffffffffffffffff1663ad05e6277f000000000000000000000000000000000000000000000000000000000000000033866040518463ffffffff1660e01b81526004016103d493929190611ce4565b60006040518083038186803b1580156103ec57600080fd5b505afa158015610400573d6000803e3d6000fd5b505050506040513d6000823e3d601f19601f820116820180604052508101906104299190611b28565b90915090508092508193505050915091565b7f000000000000000000000000000000000000000000000000000000000000000081565b60007f000000000000000000000000000000000000000000000000000000000000000073ffffffffffffffffffffffffffffffffffffffff166318160ddd6040518163ffffffff1660e01b815260040160206040518083038186803b1580156104c757600080fd5b505afa1580156104db573d6000803e3d6000fd5b505050506040513d601f19601f820116820180604052508101906104ff9190611aff565b905090565b7f000000000000000000000000000000000000000000000000000000000000000073ffffffffffffffffffffffffffffffffffffffff1663bbf4084e7f000000000000000000000000000000000000000000000000000000000000000060006040518363ffffffff1660e01b8152600401610580929190611d52565b600060405180830381600087803b15801561059a57600080fd5b505af11580156105ae573d6000803e3d6000fd5b505050506105bc81336113ca565b7f000000000000000000000000000000000000000000000000000000000000000073ffffffffffffffffffffffffffffffffffffffff166369328dec7f000000000000000000000000000000000000000000000000000000000000000083336040518463ffffffff1660e01b815260040161063993929190611ddb565b600060405180830381600087803b15801561065357600080fd5b505af1158015610667573d6000803e3d6000fd5b505050503373ffffffffffffffffffffffffffffffffffffffff167fc0eb7a138362772da4d1d9adfe7f13a30f35b960c48ae439f3afcd4d08e81452826040516106b19190611e94565b60405180910390a250565b7f000000000000000000000000000000000000000000000000000000000000000073ffffffffffffffffffffffffffffffffffffffff1663bbf4084e7f000000000000000000000000000000000000000000000000000000000000000060006040518363ffffffff1660e01b8152600401610738929190611d52565b600060405180830381600087803b15801561075257600080fd5b505af1158015610766573d6000803e3d6000fd5b505050507f000000000000000000000000000000000000000000000000000000000000000073ffffffffffffffffffffffffffffffffffffffff1663c8820f6c7f00000000000000000000000000000000000000000000000000000000000000006000336040518463ffffffff1660e01b81526004016107e893929190611d7b565b600060405180830381600087803b15801561080257600080fd5b505af1158015610816573d6000803e3d6000fd5b50505050565b7f000000000000000000000000000000000000000000000000000000000000000073ffffffffffffffffffffffffffffffffffffffff1663bbf4084e7f000000000000000000000000000000000000000000000000000000000000000060016040518363ffffffff1660e01b8152600401610898929190611d52565b600060405180830381600087803b1580156108b257600080fd5b505af11580156108c6573d6000803e3d6000fd5b505050506109bd337f000000000000000000000000000000000000000000000000000000000000000073ffffffffffffffffffffffffffffffffffffffff166370a08231306040518263ffffffff1660e01b81526004016109279190611cc9565b60206040518083038186803b15801561093f57600080fd5b505afa158015610953573d6000803e3d6000fd5b505050506040513d601f19601f820116820180604052508101906109779190611aff565b7f000000000000000000000000000000000000000000000000000000000000000073ffffffffffffffffffffffffffffffffffffffff1661147d9092919063ffffffff16565b565b7f000000000000000000000000000000000000000000000000000000000000000081565b7f000000000000000000000000000000000000000000000000000000000000000081565b7f000000000000000000000000000000000000000000000000000000000000000081565b7f000000000000000000000000000000000000000000000000000000000000000073ffffffffffffffffffffffffffffffffffffffff16630e0a5968336040518263ffffffff1660e01b8152600401610a849190611cc9565b600060405180830381600087803b158015610a9e57600080fd5b505af1158015610ab2573d6000803e3d6000fd5b50505050565b610b053330837f000000000000000000000000000000000000000000000000000000000000000073ffffffffffffffffffffffffffffffffffffffff16611503909392919063ffffffff16565b7f000000000000000000000000000000000000000000000000000000000000000073ffffffffffffffffffffffffffffffffffffffff1663095ea7b37f0000000000000000000000000000000000000000000000000000000000000000836040518363ffffffff1660e01b8152600401610b80929190611db2565b602060405180830381600087803b158015610b9a57600080fd5b505af1158015610bae573d6000803e3d6000fd5b505050506040513d601f19601f82011682018060405250810190610bd29190611aad565b507f000000000000000000000000000000000000000000000000000000000000000073ffffffffffffffffffffffffffffffffffffffff1663c8820f6c7f000000000000000000000000000000000000000000000000000000000000000083336040518463ffffffff1660e01b8152600401610c5093929190611ddb565b600060405180830381600087803b158015610c6a57600080fd5b505af1158015610c7e573d6000803e3d6000fd5b5050505050565b7f000000000000000000000000000000000000000000000000000000000000000073ffffffffffffffffffffffffffffffffffffffff1663bbf4084e7f000000000000000000000000000000000000000000000000000000000000000060006040518363ffffffff1660e01b8152600401610d01929190611d52565b600060405180830381600087803b158015610d1b57600080fd5b505af1158015610d2f573d6000803e3d6000fd5b5050505060007f000000000000000000000000000000000000000000000000000000000000000073ffffffffffffffffffffffffffffffffffffffff166370a08231306040518263ffffffff1660e01b8152600401610d8e9190611cc9565b60206040518083038186803b158015610da657600080fd5b505afa158015610dba573d6000803e3d6000fd5b505050506040513d601f19601f82011682018060405250810190610dde9190611aff565b90507f000000000000000000000000000000000000000000000000000000000000000073ffffffffffffffffffffffffffffffffffffffff1663f45346dc7f000000000000000000000000000000000000000000000000000000000000000084336040518463ffffffff1660e01b8152600401610e5d93929190611ddb565b600060405180830381600087803b158015610e7757600080fd5b505af1158015610e8b573d6000803e3d6000fd5b5050505060007f000000000000000000000000000000000000000000000000000000000000000073ffffffffffffffffffffffffffffffffffffffff166370a08231306040518263ffffffff1660e01b8152600401610eea9190611cc9565b60206040518083038186803b158015610f0257600080fd5b505afa158015610f16573d6000803e3d6000fd5b505050506040513d601f19601f82011682018060405250810190610f3a9190611aff565b9050610f518282610f4b9190611f89565b3361158c565b3373ffffffffffffffffffffffffffffffffffffffff167f2cb77763bc1e8490c1a904905c4d74b4269919aca114464f4bb4d911e60de36484604051610f979190611e94565b60405180910390a2505050565b60007f000000000000000000000000000000000000000000000000000000000000000073ffffffffffffffffffffffffffffffffffffffff16631f9ab83b6040518163ffffffff1660e01b815260040160206040518083038186803b15801561100c57600080fd5b505afa158015611020573d6000803e3d6000fd5b505050506040513d601f19601f820116820180604052508101906110449190611a84565b73ffffffffffffffffffffffffffffffffffffffff1663ffcd42637f00000000000000000000000000000000000000000000000000000000000000007f00000000000000000000000000000000000000000000000000000000000000006040518363ffffffff1660e01b81526004016110be929190611eaf565b60006040518083038186803b1580156110d657600080fd5b505afa1580156110ea573d6000803e3d6000fd5b505050506040513d6000823e3d601f19601f820116820180604052508101906111139190611b28565b9091509050508091505090565b7f000000000000000000000000000000000000000000000000000000000000000081565b60007f000000000000000000000000000000000000000000000000000000000000000073ffffffffffffffffffffffffffffffffffffffff1663f080608861118b33611242565b7f00000000000000000000000000000000000000000000000000000000000000006040518363ffffffff1660e01b81526004016111c9929190611eaf565b60206040518083038186803b1580156111e157600080fd5b505afa1580156111f5573d6000803e3d6000fd5b505050506040513d601f19601f820116820180604052508101906112199190611aff565b905090565b7f000000000000000000000000000000000000000000000000000000000000000081565b60007f000000000000000000000000000000000000000000000000000000000000000073ffffffffffffffffffffffffffffffffffffffff166370a08231836040518263ffffffff1660e01b815260040161129d9190611cc9565b60206040518083038186803b1580156112b557600080fd5b505afa1580156112c9573d6000803e3d6000fd5b505050506040513d601f19601f820116820180604052508101906112ed9190611aff565b9050919050565b7f000000000000000000000000000000000000000000000000000000000000000081565b60007f000000000000000000000000000000000000000000000000000000000000000073ffffffffffffffffffffffffffffffffffffffff1663f1229777836040518263ffffffff1660e01b81526004016113739190611cc9565b60206040518083038186803b15801561138b57600080fd5b505afa15801561139f573d6000803e3d6000fd5b505050506040513d601f19601f820116820180604052508101906113c39190611aff565b9050919050565b7f000000000000000000000000000000000000000000000000000000000000000073ffffffffffffffffffffffffffffffffffffffff16636766efbe7f000000000000000000000000000000000000000000000000000000000000000084846040518463ffffffff1660e01b815260040161144793929190611ddb565b600060405180830381600087803b15801561146157600080fd5b505af1158015611475573d6000803e3d6000fd5b505050505050565b6114fe8363a9059cbb60e01b848460405160240161149c929190611db2565b604051602081830303815290604052907bffffffffffffffffffffffffffffffffffffffffffffffffffffffff19166020820180517bffffffffffffffffffffffffffffffffffffffffffffffffffffffff838183161783525050505061170d565b505050565b611586846323b872dd60e01b85858560405160240161152493929190611d1b565b604051602081830303815290604052907bffffffffffffffffffffffffffffffffffffffffffffffffffffffff19166020820180517bffffffffffffffffffffffffffffffffffffffffffffffffffffffff838183161783525050505061170d565b50505050565b7f000000000000000000000000000000000000000000000000000000000000000073ffffffffffffffffffffffffffffffffffffffff1663095ea7b37f0000000000000000000000000000000000000000000000000000000000000000846040518363ffffffff1660e01b8152600401611607929190611db2565b602060405180830381600087803b15801561162157600080fd5b505af1158015611635573d6000803e3d6000fd5b505050506040513d601f19601f820116820180604052508101906116599190611aad565b507f000000000000000000000000000000000000000000000000000000000000000073ffffffffffffffffffffffffffffffffffffffff1663c8820f6c7f000000000000000000000000000000000000000000000000000000000000000084846040518463ffffffff1660e01b81526004016116d793929190611ddb565b600060405180830381600087803b1580156116f157600080fd5b505af1158015611705573d6000803e3d6000fd5b505050505050565b600061176f826040518060400160405280602081526020017f5361666545524332303a206c6f772d6c6576656c2063616c6c206661696c65648152508573ffffffffffffffffffffffffffffffffffffffff166117d49092919063ffffffff16565b90506000815111156117cf578080602001905181019061178f9190611aad565b6117ce576040517f08c379a00000000000000000000000000000000000000000000000000000000081526004016117c590611e74565b60405180910390fd5b5b505050565b60606117e384846000856117ec565b90509392505050565b606082471015611831576040517f08c379a000000000000000000000000000000000000000000000000000000000815260040161182890611e34565b60405180910390fd5b61183a85611900565b611879576040517f08c379a000000000000000000000000000000000000000000000000000000000815260040161187090611e54565b60405180910390fd5b6000808673ffffffffffffffffffffffffffffffffffffffff1685876040516118a29190611cb2565b60006040518083038185875af1925050503d80600081146118df576040519150601f19603f3d011682016040523d82523d6000602084013e6118e4565b606091505b50915091506118f4828286611923565b92505050949350505050565b6000808273ffffffffffffffffffffffffffffffffffffffff163b119050919050565b6060831561193357829050611983565b6000835111156119465782518084602001fd5b816040517f08c379a000000000000000000000000000000000000000000000000000000000815260040161197a9190611e12565b60405180910390fd5b9392505050565b600061199d61199884611f26565b611f01565b9050828152602081018484840111156119b557600080fd5b6119c0848285612017565b509392505050565b6000813590506119d7816121b1565b92915050565b6000815190506119ec816121b1565b92915050565b600081519050611a01816121c8565b92915050565b600082601f830112611a1857600080fd5b8151611a2884826020860161198a565b91505092915050565b600081359050611a40816121df565b92915050565b600081519050611a55816121df565b92915050565b600060208284031215611a6d57600080fd5b6000611a7b848285016119c8565b91505092915050565b600060208284031215611a9657600080fd5b6000611aa4848285016119dd565b91505092915050565b600060208284031215611abf57600080fd5b6000611acd848285016119f2565b91505092915050565b600060208284031215611ae857600080fd5b6000611af684828501611a31565b91505092915050565b600060208284031215611b1157600080fd5b6000611b1f84828501611a46565b91505092915050565b60008060008060808587031215611b3e57600080fd5b6000611b4c87828801611a46565b9450506020611b5d878288016119dd565b935050604085015167ffffffffffffffff811115611b7a57600080fd5b611b8687828801611a07565b9250506060611b9787828801611a46565b91505092959194509250565b611bac81611fbd565b82525050565b611bbb81611fcf565b82525050565b6000611bcc82611f57565b611bd68185611f6d565b9350611be6818560208601612017565b80840191505092915050565b611bfb81612005565b82525050565b6000611c0c82611f62565b611c168185611f78565b9350611c26818560208601612017565b611c2f816120d9565b840191505092915050565b6000611c47602683611f78565b9150611c52826120ea565b604082019050919050565b6000611c6a601d83611f78565b9150611c7582612139565b602082019050919050565b6000611c8d602a83611f78565b9150611c9882612162565b604082019050919050565b611cac81611ffb565b82525050565b6000611cbe8284611bc1565b915081905092915050565b6000602082019050611cde6000830184611ba3565b92915050565b6000606082019050611cf96000830186611ba3565b611d066020830185611ba3565b611d136040830184611ba3565b949350505050565b6000606082019050611d306000830186611ba3565b611d3d6020830185611ba3565b611d4a6040830184611ca3565b949350505050565b6000604082019050611d676000830185611ba3565b611d746020830184611bb2565b9392505050565b6000606082019050611d906000830186611ba3565b611d9d6020830185611bf2565b611daa6040830184611ba3565b949350505050565b6000604082019050611dc76000830185611ba3565b611dd46020830184611ca3565b9392505050565b6000606082019050611df06000830186611ba3565b611dfd6020830185611ca3565b611e0a6040830184611ba3565b949350505050565b60006020820190508181036000830152611e2c8184611c01565b905092915050565b60006020820190508181036000830152611e4d81611c3a565b9050919050565b60006020820190508181036000830152611e6d81611c5d565b9050919050565b60006020820190508181036000830152611e8d81611c80565b9050919050565b6000602082019050611ea96000830184611ca3565b92915050565b6000604082019050611ec46000830185611ca3565b611ed16020830184611ba3565b9392505050565b6000604082019050611eed6000830185611ca3565b611efa6020830184611ca3565b9392505050565b6000611f0b611f1c565b9050611f17828261204a565b919050565b6000604051905090565b600067ffffffffffffffff821115611f4157611f406120aa565b5b611f4a826120d9565b9050602081019050919050565b600081519050919050565b600081519050919050565b600081905092915050565b600082825260208201905092915050565b6000611f9482611ffb565b9150611f9f83611ffb565b925082821015611fb257611fb161207b565b5b828203905092915050565b6000611fc882611fdb565b9050919050565b60008115159050919050565b600073ffffffffffffffffffffffffffffffffffffffff82169050919050565b6000819050919050565b600061201082611ffb565b9050919050565b60005b8381101561203557808201518184015260208101905061201a565b83811115612044576000848401525b50505050565b612053826120d9565b810181811067ffffffffffffffff82111715612072576120716120aa565b5b80604052505050565b7f4e487b7100000000000000000000000000000000000000000000000000000000600052601160045260246000fd5b7f4e487b7100000000000000000000000000000000000000000000000000000000600052604160045260246000fd5b6000601f19601f8301169050919050565b7f416464726573733a20696e73756666696369656e742062616c616e636520666f60008201527f722063616c6c0000000000000000000000000000000000000000000000000000602082015250565b7f416464726573733a2063616c6c20746f206e6f6e2d636f6e7472616374000000600082015250565b7f5361666545524332303a204552433230206f7065726174696f6e20646964206e60008201527f6f74207375636365656400000000000000000000000000000000000000000000602082015250565b6121ba81611fbd565b81146121c557600080fd5b50565b6121d181611fcf565b81146121dc57600080fd5b50565b6121e881611ffb565b81146121f357600080fd5b5056fea2646970667358221220bc7d897537b9fd9410b896c7f56b4bfe76dc515221152507cdedbd0c4d94121164736f6c63430008040033",
  "linkReferences": {},
  "deployedLinkReferences": {}
}