{
  "_format": "hh-sol-artifact-1",
  "contractName": "RGN",
  "sourceName": "contracts/Tokens/RGN.sol",
  "abi": [
    {
      "inputs": [
        {
          "internalType": "string",
          "name": "_name",
          "type": "string"
        },
        {
          "internalType": "string",
          "name": "_symbol",
          "type": "string"
        },
        {
          "internalType": "uint256",
          "name": "_initialMint",
          "type": "uint256"
        },
        {
          "internalType": "address",
          "name": "_initialMintTo",
          "type": "address"
        }
      ],
      "stateMutability": "nonpayable",
      "type": "constructor"
    },
    {
      "anonymous": false,
      "inputs": [
        {
          "indexed": true,
          "internalType": "address",
          "name": "owner",
          "type": "address"
        },
        {
          "indexed": true,
          "internalType": "address",
          "name": "spender",
          "type": "address"
        },
        {
          "indexed": false,
          "internalType": "uint256",
          "name": "value",
          "type": "uint256"
        }
      ],
      "name": "Approval",
      "type": "event"
    },
    {
      "anonymous": false,
      "inputs": [
        {
          "indexed": true,
          "internalType": "address",
          "name": "previousOwner",
          "type": "address"
        },
        {
          "indexed": true,
          "internalType": "address",
          "name": "newOwner",
          "type": "address"
        }
      ],
      "name": "OwnershipTransferred",
      "type": "event"
    },
    {
      "anonymous": false,
      "inputs": [
        {
          "indexed": true,
          "internalType": "address",
          "name": "from",
          "type": "address"
        },
        {
          "indexed": true,
          "internalType": "address",
          "name": "to",
          "type": "address"
        },
        {
          "indexed": false,
          "internalType": "uint256",
          "name": "value",
          "type": "uint256"
        }
      ],
      "name": "Transfer",
      "type": "event"
    },
    {
      "inputs": [],
      "name": "MAX_SUPPLY",
      "outputs": [
        {
          "internalType": "uint256",
          "name": "",
          "type": "uint256"
        }
      ],
      "stateMutability": "view",
      "type": "function"
    },
    {
      "inputs": [
        {
          "internalType": "address",
          "name": "owner",
          "type": "address"
        },
        {
          "internalType": "address",
          "name": "spender",
          "type": "address"
        }
      ],
      "name": "allowance",
      "outputs": [
        {
          "internalType": "uint256",
          "name": "",
          "type": "uint256"
        }
      ],
      "stateMutability": "view",
      "type": "function"
    },
    {
      "inputs": [],
      "name": "amountConverted",
      "outputs": [
        {
          "internalType": "uint256",
          "name": "",
          "type": "uint256"
        }
      ],
      "stateMutability": "view",
      "type": "function"
    },
    {
      "inputs": [
        {
          "internalType": "address",
          "name": "spender",
          "type": "address"
        },
        {
          "internalType": "uint256",
          "name": "amount",
          "type": "uint256"
        }
      ],
      "name": "approve",
      "outputs": [
        {
          "internalType": "bool",
          "name": "",
          "type": "bool"
        }
      ],
      "stateMutability": "nonpayable",
      "type": "function"
    },
    {
      "inputs": [
        {
          "internalType": "address",
          "name": "account",
          "type": "address"
        }
      ],
      "name": "balanceOf",
      "outputs": [
        {
          "internalType": "uint256",
          "name": "",
          "type": "uint256"
        }
      ],
      "stateMutability": "view",
      "type": "function"
    },
    {
      "inputs": [
        {
          "internalType": "address",
          "name": "account",
          "type": "address"
        },
        {
          "internalType": "uint256",
          "name": "amount",
          "type": "uint256"
        }
      ],
      "name": "burn",
      "outputs": [],
      "stateMutability": "nonpayable",
      "type": "function"
    },
    {
      "inputs": [],
      "name": "decimals",
      "outputs": [
        {
          "internalType": "uint8",
          "name": "",
          "type": "uint8"
        }
      ],
      "stateMutability": "view",
      "type": "function"
    },
    {
      "inputs": [
        {
          "internalType": "address",
          "name": "spender",
          "type": "address"
        },
        {
          "internalType": "uint256",
          "name": "subtractedValue",
          "type": "uint256"
        }
      ],
      "name": "decreaseAllowance",
      "outputs": [
        {
          "internalType": "bool",
          "name": "",
          "type": "bool"
        }
      ],
      "stateMutability": "nonpayable",
      "type": "function"
    },
    {
      "inputs": [
        {
          "internalType": "uint256",
          "name": "_amount",
          "type": "uint256"
        }
      ],
      "name": "deposit",
      "outputs": [],
      "stateMutability": "nonpayable",
      "type": "function"
    },
    {
      "inputs": [
        {
          "internalType": "address",
          "name": "spender",
          "type": "address"
        },
        {
          "internalType": "uint256",
          "name": "addedValue",
          "type": "uint256"
        }
      ],
      "name": "increaseAllowance",
      "outputs": [
        {
          "internalType": "bool",
          "name": "",
          "type": "bool"
        }
      ],
      "stateMutability": "nonpayable",
      "type": "function"
    },
    {
      "inputs": [],
      "name": "maxSupplyUpdated",
      "outputs": [
        {
          "internalType": "uint256",
          "name": "",
          "type": "uint256"
        }
      ],
      "stateMutability": "view",
      "type": "function"
    },
    {
      "inputs": [
        {
          "internalType": "address",
          "name": "_to",
          "type": "address"
        },
        {
          "internalType": "uint256",
          "name": "_amount",
          "type": "uint256"
        }
      ],
      "name": "mint",
      "outputs": [],
      "stateMutability": "nonpayable",
      "type": "function"
    },
    {
      "inputs": [],
      "name": "minter",
      "outputs": [
        {
          "internalType": "address",
          "name": "",
          "type": "address"
        }
      ],
      "stateMutability": "view",
      "type": "function"
    },
    {
      "inputs": [],
      "name": "name",
      "outputs": [
        {
          "internalType": "string",
          "name": "",
          "type": "string"
        }
      ],
      "stateMutability": "view",
      "type": "function"
    },
    {
      "inputs": [],
      "name": "owner",
      "outputs": [
        {
          "internalType": "address",
          "name": "",
          "type": "address"
        }
      ],
      "stateMutability": "view",
      "type": "function"
    },
    {
      "inputs": [],
      "name": "previousLRGN",
      "outputs": [
        {
          "internalType": "address",
          "name": "",
          "type": "address"
        }
      ],
      "stateMutability": "view",
      "type": "function"
    },
    {
      "inputs": [],
      "name": "previousRGN",
      "outputs": [
        {
          "internalType": "address",
          "name": "",
          "type": "address"
        }
      ],
      "stateMutability": "view",
      "type": "function"
    },
    {
      "inputs": [],
      "name": "renounceOwnership",
      "outputs": [],
      "stateMutability": "nonpayable",
      "type": "function"
    },
    {
      "inputs": [
        {
          "internalType": "address",
          "name": "_minter",
          "type": "address"
        }
      ],
      "name": "setMinter",
      "outputs": [],
      "stateMutability": "nonpayable",
      "type": "function"
    },
    {
      "inputs": [
        {
          "internalType": "address",
          "name": "_previousLRGN",
          "type": "address"
        }
      ],
      "name": "setPreviousLVTX",
      "outputs": [],
      "stateMutability": "nonpayable",
      "type": "function"
    },
    {
      "inputs": [
        {
          "internalType": "address",
          "name": "_previousRGN",
          "type": "address"
        }
      ],
      "name": "setPreviousRGN",
      "outputs": [],
      "stateMutability": "nonpayable",
      "type": "function"
    },
    {
      "inputs": [],
      "name": "symbol",
      "outputs": [
        {
          "internalType": "string",
          "name": "",
          "type": "string"
        }
      ],
      "stateMutability": "view",
      "type": "function"
    },
    {
      "inputs": [],
      "name": "totalSupply",
      "outputs": [
        {
          "internalType": "uint256",
          "name": "",
          "type": "uint256"
        }
      ],
      "stateMutability": "view",
      "type": "function"
    },
    {
      "inputs": [
        {
          "internalType": "address",
          "name": "to",
          "type": "address"
        },
        {
          "internalType": "uint256",
          "name": "amount",
          "type": "uint256"
        }
      ],
      "name": "transfer",
      "outputs": [
        {
          "internalType": "bool",
          "name": "",
          "type": "bool"
        }
      ],
      "stateMutability": "nonpayable",
      "type": "function"
    },
    {
      "inputs": [
        {
          "internalType": "address",
          "name": "from",
          "type": "address"
        },
        {
          "internalType": "address",
          "name": "to",
          "type": "address"
        },
        {
          "internalType": "uint256",
          "name": "amount",
          "type": "uint256"
        }
      ],
      "name": "transferFrom",
      "outputs": [
        {
          "internalType": "bool",
          "name": "",
          "type": "bool"
        }
      ],
      "stateMutability": "nonpayable",
      "type": "function"
    },
    {
      "inputs": [
        {
          "internalType": "address",
          "name": "newOwner",
          "type": "address"
        }
      ],
      "name": "transferOwnership",
      "outputs": [],
      "stateMutability": "nonpayable",
      "type": "function"
    },
    {
      "inputs": [],
      "name": "updateMaxSupply",
      "outputs": [],
      "stateMutability": "nonpayable",
      "type": "function"
    }
  ],
  "bytecode": "0x60806040526a52b7d2dcc80cd2e40000006009553480156200002057600080fd5b5060405162001c6138038062001c618339810160408190526200004391620003bd565b8383818181600390805190602001906200005f92919062000288565b5080516200007590600490602084019062000288565b505050620000926200008c620000db60201b60201c565b620000df565b50620000a19050818362000131565b620000d16040518060600160405280602a815260200162001c37602a9139336200021a60201b62000b1c1760201c565b505050506200053f565b3390565b600580546001600160a01b038381166001600160a01b0319831681179093556040519116919082907f8be0079c531659141344cd1fd0a4f28419497f9722a3daafe3b4186f6b6457e090600090a35050565b6001600160a01b0382166200018c5760405162461bcd60e51b815260206004820152601f60248201527f45524332303a206d696e7420746f20746865207a65726f206164647265737300604482015260640160405180910390fd5b8060026000828254620001a0919062000494565b90915550506001600160a01b03821660009081526020819052604081208054839290620001cf90849062000494565b90915550506040518181526001600160a01b038316906000907fddf252ad1be2c89b69c2b068fc378daa952ba7f163c4a11628f55a4df523b3ef9060200160405180910390a35b5050565b620002168282604051602401620002339291906200044e565b60408051601f198184030181529190526020810180516001600160e01b0390811663319af33360e01b179091526200026716565b80516a636f6e736f6c652e6c6f67602083016000808483855afa5050505050565b8280546200029690620004ec565b90600052602060002090601f016020900481019282620002ba576000855562000305565b82601f10620002d557805160ff191683800117855562000305565b8280016001018555821562000305579182015b8281111562000305578251825591602001919060010190620002e8565b506200031392915062000317565b5090565b5b8082111562000313576000815560010162000318565b600082601f8301126200033f578081fd5b81516001600160401b03808211156200035c576200035c62000529565b604051601f8301601f19908116603f0116810190828211818310171562000387576200038762000529565b81604052838152866020858801011115620003a0578485fd5b620003b3846020830160208901620004b9565b9695505050505050565b60008060008060808587031215620003d3578384fd5b84516001600160401b0380821115620003ea578586fd5b620003f8888389016200032e565b955060208701519150808211156200040e578485fd5b506200041d878288016200032e565b60408701516060880151919550935090506001600160a01b038116811462000443578182fd5b939692955090935050565b60408152600083518060408401526200046f816060850160208801620004b9565b6001600160a01b0393909316602083015250601f91909101601f191601606001919050565b60008219821115620004b457634e487b7160e01b81526011600452602481fd5b500190565b60005b83811015620004d6578181015183820152602001620004bc565b83811115620004e6576000848401525b50505050565b600181811c908216806200050157607f821691505b602082108114156200052357634e487b7160e01b600052602260045260246000fd5b50919050565b634e487b7160e01b600052604160045260246000fd5b6116e8806200054f6000396000f3fe608060405234801561001057600080fd5b50600436106101a95760003560e01c806370a08231116100f9578063b6b55f2511610097578063e0a0da0b11610071578063e0a0da0b146103a6578063e3248d72146103b9578063f2fde38b146103c1578063fca3b5aa146103d457600080fd5b8063b6b55f2514610347578063d1b3fc221461035a578063dd62ed3e1461036d57600080fd5b806395d89b41116100d357806395d89b41146103065780639dc29fac1461030e578063a457c2d714610321578063a9059cbb1461033457600080fd5b806370a08231146102c4578063715018a6146102ed5780638da5cb5b146102f557600080fd5b806323b872dd1161016657806332cb6b0c1161014057806332cb6b0c14610279578063395093511461028b57806340c10f191461029e5780635b6481a5146102b157600080fd5b806323b872dd14610242578063313ce5671461025557806331be89ba1461026457600080fd5b806306fdde03146101ae57806307546172146101cc578063095ea7b3146101f75780631677d1791461021a57806318160ddd1461023157806322fb404614610239575b600080fd5b6101b66103e7565b6040516101c39190611594565b60405180910390f35b6006546101df906001600160a01b031681565b6040516001600160a01b0390911681526020016101c3565b61020a6102053660046114d3565b610479565b60405190151581526020016101c3565b610223600a5481565b6040519081526020016101c3565b600254610223565b61022360095481565b61020a610250366004611498565b610491565b604051601281526020016101c3565b61027761027236600461144c565b6104b7565b005b6102236a52b7d2dcc80cd2e400000081565b61020a6102993660046114d3565b610553565b6102776102ac3660046114d3565b610592565b6008546101df906001600160a01b031681565b6102236102d236600461144c565b6001600160a01b031660009081526020819052604090205490565b610277610632565b6005546001600160a01b03166101df565b6101b6610668565b61027761031c3660046114d3565b610677565b61020a61032f3660046114d3565b6106ab565b61020a6103423660046114d3565b610748565b61027761035536600461151c565b610756565b61027761036836600461144c565b610822565b61022361037b366004611466565b6001600160a01b03918216600090815260016020908152604080832093909416825291909152205490565b6007546101df906001600160a01b031681565b6102776108b5565b6102776103cf36600461144c565b610a0f565b6102776103e236600461144c565b610aaa565b6060600380546103f690611661565b80601f016020809104026020016040519081016040528092919081815260200182805461042290611661565b801561046f5780601f106104445761010080835404028352916020019161046f565b820191906000526020600020905b81548152906001019060200180831161045257829003601f168201915b5050505050905090565b600033610487818585610b61565b5060019392505050565b60003361049f858285610c86565b6104aa858585610d18565b60019150505b9392505050565b6005546001600160a01b031633146104ea5760405162461bcd60e51b81526004016104e1906115d1565b60405180910390fd5b6008546001600160a01b0316156105315760405162461bcd60e51b815260206004820152600b60248201526a626164206164647265737360a81b60448201526064016104e1565b600880546001600160a01b0319166001600160a01b0392909216919091179055565b3360008181526001602090815260408083206001600160a01b0387168452909152812054909190610487908290869061058d908790611606565b610b61565b6006546001600160a01b031633146105da5760405162461bcd60e51b815260206004820152600b60248201526a27b7363c9026b4b73a32b960a91b60448201526064016104e1565b600a546009546105ea9190611606565b816105f460025490565b6105fe9190611606565b111561062457600254600a546009546106179190611606565b610621919061161e565b90505b61062e8282610ee6565b5050565b6005546001600160a01b0316331461065c5760405162461bcd60e51b81526004016104e1906115d1565b6106666000610fc5565b565b6060600480546103f690611661565b6005546001600160a01b031633146106a15760405162461bcd60e51b81526004016104e1906115d1565b61062e8282611017565b3360008181526001602090815260408083206001600160a01b0387168452909152812054909190838110156107305760405162461bcd60e51b815260206004820152602560248201527f45524332303a2064656372656173656420616c6c6f77616e63652062656c6f77604482015264207a65726f60d81b60648201526084016104e1565b61073d8286868403610b61565b506001949350505050565b600033610487818585610d18565b6007546001600160a01b03166107a55760405162461bcd60e51b8152602060048201526014602482015273141c995d9a5bdd5cc81491d3881b9bdd081cd95d60621b60448201526064016104e1565b6a52b7d2dcc80cd2e4000000816107bb60025490565b6107c59190611606565b11156107e6576002546107e3906a52b7d2dcc80cd2e400000061161e565b90505b6007546107fe906001600160a01b0316333084611162565b6108083382610ee6565b80600a600082825461081a9190611606565b909155505050565b6005546001600160a01b0316331461084c5760405162461bcd60e51b81526004016104e1906115d1565b6007546001600160a01b0316156108935760405162461bcd60e51b815260206004820152600b60248201526a626164206164647265737360a81b60448201526064016104e1565b600780546001600160a01b0319166001600160a01b0392909216919091179055565b6005546001600160a01b031633146108df5760405162461bcd60e51b81526004016104e1906115d1565b600860009054906101000a90046001600160a01b03166001600160a01b03166318160ddd6040518163ffffffff1660e01b815260040160206040518083038186803b15801561092d57600080fd5b505afa158015610941573d6000803e3d6000fd5b505050506040513d601f19601f820116820180604052508101906109659190611534565b600760009054906101000a90046001600160a01b03166001600160a01b03166318160ddd6040518163ffffffff1660e01b815260040160206040518083038186803b1580156109b357600080fd5b505afa1580156109c7573d6000803e3d6000fd5b505050506040513d601f19601f820116820180604052508101906109eb9190611534565b610a00906a52b7d2dcc80cd2e400000061161e565b610a0a9190611606565b600955565b6005546001600160a01b03163314610a395760405162461bcd60e51b81526004016104e1906115d1565b6001600160a01b038116610a9e5760405162461bcd60e51b815260206004820152602660248201527f4f776e61626c653a206e6577206f776e657220697320746865207a65726f206160448201526564647265737360d01b60648201526084016104e1565b610aa781610fc5565b50565b6005546001600160a01b03163314610ad45760405162461bcd60e51b81526004016104e1906115d1565b600680546001600160a01b0319166001600160a01b03831617905560408051808201909152601081526f026b4b73a32b91039b2ba101d1012b9960851b6020820152610aa790825b61062e8282604051602401610b329291906115a7565b60408051601f198184030181529190526020810180516001600160e01b031663319af33360e01b1790526111bc565b6001600160a01b038316610bc35760405162461bcd60e51b8152602060048201526024808201527f45524332303a20617070726f76652066726f6d20746865207a65726f206164646044820152637265737360e01b60648201526084016104e1565b6001600160a01b038216610c245760405162461bcd60e51b815260206004820152602260248201527f45524332303a20617070726f766520746f20746865207a65726f206164647265604482015261737360f01b60648201526084016104e1565b6001600160a01b0383811660008181526001602090815260408083209487168084529482529182902085905590518481527f8c5be1e5ebec7d5bd14f71427d1e84f3dd0314c0f7b2291e5b200ac8c7c3b92591015b60405180910390a3505050565b6001600160a01b038381166000908152600160209081526040808320938616835292905220546000198114610d125781811015610d055760405162461bcd60e51b815260206004820152601d60248201527f45524332303a20696e73756666696369656e7420616c6c6f77616e636500000060448201526064016104e1565b610d128484848403610b61565b50505050565b6001600160a01b038316610d7c5760405162461bcd60e51b815260206004820152602560248201527f45524332303a207472616e736665722066726f6d20746865207a65726f206164604482015264647265737360d81b60648201526084016104e1565b6001600160a01b038216610dde5760405162461bcd60e51b815260206004820152602360248201527f45524332303a207472616e7366657220746f20746865207a65726f206164647260448201526265737360e81b60648201526084016104e1565b6001600160a01b03831660009081526020819052604090205481811015610e565760405162461bcd60e51b815260206004820152602660248201527f45524332303a207472616e7366657220616d6f756e7420657863656564732062604482015265616c616e636560d01b60648201526084016104e1565b6001600160a01b03808516600090815260208190526040808220858503905591851681529081208054849290610e8d908490611606565b92505081905550826001600160a01b0316846001600160a01b03167fddf252ad1be2c89b69c2b068fc378daa952ba7f163c4a11628f55a4df523b3ef84604051610ed991815260200190565b60405180910390a3610d12565b6001600160a01b038216610f3c5760405162461bcd60e51b815260206004820152601f60248201527f45524332303a206d696e7420746f20746865207a65726f20616464726573730060448201526064016104e1565b8060026000828254610f4e9190611606565b90915550506001600160a01b03821660009081526020819052604081208054839290610f7b908490611606565b90915550506040518181526001600160a01b038316906000907fddf252ad1be2c89b69c2b068fc378daa952ba7f163c4a11628f55a4df523b3ef9060200160405180910390a35050565b600580546001600160a01b038381166001600160a01b0319831681179093556040519116919082907f8be0079c531659141344cd1fd0a4f28419497f9722a3daafe3b4186f6b6457e090600090a35050565b6001600160a01b0382166110775760405162461bcd60e51b815260206004820152602160248201527f45524332303a206275726e2066726f6d20746865207a65726f206164647265736044820152607360f81b60648201526084016104e1565b6001600160a01b038216600090815260208190526040902054818110156110eb5760405162461bcd60e51b815260206004820152602260248201527f45524332303a206275726e20616d6f756e7420657863656564732062616c616e604482015261636560f01b60648201526084016104e1565b6001600160a01b038316600090815260208190526040812083830390556002805484929061111a90849061161e565b90915550506040518281526000906001600160a01b038516907fddf252ad1be2c89b69c2b068fc378daa952ba7f163c4a11628f55a4df523b3ef90602001610c79565b505050565b604080516001600160a01b0385811660248301528416604482015260648082018490528251808303909101815260849091019091526020810180516001600160e01b03166323b872dd60e01b179052610d129085906111dd565b80516a636f6e736f6c652e6c6f67602083016000808483855afa5050505050565b6000611232826040518060400160405280602081526020017f5361666545524332303a206c6f772d6c6576656c2063616c6c206661696c6564815250856001600160a01b03166112af9092919063ffffffff16565b80519091501561115d578080602001905181019061125091906114fc565b61115d5760405162461bcd60e51b815260206004820152602a60248201527f5361666545524332303a204552433230206f7065726174696f6e20646964206e6044820152691bdd081cdd58d8d9595960b21b60648201526084016104e1565b60606112be84846000856112c6565b949350505050565b6060824710156113275760405162461bcd60e51b815260206004820152602660248201527f416464726573733a20696e73756666696369656e742062616c616e636520666f6044820152651c8818d85b1b60d21b60648201526084016104e1565b6001600160a01b0385163b61137e5760405162461bcd60e51b815260206004820152601d60248201527f416464726573733a2063616c6c20746f206e6f6e2d636f6e747261637400000060448201526064016104e1565b600080866001600160a01b0316858760405161139a9190611578565b60006040518083038185875af1925050503d80600081146113d7576040519150601f19603f3d011682016040523d82523d6000602084013e6113dc565b606091505b50915091506113ec8282866113f7565b979650505050505050565b606083156114065750816104b0565b8251156114165782518084602001fd5b8160405162461bcd60e51b81526004016104e19190611594565b80356001600160a01b038116811461144757600080fd5b919050565b60006020828403121561145d578081fd5b6104b082611430565b60008060408385031215611478578081fd5b61148183611430565b915061148f60208401611430565b90509250929050565b6000806000606084860312156114ac578081fd5b6114b584611430565b92506114c360208501611430565b9150604084013590509250925092565b600080604083850312156114e5578182fd5b6114ee83611430565b946020939093013593505050565b60006020828403121561150d578081fd5b815180151581146104b0578182fd5b60006020828403121561152d578081fd5b5035919050565b600060208284031215611545578081fd5b5051919050565b60008151808452611564816020860160208601611635565b601f01601f19169290920160200192915050565b6000825161158a818460208701611635565b9190910192915050565b6020815260006104b0602083018461154c565b6040815260006115ba604083018561154c565b905060018060a01b03831660208301529392505050565b6020808252818101527f4f776e61626c653a2063616c6c6572206973206e6f7420746865206f776e6572604082015260600190565b600082198211156116195761161961169c565b500190565b6000828210156116305761163061169c565b500390565b60005b83811015611650578181015183820152602001611638565b83811115610d125750506000910152565b600181811c9082168061167557607f821691505b6020821081141561169657634e487b7160e01b600052602260045260246000fd5b50919050565b634e487b7160e01b600052601160045260246000fdfea264697066735822122057823a540dbd5195e2ab6bc28320e8f2d3540145911147f70a02eb550327f26c64736f6c634300080400335b52474e20436f6e74726163745d204f776e6572206f662074686520636f6e7472616374203a2025730a",
  "linkReferences": {},
  "deployedLinkReferences": {}
}