{
  "_format": "hh-sol-artifact-1",
  "contractName": "RJOE",
  "sourceName": "contracts/Tokens/rJOE.sol",
  "abi": [
    {
      "inputs": [
        {
          "internalType": "address",
          "name": "_mainContract",
          "type": "address"
        },
        {
          "internalType": "address",
          "name": "_joe",
          "type": "address"
        }
      ],
      "stateMutability": "nonpayable",
      "type": "constructor"
    },
    {
      "anonymous": false,
      "inputs": [
        {
          "indexed": true,
          "internalType": "address",
          "name": "owner",
          "type": "address"
        },
        {
          "indexed": true,
          "internalType": "address",
          "name": "spender",
          "type": "address"
        },
        {
          "indexed": false,
          "internalType": "uint256",
          "name": "value",
          "type": "uint256"
        }
      ],
      "name": "Approval",
      "type": "event"
    },
    {
      "anonymous": false,
      "inputs": [
        {
          "indexed": true,
          "internalType": "address",
          "name": "user",
          "type": "address"
        },
        {
          "indexed": false,
          "internalType": "uint256",
          "name": "amount",
          "type": "uint256"
        }
      ],
      "name": "RjoeMinted",
      "type": "event"
    },
    {
      "anonymous": false,
      "inputs": [
        {
          "indexed": true,
          "internalType": "address",
          "name": "from",
          "type": "address"
        },
        {
          "indexed": true,
          "internalType": "address",
          "name": "to",
          "type": "address"
        },
        {
          "indexed": false,
          "internalType": "uint256",
          "name": "value",
          "type": "uint256"
        }
      ],
      "name": "Transfer",
      "type": "event"
    },
    {
      "inputs": [
        {
          "internalType": "address",
          "name": "owner",
          "type": "address"
        },
        {
          "internalType": "address",
          "name": "spender",
          "type": "address"
        }
      ],
      "name": "allowance",
      "outputs": [
        {
          "internalType": "uint256",
          "name": "",
          "type": "uint256"
        }
      ],
      "stateMutability": "view",
      "type": "function"
    },
    {
      "inputs": [
        {
          "internalType": "address",
          "name": "spender",
          "type": "address"
        },
        {
          "internalType": "uint256",
          "name": "amount",
          "type": "uint256"
        }
      ],
      "name": "approve",
      "outputs": [
        {
          "internalType": "bool",
          "name": "",
          "type": "bool"
        }
      ],
      "stateMutability": "nonpayable",
      "type": "function"
    },
    {
      "inputs": [
        {
          "internalType": "address",
          "name": "account",
          "type": "address"
        }
      ],
      "name": "balanceOf",
      "outputs": [
        {
          "internalType": "uint256",
          "name": "",
          "type": "uint256"
        }
      ],
      "stateMutability": "view",
      "type": "function"
    },
    {
      "inputs": [],
      "name": "decimals",
      "outputs": [
        {
          "internalType": "uint8",
          "name": "",
          "type": "uint8"
        }
      ],
      "stateMutability": "view",
      "type": "function"
    },
    {
      "inputs": [
        {
          "internalType": "address",
          "name": "spender",
          "type": "address"
        },
        {
          "internalType": "uint256",
          "name": "subtractedValue",
          "type": "uint256"
        }
      ],
      "name": "decreaseAllowance",
      "outputs": [
        {
          "internalType": "bool",
          "name": "",
          "type": "bool"
        }
      ],
      "stateMutability": "nonpayable",
      "type": "function"
    },
    {
      "inputs": [
        {
          "internalType": "uint256",
          "name": "_amount",
          "type": "uint256"
        }
      ],
      "name": "deposit",
      "outputs": [],
      "stateMutability": "nonpayable",
      "type": "function"
    },
    {
      "inputs": [
        {
          "internalType": "address",
          "name": "spender",
          "type": "address"
        },
        {
          "internalType": "uint256",
          "name": "addedValue",
          "type": "uint256"
        }
      ],
      "name": "increaseAllowance",
      "outputs": [
        {
          "internalType": "bool",
          "name": "",
          "type": "bool"
        }
      ],
      "stateMutability": "nonpayable",
      "type": "function"
    },
    {
      "inputs": [],
      "name": "joe",
      "outputs": [
        {
          "internalType": "address",
          "name": "",
          "type": "address"
        }
      ],
      "stateMutability": "view",
      "type": "function"
    },
    {
      "inputs": [],
      "name": "mainContract",
      "outputs": [
        {
          "internalType": "address",
          "name": "",
          "type": "address"
        }
      ],
      "stateMutability": "view",
      "type": "function"
    },
    {
      "inputs": [],
      "name": "name",
      "outputs": [
        {
          "internalType": "string",
          "name": "",
          "type": "string"
        }
      ],
      "stateMutability": "view",
      "type": "function"
    },
    {
      "inputs": [],
      "name": "symbol",
      "outputs": [
        {
          "internalType": "string",
          "name": "",
          "type": "string"
        }
      ],
      "stateMutability": "view",
      "type": "function"
    },
    {
      "inputs": [],
      "name": "totalSupply",
      "outputs": [
        {
          "internalType": "uint256",
          "name": "",
          "type": "uint256"
        }
      ],
      "stateMutability": "view",
      "type": "function"
    },
    {
      "inputs": [
        {
          "internalType": "address",
          "name": "to",
          "type": "address"
        },
        {
          "internalType": "uint256",
          "name": "amount",
          "type": "uint256"
        }
      ],
      "name": "transfer",
      "outputs": [
        {
          "internalType": "bool",
          "name": "",
          "type": "bool"
        }
      ],
      "stateMutability": "nonpayable",
      "type": "function"
    },
    {
      "inputs": [
        {
          "internalType": "address",
          "name": "from",
          "type": "address"
        },
        {
          "internalType": "address",
          "name": "to",
          "type": "address"
        },
        {
          "internalType": "uint256",
          "name": "amount",
          "type": "uint256"
        }
      ],
      "name": "transferFrom",
      "outputs": [
        {
          "internalType": "bool",
          "name": "",
          "type": "bool"
        }
      ],
      "stateMutability": "nonpayable",
      "type": "function"
    }
  ],
  "bytecode": "0x60c06040523480156200001157600080fd5b506040516200205538038062002055833981810160405281019062000037919062000214565b6040518060400160405280600481526020017f724a4f45000000000000000000000000000000000000000000000000000000008152506040518060400160405280600481526020017f724a4f45000000000000000000000000000000000000000000000000000000008152508160039080519060200190620000bb9291906200014d565b508060049080519060200190620000d49291906200014d565b5050508173ffffffffffffffffffffffffffffffffffffffff1660808173ffffffffffffffffffffffffffffffffffffffff1660601b815250508073ffffffffffffffffffffffffffffffffffffffff1660a08173ffffffffffffffffffffffffffffffffffffffff1660601b81525050505062000308565b8280546200015b9062000289565b90600052602060002090601f0160209004810192826200017f5760008555620001cb565b82601f106200019a57805160ff1916838001178555620001cb565b82800160010185558215620001cb579182015b82811115620001ca578251825591602001919060010190620001ad565b5b509050620001da9190620001de565b5090565b5b80821115620001f9576000816000905550600101620001df565b5090565b6000815190506200020e81620002ee565b92915050565b600080604083850312156200022857600080fd5b60006200023885828601620001fd565b92505060206200024b85828601620001fd565b9150509250929050565b6000620002628262000269565b9050919050565b600073ffffffffffffffffffffffffffffffffffffffff82169050919050565b60006002820490506001821680620002a257607f821691505b60208210811415620002b957620002b8620002bf565b5b50919050565b7f4e487b7100000000000000000000000000000000000000000000000000000000600052602260045260246000fd5b620002f98162000255565b81146200030557600080fd5b50565b60805160601c60a05160601c611d0c62000349600039600081816106bf01526107ec01526000818161069d0152818161070601526108100152611d0c6000f3fe608060405234801561001057600080fd5b50600436106100ea5760003560e01c806395d89b411161008c578063b6b55f2511610066578063b6b55f2514610287578063b985a3a0146102a3578063d270e7ab146102c1578063dd62ed3e146102df576100ea565b806395d89b4114610209578063a457c2d714610227578063a9059cbb14610257576100ea565b806323b872dd116100c857806323b872dd1461015b578063313ce5671461018b57806339509351146101a957806370a08231146101d9576100ea565b806306fdde03146100ef578063095ea7b31461010d57806318160ddd1461013d575b600080fd5b6100f761030f565b6040516101049190611635565b60405180910390f35b610127600480360381019061012291906112fc565b6103a1565b604051610134919061161a565b60405180910390f35b6101456103c4565b60405161015291906117b7565b60405180910390f35b610175600480360381019061017091906112ad565b6103ce565b604051610182919061161a565b60405180910390f35b6101936103fd565b6040516101a091906117d2565b60405180910390f35b6101c360048036038101906101be91906112fc565b610406565b6040516101d0919061161a565b60405180910390f35b6101f360048036038101906101ee9190611248565b6104b0565b60405161020091906117b7565b60405180910390f35b6102116104f8565b60405161021e9190611635565b60405180910390f35b610241600480360381019061023c91906112fc565b61058a565b60405161024e919061161a565b60405180910390f35b610271600480360381019061026c91906112fc565b610674565b60405161027e919061161a565b60405180910390f35b6102a1600480360381019061029c9190611361565b610697565b005b6102ab6107ea565b6040516102b891906115c8565b60405180910390f35b6102c961080e565b6040516102d691906115c8565b60405180910390f35b6102f960048036038101906102f49190611271565b610832565b60405161030691906117b7565b60405180910390f35b60606003805461031e906118fd565b80601f016020809104026020016040519081016040528092919081815260200182805461034a906118fd565b80156103975780601f1061036c57610100808354040283529160200191610397565b820191906000526020600020905b81548152906001019060200180831161037a57829003601f168201915b5050505050905090565b6000806103ac6108b9565b90506103b98185856108c1565b600191505092915050565b6000600254905090565b6000806103d96108b9565b90506103e6858285610a8c565b6103f1858585610b18565b60019150509392505050565b60006012905090565b6000806104116108b9565b90506104a5818585600160008673ffffffffffffffffffffffffffffffffffffffff1673ffffffffffffffffffffffffffffffffffffffff16815260200190815260200160002060008973ffffffffffffffffffffffffffffffffffffffff1673ffffffffffffffffffffffffffffffffffffffff168152602001908152602001600020546104a0919061181f565b6108c1565b600191505092915050565b60008060008373ffffffffffffffffffffffffffffffffffffffff1673ffffffffffffffffffffffffffffffffffffffff168152602001908152602001600020549050919050565b606060048054610507906118fd565b80601f0160208091040260200160405190810160405280929190818152602001828054610533906118fd565b80156105805780601f1061055557610100808354040283529160200191610580565b820191906000526020600020905b81548152906001019060200180831161056357829003601f168201915b5050505050905090565b6000806105956108b9565b90506000600160008373ffffffffffffffffffffffffffffffffffffffff1673ffffffffffffffffffffffffffffffffffffffff16815260200190815260200160002060008673ffffffffffffffffffffffffffffffffffffffff1673ffffffffffffffffffffffffffffffffffffffff1681526020019081526020016000205490508381101561065b576040517f08c379a000000000000000000000000000000000000000000000000000000000815260040161065290611777565b60405180910390fd5b61066882868684036108c1565b60019250505092915050565b60008061067f6108b9565b905061068c818585610b18565b600191505092915050565b610704337f0000000000000000000000000000000000000000000000000000000000000000837f000000000000000000000000000000000000000000000000000000000000000073ffffffffffffffffffffffffffffffffffffffff16610d99909392919063ffffffff16565b7f000000000000000000000000000000000000000000000000000000000000000073ffffffffffffffffffffffffffffffffffffffff166312c3069f826040518263ffffffff1660e01b815260040161075d91906117b7565b600060405180830381600087803b15801561077757600080fd5b505af115801561078b573d6000803e3d6000fd5b505050506107993382610e22565b3373ffffffffffffffffffffffffffffffffffffffff167fe5f8b09aed68ca8eff974e36d820a5a3f683e020e4b2e9634f4f9054cf5e64e5826040516107df91906117b7565b60405180910390a250565b7f000000000000000000000000000000000000000000000000000000000000000081565b7f000000000000000000000000000000000000000000000000000000000000000081565b6000600160008473ffffffffffffffffffffffffffffffffffffffff1673ffffffffffffffffffffffffffffffffffffffff16815260200190815260200160002060008373ffffffffffffffffffffffffffffffffffffffff1673ffffffffffffffffffffffffffffffffffffffff16815260200190815260200160002054905092915050565b600033905090565b600073ffffffffffffffffffffffffffffffffffffffff168373ffffffffffffffffffffffffffffffffffffffff161415610931576040517f08c379a000000000000000000000000000000000000000000000000000000000815260040161092890611717565b60405180910390fd5b600073ffffffffffffffffffffffffffffffffffffffff168273ffffffffffffffffffffffffffffffffffffffff1614156109a1576040517f08c379a000000000000000000000000000000000000000000000000000000000815260040161099890611677565b60405180910390fd5b80600160008573ffffffffffffffffffffffffffffffffffffffff1673ffffffffffffffffffffffffffffffffffffffff16815260200190815260200160002060008473ffffffffffffffffffffffffffffffffffffffff1673ffffffffffffffffffffffffffffffffffffffff168152602001908152602001600020819055508173ffffffffffffffffffffffffffffffffffffffff168373ffffffffffffffffffffffffffffffffffffffff167f8c5be1e5ebec7d5bd14f71427d1e84f3dd0314c0f7b2291e5b200ac8c7c3b92583604051610a7f91906117b7565b60405180910390a3505050565b6000610a988484610832565b90507fffffffffffffffffffffffffffffffffffffffffffffffffffffffffffffffff8114610b125781811015610b04576040517f08c379a0000000000000000000000000000000000000000000000000000000008152600401610afb90611697565b60405180910390fd5b610b1184848484036108c1565b5b50505050565b600073ffffffffffffffffffffffffffffffffffffffff168373ffffffffffffffffffffffffffffffffffffffff161415610b88576040517f08c379a0000000000000000000000000000000000000000000000000000000008152600401610b7f906116f7565b60405180910390fd5b600073ffffffffffffffffffffffffffffffffffffffff168273ffffffffffffffffffffffffffffffffffffffff161415610bf8576040517f08c379a0000000000000000000000000000000000000000000000000000000008152600401610bef90611657565b60405180910390fd5b610c03838383610f82565b60008060008573ffffffffffffffffffffffffffffffffffffffff1673ffffffffffffffffffffffffffffffffffffffff16815260200190815260200160002054905081811015610c89576040517f08c379a0000000000000000000000000000000000000000000000000000000008152600401610c80906116b7565b60405180910390fd5b8181036000808673ffffffffffffffffffffffffffffffffffffffff1673ffffffffffffffffffffffffffffffffffffffff16815260200190815260200160002081905550816000808573ffffffffffffffffffffffffffffffffffffffff1673ffffffffffffffffffffffffffffffffffffffff1681526020019081526020016000206000828254610d1c919061181f565b925050819055508273ffffffffffffffffffffffffffffffffffffffff168473ffffffffffffffffffffffffffffffffffffffff167fddf252ad1be2c89b69c2b068fc378daa952ba7f163c4a11628f55a4df523b3ef84604051610d8091906117b7565b60405180910390a3610d93848484610f87565b50505050565b610e1c846323b872dd60e01b858585604051602401610dba939291906115e3565b604051602081830303815290604052907bffffffffffffffffffffffffffffffffffffffffffffffffffffffff19166020820180517bffffffffffffffffffffffffffffffffffffffffffffffffffffffff8381831617835250505050610f8c565b50505050565b600073ffffffffffffffffffffffffffffffffffffffff168273ffffffffffffffffffffffffffffffffffffffff161415610e92576040517f08c379a0000000000000000000000000000000000000000000000000000000008152600401610e8990611797565b60405180910390fd5b610e9e60008383610f82565b8060026000828254610eb0919061181f565b92505081905550806000808473ffffffffffffffffffffffffffffffffffffffff1673ffffffffffffffffffffffffffffffffffffffff1681526020019081526020016000206000828254610f05919061181f565b925050819055508173ffffffffffffffffffffffffffffffffffffffff16600073ffffffffffffffffffffffffffffffffffffffff167fddf252ad1be2c89b69c2b068fc378daa952ba7f163c4a11628f55a4df523b3ef83604051610f6a91906117b7565b60405180910390a3610f7e60008383610f87565b5050565b505050565b505050565b6000610fee826040518060400160405280602081526020017f5361666545524332303a206c6f772d6c6576656c2063616c6c206661696c65648152508573ffffffffffffffffffffffffffffffffffffffff166110539092919063ffffffff16565b905060008151111561104e578080602001905181019061100e9190611338565b61104d576040517f08c379a000000000000000000000000000000000000000000000000000000000815260040161104490611757565b60405180910390fd5b5b505050565b6060611062848460008561106b565b90509392505050565b6060824710156110b0576040517f08c379a00000000000000000000000000000000000000000000000000000000081526004016110a7906116d7565b60405180910390fd5b6110b98561117f565b6110f8576040517f08c379a00000000000000000000000000000000000000000000000000000000081526004016110ef90611737565b60405180910390fd5b6000808673ffffffffffffffffffffffffffffffffffffffff16858760405161112191906115b1565b60006040518083038185875af1925050503d806000811461115e576040519150601f19603f3d011682016040523d82523d6000602084013e611163565b606091505b50915091506111738282866111a2565b92505050949350505050565b6000808273ffffffffffffffffffffffffffffffffffffffff163b119050919050565b606083156111b257829050611202565b6000835111156111c55782518084602001fd5b816040517f08c379a00000000000000000000000000000000000000000000000000000000081526004016111f99190611635565b60405180910390fd5b9392505050565b60008135905061121881611c91565b92915050565b60008151905061122d81611ca8565b92915050565b60008135905061124281611cbf565b92915050565b60006020828403121561125a57600080fd5b600061126884828501611209565b91505092915050565b6000806040838503121561128457600080fd5b600061129285828601611209565b92505060206112a385828601611209565b9150509250929050565b6000806000606084860312156112c257600080fd5b60006112d086828701611209565b93505060206112e186828701611209565b92505060406112f286828701611233565b9150509250925092565b6000806040838503121561130f57600080fd5b600061131d85828601611209565b925050602061132e85828601611233565b9150509250929050565b60006020828403121561134a57600080fd5b60006113588482850161121e565b91505092915050565b60006020828403121561137357600080fd5b600061138184828501611233565b91505092915050565b61139381611875565b82525050565b6113a281611887565b82525050565b60006113b3826117ed565b6113bd8185611803565b93506113cd8185602086016118ca565b80840191505092915050565b60006113e4826117f8565b6113ee818561180e565b93506113fe8185602086016118ca565b6114078161198d565b840191505092915050565b600061141f60238361180e565b915061142a8261199e565b604082019050919050565b600061144260228361180e565b915061144d826119ed565b604082019050919050565b6000611465601d8361180e565b915061147082611a3c565b602082019050919050565b600061148860268361180e565b915061149382611a65565b604082019050919050565b60006114ab60268361180e565b91506114b682611ab4565b604082019050919050565b60006114ce60258361180e565b91506114d982611b03565b604082019050919050565b60006114f160248361180e565b91506114fc82611b52565b604082019050919050565b6000611514601d8361180e565b915061151f82611ba1565b602082019050919050565b6000611537602a8361180e565b915061154282611bca565b604082019050919050565b600061155a60258361180e565b915061156582611c19565b604082019050919050565b600061157d601f8361180e565b915061158882611c68565b602082019050919050565b61159c816118b3565b82525050565b6115ab816118bd565b82525050565b60006115bd82846113a8565b915081905092915050565b60006020820190506115dd600083018461138a565b92915050565b60006060820190506115f8600083018661138a565b611605602083018561138a565b6116126040830184611593565b949350505050565b600060208201905061162f6000830184611399565b92915050565b6000602082019050818103600083015261164f81846113d9565b905092915050565b6000602082019050818103600083015261167081611412565b9050919050565b6000602082019050818103600083015261169081611435565b9050919050565b600060208201905081810360008301526116b081611458565b9050919050565b600060208201905081810360008301526116d08161147b565b9050919050565b600060208201905081810360008301526116f08161149e565b9050919050565b60006020820190508181036000830152611710816114c1565b9050919050565b60006020820190508181036000830152611730816114e4565b9050919050565b6000602082019050818103600083015261175081611507565b9050919050565b600060208201905081810360008301526117708161152a565b9050919050565b600060208201905081810360008301526117908161154d565b9050919050565b600060208201905081810360008301526117b081611570565b9050919050565b60006020820190506117cc6000830184611593565b92915050565b60006020820190506117e760008301846115a2565b92915050565b600081519050919050565b600081519050919050565b600081905092915050565b600082825260208201905092915050565b600061182a826118b3565b9150611835836118b3565b9250827fffffffffffffffffffffffffffffffffffffffffffffffffffffffffffffffff0382111561186a5761186961192f565b5b828201905092915050565b600061188082611893565b9050919050565b60008115159050919050565b600073ffffffffffffffffffffffffffffffffffffffff82169050919050565b6000819050919050565b600060ff82169050919050565b60005b838110156118e85780820151818401526020810190506118cd565b838111156118f7576000848401525b50505050565b6000600282049050600182168061191557607f821691505b602082108114156119295761192861195e565b5b50919050565b7f4e487b7100000000000000000000000000000000000000000000000000000000600052601160045260246000fd5b7f4e487b7100000000000000000000000000000000000000000000000000000000600052602260045260246000fd5b6000601f19601f8301169050919050565b7f45524332303a207472616e7366657220746f20746865207a65726f206164647260008201527f6573730000000000000000000000000000000000000000000000000000000000602082015250565b7f45524332303a20617070726f766520746f20746865207a65726f20616464726560008201527f7373000000000000000000000000000000000000000000000000000000000000602082015250565b7f45524332303a20696e73756666696369656e7420616c6c6f77616e6365000000600082015250565b7f45524332303a207472616e7366657220616d6f756e742065786365656473206260008201527f616c616e63650000000000000000000000000000000000000000000000000000602082015250565b7f416464726573733a20696e73756666696369656e742062616c616e636520666f60008201527f722063616c6c0000000000000000000000000000000000000000000000000000602082015250565b7f45524332303a207472616e736665722066726f6d20746865207a65726f20616460008201527f6472657373000000000000000000000000000000000000000000000000000000602082015250565b7f45524332303a20617070726f76652066726f6d20746865207a65726f2061646460008201527f7265737300000000000000000000000000000000000000000000000000000000602082015250565b7f416464726573733a2063616c6c20746f206e6f6e2d636f6e7472616374000000600082015250565b7f5361666545524332303a204552433230206f7065726174696f6e20646964206e60008201527f6f74207375636365656400000000000000000000000000000000000000000000602082015250565b7f45524332303a2064656372656173656420616c6c6f77616e63652062656c6f7760008201527f207a65726f000000000000000000000000000000000000000000000000000000602082015250565b7f45524332303a206d696e7420746f20746865207a65726f206164647265737300600082015250565b611c9a81611875565b8114611ca557600080fd5b50565b611cb181611887565b8114611cbc57600080fd5b50565b611cc8816118b3565b8114611cd357600080fd5b5056fea264697066735822122031c5799382f5cca4b729ea37d71bf4c5a41ddd5c2b7cfab5c448c9d4714c254664736f6c63430008040033",
  "linkReferences": {},
  "deployedLinkReferences": {}
}