{
  "_format": "hh-sol-artifact-1",
  "contractName": "RagnarVault",
  "sourceName": "contracts/MainProtocol/RagnarVault.sol",
  "abi": [
    {
      "anonymous": false,
      "inputs": [
        {
          "indexed": true,
          "internalType": "address",
          "name": "previousOwner",
          "type": "address"
        },
        {
          "indexed": true,
          "internalType": "address",
          "name": "newOwner",
          "type": "address"
        }
      ],
      "name": "OwnershipTransferred",
      "type": "event"
    },
    {
      "inputs": [
        {
          "internalType": "address",
          "name": "_authorized",
          "type": "address"
        }
      ],
      "name": "addAuthorized",
      "outputs": [],
      "stateMutability": "nonpayable",
      "type": "function"
    },
    {
      "inputs": [
        {
          "internalType": "uint256",
          "name": "_amount",
          "type": "uint256"
        }
      ],
      "name": "mintRgn",
      "outputs": [],
      "stateMutability": "nonpayable",
      "type": "function"
    },
    {
      "inputs": [
        {
          "internalType": "uint256",
          "name": "_amount",
          "type": "uint256"
        }
      ],
      "name": "mintYeti",
      "outputs": [],
      "stateMutability": "nonpayable",
      "type": "function"
    },
    {
      "inputs": [],
      "name": "owner",
      "outputs": [
        {
          "internalType": "address",
          "name": "",
          "type": "address"
        }
      ],
      "stateMutability": "view",
      "type": "function"
    },
    {
      "inputs": [
        {
          "internalType": "address",
          "name": "_authorized",
          "type": "address"
        }
      ],
      "name": "removeAuthorized",
      "outputs": [],
      "stateMutability": "nonpayable",
      "type": "function"
    },
    {
      "inputs": [],
      "name": "renounceOwnership",
      "outputs": [],
      "stateMutability": "nonpayable",
      "type": "function"
    },
    {
      "inputs": [
        {
          "internalType": "uint256",
          "name": "_amount",
          "type": "uint256"
        }
      ],
      "name": "setLimit",
      "outputs": [],
      "stateMutability": "nonpayable",
      "type": "function"
    },
    {
      "inputs": [
        {
          "internalType": "address",
          "name": "_addressToSet",
          "type": "address"
        }
      ],
      "name": "setRgn",
      "outputs": [],
      "stateMutability": "nonpayable",
      "type": "function"
    },
    {
      "inputs": [
        {
          "internalType": "address",
          "name": "_addressToSet",
          "type": "address"
        }
      ],
      "name": "setYeti",
      "outputs": [],
      "stateMutability": "nonpayable",
      "type": "function"
    },
    {
      "inputs": [
        {
          "internalType": "address",
          "name": "newOwner",
          "type": "address"
        }
      ],
      "name": "transferOwnership",
      "outputs": [],
      "stateMutability": "nonpayable",
      "type": "function"
    }
  ],
  "bytecode": "0x608060405234801561001057600080fd5b5061001a3361001f565b61006f565b600080546001600160a01b038381166001600160a01b0319831681178455604051919092169283917f8be0079c531659141344cd1fd0a4f28419497f9722a3daafe3b4186f6b6457e09190a35050565b61095e8061007e6000396000f3fe608060405234801561001057600080fd5b506004361061009e5760003560e01c8063715018a611610066578063715018a6146101045780638da5cb5b1461010c578063cf1c316a1461012a578063e0baab181461013d578063f2fde38b146101505761009e565b80630be6a6b4146100a35780630c7b2331146100b857806327ea6f2b146100cb578063351820f7146100de578063485d7d94146100f1575b600080fd5b6100b66100b13660046107d2565b610163565b005b6100b66100c6366004610820565b6101bd565b6100b66100d9366004610820565b6103c0565b6100b66100ec3660046107d2565b6103f4565b6100b66100ff3660046107d2565b610445565b6100b6610495565b6101146104d0565b6040516101219190610850565b60405180910390f35b6100b66101383660046107d2565b6104df565b6100b661014b366004610820565b610532565b6100b661015e3660046107d2565b6106e2565b3360009081526004602052604090205460ff1661019b5760405162461bcd60e51b815260040161019290610864565b60405180910390fd5b600180546001600160a01b0319166001600160a01b0392909216919091179055565b6001546040516370a0823160e01b815282916001600160a01b0316906370a08231906101ed903090600401610850565b60206040518083038186803b15801561020557600080fd5b505afa158015610219573d6000803e3d6000fd5b505050506040513d601f19601f8201168201806040525081019061023d9190610838565b101561025b5760405162461bcd60e51b8152600401610192906108c6565b60035461027090670de0b6b3a76400006108fd565b6001546040516370a0823160e01b81526001600160a01b03909116906370a08231906102a0903390600401610850565b60206040518083038186803b1580156102b857600080fd5b505afa1580156102cc573d6000803e3d6000fd5b505050506040513d601f19601f820116820180604052508101906102f09190610838565b11156103375760405162461bcd60e51b81526020600482015260166024820152752cb7ba9037bbb7103a37b79036bab1b4102ca2aa249760511b6044820152606401610192565b60015460405163a9059cbb60e01b8152336004820152602481018390526001600160a01b039091169063a9059cbb906044015b602060405180830381600087803b15801561038457600080fd5b505af1158015610398573d6000803e3d6000fd5b505050506040513d601f19601f820116820180604052508101906103bc9190610800565b5050565b3360009081526004602052604090205460ff166103ef5760405162461bcd60e51b815260040161019290610864565b600355565b3360009081526004602052604090205460ff166104235760405162461bcd60e51b815260040161019290610864565b600280546001600160a01b0319166001600160a01b0392909216919091179055565b3361044e6104d0565b6001600160a01b0316146104745760405162461bcd60e51b815260040161019290610891565b6001600160a01b03166000908152600460205260409020805460ff19169055565b3361049e6104d0565b6001600160a01b0316146104c45760405162461bcd60e51b815260040161019290610891565b6104ce6000610782565b565b6000546001600160a01b031690565b336104e86104d0565b6001600160a01b03161461050e5760405162461bcd60e51b815260040161019290610891565b6001600160a01b03166000908152600460205260409020805460ff19166001179055565b6002546040516370a0823160e01b815282916001600160a01b0316906370a0823190610562903090600401610850565b60206040518083038186803b15801561057a57600080fd5b505afa15801561058e573d6000803e3d6000fd5b505050506040513d601f19601f820116820180604052508101906105b29190610838565b10156105d05760405162461bcd60e51b8152600401610192906108c6565b6003546105e590670de0b6b3a76400006108fd565b6002546040516370a0823160e01b81526001600160a01b03909116906370a0823190610615903390600401610850565b60206040518083038186803b15801561062d57600080fd5b505afa158015610641573d6000803e3d6000fd5b505050506040513d601f19601f820116820180604052508101906106659190610838565b11156106ab5760405162461bcd60e51b81526020600482015260156024820152742cb7ba9037bbb7103a37b79036bab1b4102923a71760591b6044820152606401610192565b60025460405163a9059cbb60e01b8152336004820152602481018390526001600160a01b039091169063a9059cbb9060440161036a565b336106eb6104d0565b6001600160a01b0316146107115760405162461bcd60e51b815260040161019290610891565b6001600160a01b0381166107765760405162461bcd60e51b815260206004820152602660248201527f4f776e61626c653a206e6577206f776e657220697320746865207a65726f206160448201526564647265737360d01b6064820152608401610192565b61077f81610782565b50565b600080546001600160a01b038381166001600160a01b0319831681178455604051919092169283917f8be0079c531659141344cd1fd0a4f28419497f9722a3daafe3b4186f6b6457e09190a35050565b6000602082840312156107e3578081fd5b81356001600160a01b03811681146107f9578182fd5b9392505050565b600060208284031215610811578081fd5b815180151581146107f9578182fd5b600060208284031215610831578081fd5b5035919050565b600060208284031215610849578081fd5b5051919050565b6001600160a01b0391909116815260200190565b602080825260139082015272165bdd5c881b9bdd08185d5d1a1bdc9a5e9959606a1b604082015260600190565b6020808252818101527f4f776e61626c653a2063616c6c6572206973206e6f7420746865206f776e6572604082015260600190565b6020808252601e908201527f496e73756666696369656e7420746f6b656e7320617661696c61626c652e0000604082015260600190565b600081600019048311821515161561092357634e487b7160e01b81526011600452602481fd5b50029056fea2646970667358221220f479f79df45693d8e0d984f7270d3d9541fef0c3598f1f2969df6cd7844345a864736f6c63430008020033",
  "linkReferences": {},
  "deployedLinkReferences": {}
}