{
  "_format": "hh-sol-artifact-1",
  "contractName": "RagnarVault",
  "sourceName": "contracts/MainProtocol/RagnarVault.sol",
  "abi": [
    {
      "anonymous": false,
      "inputs": [
        {
          "indexed": true,
          "internalType": "address",
          "name": "previousOwner",
          "type": "address"
        },
        {
          "indexed": true,
          "internalType": "address",
          "name": "newOwner",
          "type": "address"
        }
      ],
      "name": "OwnershipTransferred",
      "type": "event"
    },
    {
      "inputs": [
        {
          "internalType": "address",
          "name": "_authorized",
          "type": "address"
        }
      ],
      "name": "addAuthorized",
      "outputs": [],
      "stateMutability": "nonpayable",
      "type": "function"
    },
    {
      "inputs": [
        {
          "internalType": "uint256",
          "name": "_amount",
          "type": "uint256"
        }
      ],
      "name": "mintRgn",
      "outputs": [],
      "stateMutability": "nonpayable",
      "type": "function"
    },
    {
      "inputs": [
        {
          "internalType": "uint256",
          "name": "_amount",
          "type": "uint256"
        }
      ],
      "name": "mintYeti",
      "outputs": [],
      "stateMutability": "nonpayable",
      "type": "function"
    },
    {
      "inputs": [],
      "name": "owner",
      "outputs": [
        {
          "internalType": "address",
          "name": "",
          "type": "address"
        }
      ],
      "stateMutability": "view",
      "type": "function"
    },
    {
      "inputs": [
        {
          "internalType": "address",
          "name": "_authorized",
          "type": "address"
        }
      ],
      "name": "removeAuthorized",
      "outputs": [],
      "stateMutability": "nonpayable",
      "type": "function"
    },
    {
      "inputs": [],
      "name": "renounceOwnership",
      "outputs": [],
      "stateMutability": "nonpayable",
      "type": "function"
    },
    {
      "inputs": [
        {
          "internalType": "uint256",
          "name": "_amount",
          "type": "uint256"
        }
      ],
      "name": "setLimit",
      "outputs": [],
      "stateMutability": "nonpayable",
      "type": "function"
    },
    {
      "inputs": [
        {
          "internalType": "address",
          "name": "_addressToSet",
          "type": "address"
        }
      ],
      "name": "setRgn",
      "outputs": [],
      "stateMutability": "nonpayable",
      "type": "function"
    },
    {
      "inputs": [
        {
          "internalType": "address",
          "name": "_addressToSet",
          "type": "address"
        }
      ],
      "name": "setYeti",
      "outputs": [],
      "stateMutability": "nonpayable",
      "type": "function"
    },
    {
      "inputs": [
        {
          "internalType": "address",
          "name": "newOwner",
          "type": "address"
        }
      ],
      "name": "transferOwnership",
      "outputs": [],
      "stateMutability": "nonpayable",
      "type": "function"
    }
  ],
  "bytecode": "0x608060405234801561001057600080fd5b5061001a3361001f565b61006f565b600080546001600160a01b038381166001600160a01b0319831681178455604051919092169283917f8be0079c531659141344cd1fd0a4f28419497f9722a3daafe3b4186f6b6457e09190a35050565b61093d8061007e6000396000f3fe608060405234801561001057600080fd5b506004361061009e5760003560e01c8063715018a611610066578063715018a6146101045780638da5cb5b1461010c578063cf1c316a1461012b578063e0baab181461013e578063f2fde38b146101515761009e565b80630be6a6b4146100a35780630c7b2331146100b857806327ea6f2b146100cb578063351820f7146100de578063485d7d94146100f1575b600080fd5b6100b66100b13660046107fc565b610164565b005b6100b66100c636600461084a565b6101be565b6100b66100d936600461084a565b6103e7565b6100b66100ec3660046107fc565b61041b565b6100b66100ff3660046107fc565b61046c565b6100b66104b7565b600054604080516001600160a01b039092168252519081900360200190f35b6100b66101393660046107fc565b6104ed565b6100b661014c36600461084a565b61053b565b6100b661015f3660046107fc565b610711565b3360009081526004602052604090205460ff1661019c5760405162461bcd60e51b81526004016101939061087a565b60405180910390fd5b600180546001600160a01b0319166001600160a01b0392909216919091179055565b6001546040516370a0823160e01b815230600482015282916001600160a01b0316906370a082319060240160206040518083038186803b15801561020157600080fd5b505afa158015610215573d6000803e3d6000fd5b505050506040513d601f19601f820116820180604052508101906102399190610862565b10156102875760405162461bcd60e51b815260206004820152601e60248201527f496e73756666696369656e7420746f6b656e7320617661696c61626c652e00006044820152606401610193565b60035461029c90670de0b6b3a76400006108dc565b6001546040516370a0823160e01b81523360048201526001600160a01b03909116906370a082319060240160206040518083038186803b1580156102df57600080fd5b505afa1580156102f3573d6000803e3d6000fd5b505050506040513d601f19601f820116820180604052508101906103179190610862565b111561035e5760405162461bcd60e51b81526020600482015260166024820152752cb7ba9037bbb7103a37b79036bab1b4102ca2aa249760511b6044820152606401610193565b60015460405163a9059cbb60e01b8152336004820152602481018390526001600160a01b039091169063a9059cbb906044015b602060405180830381600087803b1580156103ab57600080fd5b505af11580156103bf573d6000803e3d6000fd5b505050506040513d601f19601f820116820180604052508101906103e3919061082a565b5050565b3360009081526004602052604090205460ff166104165760405162461bcd60e51b81526004016101939061087a565b600355565b3360009081526004602052604090205460ff1661044a5760405162461bcd60e51b81526004016101939061087a565b600280546001600160a01b0319166001600160a01b0392909216919091179055565b6000546001600160a01b031633146104965760405162461bcd60e51b8152600401610193906108a7565b6001600160a01b03166000908152600460205260409020805460ff19169055565b6000546001600160a01b031633146104e15760405162461bcd60e51b8152600401610193906108a7565b6104eb60006107ac565b565b6000546001600160a01b031633146105175760405162461bcd60e51b8152600401610193906108a7565b6001600160a01b03166000908152600460205260409020805460ff19166001179055565b6002546040516370a0823160e01b815230600482015282916001600160a01b0316906370a082319060240160206040518083038186803b15801561057e57600080fd5b505afa158015610592573d6000803e3d6000fd5b505050506040513d601f19601f820116820180604052508101906105b69190610862565b10156106045760405162461bcd60e51b815260206004820152601e60248201527f496e73756666696369656e7420746f6b656e7320617661696c61626c652e00006044820152606401610193565b60035461061990670de0b6b3a76400006108dc565b6002546040516370a0823160e01b81523360048201526001600160a01b03909116906370a082319060240160206040518083038186803b15801561065c57600080fd5b505afa158015610670573d6000803e3d6000fd5b505050506040513d601f19601f820116820180604052508101906106949190610862565b11156106da5760405162461bcd60e51b81526020600482015260156024820152742cb7ba9037bbb7103a37b79036bab1b4102923a71760591b6044820152606401610193565b60025460405163a9059cbb60e01b8152336004820152602481018390526001600160a01b039091169063a9059cbb90604401610391565b6000546001600160a01b0316331461073b5760405162461bcd60e51b8152600401610193906108a7565b6001600160a01b0381166107a05760405162461bcd60e51b815260206004820152602660248201527f4f776e61626c653a206e6577206f776e657220697320746865207a65726f206160448201526564647265737360d01b6064820152608401610193565b6107a9816107ac565b50565b600080546001600160a01b038381166001600160a01b0319831681178455604051919092169283917f8be0079c531659141344cd1fd0a4f28419497f9722a3daafe3b4186f6b6457e09190a35050565b60006020828403121561080d578081fd5b81356001600160a01b0381168114610823578182fd5b9392505050565b60006020828403121561083b578081fd5b81518015158114610823578182fd5b60006020828403121561085b578081fd5b5035919050565b600060208284031215610873578081fd5b5051919050565b602080825260139082015272165bdd5c881b9bdd08185d5d1a1bdc9a5e9959606a1b604082015260600190565b6020808252818101527f4f776e61626c653a2063616c6c6572206973206e6f7420746865206f776e6572604082015260600190565b600081600019048311821515161561090257634e487b7160e01b81526011600452602481fd5b50029056fea26469706673582212205f07327c5a759efc6c6537bf3582e162ffb19b794c16ff42f26e72129965658964736f6c63430008020033",
  "linkReferences": {},
  "deployedLinkReferences": {}
}