{
  "_format": "hh-sol-artifact-1",
  "contractName": "MasterChefRGN",
  "sourceName": "contracts/MainProtocol/MasterChef.sol",
  "abi": [
    {
      "anonymous": false,
      "inputs": [
        {
          "indexed": false,
          "internalType": "uint256",
          "name": "allocPoint",
          "type": "uint256"
        },
        {
          "indexed": true,
          "internalType": "address",
          "name": "lpToken",
          "type": "address"
        },
        {
          "indexed": true,
          "internalType": "contract IBaseRewardPool",
          "name": "rewarder",
          "type": "address"
        }
      ],
      "name": "Add",
      "type": "event"
    },
    {
      "anonymous": false,
      "inputs": [
        {
          "indexed": true,
          "internalType": "address",
          "name": "user",
          "type": "address"
        },
        {
          "indexed": true,
          "internalType": "address",
          "name": "lpToken",
          "type": "address"
        },
        {
          "indexed": false,
          "internalType": "uint256",
          "name": "amount",
          "type": "uint256"
        }
      ],
      "name": "Deposit",
      "type": "event"
    },
    {
      "anonymous": false,
      "inputs": [
        {
          "indexed": true,
          "internalType": "address",
          "name": "user",
          "type": "address"
        },
        {
          "indexed": true,
          "internalType": "address",
          "name": "lpToken",
          "type": "address"
        },
        {
          "indexed": false,
          "internalType": "uint256",
          "name": "amount",
          "type": "uint256"
        }
      ],
      "name": "EmergencyWithdraw",
      "type": "event"
    },
    {
      "anonymous": false,
      "inputs": [
        {
          "indexed": true,
          "internalType": "address",
          "name": "user",
          "type": "address"
        },
        {
          "indexed": true,
          "internalType": "address",
          "name": "lpToken",
          "type": "address"
        },
        {
          "indexed": false,
          "internalType": "uint256",
          "name": "amount",
          "type": "uint256"
        }
      ],
      "name": "Harvest",
      "type": "event"
    },
    {
      "anonymous": false,
      "inputs": [
        {
          "indexed": true,
          "internalType": "address",
          "name": "previousOwner",
          "type": "address"
        },
        {
          "indexed": true,
          "internalType": "address",
          "name": "newOwner",
          "type": "address"
        }
      ],
      "name": "OwnershipTransferred",
      "type": "event"
    },
    {
      "anonymous": false,
      "inputs": [
        {
          "indexed": true,
          "internalType": "address",
          "name": "lpToken",
          "type": "address"
        },
        {
          "indexed": false,
          "internalType": "uint256",
          "name": "allocPoint",
          "type": "uint256"
        },
        {
          "indexed": true,
          "internalType": "contract IBaseRewardPool",
          "name": "rewarder",
          "type": "address"
        },
        {
          "indexed": false,
          "internalType": "bool",
          "name": "overwrite",
          "type": "bool"
        }
      ],
      "name": "Set",
      "type": "event"
    },
    {
      "anonymous": false,
      "inputs": [
        {
          "indexed": true,
          "internalType": "address",
          "name": "user",
          "type": "address"
        },
        {
          "indexed": false,
          "internalType": "uint256",
          "name": "_rgnPerSec",
          "type": "uint256"
        }
      ],
      "name": "UpdateEmissionRate",
      "type": "event"
    },
    {
      "anonymous": false,
      "inputs": [
        {
          "indexed": true,
          "internalType": "address",
          "name": "lpToken",
          "type": "address"
        },
        {
          "indexed": false,
          "internalType": "uint256",
          "name": "lastRewardTimestamp",
          "type": "uint256"
        },
        {
          "indexed": false,
          "internalType": "uint256",
          "name": "lpSupply",
          "type": "uint256"
        },
        {
          "indexed": false,
          "internalType": "uint256",
          "name": "accRGNPerShare",
          "type": "uint256"
        }
      ],
      "name": "UpdatePool",
      "type": "event"
    },
    {
      "anonymous": false,
      "inputs": [
        {
          "indexed": true,
          "internalType": "address",
          "name": "user",
          "type": "address"
        },
        {
          "indexed": true,
          "internalType": "address",
          "name": "lpToken",
          "type": "address"
        },
        {
          "indexed": false,
          "internalType": "uint256",
          "name": "amount",
          "type": "uint256"
        }
      ],
      "name": "Withdraw",
      "type": "event"
    },
    {
      "inputs": [
        {
          "internalType": "address",
          "name": "_rgn",
          "type": "address"
        },
        {
          "internalType": "uint256",
          "name": "_rgnPerSec",
          "type": "uint256"
        },
        {
          "internalType": "uint256",
          "name": "_startTimestamp",
          "type": "uint256"
        }
      ],
      "name": "__MasterChefRGN_init",
      "outputs": [],
      "stateMutability": "nonpayable",
      "type": "function"
    },
    {
      "inputs": [
        {
          "internalType": "uint256",
          "name": "_allocPoint",
          "type": "uint256"
        },
        {
          "internalType": "address",
          "name": "_lpToken",
          "type": "address"
        },
        {
          "internalType": "address",
          "name": "_rewarder",
          "type": "address"
        }
      ],
      "name": "add",
      "outputs": [],
      "stateMutability": "nonpayable",
      "type": "function"
    },
    {
      "inputs": [
        {
          "internalType": "address",
          "name": "",
          "type": "address"
        }
      ],
      "name": "addressToPoolInfo",
      "outputs": [
        {
          "internalType": "address",
          "name": "lpToken",
          "type": "address"
        },
        {
          "internalType": "uint256",
          "name": "allocPoint",
          "type": "uint256"
        },
        {
          "internalType": "uint256",
          "name": "lastRewardTimestamp",
          "type": "uint256"
        },
        {
          "internalType": "uint256",
          "name": "accRGNPerShare",
          "type": "uint256"
        },
        {
          "internalType": "address",
          "name": "rewarder",
          "type": "address"
        },
        {
          "internalType": "address",
          "name": "locker",
          "type": "address"
        }
      ],
      "stateMutability": "view",
      "type": "function"
    },
    {
      "inputs": [],
      "name": "allowEmergency",
      "outputs": [],
      "stateMutability": "nonpayable",
      "type": "function"
    },
    {
      "inputs": [
        {
          "internalType": "address",
          "name": "_lpToken",
          "type": "address"
        },
        {
          "internalType": "address",
          "name": "mainRewardToken",
          "type": "address"
        }
      ],
      "name": "createRewarder",
      "outputs": [
        {
          "internalType": "address",
          "name": "",
          "type": "address"
        }
      ],
      "stateMutability": "nonpayable",
      "type": "function"
    },
    {
      "inputs": [
        {
          "internalType": "address",
          "name": "_lp",
          "type": "address"
        },
        {
          "internalType": "uint256",
          "name": "_amount",
          "type": "uint256"
        }
      ],
      "name": "deposit",
      "outputs": [],
      "stateMutability": "nonpayable",
      "type": "function"
    },
    {
      "inputs": [
        {
          "internalType": "address",
          "name": "_lp",
          "type": "address"
        },
        {
          "internalType": "uint256",
          "name": "_amount",
          "type": "uint256"
        },
        {
          "internalType": "address",
          "name": "sender",
          "type": "address"
        }
      ],
      "name": "depositFor",
      "outputs": [],
      "stateMutability": "nonpayable",
      "type": "function"
    },
    {
      "inputs": [
        {
          "internalType": "address",
          "name": "_lp",
          "type": "address"
        },
        {
          "internalType": "address",
          "name": "_user",
          "type": "address"
        }
      ],
      "name": "depositInfo",
      "outputs": [
        {
          "internalType": "uint256",
          "name": "availableAmount",
          "type": "uint256"
        }
      ],
      "stateMutability": "view",
      "type": "function"
    },
    {
      "inputs": [
        {
          "internalType": "address",
          "name": "_lp",
          "type": "address"
        }
      ],
      "name": "emergencyWithdraw",
      "outputs": [],
      "stateMutability": "nonpayable",
      "type": "function"
    },
    {
      "inputs": [
        {
          "internalType": "address",
          "name": "_lp",
          "type": "address"
        }
      ],
      "name": "emergencyWithdrawWithReward",
      "outputs": [],
      "stateMutability": "nonpayable",
      "type": "function"
    },
    {
      "inputs": [
        {
          "internalType": "address",
          "name": "token",
          "type": "address"
        }
      ],
      "name": "getPoolInfo",
      "outputs": [
        {
          "internalType": "uint256",
          "name": "emission",
          "type": "uint256"
        },
        {
          "internalType": "uint256",
          "name": "allocpoint",
          "type": "uint256"
        },
        {
          "internalType": "uint256",
          "name": "sizeOfPool",
          "type": "uint256"
        },
        {
          "internalType": "uint256",
          "name": "totalPoint",
          "type": "uint256"
        }
      ],
      "stateMutability": "view",
      "type": "function"
    },
    {
      "inputs": [],
      "name": "massUpdatePools",
      "outputs": [],
      "stateMutability": "nonpayable",
      "type": "function"
    },
    {
      "inputs": [
        {
          "internalType": "address[]",
          "name": "_lps",
          "type": "address[]"
        },
        {
          "internalType": "address",
          "name": "userAddress",
          "type": "address"
        }
      ],
      "name": "multiclaim",
      "outputs": [],
      "stateMutability": "nonpayable",
      "type": "function"
    },
    {
      "inputs": [],
      "name": "owner",
      "outputs": [
        {
          "internalType": "address",
          "name": "",
          "type": "address"
        }
      ],
      "stateMutability": "view",
      "type": "function"
    },
    {
      "inputs": [
        {
          "internalType": "address",
          "name": "_lp",
          "type": "address"
        },
        {
          "internalType": "address",
          "name": "_user",
          "type": "address"
        },
        {
          "internalType": "address",
          "name": "token",
          "type": "address"
        }
      ],
      "name": "pendingTokens",
      "outputs": [
        {
          "internalType": "uint256",
          "name": "pendingRGN",
          "type": "uint256"
        },
        {
          "internalType": "address",
          "name": "bonusTokenAddress",
          "type": "address"
        },
        {
          "internalType": "string",
          "name": "bonusTokenSymbol",
          "type": "string"
        },
        {
          "internalType": "uint256",
          "name": "pendingBonusToken",
          "type": "uint256"
        }
      ],
      "stateMutability": "view",
      "type": "function"
    },
    {
      "inputs": [],
      "name": "poolLength",
      "outputs": [
        {
          "internalType": "uint256",
          "name": "",
          "type": "uint256"
        }
      ],
      "stateMutability": "view",
      "type": "function"
    },
    {
      "inputs": [
        {
          "internalType": "address",
          "name": "",
          "type": "address"
        }
      ],
      "name": "poolManagers",
      "outputs": [
        {
          "internalType": "bool",
          "name": "",
          "type": "bool"
        }
      ],
      "stateMutability": "view",
      "type": "function"
    },
    {
      "inputs": [],
      "name": "realEmergencyAllowed",
      "outputs": [
        {
          "internalType": "bool",
          "name": "",
          "type": "bool"
        }
      ],
      "stateMutability": "view",
      "type": "function"
    },
    {
      "inputs": [
        {
          "internalType": "address",
          "name": "_lp",
          "type": "address"
        }
      ],
      "name": "realEmergencyWithdraw",
      "outputs": [],
      "stateMutability": "nonpayable",
      "type": "function"
    },
    {
      "inputs": [
        {
          "internalType": "uint256",
          "name": "",
          "type": "uint256"
        }
      ],
      "name": "registeredToken",
      "outputs": [
        {
          "internalType": "address",
          "name": "",
          "type": "address"
        }
      ],
      "stateMutability": "view",
      "type": "function"
    },
    {
      "inputs": [],
      "name": "renounceOwnership",
      "outputs": [],
      "stateMutability": "nonpayable",
      "type": "function"
    },
    {
      "inputs": [],
      "name": "rewarderAddress",
      "outputs": [
        {
          "internalType": "address",
          "name": "",
          "type": "address"
        }
      ],
      "stateMutability": "view",
      "type": "function"
    },
    {
      "inputs": [],
      "name": "rgn",
      "outputs": [
        {
          "internalType": "contract RGN",
          "name": "",
          "type": "address"
        }
      ],
      "stateMutability": "view",
      "type": "function"
    },
    {
      "inputs": [],
      "name": "rgnPerSec",
      "outputs": [
        {
          "internalType": "uint256",
          "name": "",
          "type": "uint256"
        }
      ],
      "stateMutability": "view",
      "type": "function"
    },
    {
      "inputs": [
        {
          "internalType": "address",
          "name": "_lp",
          "type": "address"
        },
        {
          "internalType": "uint256",
          "name": "_allocPoint",
          "type": "uint256"
        },
        {
          "internalType": "address",
          "name": "_rewarder",
          "type": "address"
        },
        {
          "internalType": "bool",
          "name": "overwrite",
          "type": "bool"
        }
      ],
      "name": "set",
      "outputs": [],
      "stateMutability": "nonpayable",
      "type": "function"
    },
    {
      "inputs": [
        {
          "internalType": "address",
          "name": "_address",
          "type": "address"
        },
        {
          "internalType": "bool",
          "name": "_bool",
          "type": "bool"
        }
      ],
      "name": "setPoolManagerStatus",
      "outputs": [],
      "stateMutability": "nonpayable",
      "type": "function"
    },
    {
      "inputs": [],
      "name": "startTimestamp",
      "outputs": [
        {
          "internalType": "uint256",
          "name": "",
          "type": "uint256"
        }
      ],
      "stateMutability": "view",
      "type": "function"
    },
    {
      "inputs": [],
      "name": "totalAllocPoint",
      "outputs": [
        {
          "internalType": "uint256",
          "name": "",
          "type": "uint256"
        }
      ],
      "stateMutability": "view",
      "type": "function"
    },
    {
      "inputs": [
        {
          "internalType": "address",
          "name": "newOwner",
          "type": "address"
        }
      ],
      "name": "transferOwnership",
      "outputs": [],
      "stateMutability": "nonpayable",
      "type": "function"
    },
    {
      "inputs": [
        {
          "internalType": "uint256",
          "name": "_rgnPerSec",
          "type": "uint256"
        }
      ],
      "name": "updateEmissionRate",
      "outputs": [],
      "stateMutability": "nonpayable",
      "type": "function"
    },
    {
      "inputs": [
        {
          "internalType": "address",
          "name": "_lp",
          "type": "address"
        }
      ],
      "name": "updatePool",
      "outputs": [],
      "stateMutability": "nonpayable",
      "type": "function"
    },
    {
      "inputs": [
        {
          "internalType": "address",
          "name": "_lp",
          "type": "address"
        },
        {
          "internalType": "uint256",
          "name": "_amount",
          "type": "uint256"
        }
      ],
      "name": "withdraw",
      "outputs": [],
      "stateMutability": "nonpayable",
      "type": "function"
    },
    {
      "inputs": [
        {
          "internalType": "address",
          "name": "_lp",
          "type": "address"
        },
        {
          "internalType": "uint256",
          "name": "_amount",
          "type": "uint256"
        },
        {
          "internalType": "address",
          "name": "_sender",
          "type": "address"
        }
      ],
      "name": "withdrawFor",
      "outputs": [],
      "stateMutability": "nonpayable",
      "type": "function"
    }
  ],
  "bytecode": "0x608060405234801561001057600080fd5b50614ce8806100206000396000f3fe60806040523480156200001157600080fd5b50600436106200022c5760003560e01c80637b46c54f1162000135578063c8820f6c11620000bd578063e6fd48bc1162000087578063e6fd48bc1462000573578063e952fddc146200057d578063efe33cfa1462000594578063f2fde38b14620005ab578063f3fef3a314620005c2576200022c565b8063c8820f6c1462000534578063cdfaeab6146200054b578063d4ac0fa11462000555578063e0e2b2b3146200055f576200022c565b806397f3b30411620000ff57806397f3b30414620004c65780639c7e265514620004dd578063ab7de09814620004f4578063ad05e627146200050b576200022c565b80637b46c54f14620004605780638a64e0c414620004775780638da5cb5b146200049d5780639742f6cd14620004af576200022c565b806347e7ef2411620001b95780636766efbe11620001835780636766efbe14620003945780636ff1c9bc14620003ab578063715018a614620003c257806375b1aadc14620003cc576200022c565b806347e7ef24146200031d578063493b01701462000334578063578461aa1462000373578063630b5ba1146200038a576200022c565b806317e5483011620001fb57806317e5483014620002a357806337fb24cf14620002ba5780633b3f0ee614620002e75780634545b1b414620002fe576200022c565b806306bfa9381462000231578063081e3eda146200026d5780630ba84cd2146200028057806317caf6f11462000299575b600080fd5b620002486200024236600462002b97565b620005d9565b6040805194855260208501939093529183015260608201526080015b60405180910390f35b6068545b60405190815260200162000264565b620002976200029136600462002ea1565b620006d0565b005b62000271606c5481565b62000297620002b436600462002d5c565b6200079d565b606554620002ce906001600160a01b031681565b6040516001600160a01b03909116815260200162000264565b620002ce620002f836600462002bb4565b6200099a565b606e546200030c9060ff1681565b604051901515815260200162000264565b620002976200032e36600462002c6f565b62000a49565b620002716200034536600462002bb4565b6001600160a01b039182166000908152606b6020908152604080832093909416825291909152206002015490565b620002976200038436600462002cd2565b62000d91565b6200029762000f38565b62000297620003a536600462002c9b565b62000f9f565b62000297620003bc36600462002b97565b620011f7565b620002976200134a565b62000421620003dd36600462002b97565b6069602052600090815260409020805460018201546002830154600384015460048501546005909501546001600160a01b0394851695939492939192918216911686565b604080516001600160a01b039788168152602081019690965285019390935260608401919091528316608083015290911660a082015260c00162000264565b620002976200047136600462002b97565b62001385565b6200030c6200048836600462002b97565b606f6020526000908152604090205460ff1681565b6033546001600160a01b0316620002ce565b62000297620004c036600462002d27565b62001521565b62000297620004d736600462002b97565b620016b4565b620002ce620004ee36600462002ea1565b620017d3565b620002976200050536600462002ed3565b620017fe565b620005226200051c36600462002beb565b62001aa8565b6040516200026494939291906200302a565b620002976200054536600462002c9b565b62001d58565b62000297620020b8565b6200027160665481565b606754620002ce906001600160a01b031681565b62000271606d5481565b620002976200058e36600462002b97565b620020f4565b62000297620005a536600462002c34565b62002218565b62000297620005bc36600462002b97565b62002270565b62000297620005d336600462002c6f565b6200230f565b6001600160a01b038181166000818152606960209081526040808320815160c0810183528154871681526001820154938101849052600282015481840152600382015460608201526004808301548816608083015260059092015490961660a087015260665491516370a0823160e01b81523091810191909152929485948594859492939291906370a082319060240160206040518083038186803b1580156200068257600080fd5b505afa15801562000697573d6000803e3d6000fd5b505050506040513d601f19601f82011682018060405250810190620006bd919062002eba565b606c549450945094509450509193509193565b6033546001600160a01b03163314620007065760405162461bcd60e51b8152600401620006fd9062002faa565b60405180910390fd5b69d3c21bcecceda1000000811115620007565760405162461bcd60e51b815260206004820152601160248201527008adad2e6e6d2dedc40e8dede40d0d2ced607b1b6044820152606401620006fd565b6200076062000f38565b606681905560405181815233907fe2492e003bbe8afa53088b406f0c1cb5d9e280370fc72a74cf116ffd343c40539060200160405180910390a250565b8160005b8181101562000993576000858583818110620007cd57634e487b7160e01b600052603260045260246000fd5b9050602002016020810190620007e4919062002b97565b6001600160a01b038082166000908152606960209081526040808320606b8352818420948a16845293909152902091925090620008218362001385565b805415620008b1576000816001015464e8d4a51000846003015484600001546200084c9190620030a3565b62000858919062003082565b620008649190620030c5565b90506200087287826200253d565b836001600160a01b0316876001600160a01b031660008051602062004c9383398151915283604051620008a791815260200190565b60405180910390a3505b8054600383015464e8d4a5100091620008cb9190620030a3565b620008d7919062003082565b600182015560048201546001600160a01b0316156200097c57600482810154604051630c00007b60e41b81526001600160a01b0389811693820193909352911690819063c00007b090602401602060405180830381600087803b1580156200093e57600080fd5b505af115801562000953573d6000803e3d6000fd5b505050506040513d601f19601f8201168201806040525081019062000979919062002dd8565b50505b505050806200098b906200310e565b9050620007a1565b5050505050565b336000908152606f602052604081205460ff16620009cc5760405162461bcd60e51b8152600401620006fd9062002f7e565b600083833033604051620009e09062002b71565b6001600160a01b039485168152928416602084015290831660408301529091166060820152608001604051809103906000f08015801562000a25573d6000803e3d6000fd5b50606780546001600160a01b0319166001600160a01b038316179055949350505050565b6001600160a01b0380831660009081526069602052604090208054909162000a75911633308562002750565b6001600160a01b0383166000908152606b60209081526040808320338452909152902062000aa38462001385565b80541562000b25576000816001015464e8d4a510008460030154846000015462000ace9190620030a3565b62000ada919062003082565b62000ae69190620030c5565b905062000af433826200253d565b6040518181526001600160a01b03861690339060008051602062004c938339815191529060200160405180910390a3505b805462000b3490849062003067565b8155600281015462000b4890849062003067565b60028201556003820154815464e8d4a510009162000b6691620030a3565b62000b72919062003082565b60018201556001600160a01b03808516600090815260696020526040902060040154168315801562000bac57506001600160a01b03811615155b1562000c3657604051630c00007b60e41b81523360048201526001600160a01b0382169063c00007b090602401602060405180830381600087803b15801562000bf457600080fd5b505af115801562000c09573d6000803e3d6000fd5b505050506040513d601f19601f8201168201806040525081019062000c2f919062002dd8565b5062000993565b6001600160a01b0381161562000d4a576040516305dc812160e31b8152336004820152602481018590526001600160a01b03821690632ee4090890604401602060405180830381600087803b15801562000c8f57600080fd5b505af115801562000ca4573d6000803e3d6000fd5b505050506040513d601f19601f8201168201806040525081019062000cca919062002dd8565b50604051630c00007b60e41b81523360048201526001600160a01b0382169063c00007b090602401602060405180830381600087803b15801562000d0d57600080fd5b505af115801562000d22573d6000803e3d6000fd5b505050506040513d601f19601f8201168201806040525081019062000d48919062002dd8565b505b6040518481526001600160a01b0386169033907f5548c837ab068cf56a2c2479df0882a4922fd203edb7517321831d95078c5f629060200160405180910390a35050505050565b336000908152606f602052604090205460ff1662000dc35760405162461bcd60e51b8152600401620006fd9062002f7e565b62000dce82620027bd565b8062000de157506001600160a01b038216155b62000e2f5760405162461bcd60e51b815260206004820181905260248201527f7365743a207265776172646572206d75737420626520636e747274206f7220306044820152606401620006fd565b62000e3962000f38565b6001600160a01b038416600090815260696020526040902060010154606c54849162000e6591620030c5565b62000e71919062003067565b606c556001600160a01b0384166000908152606960205260409020600101839055801562000ecb576001600160a01b03848116600090815260696020526040902060040180546001600160a01b0319169184169190911790555b6001600160a01b03808516600081815260696020526040908190206004015490519216917f67a771b62a820550bb36aef66e37054d1a10c83e41347db2f47df0697e4e86069062000f2a90879086909182521515602082015260400190565b60405180910390a350505050565b60685460005b8181101562000f9b5762000f886068828154811062000f6d57634e487b7160e01b600052603260045260246000fd5b6000918252602090912001546001600160a01b031662001385565b62000f93816200310e565b905062000f3e565b5050565b6001600160a01b038084166000908152606960209081526040808320606b835281842094861684529390915290206002810154841115620010185760405162461bcd60e51b81526020600482015260126024820152711dda5d1a191c985dce881b9bdd0819dbdbd960721b6044820152606401620006fd565b620010238562001385565b6000816001015464e8d4a5100084600301548460000154620010469190620030a3565b62001052919062003082565b6200105e9190620030c5565b90506200106c84826200253d565b856001600160a01b0316846001600160a01b031660008051602062004c9383398151915283604051620010a191815260200190565b60405180910390a38154620010b8908690620030c5565b82556002820154620010cc908690620030c5565b60028301556003830154825464e8d4a5100091620010ea91620030a3565b620010f6919062003082565b60018301556001600160a01b038087166000908152606960205260409020600401541680156200118857604051630e19c69960e01b81526001600160a01b03821690630e19c69990620011539088908a9060019060040162002f46565b600060405180830381600087803b1580156200116e57600080fd5b505af115801562001183573d6000803e3d6000fd5b505050505b8354620011a0906001600160a01b03163388620027d0565b866001600160a01b0316856001600160a01b03167f9b1bfa7fa9ee420a16e124f794c35ac9f90472acc99140eb2f6447c714cad8eb88604051620011e691815260200190565b60405180910390a350505050505050565b6001600160a01b038082166000818152606960208181526040808420606b835281852033808752908452918520958552929091526004820154600285018054949055825492959081169392620012519291169083620027d0565b6040518181526001600160a01b0386169033907ff24ef89f38eadc1bde50701ad6e4d6d11a2dc24f7cf834a486991f38833285049060200160405180910390a38254620012a0908290620030c5565b808455600385015464e8d4a5100091620012bb9190620030a3565b620012c7919062003082565b60018401556001600160a01b038216156200099357604051630e19c69960e01b81526001600160a01b03831690630e19c699906200130f903390859060009060040162002f46565b600060405180830381600087803b1580156200132a57600080fd5b505af11580156200133f573d6000803e3d6000fd5b505050505050505050565b6033546001600160a01b03163314620013775760405162461bcd60e51b8152600401620006fd9062002faa565b62001383600062002802565b565b6001600160a01b038116600090815260696020526040902060028101544211620013b057506200151e565b80546040516370a0823160e01b81523060048201526000916001600160a01b0316906370a082319060240160206040518083038186803b158015620013f457600080fd5b505afa15801562001409573d6000803e3d6000fd5b505050506040513d601f19601f820116820180604052508101906200142f919062002eba565b905080620014455750426002909101556200151e565b6000826002015442620014599190620030c5565b90506000606c54846001015460665484620014759190620030a3565b620014819190620030a3565b6200148d919062003082565b905082620014a18264e8d4a51000620030a3565b620014ad919062003082565b8460030154620014be919062003067565b60038501819055426002860181905560408051918252602082018690528101919091526001600160a01b038616907f50a1a2d4fcb1c08863a0b14fcc7d9d728e2b21d8d7588b9cfa3991efe8112ee79060600160405180910390a2505050505b50565b600054610100900460ff166200153e5760005460ff161562001548565b6200154862002854565b620015ad5760405162461bcd60e51b815260206004820152602e60248201527f496e697469616c697a61626c653a20636f6e747261637420697320616c72656160448201526d191e481a5b9a5d1a585b1a5e995960921b6064820152608401620006fd565b600054610100900460ff16158015620015d9576000805460ff1961ff0019909116610100171660011790555b620015e362002867565b69d3c21bcecceda1000000831115620016335760405162461bcd60e51b815260206004820152601160248201527008adad2e6e6d2dedc40e8dede40d0d2ced607b1b6044820152606401620006fd565b606580546001600160a01b0319166001600160a01b038616179055606d8290556000606c819055600190606f90620016736033546001600160a01b031690565b6001600160a01b031681526020810191909152604001600020805460ff19169115159190911790558015620016ae576000805461ff00191690555b50505050565b6001600160a01b038082166000908152606960209081526040808320606b83528184203380865293529083206002810180549490558154919490939262001700929091169083620027d0565b6040518181526001600160a01b0385169033907ff24ef89f38eadc1bde50701ad6e4d6d11a2dc24f7cf834a486991f38833285049060200160405180910390a381546200174f908290620030c5565b808355600384015464e8d4a51000916200176a9190620030a3565b62001776919062003082565b60018301556001600160a01b038085166000908152606960205260409020600401541680156200099357604051630e19c69960e01b81526001600160a01b03821690630e19c699906200130f903390869060019060040162002f46565b60688181548110620017e457600080fd5b6000918252602090912001546001600160a01b0316905081565b336000908152606f602052604090205460ff16620018305760405162461bcd60e51b8152600401620006fd9062002f7e565b6200183b82620027bd565b620018895760405162461bcd60e51b815260206004820152601f60248201527f6164643a204c5020746b6e206d7573742062652076616c696420636e747274006044820152606401620006fd565b6200189481620027bd565b80620018a757506001600160a01b038116155b620018f55760405162461bcd60e51b815260206004820181905260248201527f6164643a207265776172646572206d75737420626520636e747274206f7220306044820152606401620006fd565b6001600160a01b0382166000908152606a602052604090205460ff1615620019585760405162461bcd60e51b81526020600482015260156024820152741859190e88131408185b1c9958591e481859191959605a1b6044820152606401620006fd565b6200196262000f38565b6000606d5442116200197757606d5462001979565b425b905083606c546200198b919062003067565b606c556068805460018082019092557fa2153420d844928b4421650203c77babc8b33d7f2e7b450e2966db0c220977530180546001600160a01b03199081166001600160a01b038781169182179093556040805160c08101825282815260208082018b81528284018981526000606085018181528c8a166080870181815260a088018481528a855260698852898520985189548d16908e161789559551888e0155935160028801559051600387015591516004860180548a16918b169190911790559151600590940180549097169390971692909217909455606a8452819020805460ff191690951790945592518781529192917fec85b1d1f037ff3a8722aaf5d4d8e7d93c7ff10c056430c18d76a9ec23aa397e910162000f2a565b6001600160a01b038381166000908152606960209081526040808320606b835281842087861685529092528083206003830154835492516370a0823160e01b81523060048201529495869560609587959094939286929116906370a082319060240160206040518083038186803b15801562001b2357600080fd5b505afa15801562001b38573d6000803e3d6000fd5b505050506040513d601f19601f8201168201806040525081019062001b5e919062002eba565b905083600201544211801562001b7357508015155b1562001bf257600084600201544262001b8d9190620030c5565b90506000606c5486600101546066548462001ba99190620030a3565b62001bb59190620030a3565b62001bc1919062003082565b90508262001bd58264e8d4a51000620030a3565b62001be1919062003082565b62001bed908562003067565b935050505b6001830154835464e8d4a510009062001c0d908590620030a3565b62001c19919062003082565b62001c259190620030c5565b60048501549098506001600160a01b03161562001d4b5788896001600160a01b03166395d89b416040518163ffffffff1660e01b815260040160006040518083038186803b15801562001c7757600080fd5b505afa15801562001c8c573d6000803e3d6000fd5b505050506040513d6000823e601f3d908101601f1916820160405262001cb6919081019062002df7565b60048681015460405163211dc32d60e01b81526001600160a01b038f8116938201939093528d83166024820152939a50919850169063211dc32d9060440160206040518083038186803b15801562001d0d57600080fd5b505afa15801562001d22573d6000803e3d6000fd5b505050506040513d601f19601f8201168201806040525081019062001d48919062002eba565b94505b5050505093509350935093565b6001600160a01b038084166000908152606960209081526040808320606b8352818420868616855290925290912081549192909162001d9b911633308762002750565b62001da68562001385565b80541562001e36576000816001015464e8d4a510008460030154846000015462001dd19190620030a3565b62001ddd919062003082565b62001de99190620030c5565b905062001df784826200253d565b856001600160a01b0316846001600160a01b031660008051602062004c938339815191528360405162001e2c91815260200190565b60405180910390a3505b805462001e4590859062003067565b8155600281015462001e5990859062003067565b60028201556003820154815464e8d4a510009162001e7791620030a3565b62001e83919062003082565b60018201556001600160a01b03808616600090815260696020526040902060040154168415801562001ebd57506001600160a01b03811615155b1562001f4957604051630c00007b60e41b81526001600160a01b03858116600483015282169063c00007b090602401602060405180830381600087803b15801562001f0757600080fd5b505af115801562001f1c573d6000803e3d6000fd5b505050506040513d601f19601f8201168201806040525081019062001f42919062002dd8565b50620020b0565b6001600160a01b0381161562002061576040516305dc812160e31b81526001600160a01b03858116600483015260248201879052821690632ee4090890604401602060405180830381600087803b15801562001fa457600080fd5b505af115801562001fb9573d6000803e3d6000fd5b505050506040513d601f19601f8201168201806040525081019062001fdf919062002dd8565b50604051630c00007b60e41b81526001600160a01b03858116600483015282169063c00007b090602401602060405180830381600087803b1580156200202457600080fd5b505af115801562002039573d6000803e3d6000fd5b505050506040513d601f19601f820116820180604052508101906200205f919062002dd8565b505b856001600160a01b0316846001600160a01b03167f5548c837ab068cf56a2c2479df0882a4922fd203edb7517321831d95078c5f6287604051620020a791815260200190565b60405180910390a35b505050505050565b6033546001600160a01b03163314620020e55760405162461bcd60e51b8152600401620006fd9062002faa565b606e805460ff19166001179055565b606e5460ff16620021485760405162461bcd60e51b815260206004820152601f60248201527f5265616c20656d20616c6c6f77656420696620656d57697468206661696c73006044820152606401620006fd565b6001600160a01b038082166000908152606960209081526040808320606b83528184203380865293529083206002810180549490558154919490939262002194929091169083620027d0565b6040518181526001600160a01b0385169033907ff24ef89f38eadc1bde50701ad6e4d6d11a2dc24f7cf834a486991f38833285049060200160405180910390a38154620021e3908290620030c5565b808355600384015464e8d4a5100091620021fe9190620030a3565b6200220a919062003082565b826001018190555050505050565b6033546001600160a01b03163314620022455760405162461bcd60e51b8152600401620006fd9062002faa565b6001600160a01b03919091166000908152606f60205260409020805460ff1916911515919091179055565b6033546001600160a01b031633146200229d5760405162461bcd60e51b8152600401620006fd9062002faa565b6001600160a01b038116620023045760405162461bcd60e51b815260206004820152602660248201527f4f776e61626c653a206e6577206f776e657220697320746865207a65726f206160448201526564647265737360d01b6064820152608401620006fd565b6200151e8162002802565b6001600160a01b0382166000908152606960209081526040808320606b83528184203385529092529091206002810154831115620023855760405162461bcd60e51b81526020600482015260126024820152711dda5d1a191c985dce881b9bdd0819dbdbd960721b6044820152606401620006fd565b620023908462001385565b6000816001015464e8d4a5100084600301548460000154620023b39190620030a3565b620023bf919062003082565b620023cb9190620030c5565b9050620023d933826200253d565b6040518181526001600160a01b03861690339060008051602062004c938339815191529060200160405180910390a3815462002417908590620030c5565b825560028201546200242b908590620030c5565b60028301556003830154825464e8d4a51000916200244991620030a3565b62002455919062003082565b60018301556001600160a01b03808616600090815260696020526040902060040154168015620024e757604051630e19c69960e01b81526001600160a01b03821690630e19c69990620024b2903390899060019060040162002f46565b600060405180830381600087803b158015620024cd57600080fd5b505af1158015620024e2573d6000803e3d6000fd5b505050505b8354620024ff906001600160a01b03163387620027d0565b6040518581526001600160a01b0387169033907f9b1bfa7fa9ee420a16e124f794c35ac9f90472acc99140eb2f6447c714cad8eb90602001620020a7565b6065546040516340c10f1960e01b8152306004820152602481018390526001600160a01b03909116906340c10f1990604401600060405180830381600087803b1580156200258a57600080fd5b505af11580156200259f573d6000803e3d6000fd5b50506065546040516370a0823160e01b8152306004820152600093506001600160a01b0390911691506370a082319060240160206040518083038186803b158015620025ea57600080fd5b505afa158015620025ff573d6000803e3d6000fd5b505050506040513d601f19601f8201168201806040525081019062002625919062002eba565b905080821115620026c15760655460405163a9059cbb60e01b81526001600160a01b038581166004830152602482018490529091169063a9059cbb90604401602060405180830381600087803b1580156200267f57600080fd5b505af115801562002694573d6000803e3d6000fd5b505050506040513d601f19601f82011682018060405250810190620026ba919062002dd8565b506200274b565b60655460405163a9059cbb60e01b81526001600160a01b038581166004830152602482018590529091169063a9059cbb90604401602060405180830381600087803b1580156200271057600080fd5b505af115801562002725573d6000803e3d6000fd5b505050506040513d601f19601f82011682018060405250810190620016ae919062002dd8565b505050565b6040516001600160a01b0380851660248301528316604482015260648101829052620016ae9085906323b872dd60e01b906084015b60408051601f198184030181529190526020810180516001600160e01b03166001600160e01b031990931692909217909152620028a5565b6001600160a01b0381163b15155b919050565b6040516001600160a01b0383166024820152604481018290526200274b90849063a9059cbb60e01b9060640162002785565b603380546001600160a01b038381166001600160a01b0319831681179093556040519116919082907f8be0079c531659141344cd1fd0a4f28419497f9722a3daafe3b4186f6b6457e090600090a35050565b60006200286130620027bd565b15905090565b600054610100900460ff16620028915760405162461bcd60e51b8152600401620006fd9062002fdf565b6200289b6200297e565b62001383620029a8565b6000620028fc826040518060400160405280602081526020017f5361666545524332303a206c6f772d6c6576656c2063616c6c206661696c6564815250856001600160a01b0316620029dd9092919063ffffffff16565b8051909150156200274b57808060200190518101906200291d919062002dd8565b6200274b5760405162461bcd60e51b815260206004820152602a60248201527f5361666545524332303a204552433230206f7065726174696f6e20646964206e6044820152691bdd081cdd58d8d9595960b21b6064820152608401620006fd565b600054610100900460ff16620013835760405162461bcd60e51b8152600401620006fd9062002fdf565b600054610100900460ff16620029d25760405162461bcd60e51b8152600401620006fd9062002fdf565b620013833362002802565b6060620029ee8484600085620029f8565b90505b9392505050565b60608247101562002a5b5760405162461bcd60e51b815260206004820152602660248201527f416464726573733a20696e73756666696369656e742062616c616e636520666f6044820152651c8818d85b1b60d21b6064820152608401620006fd565b62002a6685620027bd565b62002ab45760405162461bcd60e51b815260206004820152601d60248201527f416464726573733a2063616c6c20746f206e6f6e2d636f6e74726163740000006044820152606401620006fd565b600080866001600160a01b0316858760405162002ad2919062002f28565b60006040518083038185875af1925050503d806000811462002b11576040519150601f19603f3d011682016040523d82523d6000602084013e62002b16565b606091505b509150915062002b2882828662002b33565b979650505050505050565b6060831562002b44575081620029f1565b82511562002b555782518084602001fd5b8160405162461bcd60e51b8152600401620006fd919062002f69565b611b2b806200316883390190565b80356001600160a01b0381168114620027cb57600080fd5b60006020828403121562002ba9578081fd5b620029f18262002b7f565b6000806040838503121562002bc7578081fd5b62002bd28362002b7f565b915062002be26020840162002b7f565b90509250929050565b60008060006060848603121562002c00578081fd5b62002c0b8462002b7f565b925062002c1b6020850162002b7f565b915062002c2b6040850162002b7f565b90509250925092565b6000806040838503121562002c47578182fd5b62002c528362002b7f565b9150602083013562002c648162003158565b809150509250929050565b6000806040838503121562002c82578182fd5b62002c8d8362002b7f565b946020939093013593505050565b60008060006060848603121562002cb0578283fd5b62002cbb8462002b7f565b92506020840135915062002c2b6040850162002b7f565b6000806000806080858703121562002ce8578081fd5b62002cf38562002b7f565b93506020850135925062002d0a6040860162002b7f565b9150606085013562002d1c8162003158565b939692955090935050565b60008060006060848603121562002d3c578283fd5b62002d478462002b7f565b95602085013595506040909401359392505050565b60008060006040848603121562002d71578283fd5b833567ffffffffffffffff8082111562002d89578485fd5b818601915086601f83011262002d9d578485fd5b81358181111562002dac578586fd5b876020808302850101111562002dc0578586fd5b60209283019550935062002c2b918601905062002b7f565b60006020828403121562002dea578081fd5b8151620029f18162003158565b60006020828403121562002e09578081fd5b815167ffffffffffffffff8082111562002e21578283fd5b818401915084601f83011262002e35578283fd5b81518181111562002e4a5762002e4a62003142565b604051601f8201601f19908116603f0116810190838211818310171562002e755762002e7562003142565b8160405282815287602084870101111562002e8e578586fd5b62002b28836020830160208801620030df565b60006020828403121562002eb3578081fd5b5035919050565b60006020828403121562002ecc578081fd5b5051919050565b60008060006060848603121562002ee8578283fd5b8335925062002c1b6020850162002b7f565b6000815180845262002f14816020860160208601620030df565b601f01601f19169290920160200192915050565b6000825162002f3c818460208701620030df565b9190910192915050565b6001600160a01b0393909316835260208301919091521515604082015260600190565b600060208252620029f1602083018462002efa565b6020808252601290820152712737ba1030902837b7b61026b0b730b3b2b960711b604082015260600190565b6020808252818101527f4f776e61626c653a2063616c6c6572206973206e6f7420746865206f776e6572604082015260600190565b6020808252602b908201527f496e697469616c697a61626c653a20636f6e7472616374206973206e6f74206960408201526a6e697469616c697a696e6760a81b606082015260800190565b8481526001600160a01b0384166020820152608060408201819052600090620030569083018562002efa565b905082606083015295945050505050565b600082198211156200307d576200307d6200312c565b500190565b6000826200309e57634e487b7160e01b81526012600452602481fd5b500490565b6000816000190483118215151615620030c057620030c06200312c565b500290565b600082821015620030da57620030da6200312c565b500390565b60005b83811015620030fc578181015183820152602001620030e2565b83811115620016ae5750506000910152565b60006000198214156200312557620031256200312c565b5060010190565b634e487b7160e01b600052601160045260246000fd5b634e487b7160e01b600052604160045260246000fd5b80151581146200151e57600080fdfe60e06040523480156200001157600080fd5b5060405162001b2b38038062001b2b83398101604081905262000034916200018e565b6200003f3362000121565b6001600160601b0319606094851b8116608090815292851b811660a0526040805193840181526001600160a01b0394851680855260006020808701828152878501838152888b018481528585526005845286852099518a549b166001600160a01b03199b8c16178a5591516001808b019190915590516002808b0191909155915160039099019890985580548089019091557f405787fa12a823e0f2b7631cc41b3ba8828b3321ca811111fa75cd3aa3bb5ace01805490981683179097559081526008909552909320805460ff191690921790915590911b1660c052620001ea565b600080546001600160a01b038381166001600160a01b0319831681178455604051919092169283917f8be0079c531659141344cd1fd0a4f28419497f9722a3daafe3b4186f6b6457e09190a35050565b80516001600160a01b03811681146200018957600080fd5b919050565b60008060008060808587031215620001a4578384fd5b620001af8562000171565b9350620001bf6020860162000171565b9250620001cf6040860162000171565b9150620001df6060860162000171565b905092959194509250565b60805160601c60a05160601c60c05160601c6118de6200024d6000396000818161023e0152610cdc0152600081816102bd0152818161053d015281816109510152610f0e01526000818161033d015281816103ab015261103f01526118de6000f3fe608060405234801561001057600080fd5b506004361061018e5760003560e01c806372f702f3116100de578063a980356a11610097578063c11f534411610071578063c11f534414610430578063f122977714610438578063f2fde38b1461044b578063f3fc7c2b1461045e5761018e565b8063a980356a146103cf578063b5fd73f8146103fa578063c00007b01461041d5761018e565b806372f702f3146103385780637bb7bed11461035f5780638da5cb5b146103725780638fcf48221461038357806399da1729146103965780639f9106d1146103a95761018e565b8063211dc32d1161014b5780635bc59ce7116101255780635bc59ce7146102df5780637035ab98146102f257806370a082311461031d578063715018a6146103305761018e565b8063211dc32d146102925780632ee40908146102a5578063570ca735146102b85761018e565b80630700037d146101935780630e0a5968146102015780630e19c699146102165780630f4ef8a61461023957806318160ddd1461027857806318838d331461028a575b600080fd5b6101d26101a136600461151a565b60056020526000908152604090208054600182015460028301546003909301546001600160a01b0390921692909184565b604080516001600160a01b03909516855260208501939093529183015260608201526080015b60405180910390f35b61021461020f36600461151a565b610471565b005b61022961022436600461158f565b610530565b60405190151581526020016101f8565b6102607f000000000000000000000000000000000000000000000000000000000000000081565b6040516001600160a01b0390911681526020016101f8565b6003545b6040519081526020016101f8565b6102296106e9565b61027c6102a0366004611534565b610892565b6102296102b3366004611566565b610944565b6102607f000000000000000000000000000000000000000000000000000000000000000081565b6102296102ed366004611602565b610ae2565b61027c610300366004611534565b600660209081526000928352604080842090915290825290205481565b61027c61032b36600461151a565b610c20565b610214610c3f565b6102607f000000000000000000000000000000000000000000000000000000000000000081565b61026061036d3660046115ea565b610ca5565b6000546001600160a01b0316610260565b610229610391366004611602565b610ccf565b61027c6103a436600461151a565b610dc8565b7f0000000000000000000000000000000000000000000000000000000000000000610260565b61027c6103dd366004611534565b600760209081526000928352604080842090915290825290205481565b61022961040836600461151a565b60086020526000908152604090205460ff1681565b61022961042b36600461151a565b610e44565b61027c61103b565b61027c61044636600461151a565b6110d6565b61021461045936600461151a565b6110f4565b600154610260906001600160a01b031681565b60025460005b8181101561052b576000600282815481106104a257634e487b7160e01b600052603260045260246000fd5b6000918252602090912001546001600160a01b031690506104c38482610892565b6001600160a01b038083166000908152600760209081526040808320938916835292905220556104f2816110d6565b6001600160a01b0391821660009081526006602090815260408083209488168352939052919091205561052481611869565b9050610477565b505050565b6000336001600160a01b037f000000000000000000000000000000000000000000000000000000000000000016146105835760405162461bcd60e51b815260040161057a90611694565b60405180910390fd5b600254849060005b8181101561063f576000600282815481106105b657634e487b7160e01b600052603260045260246000fd5b6000918252602090912001546001600160a01b031690506105d78482610892565b6001600160a01b03808316600090815260076020908152604080832093891683529290522055610606816110d6565b6001600160a01b0391821660009081526006602090815260408083209488168352939052919091205561063881611869565b905061058b565b508460035461064e9190611826565b6003556001600160a01b038616600090815260046020526040902054610675908690611826565b6001600160a01b038716600081815260046020526040908190209290925590517f7084f5476618d8e60b11ef0d7d3f06914655adb8793e28ff7f018d4c76d505d5906106c49088815260200190565b60405180910390a283156106dd576106db86610e44565b505b50600195945050505050565b6002546000903390825b818110156107a75760006002828154811061071e57634e487b7160e01b600052603260045260246000fd5b6000918252602090912001546001600160a01b0316905061073f8482610892565b6001600160a01b0380831660009081526007602090815260408083209389168352929052205561076e816110d6565b6001600160a01b039182166000908152600660209081526040808320948816835293905291909120556107a081611869565b90506106f3565b5060025460005b81811015610887576000600282815481106107d957634e487b7160e01b600052603260045260246000fd5b60009182526020822001546001600160a01b031691506107f93383610892565b90508015610874576001600160a01b03821660008181526007602090815260408083203380855292528220919091556108339190836111bf565b6040518181526001600160a01b0383169033907f8e0d3fa908fd7ee819155b3ce71e292b601bbeb0cd00d7758b9d226a523cb8279060200160405180910390a35b50508061088090611869565b90506107ae565b506001935050505090565b6001600160a01b0380821660009081526007602090815260408083209386168352929052908120546108c261103b565b6108cd90600a611739565b6001600160a01b038085166000908152600660209081526040808320938916835292905220546108fc856110d6565b6109069190611826565b6001600160a01b0386166000908152600460205260409020546109299190611807565b61093391906116d3565b61093d91906116bb565b9392505050565b6000336001600160a01b037f0000000000000000000000000000000000000000000000000000000000000000161461098e5760405162461bcd60e51b815260040161057a90611694565b600254839060005b81811015610a4a576000600282815481106109c157634e487b7160e01b600052603260045260246000fd5b6000918252602090912001546001600160a01b031690506109e28482610892565b6001600160a01b03808316600090815260076020908152604080832093891683529290522055610a11816110d6565b6001600160a01b03918216600090815260066020908152604080832094881683529390529190912055610a4381611869565b9050610996565b5083600354610a5991906116bb565b6003556001600160a01b038516600090815260046020526040902054610a809085906116bb565b6001600160a01b038616600081815260046020526040908190209290925590517f9e71bc8eea02a63969f509818f2dafb9254532904319f9dbda79b67bd34a5f3d90610acf9087815260200190565b60405180910390a2506001949350505050565b6001600160a01b03811660009081526008602052604081205460ff16610b0757600080fd5b610b1c6001600160a01b038316333086611222565b6001600160a01b03821660009081526005602052604090206003810154610b449085906116bb565b60038083019190915554610b715783816002016000828254610b6691906116bb565b90915550610bd39050565b600281015415610b94576002810154610b8a90856116bb565b6000600283015593505b600354610b9f61103b565b610baa90600a611739565b610bb49086611807565b610bbe91906116d3565b8160010154610bcd91906116bb565b60018201555b826001600160a01b03167ffb5edb6eb340a01f6a67189edc978df97841c43752c212fc85995ea23001763585604051610c0e91815260200190565b60405180910390a25060019392505050565b6001600160a01b0381166000908152600460205260409020545b919050565b6000546001600160a01b03163314610c995760405162461bcd60e51b815260206004820181905260248201527f4f776e61626c653a2063616c6c6572206973206e6f7420746865206f776e6572604482015260640161057a565b610ca36000611260565b565b60028181548110610cb557600080fd5b6000918252602090912001546001600160a01b0316905081565b6000336001600160a01b037f00000000000000000000000000000000000000000000000000000000000000001614610d385760405162461bcd60e51b815260206004820152600c60248201526b27b7363c9026b0b730b3b2b960a11b604482015260640161057a565b6001600160a01b03821660009081526008602052604090205460ff16610b07576002805460018082019092557f405787fa12a823e0f2b7631cc41b3ba8828b3321ca811111fa75cd3aa3bb5ace0180546001600160a01b0319166001600160a01b0385169081179091556000818152600860205260409020805460ff1916909217909155610b1c90333086611222565b6000816001600160a01b031663313ce5676040518163ffffffff1660e01b815260040160206040518083038186803b158015610e0357600080fd5b505afa158015610e17573d6000803e3d6000fd5b505050506040513d601f19601f82011682018060405250810190610e3b9190611624565b60ff1692915050565b6002546000908290825b81811015610f0257600060028281548110610e7957634e487b7160e01b600052603260045260246000fd5b6000918252602090912001546001600160a01b03169050610e9a8482610892565b6001600160a01b03808316600090815260076020908152604080832093891683529290522055610ec9816110d6565b6001600160a01b03918216600090815260066020908152604080832094881683529390529190912055610efb81611869565b9050610e4e565b50336001600160a01b037f00000000000000000000000000000000000000000000000000000000000000001614610f4b5760405162461bcd60e51b815260040161057a90611694565b60025460005b818110156106dd57600060028281548110610f7c57634e487b7160e01b600052603260045260246000fd5b60009182526020822001546001600160a01b03169150610f9c8883610892565b90508015611028576001600160a01b038083166000818152600760209081526040808320948d16835293905291822091909155610fda9089836111bf565b816001600160a01b0316886001600160a01b03167f8e0d3fa908fd7ee819155b3ce71e292b601bbeb0cd00d7758b9d226a523cb8278360405161101f91815260200190565b60405180910390a35b50508061103490611869565b9050610f51565b60007f00000000000000000000000000000000000000000000000000000000000000006001600160a01b031663313ce5676040518163ffffffff1660e01b815260040160206040518083038186803b15801561109657600080fd5b505afa1580156110aa573d6000803e3d6000fd5b505050506040513d601f19601f820116820180604052508101906110ce9190611624565b60ff16905090565b6001600160a01b031660009081526005602052604090206001015490565b6000546001600160a01b0316331461114e5760405162461bcd60e51b815260206004820181905260248201527f4f776e61626c653a2063616c6c6572206973206e6f7420746865206f776e6572604482015260640161057a565b6001600160a01b0381166111b35760405162461bcd60e51b815260206004820152602660248201527f4f776e61626c653a206e6577206f776e657220697320746865207a65726f206160448201526564647265737360d01b606482015260840161057a565b6111bc81611260565b50565b6040516001600160a01b03831660248201526044810182905261052b90849063a9059cbb60e01b906064015b60408051601f198184030181529190526020810180516001600160e01b03166001600160e01b0319909316929092179091526112b0565b6040516001600160a01b038085166024830152831660448201526064810182905261125a9085906323b872dd60e01b906084016111eb565b50505050565b600080546001600160a01b038381166001600160a01b0319831681178455604051919092169283917f8be0079c531659141344cd1fd0a4f28419497f9722a3daafe3b4186f6b6457e09190a35050565b6000611305826040518060400160405280602081526020017f5361666545524332303a206c6f772d6c6576656c2063616c6c206661696c6564815250856001600160a01b03166113829092919063ffffffff16565b80519091501561052b578080602001905181019061132391906115ce565b61052b5760405162461bcd60e51b815260206004820152602a60248201527f5361666545524332303a204552433230206f7065726174696f6e20646964206e6044820152691bdd081cdd58d8d9595960b21b606482015260840161057a565b60606113918484600085611399565b949350505050565b6060824710156113fa5760405162461bcd60e51b815260206004820152602660248201527f416464726573733a20696e73756666696369656e742062616c616e636520666f6044820152651c8818d85b1b60d21b606482015260840161057a565b6001600160a01b0385163b6114515760405162461bcd60e51b815260206004820152601d60248201527f416464726573733a2063616c6c20746f206e6f6e2d636f6e7472616374000000604482015260640161057a565b600080866001600160a01b0316858760405161146d9190611645565b60006040518083038185875af1925050503d80600081146114aa576040519150601f19603f3d011682016040523d82523d6000602084013e6114af565b606091505b50915091506114bf8282866114ca565b979650505050505050565b606083156114d957508161093d565b8251156114e95782518084602001fd5b8160405162461bcd60e51b815260040161057a9190611661565b80356001600160a01b0381168114610c3a57600080fd5b60006020828403121561152b578081fd5b61093d82611503565b60008060408385031215611546578081fd5b61154f83611503565b915061155d60208401611503565b90509250929050565b60008060408385031215611578578182fd5b61158183611503565b946020939093013593505050565b6000806000606084860312156115a3578081fd5b6115ac84611503565b92506020840135915060408401356115c38161189a565b809150509250925092565b6000602082840312156115df578081fd5b815161093d8161189a565b6000602082840312156115fb578081fd5b5035919050565b60008060408385031215611614578182fd5b8235915061155d60208401611503565b600060208284031215611635578081fd5b815160ff8116811461093d578182fd5b6000825161165781846020870161183d565b9190910192915050565b600060208252825180602084015261168081604085016020870161183d565b601f01601f19169190910160400192915050565b6020808252600d908201526c27b7363c9027b832b930ba37b960991b604082015260600190565b600082198211156116ce576116ce611884565b500190565b6000826116ee57634e487b7160e01b81526012600452602481fd5b500490565b80825b60018086116117055750611730565b81870482111561171757611717611884565b8086161561172457918102915b9490941c9380026116f6565b94509492505050565b600061093d60001984846000826117525750600161093d565b8161175f5750600061093d565b8160018114611775576002811461177f576117ac565b600191505061093d565b60ff84111561179057611790611884565b6001841b9150848211156117a6576117a6611884565b5061093d565b5060208310610133831016604e8410600b84101617156117df575081810a838111156117da576117da611884565b61093d565b6117ec84848460016116f3565b8086048211156117fe576117fe611884565b02949350505050565b600081600019048311821515161561182157611821611884565b500290565b60008282101561183857611838611884565b500390565b60005b83811015611858578181015183820152602001611840565b8381111561125a5750506000910152565b600060001982141561187d5761187d611884565b5060010190565b634e487b7160e01b600052601160045260246000fd5b80151581146111bc57600080fdfea26469706673582212201126bbf48a0b5f65aa54e5281cf25b24f482ddfe2bfaa085a044b4bad2b5865164736f6c63430008020033a0306f61d3fafe13787b78e276cb6b644382854a66cb46daae14227d3ec26797a2646970667358221220d6d6e81cc371cc88d8b37e4cce20018d3221b028bb731963f3df96fe74acc3e964736f6c63430008020033",
  "linkReferences": {},
  "deployedLinkReferences": {}
}