{
  "_format": "hh-sol-artifact-1",
  "contractName": "MasterChefRGN",
  "sourceName": "contracts/MainProtocol/MasterChef.sol",
  "abi": [
    {
      "anonymous": false,
      "inputs": [
        {
          "indexed": false,
          "internalType": "uint256",
          "name": "allocPoint",
          "type": "uint256"
        },
        {
          "indexed": true,
          "internalType": "address",
          "name": "lpToken",
          "type": "address"
        },
        {
          "indexed": true,
          "internalType": "contract IBaseRewardPool",
          "name": "rewarder",
          "type": "address"
        }
      ],
      "name": "Add",
      "type": "event"
    },
    {
      "anonymous": false,
      "inputs": [
        {
          "indexed": true,
          "internalType": "address",
          "name": "user",
          "type": "address"
        },
        {
          "indexed": true,
          "internalType": "address",
          "name": "lpToken",
          "type": "address"
        },
        {
          "indexed": false,
          "internalType": "uint256",
          "name": "amount",
          "type": "uint256"
        }
      ],
      "name": "Deposit",
      "type": "event"
    },
    {
      "anonymous": false,
      "inputs": [
        {
          "indexed": true,
          "internalType": "address",
          "name": "user",
          "type": "address"
        },
        {
          "indexed": true,
          "internalType": "address",
          "name": "lpToken",
          "type": "address"
        },
        {
          "indexed": false,
          "internalType": "uint256",
          "name": "amount",
          "type": "uint256"
        }
      ],
      "name": "EmergencyWithdraw",
      "type": "event"
    },
    {
      "anonymous": false,
      "inputs": [
        {
          "indexed": true,
          "internalType": "address",
          "name": "user",
          "type": "address"
        },
        {
          "indexed": true,
          "internalType": "address",
          "name": "lpToken",
          "type": "address"
        },
        {
          "indexed": false,
          "internalType": "uint256",
          "name": "amount",
          "type": "uint256"
        }
      ],
      "name": "Harvest",
      "type": "event"
    },
    {
      "anonymous": false,
      "inputs": [
        {
          "indexed": true,
          "internalType": "address",
          "name": "previousOwner",
          "type": "address"
        },
        {
          "indexed": true,
          "internalType": "address",
          "name": "newOwner",
          "type": "address"
        }
      ],
      "name": "OwnershipTransferred",
      "type": "event"
    },
    {
      "anonymous": false,
      "inputs": [
        {
          "indexed": true,
          "internalType": "address",
          "name": "lpToken",
          "type": "address"
        },
        {
          "indexed": false,
          "internalType": "uint256",
          "name": "allocPoint",
          "type": "uint256"
        },
        {
          "indexed": true,
          "internalType": "contract IBaseRewardPool",
          "name": "rewarder",
          "type": "address"
        },
        {
          "indexed": false,
          "internalType": "bool",
          "name": "overwrite",
          "type": "bool"
        }
      ],
      "name": "Set",
      "type": "event"
    },
    {
      "anonymous": false,
      "inputs": [
        {
          "indexed": true,
          "internalType": "address",
          "name": "user",
          "type": "address"
        },
        {
          "indexed": false,
          "internalType": "uint256",
          "name": "_rgnPerSec",
          "type": "uint256"
        }
      ],
      "name": "UpdateEmissionRate",
      "type": "event"
    },
    {
      "anonymous": false,
      "inputs": [
        {
          "indexed": true,
          "internalType": "address",
          "name": "lpToken",
          "type": "address"
        },
        {
          "indexed": false,
          "internalType": "uint256",
          "name": "lastRewardTimestamp",
          "type": "uint256"
        },
        {
          "indexed": false,
          "internalType": "uint256",
          "name": "lpSupply",
          "type": "uint256"
        },
        {
          "indexed": false,
          "internalType": "uint256",
          "name": "accRGNPerShare",
          "type": "uint256"
        }
      ],
      "name": "UpdatePool",
      "type": "event"
    },
    {
      "anonymous": false,
      "inputs": [
        {
          "indexed": true,
          "internalType": "address",
          "name": "user",
          "type": "address"
        },
        {
          "indexed": true,
          "internalType": "address",
          "name": "lpToken",
          "type": "address"
        },
        {
          "indexed": false,
          "internalType": "uint256",
          "name": "amount",
          "type": "uint256"
        }
      ],
      "name": "Withdraw",
      "type": "event"
    },
    {
      "inputs": [
        {
          "internalType": "address",
          "name": "_rgn",
          "type": "address"
        },
        {
          "internalType": "uint256",
          "name": "_rgnPerSec",
          "type": "uint256"
        },
        {
          "internalType": "uint256",
          "name": "_startTimestamp",
          "type": "uint256"
        }
      ],
      "name": "__MasterChefRGN_init",
      "outputs": [],
      "stateMutability": "nonpayable",
      "type": "function"
    },
    {
      "inputs": [
        {
          "internalType": "uint256",
          "name": "_allocPoint",
          "type": "uint256"
        },
        {
          "internalType": "address",
          "name": "_lpToken",
          "type": "address"
        },
        {
          "internalType": "address",
          "name": "_rewarder",
          "type": "address"
        }
      ],
      "name": "add",
      "outputs": [],
      "stateMutability": "nonpayable",
      "type": "function"
    },
    {
      "inputs": [
        {
          "internalType": "address",
          "name": "",
          "type": "address"
        }
      ],
      "name": "addressToPoolInfo",
      "outputs": [
        {
          "internalType": "address",
          "name": "lpToken",
          "type": "address"
        },
        {
          "internalType": "uint256",
          "name": "allocPoint",
          "type": "uint256"
        },
        {
          "internalType": "uint256",
          "name": "lastRewardTimestamp",
          "type": "uint256"
        },
        {
          "internalType": "uint256",
          "name": "accRGNPerShare",
          "type": "uint256"
        },
        {
          "internalType": "address",
          "name": "rewarder",
          "type": "address"
        },
        {
          "internalType": "address",
          "name": "locker",
          "type": "address"
        }
      ],
      "stateMutability": "view",
      "type": "function"
    },
    {
      "inputs": [],
      "name": "allowEmergency",
      "outputs": [],
      "stateMutability": "nonpayable",
      "type": "function"
    },
    {
      "inputs": [
        {
          "internalType": "address",
          "name": "_lpToken",
          "type": "address"
        },
        {
          "internalType": "address",
          "name": "mainRewardToken",
          "type": "address"
        }
      ],
      "name": "createRewarder",
      "outputs": [
        {
          "internalType": "address",
          "name": "",
          "type": "address"
        }
      ],
      "stateMutability": "nonpayable",
      "type": "function"
    },
    {
      "inputs": [
        {
          "internalType": "address",
          "name": "_lp",
          "type": "address"
        },
        {
          "internalType": "uint256",
          "name": "_amount",
          "type": "uint256"
        }
      ],
      "name": "deposit",
      "outputs": [],
      "stateMutability": "nonpayable",
      "type": "function"
    },
    {
      "inputs": [
        {
          "internalType": "address",
          "name": "_lp",
          "type": "address"
        },
        {
          "internalType": "uint256",
          "name": "_amount",
          "type": "uint256"
        },
        {
          "internalType": "address",
          "name": "sender",
          "type": "address"
        }
      ],
      "name": "depositFor",
      "outputs": [],
      "stateMutability": "nonpayable",
      "type": "function"
    },
    {
      "inputs": [
        {
          "internalType": "address",
          "name": "_lp",
          "type": "address"
        },
        {
          "internalType": "address",
          "name": "_user",
          "type": "address"
        }
      ],
      "name": "depositInfo",
      "outputs": [
        {
          "internalType": "uint256",
          "name": "availableAmount",
          "type": "uint256"
        }
      ],
      "stateMutability": "view",
      "type": "function"
    },
    {
      "inputs": [
        {
          "internalType": "address",
          "name": "_lp",
          "type": "address"
        }
      ],
      "name": "emergencyWithdraw",
      "outputs": [],
      "stateMutability": "nonpayable",
      "type": "function"
    },
    {
      "inputs": [
        {
          "internalType": "address",
          "name": "_lp",
          "type": "address"
        }
      ],
      "name": "emergencyWithdrawWithReward",
      "outputs": [],
      "stateMutability": "nonpayable",
      "type": "function"
    },
    {
      "inputs": [
        {
          "internalType": "address",
          "name": "token",
          "type": "address"
        }
      ],
      "name": "getPoolInfo",
      "outputs": [
        {
          "internalType": "uint256",
          "name": "emission",
          "type": "uint256"
        },
        {
          "internalType": "uint256",
          "name": "allocpoint",
          "type": "uint256"
        },
        {
          "internalType": "uint256",
          "name": "sizeOfPool",
          "type": "uint256"
        },
        {
          "internalType": "uint256",
          "name": "totalPoint",
          "type": "uint256"
        }
      ],
      "stateMutability": "view",
      "type": "function"
    },
    {
      "inputs": [],
      "name": "massUpdatePools",
      "outputs": [],
      "stateMutability": "nonpayable",
      "type": "function"
    },
    {
      "inputs": [
        {
          "internalType": "address[]",
          "name": "_lps",
          "type": "address[]"
        },
        {
          "internalType": "address",
          "name": "userAddress",
          "type": "address"
        }
      ],
      "name": "multiclaim",
      "outputs": [],
      "stateMutability": "nonpayable",
      "type": "function"
    },
    {
      "inputs": [],
      "name": "owner",
      "outputs": [
        {
          "internalType": "address",
          "name": "",
          "type": "address"
        }
      ],
      "stateMutability": "view",
      "type": "function"
    },
    {
      "inputs": [
        {
          "internalType": "address",
          "name": "_lp",
          "type": "address"
        },
        {
          "internalType": "address",
          "name": "_user",
          "type": "address"
        },
        {
          "internalType": "address",
          "name": "token",
          "type": "address"
        }
      ],
      "name": "pendingTokens",
      "outputs": [
        {
          "internalType": "uint256",
          "name": "pendingRGN",
          "type": "uint256"
        },
        {
          "internalType": "address",
          "name": "bonusTokenAddress",
          "type": "address"
        },
        {
          "internalType": "string",
          "name": "bonusTokenSymbol",
          "type": "string"
        },
        {
          "internalType": "uint256",
          "name": "pendingBonusToken",
          "type": "uint256"
        }
      ],
      "stateMutability": "view",
      "type": "function"
    },
    {
      "inputs": [],
      "name": "poolLength",
      "outputs": [
        {
          "internalType": "uint256",
          "name": "",
          "type": "uint256"
        }
      ],
      "stateMutability": "view",
      "type": "function"
    },
    {
      "inputs": [
        {
          "internalType": "address",
          "name": "",
          "type": "address"
        }
      ],
      "name": "poolManagers",
      "outputs": [
        {
          "internalType": "bool",
          "name": "",
          "type": "bool"
        }
      ],
      "stateMutability": "view",
      "type": "function"
    },
    {
      "inputs": [],
      "name": "realEmergencyAllowed",
      "outputs": [
        {
          "internalType": "bool",
          "name": "",
          "type": "bool"
        }
      ],
      "stateMutability": "view",
      "type": "function"
    },
    {
      "inputs": [
        {
          "internalType": "address",
          "name": "_lp",
          "type": "address"
        }
      ],
      "name": "realEmergencyWithdraw",
      "outputs": [],
      "stateMutability": "nonpayable",
      "type": "function"
    },
    {
      "inputs": [
        {
          "internalType": "uint256",
          "name": "",
          "type": "uint256"
        }
      ],
      "name": "registeredToken",
      "outputs": [
        {
          "internalType": "address",
          "name": "",
          "type": "address"
        }
      ],
      "stateMutability": "view",
      "type": "function"
    },
    {
      "inputs": [],
      "name": "renounceOwnership",
      "outputs": [],
      "stateMutability": "nonpayable",
      "type": "function"
    },
    {
      "inputs": [],
      "name": "rewarderAddress",
      "outputs": [
        {
          "internalType": "address",
          "name": "",
          "type": "address"
        }
      ],
      "stateMutability": "view",
      "type": "function"
    },
    {
      "inputs": [],
      "name": "rgn",
      "outputs": [
        {
          "internalType": "contract RGN",
          "name": "",
          "type": "address"
        }
      ],
      "stateMutability": "view",
      "type": "function"
    },
    {
      "inputs": [],
      "name": "rgnPerSec",
      "outputs": [
        {
          "internalType": "uint256",
          "name": "",
          "type": "uint256"
        }
      ],
      "stateMutability": "view",
      "type": "function"
    },
    {
      "inputs": [
        {
          "internalType": "address",
          "name": "_lp",
          "type": "address"
        },
        {
          "internalType": "uint256",
          "name": "_allocPoint",
          "type": "uint256"
        },
        {
          "internalType": "address",
          "name": "_rewarder",
          "type": "address"
        },
        {
          "internalType": "bool",
          "name": "overwrite",
          "type": "bool"
        }
      ],
      "name": "set",
      "outputs": [],
      "stateMutability": "nonpayable",
      "type": "function"
    },
    {
      "inputs": [
        {
          "internalType": "address",
          "name": "_address",
          "type": "address"
        },
        {
          "internalType": "bool",
          "name": "_bool",
          "type": "bool"
        }
      ],
      "name": "setPoolManagerStatus",
      "outputs": [],
      "stateMutability": "nonpayable",
      "type": "function"
    },
    {
      "inputs": [
        {
          "internalType": "address",
          "name": "_address",
          "type": "address"
        }
      ],
      "name": "setYetiBooster",
      "outputs": [],
      "stateMutability": "nonpayable",
      "type": "function"
    },
    {
      "inputs": [],
      "name": "startTimestamp",
      "outputs": [
        {
          "internalType": "uint256",
          "name": "",
          "type": "uint256"
        }
      ],
      "stateMutability": "view",
      "type": "function"
    },
    {
      "inputs": [],
      "name": "totalAllocPoint",
      "outputs": [
        {
          "internalType": "uint256",
          "name": "",
          "type": "uint256"
        }
      ],
      "stateMutability": "view",
      "type": "function"
    },
    {
      "inputs": [
        {
          "internalType": "address",
          "name": "newOwner",
          "type": "address"
        }
      ],
      "name": "transferOwnership",
      "outputs": [],
      "stateMutability": "nonpayable",
      "type": "function"
    },
    {
      "inputs": [
        {
          "internalType": "uint256",
          "name": "_rgnPerSec",
          "type": "uint256"
        }
      ],
      "name": "updateEmissionRate",
      "outputs": [],
      "stateMutability": "nonpayable",
      "type": "function"
    },
    {
      "inputs": [
        {
          "internalType": "address",
          "name": "_lp",
          "type": "address"
        }
      ],
      "name": "updatePool",
      "outputs": [],
      "stateMutability": "nonpayable",
      "type": "function"
    },
    {
      "inputs": [
        {
          "internalType": "address",
          "name": "_lp",
          "type": "address"
        },
        {
          "internalType": "uint256",
          "name": "_amount",
          "type": "uint256"
        }
      ],
      "name": "withdraw",
      "outputs": [],
      "stateMutability": "nonpayable",
      "type": "function"
    },
    {
      "inputs": [
        {
          "internalType": "address",
          "name": "_lp",
          "type": "address"
        },
        {
          "internalType": "uint256",
          "name": "_amount",
          "type": "uint256"
        },
        {
          "internalType": "address",
          "name": "_sender",
          "type": "address"
        }
      ],
      "name": "withdrawFor",
      "outputs": [],
      "stateMutability": "nonpayable",
      "type": "function"
    },
    {
      "inputs": [],
      "name": "yetiBooster",
      "outputs": [
        {
          "internalType": "address",
          "name": "",
          "type": "address"
        }
      ],
      "stateMutability": "view",
      "type": "function"
    }
  ],
  "bytecode": "0x608060405234801561001057600080fd5b50614d9b806100206000396000f3fe60806040523480156200001157600080fd5b5060043610620002445760003560e01c80638a64e0c41162000141578063c8820f6c11620000bd578063e6fd48bc1162000087578063e6fd48bc14620005b6578063e952fddc14620005c0578063efe33cfa14620005d7578063f2fde38b14620005ee578063f3fef3a314620006055762000244565b8063c8820f6c1462000577578063cdfaeab6146200058e578063d4ac0fa11462000598578063e0e2b2b314620005a25762000244565b80639c7e2655116200010b5780639c7e265514620004f5578063a79e81a0146200050c578063ab7de0981462000523578063ad05e627146200053a578063c5c9716c14620005635762000244565b80638a64e0c4146200048f5780638da5cb5b14620004b55780639742f6cd14620004c757806397f3b30414620004de5762000244565b806347e7ef2411620001d15780636766efbe116200019b5780636766efbe14620003ac5780636ff1c9bc14620003c3578063715018a614620003da57806375b1aadc14620003e45780637b46c54f14620004785762000244565b806347e7ef241462000335578063493b0170146200034c578063578461aa146200038b578063630b5ba114620003a25762000244565b806317e54830116200021357806317e5483014620002bb57806337fb24cf14620002d25780633b3f0ee614620002ff5780634545b1b414620003165762000244565b806306bfa9381462000249578063081e3eda14620002855780630ba84cd2146200029857806317caf6f114620002b1575b600080fd5b620002606200025a36600462002c43565b6200061c565b6040805194855260208501939093529183015260608201526080015b60405180910390f35b6068545b6040519081526020016200027c565b620002af620002a936600462002f4d565b62000713565b005b62000289606d5481565b620002af620002cc36600462002e08565b620007e0565b606554620002e6906001600160a01b031681565b6040516001600160a01b0390911681526020016200027c565b620002e66200031036600462002c60565b620009dd565b606f54620003249060ff1681565b60405190151581526020016200027c565b620002af6200034636600462002d1b565b62000aa5565b620002896200035d36600462002c60565b6001600160a01b039182166000908152606c6020908152604080832093909416825291909152206002015490565b620002af6200039c36600462002d7e565b62000ded565b620002af62000f94565b620002af620003bd36600462002d47565b62000ffb565b620002af620003d436600462002c43565b62001253565b620002af620013a6565b62000439620003f536600462002c43565b606a602052600090815260409020805460018201546002830154600384015460048501546005909501546001600160a01b0394851695939492939192918216911686565b604080516001600160a01b039788168152602081019690965285019390935260608401919091528316608083015290911660a082015260c0016200027c565b620002af6200048936600462002c43565b620013e1565b62000324620004a036600462002c43565b60706020526000908152604090205460ff1681565b6033546001600160a01b0316620002e6565b620002af620004d836600462002dd3565b6200157d565b620002af620004ef36600462002c43565b62001710565b620002e66200050636600462002f4d565b6200182f565b620002af6200051d36600462002c43565b6200185a565b620002af6200053436600462002f7f565b620018a9565b620005516200054b36600462002c97565b62001b54565b6040516200027c9493929190620030d6565b606954620002e6906001600160a01b031681565b620002af6200058836600462002d47565b62001e04565b620002af62002164565b6200028960665481565b606754620002e6906001600160a01b031681565b62000289606e5481565b620002af620005d136600462002c43565b620021a0565b620002af620005e836600462002ce0565b620022c4565b620002af620005ff36600462002c43565b6200231c565b620002af6200061636600462002d1b565b620023bb565b6001600160a01b038181166000818152606a60209081526040808320815160c0810183528154871681526001820154938101849052600282015481840152600382015460608201526004808301548816608083015260059092015490961660a087015260665491516370a0823160e01b81523091810191909152929485948594859492939291906370a082319060240160206040518083038186803b158015620006c557600080fd5b505afa158015620006da573d6000803e3d6000fd5b505050506040513d601f19601f8201168201806040525081019062000700919062002f66565b606d549450945094509450509193509193565b6033546001600160a01b03163314620007495760405162461bcd60e51b8152600401620007409062003056565b60405180910390fd5b69d3c21bcecceda1000000811115620007995760405162461bcd60e51b815260206004820152601160248201527008adad2e6e6d2dedc40e8dede40d0d2ced607b1b604482015260640162000740565b620007a362000f94565b606681905560405181815233907fe2492e003bbe8afa53088b406f0c1cb5d9e280370fc72a74cf116ffd343c40539060200160405180910390a250565b8160005b81811015620009d65760008585838181106200081057634e487b7160e01b600052603260045260246000fd5b905060200201602081019062000827919062002c43565b6001600160a01b038082166000908152606a60209081526040808320606c8352818420948a168452939091529020919250906200086483620013e1565b805415620008f4576000816001015464e8d4a51000846003015484600001546200088f91906200314f565b6200089b91906200312e565b620008a7919062003171565b9050620008b58782620025e9565b836001600160a01b0316876001600160a01b031660008051602062004d4683398151915283604051620008ea91815260200190565b60405180910390a3505b8054600383015464e8d4a51000916200090e91906200314f565b6200091a91906200312e565b600182015560048201546001600160a01b031615620009bf57600482810154604051630c00007b60e41b81526001600160a01b0389811693820193909352911690819063c00007b090602401602060405180830381600087803b1580156200098157600080fd5b505af115801562000996573d6000803e3d6000fd5b505050506040513d601f19601f82011682018060405250810190620009bc919062002e84565b50505b50505080620009ce90620031ba565b9050620007e4565b5050505050565b3360009081526070602052604081205460ff1662000a0f5760405162461bcd60e51b815260040162000740906200302a565b60695460405160009185918591309133916001600160a01b03169062000a359062002c1d565b6001600160a01b0395861681529385166020850152918416604084015283166060830152909116608082015260a001604051809103906000f08015801562000a81573d6000803e3d6000fd5b50606780546001600160a01b0319166001600160a01b038316179055949350505050565b6001600160a01b038083166000908152606a602052604090208054909162000ad19116333085620027fc565b6001600160a01b0383166000908152606c60209081526040808320338452909152902062000aff84620013e1565b80541562000b81576000816001015464e8d4a510008460030154846000015462000b2a91906200314f565b62000b3691906200312e565b62000b42919062003171565b905062000b503382620025e9565b6040518181526001600160a01b03861690339060008051602062004d468339815191529060200160405180910390a3505b805462000b9090849062003113565b8155600281015462000ba490849062003113565b60028201556003820154815464e8d4a510009162000bc2916200314f565b62000bce91906200312e565b60018201556001600160a01b038085166000908152606a6020526040902060040154168315801562000c0857506001600160a01b03811615155b1562000c9257604051630c00007b60e41b81523360048201526001600160a01b0382169063c00007b090602401602060405180830381600087803b15801562000c5057600080fd5b505af115801562000c65573d6000803e3d6000fd5b505050506040513d601f19601f8201168201806040525081019062000c8b919062002e84565b50620009d6565b6001600160a01b0381161562000da6576040516305dc812160e31b8152336004820152602481018590526001600160a01b03821690632ee4090890604401602060405180830381600087803b15801562000ceb57600080fd5b505af115801562000d00573d6000803e3d6000fd5b505050506040513d601f19601f8201168201806040525081019062000d26919062002e84565b50604051630c00007b60e41b81523360048201526001600160a01b0382169063c00007b090602401602060405180830381600087803b15801562000d6957600080fd5b505af115801562000d7e573d6000803e3d6000fd5b505050506040513d601f19601f8201168201806040525081019062000da4919062002e84565b505b6040518481526001600160a01b0386169033907f5548c837ab068cf56a2c2479df0882a4922fd203edb7517321831d95078c5f629060200160405180910390a35050505050565b3360009081526070602052604090205460ff1662000e1f5760405162461bcd60e51b815260040162000740906200302a565b62000e2a8262002869565b8062000e3d57506001600160a01b038216155b62000e8b5760405162461bcd60e51b815260206004820181905260248201527f7365743a207265776172646572206d75737420626520636e747274206f722030604482015260640162000740565b62000e9562000f94565b6001600160a01b0384166000908152606a6020526040902060010154606d54849162000ec19162003171565b62000ecd919062003113565b606d556001600160a01b0384166000908152606a60205260409020600101839055801562000f27576001600160a01b038481166000908152606a6020526040902060040180546001600160a01b0319169184169190911790555b6001600160a01b038085166000818152606a6020526040908190206004015490519216917f67a771b62a820550bb36aef66e37054d1a10c83e41347db2f47df0697e4e86069062000f8690879086909182521515602082015260400190565b60405180910390a350505050565b60685460005b8181101562000ff75762000fe46068828154811062000fc957634e487b7160e01b600052603260045260246000fd5b6000918252602090912001546001600160a01b0316620013e1565b62000fef81620031ba565b905062000f9a565b5050565b6001600160a01b038084166000908152606a60209081526040808320606c835281842094861684529390915290206002810154841115620010745760405162461bcd60e51b81526020600482015260126024820152711dda5d1a191c985dce881b9bdd0819dbdbd960721b604482015260640162000740565b6200107f85620013e1565b6000816001015464e8d4a5100084600301548460000154620010a291906200314f565b620010ae91906200312e565b620010ba919062003171565b9050620010c88482620025e9565b856001600160a01b0316846001600160a01b031660008051602062004d4683398151915283604051620010fd91815260200190565b60405180910390a381546200111490869062003171565b825560028201546200112890869062003171565b60028301556003830154825464e8d4a510009162001146916200314f565b6200115291906200312e565b60018301556001600160a01b038087166000908152606a6020526040902060040154168015620011e457604051630e19c69960e01b81526001600160a01b03821690630e19c69990620011af9088908a9060019060040162002ff2565b600060405180830381600087803b158015620011ca57600080fd5b505af1158015620011df573d6000803e3d6000fd5b505050505b8354620011fc906001600160a01b031633886200287c565b866001600160a01b0316856001600160a01b03167f9b1bfa7fa9ee420a16e124f794c35ac9f90472acc99140eb2f6447c714cad8eb886040516200124291815260200190565b60405180910390a350505050505050565b6001600160a01b038082166000818152606a60208181526040808420606c835281852033808752908452918520958552929091526004820154600285018054949055825492959081169392620012ad92911690836200287c565b6040518181526001600160a01b0386169033907ff24ef89f38eadc1bde50701ad6e4d6d11a2dc24f7cf834a486991f38833285049060200160405180910390a38254620012fc90829062003171565b808455600385015464e8d4a51000916200131791906200314f565b6200132391906200312e565b60018401556001600160a01b03821615620009d657604051630e19c69960e01b81526001600160a01b03831690630e19c699906200136b903390859060009060040162002ff2565b600060405180830381600087803b1580156200138657600080fd5b505af11580156200139b573d6000803e3d6000fd5b505050505050505050565b6033546001600160a01b03163314620013d35760405162461bcd60e51b8152600401620007409062003056565b620013df6000620028ae565b565b6001600160a01b0381166000908152606a60205260409020600281015442116200140c57506200157a565b80546040516370a0823160e01b81523060048201526000916001600160a01b0316906370a082319060240160206040518083038186803b1580156200145057600080fd5b505afa15801562001465573d6000803e3d6000fd5b505050506040513d601f19601f820116820180604052508101906200148b919062002f66565b905080620014a15750426002909101556200157a565b6000826002015442620014b5919062003171565b90506000606d54846001015460665484620014d191906200314f565b620014dd91906200314f565b620014e991906200312e565b905082620014fd8264e8d4a510006200314f565b6200150991906200312e565b84600301546200151a919062003113565b60038501819055426002860181905560408051918252602082018690528101919091526001600160a01b038616907f50a1a2d4fcb1c08863a0b14fcc7d9d728e2b21d8d7588b9cfa3991efe8112ee79060600160405180910390a2505050505b50565b600054610100900460ff166200159a5760005460ff1615620015a4565b620015a462002900565b620016095760405162461bcd60e51b815260206004820152602e60248201527f496e697469616c697a61626c653a20636f6e747261637420697320616c72656160448201526d191e481a5b9a5d1a585b1a5e995960921b606482015260840162000740565b600054610100900460ff1615801562001635576000805460ff1961ff0019909116610100171660011790555b6200163f62002913565b69d3c21bcecceda10000008311156200168f5760405162461bcd60e51b815260206004820152601160248201527008adad2e6e6d2dedc40e8dede40d0d2ced607b1b604482015260640162000740565b606580546001600160a01b0319166001600160a01b038616179055606e8290556000606d819055600190607090620016cf6033546001600160a01b031690565b6001600160a01b031681526020810191909152604001600020805460ff191691151591909117905580156200170a576000805461ff00191690555b50505050565b6001600160a01b038082166000908152606a60209081526040808320606c8352818420338086529352908320600281018054949055815491949093926200175c9290911690836200287c565b6040518181526001600160a01b0385169033907ff24ef89f38eadc1bde50701ad6e4d6d11a2dc24f7cf834a486991f38833285049060200160405180910390a38154620017ab90829062003171565b808355600384015464e8d4a5100091620017c691906200314f565b620017d291906200312e565b60018301556001600160a01b038085166000908152606a6020526040902060040154168015620009d657604051630e19c69960e01b81526001600160a01b03821690630e19c699906200136b903390869060019060040162002ff2565b606881815481106200184057600080fd5b6000918252602090912001546001600160a01b0316905081565b6033546001600160a01b03163314620018875760405162461bcd60e51b8152600401620007409062003056565b606980546001600160a01b0319166001600160a01b0392909216919091179055565b3360009081526070602052604090205460ff16620018db5760405162461bcd60e51b815260040162000740906200302a565b620018e68262002869565b620019345760405162461bcd60e51b815260206004820152601f60248201527f6164643a204c5020746b6e206d7573742062652076616c696420636e74727400604482015260640162000740565b6200193f8162002869565b806200195257506001600160a01b038116155b620019a05760405162461bcd60e51b815260206004820181905260248201527f6164643a207265776172646572206d75737420626520636e747274206f722030604482015260640162000740565b6001600160a01b0382166000908152606b602052604090205460ff161562001a035760405162461bcd60e51b81526020600482015260156024820152741859190e88131408185b1c9958591e481859191959605a1b604482015260640162000740565b62001a0d62000f94565b6000606e54421162001a2257606e5462001a24565b425b905083606d5462001a36919062003113565b606d556068805460018082019092557fa2153420d844928b4421650203c77babc8b33d7f2e7b450e2966db0c220977530180546001600160a01b03199081166001600160a01b038781169182179093556040805160c08101825282815260208082018b81528284018981526000606085018181528c8a166080870181815260a088018481528a8552606a8852898520985189548d16908e161789559551888e0155935160028801559051600387015591516004860180548a16918b16919091179055915160059490940180549097169390971692909217909455606b8452819020805460ff191690951790945592518781529192917fec85b1d1f037ff3a8722aaf5d4d8e7d93c7ff10c056430c18d76a9ec23aa397e910162000f86565b6001600160a01b038381166000908152606a60209081526040808320606c835281842087861685529092528083206003830154835492516370a0823160e01b81523060048201529495869560609587959094939286929116906370a082319060240160206040518083038186803b15801562001bcf57600080fd5b505afa15801562001be4573d6000803e3d6000fd5b505050506040513d601f19601f8201168201806040525081019062001c0a919062002f66565b905083600201544211801562001c1f57508015155b1562001c9e57600084600201544262001c39919062003171565b90506000606d5486600101546066548462001c5591906200314f565b62001c6191906200314f565b62001c6d91906200312e565b90508262001c818264e8d4a510006200314f565b62001c8d91906200312e565b62001c99908562003113565b935050505b6001830154835464e8d4a510009062001cb99085906200314f565b62001cc591906200312e565b62001cd1919062003171565b60048501549098506001600160a01b03161562001df75788896001600160a01b03166395d89b416040518163ffffffff1660e01b815260040160006040518083038186803b15801562001d2357600080fd5b505afa15801562001d38573d6000803e3d6000fd5b505050506040513d6000823e601f3d908101601f1916820160405262001d62919081019062002ea3565b60048681015460405163211dc32d60e01b81526001600160a01b038f8116938201939093528d83166024820152939a50919850169063211dc32d9060440160206040518083038186803b15801562001db957600080fd5b505afa15801562001dce573d6000803e3d6000fd5b505050506040513d601f19601f8201168201806040525081019062001df4919062002f66565b94505b5050505093509350935093565b6001600160a01b038084166000908152606a60209081526040808320606c8352818420868616855290925290912081549192909162001e479116333087620027fc565b62001e5285620013e1565b80541562001ee2576000816001015464e8d4a510008460030154846000015462001e7d91906200314f565b62001e8991906200312e565b62001e95919062003171565b905062001ea38482620025e9565b856001600160a01b0316846001600160a01b031660008051602062004d468339815191528360405162001ed891815260200190565b60405180910390a3505b805462001ef190859062003113565b8155600281015462001f0590859062003113565b60028201556003820154815464e8d4a510009162001f23916200314f565b62001f2f91906200312e565b60018201556001600160a01b038086166000908152606a6020526040902060040154168415801562001f6957506001600160a01b03811615155b1562001ff557604051630c00007b60e41b81526001600160a01b03858116600483015282169063c00007b090602401602060405180830381600087803b15801562001fb357600080fd5b505af115801562001fc8573d6000803e3d6000fd5b505050506040513d601f19601f8201168201806040525081019062001fee919062002e84565b506200215c565b6001600160a01b038116156200210d576040516305dc812160e31b81526001600160a01b03858116600483015260248201879052821690632ee4090890604401602060405180830381600087803b1580156200205057600080fd5b505af115801562002065573d6000803e3d6000fd5b505050506040513d601f19601f820116820180604052508101906200208b919062002e84565b50604051630c00007b60e41b81526001600160a01b03858116600483015282169063c00007b090602401602060405180830381600087803b158015620020d057600080fd5b505af1158015620020e5573d6000803e3d6000fd5b505050506040513d601f19601f820116820180604052508101906200210b919062002e84565b505b856001600160a01b0316846001600160a01b03167f5548c837ab068cf56a2c2479df0882a4922fd203edb7517321831d95078c5f62876040516200215391815260200190565b60405180910390a35b505050505050565b6033546001600160a01b03163314620021915760405162461bcd60e51b8152600401620007409062003056565b606f805460ff19166001179055565b606f5460ff16620021f45760405162461bcd60e51b815260206004820152601f60248201527f5265616c20656d20616c6c6f77656420696620656d57697468206661696c7300604482015260640162000740565b6001600160a01b038082166000908152606a60209081526040808320606c835281842033808652935290832060028101805494905581549194909392620022409290911690836200287c565b6040518181526001600160a01b0385169033907ff24ef89f38eadc1bde50701ad6e4d6d11a2dc24f7cf834a486991f38833285049060200160405180910390a381546200228f90829062003171565b808355600384015464e8d4a5100091620022aa91906200314f565b620022b691906200312e565b826001018190555050505050565b6033546001600160a01b03163314620022f15760405162461bcd60e51b8152600401620007409062003056565b6001600160a01b03919091166000908152607060205260409020805460ff1916911515919091179055565b6033546001600160a01b03163314620023495760405162461bcd60e51b8152600401620007409062003056565b6001600160a01b038116620023b05760405162461bcd60e51b815260206004820152602660248201527f4f776e61626c653a206e6577206f776e657220697320746865207a65726f206160448201526564647265737360d01b606482015260840162000740565b6200157a81620028ae565b6001600160a01b0382166000908152606a60209081526040808320606c83528184203385529092529091206002810154831115620024315760405162461bcd60e51b81526020600482015260126024820152711dda5d1a191c985dce881b9bdd0819dbdbd960721b604482015260640162000740565b6200243c84620013e1565b6000816001015464e8d4a51000846003015484600001546200245f91906200314f565b6200246b91906200312e565b62002477919062003171565b9050620024853382620025e9565b6040518181526001600160a01b03861690339060008051602062004d468339815191529060200160405180910390a38154620024c390859062003171565b82556002820154620024d790859062003171565b60028301556003830154825464e8d4a5100091620024f5916200314f565b6200250191906200312e565b60018301556001600160a01b038086166000908152606a60205260409020600401541680156200259357604051630e19c69960e01b81526001600160a01b03821690630e19c699906200255e903390899060019060040162002ff2565b600060405180830381600087803b1580156200257957600080fd5b505af11580156200258e573d6000803e3d6000fd5b505050505b8354620025ab906001600160a01b031633876200287c565b6040518581526001600160a01b0387169033907f9b1bfa7fa9ee420a16e124f794c35ac9f90472acc99140eb2f6447c714cad8eb9060200162002153565b6065546040516340c10f1960e01b8152306004820152602481018390526001600160a01b03909116906340c10f1990604401600060405180830381600087803b1580156200263657600080fd5b505af11580156200264b573d6000803e3d6000fd5b50506065546040516370a0823160e01b8152306004820152600093506001600160a01b0390911691506370a082319060240160206040518083038186803b1580156200269657600080fd5b505afa158015620026ab573d6000803e3d6000fd5b505050506040513d601f19601f82011682018060405250810190620026d1919062002f66565b9050808211156200276d5760655460405163a9059cbb60e01b81526001600160a01b038581166004830152602482018490529091169063a9059cbb90604401602060405180830381600087803b1580156200272b57600080fd5b505af115801562002740573d6000803e3d6000fd5b505050506040513d601f19601f8201168201806040525081019062002766919062002e84565b50620027f7565b60655460405163a9059cbb60e01b81526001600160a01b038581166004830152602482018590529091169063a9059cbb90604401602060405180830381600087803b158015620027bc57600080fd5b505af1158015620027d1573d6000803e3d6000fd5b505050506040513d601f19601f820116820180604052508101906200170a919062002e84565b505050565b6040516001600160a01b03808516602483015283166044820152606481018290526200170a9085906323b872dd60e01b906084015b60408051601f198184030181529190526020810180516001600160e01b03166001600160e01b03199093169290921790915262002951565b6001600160a01b0381163b15155b919050565b6040516001600160a01b038316602482015260448101829052620027f790849063a9059cbb60e01b9060640162002831565b603380546001600160a01b038381166001600160a01b0319831681179093556040519116919082907f8be0079c531659141344cd1fd0a4f28419497f9722a3daafe3b4186f6b6457e090600090a35050565b60006200290d3062002869565b15905090565b600054610100900460ff166200293d5760405162461bcd60e51b815260040162000740906200308b565b6200294762002a2a565b620013df62002a54565b6000620029a8826040518060400160405280602081526020017f5361666545524332303a206c6f772d6c6576656c2063616c6c206661696c6564815250856001600160a01b031662002a899092919063ffffffff16565b805190915015620027f75780806020019051810190620029c9919062002e84565b620027f75760405162461bcd60e51b815260206004820152602a60248201527f5361666545524332303a204552433230206f7065726174696f6e20646964206e6044820152691bdd081cdd58d8d9595960b21b606482015260840162000740565b600054610100900460ff16620013df5760405162461bcd60e51b815260040162000740906200308b565b600054610100900460ff1662002a7e5760405162461bcd60e51b815260040162000740906200308b565b620013df33620028ae565b606062002a9a848460008562002aa4565b90505b9392505050565b60608247101562002b075760405162461bcd60e51b815260206004820152602660248201527f416464726573733a20696e73756666696369656e742062616c616e636520666f6044820152651c8818d85b1b60d21b606482015260840162000740565b62002b128562002869565b62002b605760405162461bcd60e51b815260206004820152601d60248201527f416464726573733a2063616c6c20746f206e6f6e2d636f6e7472616374000000604482015260640162000740565b600080866001600160a01b0316858760405162002b7e919062002fd4565b60006040518083038185875af1925050503d806000811462002bbd576040519150601f19603f3d011682016040523d82523d6000602084013e62002bc2565b606091505b509150915062002bd482828662002bdf565b979650505050505050565b6060831562002bf057508162002a9d565b82511562002c015782518084602001fd5b8160405162461bcd60e51b815260040162000740919062003015565b611b32806200321483390190565b80356001600160a01b03811681146200287757600080fd5b60006020828403121562002c55578081fd5b62002a9d8262002c2b565b6000806040838503121562002c73578081fd5b62002c7e8362002c2b565b915062002c8e6020840162002c2b565b90509250929050565b60008060006060848603121562002cac578081fd5b62002cb78462002c2b565b925062002cc76020850162002c2b565b915062002cd76040850162002c2b565b90509250925092565b6000806040838503121562002cf3578182fd5b62002cfe8362002c2b565b9150602083013562002d108162003204565b809150509250929050565b6000806040838503121562002d2e578182fd5b62002d398362002c2b565b946020939093013593505050565b60008060006060848603121562002d5c578283fd5b62002d678462002c2b565b92506020840135915062002cd76040850162002c2b565b6000806000806080858703121562002d94578081fd5b62002d9f8562002c2b565b93506020850135925062002db66040860162002c2b565b9150606085013562002dc88162003204565b939692955090935050565b60008060006060848603121562002de8578283fd5b62002df38462002c2b565b95602085013595506040909401359392505050565b60008060006040848603121562002e1d578283fd5b833567ffffffffffffffff8082111562002e35578485fd5b818601915086601f83011262002e49578485fd5b81358181111562002e58578586fd5b876020808302850101111562002e6c578586fd5b60209283019550935062002cd7918601905062002c2b565b60006020828403121562002e96578081fd5b815162002a9d8162003204565b60006020828403121562002eb5578081fd5b815167ffffffffffffffff8082111562002ecd578283fd5b818401915084601f83011262002ee1578283fd5b81518181111562002ef65762002ef6620031ee565b604051601f8201601f19908116603f0116810190838211818310171562002f215762002f21620031ee565b8160405282815287602084870101111562002f3a578586fd5b62002bd48360208301602088016200318b565b60006020828403121562002f5f578081fd5b5035919050565b60006020828403121562002f78578081fd5b5051919050565b60008060006060848603121562002f94578283fd5b8335925062002cc76020850162002c2b565b6000815180845262002fc08160208601602086016200318b565b601f01601f19169290920160200192915050565b6000825162002fe88184602087016200318b565b9190910192915050565b6001600160a01b0393909316835260208301919091521515604082015260600190565b60006020825262002a9d602083018462002fa6565b6020808252601290820152712737ba1030902837b7b61026b0b730b3b2b960711b604082015260600190565b6020808252818101527f4f776e61626c653a2063616c6c6572206973206e6f7420746865206f776e6572604082015260600190565b6020808252602b908201527f496e697469616c697a61626c653a20636f6e7472616374206973206e6f74206960408201526a6e697469616c697a696e6760a81b606082015260800190565b8481526001600160a01b0384166020820152608060408201819052600090620031029083018562002fa6565b905082606083015295945050505050565b60008219821115620031295762003129620031d8565b500190565b6000826200314a57634e487b7160e01b81526012600452602481fd5b500490565b60008160001904831182151516156200316c576200316c620031d8565b500290565b600082821015620031865762003186620031d8565b500390565b60005b83811015620031a85781810151838201526020016200318e565b838111156200170a5750506000910152565b6000600019821415620031d157620031d1620031d8565b5060010190565b634e487b7160e01b600052601160045260246000fd5b634e487b7160e01b600052604160045260246000fd5b80151581146200157a57600080fdfe60c06040523480156200001157600080fd5b5060405162001b3238038062001b328339810160408190526200003491620001af565b6200003f3362000142565b6001600160601b0319606095861b8116608090815293861b1660a0526040805193840181526001600160a01b03948516808552600060208087018281528785018381529988018381528484526005835285842098518954908b166001600160a01b0319918216178a5591516001808b01919091559a516002808b019190915590516003909901989098558754808b019098557f405787fa12a823e0f2b7631cc41b3ba8828b3321ca811111fa75cd3aa3bb5ace9097018054909716831790965590815260088552818120805460ff19908116891790915593861681526009909452808420805484168717905593168252919020805490911690911790556200021e565b600080546001600160a01b038381166001600160a01b0319831681178455604051919092169283917f8be0079c531659141344cd1fd0a4f28419497f9722a3daafe3b4186f6b6457e09190a35050565b80516001600160a01b0381168114620001aa57600080fd5b919050565b600080600080600060a08688031215620001c7578081fd5b620001d28662000192565b9450620001e26020870162000192565b9350620001f26040870162000192565b9250620002026060870162000192565b9150620002126080870162000192565b90509295509295909350565b60805160601c60a05160601c6118c56200026d6000396000818161027e015281816105390152818161094d0152610ef5015260008181610316015281816103a7015261102601526118c56000f3fe608060405234801561001057600080fd5b506004361061018e5760003560e01c80637bb7bed1116100de578063a980356a11610097578063c11f534411610071578063c11f53441461042c578063f122977714610434578063f2fde38b14610447578063f3fc7c2b1461045a5761018e565b8063a980356a146103cb578063b5fd73f8146103f6578063c00007b0146104195761018e565b80637bb7bed1146103385780638a64e0c41461034b5780638da5cb5b1461036e5780638fcf48221461037f57806399da1729146103925780639f9106d1146103a55761018e565b80632ee409081161014b5780637035ab98116101255780637035ab98146102cb57806370a08231146102f6578063715018a61461030957806372f702f3146103115761018e565b80632ee4090814610266578063570ca735146102795780635bc59ce7146102b85761018e565b80630700037d146101935780630e0a5968146102015780630e19c6991461021657806318160ddd1461023957806318838d331461024b578063211dc32d14610253575b600080fd5b6101d26101a1366004611501565b60056020526000908152604090208054600182015460028301546003909301546001600160a01b0390921692909184565b604080516001600160a01b03909516855260208501939093529183015260608201526080015b60405180910390f35b61021461020f366004611501565b61046d565b005b610229610224366004611576565b61052c565b60405190151581526020016101f8565b6003545b6040519081526020016101f8565b6102296106e5565b61023d61026136600461151b565b61088e565b61022961027436600461154d565b610940565b6102a07f000000000000000000000000000000000000000000000000000000000000000081565b6040516001600160a01b0390911681526020016101f8565b6102296102c63660046115e9565b610ade565b61023d6102d936600461151b565b600660209081526000928352604080842090915290825290205481565b61023d610304366004611501565b610c1c565b610214610c3b565b6102a07f000000000000000000000000000000000000000000000000000000000000000081565b6102a06103463660046115d1565b610ca1565b610229610359366004611501565b60096020526000908152604090205460ff1681565b6000546001600160a01b03166102a0565b61022961038d3660046115e9565b610ccb565b61023d6103a0366004611501565b610daf565b7f00000000000000000000000000000000000000000000000000000000000000006102a0565b61023d6103d936600461151b565b600760209081526000928352604080842090915290825290205481565b610229610404366004611501565b60086020526000908152604090205460ff1681565b610229610427366004611501565b610e2b565b61023d611022565b61023d610442366004611501565b6110bd565b610214610455366004611501565b6110db565b6001546102a0906001600160a01b031681565b60025460005b818110156105275760006002828154811061049e57634e487b7160e01b600052603260045260246000fd5b6000918252602090912001546001600160a01b031690506104bf848261088e565b6001600160a01b038083166000908152600760209081526040808320938916835292905220556104ee816110bd565b6001600160a01b0391821660009081526006602090815260408083209488168352939052919091205561052081611850565b9050610473565b505050565b6000336001600160a01b037f0000000000000000000000000000000000000000000000000000000000000000161461057f5760405162461bcd60e51b81526004016105769061167b565b60405180910390fd5b600254849060005b8181101561063b576000600282815481106105b257634e487b7160e01b600052603260045260246000fd5b6000918252602090912001546001600160a01b031690506105d3848261088e565b6001600160a01b03808316600090815260076020908152604080832093891683529290522055610602816110bd565b6001600160a01b0391821660009081526006602090815260408083209488168352939052919091205561063481611850565b9050610587565b508460035461064a919061180d565b6003556001600160a01b03861660009081526004602052604090205461067190869061180d565b6001600160a01b038716600081815260046020526040908190209290925590517f7084f5476618d8e60b11ef0d7d3f06914655adb8793e28ff7f018d4c76d505d5906106c09088815260200190565b60405180910390a283156106d9576106d786610e2b565b505b50600195945050505050565b6002546000903390825b818110156107a35760006002828154811061071a57634e487b7160e01b600052603260045260246000fd5b6000918252602090912001546001600160a01b0316905061073b848261088e565b6001600160a01b0380831660009081526007602090815260408083209389168352929052205561076a816110bd565b6001600160a01b0391821660009081526006602090815260408083209488168352939052919091205561079c81611850565b90506106ef565b5060025460005b81811015610883576000600282815481106107d557634e487b7160e01b600052603260045260246000fd5b60009182526020822001546001600160a01b031691506107f5338361088e565b90508015610870576001600160a01b038216600081815260076020908152604080832033808552925282209190915561082f9190836111a6565b6040518181526001600160a01b0383169033907f8e0d3fa908fd7ee819155b3ce71e292b601bbeb0cd00d7758b9d226a523cb8279060200160405180910390a35b50508061087c90611850565b90506107aa565b506001935050505090565b6001600160a01b0380821660009081526007602090815260408083209386168352929052908120546108be611022565b6108c990600a611720565b6001600160a01b038085166000908152600660209081526040808320938916835292905220546108f8856110bd565b610902919061180d565b6001600160a01b03861660009081526004602052604090205461092591906117ee565b61092f91906116ba565b61093991906116a2565b9392505050565b6000336001600160a01b037f0000000000000000000000000000000000000000000000000000000000000000161461098a5760405162461bcd60e51b81526004016105769061167b565b600254839060005b81811015610a46576000600282815481106109bd57634e487b7160e01b600052603260045260246000fd5b6000918252602090912001546001600160a01b031690506109de848261088e565b6001600160a01b03808316600090815260076020908152604080832093891683529290522055610a0d816110bd565b6001600160a01b03918216600090815260066020908152604080832094881683529390529190912055610a3f81611850565b9050610992565b5083600354610a5591906116a2565b6003556001600160a01b038516600090815260046020526040902054610a7c9085906116a2565b6001600160a01b038616600081815260046020526040908190209290925590517f9e71bc8eea02a63969f509818f2dafb9254532904319f9dbda79b67bd34a5f3d90610acb9087815260200190565b60405180910390a2506001949350505050565b6001600160a01b03811660009081526008602052604081205460ff16610b0357600080fd5b610b186001600160a01b038316333086611209565b6001600160a01b03821660009081526005602052604090206003810154610b409085906116a2565b60038083019190915554610b6d5783816002016000828254610b6291906116a2565b90915550610bcf9050565b600281015415610b90576002810154610b8690856116a2565b6000600283015593505b600354610b9b611022565b610ba690600a611720565b610bb090866117ee565b610bba91906116ba565b8160010154610bc991906116a2565b60018201555b826001600160a01b03167ffb5edb6eb340a01f6a67189edc978df97841c43752c212fc85995ea23001763585604051610c0a91815260200190565b60405180910390a25060019392505050565b6001600160a01b0381166000908152600460205260409020545b919050565b6000546001600160a01b03163314610c955760405162461bcd60e51b815260206004820181905260248201527f4f776e61626c653a2063616c6c6572206973206e6f7420746865206f776e65726044820152606401610576565b610c9f6000611247565b565b60028181548110610cb157600080fd5b6000918252602090912001546001600160a01b0316905081565b3360009081526009602052604081205460ff16610d1f5760405162461bcd60e51b81526020600482015260126024820152712737ba1030902837b7b61026b0b730b3b2b960711b6044820152606401610576565b6001600160a01b03821660009081526008602052604090205460ff16610b03576002805460018082019092557f405787fa12a823e0f2b7631cc41b3ba8828b3321ca811111fa75cd3aa3bb5ace0180546001600160a01b0319166001600160a01b0385169081179091556000818152600860205260409020805460ff1916909217909155610b1890333086611209565b6000816001600160a01b031663313ce5676040518163ffffffff1660e01b815260040160206040518083038186803b158015610dea57600080fd5b505afa158015610dfe573d6000803e3d6000fd5b505050506040513d601f19601f82011682018060405250810190610e22919061160b565b60ff1692915050565b6002546000908290825b81811015610ee957600060028281548110610e6057634e487b7160e01b600052603260045260246000fd5b6000918252602090912001546001600160a01b03169050610e81848261088e565b6001600160a01b03808316600090815260076020908152604080832093891683529290522055610eb0816110bd565b6001600160a01b03918216600090815260066020908152604080832094881683529390529190912055610ee281611850565b9050610e35565b50336001600160a01b037f00000000000000000000000000000000000000000000000000000000000000001614610f325760405162461bcd60e51b81526004016105769061167b565b60025460005b818110156106d957600060028281548110610f6357634e487b7160e01b600052603260045260246000fd5b60009182526020822001546001600160a01b03169150610f83888361088e565b9050801561100f576001600160a01b038083166000818152600760209081526040808320948d16835293905291822091909155610fc19089836111a6565b816001600160a01b0316886001600160a01b03167f8e0d3fa908fd7ee819155b3ce71e292b601bbeb0cd00d7758b9d226a523cb8278360405161100691815260200190565b60405180910390a35b50508061101b90611850565b9050610f38565b60007f00000000000000000000000000000000000000000000000000000000000000006001600160a01b031663313ce5676040518163ffffffff1660e01b815260040160206040518083038186803b15801561107d57600080fd5b505afa158015611091573d6000803e3d6000fd5b505050506040513d601f19601f820116820180604052508101906110b5919061160b565b60ff16905090565b6001600160a01b031660009081526005602052604090206001015490565b6000546001600160a01b031633146111355760405162461bcd60e51b815260206004820181905260248201527f4f776e61626c653a2063616c6c6572206973206e6f7420746865206f776e65726044820152606401610576565b6001600160a01b03811661119a5760405162461bcd60e51b815260206004820152602660248201527f4f776e61626c653a206e6577206f776e657220697320746865207a65726f206160448201526564647265737360d01b6064820152608401610576565b6111a381611247565b50565b6040516001600160a01b03831660248201526044810182905261052790849063a9059cbb60e01b906064015b60408051601f198184030181529190526020810180516001600160e01b03166001600160e01b031990931692909217909152611297565b6040516001600160a01b03808516602483015283166044820152606481018290526112419085906323b872dd60e01b906084016111d2565b50505050565b600080546001600160a01b038381166001600160a01b0319831681178455604051919092169283917f8be0079c531659141344cd1fd0a4f28419497f9722a3daafe3b4186f6b6457e09190a35050565b60006112ec826040518060400160405280602081526020017f5361666545524332303a206c6f772d6c6576656c2063616c6c206661696c6564815250856001600160a01b03166113699092919063ffffffff16565b805190915015610527578080602001905181019061130a91906115b5565b6105275760405162461bcd60e51b815260206004820152602a60248201527f5361666545524332303a204552433230206f7065726174696f6e20646964206e6044820152691bdd081cdd58d8d9595960b21b6064820152608401610576565b60606113788484600085611380565b949350505050565b6060824710156113e15760405162461bcd60e51b815260206004820152602660248201527f416464726573733a20696e73756666696369656e742062616c616e636520666f6044820152651c8818d85b1b60d21b6064820152608401610576565b6001600160a01b0385163b6114385760405162461bcd60e51b815260206004820152601d60248201527f416464726573733a2063616c6c20746f206e6f6e2d636f6e74726163740000006044820152606401610576565b600080866001600160a01b03168587604051611454919061162c565b60006040518083038185875af1925050503d8060008114611491576040519150601f19603f3d011682016040523d82523d6000602084013e611496565b606091505b50915091506114a68282866114b1565b979650505050505050565b606083156114c0575081610939565b8251156114d05782518084602001fd5b8160405162461bcd60e51b81526004016105769190611648565b80356001600160a01b0381168114610c3657600080fd5b600060208284031215611512578081fd5b610939826114ea565b6000806040838503121561152d578081fd5b611536836114ea565b9150611544602084016114ea565b90509250929050565b6000806040838503121561155f578182fd5b611568836114ea565b946020939093013593505050565b60008060006060848603121561158a578081fd5b611593846114ea565b92506020840135915060408401356115aa81611881565b809150509250925092565b6000602082840312156115c6578081fd5b815161093981611881565b6000602082840312156115e2578081fd5b5035919050565b600080604083850312156115fb578182fd5b82359150611544602084016114ea565b60006020828403121561161c578081fd5b815160ff81168114610939578182fd5b6000825161163e818460208701611824565b9190910192915050565b6000602082528251806020840152611667816040850160208701611824565b601f01601f19169190910160400192915050565b6020808252600d908201526c27b7363c9027b832b930ba37b960991b604082015260600190565b600082198211156116b5576116b561186b565b500190565b6000826116d557634e487b7160e01b81526012600452602481fd5b500490565b80825b60018086116116ec5750611717565b8187048211156116fe576116fe61186b565b8086161561170b57918102915b9490941c9380026116dd565b94509492505050565b6000610939600019848460008261173957506001610939565b8161174657506000610939565b816001811461175c576002811461176657611793565b6001915050610939565b60ff8411156117775761177761186b565b6001841b91508482111561178d5761178d61186b565b50610939565b5060208310610133831016604e8410600b84101617156117c6575081810a838111156117c1576117c161186b565b610939565b6117d384848460016116da565b8086048211156117e5576117e561186b565b02949350505050565b60008160001904831182151516156118085761180861186b565b500290565b60008282101561181f5761181f61186b565b500390565b60005b8381101561183f578181015183820152602001611827565b838111156112415750506000910152565b60006000198214156118645761186461186b565b5060010190565b634e487b7160e01b600052601160045260246000fd5b80151581146111a357600080fdfea26469706673582212206893cb142eb4ee20c000688b26b182d36ee8361aa27c965f94cca4f70a8f390964736f6c63430008020033a0306f61d3fafe13787b78e276cb6b644382854a66cb46daae14227d3ec26797a264697066735822122051f211062d3b9663354c7f850f23883b2b6f6665174d8538ce116312629bbaa164736f6c63430008020033",
  "linkReferences": {},
  "deployedLinkReferences": {}
}