{
  "_format": "hh-sol-artifact-1",
  "contractName": "MasterChefRGN",
  "sourceName": "contracts/MainProtocol/MasterChef.sol",
  "abi": [
    {
      "anonymous": false,
      "inputs": [
        {
          "indexed": false,
          "internalType": "uint256",
          "name": "allocPoint",
          "type": "uint256"
        },
        {
          "indexed": true,
          "internalType": "address",
          "name": "lpToken",
          "type": "address"
        },
        {
          "indexed": true,
          "internalType": "contract IBaseRewardPool",
          "name": "rewarder",
          "type": "address"
        }
      ],
      "name": "Add",
      "type": "event"
    },
    {
      "anonymous": false,
      "inputs": [
        {
          "indexed": true,
          "internalType": "address",
          "name": "user",
          "type": "address"
        },
        {
          "indexed": true,
          "internalType": "address",
          "name": "lpToken",
          "type": "address"
        },
        {
          "indexed": false,
          "internalType": "uint256",
          "name": "amount",
          "type": "uint256"
        }
      ],
      "name": "Deposit",
      "type": "event"
    },
    {
      "anonymous": false,
      "inputs": [
        {
          "indexed": true,
          "internalType": "address",
          "name": "user",
          "type": "address"
        },
        {
          "indexed": true,
          "internalType": "address",
          "name": "lpToken",
          "type": "address"
        },
        {
          "indexed": false,
          "internalType": "uint256",
          "name": "amount",
          "type": "uint256"
        }
      ],
      "name": "EmergencyWithdraw",
      "type": "event"
    },
    {
      "anonymous": false,
      "inputs": [
        {
          "indexed": true,
          "internalType": "address",
          "name": "user",
          "type": "address"
        },
        {
          "indexed": true,
          "internalType": "address",
          "name": "lpToken",
          "type": "address"
        },
        {
          "indexed": false,
          "internalType": "uint256",
          "name": "amount",
          "type": "uint256"
        }
      ],
      "name": "Harvest",
      "type": "event"
    },
    {
      "anonymous": false,
      "inputs": [
        {
          "indexed": true,
          "internalType": "address",
          "name": "previousOwner",
          "type": "address"
        },
        {
          "indexed": true,
          "internalType": "address",
          "name": "newOwner",
          "type": "address"
        }
      ],
      "name": "OwnershipTransferred",
      "type": "event"
    },
    {
      "anonymous": false,
      "inputs": [
        {
          "indexed": true,
          "internalType": "address",
          "name": "lpToken",
          "type": "address"
        },
        {
          "indexed": false,
          "internalType": "uint256",
          "name": "allocPoint",
          "type": "uint256"
        },
        {
          "indexed": true,
          "internalType": "contract IBaseRewardPool",
          "name": "rewarder",
          "type": "address"
        },
        {
          "indexed": false,
          "internalType": "bool",
          "name": "overwrite",
          "type": "bool"
        }
      ],
      "name": "Set",
      "type": "event"
    },
    {
      "anonymous": false,
      "inputs": [
        {
          "indexed": true,
          "internalType": "address",
          "name": "user",
          "type": "address"
        },
        {
          "indexed": false,
          "internalType": "uint256",
          "name": "_rgnPerSec",
          "type": "uint256"
        }
      ],
      "name": "UpdateEmissionRate",
      "type": "event"
    },
    {
      "anonymous": false,
      "inputs": [
        {
          "indexed": true,
          "internalType": "address",
          "name": "lpToken",
          "type": "address"
        },
        {
          "indexed": false,
          "internalType": "uint256",
          "name": "lastRewardTimestamp",
          "type": "uint256"
        },
        {
          "indexed": false,
          "internalType": "uint256",
          "name": "lpSupply",
          "type": "uint256"
        },
        {
          "indexed": false,
          "internalType": "uint256",
          "name": "accRGNPerShare",
          "type": "uint256"
        }
      ],
      "name": "UpdatePool",
      "type": "event"
    },
    {
      "anonymous": false,
      "inputs": [
        {
          "indexed": true,
          "internalType": "address",
          "name": "user",
          "type": "address"
        },
        {
          "indexed": true,
          "internalType": "address",
          "name": "lpToken",
          "type": "address"
        },
        {
          "indexed": false,
          "internalType": "uint256",
          "name": "amount",
          "type": "uint256"
        }
      ],
      "name": "Withdraw",
      "type": "event"
    },
    {
      "inputs": [
        {
          "internalType": "address",
          "name": "_rgn",
          "type": "address"
        },
        {
          "internalType": "uint256",
          "name": "_rgnPerSec",
          "type": "uint256"
        },
        {
          "internalType": "uint256",
          "name": "_startTimestamp",
          "type": "uint256"
        }
      ],
      "name": "__MasterChefRGN_init",
      "outputs": [],
      "stateMutability": "nonpayable",
      "type": "function"
    },
    {
      "inputs": [
        {
          "internalType": "uint256",
          "name": "_allocPoint",
          "type": "uint256"
        },
        {
          "internalType": "address",
          "name": "_lpToken",
          "type": "address"
        },
        {
          "internalType": "address",
          "name": "_rewarder",
          "type": "address"
        }
      ],
      "name": "add",
      "outputs": [],
      "stateMutability": "nonpayable",
      "type": "function"
    },
    {
      "inputs": [
        {
          "internalType": "address",
          "name": "",
          "type": "address"
        }
      ],
      "name": "addressToPoolInfo",
      "outputs": [
        {
          "internalType": "address",
          "name": "lpToken",
          "type": "address"
        },
        {
          "internalType": "uint256",
          "name": "allocPoint",
          "type": "uint256"
        },
        {
          "internalType": "uint256",
          "name": "lastRewardTimestamp",
          "type": "uint256"
        },
        {
          "internalType": "uint256",
          "name": "accRGNPerShare",
          "type": "uint256"
        },
        {
          "internalType": "address",
          "name": "rewarder",
          "type": "address"
        },
        {
          "internalType": "address",
          "name": "locker",
          "type": "address"
        }
      ],
      "stateMutability": "view",
      "type": "function"
    },
    {
      "inputs": [],
      "name": "allowEmergency",
      "outputs": [],
      "stateMutability": "nonpayable",
      "type": "function"
    },
    {
      "inputs": [
        {
          "internalType": "address",
          "name": "_lpToken",
          "type": "address"
        },
        {
          "internalType": "address",
          "name": "mainRewardToken",
          "type": "address"
        }
      ],
      "name": "createRewarder",
      "outputs": [
        {
          "internalType": "address",
          "name": "",
          "type": "address"
        }
      ],
      "stateMutability": "nonpayable",
      "type": "function"
    },
    {
      "inputs": [
        {
          "internalType": "address",
          "name": "_lp",
          "type": "address"
        },
        {
          "internalType": "uint256",
          "name": "_amount",
          "type": "uint256"
        }
      ],
      "name": "deposit",
      "outputs": [],
      "stateMutability": "nonpayable",
      "type": "function"
    },
    {
      "inputs": [
        {
          "internalType": "address",
          "name": "_lp",
          "type": "address"
        },
        {
          "internalType": "uint256",
          "name": "_amount",
          "type": "uint256"
        },
        {
          "internalType": "address",
          "name": "sender",
          "type": "address"
        }
      ],
      "name": "depositFor",
      "outputs": [],
      "stateMutability": "nonpayable",
      "type": "function"
    },
    {
      "inputs": [
        {
          "internalType": "address",
          "name": "_lp",
          "type": "address"
        },
        {
          "internalType": "address",
          "name": "_user",
          "type": "address"
        }
      ],
      "name": "depositInfo",
      "outputs": [
        {
          "internalType": "uint256",
          "name": "availableAmount",
          "type": "uint256"
        }
      ],
      "stateMutability": "view",
      "type": "function"
    },
    {
      "inputs": [
        {
          "internalType": "address",
          "name": "_lp",
          "type": "address"
        }
      ],
      "name": "emergencyWithdraw",
      "outputs": [],
      "stateMutability": "nonpayable",
      "type": "function"
    },
    {
      "inputs": [
        {
          "internalType": "address",
          "name": "_lp",
          "type": "address"
        }
      ],
      "name": "emergencyWithdrawWithReward",
      "outputs": [],
      "stateMutability": "nonpayable",
      "type": "function"
    },
    {
      "inputs": [
        {
          "internalType": "address",
          "name": "token",
          "type": "address"
        }
      ],
      "name": "getPoolInfo",
      "outputs": [
        {
          "internalType": "uint256",
          "name": "emission",
          "type": "uint256"
        },
        {
          "internalType": "uint256",
          "name": "allocpoint",
          "type": "uint256"
        },
        {
          "internalType": "uint256",
          "name": "sizeOfPool",
          "type": "uint256"
        },
        {
          "internalType": "uint256",
          "name": "totalPoint",
          "type": "uint256"
        }
      ],
      "stateMutability": "view",
      "type": "function"
    },
    {
      "inputs": [],
      "name": "mainstaking",
      "outputs": [
        {
          "internalType": "address",
          "name": "",
          "type": "address"
        }
      ],
      "stateMutability": "view",
      "type": "function"
    },
    {
      "inputs": [],
      "name": "massUpdatePools",
      "outputs": [],
      "stateMutability": "nonpayable",
      "type": "function"
    },
    {
      "inputs": [
        {
          "internalType": "address[]",
          "name": "_lps",
          "type": "address[]"
        },
        {
          "internalType": "address",
          "name": "userAddress",
          "type": "address"
        }
      ],
      "name": "multiclaim",
      "outputs": [],
      "stateMutability": "nonpayable",
      "type": "function"
    },
    {
      "inputs": [],
      "name": "owner",
      "outputs": [
        {
          "internalType": "address",
          "name": "",
          "type": "address"
        }
      ],
      "stateMutability": "view",
      "type": "function"
    },
    {
      "inputs": [
        {
          "internalType": "address",
          "name": "_lp",
          "type": "address"
        },
        {
          "internalType": "address",
          "name": "_user",
          "type": "address"
        },
        {
          "internalType": "address",
          "name": "token",
          "type": "address"
        }
      ],
      "name": "pendingTokens",
      "outputs": [
        {
          "internalType": "uint256",
          "name": "pendingRGN",
          "type": "uint256"
        },
        {
          "internalType": "address",
          "name": "bonusTokenAddress",
          "type": "address"
        },
        {
          "internalType": "string",
          "name": "bonusTokenSymbol",
          "type": "string"
        },
        {
          "internalType": "uint256",
          "name": "pendingBonusToken",
          "type": "uint256"
        }
      ],
      "stateMutability": "view",
      "type": "function"
    },
    {
      "inputs": [],
      "name": "poolLength",
      "outputs": [
        {
          "internalType": "uint256",
          "name": "",
          "type": "uint256"
        }
      ],
      "stateMutability": "view",
      "type": "function"
    },
    {
      "inputs": [
        {
          "internalType": "address",
          "name": "",
          "type": "address"
        }
      ],
      "name": "poolManagers",
      "outputs": [
        {
          "internalType": "bool",
          "name": "",
          "type": "bool"
        }
      ],
      "stateMutability": "view",
      "type": "function"
    },
    {
      "inputs": [],
      "name": "realEmergencyAllowed",
      "outputs": [
        {
          "internalType": "bool",
          "name": "",
          "type": "bool"
        }
      ],
      "stateMutability": "view",
      "type": "function"
    },
    {
      "inputs": [
        {
          "internalType": "address",
          "name": "_lp",
          "type": "address"
        }
      ],
      "name": "realEmergencyWithdraw",
      "outputs": [],
      "stateMutability": "nonpayable",
      "type": "function"
    },
    {
      "inputs": [
        {
          "internalType": "uint256",
          "name": "",
          "type": "uint256"
        }
      ],
      "name": "registeredToken",
      "outputs": [
        {
          "internalType": "address",
          "name": "",
          "type": "address"
        }
      ],
      "stateMutability": "view",
      "type": "function"
    },
    {
      "inputs": [],
      "name": "renounceOwnership",
      "outputs": [],
      "stateMutability": "nonpayable",
      "type": "function"
    },
    {
      "inputs": [],
      "name": "rewarderAddress",
      "outputs": [
        {
          "internalType": "address",
          "name": "",
          "type": "address"
        }
      ],
      "stateMutability": "view",
      "type": "function"
    },
    {
      "inputs": [],
      "name": "rgn",
      "outputs": [
        {
          "internalType": "contract RGN",
          "name": "",
          "type": "address"
        }
      ],
      "stateMutability": "view",
      "type": "function"
    },
    {
      "inputs": [],
      "name": "rgnPerSec",
      "outputs": [
        {
          "internalType": "uint256",
          "name": "",
          "type": "uint256"
        }
      ],
      "stateMutability": "view",
      "type": "function"
    },
    {
      "inputs": [
        {
          "internalType": "address",
          "name": "_lp",
          "type": "address"
        },
        {
          "internalType": "uint256",
          "name": "_allocPoint",
          "type": "uint256"
        },
        {
          "internalType": "address",
          "name": "_rewarder",
          "type": "address"
        },
        {
          "internalType": "bool",
          "name": "overwrite",
          "type": "bool"
        }
      ],
      "name": "set",
      "outputs": [],
      "stateMutability": "nonpayable",
      "type": "function"
    },
    {
      "inputs": [
        {
          "internalType": "address",
          "name": "_address",
          "type": "address"
        }
      ],
      "name": "setMainstaking",
      "outputs": [],
      "stateMutability": "nonpayable",
      "type": "function"
    },
    {
      "inputs": [
        {
          "internalType": "address",
          "name": "_address",
          "type": "address"
        },
        {
          "internalType": "bool",
          "name": "_bool",
          "type": "bool"
        }
      ],
      "name": "setPoolManagerStatus",
      "outputs": [],
      "stateMutability": "nonpayable",
      "type": "function"
    },
    {
      "inputs": [],
      "name": "startTimestamp",
      "outputs": [
        {
          "internalType": "uint256",
          "name": "",
          "type": "uint256"
        }
      ],
      "stateMutability": "view",
      "type": "function"
    },
    {
      "inputs": [],
      "name": "totalAllocPoint",
      "outputs": [
        {
          "internalType": "uint256",
          "name": "",
          "type": "uint256"
        }
      ],
      "stateMutability": "view",
      "type": "function"
    },
    {
      "inputs": [
        {
          "internalType": "address",
          "name": "newOwner",
          "type": "address"
        }
      ],
      "name": "transferOwnership",
      "outputs": [],
      "stateMutability": "nonpayable",
      "type": "function"
    },
    {
      "inputs": [
        {
          "internalType": "uint256",
          "name": "_rgnPerSec",
          "type": "uint256"
        }
      ],
      "name": "updateEmissionRate",
      "outputs": [],
      "stateMutability": "nonpayable",
      "type": "function"
    },
    {
      "inputs": [
        {
          "internalType": "address",
          "name": "_lp",
          "type": "address"
        }
      ],
      "name": "updatePool",
      "outputs": [],
      "stateMutability": "nonpayable",
      "type": "function"
    },
    {
      "inputs": [
        {
          "internalType": "address",
          "name": "_lp",
          "type": "address"
        },
        {
          "internalType": "uint256",
          "name": "_amount",
          "type": "uint256"
        }
      ],
      "name": "withdraw",
      "outputs": [],
      "stateMutability": "nonpayable",
      "type": "function"
    },
    {
      "inputs": [
        {
          "internalType": "address",
          "name": "_lp",
          "type": "address"
        },
        {
          "internalType": "uint256",
          "name": "_amount",
          "type": "uint256"
        },
        {
          "internalType": "address",
          "name": "_sender",
          "type": "address"
        }
      ],
      "name": "withdrawFor",
      "outputs": [],
      "stateMutability": "nonpayable",
      "type": "function"
    }
  ],
  "bytecode": "0x608060405234801561001057600080fd5b5061507d806100206000396000f3fe60806040523480156200001157600080fd5b5060043610620001fc5760003560e01c80638a64e0c4116200011d578063cbe9159311620000ab578063cbe91593146200051d578063cdfaeab61462000534578063d4ac0fa1146200053e578063e0e2b2b31462000548578063e6fd48bc146200055c578063e952fddc1462000566578063efe33cfa146200057d578063f2fde38b1462000594578063f3fef3a314620005ab57620001fc565b80638a64e0c4146200043d5780638da5cb5b14620004635780639742f6cd146200046d57806397f3b30414620004845780639c7e2655146200049b578063ab7de09814620004b2578063ad05e62714620004c9578063b4c0b71514620004f2578063c8820f6c146200050657620001fc565b806347e7ef24116200019b57806347e7ef2414620002e3578063493b017014620002fa578063578461aa1462000339578063630b5ba114620003505780636766efbe146200035a5780636ff1c9bc1462000371578063715018a6146200038857806375b1aadc14620003925780637b46c54f146200042657620001fc565b806306bfa9381462000201578063081e3eda146200023d5780630ba84cd2146200025057806317caf6f1146200026957806317e54830146200027357806337fb24cf146200028a5780633b3f0ee614620002ad5780634545b1b414620002c4575b600080fd5b620002186200021236600462002b7c565b620005c2565b6040805194855260208501939093529183015260608201526080015b60405180910390f35b6068545b60405190815260200162000234565b620002676200026136600462002e86565b620006ba565b005b62000241606d5481565b620002676200028436600462002d41565b6200076b565b6065546200029e906001600160a01b031681565b60405162000234919062002f2b565b6200029e620002be36600462002b99565b6200096a565b606f54620002d29060ff1681565b604051901515815260200162000234565b62000267620002f436600462002c54565b62000a32565b620002416200030b36600462002b99565b6001600160a01b039182166000908152606c6020908152604080832093909416825291909152206002015490565b620002676200034a36600462002cb7565b62000d8a565b6200026762000f31565b620002676200036b36600462002c80565b62000f98565b620002676200038236600462002b7c565b620011cc565b620002676200130e565b620003e7620003a336600462002b7c565b606a602052600090815260409020805460018201546002830154600384015460048501546005909501546001600160a01b0394851695939492939192918216911686565b604080516001600160a01b039788168152602081019690965285019390935260608401919091528316608083015290911660a082015260c00162000234565b620002676200043736600462002b7c565b62001350565b620002d26200044e36600462002b7c565b60706020526000908152604090205460ff1681565b6200029e620014f3565b620002676200047e36600462002d0c565b62001502565b620002676200049536600462002b7c565b62001669565b6200029e620004ac36600462002e86565b62001777565b62000267620004c336600462002eb8565b620017a2565b620004e0620004da36600462002bd0565b62001a4d565b60405162000234949392919062003093565b6069546200029e906001600160a01b031681565b620002676200051736600462002c80565b62001d04565b620002676200052e36600462002b7c565b6200206e565b62000267620020c4565b6200024160665481565b6067546200029e906001600160a01b031681565b62000241606e5481565b620002676200057736600462002b7c565b62002107565b620002676200058e36600462002c19565b6200221a565b62000267620005a536600462002b7c565b62002279565b62000267620005bc36600462002c54565b6200231f565b6001600160a01b038082166000818152606a60209081526040808320815160c0810183528154871681526001820154938101849052600282015481840152600382015460608201526004808301548816608083015260059092015490961660a087015260665491516370a0823160e01b815293958695869586959294936370a0823191620006539130910162002f2b565b60206040518083038186803b1580156200066c57600080fd5b505afa15801562000681573d6000803e3d6000fd5b505050506040513d601f19601f82011682018060405250810190620006a7919062002e9f565b606d549450945094509450509193509193565b33620006c5620014f3565b6001600160a01b031614620006f75760405162461bcd60e51b8152600401620006ee9062002fe7565b60405180910390fd5b69d3c21bcecceda1000000811115620007245760405162461bcd60e51b8152600401620006ee9062002fbc565b6200072e62000f31565b606681905560405181815233907fe2492e003bbe8afa53088b406f0c1cb5d9e280370fc72a74cf116ffd343c40539060200160405180910390a250565b8160005b81811015620009635760008585838181106200079b57634e487b7160e01b600052603260045260246000fd5b9050602002016020810190620007b2919062002b7c565b6001600160a01b038082166000908152606a60209081526040808320606c8352818420948a16845293909152902091925090620007ef8362001350565b8054156200087f576000816001015464e8d4a51000846003015484600001546200081a91906200310c565b620008269190620030eb565b6200083291906200312e565b905062000840878262002529565b836001600160a01b0316876001600160a01b031660008051602062005008833981519152836040516200087591815260200190565b60405180910390a3505b8054600383015464e8d4a51000916200089991906200310c565b620008a59190620030eb565b600182015560048201546001600160a01b0316156200094c57600480830154604051630c00007b60e41b81526001600160a01b0390911691829163c00007b091620008f3918b910162002f2b565b602060405180830381600087803b1580156200090e57600080fd5b505af115801562000923573d6000803e3d6000fd5b505050506040513d601f19601f8201168201806040525081019062000949919062002dbd565b50505b505050806200095b9062003177565b90506200076f565b5050505050565b3360009081526070602052604081205460ff166200099c5760405162461bcd60e51b8152600401620006ee9062002f90565b60695460405160009185918591309133916001600160a01b031690620009c29062002b56565b6001600160a01b0395861681529385166020850152918416604084015283166060830152909116608082015260a001604051809103906000f08015801562000a0e573d6000803e3d6000fd5b50606780546001600160a01b0319166001600160a01b038316179055949350505050565b6001600160a01b038083166000908152606a602052604090208054909162000a5e911633308562002745565b6001600160a01b0383166000908152606c60209081526040808320338452909152902062000a8c8462001350565b80541562000b0e576000816001015464e8d4a510008460030154846000015462000ab791906200310c565b62000ac39190620030eb565b62000acf91906200312e565b905062000add338262002529565b6040518181526001600160a01b038616903390600080516020620050088339815191529060200160405180910390a3505b805462000b1d908490620030d0565b8155600281015462000b31908490620030d0565b60028201556003820154815464e8d4a510009162000b4f916200310c565b62000b5b9190620030eb565b60018201556001600160a01b038085166000908152606a6020526040902060040154168315801562000b9557506001600160a01b03811615155b1562000c2657604051630c00007b60e41b81526001600160a01b0382169063c00007b09062000bc990339060040162002f2b565b602060405180830381600087803b15801562000be457600080fd5b505af115801562000bf9573d6000803e3d6000fd5b505050506040513d601f19601f8201168201806040525081019062000c1f919062002dbd565b5062000963565b6001600160a01b0381161562000d43576040516305dc812160e31b81526001600160a01b03821690632ee409089062000c66903390889060040162002f3f565b602060405180830381600087803b15801562000c8157600080fd5b505af115801562000c96573d6000803e3d6000fd5b505050506040513d601f19601f8201168201806040525081019062000cbc919062002dbd565b50604051630c00007b60e41b81526001600160a01b0382169063c00007b09062000ceb90339060040162002f2b565b602060405180830381600087803b15801562000d0657600080fd5b505af115801562000d1b573d6000803e3d6000fd5b505050506040513d601f19601f8201168201806040525081019062000d41919062002dbd565b505b6040518481526001600160a01b0386169033907f5548c837ab068cf56a2c2479df0882a4922fd203edb7517321831d95078c5f629060200160405180910390a35050505050565b3360009081526070602052604090205460ff1662000dbc5760405162461bcd60e51b8152600401620006ee9062002f90565b62000dc782620027b2565b8062000dda57506001600160a01b038216155b62000e285760405162461bcd60e51b815260206004820181905260248201527f7365743a207265776172646572206d75737420626520636e747274206f7220306044820152606401620006ee565b62000e3262000f31565b6001600160a01b0384166000908152606a6020526040902060010154606d54849162000e5e916200312e565b62000e6a9190620030d0565b606d556001600160a01b0384166000908152606a60205260409020600101839055801562000ec4576001600160a01b038481166000908152606a6020526040902060040180546001600160a01b0319169184169190911790555b6001600160a01b038085166000818152606a6020526040908190206004015490519216917f67a771b62a820550bb36aef66e37054d1a10c83e41347db2f47df0697e4e86069062000f2390879086909182521515602082015260400190565b60405180910390a350505050565b60685460005b8181101562000f945762000f816068828154811062000f6657634e487b7160e01b600052603260045260246000fd5b6000918252602090912001546001600160a01b031662001350565b62000f8c8162003177565b905062000f37565b5050565b6001600160a01b038084166000908152606a60209081526040808320606c83528184209486168452939091529020600281015484111562000fed5760405162461bcd60e51b8152600401620006ee906200301c565b62000ff88562001350565b6000816001015464e8d4a51000846003015484600001546200101b91906200310c565b620010279190620030eb565b6200103391906200312e565b905062001041848262002529565b856001600160a01b0316846001600160a01b031660008051602062005008833981519152836040516200107691815260200190565b60405180910390a381546200108d9086906200312e565b82556002820154620010a19086906200312e565b60028301556003830154825464e8d4a5100091620010bf916200310c565b620010cb9190620030eb565b60018301556001600160a01b038087166000908152606a60205260409020600401541680156200115d57604051630e19c69960e01b81526001600160a01b03821690630e19c69990620011289088908a9060019060040162002f58565b600060405180830381600087803b1580156200114357600080fd5b505af115801562001158573d6000803e3d6000fd5b505050505b835462001175906001600160a01b03163388620027c5565b866001600160a01b0316856001600160a01b03167f9b1bfa7fa9ee420a16e124f794c35ac9f90472acc99140eb2f6447c714cad8eb88604051620011bb91815260200190565b60405180910390a350505050505050565b6001600160a01b038082166000818152606a60208181526040808420606c835281852033808752908452918520958552929091526004820154600285018054949055825492959081169392620012269291169083620027c5565b6040518181526001600160a01b038616903390600080516020620050288339815191529060200160405180910390a38254620012649082906200312e565b808455600385015464e8d4a51000916200127f91906200310c565b6200128b9190620030eb565b60018401556001600160a01b038216156200096357604051630e19c69960e01b81526001600160a01b03831690630e19c69990620012d3903390859060009060040162002f58565b600060405180830381600087803b158015620012ee57600080fd5b505af115801562001303573d6000803e3d6000fd5b505050505050505050565b3362001319620014f3565b6001600160a01b031614620013425760405162461bcd60e51b8152600401620006ee9062002fe7565b6200134e6000620027e7565b565b6001600160a01b0381166000908152606a60205260409020600281015442116200137b5750620014f0565b80546040516370a0823160e01b81526000916001600160a01b0316906370a0823190620013ad90309060040162002f2b565b60206040518083038186803b158015620013c657600080fd5b505afa158015620013db573d6000803e3d6000fd5b505050506040513d601f19601f8201168201806040525081019062001401919062002e9f565b90508062001417575042600290910155620014f0565b60008260020154426200142b91906200312e565b90506000606d548460010154606654846200144791906200310c565b6200145391906200310c565b6200145f9190620030eb565b905082620014738264e8d4a510006200310c565b6200147f9190620030eb565b8460030154620014909190620030d0565b60038501819055426002860181905560408051918252602082018690528101919091526001600160a01b038616907f50a1a2d4fcb1c08863a0b14fcc7d9d728e2b21d8d7588b9cfa3991efe8112ee79060600160405180910390a2505050505b50565b6033546001600160a01b031690565b600054610100900460ff166200151f5760005460ff161562001529565b6200152962002839565b6200158e5760405162461bcd60e51b815260206004820152602e60248201527f496e697469616c697a61626c653a20636f6e747261637420697320616c72656160448201526d191e481a5b9a5d1a585b1a5e995960921b6064820152608401620006ee565b600054610100900460ff16158015620015ba576000805460ff1961ff0019909116610100171660011790555b620015c46200284c565b69d3c21bcecceda1000000831115620015f15760405162461bcd60e51b8152600401620006ee9062002fbc565b606580546001600160a01b0319166001600160a01b038616179055606e8290556000606d81905560019060709062001628620014f3565b6001600160a01b031681526020810191909152604001600020805460ff1916911515919091179055801562001663576000805461ff00191690555b50505050565b6001600160a01b038082166000908152606a60209081526040808320606c835281842033808652935290832060028101805494905581549194909392620016b5929091169083620027c5565b6040518181526001600160a01b038516903390600080516020620050288339815191529060200160405180910390a38154620016f39082906200312e565b808355600384015464e8d4a51000916200170e91906200310c565b6200171a9190620030eb565b60018301556001600160a01b038085166000908152606a60205260409020600401541680156200096357604051630e19c69960e01b81526001600160a01b03821690630e19c69990620012d3903390869060019060040162002f58565b606881815481106200178857600080fd5b6000918252602090912001546001600160a01b0316905081565b3360009081526070602052604090205460ff16620017d45760405162461bcd60e51b8152600401620006ee9062002f90565b620017df82620027b2565b6200182d5760405162461bcd60e51b815260206004820152601f60248201527f6164643a204c5020746b6e206d7573742062652076616c696420636e747274006044820152606401620006ee565b6200183881620027b2565b806200184b57506001600160a01b038116155b620018995760405162461bcd60e51b815260206004820181905260248201527f6164643a207265776172646572206d75737420626520636e747274206f7220306044820152606401620006ee565b6001600160a01b0382166000908152606b602052604090205460ff1615620018fc5760405162461bcd60e51b81526020600482015260156024820152741859190e88131408185b1c9958591e481859191959605a1b6044820152606401620006ee565b6200190662000f31565b6000606e5442116200191b57606e546200191d565b425b905083606d546200192f9190620030d0565b606d556068805460018082019092557fa2153420d844928b4421650203c77babc8b33d7f2e7b450e2966db0c220977530180546001600160a01b03199081166001600160a01b038781169182179093556040805160c08101825282815260208082018b81528284018981526000606085018181528c8a166080870181815260a088018481528a8552606a8852898520985189548d16908e161789559551888e0155935160028801559051600387015591516004860180548a16918b16919091179055915160059490940180549097169390971692909217909455606b8452819020805460ff191690951790945592518781529192917fec85b1d1f037ff3a8722aaf5d4d8e7d93c7ff10c056430c18d76a9ec23aa397e910162000f23565b6001600160a01b038084166000908152606a60209081526040808320606c835281842087861685529092528083206003830154835492516370a0823160e01b81529495869560609587959094939286929116906370a082319062001ab690309060040162002f2b565b60206040518083038186803b15801562001acf57600080fd5b505afa15801562001ae4573d6000803e3d6000fd5b505050506040513d601f19601f8201168201806040525081019062001b0a919062002e9f565b905083600201544211801562001b1f57508015155b1562001b9e57600084600201544262001b3991906200312e565b90506000606d5486600101546066548462001b5591906200310c565b62001b6191906200310c565b62001b6d9190620030eb565b90508262001b818264e8d4a510006200310c565b62001b8d9190620030eb565b62001b999085620030d0565b935050505b6001830154835464e8d4a510009062001bb99085906200310c565b62001bc59190620030eb565b62001bd191906200312e565b60048501549098506001600160a01b03161562001cf75788896001600160a01b03166395d89b416040518163ffffffff1660e01b815260040160006040518083038186803b15801562001c2357600080fd5b505afa15801562001c38573d6000803e3d6000fd5b505050506040513d6000823e601f3d908101601f1916820160405262001c62919081019062002ddc565b60048681015460405163211dc32d60e01b81526001600160a01b038f8116938201939093528d83166024820152939a50919850169063211dc32d9060440160206040518083038186803b15801562001cb957600080fd5b505afa15801562001cce573d6000803e3d6000fd5b505050506040513d601f19601f8201168201806040525081019062001cf4919062002e9f565b94505b5050505093509350935093565b6001600160a01b038084166000908152606a60209081526040808320606c8352818420868616855290925290912081549192909162001d47911633308762002745565b62001d528562001350565b80541562001de2576000816001015464e8d4a510008460030154846000015462001d7d91906200310c565b62001d899190620030eb565b62001d9591906200312e565b905062001da3848262002529565b856001600160a01b0316846001600160a01b0316600080516020620050088339815191528360405162001dd891815260200190565b60405180910390a3505b805462001df1908590620030d0565b8155600281015462001e05908590620030d0565b60028201556003820154815464e8d4a510009162001e23916200310c565b62001e2f9190620030eb565b60018201556001600160a01b038086166000908152606a6020526040902060040154168415801562001e6957506001600160a01b03811615155b1562001efa57604051630c00007b60e41b81526001600160a01b0382169063c00007b09062001e9d90879060040162002f2b565b602060405180830381600087803b15801562001eb857600080fd5b505af115801562001ecd573d6000803e3d6000fd5b505050506040513d601f19601f8201168201806040525081019062001ef3919062002dbd565b5062002066565b6001600160a01b0381161562002017576040516305dc812160e31b81526001600160a01b03821690632ee409089062001f3a908790899060040162002f3f565b602060405180830381600087803b15801562001f5557600080fd5b505af115801562001f6a573d6000803e3d6000fd5b505050506040513d601f19601f8201168201806040525081019062001f90919062002dbd565b50604051630c00007b60e41b81526001600160a01b0382169063c00007b09062001fbf90879060040162002f2b565b602060405180830381600087803b15801562001fda57600080fd5b505af115801562001fef573d6000803e3d6000fd5b505050506040513d601f19601f8201168201806040525081019062002015919062002dbd565b505b856001600160a01b0316846001600160a01b03167f5548c837ab068cf56a2c2479df0882a4922fd203edb7517321831d95078c5f62876040516200205d91815260200190565b60405180910390a35b505050505050565b3362002079620014f3565b6001600160a01b031614620020a25760405162461bcd60e51b8152600401620006ee9062002fe7565b606980546001600160a01b0319166001600160a01b0392909216919091179055565b33620020cf620014f3565b6001600160a01b031614620020f85760405162461bcd60e51b8152600401620006ee9062002fe7565b606f805460ff19166001179055565b606f5460ff166200215b5760405162461bcd60e51b815260206004820152601f60248201527f5265616c20656d20616c6c6f77656420696620656d57697468206661696c73006044820152606401620006ee565b6001600160a01b038082166000908152606a60209081526040808320606c835281842033808652935290832060028101805494905581549194909392620021a7929091169083620027c5565b6040518181526001600160a01b038516903390600080516020620050288339815191529060200160405180910390a38154620021e59082906200312e565b808355600384015464e8d4a51000916200220091906200310c565b6200220c9190620030eb565b826001018190555050505050565b3362002225620014f3565b6001600160a01b0316146200224e5760405162461bcd60e51b8152600401620006ee9062002fe7565b6001600160a01b03919091166000908152607060205260409020805460ff1916911515919091179055565b3362002284620014f3565b6001600160a01b031614620022ad5760405162461bcd60e51b8152600401620006ee9062002fe7565b6001600160a01b038116620023145760405162461bcd60e51b815260206004820152602660248201527f4f776e61626c653a206e6577206f776e657220697320746865207a65726f206160448201526564647265737360d01b6064820152608401620006ee565b620014f081620027e7565b6001600160a01b0382166000908152606a60209081526040808320606c83528184203385529092529091206002810154831115620023715760405162461bcd60e51b8152600401620006ee906200301c565b6200237c8462001350565b6000816001015464e8d4a51000846003015484600001546200239f91906200310c565b620023ab9190620030eb565b620023b791906200312e565b9050620023c5338262002529565b6040518181526001600160a01b038616903390600080516020620050088339815191529060200160405180910390a38154620024039085906200312e565b82556002820154620024179085906200312e565b60028301556003830154825464e8d4a510009162002435916200310c565b620024419190620030eb565b60018301556001600160a01b038086166000908152606a6020526040902060040154168015620024d357604051630e19c69960e01b81526001600160a01b03821690630e19c699906200249e903390899060019060040162002f58565b600060405180830381600087803b158015620024b957600080fd5b505af1158015620024ce573d6000803e3d6000fd5b505050505b8354620024eb906001600160a01b03163387620027c5565b6040518581526001600160a01b0387169033907f9b1bfa7fa9ee420a16e124f794c35ac9f90472acc99140eb2f6447c714cad8eb906020016200205d565b6065546040516340c10f1960e01b81526001600160a01b03909116906340c10f19906200255d903090859060040162002f3f565b600060405180830381600087803b1580156200257857600080fd5b505af11580156200258d573d6000803e3d6000fd5b50506065546040516370a0823160e01b8152600093506001600160a01b0390911691506370a0823190620025c690309060040162002f2b565b60206040518083038186803b158015620025df57600080fd5b505afa158015620025f4573d6000803e3d6000fd5b505050506040513d601f19601f820116820180604052508101906200261a919062002e9f565b905080821115620026b65760655460405163a9059cbb60e01b81526001600160a01b039091169063a9059cbb9062002659908690859060040162002f3f565b602060405180830381600087803b1580156200267457600080fd5b505af115801562002689573d6000803e3d6000fd5b505050506040513d601f19601f82011682018060405250810190620026af919062002dbd565b5062002740565b60655460405163a9059cbb60e01b81526001600160a01b039091169063a9059cbb90620026ea908690869060040162002f3f565b602060405180830381600087803b1580156200270557600080fd5b505af11580156200271a573d6000803e3d6000fd5b505050506040513d601f19601f8201168201806040525081019062001663919062002dbd565b505050565b6040516001600160a01b0380851660248301528316604482015260648101829052620016639085906323b872dd60e01b906084015b60408051601f198184030181529190526020810180516001600160e01b03166001600160e01b0319909316929092179091526200288a565b6001600160a01b0381163b15155b919050565b620027408363a9059cbb60e01b84846040516024016200277a92919062002f3f565b603380546001600160a01b038381166001600160a01b0319831681179093556040519116919082907f8be0079c531659141344cd1fd0a4f28419497f9722a3daafe3b4186f6b6457e090600090a35050565b60006200284630620027b2565b15905090565b600054610100900460ff16620028765760405162461bcd60e51b8152600401620006ee9062003048565b6200288062002963565b6200134e6200298d565b6000620028e1826040518060400160405280602081526020017f5361666545524332303a206c6f772d6c6576656c2063616c6c206661696c6564815250856001600160a01b0316620029c29092919063ffffffff16565b80519091501562002740578080602001905181019062002902919062002dbd565b620027405760405162461bcd60e51b815260206004820152602a60248201527f5361666545524332303a204552433230206f7065726174696f6e20646964206e6044820152691bdd081cdd58d8d9595960b21b6064820152608401620006ee565b600054610100900460ff166200134e5760405162461bcd60e51b8152600401620006ee9062003048565b600054610100900460ff16620029b75760405162461bcd60e51b8152600401620006ee9062003048565b6200134e33620027e7565b6060620029d38484600085620029dd565b90505b9392505050565b60608247101562002a405760405162461bcd60e51b815260206004820152602660248201527f416464726573733a20696e73756666696369656e742062616c616e636520666f6044820152651c8818d85b1b60d21b6064820152608401620006ee565b62002a4b85620027b2565b62002a995760405162461bcd60e51b815260206004820152601d60248201527f416464726573733a2063616c6c20746f206e6f6e2d636f6e74726163740000006044820152606401620006ee565b600080866001600160a01b0316858760405162002ab7919062002f0d565b60006040518083038185875af1925050503d806000811462002af6576040519150601f19603f3d011682016040523d82523d6000602084013e62002afb565b606091505b509150915062002b0d82828662002b18565b979650505050505050565b6060831562002b29575081620029d6565b82511562002b3a5782518084602001fd5b8160405162461bcd60e51b8152600401620006ee919062002f7b565b611e3780620031d183390190565b80356001600160a01b0381168114620027c057600080fd5b60006020828403121562002b8e578081fd5b620029d68262002b64565b6000806040838503121562002bac578081fd5b62002bb78362002b64565b915062002bc76020840162002b64565b90509250929050565b60008060006060848603121562002be5578081fd5b62002bf08462002b64565b925062002c006020850162002b64565b915062002c106040850162002b64565b90509250925092565b6000806040838503121562002c2c578182fd5b62002c378362002b64565b9150602083013562002c4981620031c1565b809150509250929050565b6000806040838503121562002c67578182fd5b62002c728362002b64565b946020939093013593505050565b60008060006060848603121562002c95578283fd5b62002ca08462002b64565b92506020840135915062002c106040850162002b64565b6000806000806080858703121562002ccd578081fd5b62002cd88562002b64565b93506020850135925062002cef6040860162002b64565b9150606085013562002d0181620031c1565b939692955090935050565b60008060006060848603121562002d21578283fd5b62002d2c8462002b64565b95602085013595506040909401359392505050565b60008060006040848603121562002d56578283fd5b833567ffffffffffffffff8082111562002d6e578485fd5b818601915086601f83011262002d82578485fd5b81358181111562002d91578586fd5b876020808302850101111562002da5578586fd5b60209283019550935062002c10918601905062002b64565b60006020828403121562002dcf578081fd5b8151620029d681620031c1565b60006020828403121562002dee578081fd5b815167ffffffffffffffff8082111562002e06578283fd5b818401915084601f83011262002e1a578283fd5b81518181111562002e2f5762002e2f620031ab565b604051601f8201601f19908116603f0116810190838211818310171562002e5a5762002e5a620031ab565b8160405282815287602084870101111562002e73578586fd5b62002b0d83602083016020880162003148565b60006020828403121562002e98578081fd5b5035919050565b60006020828403121562002eb1578081fd5b5051919050565b60008060006060848603121562002ecd578283fd5b8335925062002c006020850162002b64565b6000815180845262002ef981602086016020860162003148565b601f01601f19169290920160200192915050565b6000825162002f2181846020870162003148565b9190910192915050565b6001600160a01b0391909116815260200190565b6001600160a01b03929092168252602082015260400190565b6001600160a01b0393909316835260208301919091521515604082015260600190565b600060208252620029d6602083018462002edf565b6020808252601290820152712737ba1030902837b7b61026b0b730b3b2b960711b604082015260600190565b60208082526011908201527008adad2e6e6d2dedc40e8dede40d0d2ced607b1b604082015260600190565b6020808252818101527f4f776e61626c653a2063616c6c6572206973206e6f7420746865206f776e6572604082015260600190565b6020808252601290820152711dda5d1a191c985dce881b9bdd0819dbdbd960721b604082015260600190565b6020808252602b908201527f496e697469616c697a61626c653a20636f6e7472616374206973206e6f74206960408201526a6e697469616c697a696e6760a81b606082015260800190565b8481526001600160a01b0384166020820152608060408201819052600090620030bf9083018562002edf565b905082606083015295945050505050565b60008219821115620030e657620030e662003195565b500190565b6000826200310757634e487b7160e01b81526012600452602481fd5b500490565b600081600019048311821515161562003129576200312962003195565b500290565b60008282101562003143576200314362003195565b500390565b60005b83811015620031655781810151838201526020016200314b565b83811115620016635750506000910152565b60006000198214156200318e576200318e62003195565b5060010190565b634e487b7160e01b600052601160045260246000fd5b634e487b7160e01b600052604160045260246000fd5b8015158114620014f057600080fdfe60c06040523480156200001157600080fd5b5060405162001e3738038062001e378339810160408190526200003491620001af565b6200003f3362000142565b6001600160601b0319606095861b8116608090815293861b1660a0526040805193840181526001600160a01b03948516808552600060208087018281528785018381529988018381528484526005835285842098518954908b166001600160a01b0319918216178a5591516001808b01919091559a516002808b019190915590516003909901989098558754808b019098557f405787fa12a823e0f2b7631cc41b3ba8828b3321ca811111fa75cd3aa3bb5ace9097018054909716831790965590815260088552818120805460ff19908116891790915593861681526009909452808420805484168717905593168252919020805490911690911790556200021e565b600080546001600160a01b038381166001600160a01b0319831681178455604051919092169283917f8be0079c531659141344cd1fd0a4f28419497f9722a3daafe3b4186f6b6457e09190a35050565b80516001600160a01b0381168114620001aa57600080fd5b919050565b600080600080600060a08688031215620001c7578081fd5b620001d28662000192565b9450620001e26020870162000192565b9350620001f26040870162000192565b9250620002026060870162000192565b9150620002126080870162000192565b90509295509295909350565b60805160601c60a05160601c611bca6200026d6000396000818161025e015281816105190152818161092d01526111640152600081816102f60152818161038701526112950152611bca6000f3fe608060405234801561001057600080fd5b506004361061016e5760003560e01c80637bb7bed1116100ce578063a980356a11610087578063a980356a146103ab578063b5fd73f8146103d6578063c00007b0146103f9578063c11f53441461040c578063f122977714610414578063f2fde38b14610427578063f3fc7c2b1461043a5761016e565b80637bb7bed1146103185780638a64e0c41461032b5780638da5cb5b1461034e5780638fcf48221461035f57806399da1729146103725780639f9106d1146103855761016e565b80632ee409081161012b5780632ee4090814610246578063570ca735146102595780635bc59ce7146102985780637035ab98146102ab57806370a08231146102d6578063715018a6146102e957806372f702f3146102f15761016e565b80630700037d146101735780630e0a5968146101e15780630e19c699146101f657806318160ddd1461021957806318838d331461022b578063211dc32d14610233575b600080fd5b6101b26101813660046117a4565b60056020526000908152604090208054600182015460028301546003909301546001600160a01b0390921692909184565b604080516001600160a01b03909516855260208501939093529183015260608201526080015b60405180910390f35b6101f46101ef3660046117a4565b61044d565b005b610209610204366004611819565b61050c565b60405190151581526020016101d8565b6003545b6040519081526020016101d8565b6102096106c5565b61021d6102413660046117be565b61086e565b6102096102543660046117f0565b610920565b6102807f000000000000000000000000000000000000000000000000000000000000000081565b6040516001600160a01b0390911681526020016101d8565b6102096102a636600461188c565b610abe565b61021d6102b93660046117be565b600660209081526000928352604080842090915290825290205481565b61021d6102e43660046117a4565b610bfc565b6101f4610c1b565b6102807f000000000000000000000000000000000000000000000000000000000000000081565b610280610326366004611874565b610c51565b6102096103393660046117a4565b60096020526000908152604090205460ff1681565b6000546001600160a01b0316610280565b61020961036d36600461188c565b610c7b565b61021d6103803660046117a4565b61101e565b7f0000000000000000000000000000000000000000000000000000000000000000610280565b61021d6103b93660046117be565b600760209081526000928352604080842090915290825290205481565b6102096103e43660046117a4565b60086020526000908152604090205460ff1681565b6102096104073660046117a4565b61109a565b61021d611291565b61021d6104223660046117a4565b61132c565b6101f46104353660046117a4565b61134a565b600154610280906001600160a01b031681565b60025460005b818110156105075760006002828154811061047e57634e487b7160e01b600052603260045260246000fd5b6000918252602090912001546001600160a01b0316905061049f848261086e565b6001600160a01b038083166000908152600760209081526040808320938916835292905220556104ce8161132c565b6001600160a01b0391821660009081526006602090815260408083209488168352939052919091205561050081611b28565b9050610453565b505050565b6000336001600160a01b037f0000000000000000000000000000000000000000000000000000000000000000161461055f5760405162461bcd60e51b815260040161055690611953565b60405180910390fd5b600254849060005b8181101561061b5760006002828154811061059257634e487b7160e01b600052603260045260246000fd5b6000918252602090912001546001600160a01b031690506105b3848261086e565b6001600160a01b038083166000908152600760209081526040808320938916835292905220556105e28161132c565b6001600160a01b0391821660009081526006602090815260408083209488168352939052919091205561061481611b28565b9050610567565b508460035461062a9190611ae5565b6003556001600160a01b038616600090815260046020526040902054610651908690611ae5565b6001600160a01b038716600081815260046020526040908190209290925590517f7084f5476618d8e60b11ef0d7d3f06914655adb8793e28ff7f018d4c76d505d5906106a09088815260200190565b60405180910390a283156106b9576106b78661109a565b505b50600195945050505050565b6002546000903390825b81811015610783576000600282815481106106fa57634e487b7160e01b600052603260045260246000fd5b6000918252602090912001546001600160a01b0316905061071b848261086e565b6001600160a01b0380831660009081526007602090815260408083209389168352929052205561074a8161132c565b6001600160a01b0391821660009081526006602090815260408083209488168352939052919091205561077c81611b28565b90506106cf565b5060025460005b81811015610863576000600282815481106107b557634e487b7160e01b600052603260045260246000fd5b60009182526020822001546001600160a01b031691506107d5338361086e565b90508015610850576001600160a01b038216600081815260076020908152604080832033808552925282209190915561080f9190836113e5565b6040518181526001600160a01b0383169033907f8e0d3fa908fd7ee819155b3ce71e292b601bbeb0cd00d7758b9d226a523cb8279060200160405180910390a35b50508061085c90611b28565b905061078a565b506001935050505090565b6001600160a01b03808216600090815260076020908152604080832093861683529290529081205461089e611291565b6108a990600a6119f8565b6001600160a01b038085166000908152600660209081526040808320938916835292905220546108d88561132c565b6108e29190611ae5565b6001600160a01b0386166000908152600460205260409020546109059190611ac6565b61090f9190611992565b610919919061197a565b9392505050565b6000336001600160a01b037f0000000000000000000000000000000000000000000000000000000000000000161461096a5760405162461bcd60e51b815260040161055690611953565b600254839060005b81811015610a265760006002828154811061099d57634e487b7160e01b600052603260045260246000fd5b6000918252602090912001546001600160a01b031690506109be848261086e565b6001600160a01b038083166000908152600760209081526040808320938916835292905220556109ed8161132c565b6001600160a01b03918216600090815260066020908152604080832094881683529390529190912055610a1f81611b28565b9050610972565b5083600354610a35919061197a565b6003556001600160a01b038516600090815260046020526040902054610a5c90859061197a565b6001600160a01b038616600081815260046020526040908190209290925590517f9e71bc8eea02a63969f509818f2dafb9254532904319f9dbda79b67bd34a5f3d90610aab9087815260200190565b60405180910390a2506001949350505050565b6001600160a01b03811660009081526008602052604081205460ff16610ae357600080fd5b610af86001600160a01b038316333086611448565b6001600160a01b03821660009081526005602052604090206003810154610b2090859061197a565b60038083019190915554610b4d5783816002016000828254610b42919061197a565b90915550610baf9050565b600281015415610b70576002810154610b66908561197a565b6000600283015593505b600354610b7b611291565b610b8690600a6119f8565b610b909086611ac6565b610b9a9190611992565b8160010154610ba9919061197a565b60018201555b826001600160a01b03167ffb5edb6eb340a01f6a67189edc978df97841c43752c212fc85995ea23001763585604051610bea91815260200190565b60405180910390a25060019392505050565b6001600160a01b0381166000908152600460205260409020545b919050565b6000546001600160a01b03163314610c455760405162461bcd60e51b81526004016105569061191e565b610c4f6000611486565b565b60028181548110610c6157600080fd5b6000918252602090912001546001600160a01b0316905081565b3360009081526009602052604081205460ff16610ccf5760405162461bcd60e51b81526020600482015260126024820152712737ba1030902837b7b61026b0b730b3b2b960711b6044820152606401610556565b610cf06040518060600160405280602d8152602001611b68602d91396114d6565b6001600160a01b03821660009081526008602052604090205460ff16610d9d57610d39604051806040016040528060088152602001673334b939ba1034b360c11b8152506114d6565b6002805460018082019092557f405787fa12a823e0f2b7631cc41b3ba8828b3321ca811111fa75cd3aa3bb5ace0180546001600160a01b0319166001600160a01b0385169081179091556000908152600860205260409020805460ff191690911790555b610dd5604051806040016040528060178152602001766265666f726520736166655472616e7366657246726f6d60481b8152506114d6565b610dea6001600160a01b038316333086611448565b610e2160405180604001604052806016815260200175616674657220736166655472616e7366657246726f6d60501b8152506114d6565b600060056000846001600160a01b03166001600160a01b031681526020019081526020016000209050610e8160405180604001604052806016815260200175616674657220736166655472616e7366657246726f6d60501b8152506114d6565b838160030154610e91919061197a565b60038083019190915554610ef057610ed16040518060400160405280601181526020017005f746f74616c537570706c79203d3d203607c1b8152506114d6565b83816002016000828254610ee5919061197a565b90915550610f7a9050565b610f1860405180604001604052806007815260200166696e20656c736560c81b8152506114d6565b600281015415610f3b576002810154610f31908561197a565b6000600283015593505b600354610f46611291565b610f5190600a6119f8565b610f5b9086611ac6565b610f659190611992565b8160010154610f74919061197a565b60018201555b610fa66040518060400160405280600b81526020016a1099599bdc9948195b5a5d60aa1b8152506114d6565b826001600160a01b03167ffb5edb6eb340a01f6a67189edc978df97841c43752c212fc85995ea23001763585604051610fe191815260200190565b60405180910390a26110146040518060400160405280600a81526020016910599d195c88195b5a5d60b21b8152506114d6565b5060019392505050565b6000816001600160a01b031663313ce5676040518163ffffffff1660e01b815260040160206040518083038186803b15801561105957600080fd5b505afa15801561106d573d6000803e3d6000fd5b505050506040513d601f19601f8201168201806040525081019061109191906118ae565b60ff1692915050565b6002546000908290825b81811015611158576000600282815481106110cf57634e487b7160e01b600052603260045260246000fd5b6000918252602090912001546001600160a01b031690506110f0848261086e565b6001600160a01b0380831660009081526007602090815260408083209389168352929052205561111f8161132c565b6001600160a01b0391821660009081526006602090815260408083209488168352939052919091205561115181611b28565b90506110a4565b50336001600160a01b037f000000000000000000000000000000000000000000000000000000000000000016146111a15760405162461bcd60e51b815260040161055690611953565b60025460005b818110156106b9576000600282815481106111d257634e487b7160e01b600052603260045260246000fd5b60009182526020822001546001600160a01b031691506111f2888361086e565b9050801561127e576001600160a01b038083166000818152600760209081526040808320948d168352939052918220919091556112309089836113e5565b816001600160a01b0316886001600160a01b03167f8e0d3fa908fd7ee819155b3ce71e292b601bbeb0cd00d7758b9d226a523cb8278360405161127591815260200190565b60405180910390a35b50508061128a90611b28565b90506111a7565b60007f00000000000000000000000000000000000000000000000000000000000000006001600160a01b031663313ce5676040518163ffffffff1660e01b815260040160206040518083038186803b1580156112ec57600080fd5b505afa158015611300573d6000803e3d6000fd5b505050506040513d601f19601f8201168201806040525081019061132491906118ae565b60ff16905090565b6001600160a01b031660009081526005602052604090206001015490565b6000546001600160a01b031633146113745760405162461bcd60e51b81526004016105569061191e565b6001600160a01b0381166113d95760405162461bcd60e51b815260206004820152602660248201527f4f776e61626c653a206e6577206f776e657220697320746865207a65726f206160448201526564647265737360d01b6064820152608401610556565b6113e281611486565b50565b6040516001600160a01b03831660248201526044810182905261050790849063a9059cbb60e01b906064015b60408051601f198184030181529190526020810180516001600160e01b03166001600160e01b031990931692909217909152611519565b6040516001600160a01b03808516602483015283166044820152606481018290526114809085906323b872dd60e01b90608401611411565b50505050565b600080546001600160a01b038381166001600160a01b0319831681178455604051919092169283917f8be0079c531659141344cd1fd0a4f28419497f9722a3daafe3b4186f6b6457e09190a35050565b6113e2816040516024016114ea91906118eb565b60408051601f198184030181529190526020810180516001600160e01b031663104c13eb60e21b1790526115eb565b600061156e826040518060400160405280602081526020017f5361666545524332303a206c6f772d6c6576656c2063616c6c206661696c6564815250856001600160a01b031661160c9092919063ffffffff16565b805190915015610507578080602001905181019061158c9190611858565b6105075760405162461bcd60e51b815260206004820152602a60248201527f5361666545524332303a204552433230206f7065726174696f6e20646964206e6044820152691bdd081cdd58d8d9595960b21b6064820152608401610556565b80516a636f6e736f6c652e6c6f67602083016000808483855afa5050505050565b606061161b8484600085611623565b949350505050565b6060824710156116845760405162461bcd60e51b815260206004820152602660248201527f416464726573733a20696e73756666696369656e742062616c616e636520666f6044820152651c8818d85b1b60d21b6064820152608401610556565b6001600160a01b0385163b6116db5760405162461bcd60e51b815260206004820152601d60248201527f416464726573733a2063616c6c20746f206e6f6e2d636f6e74726163740000006044820152606401610556565b600080866001600160a01b031685876040516116f791906118cf565b60006040518083038185875af1925050503d8060008114611734576040519150601f19603f3d011682016040523d82523d6000602084013e611739565b606091505b5091509150611749828286611754565b979650505050505050565b60608315611763575081610919565b8251156117735782518084602001fd5b8160405162461bcd60e51b815260040161055691906118eb565b80356001600160a01b0381168114610c1657600080fd5b6000602082840312156117b5578081fd5b6109198261178d565b600080604083850312156117d0578081fd5b6117d98361178d565b91506117e76020840161178d565b90509250929050565b60008060408385031215611802578182fd5b61180b8361178d565b946020939093013593505050565b60008060006060848603121561182d578081fd5b6118368461178d565b925060208401359150604084013561184d81611b59565b809150509250925092565b600060208284031215611869578081fd5b815161091981611b59565b600060208284031215611885578081fd5b5035919050565b6000806040838503121561189e578182fd5b823591506117e76020840161178d565b6000602082840312156118bf578081fd5b815160ff81168114610919578182fd5b600082516118e1818460208701611afc565b9190910192915050565b600060208252825180602084015261190a816040850160208701611afc565b601f01601f19169190910160400192915050565b6020808252818101527f4f776e61626c653a2063616c6c6572206973206e6f7420746865206f776e6572604082015260600190565b6020808252600d908201526c27b7363c9027b832b930ba37b960991b604082015260600190565b6000821982111561198d5761198d611b43565b500190565b6000826119ad57634e487b7160e01b81526012600452602481fd5b500490565b80825b60018086116119c457506119ef565b8187048211156119d6576119d6611b43565b808616156119e357918102915b9490941c9380026119b5565b94509492505050565b60006109196000198484600082611a1157506001610919565b81611a1e57506000610919565b8160018114611a345760028114611a3e57611a6b565b6001915050610919565b60ff841115611a4f57611a4f611b43565b6001841b915084821115611a6557611a65611b43565b50610919565b5060208310610133831016604e8410600b8410161715611a9e575081810a83811115611a9957611a99611b43565b610919565b611aab84848460016119b2565b808604821115611abd57611abd611b43565b02949350505050565b6000816000190483118215151615611ae057611ae0611b43565b500290565b600082821015611af757611af7611b43565b500390565b60005b83811015611b17578181015183820152602001611aff565b838111156114805750506000910152565b6000600019821415611b3c57611b3c611b43565b5060010190565b634e487b7160e01b600052601160045260246000fd5b80151581146113e257600080fdfe090909093d3d3d3d20496e736964652071756575654e6577526577617264732066756e6374696f6e203d3d3d3da2646970667358221220336a6b2c37fce9a52e5ddb554b6977e461be93056de9eec2dadcf9da8e70393764736f6c63430008020033a0306f61d3fafe13787b78e276cb6b644382854a66cb46daae14227d3ec26797f24ef89f38eadc1bde50701ad6e4d6d11a2dc24f7cf834a486991f3883328504a264697066735822122071410f2aaa52ddce17f0bbf87400013f6d252989ee856c2a94ed7f7b40369a3764736f6c63430008020033",
  "linkReferences": {},
  "deployedLinkReferences": {}
}