{
  "_format": "hh-sol-artifact-1",
  "contractName": "ProxyAdmin",
  "sourceName": "contracts/MainProtocol/ProxyAdmin.sol",
  "abi": [
    {
      "anonymous": false,
      "inputs": [
        {
          "indexed": true,
          "internalType": "address",
          "name": "previousOwner",
          "type": "address"
        },
        {
          "indexed": true,
          "internalType": "address",
          "name": "newOwner",
          "type": "address"
        }
      ],
      "name": "OwnershipTransferred",
      "type": "event"
    },
    {
      "inputs": [
        {
          "internalType": "contract TransparentUpgradeableProxy",
          "name": "proxy",
          "type": "address"
        },
        {
          "internalType": "address",
          "name": "newAdmin",
          "type": "address"
        }
      ],
      "name": "changeProxyAdmin",
      "outputs": [],
      "stateMutability": "nonpayable",
      "type": "function"
    },
    {
      "inputs": [
        {
          "internalType": "contract TransparentUpgradeableProxy",
          "name": "proxy",
          "type": "address"
        }
      ],
      "name": "getProxyAdmin",
      "outputs": [
        {
          "internalType": "address",
          "name": "",
          "type": "address"
        }
      ],
      "stateMutability": "view",
      "type": "function"
    },
    {
      "inputs": [
        {
          "internalType": "contract TransparentUpgradeableProxy",
          "name": "proxy",
          "type": "address"
        }
      ],
      "name": "getProxyImplementation",
      "outputs": [
        {
          "internalType": "address",
          "name": "",
          "type": "address"
        }
      ],
      "stateMutability": "view",
      "type": "function"
    },
    {
      "inputs": [],
      "name": "owner",
      "outputs": [
        {
          "internalType": "address",
          "name": "",
          "type": "address"
        }
      ],
      "stateMutability": "view",
      "type": "function"
    },
    {
      "inputs": [],
      "name": "renounceOwnership",
      "outputs": [],
      "stateMutability": "nonpayable",
      "type": "function"
    },
    {
      "inputs": [
        {
          "internalType": "contract TransparentUpgradeableProxy",
          "name": "proxy",
          "type": "address"
        },
        {
          "internalType": "uint256",
          "name": "newTimelock",
          "type": "uint256"
        }
      ],
      "name": "submitTimelockUpgrade",
      "outputs": [],
      "stateMutability": "nonpayable",
      "type": "function"
    },
    {
      "inputs": [
        {
          "internalType": "contract TransparentUpgradeableProxy",
          "name": "proxy",
          "type": "address"
        },
        {
          "internalType": "address",
          "name": "newImplementation",
          "type": "address"
        }
      ],
      "name": "submitUpgrade",
      "outputs": [],
      "stateMutability": "nonpayable",
      "type": "function"
    },
    {
      "inputs": [
        {
          "internalType": "address",
          "name": "newOwner",
          "type": "address"
        }
      ],
      "name": "transferOwnership",
      "outputs": [],
      "stateMutability": "nonpayable",
      "type": "function"
    },
    {
      "inputs": [
        {
          "internalType": "contract TransparentUpgradeableProxy",
          "name": "proxy",
          "type": "address"
        }
      ],
      "name": "upgrade",
      "outputs": [],
      "stateMutability": "nonpayable",
      "type": "function"
    },
    {
      "inputs": [
        {
          "internalType": "contract TransparentUpgradeableProxy",
          "name": "proxy",
          "type": "address"
        },
        {
          "internalType": "bytes",
          "name": "data",
          "type": "bytes"
        }
      ],
      "name": "upgradeAndCall",
      "outputs": [],
      "stateMutability": "payable",
      "type": "function"
    },
    {
      "inputs": [
        {
          "internalType": "contract TransparentUpgradeableProxy",
          "name": "proxy",
          "type": "address"
        }
      ],
      "name": "upgradeTimelock",
      "outputs": [],
      "stateMutability": "nonpayable",
      "type": "function"
    }
  ],
  "bytecode": "0x608060405234801561001057600080fd5b5061001a3361001f565b61006f565b600080546001600160a01b038381166001600160a01b0319831681178455604051919092169283917f8be0079c531659141344cd1fd0a4f28419497f9722a3daafe3b4186f6b6457e09190a35050565b6109148061007e6000396000f3fe60806040526004361061009c5760003560e01c80637eff275e116100645780637eff275e1461014157806388eb08f2146101615780638da5cb5b14610181578063a950288314610196578063f2fde38b146101b6578063f3b7dead146101d65761009c565b80630900f010146100a15780631450874b146100c3578063204e1c7a146100e35780632a6a833b14610119578063715018a61461012c575b600080fd5b3480156100ad57600080fd5b506100c16100bc3660046106b6565b6101f6565b005b3480156100cf57600080fd5b506100c16100de3660046107ec565b610284565b3480156100ef57600080fd5b506101036100fe3660046106b6565b610312565b6040516101109190610817565b60405180910390f35b6100c161012736600461072d565b6103a3565b34801561013857600080fd5b506100c1610436565b34801561014d57600080fd5b506100c161015c3660046106f5565b610471565b34801561016d57600080fd5b506100c161017c3660046106f5565b6104cc565b34801561018d57600080fd5b50610103610527565b3480156101a257600080fd5b506100c16101b13660046106b6565b610536565b3480156101c257600080fd5b506100c16101d13660046106b6565b6105a0565b3480156101e257600080fd5b506101036101f13660046106b6565b610640565b336101ff610527565b6001600160a01b03161461022e5760405162461bcd60e51b81526004016102259061087e565b60405180910390fd5b806001600160a01b03166316a27ecd6040518163ffffffff1660e01b8152600401600060405180830381600087803b15801561026957600080fd5b505af115801561027d573d6000803e3d6000fd5b5050505050565b3361028d610527565b6001600160a01b0316146102b35760405162461bcd60e51b81526004016102259061087e565b604051635234d78d60e11b8152600481018290526001600160a01b0383169063a469af1a906024015b600060405180830381600087803b1580156102f657600080fd5b505af115801561030a573d6000803e3d6000fd5b505050505050565b6000806000836001600160a01b031660405161033890635c60da1b60e01b815260040190565b600060405180830381855afa9150503d8060008114610373576040519150601f19603f3d011682016040523d82523d6000602084013e610378565b606091505b50915091508161038757600080fd5b8080602001905181019061039b91906106d9565b949350505050565b336103ac610527565b6001600160a01b0316146103d25760405162461bcd60e51b81526004016102259061087e565b604051634efa684760e11b81526001600160a01b03831690639df4d08e90349061040090859060040161082b565b6000604051808303818588803b15801561041957600080fd5b505af115801561042d573d6000803e3d6000fd5b50505050505050565b3361043f610527565b6001600160a01b0316146104655760405162461bcd60e51b81526004016102259061087e565b61046f6000610666565b565b3361047a610527565b6001600160a01b0316146104a05760405162461bcd60e51b81526004016102259061087e565b6040516308f2839760e41b81526001600160a01b03831690638f283970906102dc908490600401610817565b336104d5610527565b6001600160a01b0316146104fb5760405162461bcd60e51b81526004016102259061087e565b604051631a1c28fd60e11b81526001600160a01b0383169063343851fa906102dc908490600401610817565b6000546001600160a01b031690565b3361053f610527565b6001600160a01b0316146105655760405162461bcd60e51b81526004016102259061087e565b806001600160a01b0316633da239c76040518163ffffffff1660e01b8152600401600060405180830381600087803b15801561026957600080fd5b336105a9610527565b6001600160a01b0316146105cf5760405162461bcd60e51b81526004016102259061087e565b6001600160a01b0381166106345760405162461bcd60e51b815260206004820152602660248201527f4f776e61626c653a206e6577206f776e657220697320746865207a65726f206160448201526564647265737360d01b6064820152608401610225565b61063d81610666565b50565b6000806000836001600160a01b0316604051610338906303e1469160e61b815260040190565b600080546001600160a01b038381166001600160a01b0319831681178455604051919092169283917f8be0079c531659141344cd1fd0a4f28419497f9722a3daafe3b4186f6b6457e09190a35050565b6000602082840312156106c7578081fd5b81356106d2816108c9565b9392505050565b6000602082840312156106ea578081fd5b81516106d2816108c9565b60008060408385031215610707578081fd5b8235610712816108c9565b91506020830135610722816108c9565b809150509250929050565b6000806040838503121561073f578182fd5b823561074a816108c9565b9150602083013567ffffffffffffffff80821115610766578283fd5b818501915085601f830112610779578283fd5b81358181111561078b5761078b6108b3565b604051601f8201601f19908116603f011681019083821181831017156107b3576107b36108b3565b816040528281528860208487010111156107cb578586fd5b82602086016020830137856020848301015280955050505050509250929050565b600080604083850312156107fe578182fd5b8235610809816108c9565b946020939093013593505050565b6001600160a01b0391909116815260200190565b6000602080835283518082850152825b818110156108575785810183015185820160400152820161083b565b818111156108685783604083870101525b50601f01601f1916929092016040019392505050565b6020808252818101527f4f776e61626c653a2063616c6c6572206973206e6f7420746865206f776e6572604082015260600190565b634e487b7160e01b600052604160045260246000fd5b6001600160a01b038116811461063d57600080fdfea264697066735822122007b317284d5e02b0ca0c4edef9fa20c66ba424083acc0357bb518f840c16d2c064736f6c63430008020033",
  "linkReferences": {},
  "deployedLinkReferences": {}
}