{
  "_format": "hh-sol-artifact-1",
  "contractName": "ProxyAdmin",
  "sourceName": "contracts/MainProtocol/ProxyAdmin.sol",
  "abi": [
    {
      "anonymous": false,
      "inputs": [
        {
          "indexed": true,
          "internalType": "address",
          "name": "previousOwner",
          "type": "address"
        },
        {
          "indexed": true,
          "internalType": "address",
          "name": "newOwner",
          "type": "address"
        }
      ],
      "name": "OwnershipTransferred",
      "type": "event"
    },
    {
      "inputs": [
        {
          "internalType": "contract TransparentUpgradeableProxy",
          "name": "proxy",
          "type": "address"
        },
        {
          "internalType": "address",
          "name": "newAdmin",
          "type": "address"
        }
      ],
      "name": "changeProxyAdmin",
      "outputs": [],
      "stateMutability": "nonpayable",
      "type": "function"
    },
    {
      "inputs": [
        {
          "internalType": "contract TransparentUpgradeableProxy",
          "name": "proxy",
          "type": "address"
        }
      ],
      "name": "getProxyAdmin",
      "outputs": [
        {
          "internalType": "address",
          "name": "",
          "type": "address"
        }
      ],
      "stateMutability": "view",
      "type": "function"
    },
    {
      "inputs": [
        {
          "internalType": "contract TransparentUpgradeableProxy",
          "name": "proxy",
          "type": "address"
        }
      ],
      "name": "getProxyImplementation",
      "outputs": [
        {
          "internalType": "address",
          "name": "",
          "type": "address"
        }
      ],
      "stateMutability": "view",
      "type": "function"
    },
    {
      "inputs": [],
      "name": "owner",
      "outputs": [
        {
          "internalType": "address",
          "name": "",
          "type": "address"
        }
      ],
      "stateMutability": "view",
      "type": "function"
    },
    {
      "inputs": [],
      "name": "renounceOwnership",
      "outputs": [],
      "stateMutability": "nonpayable",
      "type": "function"
    },
    {
      "inputs": [
        {
          "internalType": "contract TransparentUpgradeableProxy",
          "name": "proxy",
          "type": "address"
        },
        {
          "internalType": "address",
          "name": "newImplementation",
          "type": "address"
        }
      ],
      "name": "submitUpgrade",
      "outputs": [],
      "stateMutability": "nonpayable",
      "type": "function"
    },
    {
      "inputs": [
        {
          "internalType": "address",
          "name": "newOwner",
          "type": "address"
        }
      ],
      "name": "transferOwnership",
      "outputs": [],
      "stateMutability": "nonpayable",
      "type": "function"
    },
    {
      "inputs": [
        {
          "internalType": "contract TransparentUpgradeableProxy",
          "name": "proxy",
          "type": "address"
        }
      ],
      "name": "upgrade",
      "outputs": [],
      "stateMutability": "nonpayable",
      "type": "function"
    },
    {
      "inputs": [
        {
          "internalType": "contract TransparentUpgradeableProxy",
          "name": "proxy",
          "type": "address"
        },
        {
          "internalType": "bytes",
          "name": "data",
          "type": "bytes"
        }
      ],
      "name": "upgradeAndCall",
      "outputs": [],
      "stateMutability": "payable",
      "type": "function"
    }
  ],
  "bytecode": "0x608060405234801561001057600080fd5b5061001a3361001f565b61006f565b600080546001600160a01b038381166001600160a01b0319831681178455604051919092169283917f8be0079c531659141344cd1fd0a4f28419497f9722a3daafe3b4186f6b6457e09190a35050565b61079f8061007e6000396000f3fe6080604052600436106100865760003560e01c80637eff275e116100595780637eff275e1461011157806388eb08f2146101315780638da5cb5b14610151578063f2fde38b1461016f578063f3b7dead1461018f57610086565b80630900f0101461008b578063204e1c7a146100ad5780632a6a833b146100e9578063715018a6146100fc575b600080fd5b34801561009757600080fd5b506100ab6100a6366004610580565b6101af565b005b3480156100b957600080fd5b506100cd6100c8366004610580565b610238565b6040516001600160a01b03909116815260200160405180910390f35b6100ab6100f73660046105f7565b6102c9565b34801561010857600080fd5b506100ab610357565b34801561011d57600080fd5b506100ab61012c3660046105bf565b61038d565b34801561013d57600080fd5b506100ab61014c3660046105bf565b610417565b34801561015d57600080fd5b506000546001600160a01b03166100cd565b34801561017b57600080fd5b506100ab61018a366004610580565b61046f565b34801561019b57600080fd5b506100cd6101aa366004610580565b61050a565b6000546001600160a01b031633146101e25760405162461bcd60e51b81526004016101d990610709565b60405180910390fd5b806001600160a01b03166316a27ecd6040518163ffffffff1660e01b8152600401600060405180830381600087803b15801561021d57600080fd5b505af1158015610231573d6000803e3d6000fd5b5050505050565b6000806000836001600160a01b031660405161025e90635c60da1b60e01b815260040190565b600060405180830381855afa9150503d8060008114610299576040519150601f19603f3d011682016040523d82523d6000602084013e61029e565b606091505b5091509150816102ad57600080fd5b808060200190518101906102c191906105a3565b949350505050565b6000546001600160a01b031633146102f35760405162461bcd60e51b81526004016101d990610709565b604051634efa684760e11b81526001600160a01b03831690639df4d08e9034906103219085906004016106b6565b6000604051808303818588803b15801561033a57600080fd5b505af115801561034e573d6000803e3d6000fd5b50505050505050565b6000546001600160a01b031633146103815760405162461bcd60e51b81526004016101d990610709565b61038b6000610530565b565b6000546001600160a01b031633146103b75760405162461bcd60e51b81526004016101d990610709565b6040516308f2839760e41b81526001600160a01b038281166004830152831690638f283970906024015b600060405180830381600087803b1580156103fb57600080fd5b505af115801561040f573d6000803e3d6000fd5b505050505050565b6000546001600160a01b031633146104415760405162461bcd60e51b81526004016101d990610709565b604051631a1c28fd60e11b81526001600160a01b03828116600483015283169063343851fa906024016103e1565b6000546001600160a01b031633146104995760405162461bcd60e51b81526004016101d990610709565b6001600160a01b0381166104fe5760405162461bcd60e51b815260206004820152602660248201527f4f776e61626c653a206e6577206f776e657220697320746865207a65726f206160448201526564647265737360d01b60648201526084016101d9565b61050781610530565b50565b6000806000836001600160a01b031660405161025e906303e1469160e61b815260040190565b600080546001600160a01b038381166001600160a01b0319831681178455604051919092169283917f8be0079c531659141344cd1fd0a4f28419497f9722a3daafe3b4186f6b6457e09190a35050565b600060208284031215610591578081fd5b813561059c81610754565b9392505050565b6000602082840312156105b4578081fd5b815161059c81610754565b600080604083850312156105d1578081fd5b82356105dc81610754565b915060208301356105ec81610754565b809150509250929050565b60008060408385031215610609578182fd5b823561061481610754565b9150602083013567ffffffffffffffff80821115610630578283fd5b818501915085601f830112610643578283fd5b8135818111156106555761065561073e565b604051601f8201601f19908116603f0116810190838211818310171561067d5761067d61073e565b81604052828152886020848701011115610695578586fd5b82602086016020830137856020848301015280955050505050509250929050565b6000602080835283518082850152825b818110156106e2578581018301518582016040015282016106c6565b818111156106f35783604083870101525b50601f01601f1916929092016040019392505050565b6020808252818101527f4f776e61626c653a2063616c6c6572206973206e6f7420746865206f776e6572604082015260600190565b634e487b7160e01b600052604160045260246000fd5b6001600160a01b038116811461050757600080fdfea2646970667358221220b38f6029c45c5370f672671d800d9ab617e7856a3f627c33e66d77958d79d06564736f6c63430008020033",
  "linkReferences": {},
  "deployedLinkReferences": {}
}