{
  "_format": "hh-sol-artifact-1",
  "contractName": "ProxyAdmin",
  "sourceName": "contracts/MainProtocol/ProxyAdmin.sol",
  "abi": [
    {
      "anonymous": false,
      "inputs": [
        {
          "indexed": true,
          "internalType": "address",
          "name": "previousOwner",
          "type": "address"
        },
        {
          "indexed": true,
          "internalType": "address",
          "name": "newOwner",
          "type": "address"
        }
      ],
      "name": "OwnershipTransferred",
      "type": "event"
    },
    {
      "inputs": [
        {
          "internalType": "contract TransparentUpgradeableProxy",
          "name": "proxy",
          "type": "address"
        },
        {
          "internalType": "address",
          "name": "newAdmin",
          "type": "address"
        }
      ],
      "name": "changeProxyAdmin",
      "outputs": [],
      "stateMutability": "nonpayable",
      "type": "function"
    },
    {
      "inputs": [
        {
          "internalType": "contract TransparentUpgradeableProxy",
          "name": "proxy",
          "type": "address"
        }
      ],
      "name": "getProxyAdmin",
      "outputs": [
        {
          "internalType": "address",
          "name": "",
          "type": "address"
        }
      ],
      "stateMutability": "view",
      "type": "function"
    },
    {
      "inputs": [
        {
          "internalType": "contract TransparentUpgradeableProxy",
          "name": "proxy",
          "type": "address"
        }
      ],
      "name": "getProxyImplementation",
      "outputs": [
        {
          "internalType": "address",
          "name": "",
          "type": "address"
        }
      ],
      "stateMutability": "view",
      "type": "function"
    },
    {
      "inputs": [],
      "name": "owner",
      "outputs": [
        {
          "internalType": "address",
          "name": "",
          "type": "address"
        }
      ],
      "stateMutability": "view",
      "type": "function"
    },
    {
      "inputs": [],
      "name": "renounceOwnership",
      "outputs": [],
      "stateMutability": "nonpayable",
      "type": "function"
    },
    {
      "inputs": [
        {
          "internalType": "contract TransparentUpgradeableProxy",
          "name": "proxy",
          "type": "address"
        },
        {
          "internalType": "uint256",
          "name": "newTimelock",
          "type": "uint256"
        }
      ],
      "name": "submitTimelockUpgrade",
      "outputs": [],
      "stateMutability": "nonpayable",
      "type": "function"
    },
    {
      "inputs": [
        {
          "internalType": "contract TransparentUpgradeableProxy",
          "name": "proxy",
          "type": "address"
        },
        {
          "internalType": "address",
          "name": "newImplementation",
          "type": "address"
        }
      ],
      "name": "submitUpgrade",
      "outputs": [],
      "stateMutability": "nonpayable",
      "type": "function"
    },
    {
      "inputs": [
        {
          "internalType": "address",
          "name": "newOwner",
          "type": "address"
        }
      ],
      "name": "transferOwnership",
      "outputs": [],
      "stateMutability": "nonpayable",
      "type": "function"
    },
    {
      "inputs": [
        {
          "internalType": "contract TransparentUpgradeableProxy",
          "name": "proxy",
          "type": "address"
        }
      ],
      "name": "upgrade",
      "outputs": [],
      "stateMutability": "nonpayable",
      "type": "function"
    },
    {
      "inputs": [
        {
          "internalType": "contract TransparentUpgradeableProxy",
          "name": "proxy",
          "type": "address"
        },
        {
          "internalType": "bytes",
          "name": "data",
          "type": "bytes"
        }
      ],
      "name": "upgradeAndCall",
      "outputs": [],
      "stateMutability": "payable",
      "type": "function"
    },
    {
      "inputs": [
        {
          "internalType": "contract TransparentUpgradeableProxy",
          "name": "proxy",
          "type": "address"
        }
      ],
      "name": "upgradeTimelock",
      "outputs": [],
      "stateMutability": "nonpayable",
      "type": "function"
    }
  ],
  "bytecode": "0x608060405234801561001057600080fd5b5061001a3361001f565b61006f565b600080546001600160a01b038381166001600160a01b0319831681178455604051919092169283917f8be0079c531659141344cd1fd0a4f28419497f9722a3daafe3b4186f6b6457e09190a35050565b6108dc8061007e6000396000f3fe60806040526004361061009c5760003560e01c80637eff275e116100645780637eff275e1461014757806388eb08f2146101675780638da5cb5b14610187578063a9502883146101a5578063f2fde38b146101c5578063f3b7dead146101e55761009c565b80630900f010146100a15780631450874b146100c3578063204e1c7a146100e35780632a6a833b1461011f578063715018a614610132575b600080fd5b3480156100ad57600080fd5b506100c16100bc366004610692565b610205565b005b3480156100cf57600080fd5b506100c16100de3660046107c8565b61028e565b3480156100ef57600080fd5b506101036100fe366004610692565b610317565b6040516001600160a01b03909116815260200160405180910390f35b6100c161012d366004610709565b6103a8565b34801561013e57600080fd5b506100c1610436565b34801561015357600080fd5b506100c16101623660046106d1565b61046c565b34801561017357600080fd5b506100c16101823660046106d1565b6104c4565b34801561019357600080fd5b506000546001600160a01b0316610103565b3480156101b157600080fd5b506100c16101c0366004610692565b61051c565b3480156101d157600080fd5b506100c16101e0366004610692565b610581565b3480156101f157600080fd5b50610103610200366004610692565b61061c565b6000546001600160a01b031633146102385760405162461bcd60e51b815260040161022f90610846565b60405180910390fd5b806001600160a01b03166316a27ecd6040518163ffffffff1660e01b8152600401600060405180830381600087803b15801561027357600080fd5b505af1158015610287573d6000803e3d6000fd5b5050505050565b6000546001600160a01b031633146102b85760405162461bcd60e51b815260040161022f90610846565b604051635234d78d60e11b8152600481018290526001600160a01b0383169063a469af1a906024015b600060405180830381600087803b1580156102fb57600080fd5b505af115801561030f573d6000803e3d6000fd5b505050505050565b6000806000836001600160a01b031660405161033d90635c60da1b60e01b815260040190565b600060405180830381855afa9150503d8060008114610378576040519150601f19603f3d011682016040523d82523d6000602084013e61037d565b606091505b50915091508161038c57600080fd5b808060200190518101906103a091906106b5565b949350505050565b6000546001600160a01b031633146103d25760405162461bcd60e51b815260040161022f90610846565b604051634efa684760e11b81526001600160a01b03831690639df4d08e9034906104009085906004016107f3565b6000604051808303818588803b15801561041957600080fd5b505af115801561042d573d6000803e3d6000fd5b50505050505050565b6000546001600160a01b031633146104605760405162461bcd60e51b815260040161022f90610846565b61046a6000610642565b565b6000546001600160a01b031633146104965760405162461bcd60e51b815260040161022f90610846565b6040516308f2839760e41b81526001600160a01b038281166004830152831690638f283970906024016102e1565b6000546001600160a01b031633146104ee5760405162461bcd60e51b815260040161022f90610846565b604051631a1c28fd60e11b81526001600160a01b03828116600483015283169063343851fa906024016102e1565b6000546001600160a01b031633146105465760405162461bcd60e51b815260040161022f90610846565b806001600160a01b0316633da239c76040518163ffffffff1660e01b8152600401600060405180830381600087803b15801561027357600080fd5b6000546001600160a01b031633146105ab5760405162461bcd60e51b815260040161022f90610846565b6001600160a01b0381166106105760405162461bcd60e51b815260206004820152602660248201527f4f776e61626c653a206e6577206f776e657220697320746865207a65726f206160448201526564647265737360d01b606482015260840161022f565b61061981610642565b50565b6000806000836001600160a01b031660405161033d906303e1469160e61b815260040190565b600080546001600160a01b038381166001600160a01b0319831681178455604051919092169283917f8be0079c531659141344cd1fd0a4f28419497f9722a3daafe3b4186f6b6457e09190a35050565b6000602082840312156106a3578081fd5b81356106ae81610891565b9392505050565b6000602082840312156106c6578081fd5b81516106ae81610891565b600080604083850312156106e3578081fd5b82356106ee81610891565b915060208301356106fe81610891565b809150509250929050565b6000806040838503121561071b578182fd5b823561072681610891565b9150602083013567ffffffffffffffff80821115610742578283fd5b818501915085601f830112610755578283fd5b8135818111156107675761076761087b565b604051601f8201601f19908116603f0116810190838211818310171561078f5761078f61087b565b816040528281528860208487010111156107a7578586fd5b82602086016020830137856020848301015280955050505050509250929050565b600080604083850312156107da578182fd5b82356107e581610891565b946020939093013593505050565b6000602080835283518082850152825b8181101561081f57858101830151858201604001528201610803565b818111156108305783604083870101525b50601f01601f1916929092016040019392505050565b6020808252818101527f4f776e61626c653a2063616c6c6572206973206e6f7420746865206f776e6572604082015260600190565b634e487b7160e01b600052604160045260246000fd5b6001600160a01b038116811461061957600080fdfea2646970667358221220c40fa708b52070a6bf4cdff9c22bec3377063a2fd31245d808cbacb2cc89c54964736f6c63430008020033",
  "linkReferences": {},
  "deployedLinkReferences": {}
}