{
  "_format": "hh-sol-artifact-1",
  "contractName": "Authorizable",
  "sourceName": "contracts/MainProtocol/Authorizable.sol",
  "abi": [
    {
      "anonymous": false,
      "inputs": [
        {
          "indexed": true,
          "internalType": "address",
          "name": "previousOwner",
          "type": "address"
        },
        {
          "indexed": true,
          "internalType": "address",
          "name": "newOwner",
          "type": "address"
        }
      ],
      "name": "OwnershipTransferred",
      "type": "event"
    },
    {
      "inputs": [
        {
          "internalType": "address",
          "name": "_newAuthorized",
          "type": "address"
        }
      ],
      "name": "addToAuthorized",
      "outputs": [],
      "stateMutability": "nonpayable",
      "type": "function"
    },
    {
      "inputs": [],
      "name": "owner",
      "outputs": [
        {
          "internalType": "address",
          "name": "",
          "type": "address"
        }
      ],
      "stateMutability": "view",
      "type": "function"
    },
    {
      "inputs": [
        {
          "internalType": "address",
          "name": "_oldAuthorized",
          "type": "address"
        }
      ],
      "name": "removeFromAuthorized",
      "outputs": [],
      "stateMutability": "nonpayable",
      "type": "function"
    },
    {
      "inputs": [],
      "name": "renounceOwnership",
      "outputs": [],
      "stateMutability": "nonpayable",
      "type": "function"
    },
    {
      "inputs": [
        {
          "internalType": "address",
          "name": "newOwner",
          "type": "address"
        }
      ],
      "name": "transferOwnership",
      "outputs": [],
      "stateMutability": "nonpayable",
      "type": "function"
    }
  ],
  "bytecode": "0x608060405234801561001057600080fd5b5061001a3361001f565b61006f565b600080546001600160a01b038381166001600160a01b0319831681178455604051919092169283917f8be0079c531659141344cd1fd0a4f28419497f9722a3daafe3b4186f6b6457e09190a35050565b61031d8061007e6000396000f3fe608060405234801561001057600080fd5b50600436106100575760003560e01c806329684abd1461005c578063715018a6146100715780638da5cb5b14610079578063c720a12914610098578063f2fde38b146100ab575b600080fd5b61006f61006a366004610284565b6100be565b005b61006f610112565b600054604080516001600160a01b039092168252519081900360200190f35b61006f6100a6366004610284565b610148565b61006f6100b9366004610284565b610199565b6000546001600160a01b031633146100f15760405162461bcd60e51b81526004016100e8906102b2565b60405180910390fd5b6001600160a01b03166000908152600160205260409020805460ff19169055565b6000546001600160a01b0316331461013c5760405162461bcd60e51b81526004016100e8906102b2565b6101466000610234565b565b6000546001600160a01b031633146101725760405162461bcd60e51b81526004016100e8906102b2565b6001600160a01b03166000908152600160208190526040909120805460ff19169091179055565b6000546001600160a01b031633146101c35760405162461bcd60e51b81526004016100e8906102b2565b6001600160a01b0381166102285760405162461bcd60e51b815260206004820152602660248201527f4f776e61626c653a206e6577206f776e657220697320746865207a65726f206160448201526564647265737360d01b60648201526084016100e8565b61023181610234565b50565b600080546001600160a01b038381166001600160a01b0319831681178455604051919092169283917f8be0079c531659141344cd1fd0a4f28419497f9722a3daafe3b4186f6b6457e09190a35050565b600060208284031215610295578081fd5b81356001600160a01b03811681146102ab578182fd5b9392505050565b6020808252818101527f4f776e61626c653a2063616c6c6572206973206e6f7420746865206f776e657260408201526060019056fea2646970667358221220c4dc8071adca2585e797da65200f973011815ab347076a2851b057f221b97c9964736f6c63430008020033",
  "linkReferences": {},
  "deployedLinkReferences": {}
}