{
  "_format": "hh-sol-artifact-1",
  "contractName": "Authorizable",
  "sourceName": "contracts/MainProtocol/Authorizable.sol",
  "abi": [
    {
      "anonymous": false,
      "inputs": [
        {
          "indexed": true,
          "internalType": "address",
          "name": "previousOwner",
          "type": "address"
        },
        {
          "indexed": true,
          "internalType": "address",
          "name": "newOwner",
          "type": "address"
        }
      ],
      "name": "OwnershipTransferred",
      "type": "event"
    },
    {
      "inputs": [
        {
          "internalType": "address",
          "name": "_newAuthorized",
          "type": "address"
        }
      ],
      "name": "addToAuthorized",
      "outputs": [],
      "stateMutability": "nonpayable",
      "type": "function"
    },
    {
      "inputs": [],
      "name": "owner",
      "outputs": [
        {
          "internalType": "address",
          "name": "",
          "type": "address"
        }
      ],
      "stateMutability": "view",
      "type": "function"
    },
    {
      "inputs": [
        {
          "internalType": "address",
          "name": "_oldAuthorized",
          "type": "address"
        }
      ],
      "name": "removeFromAuthorized",
      "outputs": [],
      "stateMutability": "nonpayable",
      "type": "function"
    },
    {
      "inputs": [],
      "name": "renounceOwnership",
      "outputs": [],
      "stateMutability": "nonpayable",
      "type": "function"
    },
    {
      "inputs": [
        {
          "internalType": "address",
          "name": "newOwner",
          "type": "address"
        }
      ],
      "name": "transferOwnership",
      "outputs": [],
      "stateMutability": "nonpayable",
      "type": "function"
    }
  ],
  "bytecode": "0x608060405234801561001057600080fd5b5061001a3361001f565b61006f565b600080546001600160a01b038381166001600160a01b0319831681178455604051919092169283917f8be0079c531659141344cd1fd0a4f28419497f9722a3daafe3b4186f6b6457e09190a35050565b6103458061007e6000396000f3fe608060405234801561001057600080fd5b50600436106100575760003560e01c806329684abd1461005c578063715018a6146100715780638da5cb5b14610079578063c720a1291461009d578063f2fde38b146100b0575b600080fd5b61006f61006a3660046102ac565b6100c3565b005b61006f61011c565b610081610157565b6040516001600160a01b03909116815260200160405180910390f35b61006f6100ab3660046102ac565b610166565b61006f6100be3660046102ac565b6101bc565b336100cc610157565b6001600160a01b0316146100fb5760405162461bcd60e51b81526004016100f2906102da565b60405180910390fd5b6001600160a01b03166000908152600160205260409020805460ff19169055565b33610125610157565b6001600160a01b03161461014b5760405162461bcd60e51b81526004016100f2906102da565b610155600061025c565b565b6000546001600160a01b031690565b3361016f610157565b6001600160a01b0316146101955760405162461bcd60e51b81526004016100f2906102da565b6001600160a01b03166000908152600160208190526040909120805460ff19169091179055565b336101c5610157565b6001600160a01b0316146101eb5760405162461bcd60e51b81526004016100f2906102da565b6001600160a01b0381166102505760405162461bcd60e51b815260206004820152602660248201527f4f776e61626c653a206e6577206f776e657220697320746865207a65726f206160448201526564647265737360d01b60648201526084016100f2565b6102598161025c565b50565b600080546001600160a01b038381166001600160a01b0319831681178455604051919092169283917f8be0079c531659141344cd1fd0a4f28419497f9722a3daafe3b4186f6b6457e09190a35050565b6000602082840312156102bd578081fd5b81356001600160a01b03811681146102d3578182fd5b9392505050565b6020808252818101527f4f776e61626c653a2063616c6c6572206973206e6f7420746865206f776e657260408201526060019056fea264697066735822122026cd938c44ca05c8a3d792de39fce8cdc11018017f1ba2b78b1fe48088b07bd064736f6c63430008020033",
  "linkReferences": {},
  "deployedLinkReferences": {}
}