{
  "_format": "hh-sol-artifact-1",
  "contractName": "YetiBooster",
  "sourceName": "contracts/MainProtocol/YetiBooster.sol",
  "abi": [
    {
      "anonymous": false,
      "inputs": [
        {
          "indexed": false,
          "internalType": "address",
          "name": "to",
          "type": "address"
        },
        {
          "indexed": false,
          "internalType": "uint256",
          "name": "value",
          "type": "uint256"
        },
        {
          "indexed": false,
          "internalType": "bool",
          "name": "isYETI",
          "type": "bool"
        },
        {
          "indexed": false,
          "internalType": "bool",
          "name": "isAddress",
          "type": "bool"
        }
      ],
      "name": "AddFee",
      "type": "event"
    },
    {
      "anonymous": false,
      "inputs": [
        {
          "indexed": true,
          "internalType": "address",
          "name": "user",
          "type": "address"
        },
        {
          "indexed": true,
          "internalType": "address",
          "name": "token",
          "type": "address"
        },
        {
          "indexed": false,
          "internalType": "uint256",
          "name": "amount",
          "type": "uint256"
        }
      ],
      "name": "NewDeposit",
      "type": "event"
    },
    {
      "anonymous": false,
      "inputs": [
        {
          "indexed": true,
          "internalType": "address",
          "name": "user",
          "type": "address"
        },
        {
          "indexed": true,
          "internalType": "address",
          "name": "token",
          "type": "address"
        },
        {
          "indexed": false,
          "internalType": "uint256",
          "name": "amount",
          "type": "uint256"
        }
      ],
      "name": "NewWithdraw",
      "type": "event"
    },
    {
      "anonymous": false,
      "inputs": [
        {
          "indexed": false,
          "internalType": "uint256",
          "name": "amount",
          "type": "uint256"
        }
      ],
      "name": "NewYetiStaked",
      "type": "event"
    },
    {
      "anonymous": false,
      "inputs": [
        {
          "indexed": true,
          "internalType": "address",
          "name": "previousOwner",
          "type": "address"
        },
        {
          "indexed": true,
          "internalType": "address",
          "name": "newOwner",
          "type": "address"
        }
      ],
      "name": "OwnershipTransferred",
      "type": "event"
    },
    {
      "anonymous": false,
      "inputs": [
        {
          "indexed": false,
          "internalType": "address",
          "name": "tokenAddress",
          "type": "address"
        }
      ],
      "name": "PoolAdded",
      "type": "event"
    },
    {
      "anonymous": false,
      "inputs": [
        {
          "indexed": false,
          "internalType": "address",
          "name": "to",
          "type": "address"
        }
      ],
      "name": "RemoveFee",
      "type": "event"
    },
    {
      "anonymous": false,
      "inputs": [
        {
          "indexed": false,
          "internalType": "address",
          "name": "to",
          "type": "address"
        },
        {
          "indexed": false,
          "internalType": "address",
          "name": "rewardToken",
          "type": "address"
        },
        {
          "indexed": false,
          "internalType": "uint256",
          "name": "feeAmount",
          "type": "uint256"
        }
      ],
      "name": "RewardPaidTo",
      "type": "event"
    },
    {
      "anonymous": false,
      "inputs": [
        {
          "indexed": false,
          "internalType": "address",
          "name": "to",
          "type": "address"
        },
        {
          "indexed": false,
          "internalType": "uint256",
          "name": "value",
          "type": "uint256"
        }
      ],
      "name": "SetFee",
      "type": "event"
    },
    {
      "anonymous": false,
      "inputs": [
        {
          "indexed": false,
          "internalType": "uint256",
          "name": "amount",
          "type": "uint256"
        },
        {
          "indexed": false,
          "internalType": "uint256",
          "name": "callerFee",
          "type": "uint256"
        }
      ],
      "name": "YetiHarvested",
      "type": "event"
    },
    {
      "inputs": [],
      "name": "CALLER_FEE",
      "outputs": [
        {
          "internalType": "uint256",
          "name": "",
          "type": "uint256"
        }
      ],
      "stateMutability": "view",
      "type": "function"
    },
    {
      "inputs": [],
      "name": "DECIMAL_PRECISION",
      "outputs": [
        {
          "internalType": "uint256",
          "name": "",
          "type": "uint256"
        }
      ],
      "stateMutability": "view",
      "type": "function"
    },
    {
      "inputs": [],
      "name": "MAX_CALLER_FEE",
      "outputs": [
        {
          "internalType": "uint256",
          "name": "",
          "type": "uint256"
        }
      ],
      "stateMutability": "view",
      "type": "function"
    },
    {
      "inputs": [],
      "name": "MAX_FEE",
      "outputs": [
        {
          "internalType": "uint256",
          "name": "",
          "type": "uint256"
        }
      ],
      "stateMutability": "view",
      "type": "function"
    },
    {
      "inputs": [],
      "name": "SCALE_FACTOR",
      "outputs": [
        {
          "internalType": "uint256",
          "name": "",
          "type": "uint256"
        }
      ],
      "stateMutability": "view",
      "type": "function"
    },
    {
      "inputs": [
        {
          "internalType": "address",
          "name": "_yeti",
          "type": "address"
        },
        {
          "internalType": "address",
          "name": "_staking_veyeti",
          "type": "address"
        },
        {
          "internalType": "address",
          "name": "_masterChef",
          "type": "address"
        },
        {
          "internalType": "address",
          "name": "_controllerAddress",
          "type": "address"
        },
        {
          "internalType": "address",
          "name": "_stabilitypool",
          "type": "address"
        },
        {
          "internalType": "address",
          "name": "_yusd",
          "type": "address"
        },
        {
          "internalType": "address",
          "name": "_rewarderVeYeti",
          "type": "address"
        }
      ],
      "name": "__YetiBooster_init",
      "outputs": [],
      "stateMutability": "nonpayable",
      "type": "function"
    },
    {
      "inputs": [
        {
          "internalType": "uint256",
          "name": "max",
          "type": "uint256"
        },
        {
          "internalType": "uint256",
          "name": "min",
          "type": "uint256"
        },
        {
          "internalType": "uint256",
          "name": "value",
          "type": "uint256"
        },
        {
          "internalType": "address",
          "name": "to",
          "type": "address"
        },
        {
          "internalType": "bool",
          "name": "isYETI",
          "type": "bool"
        },
        {
          "internalType": "bool",
          "name": "isAddress",
          "type": "bool"
        },
        {
          "internalType": "bool",
          "name": "isVeYETI",
          "type": "bool"
        }
      ],
      "name": "addFee",
      "outputs": [],
      "stateMutability": "nonpayable",
      "type": "function"
    },
    {
      "inputs": [],
      "name": "controller",
      "outputs": [
        {
          "internalType": "address",
          "name": "",
          "type": "address"
        }
      ],
      "stateMutability": "view",
      "type": "function"
    },
    {
      "inputs": [
        {
          "internalType": "address",
          "name": "lptoken",
          "type": "address"
        },
        {
          "internalType": "uint256",
          "name": "amount",
          "type": "uint256"
        },
        {
          "internalType": "address",
          "name": "sender",
          "type": "address"
        }
      ],
      "name": "deposit",
      "outputs": [],
      "stateMutability": "nonpayable",
      "type": "function"
    },
    {
      "inputs": [
        {
          "internalType": "address",
          "name": "",
          "type": "address"
        }
      ],
      "name": "depositSnapshots",
      "outputs": [
        {
          "internalType": "uint256",
          "name": "P",
          "type": "uint256"
        },
        {
          "internalType": "uint256",
          "name": "G",
          "type": "uint256"
        },
        {
          "internalType": "uint128",
          "name": "scale",
          "type": "uint128"
        },
        {
          "internalType": "uint128",
          "name": "epoch",
          "type": "uint128"
        }
      ],
      "stateMutability": "view",
      "type": "function"
    },
    {
      "inputs": [
        {
          "internalType": "address",
          "name": "",
          "type": "address"
        }
      ],
      "name": "deposits",
      "outputs": [
        {
          "internalType": "uint256",
          "name": "",
          "type": "uint256"
        }
      ],
      "stateMutability": "view",
      "type": "function"
    },
    {
      "inputs": [
        {
          "internalType": "uint256",
          "name": "",
          "type": "uint256"
        }
      ],
      "name": "feeInfos",
      "outputs": [
        {
          "internalType": "uint256",
          "name": "max_value",
          "type": "uint256"
        },
        {
          "internalType": "uint256",
          "name": "min_value",
          "type": "uint256"
        },
        {
          "internalType": "uint256",
          "name": "value",
          "type": "uint256"
        },
        {
          "internalType": "address",
          "name": "to",
          "type": "address"
        },
        {
          "internalType": "bool",
          "name": "isYETI",
          "type": "bool"
        },
        {
          "internalType": "bool",
          "name": "isAddress",
          "type": "bool"
        },
        {
          "internalType": "bool",
          "name": "isActive",
          "type": "bool"
        }
      ],
      "stateMutability": "view",
      "type": "function"
    },
    {
      "inputs": [
        {
          "internalType": "address",
          "name": "_depositor",
          "type": "address"
        }
      ],
      "name": "getCompoundedYUSDDeposit",
      "outputs": [
        {
          "internalType": "uint256",
          "name": "",
          "type": "uint256"
        }
      ],
      "stateMutability": "view",
      "type": "function"
    },
    {
      "inputs": [
        {
          "internalType": "uint256",
          "name": "amount",
          "type": "uint256"
        },
        {
          "internalType": "address",
          "name": "token",
          "type": "address"
        }
      ],
      "name": "getDepositTokensForShares",
      "outputs": [
        {
          "internalType": "uint256",
          "name": "",
          "type": "uint256"
        }
      ],
      "stateMutability": "view",
      "type": "function"
    },
    {
      "inputs": [
        {
          "internalType": "address",
          "name": "_depositor",
          "type": "address"
        }
      ],
      "name": "getDepositorGains",
      "outputs": [
        {
          "internalType": "address[]",
          "name": "",
          "type": "address[]"
        },
        {
          "internalType": "uint256[]",
          "name": "",
          "type": "uint256[]"
        }
      ],
      "stateMutability": "view",
      "type": "function"
    },
    {
      "inputs": [
        {
          "internalType": "address",
          "name": "_depositor",
          "type": "address"
        }
      ],
      "name": "getDepositorYETIGain",
      "outputs": [
        {
          "internalType": "uint256",
          "name": "",
          "type": "uint256"
        }
      ],
      "stateMutability": "view",
      "type": "function"
    },
    {
      "inputs": [
        {
          "internalType": "uint256",
          "name": "amount",
          "type": "uint256"
        },
        {
          "internalType": "address",
          "name": "token",
          "type": "address"
        }
      ],
      "name": "getLPTokensForShares",
      "outputs": [
        {
          "internalType": "uint256",
          "name": "",
          "type": "uint256"
        }
      ],
      "stateMutability": "view",
      "type": "function"
    },
    {
      "inputs": [
        {
          "internalType": "address",
          "name": "_address",
          "type": "address"
        }
      ],
      "name": "getPoolInfo",
      "outputs": [
        {
          "internalType": "bool",
          "name": "isActive",
          "type": "bool"
        },
        {
          "internalType": "address",
          "name": "lp",
          "type": "address"
        },
        {
          "internalType": "uint256",
          "name": "sizeLp",
          "type": "uint256"
        },
        {
          "internalType": "address",
          "name": "receipt",
          "type": "address"
        },
        {
          "internalType": "address",
          "name": "rewards_addr",
          "type": "address"
        },
        {
          "internalType": "bool",
          "name": "_stabilitypool",
          "type": "bool"
        },
        {
          "internalType": "address",
          "name": "addressPool",
          "type": "address"
        }
      ],
      "stateMutability": "view",
      "type": "function"
    },
    {
      "inputs": [
        {
          "internalType": "uint256",
          "name": "amount",
          "type": "uint256"
        },
        {
          "internalType": "address",
          "name": "token",
          "type": "address"
        }
      ],
      "name": "getSharesForDepositTokens",
      "outputs": [
        {
          "internalType": "uint256",
          "name": "",
          "type": "uint256"
        }
      ],
      "stateMutability": "view",
      "type": "function"
    },
    {
      "inputs": [],
      "name": "getStakedYeti",
      "outputs": [
        {
          "internalType": "uint256",
          "name": "",
          "type": "uint256"
        }
      ],
      "stateMutability": "view",
      "type": "function"
    },
    {
      "inputs": [],
      "name": "getVeYETI",
      "outputs": [
        {
          "internalType": "uint256",
          "name": "",
          "type": "uint256"
        }
      ],
      "stateMutability": "view",
      "type": "function"
    },
    {
      "inputs": [
        {
          "internalType": "address",
          "name": "lptoken",
          "type": "address"
        }
      ],
      "name": "harvest",
      "outputs": [],
      "stateMutability": "nonpayable",
      "type": "function"
    },
    {
      "inputs": [],
      "name": "masterChef",
      "outputs": [
        {
          "internalType": "address",
          "name": "",
          "type": "address"
        }
      ],
      "stateMutability": "view",
      "type": "function"
    },
    {
      "inputs": [],
      "name": "owner",
      "outputs": [
        {
          "internalType": "address",
          "name": "",
          "type": "address"
        }
      ],
      "stateMutability": "view",
      "type": "function"
    },
    {
      "inputs": [
        {
          "internalType": "address",
          "name": "",
          "type": "address"
        }
      ],
      "name": "pools",
      "outputs": [
        {
          "internalType": "bool",
          "name": "isActive",
          "type": "bool"
        },
        {
          "internalType": "address",
          "name": "lpAddress",
          "type": "address"
        },
        {
          "internalType": "uint256",
          "name": "sizeLp",
          "type": "uint256"
        },
        {
          "internalType": "address",
          "name": "receiptToken",
          "type": "address"
        },
        {
          "internalType": "address",
          "name": "rewarder",
          "type": "address"
        },
        {
          "internalType": "bool",
          "name": "stabilitypool",
          "type": "bool"
        },
        {
          "internalType": "address",
          "name": "addressPool",
          "type": "address"
        }
      ],
      "stateMutability": "view",
      "type": "function"
    },
    {
      "inputs": [
        {
          "internalType": "address",
          "name": "_lpAddress",
          "type": "address"
        },
        {
          "internalType": "string",
          "name": "receiptName",
          "type": "string"
        },
        {
          "internalType": "string",
          "name": "receiptSymbol",
          "type": "string"
        },
        {
          "internalType": "uint256",
          "name": "allocPoints",
          "type": "uint256"
        },
        {
          "internalType": "bool",
          "name": "_stabilitypool",
          "type": "bool"
        },
        {
          "internalType": "address",
          "name": "_addressPool",
          "type": "address"
        }
      ],
      "name": "registerPool",
      "outputs": [],
      "stateMutability": "nonpayable",
      "type": "function"
    },
    {
      "inputs": [
        {
          "internalType": "uint256",
          "name": "index",
          "type": "uint256"
        }
      ],
      "name": "removeFee",
      "outputs": [],
      "stateMutability": "nonpayable",
      "type": "function"
    },
    {
      "inputs": [
        {
          "internalType": "address",
          "name": "token",
          "type": "address"
        }
      ],
      "name": "removePool",
      "outputs": [],
      "stateMutability": "nonpayable",
      "type": "function"
    },
    {
      "inputs": [],
      "name": "renounceOwnership",
      "outputs": [],
      "stateMutability": "nonpayable",
      "type": "function"
    },
    {
      "inputs": [],
      "name": "rewarderVeYeti",
      "outputs": [
        {
          "internalType": "address",
          "name": "",
          "type": "address"
        }
      ],
      "stateMutability": "view",
      "type": "function"
    },
    {
      "inputs": [],
      "name": "rgnYETI",
      "outputs": [
        {
          "internalType": "address",
          "name": "",
          "type": "address"
        }
      ],
      "stateMutability": "view",
      "type": "function"
    },
    {
      "inputs": [
        {
          "internalType": "address",
          "name": "_token",
          "type": "address"
        },
        {
          "internalType": "address",
          "name": "_rewarder",
          "type": "address"
        }
      ],
      "name": "sendTokenRewards",
      "outputs": [],
      "stateMutability": "nonpayable",
      "type": "function"
    },
    {
      "inputs": [
        {
          "internalType": "uint256",
          "name": "value",
          "type": "uint256"
        }
      ],
      "name": "setCallerFee",
      "outputs": [],
      "stateMutability": "nonpayable",
      "type": "function"
    },
    {
      "inputs": [
        {
          "internalType": "uint256",
          "name": "index",
          "type": "uint256"
        },
        {
          "internalType": "uint256",
          "name": "value",
          "type": "uint256"
        }
      ],
      "name": "setFee",
      "outputs": [],
      "stateMutability": "nonpayable",
      "type": "function"
    },
    {
      "inputs": [
        {
          "internalType": "address",
          "name": "_masterchef",
          "type": "address"
        }
      ],
      "name": "setMasterChef",
      "outputs": [],
      "stateMutability": "nonpayable",
      "type": "function"
    },
    {
      "inputs": [
        {
          "internalType": "address",
          "name": "_RGNYETI",
          "type": "address"
        }
      ],
      "name": "setRGNYETI",
      "outputs": [],
      "stateMutability": "nonpayable",
      "type": "function"
    },
    {
      "inputs": [
        {
          "internalType": "address",
          "name": "_setstakingveyeti",
          "type": "address"
        }
      ],
      "name": "setstakingveyeti",
      "outputs": [],
      "stateMutability": "nonpayable",
      "type": "function"
    },
    {
      "inputs": [],
      "name": "stabilitypool",
      "outputs": [
        {
          "internalType": "address",
          "name": "",
          "type": "address"
        }
      ],
      "stateMutability": "view",
      "type": "function"
    },
    {
      "inputs": [],
      "name": "stakeLpCurve",
      "outputs": [
        {
          "internalType": "address",
          "name": "",
          "type": "address"
        }
      ],
      "stateMutability": "view",
      "type": "function"
    },
    {
      "inputs": [
        {
          "components": [
            {
              "internalType": "address",
              "name": "rewarder",
              "type": "address"
            },
            {
              "internalType": "uint256",
              "name": "amount",
              "type": "uint256"
            },
            {
              "internalType": "bool",
              "name": "isIncrease",
              "type": "bool"
            }
          ],
          "internalType": "struct IveYETI.RewarderUpdate[]",
          "name": "_yetiAdjustments",
          "type": "tuple[]"
        }
      ],
      "name": "stakeYETI",
      "outputs": [],
      "stateMutability": "nonpayable",
      "type": "function"
    },
    {
      "inputs": [],
      "name": "staking_veyeti",
      "outputs": [
        {
          "internalType": "address",
          "name": "",
          "type": "address"
        }
      ],
      "stateMutability": "view",
      "type": "function"
    },
    {
      "inputs": [],
      "name": "totalFee",
      "outputs": [
        {
          "internalType": "uint256",
          "name": "",
          "type": "uint256"
        }
      ],
      "stateMutability": "view",
      "type": "function"
    },
    {
      "inputs": [
        {
          "internalType": "address",
          "name": "newOwner",
          "type": "address"
        }
      ],
      "name": "transferOwnership",
      "outputs": [],
      "stateMutability": "nonpayable",
      "type": "function"
    },
    {
      "inputs": [],
      "name": "veYETIFee",
      "outputs": [
        {
          "internalType": "address",
          "name": "",
          "type": "address"
        }
      ],
      "stateMutability": "view",
      "type": "function"
    },
    {
      "inputs": [
        {
          "internalType": "address",
          "name": "lptoken",
          "type": "address"
        },
        {
          "internalType": "uint256",
          "name": "amount",
          "type": "uint256"
        },
        {
          "internalType": "address",
          "name": "sender",
          "type": "address"
        }
      ],
      "name": "withdraw",
      "outputs": [],
      "stateMutability": "nonpayable",
      "type": "function"
    },
    {
      "inputs": [],
      "name": "yeti",
      "outputs": [
        {
          "internalType": "address",
          "name": "",
          "type": "address"
        }
      ],
      "stateMutability": "view",
      "type": "function"
    },
    {
      "inputs": [],
      "name": "yusd",
      "outputs": [
        {
          "internalType": "address",
          "name": "",
          "type": "address"
        }
      ],
      "stateMutability": "view",
      "type": "function"
    }
  ],
  "bytecode": "0x608060405234801561001057600080fd5b5061500e806100206000396000f3fe608060405234801561001057600080fd5b50600436106102955760003560e01c8063792b50e311610167578063ce4b5bbe116100ce578063f45346dc11610087578063f45346dc1461070e578063f6a2332014610721578063f7094b0b1461072a578063f77c47911461073d578063fc7e286d14610750578063fe1719921461077057610295565b8063ce4b5bbe146106c2578063dc68129f146106cd578063e67cc22b146106e0578063f080608814610491578063f0a9e100146106f3578063f2fde38b146106fb57610295565b806399cec5481161012057806399cec5481461061a578063a20baee61461062d578063a2d9f4dc1461063c578063a4063dbc1461064f578063a4469625146106b1578063bc063e1a146106b957610295565b8063792b50e31461053a57806380c5dc041461055b57806386da08241461056e5780638da5cb5b146105e357806397348090146105f457806397ead2761461060757610295565b806336d313121161020b57806353aa7dcd116101c457806353aa7dcd146104dd578063575a86b2146104f057806364a4f078146105035780636857d3a71461050c57806369328dec1461051f578063715018a61461053257610295565b806336d313121461046b578063394ab7e51461047e57806339d4d8b1146104915780633b7d0946146104a4578063499a2818146104b757806352f7c988146104ca57610295565b8063151f7cd61161025d578063151f7cd6146103b25780631df4ccfc146103c55780631fded071146103dc5780632c7b09cb146103ef578063300a87c714610445578063343e613a1461045857610295565b806302b9c8081461029a57806306bfa938146102ca5780630b907198146103775780630bda19f61461038a5780630e5c011e1461039f575b600080fd5b606b546102ad906001600160a01b031681565b6040516001600160a01b0390911681526020015b60405180910390f35b6103346102d836600461473a565b6001600160a01b039081166000908152607260205260409020805460018201546002830154600384015460049094015460ff8085169761010090950487169693959284169483851694600160a01b909404909116929190911690565b6040805197151588526001600160a01b039687166020890152870194909452918416606086015283166080850152151560a08401521660c082015260e0016102c1565b606a546102ad906001600160a01b031681565b61039d6103983660046149c1565b610783565b005b61039d6103ad36600461473a565b610a98565b6068546102ad906001600160a01b031681565b6103ce60715481565b6040519081526020016102c1565b61039d6103ea36600461483f565b610e9b565b6104026103fd366004614ad7565b611298565b604080519788526020880196909652948601939093526001600160a01b03909116606085015215156080840152151560a0830152151560c082015260e0016102c1565b6103ce61045336600461473a565b6112fc565b6066546102ad906001600160a01b031681565b61039d6104793660046147aa565b611352565b6067546102ad906001600160a01b031681565b6103ce61049f366004614b07565b611491565b61039d6104b236600461473a565b611567565b61039d6104c5366004614ad7565b6115b2565b61039d6104d8366004614b2b565b61167c565b61039d6104eb366004614ad7565b611853565b6069546102ad906001600160a01b031681565b6103ce60705481565b61039d61051a366004614b4c565b611928565b61039d61052d3660046148e2565b611bde565b61039d6121b8565b61054d61054836600461473a565b6121ee565b6040516102c1929190614c64565b6065546102ad906001600160a01b031681565b6105b461057c36600461473a565b6074602052600090815260409020600181015460028201546003909201549091906001600160801b0380821691600160801b90041684565b6040805194855260208501939093526001600160801b03918216928401929092521660608201526080016102c1565b6033546001600160a01b03166102ad565b606f546102ad906001600160a01b031681565b61039d610615366004614772565b61225e565b6103ce610628366004614b07565b6124b1565b6103ce670de0b6b3a764000081565b61039d61064a36600461473a565b612570565b61033461065d36600461473a565b6072602052600090815260409020805460018201546002830154600384015460049094015460ff808516956001600160a01b036101009096048616959384169381811693600160a01b909204909216911687565b6103ce6125bc565b6103ce6107d081565b6103ce633b9aca0081565b61039d6106db36600461473a565b61263e565b61039d6106ee36600461473a565b61268a565b6103ce6126d6565b61039d61070936600461473a565b612707565b61039d61071c3660046148e2565b6127a2565b6103ce6101f481565b6103ce61073836600461473a565b612dd7565b606c546102ad906001600160a01b031681565b6103ce61075e36600461473a565b60736020526000908152604090205481565b606d546102ad906001600160a01b031681565b80516000805b828110156107dc578381815181106107b157634e487b7160e01b600052603260045260246000fd5b602002602001015160200151826107c89190614eac565b9150806107d481614f6e565b915050610789565b508015610a935760665460655460405163095ea7b360e01b81526001600160a01b039283169263095ea7b392610819929116908590600401614c28565b602060405180830381600087803b15801561083357600080fd5b505af1158015610847573d6000803e3d6000fd5b505050506040513d601f19601f8201168201806040525081019061086b9190614a94565b50606554604051630deec22760e41b81526001600160a01b039091169063deec22709061089c908690600401614ce7565b600060405180830381600087803b1580156108b657600080fd5b505af11580156108ca573d6000803e3d6000fd5b50506066546040516370a0823160e01b8152306004820152600093506001600160a01b0390911691506370a082319060240160206040518083038186803b15801561091457600080fd5b505afa158015610928573d6000803e3d6000fd5b505050506040513d601f19601f8201168201806040525081019061094c9190614aef565b9050606d60009054906101000a90046001600160a01b03166001600160a01b0316633d18b9126040518163ffffffff1660e01b8152600401600060405180830381600087803b15801561099e57600080fd5b505af11580156109b2573d6000803e3d6000fd5b50506066546040516370a0823160e01b8152306004820152600093508492506001600160a01b03909116906370a082319060240160206040518083038186803b1580156109fe57600080fd5b505afa158015610a12573d6000803e3d6000fd5b505050506040513d601f19601f82011682018060405250810190610a369190614aef565b610a409190614f2b565b606f549091508190610a5c906001600160a01b03168280612e29565b6040518481527ff58f7c5d390d4a2b07ee26436df1a0e427a473906547fe45525c85923f1e6a0e9060200160405180910390a15050505b505050565b6001600160a01b0381166000908152607260205260409020805460ff16610ada5760405162461bcd60e51b8152600401610ad190614e03565b60405180910390fd5b6003810154600160a01b900460ff16151560011415610cc2576066546040516370a0823160e01b81523060048201526000916001600160a01b0316906370a082319060240160206040518083038186803b158015610b3757600080fd5b505afa158015610b4b573d6000803e3d6000fd5b505050506040513d601f19601f82011682018060405250810190610b6f9190614aef565b606b54604051632e54bf9560e01b8152600060048201529192506001600160a01b031690632e54bf9590602401600060405180830381600087803b158015610bb657600080fd5b505af1158015610bca573d6000803e3d6000fd5b50506066546040516370a0823160e01b8152306004820152600093508492506001600160a01b03909116906370a082319060240160206040518083038186803b158015610c1657600080fd5b505afa158015610c2a573d6000803e3d6000fd5b505050506040513d601f19601f82011682018060405250810190610c4e9190614aef565b610c589190614f2b565b60038401549091508190610c76906001600160a01b03168280612e29565b7f13b72c40e8b70bafbaa7cc26861069d075844d1772d9fb55395c759828ed324782610ca28382614f2b565b6040805192835260208301919091520160405180910390a1505050610e97565b6066546040516370a0823160e01b81523060048201526000916001600160a01b0316906370a082319060240160206040518083038186803b158015610d0657600080fd5b505afa158015610d1a573d6000803e3d6000fd5b505050506040513d601f19601f82011682018060405250810190610d3e9190614aef565b600480840154604051632e1a7d4d60e01b81529293506001600160a01b031691632e1a7d4d91610d75916000910190815260200190565b600060405180830381600087803b158015610d8f57600080fd5b505af1158015610da3573d6000803e3d6000fd5b50506066546040516370a0823160e01b8152306004820152600093508492506001600160a01b03909116906370a082319060240160206040518083038186803b158015610def57600080fd5b505afa158015610e03573d6000803e3d6000fd5b505050506040513d601f19601f82011682018060405250810190610e279190614aef565b610e319190614f2b565b60038401549091508190610e4f906001600160a01b03168280612e29565b7f13b72c40e8b70bafbaa7cc26861069d075844d1772d9fb55395c759828ed324782610e7b8382614f2b565b6040805192835260208301919091520160405180910390a15050505b5050565b6033546001600160a01b03163314610ec55760405162461bcd60e51b8152600401610ad190614d83565b6001600160a01b03861660009081526072602052604090205460ff1615610f3a5760405162461bcd60e51b8152602060048201526024808201527f506f6f6c20697320616c72656164792072656769737465726564206f722061636044820152637469766560e01b6064820152608401610ad1565b60405163478064b160e11b815260009073__$44ee5446d8d662fddfe2195ccea8824cc4$__90638f00c96290610f769089908990600401614d5e565b60206040518083038186803b158015610f8e57600080fd5b505af4158015610fa2573d6000803e3d6000fd5b505050506040513d601f19601f82011682018060405250810190610fc69190614756565b606954606654604051631d9f877360e11b81526001600160a01b0380851660048301529182166024820152929350600092911690633b3f0ee690604401602060405180830381600087803b15801561101d57600080fd5b505af1158015611031573d6000803e3d6000fd5b505050506040513d601f19601f820116820180604052508101906110559190614756565b60695460405163156fbc1360e31b8152600481018890526001600160a01b038581166024830152808416604483015292935091169063ab7de09890606401600060405180830381600087803b1580156110ad57600080fd5b505af11580156110c1573d6000803e3d6000fd5b505050506040518060e00160405280600115158152602001896001600160a01b0316815260200160008152602001836001600160a01b03168152602001826001600160a01b031681526020018515158152602001846001600160a01b0316815250607260008a6001600160a01b03166001600160a01b0316815260200190815260200160002060008201518160000160006101000a81548160ff02191690831515021790555060208201518160000160016101000a8154816001600160a01b0302191690836001600160a01b031602179055506040820151816001015560608201518160020160006101000a8154816001600160a01b0302191690836001600160a01b0316021790555060808201518160030160006101000a8154816001600160a01b0302191690836001600160a01b0316021790555060a08201518160030160146101000a81548160ff02191690831515021790555060c08201518160040160006101000a8154816001600160a01b0302191690836001600160a01b031602179055509050507f73cca62ab1b520c9715bf4e6c71e3e518c754e7148f65102f43289a7df0efea68860405161128691906001600160a01b0391909116815260200190565b60405180910390a15050505050505050565b606e81815481106112a857600080fd5b6000918252602090912060049091020180546001820154600283015460039093015491935091906001600160a01b0381169060ff600160a01b8204811691600160a81b8104821691600160b01b9091041687565b6001600160a01b0381166000908152607360205260408120548061132457600091505061134d565b6001600160a01b0383166000908152607460205260408120906113478383613343565b93505050505b919050565b600054610100900460ff1661136d5760005460ff1615611371565b303b155b6113d45760405162461bcd60e51b815260206004820152602e60248201527f496e697469616c697a61626c653a20636f6e747261637420697320616c72656160448201526d191e481a5b9a5d1a585b1a5e995960921b6064820152608401610ad1565b600054610100900460ff161580156113ff576000805460ff1961ff0019909116610100171660011790555b611407613637565b606580546001600160a01b03199081166001600160a01b038a8116919091179092556066805482168b8416179055606980548216898416179055606c80548216888416179055606b80548216878416179055606a80548216868416179055606d80549091169184169190911790558015611487576000805461ff00191690555b5050505050505050565b6001600160a01b0380821660009081526072602090815260408083206001810154600282015483516318160ddd60e01b81529351959692959194879491909316926318160ddd92600480840193829003018186803b1580156114f257600080fd5b505afa158015611506573d6000803e3d6000fd5b505050506040513d601f19601f8201168201806040525081019061152a9190614aef565b90506115368282614ee4565b6115465760009350505050611561565b806115518388614ee4565b61155b9190614ec4565b93505050505b92915050565b6033546001600160a01b031633146115915760405162461bcd60e51b8152600401610ad190614d83565b6001600160a01b03166000908152607260205260409020805460ff19169055565b6033546001600160a01b031633146115dc5760405162461bcd60e51b8152600401610ad190614d83565b6000606e82815481106115ff57634e487b7160e01b600052603260045260246000fd5b906000526020600020906004020190508060020154607160008282546116259190614f2b565b909155505060038101805460ff60b01b1981169091556040516001600160a01b0390911681527f5493db1723859b50d9e2f6dbcda6da662098ea59bf451ad2a31ad62289ed54a19060200160405180910390a15050565b6033546001600160a01b031633146116a65760405162461bcd60e51b8152600401610ad190614d83565b6000606e83815481106116c957634e487b7160e01b600052603260045260246000fd5b906000526020600020906004020190508060030160169054906101000a900460ff166117285760405162461bcd60e51b815260206004820152600e60248201526d4e6f6e2d6163746976652066656560901b6044820152606401610ad1565b8181600101541115801561173d575080548211155b61177e5760405162461bcd60e51b815260206004820152601260248201527156616c7565206e6f7420696e2072616e676560701b6044820152606401610ad1565b6107d08160020154836071546117949190614eac565b61179e9190614f2b565b11156117de5760405162461bcd60e51b815260206004820152600f60248201526e13585e08199959481c995858da1959608a1b6044820152606401610ad1565b8181600201546071546117f19190614f2b565b6117fb9190614eac565b6071556002810182905560038101546040517f01fe2943baee27f47add82886c2200f910c749c461c9b63c5fe83901a53bdb4991611846916001600160a01b03909116908590614c28565b60405180910390a1505050565b6033546001600160a01b0316331461187d5760405162461bcd60e51b8152600401610ad190614d83565b6101f48111156118c05760405162461bcd60e51b815260206004820152600e60248201526d0acc2d8eaca40e8dede40d0d2ced60931b6044820152606401610ad1565b607054816071546118d19190614eac565b6118db9190614f2b565b60718190556107d010156119235760405162461bcd60e51b815260206004820152600f60248201526e13505608119959481c995858da1959608a1b6044820152606401610ad1565b607055565b6033546001600160a01b031633146119525760405162461bcd60e51b8152600401610ad190614d83565b6107d0856071546119639190614eac565b11156119a35760405162461bcd60e51b815260206004820152600f60248201526e13585e08199959481c995858da1959608a1b6044820152606401610ad1565b8486111580156119b35750868511155b6119f45760405162461bcd60e51b815260206004820152601260248201527156616c7565206e6f7420696e2072616e676560701b6044820152606401610ad1565b6040805160e081018252888152602081018881529181018781526001600160a01b03878116606084019081528715156080850190815287151560a08601908152600160c08701818152606e8054928301815560005296517f9930d9ff0dee0ef5ca2f7710ea66b8f84dd0f5f5351ecffe72b952cd9db7142a60049092029182015596517f9930d9ff0dee0ef5ca2f7710ea66b8f84dd0f5f5351ecffe72b952cd9db7142b88015593517f9930d9ff0dee0ef5ca2f7710ea66b8f84dd0f5f5351ecffe72b952cd9db7142c87015590517f9930d9ff0dee0ef5ca2f7710ea66b8f84dd0f5f5351ecffe72b952cd9db7142d90950180549151935194516001600160a01b0319909216959092169490941760ff60a01b1916600160a01b921515929092029190911760ff60a81b1916600160a81b921515929092029190911760ff60b01b1916600160b01b921515929092029190911790558015611b6c57606f80546001600160a01b0319166001600160a01b0386161790555b8460716000828254611b7e9190614eac565b9091555050604080516001600160a01b03861681526020810187905284151581830152831515606082015290517f6b67376f541493b7df6bcb8449800492e63d937edfb837763a818d3be5baa2839181900360800190a150505050505050565b6001600160a01b0383166000908152607260205260409020805460ff16611c175760405162461bcd60e51b8152600401610ad190614e03565b6003810154600160a01b900460ff16151560011415611ee9576001600160a01b038216600090815260736020526040902054611c528161366e565b611c5b85610a98565b600080611c67856121ee565b915091506000611c76866112fc565b90506000611c8488836136bb565b60695460028801546040516333b377df60e11b81529293506001600160a01b0391821692636766efbe92611cc092169085908c90600401614c41565b600060405180830381600087803b158015611cda57600080fd5b505af1158015611cee573d6000803e3d6000fd5b5050506002870154604051632770a7eb60e21b81526001600160a01b039091169150639dc29fac90611d269030908590600401614c28565b600060405180830381600087803b158015611d4057600080fd5b505af1158015611d54573d6000803e3d6000fd5b5050606b5460405163095ea7b360e01b81526001600160a01b03808e16945063095ea7b39350611d8a9216908590600401614c28565b602060405180830381600087803b158015611da457600080fd5b505af1158015611db8573d6000803e3d6000fd5b505050506040513d601f19601f82011682018060405250810190611ddc9190614a94565b50606b54604051632e54bf9560e01b8152600481018390526001600160a01b0390911690632e54bf9590602401600060405180830381600087803b158015611e2357600080fd5b505af1158015611e37573d6000803e3d6000fd5b5050606a54611e5392506001600160a01b0316905088836136d3565b611e5e878585613729565b6000611e6a8383613811565b9050611e768882613842565b88876001016000828254611e8a9190614f2b565b92505081905550896001600160a01b0316886001600160a01b03167f7715f7aec5164b178862f96610f97644e00e0abfca2a6d3f425cc7d93284856f8b604051611ed691815260200190565b60405180910390a35050505050506121b2565b611ef284610a98565b60695460028201546040516333b377df60e11b81526001600160a01b0392831692636766efbe92611f2c9291169087908790600401614c41565b600060405180830381600087803b158015611f4657600080fd5b505af1158015611f5a573d6000803e3d6000fd5b5050506002820154604051632770a7eb60e21b81526001600160a01b039091169150639dc29fac90611f929030908790600401614c28565b600060405180830381600087803b158015611fac57600080fd5b505af1158015611fc0573d6000803e3d6000fd5b5050505060048181015460405163095ea7b360e01b81526001600160a01b038781169363095ea7b393611ff893921691889101614c28565b602060405180830381600087803b15801561201257600080fd5b505af1158015612026573d6000803e3d6000fd5b505050506040513d601f19601f8201168201806040525081019061204a9190614a94565b50600481810154604051632e1a7d4d60e01b81529182018590526001600160a01b031690632e1a7d4d90602401600060405180830381600087803b15801561209157600080fd5b505af11580156120a5573d6000803e3d6000fd5b506120be925050506001600160a01b03851683856136d3565b600281015460695460405163095ea7b360e01b81526001600160a01b039283169263095ea7b3926120f6929116908790600401614c28565b602060405180830381600087803b15801561211057600080fd5b505af1158015612124573d6000803e3d6000fd5b505050506040513d601f19601f820116820180604052508101906121489190614a94565b508281600101600082825461215d9190614f2b565b92505081905550836001600160a01b0316826001600160a01b03167f7715f7aec5164b178862f96610f97644e00e0abfca2a6d3f425cc7d93284856f856040516121a991815260200190565b60405180910390a35b50505050565b6033546001600160a01b031633146121e25760405162461bcd60e51b8152600401610ad190614d83565b6121ec6000613db3565b565b6001600160a01b038116600090815260736020526040902054606090819080612230575050604080516000808252602082019081528183019092529150612259565b6001600160a01b03841660009081526074602052604090206122528282613e05565b9350935050505b915091565b6033546001600160a01b031633146122885760405162461bcd60e51b8152600401610ad190614d83565b6066546001600160a01b03838116911614156122d75760405162461bcd60e51b815260206004820152600e60248201526d1b9bdd08185d5d1a1bdc9a5e995960921b6044820152606401610ad1565b6001600160a01b03821660009081526072602052604090205460ff16156123315760405162461bcd60e51b815260206004820152600e60248201526d139bdd08185d5d1a1bdc9a5e995960921b6044820152606401610ad1565b6040516370a0823160e01b81523060048201526000906001600160a01b038416906370a082319060240160206040518083038186803b15801561237357600080fd5b505afa158015612387573d6000803e3d6000fd5b505050506040513d601f19601f820116820180604052508101906123ab9190614aef565b60405163095ea7b360e01b81529091506001600160a01b0384169063095ea7b3906123dc9085908590600401614c28565b602060405180830381600087803b1580156123f657600080fd5b505af115801561240a573d6000803e3d6000fd5b505050506040513d601f19601f8201168201806040525081019061242e9190614a94565b506040516347e7a41160e11b8152600481018290526001600160a01b038481166024830152831690638fcf482290604401602060405180830381600087803b15801561247957600080fd5b505af115801561248d573d6000803e3d6000fd5b505050506040513d601f19601f820116820180604052508101906121b29190614a94565b6001600160a01b0380821660009081526072602090815260408083206001810154600282015483516318160ddd60e01b81529351959692959194879491909316926318160ddd92600480840193829003018186803b15801561251257600080fd5b505afa158015612526573d6000803e3d6000fd5b505050506040513d601f19601f8201168201806040525081019061254a9190614aef565b90506125568282614ee4565b61256557859350505050611561565b816115518288614ee4565b6033546001600160a01b0316331461259a5760405162461bcd60e51b8152600401610ad190614d83565b606980546001600160a01b0319166001600160a01b0392909216919091179055565b606554604051630a95bceb60e01b81523060048201526000916001600160a01b031690630a95bceb906024015b60206040518083038186803b15801561260157600080fd5b505afa158015612615573d6000803e3d6000fd5b505050506040513d601f19601f820116820180604052508101906126399190614aef565b905090565b6033546001600160a01b031633146126685760405162461bcd60e51b8152600401610ad190614d83565b606780546001600160a01b0319166001600160a01b0392909216919091179055565b6033546001600160a01b031633146126b45760405162461bcd60e51b8152600401610ad190614d83565b606580546001600160a01b0319166001600160a01b0392909216919091179055565b60655460405163015f4e5760e71b81523060048201526000916001600160a01b03169063afa72b80906024016125e9565b6033546001600160a01b031633146127315760405162461bcd60e51b8152600401610ad190614d83565b6001600160a01b0381166127965760405162461bcd60e51b815260206004820152602660248201527f4f776e61626c653a206e6577206f776e657220697320746865207a65726f206160448201526564647265737360d01b6064820152608401610ad1565b61279f81613db3565b50565b6001600160a01b0383166000908152607260205260409020805460ff166127db5760405162461bcd60e51b8152600401610ad190614e03565b6003810154600160a01b900460ff16151560011415612b0e576001810154156128075761280784610a98565b61281c6001600160a01b038516833086613f6b565b606b5460405163095ea7b360e01b81526001600160a01b038681169263095ea7b39261285092909116908790600401614c28565b602060405180830381600087803b15801561286a57600080fd5b505af115801561287e573d6000803e3d6000fd5b505050506040513d601f19601f820116820180604052508101906128a29190614a94565b50606b54604051631e31de8960e21b8152600481018590526001600160a01b03909116906378c77a2490602401600060405180830381600087803b1580156128e957600080fd5b505af11580156128fd573d6000803e3d6000fd5b5050505060008061290d846121ee565b91509150600061291c856112fc565b9050600061292a8288613fa3565b90506129368682613842565b612941868585613729565b60028501546040516340c10f1960e01b81526001600160a01b03909116906340c10f19906129759030908b90600401614c28565b600060405180830381600087803b15801561298f57600080fd5b505af11580156129a3573d6000803e3d6000fd5b505050600286015460695460405163095ea7b360e01b81526001600160a01b03928316935063095ea7b3926129de9216908b90600401614c28565b602060405180830381600087803b1580156129f857600080fd5b505af1158015612a0c573d6000803e3d6000fd5b505050506040513d601f19601f82011682018060405250810190612a309190614a94565b50606954600286015460405163322083db60e21b81526001600160a01b039283169263c8820f6c92612a6b929116908b908b90600401614c41565b600060405180830381600087803b158015612a8557600080fd5b505af1158015612a99573d6000803e3d6000fd5b5050505086856001016000828254612ab19190614eac565b92505081905550876001600160a01b0316866001600160a01b03167f83df459d706116d1b3f1c7b7f77cfea4c635275f5d1e1a53827f536ef48db77d89604051612afd91815260200190565b60405180910390a3505050506121b2565b600181015415612b2157612b2184610a98565b612b366001600160a01b038516833086613f6b565b60048082015460405163095ea7b360e01b81526001600160a01b038088169363095ea7b393612b6a93921691889101614c28565b602060405180830381600087803b158015612b8457600080fd5b505af1158015612b98573d6000803e3d6000fd5b505050506040513d601f19601f82011682018060405250810190612bbc9190614a94565b5060048181015460405163b6b55f2560e01b81529182018590526001600160a01b03169063b6b55f2590602401600060405180830381600087803b158015612c0357600080fd5b505af1158015612c17573d6000803e3d6000fd5b50505060028201546040516340c10f1960e01b81526001600160a01b0390911691506340c10f1990612c4f9030908790600401614c28565b600060405180830381600087803b158015612c6957600080fd5b505af1158015612c7d573d6000803e3d6000fd5b505050600282015460695460405163095ea7b360e01b81526001600160a01b03928316935063095ea7b392612cb89216908790600401614c28565b602060405180830381600087803b158015612cd257600080fd5b505af1158015612ce6573d6000803e3d6000fd5b505050506040513d601f19601f82011682018060405250810190612d0a9190614a94565b50606954600282015460405163322083db60e21b81526001600160a01b039283169263c8820f6c92612d459291169087908790600401614c41565b600060405180830381600087803b158015612d5f57600080fd5b505af1158015612d73573d6000803e3d6000fd5b5050505082816001016000828254612d8b9190614eac565b92505081905550836001600160a01b0316826001600160a01b03167f83df459d706116d1b3f1c7b7f77cfea4c635275f5d1e1a53827f536ef48db77d856040516121a991815260200190565b6001600160a01b03811660009081526073602052604081205480612dff57600091505061134d565b6001600160a01b0383166000908152607460205260409020612e218282613ff1565b949350505050565b606e5460005b818110156131e2576000606e8281548110612e5a57634e487b7160e01b600052603260045260246000fd5b906000526020600020906004020190508060030160169054906101000a900460ff16156131cf5760665460028201546001600160a01b039091169060009061271090612ea69089614ee4565b612eb09190614ec4565b6003840154909150600160a01b900460ff16612fbc5760665460675460405163095ea7b360e01b81526001600160a01b039283169263095ea7b392612efc929116908590600401614c28565b602060405180830381600087803b158015612f1657600080fd5b505af1158015612f2a573d6000803e3d6000fd5b505050506040513d601f19601f82011682018060405250810190612f4e9190614a94565b5060675460405163b6b55f2560e01b8152600481018390526001600160a01b039091169063b6b55f2590602401600060405180830381600087803b158015612f9557600080fd5b505af1158015612fa9573d6000803e3d6000fd5b50506067546001600160a01b0316935050505b6003830154600160a81b900460ff166130e657600383015460405163095ea7b360e01b81526001600160a01b038481169263095ea7b39261300592909116908590600401614c28565b602060405180830381600087803b15801561301f57600080fd5b505af1158015613033573d6000803e3d6000fd5b505050506040513d601f19601f820116820180604052508101906130579190614a94565b5060038301546040516347e7a41160e11b8152600481018390526001600160a01b03848116602483015290911690638fcf482290604401602060405180830381600087803b1580156130a857600080fd5b505af11580156130bc573d6000803e3d6000fd5b505050506040513d601f19601f820116820180604052508101906130e09190614a94565b506131c0565b600383015460405163a9059cbb60e01b81526001600160a01b038481169263a9059cbb9261311c92909116908590600401614c28565b602060405180830381600087803b15801561313657600080fd5b505af115801561314a573d6000803e3d6000fd5b505050506040513d601f19601f8201168201806040525081019061316e9190614a94565b506003830154604080516001600160a01b039283168152918416602083015281018290527f6c33b8f6b4f8ba21a4621cc77c018fbb4c7663cfa25929f02dc8d36abde462c59060600160405180910390a15b6131ca8187614f2b565b955050505b50806131da81614f6e565b915050612e2f565b5060665460405163095ea7b360e01b81526001600160a01b039091169063095ea7b3906132159087908690600401614c28565b602060405180830381600087803b15801561322f57600080fd5b505af1158015613243573d6000803e3d6000fd5b505050506040513d601f19601f820116820180604052508101906132679190614a94565b506066546040516347e7a41160e11b8152600481018490526001600160a01b03918216602482015290851690638fcf482290604401602060405180830381600087803b1580156132b657600080fd5b505af11580156132ca573d6000803e3d6000fd5b505050506040513d601f19601f820116820180604052508101906132ee9190614a94565b50606654604080516001600160a01b038088168252909216602083015281018390527f6c33b8f6b4f8ba21a4621cc77c018fbb4c7663cfa25929f02dc8d36abde462c59060600160405180910390a150505050565b60018101546003820154606b5460408051630ecce30160e31b81529051600094936001600160801b0380821694600160801b90920416926001600160a01b0390911691637667180891600480820192602092909190829003018186803b1580156133ac57600080fd5b505afa1580156133c0573d6000803e3d6000fd5b505050506040513d601f19601f820116820180604052508101906133e49190614ab0565b6001600160801b0316816001600160801b031610156134095760009350505050611561565b6000806134a584606b60009054906101000a90046001600160a01b03166001600160a01b031663a4e59ac86040518163ffffffff1660e01b815260040160206040518083038186803b15801561345e57600080fd5b505afa158015613472573d6000803e3d6000fd5b505050506040513d601f19601f820116820180604052508101906134969190614ab0565b6001600160801b031690614196565b90506001600160801b0381166135565761354f85613549606b60009054906101000a90046001600160a01b03166001600160a01b0316638b8fbd926040518163ffffffff1660e01b815260040160206040518083038186803b15801561350a57600080fd5b505afa15801561351e573d6000803e3d6000fd5b505050506040513d601f19601f820116820180604052508101906135429190614aef565b8b90614214565b90614278565b9150613609565b806001600160801b0316600114156136045761354f633b9aca0061354987613549606b60009054906101000a90046001600160a01b03166001600160a01b0316638b8fbd926040518163ffffffff1660e01b815260040160206040518083038186803b1580156135c557600080fd5b505afa1580156135d9573d6000803e3d6000fd5b505050506040513d601f19601f820116820180604052508101906135fd9190614aef565b8d90614214565b600091505b61361788633b9aca00614278565b82101561362c57600095505050505050611561565b509695505050505050565b600054610100900460ff1661365e5760405162461bcd60e51b8152600401610ad190614db8565b6136666142a5565b6121ec6142cc565b8061279f5760405162461bcd60e51b815260206004820152601b60248201527f53503a2072657175697265206e6f6e7a65726f206465706f73697400000000006044820152606401610ad1565b60008183106136ca57816136cc565b825b9392505050565b610a938363a9059cbb60e01b84846040516024016136f2929190614c28565b60408051601f198184030181529190526020810180516001600160e01b03166001600160e01b0319909316929092179091526142fc565b8151815181146137705760405162461bcd60e51b81526020600482015260126024820152710a6a07498cadccee8d040dad2e6dac2e8c6d60731b6044820152606401610ad1565b60005b8181101561380a57600083828151811061379d57634e487b7160e01b600052603260045260246000fd5b6020026020010151905060008583815181106137c957634e487b7160e01b600052603260045260246000fd5b6020026020010151905081600014156137e35750506137fa565b6137f76001600160a01b03821688846136d3565b50505b61380381614f6e565b9050613773565b5050505050565b60006136cc83836040518060400160405280600c81526020016b737562206f766572666c6f7760a01b8152506143ce565b6001600160a01b03821660009081526073602052604090208190558061399d57606c5460408051634eb5750560e11b815290516000926001600160a01b031691639d6aea0a9160048083019286929190829003018186803b1580156138a657600080fd5b505afa1580156138ba573d6000803e3d6000fd5b505050506040513d6000823e601f3d908101601f191682016040526138e29190810190614923565b805190915060005b8181101561396b576001600160a01b03851660009081526074602052604081208451829086908590811061392e57634e487b7160e01b600052603260045260246000fd5b60200260200101516001600160a01b03166001600160a01b03168152602001908152602001600020819055508061396490614f6e565b90506138ea565b5050506001600160a01b0382166000908152607460205260408120600181018290556002810182905560030155610e97565b606b546040805163149cb35960e31b815290516000926001600160a01b03169163a4e59ac8916004808301926020929190829003018186803b1580156139e257600080fd5b505afa1580156139f6573d6000803e3d6000fd5b505050506040513d601f19601f82011682018060405250810190613a1a9190614ab0565b90506000606b60009054906101000a90046001600160a01b03166001600160a01b031663766718086040518163ffffffff1660e01b815260040160206040518083038186803b158015613a6c57600080fd5b505afa158015613a80573d6000803e3d6000fd5b505050506040513d601f19601f82011682018060405250810190613aa49190614ab0565b90506000606b60009054906101000a90046001600160a01b03166001600160a01b0316638b8fbd926040518163ffffffff1660e01b815260040160206040518083038186803b158015613af657600080fd5b505afa158015613b0a573d6000803e3d6000fd5b505050506040513d601f19601f82011682018060405250810190613b2e9190614aef565b90506000606c60009054906101000a90046001600160a01b03166001600160a01b0316639d6aea0a6040518163ffffffff1660e01b815260040160006040518083038186803b158015613b8057600080fd5b505afa158015613b94573d6000803e3d6000fd5b505050506040513d6000823e601f3d908101601f19168201604052613bbc9190810190614923565b805190915060005b81811015613cc1576000838281518110613bee57634e487b7160e01b600052603260045260246000fd5b6020908102919091010151606b54604051637ee4196b60e01b81529192506000916001600160a01b0390911690637ee4196b90613c339085908b908d90600401614bfe565b60206040518083038186803b158015613c4b57600080fd5b505afa158015613c5f573d6000803e3d6000fd5b505050506040513d601f19601f82011682018060405250810190613c839190614aef565b6001600160a01b03808c166000908152607460209081526040808320969093168252949094529092209190915550613cba81614f6e565b9050613bc4565b50606b546040516320b8295d60e21b81526001600160801b038088166004830152861660248201526000916001600160a01b0316906382e0a5749060440160206040518083038186803b158015613d1757600080fd5b505afa158015613d2b573d6000803e3d6000fd5b505050506040513d601f19601f82011682018060405250810190613d4f9190614aef565b6001600160a01b03891660009081526074602052604090206001810195909555600285015550505060030180546001600160801b03928316600160801b029383166fffffffffffffffffffffffffffffffff19909116179091169190911790555050565b603380546001600160a01b038381166001600160a01b0319831681179093556040519116919082907f8be0079c531659141344cd1fd0a4f28419497f9722a3daafe3b4186f6b6457e090600090a35050565b606080606c60009054906101000a90046001600160a01b03166001600160a01b0316639d6aea0a6040518163ffffffff1660e01b815260040160006040518083038186803b158015613e5657600080fd5b505afa158015613e6a573d6000803e3d6000fd5b505050506040513d6000823e601f3d908101601f19168201604052613e929190810190614923565b80519092508067ffffffffffffffff811115613ebe57634e487b7160e01b600052604160045260246000fd5b604051908082528060200260200182016040528015613ee7578160200160208202803683370190505b50915060005b81811015613f6257613f278686868481518110613f1a57634e487b7160e01b600052603260045260246000fd5b6020026020010151614408565b838281518110613f4757634e487b7160e01b600052603260045260246000fd5b6020908102919091010152613f5b81614f6e565b9050613eed565b50509250929050565b6040516001600160a01b03808516602483015283166044820152606481018290526121b29085906323b872dd60e01b906084016136f2565b600080613fb08385614eac565b9050838110156136cc5760405162461bcd60e51b815260206004820152600c60248201526b616464206f766572666c6f7760a01b6044820152606401610ad1565b600381015460028201546001830154606b546040516320b8295d60e21b81526001600160801b03600160801b86048116600483018190529516602482018190526000959490939092909186916140ad9185916001600160a01b0316906382e0a574906044015b60206040518083038186803b15801561406f57600080fd5b505afa158015614083573d6000803e3d6000fd5b505050506040513d601f19601f820116820180604052508101906140a79190614aef565b90613811565b606b5490915060009061416290633b9aca00906001600160a01b03166382e0a574896140e36001600160801b038b166001614511565b6040516001600160e01b031960e085901b1681526001600160801b039283166004820152911660248201526044015b60206040518083038186803b15801561412a57600080fd5b505afa15801561413e573d6000803e3d6000fd5b505050506040513d601f19601f820116820180604052508101906135499190614aef565b90506000614188670de0b6b3a764000061354986816141818888613fa3565b8f90614214565b9a9950505050505050505050565b6000826001600160801b0316826001600160801b031611156142085760405162461bcd60e51b815260206004820152602560248201527f59657469536166654d6174683132383a207375627472616374696f6e206f766560448201526472666c6f7760d81b6064820152608401610ad1565b6000612e218385614f03565b60008261422357506000611561565b600061422f8385614ee4565b90508261423c8583614ec4565b146136cc5760405162461bcd60e51b815260206004820152600c60248201526b6d756c206f766572666c6f7760a01b6044820152606401610ad1565b60006136cc838360405180604001604052806008815260200167064697620627920360c41b81525061458d565b600054610100900460ff166121ec5760405162461bcd60e51b8152600401610ad190614db8565b600054610100900460ff166142f35760405162461bcd60e51b8152600401610ad190614db8565b6121ec33613db3565b6000614351826040518060400160405280602081526020017f5361666545524332303a206c6f772d6c6576656c2063616c6c206661696c6564815250856001600160a01b03166145bb9092919063ffffffff16565b805190915015610a93578080602001905181019061436f9190614a94565b610a935760405162461bcd60e51b815260206004820152602a60248201527f5361666545524332303a204552433230206f7065726174696f6e20646964206e6044820152691bdd081cdd58d8d9595960b21b6064820152608401610ad1565b600081848411156143f25760405162461bcd60e51b8152600401610ad19190614d4b565b5060006143ff8486614f2b565b95945050505050565b6001600160a01b03808216600090815260208490526040808220546001860154606b5460038801549351637ee4196b60e01b8152949592949193869361447693879390911691637ee4196b91614057918b916001600160801b03600160801b83048116921690600401614bfe565b606b5460038801549192506000916144de91633b9aca00916001600160a01b0390911690637ee4196b908a906001600160801b03600160801b82048116916144c091166001614511565b6040518463ffffffff1660e01b815260040161411293929190614bfe565b90506000614504670de0b6b3a764000061354986816144fd8888613fa3565b8e90614214565b9998505050505050505050565b60008061451e8385614e81565b9050836001600160801b0316816001600160801b031610156136cc5760405162461bcd60e51b815260206004820152602260248201527f59657469536166654d6174683132383a206164646974696f6e206f766572666c6044820152616f7760f01b6064820152608401610ad1565b600081836145ae5760405162461bcd60e51b8152600401610ad19190614d4b565b5060006143ff8486614ec4565b6060612e218484600085856001600160a01b0385163b61461d5760405162461bcd60e51b815260206004820152601d60248201527f416464726573733a2063616c6c20746f206e6f6e2d636f6e74726163740000006044820152606401610ad1565b600080866001600160a01b031685876040516146399190614be2565b60006040518083038185875af1925050503d8060008114614676576040519150601f19603f3d011682016040523d82523d6000602084013e61467b565b606091505b509150915061468b828286614696565b979650505050505050565b606083156146a55750816136cc565b8251156146b55782518084602001fd5b8160405162461bcd60e51b8152600401610ad19190614d4b565b600082601f8301126146df578081fd5b813567ffffffffffffffff8111156146f9576146f9614f9f565b61470c601f8201601f1916602001614e2c565b818152846020838601011115614720578283fd5b816020850160208301379081016020019190915292915050565b60006020828403121561474b578081fd5b81356136cc81614fb5565b600060208284031215614767578081fd5b81516136cc81614fb5565b60008060408385031215614784578081fd5b823561478f81614fb5565b9150602083013561479f81614fb5565b809150509250929050565b600080600080600080600060e0888a0312156147c4578283fd5b87356147cf81614fb5565b965060208801356147df81614fb5565b955060408801356147ef81614fb5565b945060608801356147ff81614fb5565b9350608088013561480f81614fb5565b925060a088013561481f81614fb5565b915060c088013561482f81614fb5565b8091505092959891949750929550565b60008060008060008060c08789031215614857578182fd5b863561486281614fb5565b9550602087013567ffffffffffffffff8082111561487e578384fd5b61488a8a838b016146cf565b9650604089013591508082111561489f578384fd5b506148ac89828a016146cf565b9450506060870135925060808701356148c481614fca565b915060a08701356148d481614fb5565b809150509295509295509295565b6000806000606084860312156148f6578283fd5b833561490181614fb5565b925060208401359150604084013561491881614fb5565b809150509250925092565b60006020808385031215614935578182fd5b825167ffffffffffffffff81111561494b578283fd5b8301601f8101851361495b578283fd5b805161496e61496982614e5d565b614e2c565b818152838101908385018584028501860189101561498a578687fd5b8694505b838510156149b55780516149a181614fb5565b83526001949094019391850191850161498e565b50979650505050505050565b600060208083850312156149d3578182fd5b823567ffffffffffffffff8111156149e9578283fd5b8301601f810185136149f9578283fd5b8035614a0761496982614e5d565b818152838101908385016060808502860187018a1015614a25578788fd5b8795505b84861015614a865780828b031215614a3f578788fd5b614a4881614e2c565b8235614a5381614fb5565b81528288013588820152604080840135614a6c81614fca565b908201528452600195909501949286019290810190614a29565b509098975050505050505050565b600060208284031215614aa5578081fd5b81516136cc81614fca565b600060208284031215614ac1578081fd5b81516001600160801b03811681146136cc578182fd5b600060208284031215614ae8578081fd5b5035919050565b600060208284031215614b00578081fd5b5051919050565b60008060408385031215614b19578182fd5b82359150602083013561479f81614fb5565b60008060408385031215614b3d578182fd5b50508035926020909101359150565b600080600080600080600060e0888a031215614b66578081fd5b8735965060208801359550604088013594506060880135614b8681614fb5565b93506080880135614b9681614fca565b925060a0880135614ba681614fca565b915060c088013561482f81614fca565b60008151808452614bce816020860160208601614f42565b601f01601f19169290920160200192915050565b60008251614bf4818460208701614f42565b9190910192915050565b6001600160a01b039390931683526001600160801b03918216602084015216604082015260600190565b6001600160a01b03929092168252602082015260400190565b6001600160a01b0393841681526020810192909252909116604082015260600190565b604080825283519082018190526000906020906060840190828701845b82811015614ca65781516001600160a01b031684529284019290840190600101614c81565b50505083810382850152845180825285830191830190845b81811015614cda57835183529284019291840191600101614cbe565b5090979650505050505050565b602080825282518282018190526000919060409081850190868401855b82811015614d3e57815180516001600160a01b03168552868101518786015285015115158585015260609093019290850190600101614d04565b5091979650505050505050565b6000602082526136cc6020830184614bb6565b600060408252614d716040830185614bb6565b82810360208401526143ff8185614bb6565b6020808252818101527f4f776e61626c653a2063616c6c6572206973206e6f7420746865206f776e6572604082015260600190565b6020808252602b908201527f496e697469616c697a61626c653a20636f6e7472616374206973206e6f74206960408201526a6e697469616c697a696e6760a81b606082015260800190565b6020808252600f908201526e506f6f6c206e6f742061637469766560881b604082015260600190565b604051601f8201601f1916810167ffffffffffffffff81118282101715614e5557614e55614f9f565b604052919050565b600067ffffffffffffffff821115614e7757614e77614f9f565b5060209081020190565b60006001600160801b03808316818516808303821115614ea357614ea3614f89565b01949350505050565b60008219821115614ebf57614ebf614f89565b500190565b600082614edf57634e487b7160e01b81526012600452602481fd5b500490565b6000816000190483118215151615614efe57614efe614f89565b500290565b60006001600160801b0383811690831681811015614f2357614f23614f89565b039392505050565b600082821015614f3d57614f3d614f89565b500390565b60005b83811015614f5d578181015183820152602001614f45565b838111156121b25750506000910152565b6000600019821415614f8257614f82614f89565b5060010190565b634e487b7160e01b600052601160045260246000fd5b634e487b7160e01b600052604160045260246000fd5b6001600160a01b038116811461279f57600080fd5b801515811461279f57600080fdfea2646970667358221220e7c79a13890b53d433fdf5970d87607613ce8857c31001167fe1ae7ac04b35e064736f6c63430008020033",
  "linkReferences": {
    "contracts/MainProtocol/YetiBooster.sol": {
      "ERC20FactoryLib": [
        {
          "length": 20,
          "start": 3948
        }
      ]
    }
  },
  "deployedLinkReferences": {
    "contracts/MainProtocol/YetiBooster.sol": {
      "ERC20FactoryLib": [
        {
          "length": 20,
          "start": 3916
        }
      ]
    }
  }
}