{
  "_format": "hh-sol-artifact-1",
  "contractName": "YetiBooster",
  "sourceName": "contracts/MainProtocol/YetiBooster.sol",
  "abi": [
    {
      "anonymous": false,
      "inputs": [
        {
          "indexed": false,
          "internalType": "address",
          "name": "to",
          "type": "address"
        },
        {
          "indexed": false,
          "internalType": "uint256",
          "name": "value",
          "type": "uint256"
        },
        {
          "indexed": false,
          "internalType": "bool",
          "name": "isYETI",
          "type": "bool"
        },
        {
          "indexed": false,
          "internalType": "bool",
          "name": "isAddress",
          "type": "bool"
        }
      ],
      "name": "AddFee",
      "type": "event"
    },
    {
      "anonymous": false,
      "inputs": [
        {
          "indexed": true,
          "internalType": "address",
          "name": "user",
          "type": "address"
        },
        {
          "indexed": true,
          "internalType": "address",
          "name": "token",
          "type": "address"
        },
        {
          "indexed": false,
          "internalType": "uint256",
          "name": "amount",
          "type": "uint256"
        }
      ],
      "name": "NewDeposit",
      "type": "event"
    },
    {
      "anonymous": false,
      "inputs": [
        {
          "indexed": true,
          "internalType": "address",
          "name": "user",
          "type": "address"
        },
        {
          "indexed": true,
          "internalType": "address",
          "name": "token",
          "type": "address"
        },
        {
          "indexed": false,
          "internalType": "uint256",
          "name": "amount",
          "type": "uint256"
        }
      ],
      "name": "NewWithdraw",
      "type": "event"
    },
    {
      "anonymous": false,
      "inputs": [
        {
          "indexed": false,
          "internalType": "uint256",
          "name": "amount",
          "type": "uint256"
        }
      ],
      "name": "NewYetiStaked",
      "type": "event"
    },
    {
      "anonymous": false,
      "inputs": [
        {
          "indexed": true,
          "internalType": "address",
          "name": "previousOwner",
          "type": "address"
        },
        {
          "indexed": true,
          "internalType": "address",
          "name": "newOwner",
          "type": "address"
        }
      ],
      "name": "OwnershipTransferred",
      "type": "event"
    },
    {
      "anonymous": false,
      "inputs": [
        {
          "indexed": false,
          "internalType": "address",
          "name": "tokenAddress",
          "type": "address"
        }
      ],
      "name": "PoolAdded",
      "type": "event"
    },
    {
      "anonymous": false,
      "inputs": [
        {
          "indexed": false,
          "internalType": "address",
          "name": "to",
          "type": "address"
        }
      ],
      "name": "RemoveFee",
      "type": "event"
    },
    {
      "anonymous": false,
      "inputs": [
        {
          "indexed": false,
          "internalType": "address",
          "name": "to",
          "type": "address"
        },
        {
          "indexed": false,
          "internalType": "address",
          "name": "rewardToken",
          "type": "address"
        },
        {
          "indexed": false,
          "internalType": "uint256",
          "name": "feeAmount",
          "type": "uint256"
        }
      ],
      "name": "RewardPaidTo",
      "type": "event"
    },
    {
      "anonymous": false,
      "inputs": [
        {
          "indexed": false,
          "internalType": "address",
          "name": "to",
          "type": "address"
        },
        {
          "indexed": false,
          "internalType": "uint256",
          "name": "value",
          "type": "uint256"
        }
      ],
      "name": "SetFee",
      "type": "event"
    },
    {
      "anonymous": false,
      "inputs": [
        {
          "indexed": false,
          "internalType": "uint256",
          "name": "amount",
          "type": "uint256"
        },
        {
          "indexed": false,
          "internalType": "uint256",
          "name": "callerFee",
          "type": "uint256"
        }
      ],
      "name": "YetiHarvested",
      "type": "event"
    },
    {
      "inputs": [],
      "name": "CALLER_FEE",
      "outputs": [
        {
          "internalType": "uint256",
          "name": "",
          "type": "uint256"
        }
      ],
      "stateMutability": "view",
      "type": "function"
    },
    {
      "inputs": [],
      "name": "DECIMAL_PRECISION",
      "outputs": [
        {
          "internalType": "uint256",
          "name": "",
          "type": "uint256"
        }
      ],
      "stateMutability": "view",
      "type": "function"
    },
    {
      "inputs": [],
      "name": "MAX_CALLER_FEE",
      "outputs": [
        {
          "internalType": "uint256",
          "name": "",
          "type": "uint256"
        }
      ],
      "stateMutability": "view",
      "type": "function"
    },
    {
      "inputs": [],
      "name": "MAX_FEE",
      "outputs": [
        {
          "internalType": "uint256",
          "name": "",
          "type": "uint256"
        }
      ],
      "stateMutability": "view",
      "type": "function"
    },
    {
      "inputs": [],
      "name": "SCALE_FACTOR",
      "outputs": [
        {
          "internalType": "uint256",
          "name": "",
          "type": "uint256"
        }
      ],
      "stateMutability": "view",
      "type": "function"
    },
    {
      "inputs": [
        {
          "internalType": "address",
          "name": "_yeti",
          "type": "address"
        },
        {
          "internalType": "address",
          "name": "_staking_veyeti",
          "type": "address"
        },
        {
          "internalType": "address",
          "name": "_masterChef",
          "type": "address"
        },
        {
          "internalType": "address",
          "name": "_controllerAddress",
          "type": "address"
        },
        {
          "internalType": "address",
          "name": "_stabilitypool",
          "type": "address"
        },
        {
          "internalType": "address",
          "name": "_yusd",
          "type": "address"
        },
        {
          "internalType": "address",
          "name": "_rewarderVeYeti",
          "type": "address"
        }
      ],
      "name": "__YetiBooster_init",
      "outputs": [],
      "stateMutability": "nonpayable",
      "type": "function"
    },
    {
      "inputs": [
        {
          "internalType": "uint256",
          "name": "max",
          "type": "uint256"
        },
        {
          "internalType": "uint256",
          "name": "min",
          "type": "uint256"
        },
        {
          "internalType": "uint256",
          "name": "value",
          "type": "uint256"
        },
        {
          "internalType": "address",
          "name": "to",
          "type": "address"
        },
        {
          "internalType": "bool",
          "name": "isYETI",
          "type": "bool"
        },
        {
          "internalType": "bool",
          "name": "isAddress",
          "type": "bool"
        },
        {
          "internalType": "bool",
          "name": "isVeYETI",
          "type": "bool"
        }
      ],
      "name": "addFee",
      "outputs": [],
      "stateMutability": "nonpayable",
      "type": "function"
    },
    {
      "inputs": [],
      "name": "controller",
      "outputs": [
        {
          "internalType": "address",
          "name": "",
          "type": "address"
        }
      ],
      "stateMutability": "view",
      "type": "function"
    },
    {
      "inputs": [
        {
          "internalType": "address",
          "name": "lptoken",
          "type": "address"
        },
        {
          "internalType": "uint256",
          "name": "amount",
          "type": "uint256"
        },
        {
          "internalType": "address",
          "name": "sender",
          "type": "address"
        }
      ],
      "name": "deposit",
      "outputs": [],
      "stateMutability": "nonpayable",
      "type": "function"
    },
    {
      "inputs": [
        {
          "internalType": "address",
          "name": "",
          "type": "address"
        }
      ],
      "name": "depositSnapshots",
      "outputs": [
        {
          "internalType": "uint256",
          "name": "P",
          "type": "uint256"
        },
        {
          "internalType": "uint256",
          "name": "G",
          "type": "uint256"
        },
        {
          "internalType": "uint128",
          "name": "scale",
          "type": "uint128"
        },
        {
          "internalType": "uint128",
          "name": "epoch",
          "type": "uint128"
        }
      ],
      "stateMutability": "view",
      "type": "function"
    },
    {
      "inputs": [
        {
          "internalType": "address",
          "name": "",
          "type": "address"
        }
      ],
      "name": "deposits",
      "outputs": [
        {
          "internalType": "uint256",
          "name": "",
          "type": "uint256"
        }
      ],
      "stateMutability": "view",
      "type": "function"
    },
    {
      "inputs": [
        {
          "internalType": "uint256",
          "name": "",
          "type": "uint256"
        }
      ],
      "name": "feeInfos",
      "outputs": [
        {
          "internalType": "uint256",
          "name": "max_value",
          "type": "uint256"
        },
        {
          "internalType": "uint256",
          "name": "min_value",
          "type": "uint256"
        },
        {
          "internalType": "uint256",
          "name": "value",
          "type": "uint256"
        },
        {
          "internalType": "address",
          "name": "to",
          "type": "address"
        },
        {
          "internalType": "bool",
          "name": "isYETI",
          "type": "bool"
        },
        {
          "internalType": "bool",
          "name": "isAddress",
          "type": "bool"
        },
        {
          "internalType": "bool",
          "name": "isActive",
          "type": "bool"
        }
      ],
      "stateMutability": "view",
      "type": "function"
    },
    {
      "inputs": [
        {
          "internalType": "address",
          "name": "_depositor",
          "type": "address"
        }
      ],
      "name": "getCompoundedYUSDDeposit",
      "outputs": [
        {
          "internalType": "uint256",
          "name": "",
          "type": "uint256"
        }
      ],
      "stateMutability": "view",
      "type": "function"
    },
    {
      "inputs": [
        {
          "internalType": "uint256",
          "name": "amount",
          "type": "uint256"
        },
        {
          "internalType": "address",
          "name": "token",
          "type": "address"
        }
      ],
      "name": "getDepositTokensForShares",
      "outputs": [
        {
          "internalType": "uint256",
          "name": "",
          "type": "uint256"
        }
      ],
      "stateMutability": "view",
      "type": "function"
    },
    {
      "inputs": [
        {
          "internalType": "address",
          "name": "_depositor",
          "type": "address"
        }
      ],
      "name": "getDepositorGains",
      "outputs": [
        {
          "internalType": "address[]",
          "name": "",
          "type": "address[]"
        },
        {
          "internalType": "uint256[]",
          "name": "",
          "type": "uint256[]"
        }
      ],
      "stateMutability": "view",
      "type": "function"
    },
    {
      "inputs": [
        {
          "internalType": "address",
          "name": "_depositor",
          "type": "address"
        }
      ],
      "name": "getDepositorYETIGain",
      "outputs": [
        {
          "internalType": "uint256",
          "name": "",
          "type": "uint256"
        }
      ],
      "stateMutability": "view",
      "type": "function"
    },
    {
      "inputs": [
        {
          "internalType": "uint256",
          "name": "amount",
          "type": "uint256"
        },
        {
          "internalType": "address",
          "name": "token",
          "type": "address"
        }
      ],
      "name": "getLPTokensForShares",
      "outputs": [
        {
          "internalType": "uint256",
          "name": "",
          "type": "uint256"
        }
      ],
      "stateMutability": "view",
      "type": "function"
    },
    {
      "inputs": [
        {
          "internalType": "address",
          "name": "_address",
          "type": "address"
        }
      ],
      "name": "getPoolInfo",
      "outputs": [
        {
          "internalType": "bool",
          "name": "isActive",
          "type": "bool"
        },
        {
          "internalType": "address",
          "name": "lp",
          "type": "address"
        },
        {
          "internalType": "uint256",
          "name": "sizeLp",
          "type": "uint256"
        },
        {
          "internalType": "address",
          "name": "receipt",
          "type": "address"
        },
        {
          "internalType": "address",
          "name": "rewards_addr",
          "type": "address"
        },
        {
          "internalType": "bool",
          "name": "_stabilitypool",
          "type": "bool"
        },
        {
          "internalType": "address",
          "name": "addressPool",
          "type": "address"
        }
      ],
      "stateMutability": "view",
      "type": "function"
    },
    {
      "inputs": [
        {
          "internalType": "uint256",
          "name": "amount",
          "type": "uint256"
        },
        {
          "internalType": "address",
          "name": "token",
          "type": "address"
        }
      ],
      "name": "getSharesForDepositTokens",
      "outputs": [
        {
          "internalType": "uint256",
          "name": "",
          "type": "uint256"
        }
      ],
      "stateMutability": "view",
      "type": "function"
    },
    {
      "inputs": [],
      "name": "getStakedYeti",
      "outputs": [
        {
          "internalType": "uint256",
          "name": "",
          "type": "uint256"
        }
      ],
      "stateMutability": "view",
      "type": "function"
    },
    {
      "inputs": [],
      "name": "getVeYETI",
      "outputs": [
        {
          "internalType": "uint256",
          "name": "",
          "type": "uint256"
        }
      ],
      "stateMutability": "view",
      "type": "function"
    },
    {
      "inputs": [
        {
          "internalType": "address",
          "name": "lptoken",
          "type": "address"
        }
      ],
      "name": "harvest",
      "outputs": [],
      "stateMutability": "nonpayable",
      "type": "function"
    },
    {
      "inputs": [],
      "name": "masterChef",
      "outputs": [
        {
          "internalType": "address",
          "name": "",
          "type": "address"
        }
      ],
      "stateMutability": "view",
      "type": "function"
    },
    {
      "inputs": [],
      "name": "owner",
      "outputs": [
        {
          "internalType": "address",
          "name": "",
          "type": "address"
        }
      ],
      "stateMutability": "view",
      "type": "function"
    },
    {
      "inputs": [
        {
          "internalType": "address",
          "name": "",
          "type": "address"
        }
      ],
      "name": "pools",
      "outputs": [
        {
          "internalType": "bool",
          "name": "isActive",
          "type": "bool"
        },
        {
          "internalType": "address",
          "name": "lpAddress",
          "type": "address"
        },
        {
          "internalType": "uint256",
          "name": "sizeLp",
          "type": "uint256"
        },
        {
          "internalType": "address",
          "name": "receiptToken",
          "type": "address"
        },
        {
          "internalType": "address",
          "name": "rewarder",
          "type": "address"
        },
        {
          "internalType": "bool",
          "name": "stabilitypool",
          "type": "bool"
        },
        {
          "internalType": "address",
          "name": "addressPool",
          "type": "address"
        }
      ],
      "stateMutability": "view",
      "type": "function"
    },
    {
      "inputs": [
        {
          "internalType": "address",
          "name": "_lpAddress",
          "type": "address"
        },
        {
          "internalType": "string",
          "name": "receiptName",
          "type": "string"
        },
        {
          "internalType": "string",
          "name": "receiptSymbol",
          "type": "string"
        },
        {
          "internalType": "uint256",
          "name": "allocPoints",
          "type": "uint256"
        },
        {
          "internalType": "bool",
          "name": "_stabilitypool",
          "type": "bool"
        },
        {
          "internalType": "address",
          "name": "_addressPool",
          "type": "address"
        }
      ],
      "name": "registerPool",
      "outputs": [],
      "stateMutability": "nonpayable",
      "type": "function"
    },
    {
      "inputs": [
        {
          "internalType": "uint256",
          "name": "index",
          "type": "uint256"
        }
      ],
      "name": "removeFee",
      "outputs": [],
      "stateMutability": "nonpayable",
      "type": "function"
    },
    {
      "inputs": [
        {
          "internalType": "address",
          "name": "token",
          "type": "address"
        }
      ],
      "name": "removePool",
      "outputs": [],
      "stateMutability": "nonpayable",
      "type": "function"
    },
    {
      "inputs": [],
      "name": "renounceOwnership",
      "outputs": [],
      "stateMutability": "nonpayable",
      "type": "function"
    },
    {
      "inputs": [],
      "name": "rewarderVeYeti",
      "outputs": [
        {
          "internalType": "address",
          "name": "",
          "type": "address"
        }
      ],
      "stateMutability": "view",
      "type": "function"
    },
    {
      "inputs": [],
      "name": "rgnYETI",
      "outputs": [
        {
          "internalType": "address",
          "name": "",
          "type": "address"
        }
      ],
      "stateMutability": "view",
      "type": "function"
    },
    {
      "inputs": [
        {
          "internalType": "address",
          "name": "_token",
          "type": "address"
        },
        {
          "internalType": "address",
          "name": "_rewarder",
          "type": "address"
        }
      ],
      "name": "sendTokenRewards",
      "outputs": [],
      "stateMutability": "nonpayable",
      "type": "function"
    },
    {
      "inputs": [
        {
          "internalType": "uint256",
          "name": "value",
          "type": "uint256"
        }
      ],
      "name": "setCallerFee",
      "outputs": [],
      "stateMutability": "nonpayable",
      "type": "function"
    },
    {
      "inputs": [
        {
          "internalType": "uint256",
          "name": "index",
          "type": "uint256"
        },
        {
          "internalType": "uint256",
          "name": "value",
          "type": "uint256"
        }
      ],
      "name": "setFee",
      "outputs": [],
      "stateMutability": "nonpayable",
      "type": "function"
    },
    {
      "inputs": [
        {
          "internalType": "address",
          "name": "_RGNYETI",
          "type": "address"
        }
      ],
      "name": "setRGNYETI",
      "outputs": [],
      "stateMutability": "nonpayable",
      "type": "function"
    },
    {
      "inputs": [],
      "name": "stabilitypool",
      "outputs": [
        {
          "internalType": "address",
          "name": "",
          "type": "address"
        }
      ],
      "stateMutability": "view",
      "type": "function"
    },
    {
      "inputs": [
        {
          "internalType": "address",
          "name": "boostedfarm",
          "type": "address"
        }
      ],
      "name": "stakeAllYETI",
      "outputs": [],
      "stateMutability": "nonpayable",
      "type": "function"
    },
    {
      "inputs": [],
      "name": "stakeLpCurve",
      "outputs": [
        {
          "internalType": "address",
          "name": "",
          "type": "address"
        }
      ],
      "stateMutability": "view",
      "type": "function"
    },
    {
      "inputs": [
        {
          "internalType": "uint256",
          "name": "amount",
          "type": "uint256"
        },
        {
          "internalType": "address",
          "name": "boostedfarm",
          "type": "address"
        }
      ],
      "name": "stakeYETI",
      "outputs": [],
      "stateMutability": "nonpayable",
      "type": "function"
    },
    {
      "inputs": [],
      "name": "staking_veyeti",
      "outputs": [
        {
          "internalType": "address",
          "name": "",
          "type": "address"
        }
      ],
      "stateMutability": "view",
      "type": "function"
    },
    {
      "inputs": [],
      "name": "totalFee",
      "outputs": [
        {
          "internalType": "uint256",
          "name": "",
          "type": "uint256"
        }
      ],
      "stateMutability": "view",
      "type": "function"
    },
    {
      "inputs": [
        {
          "internalType": "address",
          "name": "newOwner",
          "type": "address"
        }
      ],
      "name": "transferOwnership",
      "outputs": [],
      "stateMutability": "nonpayable",
      "type": "function"
    },
    {
      "inputs": [],
      "name": "veYETIFee",
      "outputs": [
        {
          "internalType": "address",
          "name": "",
          "type": "address"
        }
      ],
      "stateMutability": "view",
      "type": "function"
    },
    {
      "inputs": [
        {
          "internalType": "address",
          "name": "lptoken",
          "type": "address"
        },
        {
          "internalType": "uint256",
          "name": "amount",
          "type": "uint256"
        },
        {
          "internalType": "address",
          "name": "sender",
          "type": "address"
        }
      ],
      "name": "withdraw",
      "outputs": [],
      "stateMutability": "nonpayable",
      "type": "function"
    },
    {
      "inputs": [],
      "name": "yeti",
      "outputs": [
        {
          "internalType": "address",
          "name": "",
          "type": "address"
        }
      ],
      "stateMutability": "view",
      "type": "function"
    },
    {
      "inputs": [],
      "name": "yusd",
      "outputs": [
        {
          "internalType": "address",
          "name": "",
          "type": "address"
        }
      ],
      "stateMutability": "view",
      "type": "function"
    }
  ],
  "bytecode": "0x608060405234801561001057600080fd5b50614e7b806100206000396000f3fe608060405234801561001057600080fd5b506004361061028a5760003560e01c8063792b50e31161015c578063bc063e1a116100ce578063f45346dc11610087578063f45346dc146106f0578063f6a2332014610703578063f7094b0b1461070c578063f77c47911461071f578063fc7e286d14610732578063fe171992146107525761028a565b8063bc063e1a146106ae578063ce4b5bbe146106b7578063dc68129f146106c2578063f080608814610486578063f0a9e100146106d5578063f2fde38b146106dd5761028a565b8063973480901161012057806397348090146105fc57806397ead2761461060f57806399cec54814610622578063a20baee614610635578063a4063dbc14610644578063a4469625146106a65761028a565b8063792b50e31461052f57806380c5dc041461055057806380f0b60e1461056357806386da0824146105765780638da5cb5b146105eb5761028a565b806336d313121161020057806353aa7dcd116101b957806353aa7dcd146104d2578063575a86b2146104e557806364a4f078146104f85780636857d3a71461050157806369328dec14610514578063715018a6146105275761028a565b806336d3131214610460578063394ab7e51461047357806339d4d8b1146104865780633b7d094614610499578063499a2818146104ac57806352f7c988146104bf5761028a565b8063151f7cd611610252578063151f7cd6146103a75780631df4ccfc146103ba5780631fded071146103d15780632c7b09cb146103e4578063300a87c71461043a578063343e613a1461044d5761028a565b806302b9c8081461028f57806306b924dd146102bf57806306bfa938146102d45780630b907198146103815780630e5c011e14610394575b600080fd5b606b546102a2906001600160a01b031681565b6040516001600160a01b0390911681526020015b60405180910390f35b6102d26102cd366004614665565b610765565b005b61033e6102e2366004614665565b6001600160a01b039081166000908152607260205260409020805460018201546002830154600384015460049094015460ff8085169761010090950487169693959284169483851694600160a01b909404909116929190911690565b6040805197151588526001600160a01b039687166020890152870194909452918416606086015283166080850152151560a08401521660c082015260e0016102b6565b606a546102a2906001600160a01b031681565b6102d26103a2366004614665565b6107eb565b6068546102a2906001600160a01b031681565b6103c360715481565b6040519081526020016102b6565b6102d26103df36600461476a565b610bee565b6103f76103f2366004614944565b610feb565b604080519788526020880196909652948601939093526001600160a01b03909116606085015215156080840152151560a0830152151560c082015260e0016102b6565b6103c3610448366004614665565b61104f565b6066546102a2906001600160a01b031681565b6102d261046e3660046146d5565b6110a5565b6067546102a2906001600160a01b031681565b6103c3610494366004614974565b6111e4565b6102d26104a7366004614665565b6112ba565b6102d26104ba366004614944565b611305565b6102d26104cd366004614998565b6113cf565b6102d26104e0366004614944565b6115a6565b6069546102a2906001600160a01b031681565b6103c360705481565b6102d261050f3660046149b9565b61167b565b6102d261052236600461480d565b611931565b6102d2611f0b565b61054261053d366004614665565b611f41565b6040516102b6929190614af5565b6065546102a2906001600160a01b031681565b6102d2610571366004614974565b611fb1565b6105bc610584366004614665565b6074602052600090815260409020600181015460028201546003909201549091906001600160801b0380821691600160801b90041684565b6040805194855260208501939093526001600160801b03918216928401929092521660608201526080016102b6565b6033546001600160a01b03166102a2565b606f546102a2906001600160a01b031681565b6102d261061d36600461469d565b6121f3565b6103c3610630366004614974565b612446565b6103c3670de0b6b3a764000081565b61033e610652366004614665565b6072602052600090815260409020805460018201546002830154600384015460049094015460ff808516956001600160a01b036101009096048616959384169381811693600160a01b909204909216911687565b6103c3612505565b6103c36107d081565b6103c3633b9aca0081565b6102d26106d0366004614665565b612587565b6103c3612622565b6102d26106eb366004614665565b612653565b6102d26106fe36600461480d565b6126eb565b6103c36101f481565b6103c361071a366004614665565b612d20565b606c546102a2906001600160a01b031681565b6103c3610740366004614665565b60736020526000908152604090205481565b606d546102a2906001600160a01b031681565b6066546040516370a0823160e01b81523060048201526107e8916001600160a01b0316906370a082319060240160206040518083038186803b1580156107aa57600080fd5b505afa1580156107be573d6000803e3d6000fd5b505050506040513d601f19601f820116820180604052508101906107e2919061495c565b82611fb1565b50565b6001600160a01b0381166000908152607260205260409020805460ff1661082d5760405162461bcd60e51b815260040161082490614c94565b60405180910390fd5b6003810154600160a01b900460ff16151560011415610a15576066546040516370a0823160e01b81523060048201526000916001600160a01b0316906370a082319060240160206040518083038186803b15801561088a57600080fd5b505afa15801561089e573d6000803e3d6000fd5b505050506040513d601f19601f820116820180604052508101906108c2919061495c565b606b54604051632e54bf9560e01b8152600060048201529192506001600160a01b031690632e54bf9590602401600060405180830381600087803b15801561090957600080fd5b505af115801561091d573d6000803e3d6000fd5b50506066546040516370a0823160e01b8152306004820152600093508492506001600160a01b03909116906370a082319060240160206040518083038186803b15801561096957600080fd5b505afa15801561097d573d6000803e3d6000fd5b505050506040513d601f19601f820116820180604052508101906109a1919061495c565b6109ab9190614d98565b600384015490915081906109c9906001600160a01b03168280612d72565b7f13b72c40e8b70bafbaa7cc26861069d075844d1772d9fb55395c759828ed3247826109f58382614d98565b6040805192835260208301919091520160405180910390a1505050610bea565b6066546040516370a0823160e01b81523060048201526000916001600160a01b0316906370a082319060240160206040518083038186803b158015610a5957600080fd5b505afa158015610a6d573d6000803e3d6000fd5b505050506040513d601f19601f82011682018060405250810190610a91919061495c565b600480840154604051632e1a7d4d60e01b81529293506001600160a01b031691632e1a7d4d91610ac8916000910190815260200190565b600060405180830381600087803b158015610ae257600080fd5b505af1158015610af6573d6000803e3d6000fd5b50506066546040516370a0823160e01b8152306004820152600093508492506001600160a01b03909116906370a082319060240160206040518083038186803b158015610b4257600080fd5b505afa158015610b56573d6000803e3d6000fd5b505050506040513d601f19601f82011682018060405250810190610b7a919061495c565b610b849190614d98565b60038401549091508190610ba2906001600160a01b03168280612d72565b7f13b72c40e8b70bafbaa7cc26861069d075844d1772d9fb55395c759828ed324782610bce8382614d98565b6040805192835260208301919091520160405180910390a15050505b5050565b6033546001600160a01b03163314610c185760405162461bcd60e51b815260040161082490614c14565b6001600160a01b03861660009081526072602052604090205460ff1615610c8d5760405162461bcd60e51b8152602060048201526024808201527f506f6f6c20697320616c72656164792072656769737465726564206f722061636044820152637469766560e01b6064820152608401610824565b60405163478064b160e11b815260009073__$44ee5446d8d662fddfe2195ccea8824cc4$__90638f00c96290610cc99089908990600401614bef565b60206040518083038186803b158015610ce157600080fd5b505af4158015610cf5573d6000803e3d6000fd5b505050506040513d601f19601f82011682018060405250810190610d199190614681565b606954606654604051631d9f877360e11b81526001600160a01b0380851660048301529182166024820152929350600092911690633b3f0ee690604401602060405180830381600087803b158015610d7057600080fd5b505af1158015610d84573d6000803e3d6000fd5b505050506040513d601f19601f82011682018060405250810190610da89190614681565b60695460405163156fbc1360e31b8152600481018890526001600160a01b038581166024830152808416604483015292935091169063ab7de09890606401600060405180830381600087803b158015610e0057600080fd5b505af1158015610e14573d6000803e3d6000fd5b505050506040518060e00160405280600115158152602001896001600160a01b0316815260200160008152602001836001600160a01b03168152602001826001600160a01b031681526020018515158152602001846001600160a01b0316815250607260008a6001600160a01b03166001600160a01b0316815260200190815260200160002060008201518160000160006101000a81548160ff02191690831515021790555060208201518160000160016101000a8154816001600160a01b0302191690836001600160a01b031602179055506040820151816001015560608201518160020160006101000a8154816001600160a01b0302191690836001600160a01b0316021790555060808201518160030160006101000a8154816001600160a01b0302191690836001600160a01b0316021790555060a08201518160030160146101000a81548160ff02191690831515021790555060c08201518160040160006101000a8154816001600160a01b0302191690836001600160a01b031602179055509050507f73cca62ab1b520c9715bf4e6c71e3e518c754e7148f65102f43289a7df0efea688604051610fd991906001600160a01b0391909116815260200190565b60405180910390a15050505050505050565b606e8181548110610ffb57600080fd5b6000918252602090912060049091020180546001820154600283015460039093015491935091906001600160a01b0381169060ff600160a01b8204811691600160a81b8104821691600160b01b9091041687565b6001600160a01b038116600090815260736020526040812054806110775760009150506110a0565b6001600160a01b03831660009081526074602052604081209061109a8383613280565b93505050505b919050565b600054610100900460ff166110c05760005460ff16156110c4565b303b155b6111275760405162461bcd60e51b815260206004820152602e60248201527f496e697469616c697a61626c653a20636f6e747261637420697320616c72656160448201526d191e481a5b9a5d1a585b1a5e995960921b6064820152608401610824565b600054610100900460ff16158015611152576000805460ff1961ff0019909116610100171660011790555b61115a613574565b606580546001600160a01b03199081166001600160a01b038a8116919091179092556066805482168b8416179055606980548216898416179055606c80548216888416179055606b80548216878416179055606a80548216868416179055606d805490911691841691909117905580156111da576000805461ff00191690555b5050505050505050565b6001600160a01b0380821660009081526072602090815260408083206001810154600282015483516318160ddd60e01b81529351959692959194879491909316926318160ddd92600480840193829003018186803b15801561124557600080fd5b505afa158015611259573d6000803e3d6000fd5b505050506040513d601f19601f8201168201806040525081019061127d919061495c565b90506112898282614d51565b61129957600093505050506112b4565b806112a48388614d51565b6112ae9190614d31565b93505050505b92915050565b6033546001600160a01b031633146112e45760405162461bcd60e51b815260040161082490614c14565b6001600160a01b03166000908152607260205260409020805460ff19169055565b6033546001600160a01b0316331461132f5760405162461bcd60e51b815260040161082490614c14565b6000606e828154811061135257634e487b7160e01b600052603260045260246000fd5b906000526020600020906004020190508060020154607160008282546113789190614d98565b909155505060038101805460ff60b01b1981169091556040516001600160a01b0390911681527f5493db1723859b50d9e2f6dbcda6da662098ea59bf451ad2a31ad62289ed54a19060200160405180910390a15050565b6033546001600160a01b031633146113f95760405162461bcd60e51b815260040161082490614c14565b6000606e838154811061141c57634e487b7160e01b600052603260045260246000fd5b906000526020600020906004020190508060030160169054906101000a900460ff1661147b5760405162461bcd60e51b815260206004820152600e60248201526d4e6f6e2d6163746976652066656560901b6044820152606401610824565b81816001015411158015611490575080548211155b6114d15760405162461bcd60e51b815260206004820152601260248201527156616c7565206e6f7420696e2072616e676560701b6044820152606401610824565b6107d08160020154836071546114e79190614d19565b6114f19190614d98565b11156115315760405162461bcd60e51b815260206004820152600f60248201526e13585e08199959481c995858da1959608a1b6044820152606401610824565b8181600201546071546115449190614d98565b61154e9190614d19565b6071556002810182905560038101546040517f01fe2943baee27f47add82886c2200f910c749c461c9b63c5fe83901a53bdb4991611599916001600160a01b03909116908590614ab9565b60405180910390a1505050565b6033546001600160a01b031633146115d05760405162461bcd60e51b815260040161082490614c14565b6101f48111156116135760405162461bcd60e51b815260206004820152600e60248201526d0acc2d8eaca40e8dede40d0d2ced60931b6044820152606401610824565b607054816071546116249190614d19565b61162e9190614d98565b60718190556107d010156116765760405162461bcd60e51b815260206004820152600f60248201526e13505608119959481c995858da1959608a1b6044820152606401610824565b607055565b6033546001600160a01b031633146116a55760405162461bcd60e51b815260040161082490614c14565b6107d0856071546116b69190614d19565b11156116f65760405162461bcd60e51b815260206004820152600f60248201526e13585e08199959481c995858da1959608a1b6044820152606401610824565b8486111580156117065750868511155b6117475760405162461bcd60e51b815260206004820152601260248201527156616c7565206e6f7420696e2072616e676560701b6044820152606401610824565b6040805160e081018252888152602081018881529181018781526001600160a01b03878116606084019081528715156080850190815287151560a08601908152600160c08701818152606e8054928301815560005296517f9930d9ff0dee0ef5ca2f7710ea66b8f84dd0f5f5351ecffe72b952cd9db7142a60049092029182015596517f9930d9ff0dee0ef5ca2f7710ea66b8f84dd0f5f5351ecffe72b952cd9db7142b88015593517f9930d9ff0dee0ef5ca2f7710ea66b8f84dd0f5f5351ecffe72b952cd9db7142c87015590517f9930d9ff0dee0ef5ca2f7710ea66b8f84dd0f5f5351ecffe72b952cd9db7142d90950180549151935194516001600160a01b0319909216959092169490941760ff60a01b1916600160a01b921515929092029190911760ff60a81b1916600160a81b921515929092029190911760ff60b01b1916600160b01b9215159290920291909117905580156118bf57606f80546001600160a01b0319166001600160a01b0386161790555b84607160008282546118d19190614d19565b9091555050604080516001600160a01b03861681526020810187905284151581830152831515606082015290517f6b67376f541493b7df6bcb8449800492e63d937edfb837763a818d3be5baa2839181900360800190a150505050505050565b6001600160a01b0383166000908152607260205260409020805460ff1661196a5760405162461bcd60e51b815260040161082490614c94565b6003810154600160a01b900460ff16151560011415611c3c576001600160a01b0382166000908152607360205260409020546119a5816135ab565b6119ae856107eb565b6000806119ba85611f41565b9150915060006119c98661104f565b905060006119d788836135f8565b60695460028801546040516333b377df60e11b81529293506001600160a01b0391821692636766efbe92611a1392169085908c90600401614ad2565b600060405180830381600087803b158015611a2d57600080fd5b505af1158015611a41573d6000803e3d6000fd5b5050506002870154604051632770a7eb60e21b81526001600160a01b039091169150639dc29fac90611a799030908590600401614ab9565b600060405180830381600087803b158015611a9357600080fd5b505af1158015611aa7573d6000803e3d6000fd5b5050606b5460405163095ea7b360e01b81526001600160a01b03808e16945063095ea7b39350611add9216908590600401614ab9565b602060405180830381600087803b158015611af757600080fd5b505af1158015611b0b573d6000803e3d6000fd5b505050506040513d601f19601f82011682018060405250810190611b2f9190614901565b50606b54604051632e54bf9560e01b8152600481018390526001600160a01b0390911690632e54bf9590602401600060405180830381600087803b158015611b7657600080fd5b505af1158015611b8a573d6000803e3d6000fd5b5050606a54611ba692506001600160a01b031690508883613610565b611bb187858561366b565b6000611bbd8383613753565b9050611bc98882613784565b88876001016000828254611bdd9190614d98565b92505081905550896001600160a01b0316886001600160a01b03167f7715f7aec5164b178862f96610f97644e00e0abfca2a6d3f425cc7d93284856f8b604051611c2991815260200190565b60405180910390a3505050505050611f05565b611c45846107eb565b60695460028201546040516333b377df60e11b81526001600160a01b0392831692636766efbe92611c7f9291169087908790600401614ad2565b600060405180830381600087803b158015611c9957600080fd5b505af1158015611cad573d6000803e3d6000fd5b5050506002820154604051632770a7eb60e21b81526001600160a01b039091169150639dc29fac90611ce59085908790600401614ab9565b600060405180830381600087803b158015611cff57600080fd5b505af1158015611d13573d6000803e3d6000fd5b5050505060048181015460405163095ea7b360e01b81526001600160a01b038781169363095ea7b393611d4b93921691889101614ab9565b602060405180830381600087803b158015611d6557600080fd5b505af1158015611d79573d6000803e3d6000fd5b505050506040513d601f19601f82011682018060405250810190611d9d9190614901565b50600481810154604051632e1a7d4d60e01b81529182018590526001600160a01b031690632e1a7d4d90602401600060405180830381600087803b158015611de457600080fd5b505af1158015611df8573d6000803e3d6000fd5b50611e11925050506001600160a01b0385168385613610565b600281015460695460405163095ea7b360e01b81526001600160a01b039283169263095ea7b392611e49929116908790600401614ab9565b602060405180830381600087803b158015611e6357600080fd5b505af1158015611e77573d6000803e3d6000fd5b505050506040513d601f19601f82011682018060405250810190611e9b9190614901565b5082816001016000828254611eb09190614d98565b92505081905550836001600160a01b0316826001600160a01b03167f7715f7aec5164b178862f96610f97644e00e0abfca2a6d3f425cc7d93284856f85604051611efc91815260200190565b60405180910390a35b50505050565b6033546001600160a01b03163314611f355760405162461bcd60e51b815260040161082490614c14565b611f3f6000613cf5565b565b6001600160a01b038116600090815260736020526040902054606090819080611f83575050604080516000808252602082019081528183019092529150611fac565b6001600160a01b0384166000908152607460205260409020611fa58282613d47565b9350935050505b915091565b8115610bea576066546040516323b872dd60e01b81526001600160a01b03909116906323b872dd90611feb90339030908790600401614a6b565b602060405180830381600087803b15801561200557600080fd5b505af1158015612019573d6000803e3d6000fd5b505050506040513d601f19601f8201168201806040525081019061203d9190614901565b5060665460655460405163095ea7b360e01b81526001600160a01b039283169263095ea7b392612074929116908690600401614ab9565b602060405180830381600087803b15801561208e57600080fd5b505af11580156120a2573d6000803e3d6000fd5b505050506040513d601f19601f820116820180604052508101906120c69190614901565b50604080516001808252818301909252600091816020015b60408051606081018252600080825260208083018290529282015282526000199092019101816120de5790505090506040518060600160405280836001600160a01b03168152602001848152602001600115158152508160008151811061215557634e487b7160e01b600052603260045260246000fd5b6020908102919091010152606554604051630deec22760e41b81526001600160a01b039091169063deec227090612190908490600401614b78565b600060405180830381600087803b1580156121aa57600080fd5b505af11580156121be573d6000803e3d6000fd5b505050507ff58f7c5d390d4a2b07ee26436df1a0e427a473906547fe45525c85923f1e6a0e8360405161159991815260200190565b6033546001600160a01b0316331461221d5760405162461bcd60e51b815260040161082490614c14565b6066546001600160a01b038381169116141561226c5760405162461bcd60e51b815260206004820152600e60248201526d1b9bdd08185d5d1a1bdc9a5e995960921b6044820152606401610824565b6001600160a01b03821660009081526072602052604090205460ff16156122c65760405162461bcd60e51b815260206004820152600e60248201526d139bdd08185d5d1a1bdc9a5e995960921b6044820152606401610824565b6040516370a0823160e01b81523060048201526000906001600160a01b038416906370a082319060240160206040518083038186803b15801561230857600080fd5b505afa15801561231c573d6000803e3d6000fd5b505050506040513d601f19601f82011682018060405250810190612340919061495c565b60405163095ea7b360e01b81529091506001600160a01b0384169063095ea7b3906123719085908590600401614ab9565b602060405180830381600087803b15801561238b57600080fd5b505af115801561239f573d6000803e3d6000fd5b505050506040513d601f19601f820116820180604052508101906123c39190614901565b506040516347e7a41160e11b8152600481018290526001600160a01b038481166024830152831690638fcf482290604401602060405180830381600087803b15801561240e57600080fd5b505af1158015612422573d6000803e3d6000fd5b505050506040513d601f19601f82011682018060405250810190611f059190614901565b6001600160a01b0380821660009081526072602090815260408083206001810154600282015483516318160ddd60e01b81529351959692959194879491909316926318160ddd92600480840193829003018186803b1580156124a757600080fd5b505afa1580156124bb573d6000803e3d6000fd5b505050506040513d601f19601f820116820180604052508101906124df919061495c565b90506124eb8282614d51565b6124fa578593505050506112b4565b816112a48288614d51565b606554604051630a95bceb60e01b81523060048201526000916001600160a01b031690630a95bceb906024015b60206040518083038186803b15801561254a57600080fd5b505afa15801561255e573d6000803e3d6000fd5b505050506040513d601f19601f82011682018060405250810190612582919061495c565b905090565b6033546001600160a01b031633146125b15760405162461bcd60e51b815260040161082490614c14565b6067546001600160a01b0316156126005760405162461bcd60e51b81526020600482015260136024820152721c99db9651551248185b1c9958591e481cd95d606a1b6044820152606401610824565b606780546001600160a01b0319166001600160a01b0392909216919091179055565b60655460405163015f4e5760e71b81523060048201526000916001600160a01b03169063afa72b8090602401612532565b6033546001600160a01b0316331461267d5760405162461bcd60e51b815260040161082490614c14565b6001600160a01b0381166126e25760405162461bcd60e51b815260206004820152602660248201527f4f776e61626c653a206e6577206f776e657220697320746865207a65726f206160448201526564647265737360d01b6064820152608401610824565b6107e881613cf5565b6001600160a01b0383166000908152607260205260409020805460ff166127245760405162461bcd60e51b815260040161082490614c94565b6003810154600160a01b900460ff16151560011415612a575760018101541561275057612750846107eb565b6127656001600160a01b038516833086613ead565b606b5460405163095ea7b360e01b81526001600160a01b038681169263095ea7b39261279992909116908790600401614ab9565b602060405180830381600087803b1580156127b357600080fd5b505af11580156127c7573d6000803e3d6000fd5b505050506040513d601f19601f820116820180604052508101906127eb9190614901565b50606b54604051631e31de8960e21b8152600481018590526001600160a01b03909116906378c77a2490602401600060405180830381600087803b15801561283257600080fd5b505af1158015612846573d6000803e3d6000fd5b5050505060008061285684611f41565b9150915060006128658561104f565b905060006128738288613ece565b905061287f8682613784565b61288a86858561366b565b60028501546040516340c10f1960e01b81526001600160a01b03909116906340c10f19906128be9030908b90600401614ab9565b600060405180830381600087803b1580156128d857600080fd5b505af11580156128ec573d6000803e3d6000fd5b505050600286015460695460405163095ea7b360e01b81526001600160a01b03928316935063095ea7b3926129279216908b90600401614ab9565b602060405180830381600087803b15801561294157600080fd5b505af1158015612955573d6000803e3d6000fd5b505050506040513d601f19601f820116820180604052508101906129799190614901565b50606954600286015460405163322083db60e21b81526001600160a01b039283169263c8820f6c926129b4929116908b908b90600401614ad2565b600060405180830381600087803b1580156129ce57600080fd5b505af11580156129e2573d6000803e3d6000fd5b50505050868560010160008282546129fa9190614d19565b92505081905550876001600160a01b0316866001600160a01b03167f83df459d706116d1b3f1c7b7f77cfea4c635275f5d1e1a53827f536ef48db77d89604051612a4691815260200190565b60405180910390a350505050611f05565b600181015415612a6a57612a6a846107eb565b612a7f6001600160a01b038516833086613ead565b60048082015460405163095ea7b360e01b81526001600160a01b038088169363095ea7b393612ab393921691889101614ab9565b602060405180830381600087803b158015612acd57600080fd5b505af1158015612ae1573d6000803e3d6000fd5b505050506040513d601f19601f82011682018060405250810190612b059190614901565b5060048181015460405163b6b55f2560e01b81529182018590526001600160a01b03169063b6b55f2590602401600060405180830381600087803b158015612b4c57600080fd5b505af1158015612b60573d6000803e3d6000fd5b50505060028201546040516340c10f1960e01b81526001600160a01b0390911691506340c10f1990612b989030908790600401614ab9565b600060405180830381600087803b158015612bb257600080fd5b505af1158015612bc6573d6000803e3d6000fd5b505050600282015460695460405163095ea7b360e01b81526001600160a01b03928316935063095ea7b392612c019216908790600401614ab9565b602060405180830381600087803b158015612c1b57600080fd5b505af1158015612c2f573d6000803e3d6000fd5b505050506040513d601f19601f82011682018060405250810190612c539190614901565b50606954600282015460405163322083db60e21b81526001600160a01b039283169263c8820f6c92612c8e9291169087908790600401614ad2565b600060405180830381600087803b158015612ca857600080fd5b505af1158015612cbc573d6000803e3d6000fd5b5050505082816001016000828254612cd49190614d19565b92505081905550836001600160a01b0316826001600160a01b03167f83df459d706116d1b3f1c7b7f77cfea4c635275f5d1e1a53827f536ef48db77d85604051611efc91815260200190565b6001600160a01b03811660009081526073602052604081205480612d485760009150506110a0565b6001600160a01b0383166000908152607460205260409020612d6a8282613f1c565b949350505050565b606e5460005b81811015613126576000606e8281548110612da357634e487b7160e01b600052603260045260246000fd5b906000526020600020906004020190508060030160169054906101000a900460ff16156131135760665460028201546001600160a01b039091169060009061271090612def9089614d51565b612df99190614d31565b6003840154909150600160a01b900460ff16612f055760665460675460405163095ea7b360e01b81526001600160a01b039283169263095ea7b392612e45929116908590600401614ab9565b602060405180830381600087803b158015612e5f57600080fd5b505af1158015612e73573d6000803e3d6000fd5b505050506040513d601f19601f82011682018060405250810190612e979190614901565b5060675460405163b6b55f2560e01b8152600481018390526001600160a01b039091169063b6b55f2590602401600060405180830381600087803b158015612ede57600080fd5b505af1158015612ef2573d6000803e3d6000fd5b50506067546001600160a01b0316935050505b6003830154600160a81b900460ff1661302f57600383015460405163095ea7b360e01b81526001600160a01b038481169263095ea7b392612f4e92909116908590600401614ab9565b602060405180830381600087803b158015612f6857600080fd5b505af1158015612f7c573d6000803e3d6000fd5b505050506040513d601f19601f82011682018060405250810190612fa09190614901565b5060038301546040516347e7a41160e11b8152600481018390526001600160a01b03848116602483015290911690638fcf482290604401602060405180830381600087803b158015612ff157600080fd5b505af1158015613005573d6000803e3d6000fd5b505050506040513d601f19601f820116820180604052508101906130299190614901565b50613104565b600383015460405163a9059cbb60e01b81526001600160a01b038481169263a9059cbb9261306592909116908590600401614ab9565b602060405180830381600087803b15801561307f57600080fd5b505af1158015613093573d6000803e3d6000fd5b505050506040513d601f19601f820116820180604052508101906130b79190614901565b5060038301546040517f6c33b8f6b4f8ba21a4621cc77c018fbb4c7663cfa25929f02dc8d36abde462c5916130fb916001600160a01b039091169085908590614a6b565b60405180910390a15b61310e8187614d98565b955050505b508061311e81614ddb565b915050612d78565b5060665460405163095ea7b360e01b81526001600160a01b039091169063095ea7b3906131599087908690600401614ab9565b602060405180830381600087803b15801561317357600080fd5b505af1158015613187573d6000803e3d6000fd5b505050506040513d601f19601f820116820180604052508101906131ab9190614901565b506066546040516347e7a41160e11b8152600481018490526001600160a01b03918216602482015290851690638fcf482290604401602060405180830381600087803b1580156131fa57600080fd5b505af115801561320e573d6000803e3d6000fd5b505050506040513d601f19601f820116820180604052508101906132329190614901565b506066546040517f6c33b8f6b4f8ba21a4621cc77c018fbb4c7663cfa25929f02dc8d36abde462c5916132729187916001600160a01b0316908690614a6b565b60405180910390a150505050565b60018101546003820154606b5460408051630ecce30160e31b81529051600094936001600160801b0380821694600160801b90920416926001600160a01b0390911691637667180891600480820192602092909190829003018186803b1580156132e957600080fd5b505afa1580156132fd573d6000803e3d6000fd5b505050506040513d601f19601f82011682018060405250810190613321919061491d565b6001600160801b0316816001600160801b0316101561334657600093505050506112b4565b6000806133e284606b60009054906101000a90046001600160a01b03166001600160a01b031663a4e59ac86040518163ffffffff1660e01b815260040160206040518083038186803b15801561339b57600080fd5b505afa1580156133af573d6000803e3d6000fd5b505050506040513d601f19601f820116820180604052508101906133d3919061491d565b6001600160801b0316906140c1565b90506001600160801b0381166134935761348c85613486606b60009054906101000a90046001600160a01b03166001600160a01b0316638b8fbd926040518163ffffffff1660e01b815260040160206040518083038186803b15801561344757600080fd5b505afa15801561345b573d6000803e3d6000fd5b505050506040513d601f19601f8201168201806040525081019061347f919061495c565b8b9061413f565b906141a3565b9150613546565b806001600160801b0316600114156135415761348c633b9aca0061348687613486606b60009054906101000a90046001600160a01b03166001600160a01b0316638b8fbd926040518163ffffffff1660e01b815260040160206040518083038186803b15801561350257600080fd5b505afa158015613516573d6000803e3d6000fd5b505050506040513d601f19601f8201168201806040525081019061353a919061495c565b8d9061413f565b600091505b61355488633b9aca006141a3565b821015613569576000955050505050506112b4565b509695505050505050565b600054610100900460ff1661359b5760405162461bcd60e51b815260040161082490614c49565b6135a36141d0565b611f3f6141f7565b806107e85760405162461bcd60e51b815260206004820152601b60248201527f53503a2072657175697265206e6f6e7a65726f206465706f73697400000000006044820152606401610824565b60008183106136075781613609565b825b9392505050565b6136668363a9059cbb60e01b848460405160240161362f929190614ab9565b60408051601f198184030181529190526020810180516001600160e01b03166001600160e01b031990931692909217909152614227565b505050565b8151815181146136b25760405162461bcd60e51b81526020600482015260126024820152710a6a07498cadccee8d040dad2e6dac2e8c6d60731b6044820152606401610824565b60005b8181101561374c5760008382815181106136df57634e487b7160e01b600052603260045260246000fd5b60200260200101519050600085838151811061370b57634e487b7160e01b600052603260045260246000fd5b60200260200101519050816000141561372557505061373c565b6137396001600160a01b0382168884613610565b50505b61374581614ddb565b90506136b5565b5050505050565b600061360983836040518060400160405280600c81526020016b737562206f766572666c6f7760a01b8152506142f9565b6001600160a01b0382166000908152607360205260409020819055806138df57606c5460408051634eb5750560e11b815290516000926001600160a01b031691639d6aea0a9160048083019286929190829003018186803b1580156137e857600080fd5b505afa1580156137fc573d6000803e3d6000fd5b505050506040513d6000823e601f3d908101601f19168201604052613824919081019061484e565b805190915060005b818110156138ad576001600160a01b03851660009081526074602052604081208451829086908590811061387057634e487b7160e01b600052603260045260246000fd5b60200260200101516001600160a01b03166001600160a01b0316815260200190815260200160002081905550806138a690614ddb565b905061382c565b5050506001600160a01b0382166000908152607460205260408120600181018290556002810182905560030155610bea565b606b546040805163149cb35960e31b815290516000926001600160a01b03169163a4e59ac8916004808301926020929190829003018186803b15801561392457600080fd5b505afa158015613938573d6000803e3d6000fd5b505050506040513d601f19601f8201168201806040525081019061395c919061491d565b90506000606b60009054906101000a90046001600160a01b03166001600160a01b031663766718086040518163ffffffff1660e01b815260040160206040518083038186803b1580156139ae57600080fd5b505afa1580156139c2573d6000803e3d6000fd5b505050506040513d601f19601f820116820180604052508101906139e6919061491d565b90506000606b60009054906101000a90046001600160a01b03166001600160a01b0316638b8fbd926040518163ffffffff1660e01b815260040160206040518083038186803b158015613a3857600080fd5b505afa158015613a4c573d6000803e3d6000fd5b505050506040513d601f19601f82011682018060405250810190613a70919061495c565b90506000606c60009054906101000a90046001600160a01b03166001600160a01b0316639d6aea0a6040518163ffffffff1660e01b815260040160006040518083038186803b158015613ac257600080fd5b505afa158015613ad6573d6000803e3d6000fd5b505050506040513d6000823e601f3d908101601f19168201604052613afe919081019061484e565b805190915060005b81811015613c03576000838281518110613b3057634e487b7160e01b600052603260045260246000fd5b6020908102919091010151606b54604051637ee4196b60e01b81529192506000916001600160a01b0390911690637ee4196b90613b759085908b908d90600401614a8f565b60206040518083038186803b158015613b8d57600080fd5b505afa158015613ba1573d6000803e3d6000fd5b505050506040513d601f19601f82011682018060405250810190613bc5919061495c565b6001600160a01b03808c166000908152607460209081526040808320969093168252949094529092209190915550613bfc81614ddb565b9050613b06565b50606b546040516320b8295d60e21b81526001600160801b038088166004830152861660248201526000916001600160a01b0316906382e0a5749060440160206040518083038186803b158015613c5957600080fd5b505afa158015613c6d573d6000803e3d6000fd5b505050506040513d601f19601f82011682018060405250810190613c91919061495c565b6001600160a01b03891660009081526074602052604090206001810195909555600285015550505060030180546001600160801b03928316600160801b029383166fffffffffffffffffffffffffffffffff19909116179091169190911790555050565b603380546001600160a01b038381166001600160a01b0319831681179093556040519116919082907f8be0079c531659141344cd1fd0a4f28419497f9722a3daafe3b4186f6b6457e090600090a35050565b606080606c60009054906101000a90046001600160a01b03166001600160a01b0316639d6aea0a6040518163ffffffff1660e01b815260040160006040518083038186803b158015613d9857600080fd5b505afa158015613dac573d6000803e3d6000fd5b505050506040513d6000823e601f3d908101601f19168201604052613dd4919081019061484e565b80519092508067ffffffffffffffff811115613e0057634e487b7160e01b600052604160045260246000fd5b604051908082528060200260200182016040528015613e29578160200160208202803683370190505b50915060005b81811015613ea457613e698686868481518110613e5c57634e487b7160e01b600052603260045260246000fd5b6020026020010151614333565b838281518110613e8957634e487b7160e01b600052603260045260246000fd5b6020908102919091010152613e9d81614ddb565b9050613e2f565b50509250929050565b611f05846323b872dd60e01b85858560405160240161362f93929190614a6b565b600080613edb8385614d19565b9050838110156136095760405162461bcd60e51b815260206004820152600c60248201526b616464206f766572666c6f7760a01b6044820152606401610824565b600381015460028201546001830154606b546040516320b8295d60e21b81526001600160801b03600160801b8604811660048301819052951660248201819052600095949093909290918691613fd89185916001600160a01b0316906382e0a574906044015b60206040518083038186803b158015613f9a57600080fd5b505afa158015613fae573d6000803e3d6000fd5b505050506040513d601f19601f82011682018060405250810190613fd2919061495c565b90613753565b606b5490915060009061408d90633b9aca00906001600160a01b03166382e0a5748961400e6001600160801b038b16600161443c565b6040516001600160e01b031960e085901b1681526001600160801b039283166004820152911660248201526044015b60206040518083038186803b15801561405557600080fd5b505afa158015614069573d6000803e3d6000fd5b505050506040513d601f19601f82011682018060405250810190613486919061495c565b905060006140b3670de0b6b3a764000061348686816140ac8888613ece565b8f9061413f565b9a9950505050505050505050565b6000826001600160801b0316826001600160801b031611156141335760405162461bcd60e51b815260206004820152602560248201527f59657469536166654d6174683132383a207375627472616374696f6e206f766560448201526472666c6f7760d81b6064820152608401610824565b6000612d6a8385614d70565b60008261414e575060006112b4565b600061415a8385614d51565b9050826141678583614d31565b146136095760405162461bcd60e51b815260206004820152600c60248201526b6d756c206f766572666c6f7760a01b6044820152606401610824565b6000613609838360405180604001604052806008815260200167064697620627920360c41b8152506144b8565b600054610100900460ff16611f3f5760405162461bcd60e51b815260040161082490614c49565b600054610100900460ff1661421e5760405162461bcd60e51b815260040161082490614c49565b611f3f33613cf5565b600061427c826040518060400160405280602081526020017f5361666545524332303a206c6f772d6c6576656c2063616c6c206661696c6564815250856001600160a01b03166144e69092919063ffffffff16565b805190915015613666578080602001905181019061429a9190614901565b6136665760405162461bcd60e51b815260206004820152602a60248201527f5361666545524332303a204552433230206f7065726174696f6e20646964206e6044820152691bdd081cdd58d8d9595960b21b6064820152608401610824565b6000818484111561431d5760405162461bcd60e51b81526004016108249190614bdc565b50600061432a8486614d98565b95945050505050565b6001600160a01b03808216600090815260208490526040808220546001860154606b5460038801549351637ee4196b60e01b815294959294919386936143a193879390911691637ee4196b91613f82918b916001600160801b03600160801b83048116921690600401614a8f565b606b54600388015491925060009161440991633b9aca00916001600160a01b0390911690637ee4196b908a906001600160801b03600160801b82048116916143eb9116600161443c565b6040518463ffffffff1660e01b815260040161403d93929190614a8f565b9050600061442f670de0b6b3a764000061348686816144288888613ece565b8e9061413f565b9998505050505050505050565b6000806144498385614cee565b9050836001600160801b0316816001600160801b031610156136095760405162461bcd60e51b815260206004820152602260248201527f59657469536166654d6174683132383a206164646974696f6e206f766572666c6044820152616f7760f01b6064820152608401610824565b600081836144d95760405162461bcd60e51b81526004016108249190614bdc565b50600061432a8486614d31565b6060612d6a8484600085856001600160a01b0385163b6145485760405162461bcd60e51b815260206004820152601d60248201527f416464726573733a2063616c6c20746f206e6f6e2d636f6e74726163740000006044820152606401610824565b600080866001600160a01b031685876040516145649190614a4f565b60006040518083038185875af1925050503d80600081146145a1576040519150601f19603f3d011682016040523d82523d6000602084013e6145a6565b606091505b50915091506145b68282866145c1565b979650505050505050565b606083156145d0575081613609565b8251156145e05782518084602001fd5b8160405162461bcd60e51b81526004016108249190614bdc565b600082601f83011261460a578081fd5b813567ffffffffffffffff81111561462457614624614e0c565b614637601f8201601f1916602001614cbd565b81815284602083860101111561464b578283fd5b816020850160208301379081016020019190915292915050565b600060208284031215614676578081fd5b813561360981614e22565b600060208284031215614692578081fd5b815161360981614e22565b600080604083850312156146af578081fd5b82356146ba81614e22565b915060208301356146ca81614e22565b809150509250929050565b600080600080600080600060e0888a0312156146ef578283fd5b87356146fa81614e22565b9650602088013561470a81614e22565b9550604088013561471a81614e22565b9450606088013561472a81614e22565b9350608088013561473a81614e22565b925060a088013561474a81614e22565b915060c088013561475a81614e22565b8091505092959891949750929550565b60008060008060008060c08789031215614782578182fd5b863561478d81614e22565b9550602087013567ffffffffffffffff808211156147a9578384fd5b6147b58a838b016145fa565b965060408901359150808211156147ca578384fd5b506147d789828a016145fa565b9450506060870135925060808701356147ef81614e37565b915060a08701356147ff81614e22565b809150509295509295509295565b600080600060608486031215614821578283fd5b833561482c81614e22565b925060208401359150604084013561484381614e22565b809150509250925092565b60006020808385031215614860578182fd5b825167ffffffffffffffff80821115614877578384fd5b818501915085601f83011261488a578384fd5b81518181111561489c5761489c614e0c565b83810291506148ac848301614cbd565b8181528481019084860184860187018a10156148c6578788fd5b8795505b838610156148f457805194506148df85614e22565b848352600195909501949186019186016148ca565b5098975050505050505050565b600060208284031215614912578081fd5b815161360981614e37565b60006020828403121561492e578081fd5b81516001600160801b0381168114613609578182fd5b600060208284031215614955578081fd5b5035919050565b60006020828403121561496d578081fd5b5051919050565b60008060408385031215614986578081fd5b8235915060208301356146ca81614e22565b600080604083850312156149aa578182fd5b50508035926020909101359150565b600080600080600080600060e0888a0312156149d3578081fd5b87359650602088013595506040880135945060608801356149f381614e22565b93506080880135614a0381614e37565b925060a0880135614a1381614e37565b915060c088013561475a81614e37565b60008151808452614a3b816020860160208601614daf565b601f01601f19169290920160200192915050565b60008251614a61818460208701614daf565b9190910192915050565b6001600160a01b039384168152919092166020820152604081019190915260600190565b6001600160a01b039390931683526001600160801b03918216602084015216604082015260600190565b6001600160a01b03929092168252602082015260400190565b6001600160a01b0393841681526020810192909252909116604082015260600190565b604080825283519082018190526000906020906060840190828701845b82811015614b375781516001600160a01b031684529284019290840190600101614b12565b50505083810382850152845180825285830191830190845b81811015614b6b57835183529284019291840191600101614b4f565b5090979650505050505050565b602080825282518282018190526000919060409081850190868401855b82811015614bcf57815180516001600160a01b03168552868101518786015285015115158585015260609093019290850190600101614b95565b5091979650505050505050565b6000602082526136096020830184614a23565b600060408252614c026040830185614a23565b828103602084015261432a8185614a23565b6020808252818101527f4f776e61626c653a2063616c6c6572206973206e6f7420746865206f776e6572604082015260600190565b6020808252602b908201527f496e697469616c697a61626c653a20636f6e7472616374206973206e6f74206960408201526a6e697469616c697a696e6760a81b606082015260800190565b6020808252600f908201526e506f6f6c206e6f742061637469766560881b604082015260600190565b604051601f8201601f1916810167ffffffffffffffff81118282101715614ce657614ce6614e0c565b604052919050565b60006001600160801b03808316818516808303821115614d1057614d10614df6565b01949350505050565b60008219821115614d2c57614d2c614df6565b500190565b600082614d4c57634e487b7160e01b81526012600452602481fd5b500490565b6000816000190483118215151615614d6b57614d6b614df6565b500290565b60006001600160801b0383811690831681811015614d9057614d90614df6565b039392505050565b600082821015614daa57614daa614df6565b500390565b60005b83811015614dca578181015183820152602001614db2565b83811115611f055750506000910152565b6000600019821415614def57614def614df6565b5060010190565b634e487b7160e01b600052601160045260246000fd5b634e487b7160e01b600052604160045260246000fd5b6001600160a01b03811681146107e857600080fd5b80151581146107e857600080fdfea26469706673582212203ea77a3ef2a710fbcdf423b92dd61c98c2ceb8c24a4f2c3f5d14d28f9cf0d13864736f6c63430008020033",
  "linkReferences": {
    "contracts/MainProtocol/YetiBooster.sol": {
      "ERC20FactoryLib": [
        {
          "length": 20,
          "start": 3263
        }
      ]
    }
  },
  "deployedLinkReferences": {
    "contracts/MainProtocol/YetiBooster.sol": {
      "ERC20FactoryLib": [
        {
          "length": 20,
          "start": 3231
        }
      ]
    }
  }
}