{
  "_format": "hh-sol-artifact-1",
  "contractName": "MainStaking",
  "sourceName": "contracts/MainProtocol/MainStaking.sol",
  "abi": [
    {
      "anonymous": false,
      "inputs": [
        {
          "indexed": false,
          "internalType": "address",
          "name": "to",
          "type": "address"
        },
        {
          "indexed": false,
          "internalType": "uint256",
          "name": "value",
          "type": "uint256"
        },
        {
          "indexed": false,
          "internalType": "bool",
          "name": "isYETI",
          "type": "bool"
        },
        {
          "indexed": false,
          "internalType": "bool",
          "name": "isAddress",
          "type": "bool"
        }
      ],
      "name": "AddFee",
      "type": "event"
    },
    {
      "anonymous": false,
      "inputs": [
        {
          "indexed": true,
          "internalType": "address",
          "name": "user",
          "type": "address"
        },
        {
          "indexed": true,
          "internalType": "address",
          "name": "token",
          "type": "address"
        },
        {
          "indexed": false,
          "internalType": "uint256",
          "name": "amount",
          "type": "uint256"
        }
      ],
      "name": "NewDeposit",
      "type": "event"
    },
    {
      "anonymous": false,
      "inputs": [
        {
          "indexed": true,
          "internalType": "address",
          "name": "user",
          "type": "address"
        },
        {
          "indexed": true,
          "internalType": "address",
          "name": "token",
          "type": "address"
        },
        {
          "indexed": false,
          "internalType": "uint256",
          "name": "amount",
          "type": "uint256"
        }
      ],
      "name": "NewWithdraw",
      "type": "event"
    },
    {
      "anonymous": false,
      "inputs": [
        {
          "indexed": false,
          "internalType": "uint256",
          "name": "amount",
          "type": "uint256"
        }
      ],
      "name": "NewYetiStaked",
      "type": "event"
    },
    {
      "anonymous": false,
      "inputs": [
        {
          "indexed": true,
          "internalType": "address",
          "name": "previousOwner",
          "type": "address"
        },
        {
          "indexed": true,
          "internalType": "address",
          "name": "newOwner",
          "type": "address"
        }
      ],
      "name": "OwnershipTransferred",
      "type": "event"
    },
    {
      "anonymous": false,
      "inputs": [
        {
          "indexed": false,
          "internalType": "address",
          "name": "tokenAddress",
          "type": "address"
        }
      ],
      "name": "PoolAdded",
      "type": "event"
    },
    {
      "anonymous": false,
      "inputs": [
        {
          "indexed": false,
          "internalType": "address",
          "name": "to",
          "type": "address"
        }
      ],
      "name": "RemoveFee",
      "type": "event"
    },
    {
      "anonymous": false,
      "inputs": [
        {
          "indexed": false,
          "internalType": "address",
          "name": "to",
          "type": "address"
        },
        {
          "indexed": false,
          "internalType": "address",
          "name": "rewardToken",
          "type": "address"
        },
        {
          "indexed": false,
          "internalType": "uint256",
          "name": "feeAmount",
          "type": "uint256"
        }
      ],
      "name": "RewardPaidTo",
      "type": "event"
    },
    {
      "anonymous": false,
      "inputs": [
        {
          "indexed": false,
          "internalType": "address",
          "name": "to",
          "type": "address"
        },
        {
          "indexed": false,
          "internalType": "uint256",
          "name": "value",
          "type": "uint256"
        }
      ],
      "name": "SetFee",
      "type": "event"
    },
    {
      "anonymous": false,
      "inputs": [
        {
          "indexed": false,
          "internalType": "uint256",
          "name": "amount",
          "type": "uint256"
        },
        {
          "indexed": false,
          "internalType": "uint256",
          "name": "callerFee",
          "type": "uint256"
        }
      ],
      "name": "YetiHarvested",
      "type": "event"
    },
    {
      "inputs": [],
      "name": "CALLER_FEE",
      "outputs": [
        {
          "internalType": "uint256",
          "name": "",
          "type": "uint256"
        }
      ],
      "stateMutability": "view",
      "type": "function"
    },
    {
      "inputs": [],
      "name": "DECIMAL_PRECISION",
      "outputs": [
        {
          "internalType": "uint256",
          "name": "",
          "type": "uint256"
        }
      ],
      "stateMutability": "view",
      "type": "function"
    },
    {
      "inputs": [],
      "name": "MAX_CALLER_FEE",
      "outputs": [
        {
          "internalType": "uint256",
          "name": "",
          "type": "uint256"
        }
      ],
      "stateMutability": "view",
      "type": "function"
    },
    {
      "inputs": [],
      "name": "MAX_FEE",
      "outputs": [
        {
          "internalType": "uint256",
          "name": "",
          "type": "uint256"
        }
      ],
      "stateMutability": "view",
      "type": "function"
    },
    {
      "inputs": [],
      "name": "SCALE_FACTOR",
      "outputs": [
        {
          "internalType": "uint256",
          "name": "",
          "type": "uint256"
        }
      ],
      "stateMutability": "view",
      "type": "function"
    },
    {
      "inputs": [
        {
          "internalType": "address",
          "name": "_yeti",
          "type": "address"
        },
        {
          "internalType": "address",
          "name": "_staking_veyeti",
          "type": "address"
        },
        {
          "internalType": "address",
          "name": "_masterChef",
          "type": "address"
        },
        {
          "internalType": "address",
          "name": "_controllerAddress",
          "type": "address"
        },
        {
          "internalType": "address",
          "name": "_stabilitypool",
          "type": "address"
        },
        {
          "internalType": "address",
          "name": "_yusd",
          "type": "address"
        },
        {
          "internalType": "address",
          "name": "_rewarderVeYeti",
          "type": "address"
        }
      ],
      "name": "__MainStaking_init",
      "outputs": [],
      "stateMutability": "nonpayable",
      "type": "function"
    },
    {
      "inputs": [
        {
          "internalType": "uint256",
          "name": "max",
          "type": "uint256"
        },
        {
          "internalType": "uint256",
          "name": "min",
          "type": "uint256"
        },
        {
          "internalType": "uint256",
          "name": "value",
          "type": "uint256"
        },
        {
          "internalType": "address",
          "name": "to",
          "type": "address"
        },
        {
          "internalType": "bool",
          "name": "isYETI",
          "type": "bool"
        },
        {
          "internalType": "bool",
          "name": "isAddress",
          "type": "bool"
        },
        {
          "internalType": "bool",
          "name": "isVeYETI",
          "type": "bool"
        }
      ],
      "name": "addFee",
      "outputs": [],
      "stateMutability": "nonpayable",
      "type": "function"
    },
    {
      "inputs": [],
      "name": "controller",
      "outputs": [
        {
          "internalType": "address",
          "name": "",
          "type": "address"
        }
      ],
      "stateMutability": "view",
      "type": "function"
    },
    {
      "inputs": [
        {
          "internalType": "address",
          "name": "lptoken",
          "type": "address"
        },
        {
          "internalType": "uint256",
          "name": "amount",
          "type": "uint256"
        },
        {
          "internalType": "address",
          "name": "sender",
          "type": "address"
        }
      ],
      "name": "deposit",
      "outputs": [],
      "stateMutability": "nonpayable",
      "type": "function"
    },
    {
      "inputs": [
        {
          "internalType": "address",
          "name": "",
          "type": "address"
        }
      ],
      "name": "depositSnapshots",
      "outputs": [
        {
          "internalType": "uint256",
          "name": "P",
          "type": "uint256"
        },
        {
          "internalType": "uint256",
          "name": "G",
          "type": "uint256"
        },
        {
          "internalType": "uint128",
          "name": "scale",
          "type": "uint128"
        },
        {
          "internalType": "uint128",
          "name": "epoch",
          "type": "uint128"
        }
      ],
      "stateMutability": "view",
      "type": "function"
    },
    {
      "inputs": [
        {
          "internalType": "address",
          "name": "",
          "type": "address"
        }
      ],
      "name": "deposits",
      "outputs": [
        {
          "internalType": "uint256",
          "name": "",
          "type": "uint256"
        }
      ],
      "stateMutability": "view",
      "type": "function"
    },
    {
      "inputs": [
        {
          "internalType": "uint256",
          "name": "",
          "type": "uint256"
        }
      ],
      "name": "feeInfos",
      "outputs": [
        {
          "internalType": "uint256",
          "name": "max_value",
          "type": "uint256"
        },
        {
          "internalType": "uint256",
          "name": "min_value",
          "type": "uint256"
        },
        {
          "internalType": "uint256",
          "name": "value",
          "type": "uint256"
        },
        {
          "internalType": "address",
          "name": "to",
          "type": "address"
        },
        {
          "internalType": "bool",
          "name": "isYETI",
          "type": "bool"
        },
        {
          "internalType": "bool",
          "name": "isAddress",
          "type": "bool"
        },
        {
          "internalType": "bool",
          "name": "isActive",
          "type": "bool"
        }
      ],
      "stateMutability": "view",
      "type": "function"
    },
    {
      "inputs": [
        {
          "internalType": "address",
          "name": "_depositor",
          "type": "address"
        }
      ],
      "name": "getCompoundedYUSDDeposit",
      "outputs": [
        {
          "internalType": "uint256",
          "name": "",
          "type": "uint256"
        }
      ],
      "stateMutability": "view",
      "type": "function"
    },
    {
      "inputs": [
        {
          "internalType": "uint256",
          "name": "amount",
          "type": "uint256"
        },
        {
          "internalType": "address",
          "name": "token",
          "type": "address"
        }
      ],
      "name": "getDepositTokensForShares",
      "outputs": [
        {
          "internalType": "uint256",
          "name": "",
          "type": "uint256"
        }
      ],
      "stateMutability": "view",
      "type": "function"
    },
    {
      "inputs": [
        {
          "internalType": "address",
          "name": "_depositor",
          "type": "address"
        }
      ],
      "name": "getDepositorGains",
      "outputs": [
        {
          "internalType": "address[]",
          "name": "",
          "type": "address[]"
        },
        {
          "internalType": "uint256[]",
          "name": "",
          "type": "uint256[]"
        }
      ],
      "stateMutability": "view",
      "type": "function"
    },
    {
      "inputs": [
        {
          "internalType": "address",
          "name": "_depositor",
          "type": "address"
        }
      ],
      "name": "getDepositorYETIGain",
      "outputs": [
        {
          "internalType": "uint256",
          "name": "",
          "type": "uint256"
        }
      ],
      "stateMutability": "view",
      "type": "function"
    },
    {
      "inputs": [
        {
          "internalType": "uint256",
          "name": "amount",
          "type": "uint256"
        },
        {
          "internalType": "address",
          "name": "token",
          "type": "address"
        }
      ],
      "name": "getLPTokensForShares",
      "outputs": [
        {
          "internalType": "uint256",
          "name": "",
          "type": "uint256"
        }
      ],
      "stateMutability": "view",
      "type": "function"
    },
    {
      "inputs": [
        {
          "internalType": "address",
          "name": "_address",
          "type": "address"
        }
      ],
      "name": "getPoolInfo",
      "outputs": [
        {
          "internalType": "bool",
          "name": "isActive",
          "type": "bool"
        },
        {
          "internalType": "address",
          "name": "lp",
          "type": "address"
        },
        {
          "internalType": "uint256",
          "name": "sizeLp",
          "type": "uint256"
        },
        {
          "internalType": "address",
          "name": "receipt",
          "type": "address"
        },
        {
          "internalType": "address",
          "name": "rewards_addr",
          "type": "address"
        },
        {
          "internalType": "bool",
          "name": "_stabilitypool",
          "type": "bool"
        },
        {
          "internalType": "address",
          "name": "addressPool",
          "type": "address"
        }
      ],
      "stateMutability": "view",
      "type": "function"
    },
    {
      "inputs": [
        {
          "internalType": "uint256",
          "name": "amount",
          "type": "uint256"
        },
        {
          "internalType": "address",
          "name": "token",
          "type": "address"
        }
      ],
      "name": "getSharesForDepositTokens",
      "outputs": [
        {
          "internalType": "uint256",
          "name": "",
          "type": "uint256"
        }
      ],
      "stateMutability": "view",
      "type": "function"
    },
    {
      "inputs": [],
      "name": "getStakedYeti",
      "outputs": [
        {
          "internalType": "uint256",
          "name": "",
          "type": "uint256"
        }
      ],
      "stateMutability": "view",
      "type": "function"
    },
    {
      "inputs": [],
      "name": "getVeYETI",
      "outputs": [
        {
          "internalType": "uint256",
          "name": "",
          "type": "uint256"
        }
      ],
      "stateMutability": "view",
      "type": "function"
    },
    {
      "inputs": [
        {
          "internalType": "address",
          "name": "lptoken",
          "type": "address"
        }
      ],
      "name": "harvest",
      "outputs": [],
      "stateMutability": "nonpayable",
      "type": "function"
    },
    {
      "inputs": [],
      "name": "masterChef",
      "outputs": [
        {
          "internalType": "address",
          "name": "",
          "type": "address"
        }
      ],
      "stateMutability": "view",
      "type": "function"
    },
    {
      "inputs": [],
      "name": "owner",
      "outputs": [
        {
          "internalType": "address",
          "name": "",
          "type": "address"
        }
      ],
      "stateMutability": "view",
      "type": "function"
    },
    {
      "inputs": [
        {
          "internalType": "address",
          "name": "",
          "type": "address"
        }
      ],
      "name": "pools",
      "outputs": [
        {
          "internalType": "bool",
          "name": "isActive",
          "type": "bool"
        },
        {
          "internalType": "address",
          "name": "lpAddress",
          "type": "address"
        },
        {
          "internalType": "uint256",
          "name": "sizeLp",
          "type": "uint256"
        },
        {
          "internalType": "address",
          "name": "receiptToken",
          "type": "address"
        },
        {
          "internalType": "address",
          "name": "rewarder",
          "type": "address"
        },
        {
          "internalType": "bool",
          "name": "stabilitypool",
          "type": "bool"
        },
        {
          "internalType": "address",
          "name": "addressPool",
          "type": "address"
        }
      ],
      "stateMutability": "view",
      "type": "function"
    },
    {
      "inputs": [
        {
          "internalType": "address",
          "name": "_lpAddress",
          "type": "address"
        },
        {
          "internalType": "string",
          "name": "receiptName",
          "type": "string"
        },
        {
          "internalType": "string",
          "name": "receiptSymbol",
          "type": "string"
        },
        {
          "internalType": "uint256",
          "name": "allocPoints",
          "type": "uint256"
        },
        {
          "internalType": "bool",
          "name": "_stabilitypool",
          "type": "bool"
        },
        {
          "internalType": "address",
          "name": "_addressPool",
          "type": "address"
        }
      ],
      "name": "registerPool",
      "outputs": [],
      "stateMutability": "nonpayable",
      "type": "function"
    },
    {
      "inputs": [
        {
          "internalType": "uint256",
          "name": "index",
          "type": "uint256"
        }
      ],
      "name": "removeFee",
      "outputs": [],
      "stateMutability": "nonpayable",
      "type": "function"
    },
    {
      "inputs": [
        {
          "internalType": "address",
          "name": "token",
          "type": "address"
        }
      ],
      "name": "removePool",
      "outputs": [],
      "stateMutability": "nonpayable",
      "type": "function"
    },
    {
      "inputs": [],
      "name": "renounceOwnership",
      "outputs": [],
      "stateMutability": "nonpayable",
      "type": "function"
    },
    {
      "inputs": [],
      "name": "rewarderVeYeti",
      "outputs": [
        {
          "internalType": "address",
          "name": "",
          "type": "address"
        }
      ],
      "stateMutability": "view",
      "type": "function"
    },
    {
      "inputs": [],
      "name": "rgnYETI",
      "outputs": [
        {
          "internalType": "address",
          "name": "",
          "type": "address"
        }
      ],
      "stateMutability": "view",
      "type": "function"
    },
    {
      "inputs": [
        {
          "internalType": "address",
          "name": "_token",
          "type": "address"
        },
        {
          "internalType": "address",
          "name": "_rewarder",
          "type": "address"
        }
      ],
      "name": "sendTokenRewards",
      "outputs": [],
      "stateMutability": "nonpayable",
      "type": "function"
    },
    {
      "inputs": [
        {
          "internalType": "uint256",
          "name": "value",
          "type": "uint256"
        }
      ],
      "name": "setCallerFee",
      "outputs": [],
      "stateMutability": "nonpayable",
      "type": "function"
    },
    {
      "inputs": [
        {
          "internalType": "uint256",
          "name": "index",
          "type": "uint256"
        },
        {
          "internalType": "uint256",
          "name": "value",
          "type": "uint256"
        }
      ],
      "name": "setFee",
      "outputs": [],
      "stateMutability": "nonpayable",
      "type": "function"
    },
    {
      "inputs": [
        {
          "internalType": "address",
          "name": "_RGNYETI",
          "type": "address"
        }
      ],
      "name": "setRGNYETI",
      "outputs": [],
      "stateMutability": "nonpayable",
      "type": "function"
    },
    {
      "inputs": [],
      "name": "stabilitypool",
      "outputs": [
        {
          "internalType": "address",
          "name": "",
          "type": "address"
        }
      ],
      "stateMutability": "view",
      "type": "function"
    },
    {
      "inputs": [
        {
          "internalType": "address",
          "name": "boostedfarm",
          "type": "address"
        }
      ],
      "name": "stakeAllYETI",
      "outputs": [],
      "stateMutability": "nonpayable",
      "type": "function"
    },
    {
      "inputs": [],
      "name": "stakeLpCurve",
      "outputs": [
        {
          "internalType": "address",
          "name": "",
          "type": "address"
        }
      ],
      "stateMutability": "view",
      "type": "function"
    },
    {
      "inputs": [
        {
          "internalType": "uint256",
          "name": "amount",
          "type": "uint256"
        },
        {
          "internalType": "address",
          "name": "boostedfarm",
          "type": "address"
        }
      ],
      "name": "stakeYETI",
      "outputs": [],
      "stateMutability": "nonpayable",
      "type": "function"
    },
    {
      "inputs": [],
      "name": "staking_veyeti",
      "outputs": [
        {
          "internalType": "address",
          "name": "",
          "type": "address"
        }
      ],
      "stateMutability": "view",
      "type": "function"
    },
    {
      "inputs": [],
      "name": "totalFee",
      "outputs": [
        {
          "internalType": "uint256",
          "name": "",
          "type": "uint256"
        }
      ],
      "stateMutability": "view",
      "type": "function"
    },
    {
      "inputs": [
        {
          "internalType": "address",
          "name": "newOwner",
          "type": "address"
        }
      ],
      "name": "transferOwnership",
      "outputs": [],
      "stateMutability": "nonpayable",
      "type": "function"
    },
    {
      "inputs": [],
      "name": "veYETIFee",
      "outputs": [
        {
          "internalType": "address",
          "name": "",
          "type": "address"
        }
      ],
      "stateMutability": "view",
      "type": "function"
    },
    {
      "inputs": [
        {
          "internalType": "address",
          "name": "lptoken",
          "type": "address"
        },
        {
          "internalType": "uint256",
          "name": "amount",
          "type": "uint256"
        },
        {
          "internalType": "address",
          "name": "sender",
          "type": "address"
        }
      ],
      "name": "withdraw",
      "outputs": [],
      "stateMutability": "nonpayable",
      "type": "function"
    },
    {
      "inputs": [],
      "name": "yeti",
      "outputs": [
        {
          "internalType": "address",
          "name": "",
          "type": "address"
        }
      ],
      "stateMutability": "view",
      "type": "function"
    },
    {
      "inputs": [],
      "name": "yusd",
      "outputs": [
        {
          "internalType": "address",
          "name": "",
          "type": "address"
        }
      ],
      "stateMutability": "view",
      "type": "function"
    }
  ],
  "bytecode": "0x608060405234801561001057600080fd5b50614f32806100206000396000f3fe608060405234801561001057600080fd5b506004361061028a5760003560e01c8063792b50e31161015c578063bc063e1a116100ce578063f45346dc11610087578063f45346dc146106e0578063f6a23320146106f3578063f7094b0b146106fc578063f77c47911461070f578063fc7e286d14610722578063fe171992146107425761028a565b8063bc063e1a1461069e578063ce4b5bbe146106a7578063dc68129f146106b2578063f08060881461047f578063f0a9e100146106c5578063f2fde38b146106cd5761028a565b8063973480901161012057806397348090146105ec57806397ead276146105ff57806399cec54814610612578063a20baee614610625578063a4063dbc14610634578063a4469625146106965761028a565b8063792b50e31461052857806380c5dc041461054957806380f0b60e1461055c57806386da08241461056f5780638da5cb5b146105e45761028a565b8063343e613a1161020057806353aa7dcd116101b957806353aa7dcd146104cb578063575a86b2146104de57806364a4f078146104f15780636857d3a7146104fa57806369328dec1461050d578063715018a6146105205761028a565b8063343e613a14610459578063394ab7e51461046c57806339d4d8b11461047f5780633b7d094614610492578063499a2818146104a557806352f7c988146104b85761028a565b80630e5c011e116102525780630e5c011e146103a0578063151f7cd6146103b35780631df4ccfc146103c65780631fded071146103dd5780632c7b09cb146103f0578063300a87c7146104465761028a565b806302b9c8081461028f57806306b924dd146102b857806306bfa938146102cd5780630b9071981461037a5780630df12f2e1461038d575b600080fd5b606b546102a2906001600160a01b031681565b6040516102af9190614a88565b60405180910390f35b6102cb6102c6366004614682565b610755565b005b6103376102db366004614682565b6001600160a01b039081166000908152607260205260409020805460018201546002830154600384015460049094015460ff8085169761010090950487169693959284169483851694600160a01b909404909116929190911690565b6040805197151588526001600160a01b039687166020890152870194909452918416606086015283166080850152151560a08401521660c082015260e0016102af565b606a546102a2906001600160a01b031681565b6102cb61039b3660046146f2565b6107e0565b6102cb6103ae366004614682565b610924565b6068546102a2906001600160a01b031681565b6103cf60715481565b6040519081526020016102af565b6102cb6103eb366004614787565b610d32565b6104036103fe366004614961565b611125565b604080519788526020880196909652948601939093526001600160a01b03909116606085015215156080840152151560a0830152151560c082015260e0016102af565b6103cf610454366004614682565b611189565b6066546102a2906001600160a01b031681565b6067546102a2906001600160a01b031681565b6103cf61048d366004614991565b6111df565b6102cb6104a0366004614682565b6112b5565b6102cb6104b3366004614961565b611305565b6102cb6104c63660046149b5565b6113d9565b6102cb6104d9366004614961565b61157d565b6069546102a2906001600160a01b031681565b6103cf60705481565b6102cb6105083660046149d6565b611657565b6102cb61051b36600461482a565b6118cb565b6102cb611ea5565b61053b610536366004614682565b611ee0565b6040516102af929190614b26565b6065546102a2906001600160a01b031681565b6102cb61056a366004614991565b611f50565b6105b561057d366004614682565b6074602052600090815260409020600181015460028201546003909201549091906001600160801b0380821691600160801b90041684565b6040805194855260208501939093526001600160801b03918216928401929092521660608201526080016102af565b6102a2612225565b606f546102a2906001600160a01b031681565b6102cb61060d3660046146ba565b612234565b6103cf610620366004614991565b61248f565b6103cf670de0b6b3a764000081565b610337610642366004614682565b6072602052600090815260409020805460018201546002830154600384015460049094015460ff808516956001600160a01b036101009096048616959384169381811693600160a01b909204909216911687565b6103cf61254e565b6103cf6107d081565b6103cf633b9aca0081565b6102cb6106c0366004614682565b6125d4565b6103cf612674565b6102cb6106db366004614682565b6126a5565b6102cb6106ee36600461482a565b612742565b6103cf6101f481565b6103cf61070a366004614682565b612d77565b606c546102a2906001600160a01b031681565b6103cf610730366004614682565b60736020526000908152604090205481565b606d546102a2906001600160a01b031681565b6066546040516370a0823160e01b81526107dd916001600160a01b0316906370a0823190610787903090600401614a88565b60206040518083038186803b15801561079f57600080fd5b505afa1580156107b3573d6000803e3d6000fd5b505050506040513d601f19601f820116820180604052508101906107d79190614979565b82611f50565b50565b600054610100900460ff166107fb5760005460ff16156107ff565b303b155b6108675760405162461bcd60e51b815260206004820152602e60248201527f496e697469616c697a61626c653a20636f6e747261637420697320616c72656160448201526d191e481a5b9a5d1a585b1a5e995960921b60648201526084015b60405180910390fd5b600054610100900460ff16158015610892576000805460ff1961ff0019909116610100171660011790555b61089a612dc9565b606580546001600160a01b03199081166001600160a01b038a8116919091179092556066805482168b8416179055606980548216898416179055606c80548216888416179055606b80548216878416179055606a80548216868416179055606d8054909116918416919091179055801561091a576000805461ff00191690555b5050505050505050565b6001600160a01b0381166000908152607260205260409020805460ff1661095d5760405162461bcd60e51b815260040161085e90614d1a565b6003810154600160a01b900460ff16151560011415610b4f576066546040516370a0823160e01b81526000916001600160a01b0316906370a08231906109a7903090600401614a88565b60206040518083038186803b1580156109bf57600080fd5b505afa1580156109d3573d6000803e3d6000fd5b505050506040513d601f19601f820116820180604052508101906109f79190614979565b606b54604051632e54bf9560e01b8152600060048201529192506001600160a01b031690632e54bf9590602401600060405180830381600087803b158015610a3e57600080fd5b505af1158015610a52573d6000803e3d6000fd5b50506066546040516370a0823160e01b8152600093508492506001600160a01b03909116906370a0823190610a8b903090600401614a88565b60206040518083038186803b158015610aa357600080fd5b505afa158015610ab7573d6000803e3d6000fd5b505050506040513d601f19601f82011682018060405250810190610adb9190614979565b610ae59190614e4f565b60038401549091508190610b03906001600160a01b03168280612e00565b7f13b72c40e8b70bafbaa7cc26861069d075844d1772d9fb55395c759828ed324782610b2f8382614e4f565b6040805192835260208301919091520160405180910390a1505050610d2e565b6066546040516370a0823160e01b81526000916001600160a01b0316906370a0823190610b80903090600401614a88565b60206040518083038186803b158015610b9857600080fd5b505afa158015610bac573d6000803e3d6000fd5b505050506040513d601f19601f82011682018060405250810190610bd09190614979565b600480840154604051632e1a7d4d60e01b81529293506001600160a01b031691632e1a7d4d91610c07916000910190815260200190565b600060405180830381600087803b158015610c2157600080fd5b505af1158015610c35573d6000803e3d6000fd5b50506066546040516370a0823160e01b8152600093508492506001600160a01b03909116906370a0823190610c6e903090600401614a88565b60206040518083038186803b158015610c8657600080fd5b505afa158015610c9a573d6000803e3d6000fd5b505050506040513d601f19601f82011682018060405250810190610cbe9190614979565b610cc89190614e4f565b60038401549091508190610ce6906001600160a01b03168280612e00565b7f13b72c40e8b70bafbaa7cc26861069d075844d1772d9fb55395c759828ed324782610d128382614e4f565b6040805192835260208301919091520160405180910390a15050505b5050565b33610d3b612225565b6001600160a01b031614610d615760405162461bcd60e51b815260040161085e90614c45565b6001600160a01b03861660009081526072602052604090205460ff1615610dd65760405162461bcd60e51b8152602060048201526024808201527f506f6f6c20697320616c72656164792072656769737465726564206f722061636044820152637469766560e01b606482015260840161085e565b60405163478064b160e11b815260009073__$c77194387fbc913e7e1e12fe86f5825d0c$__90638f00c96290610e129089908990600401614c20565b60206040518083038186803b158015610e2a57600080fd5b505af4158015610e3e573d6000803e3d6000fd5b505050506040513d601f19601f82011682018060405250810190610e62919061469e565b606954606654604051631d9f877360e11b81526001600160a01b0380851660048301529182166024820152929350600092911690633b3f0ee690604401602060405180830381600087803b158015610eb957600080fd5b505af1158015610ecd573d6000803e3d6000fd5b505050506040513d601f19601f82011682018060405250810190610ef1919061469e565b60695460405163156fbc1360e31b8152600481018890526001600160a01b038581166024830152808416604483015292935091169063ab7de09890606401600060405180830381600087803b158015610f4957600080fd5b505af1158015610f5d573d6000803e3d6000fd5b505050506040518060e00160405280600115158152602001896001600160a01b0316815260200160008152602001836001600160a01b03168152602001826001600160a01b031681526020018515158152602001846001600160a01b0316815250607260008a6001600160a01b03166001600160a01b0316815260200190815260200160002060008201518160000160006101000a81548160ff02191690831515021790555060208201518160000160016101000a8154816001600160a01b0302191690836001600160a01b031602179055506040820151816001015560608201518160020160006101000a8154816001600160a01b0302191690836001600160a01b0316021790555060808201518160030160006101000a8154816001600160a01b0302191690836001600160a01b0316021790555060a08201518160030160146101000a81548160ff02191690831515021790555060c08201518160040160006101000a8154816001600160a01b0302191690836001600160a01b031602179055509050507f73cca62ab1b520c9715bf4e6c71e3e518c754e7148f65102f43289a7df0efea6886040516111139190614a88565b60405180910390a15050505050505050565b606e818154811061113557600080fd5b6000918252602090912060049091020180546001820154600283015460039093015491935091906001600160a01b0381169060ff600160a01b8204811691600160a81b8104821691600160b01b9091041687565b6001600160a01b038116600090815260736020526040812054806111b15760009150506111da565b6001600160a01b0383166000908152607460205260408120906111d483836132fc565b93505050505b919050565b6001600160a01b0380821660009081526072602090815260408083206001810154600282015483516318160ddd60e01b81529351959692959194879491909316926318160ddd92600480840193829003018186803b15801561124057600080fd5b505afa158015611254573d6000803e3d6000fd5b505050506040513d601f19601f820116820180604052508101906112789190614979565b90506112848282614e08565b61129457600093505050506112af565b8061129f8388614e08565b6112a99190614de8565b93505050505b92915050565b336112be612225565b6001600160a01b0316146112e45760405162461bcd60e51b815260040161085e90614c45565b6001600160a01b03166000908152607260205260409020805460ff19169055565b3361130e612225565b6001600160a01b0316146113345760405162461bcd60e51b815260040161085e90614c45565b6000606e828154811061135757634e487b7160e01b600052603260045260246000fd5b9060005260206000209060040201905080600201546071600082825461137d9190614e4f565b909155505060038101805460ff60b01b1981169091556040517f5493db1723859b50d9e2f6dbcda6da662098ea59bf451ad2a31ad62289ed54a1916113cd916001600160a01b0390911690614a88565b60405180910390a15050565b336113e2612225565b6001600160a01b0316146114085760405162461bcd60e51b815260040161085e90614c45565b6000606e838154811061142b57634e487b7160e01b600052603260045260246000fd5b906000526020600020906004020190508060030160169054906101000a900460ff166114995760405162461bcd60e51b815260206004820181905260248201527f43616e6e6f74206368616e676520616e20646561637469766174656420666565604482015260640161085e565b818160010154111580156114ae575080548211155b6114ca5760405162461bcd60e51b815260040161085e90614cc5565b6107d08160020154836071546114e09190614dd0565b6114ea9190614e4f565b11156115085760405162461bcd60e51b815260040161085e90614cf1565b81816002015460715461151b9190614e4f565b6115259190614dd0565b6071556002810182905560038101546040517f01fe2943baee27f47add82886c2200f910c749c461c9b63c5fe83901a53bdb4991611570916001600160a01b03909116908590614aea565b60405180910390a1505050565b33611586612225565b6001600160a01b0316146115ac5760405162461bcd60e51b815260040161085e90614c45565b6101f48111156115ef5760405162461bcd60e51b815260206004820152600e60248201526d0acc2d8eaca40e8dede40d0d2ced60931b604482015260640161085e565b607054816071546116009190614dd0565b61160a9190614e4f565b60718190556107d010156116525760405162461bcd60e51b815260206004820152600f60248201526e13505608119959481c995858da1959608a1b604482015260640161085e565b607055565b33611660612225565b6001600160a01b0316146116865760405162461bcd60e51b815260040161085e90614c45565b6107d0856071546116979190614dd0565b11156116b55760405162461bcd60e51b815260040161085e90614cf1565b8486111580156116c55750868511155b6116e15760405162461bcd60e51b815260040161085e90614cc5565b6040805160e081018252888152602081018881529181018781526001600160a01b03878116606084019081528715156080850190815287151560a08601908152600160c08701818152606e8054928301815560005296517f9930d9ff0dee0ef5ca2f7710ea66b8f84dd0f5f5351ecffe72b952cd9db7142a60049092029182015596517f9930d9ff0dee0ef5ca2f7710ea66b8f84dd0f5f5351ecffe72b952cd9db7142b88015593517f9930d9ff0dee0ef5ca2f7710ea66b8f84dd0f5f5351ecffe72b952cd9db7142c87015590517f9930d9ff0dee0ef5ca2f7710ea66b8f84dd0f5f5351ecffe72b952cd9db7142d90950180549151935194516001600160a01b0319909216959092169490941760ff60a01b1916600160a01b921515929092029190911760ff60a81b1916600160a81b921515929092029190911760ff60b01b1916600160b01b92151592909202919091179055801561185957606f80546001600160a01b0319166001600160a01b0386161790555b846071600082825461186b9190614dd0565b9091555050604080516001600160a01b03861681526020810187905284151581830152831515606082015290517f6b67376f541493b7df6bcb8449800492e63d937edfb837763a818d3be5baa2839181900360800190a150505050505050565b6001600160a01b0383166000908152607260205260409020805460ff166119045760405162461bcd60e51b815260040161085e90614d1a565b6003810154600160a01b900460ff16151560011415611bd6576001600160a01b03821660009081526073602052604090205461193f816135f0565b61194885610924565b60008061195485611ee0565b91509150600061196386611189565b90506000611971888361363d565b60695460028801546040516333b377df60e11b81529293506001600160a01b0391821692636766efbe926119ad92169085908c90600401614b03565b600060405180830381600087803b1580156119c757600080fd5b505af11580156119db573d6000803e3d6000fd5b5050506002870154604051632770a7eb60e21b81526001600160a01b039091169150639dc29fac90611a139030908590600401614aea565b600060405180830381600087803b158015611a2d57600080fd5b505af1158015611a41573d6000803e3d6000fd5b5050606b5460405163095ea7b360e01b81526001600160a01b03808e16945063095ea7b39350611a779216908590600401614aea565b602060405180830381600087803b158015611a9157600080fd5b505af1158015611aa5573d6000803e3d6000fd5b505050506040513d601f19601f82011682018060405250810190611ac9919061491e565b50606b54604051632e54bf9560e01b8152600481018390526001600160a01b0390911690632e54bf9590602401600060405180830381600087803b158015611b1057600080fd5b505af1158015611b24573d6000803e3d6000fd5b5050606a54611b4092506001600160a01b031690508883613655565b611b4b8785856136b0565b6000611b578383613798565b9050611b6388826137c9565b88876001016000828254611b779190614e4f565b92505081905550896001600160a01b0316886001600160a01b03167f7715f7aec5164b178862f96610f97644e00e0abfca2a6d3f425cc7d93284856f8b604051611bc391815260200190565b60405180910390a3505050505050611e9f565b611bdf84610924565b60695460028201546040516333b377df60e11b81526001600160a01b0392831692636766efbe92611c199291169087908790600401614b03565b600060405180830381600087803b158015611c3357600080fd5b505af1158015611c47573d6000803e3d6000fd5b5050506002820154604051632770a7eb60e21b81526001600160a01b039091169150639dc29fac90611c7f9085908790600401614aea565b600060405180830381600087803b158015611c9957600080fd5b505af1158015611cad573d6000803e3d6000fd5b5050505060048181015460405163095ea7b360e01b81526001600160a01b038781169363095ea7b393611ce593921691889101614aea565b602060405180830381600087803b158015611cff57600080fd5b505af1158015611d13573d6000803e3d6000fd5b505050506040513d601f19601f82011682018060405250810190611d37919061491e565b50600481810154604051632e1a7d4d60e01b81529182018590526001600160a01b031690632e1a7d4d90602401600060405180830381600087803b158015611d7e57600080fd5b505af1158015611d92573d6000803e3d6000fd5b50611dab925050506001600160a01b0385168385613655565b600281015460695460405163095ea7b360e01b81526001600160a01b039283169263095ea7b392611de3929116908790600401614aea565b602060405180830381600087803b158015611dfd57600080fd5b505af1158015611e11573d6000803e3d6000fd5b505050506040513d601f19601f82011682018060405250810190611e35919061491e565b5082816001016000828254611e4a9190614e4f565b92505081905550836001600160a01b0316826001600160a01b03167f7715f7aec5164b178862f96610f97644e00e0abfca2a6d3f425cc7d93284856f85604051611e9691815260200190565b60405180910390a35b50505050565b33611eae612225565b6001600160a01b031614611ed45760405162461bcd60e51b815260040161085e90614c45565b611ede6000613d27565b565b6001600160a01b038116600090815260736020526040902054606090819080611f22575050604080516000808252602082019081528183019092529150611f4b565b6001600160a01b0384166000908152607460205260409020611f448282613d79565b9350935050505b915091565b8115610d2e576066546040516323b872dd60e01b81526001600160a01b03909116906323b872dd90611f8a90339030908790600401614a9c565b602060405180830381600087803b158015611fa457600080fd5b505af1158015611fb8573d6000803e3d6000fd5b505050506040513d601f19601f82011682018060405250810190611fdc919061491e565b5060665460655460405163095ea7b360e01b81526001600160a01b039283169263095ea7b392612013929116908690600401614aea565b602060405180830381600087803b15801561202d57600080fd5b505af1158015612041573d6000803e3d6000fd5b505050506040513d601f19601f82011682018060405250810190612065919061491e565b50604080516001808252818301909252600091816020015b604080516060810182526000808252602080830182905292820152825260001990920191018161207d5790505090506040518060600160405280836001600160a01b0316815260200184815260200160011515815250816000815181106120f457634e487b7160e01b600052603260045260246000fd5b6020908102919091010152606554604051630deec22760e41b81526001600160a01b039091169063deec22709061212f908490600401614ba9565b600060405180830381600087803b15801561214957600080fd5b505af115801561215d573d6000803e3d6000fd5b50506066546040516370a0823160e01b8152600093506001600160a01b0390911691506370a0823190612194903090600401614a88565b60206040518083038186803b1580156121ac57600080fd5b505afa1580156121c0573d6000803e3d6000fd5b505050506040513d601f19601f820116820180604052508101906121e49190614979565b90507ff58f7c5d390d4a2b07ee26436df1a0e427a473906547fe45525c85923f1e6a0e8460405161221791815260200190565b60405180910390a150505050565b6033546001600160a01b031690565b3361223d612225565b6001600160a01b0316146122635760405162461bcd60e51b815260040161085e90614c45565b6066546001600160a01b03838116911614156122b25760405162461bcd60e51b815260206004820152600e60248201526d1b9bdd08185d5d1a1bdc9a5e995960921b604482015260640161085e565b6001600160a01b03821660009081526072602052604090205460ff161561230c5760405162461bcd60e51b815260206004820152600e60248201526d139bdd08185d5d1a1bdc9a5e995960921b604482015260640161085e565b6040516370a0823160e01b81526000906001600160a01b038416906370a082319061233b903090600401614a88565b60206040518083038186803b15801561235357600080fd5b505afa158015612367573d6000803e3d6000fd5b505050506040513d601f19601f8201168201806040525081019061238b9190614979565b60405163095ea7b360e01b81529091506001600160a01b0384169063095ea7b3906123bc9085908590600401614aea565b602060405180830381600087803b1580156123d657600080fd5b505af11580156123ea573d6000803e3d6000fd5b505050506040513d601f19601f8201168201806040525081019061240e919061491e565b506040516347e7a41160e11b81526001600160a01b03831690638fcf48229061243d9084908790600401614d5d565b602060405180830381600087803b15801561245757600080fd5b505af115801561246b573d6000803e3d6000fd5b505050506040513d601f19601f82011682018060405250810190611e9f919061491e565b6001600160a01b0380821660009081526072602090815260408083206001810154600282015483516318160ddd60e01b81529351959692959194879491909316926318160ddd92600480840193829003018186803b1580156124f057600080fd5b505afa158015612504573d6000803e3d6000fd5b505050506040513d601f19601f820116820180604052508101906125289190614979565b90506125348282614e08565b612543578593505050506112af565b8161129f8288614e08565b606554604051630a95bceb60e01b81526000916001600160a01b031690630a95bceb9061257f903090600401614a88565b60206040518083038186803b15801561259757600080fd5b505afa1580156125ab573d6000803e3d6000fd5b505050506040513d601f19601f820116820180604052508101906125cf9190614979565b905090565b336125dd612225565b6001600160a01b0316146126035760405162461bcd60e51b815260040161085e90614c45565b6067546001600160a01b0316156126525760405162461bcd60e51b81526020600482015260136024820152721c99db9651551248185b1c9958591e481cd95d606a1b604482015260640161085e565b606780546001600160a01b0319166001600160a01b0392909216919091179055565b60655460405163015f4e5760e71b81526000916001600160a01b03169063afa72b809061257f903090600401614a88565b336126ae612225565b6001600160a01b0316146126d45760405162461bcd60e51b815260040161085e90614c45565b6001600160a01b0381166127395760405162461bcd60e51b815260206004820152602660248201527f4f776e61626c653a206e6577206f776e657220697320746865207a65726f206160448201526564647265737360d01b606482015260840161085e565b6107dd81613d27565b6001600160a01b0383166000908152607260205260409020805460ff1661277b5760405162461bcd60e51b815260040161085e90614d1a565b6003810154600160a01b900460ff16151560011415612aae576001810154156127a7576127a784610924565b6127bc6001600160a01b038516833086613edf565b606b5460405163095ea7b360e01b81526001600160a01b038681169263095ea7b3926127f092909116908790600401614aea565b602060405180830381600087803b15801561280a57600080fd5b505af115801561281e573d6000803e3d6000fd5b505050506040513d601f19601f82011682018060405250810190612842919061491e565b50606b54604051631e31de8960e21b8152600481018590526001600160a01b03909116906378c77a2490602401600060405180830381600087803b15801561288957600080fd5b505af115801561289d573d6000803e3d6000fd5b505050506000806128ad84611ee0565b9150915060006128bc85611189565b905060006128ca8288613f00565b90506128d686826137c9565b6128e18685856136b0565b60028501546040516340c10f1960e01b81526001600160a01b03909116906340c10f19906129159030908b90600401614aea565b600060405180830381600087803b15801561292f57600080fd5b505af1158015612943573d6000803e3d6000fd5b505050600286015460695460405163095ea7b360e01b81526001600160a01b03928316935063095ea7b39261297e9216908b90600401614aea565b602060405180830381600087803b15801561299857600080fd5b505af11580156129ac573d6000803e3d6000fd5b505050506040513d601f19601f820116820180604052508101906129d0919061491e565b50606954600286015460405163322083db60e21b81526001600160a01b039283169263c8820f6c92612a0b929116908b908b90600401614b03565b600060405180830381600087803b158015612a2557600080fd5b505af1158015612a39573d6000803e3d6000fd5b5050505086856001016000828254612a519190614dd0565b92505081905550876001600160a01b0316866001600160a01b03167f83df459d706116d1b3f1c7b7f77cfea4c635275f5d1e1a53827f536ef48db77d89604051612a9d91815260200190565b60405180910390a350505050611e9f565b600181015415612ac157612ac184610924565b612ad66001600160a01b038516833086613edf565b60048082015460405163095ea7b360e01b81526001600160a01b038088169363095ea7b393612b0a93921691889101614aea565b602060405180830381600087803b158015612b2457600080fd5b505af1158015612b38573d6000803e3d6000fd5b505050506040513d601f19601f82011682018060405250810190612b5c919061491e565b5060048181015460405163b6b55f2560e01b81529182018590526001600160a01b03169063b6b55f2590602401600060405180830381600087803b158015612ba357600080fd5b505af1158015612bb7573d6000803e3d6000fd5b50505060028201546040516340c10f1960e01b81526001600160a01b0390911691506340c10f1990612bef9030908790600401614aea565b600060405180830381600087803b158015612c0957600080fd5b505af1158015612c1d573d6000803e3d6000fd5b505050600282015460695460405163095ea7b360e01b81526001600160a01b03928316935063095ea7b392612c589216908790600401614aea565b602060405180830381600087803b158015612c7257600080fd5b505af1158015612c86573d6000803e3d6000fd5b505050506040513d601f19601f82011682018060405250810190612caa919061491e565b50606954600282015460405163322083db60e21b81526001600160a01b039283169263c8820f6c92612ce59291169087908790600401614b03565b600060405180830381600087803b158015612cff57600080fd5b505af1158015612d13573d6000803e3d6000fd5b5050505082816001016000828254612d2b9190614dd0565b92505081905550836001600160a01b0316826001600160a01b03167f83df459d706116d1b3f1c7b7f77cfea4c635275f5d1e1a53827f536ef48db77d85604051611e9691815260200190565b6001600160a01b03811660009081526073602052604081205480612d9f5760009150506111da565b6001600160a01b0383166000908152607460205260409020612dc18282613f4e565b949350505050565b600054610100900460ff16612df05760405162461bcd60e51b815260040161085e90614c7a565b612df86140de565b611ede614105565b606e5460005b818110156131b2576000606e8281548110612e3157634e487b7160e01b600052603260045260246000fd5b906000526020600020906004020190508060030160169054906101000a900460ff161561319f5760665460028201546001600160a01b039091169060009061271090612e7d9089614e08565b612e879190614de8565b6003840154909150600160a01b900460ff16612f935760665460675460405163095ea7b360e01b81526001600160a01b039283169263095ea7b392612ed3929116908590600401614aea565b602060405180830381600087803b158015612eed57600080fd5b505af1158015612f01573d6000803e3d6000fd5b505050506040513d601f19601f82011682018060405250810190612f25919061491e565b5060675460405163b6b55f2560e01b8152600481018390526001600160a01b039091169063b6b55f2590602401600060405180830381600087803b158015612f6c57600080fd5b505af1158015612f80573d6000803e3d6000fd5b50506067546001600160a01b0316935050505b6003830154600160a81b900460ff166130bb57600383015460405163095ea7b360e01b81526001600160a01b038481169263095ea7b392612fdc92909116908590600401614aea565b602060405180830381600087803b158015612ff657600080fd5b505af115801561300a573d6000803e3d6000fd5b505050506040513d601f19601f8201168201806040525081019061302e919061491e565b5060038301546040516347e7a41160e11b81526001600160a01b0390911690638fcf4822906130639084908690600401614d5d565b602060405180830381600087803b15801561307d57600080fd5b505af1158015613091573d6000803e3d6000fd5b505050506040513d601f19601f820116820180604052508101906130b5919061491e565b50613190565b600383015460405163a9059cbb60e01b81526001600160a01b038481169263a9059cbb926130f192909116908590600401614aea565b602060405180830381600087803b15801561310b57600080fd5b505af115801561311f573d6000803e3d6000fd5b505050506040513d601f19601f82011682018060405250810190613143919061491e565b5060038301546040517f6c33b8f6b4f8ba21a4621cc77c018fbb4c7663cfa25929f02dc8d36abde462c591613187916001600160a01b039091169085908590614a9c565b60405180910390a15b61319a8187614e4f565b955050505b50806131aa81614e92565b915050612e06565b5060665460405163095ea7b360e01b81526001600160a01b039091169063095ea7b3906131e59087908690600401614aea565b602060405180830381600087803b1580156131ff57600080fd5b505af1158015613213573d6000803e3d6000fd5b505050506040513d601f19601f82011682018060405250810190613237919061491e565b506066546040516347e7a41160e11b81526001600160a01b0380871692638fcf48229261326a9287921690600401614d5d565b602060405180830381600087803b15801561328457600080fd5b505af1158015613298573d6000803e3d6000fd5b505050506040513d601f19601f820116820180604052508101906132bc919061491e565b506066546040517f6c33b8f6b4f8ba21a4621cc77c018fbb4c7663cfa25929f02dc8d36abde462c5916122179187916001600160a01b0316908690614a9c565b60018101546003820154606b5460408051630ecce30160e31b81529051600094936001600160801b0380821694600160801b90920416926001600160a01b0390911691637667180891600480820192602092909190829003018186803b15801561336557600080fd5b505afa158015613379573d6000803e3d6000fd5b505050506040513d601f19601f8201168201806040525081019061339d919061493a565b6001600160801b0316816001600160801b031610156133c257600093505050506112af565b60008061345e84606b60009054906101000a90046001600160a01b03166001600160a01b031663a4e59ac86040518163ffffffff1660e01b815260040160206040518083038186803b15801561341757600080fd5b505afa15801561342b573d6000803e3d6000fd5b505050506040513d601f19601f8201168201806040525081019061344f919061493a565b6001600160801b031690614135565b90506001600160801b03811661350f5761350885613502606b60009054906101000a90046001600160a01b03166001600160a01b0316638b8fbd926040518163ffffffff1660e01b815260040160206040518083038186803b1580156134c357600080fd5b505afa1580156134d7573d6000803e3d6000fd5b505050506040513d601f19601f820116820180604052508101906134fb9190614979565b8b906141b3565b90614217565b91506135c2565b806001600160801b0316600114156135bd57613508633b9aca0061350287613502606b60009054906101000a90046001600160a01b03166001600160a01b0316638b8fbd926040518163ffffffff1660e01b815260040160206040518083038186803b15801561357e57600080fd5b505afa158015613592573d6000803e3d6000fd5b505050506040513d601f19601f820116820180604052508101906135b69190614979565b8d906141b3565b600091505b6135d088633b9aca00614217565b8210156135e5576000955050505050506112af565b509695505050505050565b806107dd5760405162461bcd60e51b815260206004820152601b60248201527f53503a2072657175697265206e6f6e7a65726f206465706f7369740000000000604482015260640161085e565b600081831061364c578161364e565b825b9392505050565b6136ab8363a9059cbb60e01b8484604051602401613674929190614aea565b60408051601f198184030181529190526020810180516001600160e01b03166001600160e01b031990931692909217909152614244565b505050565b8151815181146136f75760405162461bcd60e51b81526020600482015260126024820152710a6a07498cadccee8d040dad2e6dac2e8c6d60731b604482015260640161085e565b60005b8181101561379157600083828151811061372457634e487b7160e01b600052603260045260246000fd5b60200260200101519050600085838151811061375057634e487b7160e01b600052603260045260246000fd5b60200260200101519050816000141561376a575050613781565b61377e6001600160a01b0382168884613655565b50505b61378a81614e92565b90506136fa565b5050505050565b600061364e83836040518060400160405280600c81526020016b737562206f766572666c6f7760a01b815250614316565b6001600160a01b03821660009081526073602052604090208190558061392457606c5460408051634eb5750560e11b815290516000926001600160a01b031691639d6aea0a9160048083019286929190829003018186803b15801561382d57600080fd5b505afa158015613841573d6000803e3d6000fd5b505050506040513d6000823e601f3d908101601f19168201604052613869919081019061486b565b805190915060005b818110156138f2576001600160a01b0385166000908152607460205260408120845182908690859081106138b557634e487b7160e01b600052603260045260246000fd5b60200260200101516001600160a01b03166001600160a01b0316815260200190815260200160002081905550806138eb90614e92565b9050613871565b5050506001600160a01b0382166000908152607460205260408120600181018290556002810182905560030155610d2e565b606b546040805163149cb35960e31b815290516000926001600160a01b03169163a4e59ac8916004808301926020929190829003018186803b15801561396957600080fd5b505afa15801561397d573d6000803e3d6000fd5b505050506040513d601f19601f820116820180604052508101906139a1919061493a565b90506000606b60009054906101000a90046001600160a01b03166001600160a01b031663766718086040518163ffffffff1660e01b815260040160206040518083038186803b1580156139f357600080fd5b505afa158015613a07573d6000803e3d6000fd5b505050506040513d601f19601f82011682018060405250810190613a2b919061493a565b90506000606b60009054906101000a90046001600160a01b03166001600160a01b0316638b8fbd926040518163ffffffff1660e01b815260040160206040518083038186803b158015613a7d57600080fd5b505afa158015613a91573d6000803e3d6000fd5b505050506040513d601f19601f82011682018060405250810190613ab59190614979565b90506000606c60009054906101000a90046001600160a01b03166001600160a01b0316639d6aea0a6040518163ffffffff1660e01b815260040160006040518083038186803b158015613b0757600080fd5b505afa158015613b1b573d6000803e3d6000fd5b505050506040513d6000823e601f3d908101601f19168201604052613b43919081019061486b565b805190915060005b81811015613c48576000838281518110613b7557634e487b7160e01b600052603260045260246000fd5b6020908102919091010151606b54604051637ee4196b60e01b81529192506000916001600160a01b0390911690637ee4196b90613bba9085908b908d90600401614ac0565b60206040518083038186803b158015613bd257600080fd5b505afa158015613be6573d6000803e3d6000fd5b505050506040513d601f19601f82011682018060405250810190613c0a9190614979565b6001600160a01b03808c166000908152607460209081526040808320969093168252949094529092209190915550613c4181614e92565b9050613b4b565b50606b546040516320b8295d60e21b81526000916001600160a01b0316906382e0a57490613c7c9089908990600401614d43565b60206040518083038186803b158015613c9457600080fd5b505afa158015613ca8573d6000803e3d6000fd5b505050506040513d601f19601f82011682018060405250810190613ccc9190614979565b6001600160a01b03891660009081526074602052604090206001810195909555600285015550505060030180546001600160801b03928316600160801b029383166001600160801b0319909116179091169190911790555050565b603380546001600160a01b038381166001600160a01b0319831681179093556040519116919082907f8be0079c531659141344cd1fd0a4f28419497f9722a3daafe3b4186f6b6457e090600090a35050565b606080606c60009054906101000a90046001600160a01b03166001600160a01b0316639d6aea0a6040518163ffffffff1660e01b815260040160006040518083038186803b158015613dca57600080fd5b505afa158015613dde573d6000803e3d6000fd5b505050506040513d6000823e601f3d908101601f19168201604052613e06919081019061486b565b80519092508067ffffffffffffffff811115613e3257634e487b7160e01b600052604160045260246000fd5b604051908082528060200260200182016040528015613e5b578160200160208202803683370190505b50915060005b81811015613ed657613e9b8686868481518110613e8e57634e487b7160e01b600052603260045260246000fd5b6020026020010151614350565b838281518110613ebb57634e487b7160e01b600052603260045260246000fd5b6020908102919091010152613ecf81614e92565b9050613e61565b50509250929050565b611e9f846323b872dd60e01b85858560405160240161367493929190614a9c565b600080613f0d8385614dd0565b90508381101561364e5760405162461bcd60e51b815260206004820152600c60248201526b616464206f766572666c6f7760a01b604482015260640161085e565b600381015460028201546001830154606b546040516320b8295d60e21b81526000946001600160801b03600160801b82048116959116939092909186916140079185916001600160a01b0316906382e0a57490613fb1908a908a90600401614d43565b60206040518083038186803b158015613fc957600080fd5b505afa158015613fdd573d6000803e3d6000fd5b505050506040513d601f19601f820116820180604052508101906140019190614979565b90613798565b606b549091506000906140aa90633b9aca00906001600160a01b03166382e0a5748961403d6001600160801b038b166001614459565b6040518363ffffffff1660e01b815260040161405a929190614d43565b60206040518083038186803b15801561407257600080fd5b505afa158015614086573d6000803e3d6000fd5b505050506040513d601f19601f820116820180604052508101906135029190614979565b905060006140d0670de0b6b3a764000061350286816140c98888613f00565b8f906141b3565b9a9950505050505050505050565b600054610100900460ff16611ede5760405162461bcd60e51b815260040161085e90614c7a565b600054610100900460ff1661412c5760405162461bcd60e51b815260040161085e90614c7a565b611ede33613d27565b6000826001600160801b0316826001600160801b031611156141a75760405162461bcd60e51b815260206004820152602560248201527f59657469536166654d6174683132383a207375627472616374696f6e206f766560448201526472666c6f7760d81b606482015260840161085e565b6000612dc18385614e27565b6000826141c2575060006112af565b60006141ce8385614e08565b9050826141db8583614de8565b1461364e5760405162461bcd60e51b815260206004820152600c60248201526b6d756c206f766572666c6f7760a01b604482015260640161085e565b600061364e838360405180604001604052806008815260200167064697620627920360c41b8152506144d5565b6000614299826040518060400160405280602081526020017f5361666545524332303a206c6f772d6c6576656c2063616c6c206661696c6564815250856001600160a01b03166145039092919063ffffffff16565b8051909150156136ab57808060200190518101906142b7919061491e565b6136ab5760405162461bcd60e51b815260206004820152602a60248201527f5361666545524332303a204552433230206f7065726174696f6e20646964206e6044820152691bdd081cdd58d8d9595960b21b606482015260840161085e565b6000818484111561433a5760405162461bcd60e51b815260040161085e9190614c0d565b5060006143478486614e4f565b95945050505050565b6001600160a01b03808216600090815260208490526040808220546001860154606b5460038801549351637ee4196b60e01b815294959294919386936143be93879390911691637ee4196b91613fb1918b916001600160801b03600160801b83048116921690600401614ac0565b606b54600388015491925060009161442691633b9aca00916001600160a01b0390911690637ee4196b908a906001600160801b03600160801b820481169161440891166001614459565b6040518463ffffffff1660e01b815260040161405a93929190614ac0565b9050600061444c670de0b6b3a764000061350286816144458888613f00565b8e906141b3565b9998505050505050505050565b6000806144668385614da5565b9050836001600160801b0316816001600160801b0316101561364e5760405162461bcd60e51b815260206004820152602260248201527f59657469536166654d6174683132383a206164646974696f6e206f766572666c6044820152616f7760f01b606482015260840161085e565b600081836144f65760405162461bcd60e51b815260040161085e9190614c0d565b5060006143478486614de8565b6060612dc18484600085856001600160a01b0385163b6145655760405162461bcd60e51b815260206004820152601d60248201527f416464726573733a2063616c6c20746f206e6f6e2d636f6e7472616374000000604482015260640161085e565b600080866001600160a01b031685876040516145819190614a6c565b60006040518083038185875af1925050503d80600081146145be576040519150601f19603f3d011682016040523d82523d6000602084013e6145c3565b606091505b50915091506145d38282866145de565b979650505050505050565b606083156145ed57508161364e565b8251156145fd5782518084602001fd5b8160405162461bcd60e51b815260040161085e9190614c0d565b600082601f830112614627578081fd5b813567ffffffffffffffff81111561464157614641614ec3565b614654601f8201601f1916602001614d74565b818152846020838601011115614668578283fd5b816020850160208301379081016020019190915292915050565b600060208284031215614693578081fd5b813561364e81614ed9565b6000602082840312156146af578081fd5b815161364e81614ed9565b600080604083850312156146cc578081fd5b82356146d781614ed9565b915060208301356146e781614ed9565b809150509250929050565b600080600080600080600060e0888a03121561470c578283fd5b873561471781614ed9565b9650602088013561472781614ed9565b9550604088013561473781614ed9565b9450606088013561474781614ed9565b9350608088013561475781614ed9565b925060a088013561476781614ed9565b915060c088013561477781614ed9565b8091505092959891949750929550565b60008060008060008060c0878903121561479f578182fd5b86356147aa81614ed9565b9550602087013567ffffffffffffffff808211156147c6578384fd5b6147d28a838b01614617565b965060408901359150808211156147e7578384fd5b506147f489828a01614617565b94505060608701359250608087013561480c81614eee565b915060a087013561481c81614ed9565b809150509295509295509295565b60008060006060848603121561483e578283fd5b833561484981614ed9565b925060208401359150604084013561486081614ed9565b809150509250925092565b6000602080838503121561487d578182fd5b825167ffffffffffffffff80821115614894578384fd5b818501915085601f8301126148a7578384fd5b8151818111156148b9576148b9614ec3565b83810291506148c9848301614d74565b8181528481019084860184860187018a10156148e3578788fd5b8795505b8386101561491157805194506148fc85614ed9565b848352600195909501949186019186016148e7565b5098975050505050505050565b60006020828403121561492f578081fd5b815161364e81614eee565b60006020828403121561494b578081fd5b81516001600160801b038116811461364e578182fd5b600060208284031215614972578081fd5b5035919050565b60006020828403121561498a578081fd5b5051919050565b600080604083850312156149a3578081fd5b8235915060208301356146e781614ed9565b600080604083850312156149c7578182fd5b50508035926020909101359150565b600080600080600080600060e0888a0312156149f0578081fd5b8735965060208801359550604088013594506060880135614a1081614ed9565b93506080880135614a2081614eee565b925060a0880135614a3081614eee565b915060c088013561477781614eee565b60008151808452614a58816020860160208601614e66565b601f01601f19169290920160200192915050565b60008251614a7e818460208701614e66565b9190910192915050565b6001600160a01b0391909116815260200190565b6001600160a01b039384168152919092166020820152604081019190915260600190565b6001600160a01b039390931683526001600160801b03918216602084015216604082015260600190565b6001600160a01b03929092168252602082015260400190565b6001600160a01b0393841681526020810192909252909116604082015260600190565b604080825283519082018190526000906020906060840190828701845b82811015614b685781516001600160a01b031684529284019290840190600101614b43565b50505083810382850152845180825285830191830190845b81811015614b9c57835183529284019291840191600101614b80565b5090979650505050505050565b602080825282518282018190526000919060409081850190868401855b82811015614c0057815180516001600160a01b03168552868101518786015285015115158585015260609093019290850190600101614bc6565b5091979650505050505050565b60006020825261364e6020830184614a40565b600060408252614c336040830185614a40565b82810360208401526143478185614a40565b6020808252818101527f4f776e61626c653a2063616c6c6572206973206e6f7420746865206f776e6572604082015260600190565b6020808252602b908201527f496e697469616c697a61626c653a20636f6e7472616374206973206e6f74206960408201526a6e697469616c697a696e6760a81b606082015260800190565b60208082526012908201527156616c7565206e6f7420696e2072616e676560701b604082015260600190565b6020808252600f908201526e13585e08199959481c995858da1959608a1b604082015260600190565b6020808252600f908201526e506f6f6c206e6f742061637469766560881b604082015260600190565b6001600160801b0392831681529116602082015260400190565b9182526001600160a01b0316602082015260400190565b604051601f8201601f1916810167ffffffffffffffff81118282101715614d9d57614d9d614ec3565b604052919050565b60006001600160801b03828116848216808303821115614dc757614dc7614ead565b01949350505050565b60008219821115614de357614de3614ead565b500190565b600082614e0357634e487b7160e01b81526012600452602481fd5b500490565b6000816000190483118215151615614e2257614e22614ead565b500290565b60006001600160801b0383811690831681811015614e4757614e47614ead565b039392505050565b600082821015614e6157614e61614ead565b500390565b60005b83811015614e81578181015183820152602001614e69565b83811115611e9f5750506000910152565b6000600019821415614ea657614ea6614ead565b5060010190565b634e487b7160e01b600052601160045260246000fd5b634e487b7160e01b600052604160045260246000fd5b6001600160a01b03811681146107dd57600080fd5b80151581146107dd57600080fdfea26469706673582212205c58c45a14e3c1659736d3854769f79ee964a6751ba8986730e36d61bd41280d64736f6c63430008020033",
  "linkReferences": {
    "contracts/MainProtocol/MainStaking.sol": {
      "ERC20FactoryLib": [
        {
          "length": 20,
          "start": 3592
        }
      ]
    }
  },
  "deployedLinkReferences": {
    "contracts/MainProtocol/MainStaking.sol": {
      "ERC20FactoryLib": [
        {
          "length": 20,
          "start": 3560
        }
      ]
    }
  }
}