{
  "_format": "hh-sol-artifact-1",
  "contractName": "BaseRewardPool",
  "sourceName": "contracts/MainProtocol/interfaces/BaseRewardPool.sol",
  "abi": [
    {
      "inputs": [
        {
          "internalType": "address",
          "name": "_stakingToken",
          "type": "address"
        },
        {
          "internalType": "address",
          "name": "_rewardToken",
          "type": "address"
        },
        {
          "internalType": "address",
          "name": "_operator",
          "type": "address"
        },
        {
          "internalType": "address",
          "name": "_rewardManager",
          "type": "address"
        },
        {
          "internalType": "address",
          "name": "_mainstaking",
          "type": "address"
        }
      ],
      "stateMutability": "nonpayable",
      "type": "constructor"
    },
    {
      "anonymous": false,
      "inputs": [
        {
          "indexed": true,
          "internalType": "address",
          "name": "previousOwner",
          "type": "address"
        },
        {
          "indexed": true,
          "internalType": "address",
          "name": "newOwner",
          "type": "address"
        }
      ],
      "name": "OwnershipTransferred",
      "type": "event"
    },
    {
      "anonymous": false,
      "inputs": [
        {
          "indexed": false,
          "internalType": "uint256",
          "name": "reward",
          "type": "uint256"
        },
        {
          "indexed": true,
          "internalType": "address",
          "name": "token",
          "type": "address"
        }
      ],
      "name": "RewardAdded",
      "type": "event"
    },
    {
      "anonymous": false,
      "inputs": [
        {
          "indexed": true,
          "internalType": "address",
          "name": "user",
          "type": "address"
        },
        {
          "indexed": false,
          "internalType": "uint256",
          "name": "reward",
          "type": "uint256"
        },
        {
          "indexed": true,
          "internalType": "address",
          "name": "token",
          "type": "address"
        }
      ],
      "name": "RewardPaid",
      "type": "event"
    },
    {
      "anonymous": false,
      "inputs": [
        {
          "indexed": true,
          "internalType": "address",
          "name": "user",
          "type": "address"
        },
        {
          "indexed": false,
          "internalType": "uint256",
          "name": "amount",
          "type": "uint256"
        }
      ],
      "name": "Staked",
      "type": "event"
    },
    {
      "anonymous": false,
      "inputs": [
        {
          "indexed": true,
          "internalType": "address",
          "name": "user",
          "type": "address"
        },
        {
          "indexed": false,
          "internalType": "uint256",
          "name": "amount",
          "type": "uint256"
        }
      ],
      "name": "Withdrawn",
      "type": "event"
    },
    {
      "inputs": [
        {
          "internalType": "address",
          "name": "_account",
          "type": "address"
        }
      ],
      "name": "balanceOf",
      "outputs": [
        {
          "internalType": "uint256",
          "name": "",
          "type": "uint256"
        }
      ],
      "stateMutability": "view",
      "type": "function"
    },
    {
      "inputs": [
        {
          "internalType": "uint256",
          "name": "_amountReward",
          "type": "uint256"
        },
        {
          "internalType": "address",
          "name": "_rewardToken",
          "type": "address"
        }
      ],
      "name": "donateRewards",
      "outputs": [
        {
          "internalType": "bool",
          "name": "",
          "type": "bool"
        }
      ],
      "stateMutability": "nonpayable",
      "type": "function"
    },
    {
      "inputs": [
        {
          "internalType": "address",
          "name": "_account",
          "type": "address"
        },
        {
          "internalType": "address",
          "name": "_rewardToken",
          "type": "address"
        }
      ],
      "name": "earned",
      "outputs": [
        {
          "internalType": "uint256",
          "name": "",
          "type": "uint256"
        }
      ],
      "stateMutability": "view",
      "type": "function"
    },
    {
      "inputs": [
        {
          "internalType": "address",
          "name": "_account",
          "type": "address"
        }
      ],
      "name": "getReward",
      "outputs": [
        {
          "internalType": "bool",
          "name": "",
          "type": "bool"
        }
      ],
      "stateMutability": "nonpayable",
      "type": "function"
    },
    {
      "inputs": [],
      "name": "getRewardUser",
      "outputs": [
        {
          "internalType": "bool",
          "name": "",
          "type": "bool"
        }
      ],
      "stateMutability": "nonpayable",
      "type": "function"
    },
    {
      "inputs": [],
      "name": "getStakingToken",
      "outputs": [
        {
          "internalType": "address",
          "name": "",
          "type": "address"
        }
      ],
      "stateMutability": "view",
      "type": "function"
    },
    {
      "inputs": [
        {
          "internalType": "address",
          "name": "",
          "type": "address"
        }
      ],
      "name": "isRewardToken",
      "outputs": [
        {
          "internalType": "bool",
          "name": "",
          "type": "bool"
        }
      ],
      "stateMutability": "view",
      "type": "function"
    },
    {
      "inputs": [],
      "name": "mainRewardToken",
      "outputs": [
        {
          "internalType": "address",
          "name": "",
          "type": "address"
        }
      ],
      "stateMutability": "view",
      "type": "function"
    },
    {
      "inputs": [],
      "name": "operator",
      "outputs": [
        {
          "internalType": "address",
          "name": "",
          "type": "address"
        }
      ],
      "stateMutability": "view",
      "type": "function"
    },
    {
      "inputs": [],
      "name": "owner",
      "outputs": [
        {
          "internalType": "address",
          "name": "",
          "type": "address"
        }
      ],
      "stateMutability": "view",
      "type": "function"
    },
    {
      "inputs": [
        {
          "internalType": "address",
          "name": "",
          "type": "address"
        }
      ],
      "name": "poolManagers",
      "outputs": [
        {
          "internalType": "bool",
          "name": "",
          "type": "bool"
        }
      ],
      "stateMutability": "view",
      "type": "function"
    },
    {
      "inputs": [
        {
          "internalType": "uint256",
          "name": "_amountReward",
          "type": "uint256"
        },
        {
          "internalType": "address",
          "name": "_rewardToken",
          "type": "address"
        }
      ],
      "name": "queueNewRewards",
      "outputs": [
        {
          "internalType": "bool",
          "name": "",
          "type": "bool"
        }
      ],
      "stateMutability": "nonpayable",
      "type": "function"
    },
    {
      "inputs": [],
      "name": "renounceOwnership",
      "outputs": [],
      "stateMutability": "nonpayable",
      "type": "function"
    },
    {
      "inputs": [
        {
          "internalType": "address",
          "name": "_rewardToken",
          "type": "address"
        }
      ],
      "name": "rewardDecimals",
      "outputs": [
        {
          "internalType": "uint256",
          "name": "",
          "type": "uint256"
        }
      ],
      "stateMutability": "view",
      "type": "function"
    },
    {
      "inputs": [
        {
          "internalType": "address",
          "name": "_rewardToken",
          "type": "address"
        }
      ],
      "name": "rewardPerToken",
      "outputs": [
        {
          "internalType": "uint256",
          "name": "",
          "type": "uint256"
        }
      ],
      "stateMutability": "view",
      "type": "function"
    },
    {
      "inputs": [
        {
          "internalType": "uint256",
          "name": "",
          "type": "uint256"
        }
      ],
      "name": "rewardTokens",
      "outputs": [
        {
          "internalType": "address",
          "name": "",
          "type": "address"
        }
      ],
      "stateMutability": "view",
      "type": "function"
    },
    {
      "inputs": [
        {
          "internalType": "address",
          "name": "",
          "type": "address"
        }
      ],
      "name": "rewards",
      "outputs": [
        {
          "internalType": "address",
          "name": "rewardToken",
          "type": "address"
        },
        {
          "internalType": "uint256",
          "name": "rewardPerTokenStored",
          "type": "uint256"
        },
        {
          "internalType": "uint256",
          "name": "queuedRewards",
          "type": "uint256"
        },
        {
          "internalType": "uint256",
          "name": "historicalRewards",
          "type": "uint256"
        }
      ],
      "stateMutability": "view",
      "type": "function"
    },
    {
      "inputs": [
        {
          "internalType": "address",
          "name": "_for",
          "type": "address"
        },
        {
          "internalType": "uint256",
          "name": "_amount",
          "type": "uint256"
        }
      ],
      "name": "stakeFor",
      "outputs": [
        {
          "internalType": "bool",
          "name": "",
          "type": "bool"
        }
      ],
      "stateMutability": "nonpayable",
      "type": "function"
    },
    {
      "inputs": [],
      "name": "stakingDecimals",
      "outputs": [
        {
          "internalType": "uint256",
          "name": "",
          "type": "uint256"
        }
      ],
      "stateMutability": "view",
      "type": "function"
    },
    {
      "inputs": [],
      "name": "stakingToken",
      "outputs": [
        {
          "internalType": "address",
          "name": "",
          "type": "address"
        }
      ],
      "stateMutability": "view",
      "type": "function"
    },
    {
      "inputs": [],
      "name": "totalSupply",
      "outputs": [
        {
          "internalType": "uint256",
          "name": "",
          "type": "uint256"
        }
      ],
      "stateMutability": "view",
      "type": "function"
    },
    {
      "inputs": [
        {
          "internalType": "address",
          "name": "newOwner",
          "type": "address"
        }
      ],
      "name": "transferOwnership",
      "outputs": [],
      "stateMutability": "nonpayable",
      "type": "function"
    },
    {
      "inputs": [
        {
          "internalType": "address",
          "name": "_account",
          "type": "address"
        }
      ],
      "name": "updateFor",
      "outputs": [],
      "stateMutability": "nonpayable",
      "type": "function"
    },
    {
      "inputs": [
        {
          "internalType": "address",
          "name": "",
          "type": "address"
        },
        {
          "internalType": "address",
          "name": "",
          "type": "address"
        }
      ],
      "name": "userRewardPerTokenPaid",
      "outputs": [
        {
          "internalType": "uint256",
          "name": "",
          "type": "uint256"
        }
      ],
      "stateMutability": "view",
      "type": "function"
    },
    {
      "inputs": [
        {
          "internalType": "address",
          "name": "",
          "type": "address"
        },
        {
          "internalType": "address",
          "name": "",
          "type": "address"
        }
      ],
      "name": "userRewards",
      "outputs": [
        {
          "internalType": "uint256",
          "name": "",
          "type": "uint256"
        }
      ],
      "stateMutability": "view",
      "type": "function"
    },
    {
      "inputs": [
        {
          "internalType": "address",
          "name": "_for",
          "type": "address"
        },
        {
          "internalType": "uint256",
          "name": "_amount",
          "type": "uint256"
        },
        {
          "internalType": "bool",
          "name": "claim",
          "type": "bool"
        }
      ],
      "name": "withdrawFor",
      "outputs": [
        {
          "internalType": "bool",
          "name": "",
          "type": "bool"
        }
      ],
      "stateMutability": "nonpayable",
      "type": "function"
    }
  ],
  "bytecode": "0x60c06040523480156200001157600080fd5b5060405162001e3738038062001e378339810160408190526200003491620001af565b6200003f3362000142565b6001600160601b0319606095861b8116608090815293861b1660a0526040805193840181526001600160a01b03948516808552600060208087018281528785018381529988018381528484526005835285842098518954908b166001600160a01b0319918216178a5591516001808b01919091559a516002808b019190915590516003909901989098558754808b019098557f405787fa12a823e0f2b7631cc41b3ba8828b3321ca811111fa75cd3aa3bb5ace9097018054909716831790965590815260088552818120805460ff19908116891790915593861681526009909452808420805484168717905593168252919020805490911690911790556200021e565b600080546001600160a01b038381166001600160a01b0319831681178455604051919092169283917f8be0079c531659141344cd1fd0a4f28419497f9722a3daafe3b4186f6b6457e09190a35050565b80516001600160a01b0381168114620001aa57600080fd5b919050565b600080600080600060a08688031215620001c7578081fd5b620001d28662000192565b9450620001e26020870162000192565b9350620001f26040870162000192565b9250620002026060870162000192565b9150620002126080870162000192565b90509295509295909350565b60805160601c60a05160601c611bca6200026d6000396000818161025e015281816105190152818161092d01526111640152600081816102f60152818161038701526112950152611bca6000f3fe608060405234801561001057600080fd5b506004361061016e5760003560e01c80637bb7bed1116100ce578063a980356a11610087578063a980356a146103ab578063b5fd73f8146103d6578063c00007b0146103f9578063c11f53441461040c578063f122977714610414578063f2fde38b14610427578063f3fc7c2b1461043a5761016e565b80637bb7bed1146103185780638a64e0c41461032b5780638da5cb5b1461034e5780638fcf48221461035f57806399da1729146103725780639f9106d1146103855761016e565b80632ee409081161012b5780632ee4090814610246578063570ca735146102595780635bc59ce7146102985780637035ab98146102ab57806370a08231146102d6578063715018a6146102e957806372f702f3146102f15761016e565b80630700037d146101735780630e0a5968146101e15780630e19c699146101f657806318160ddd1461021957806318838d331461022b578063211dc32d14610233575b600080fd5b6101b26101813660046117a4565b60056020526000908152604090208054600182015460028301546003909301546001600160a01b0390921692909184565b604080516001600160a01b03909516855260208501939093529183015260608201526080015b60405180910390f35b6101f46101ef3660046117a4565b61044d565b005b610209610204366004611819565b61050c565b60405190151581526020016101d8565b6003545b6040519081526020016101d8565b6102096106c5565b61021d6102413660046117be565b61086e565b6102096102543660046117f0565b610920565b6102807f000000000000000000000000000000000000000000000000000000000000000081565b6040516001600160a01b0390911681526020016101d8565b6102096102a636600461188c565b610abe565b61021d6102b93660046117be565b600660209081526000928352604080842090915290825290205481565b61021d6102e43660046117a4565b610bfc565b6101f4610c1b565b6102807f000000000000000000000000000000000000000000000000000000000000000081565b610280610326366004611874565b610c51565b6102096103393660046117a4565b60096020526000908152604090205460ff1681565b6000546001600160a01b0316610280565b61020961036d36600461188c565b610c7b565b61021d6103803660046117a4565b61101e565b7f0000000000000000000000000000000000000000000000000000000000000000610280565b61021d6103b93660046117be565b600760209081526000928352604080842090915290825290205481565b6102096103e43660046117a4565b60086020526000908152604090205460ff1681565b6102096104073660046117a4565b61109a565b61021d611291565b61021d6104223660046117a4565b61132c565b6101f46104353660046117a4565b61134a565b600154610280906001600160a01b031681565b60025460005b818110156105075760006002828154811061047e57634e487b7160e01b600052603260045260246000fd5b6000918252602090912001546001600160a01b0316905061049f848261086e565b6001600160a01b038083166000908152600760209081526040808320938916835292905220556104ce8161132c565b6001600160a01b0391821660009081526006602090815260408083209488168352939052919091205561050081611b28565b9050610453565b505050565b6000336001600160a01b037f0000000000000000000000000000000000000000000000000000000000000000161461055f5760405162461bcd60e51b815260040161055690611953565b60405180910390fd5b600254849060005b8181101561061b5760006002828154811061059257634e487b7160e01b600052603260045260246000fd5b6000918252602090912001546001600160a01b031690506105b3848261086e565b6001600160a01b038083166000908152600760209081526040808320938916835292905220556105e28161132c565b6001600160a01b0391821660009081526006602090815260408083209488168352939052919091205561061481611b28565b9050610567565b508460035461062a9190611ae5565b6003556001600160a01b038616600090815260046020526040902054610651908690611ae5565b6001600160a01b038716600081815260046020526040908190209290925590517f7084f5476618d8e60b11ef0d7d3f06914655adb8793e28ff7f018d4c76d505d5906106a09088815260200190565b60405180910390a283156106b9576106b78661109a565b505b50600195945050505050565b6002546000903390825b81811015610783576000600282815481106106fa57634e487b7160e01b600052603260045260246000fd5b6000918252602090912001546001600160a01b0316905061071b848261086e565b6001600160a01b0380831660009081526007602090815260408083209389168352929052205561074a8161132c565b6001600160a01b0391821660009081526006602090815260408083209488168352939052919091205561077c81611b28565b90506106cf565b5060025460005b81811015610863576000600282815481106107b557634e487b7160e01b600052603260045260246000fd5b60009182526020822001546001600160a01b031691506107d5338361086e565b90508015610850576001600160a01b038216600081815260076020908152604080832033808552925282209190915561080f9190836113e5565b6040518181526001600160a01b0383169033907f8e0d3fa908fd7ee819155b3ce71e292b601bbeb0cd00d7758b9d226a523cb8279060200160405180910390a35b50508061085c90611b28565b905061078a565b506001935050505090565b6001600160a01b03808216600090815260076020908152604080832093861683529290529081205461089e611291565b6108a990600a6119f8565b6001600160a01b038085166000908152600660209081526040808320938916835292905220546108d88561132c565b6108e29190611ae5565b6001600160a01b0386166000908152600460205260409020546109059190611ac6565b61090f9190611992565b610919919061197a565b9392505050565b6000336001600160a01b037f0000000000000000000000000000000000000000000000000000000000000000161461096a5760405162461bcd60e51b815260040161055690611953565b600254839060005b81811015610a265760006002828154811061099d57634e487b7160e01b600052603260045260246000fd5b6000918252602090912001546001600160a01b031690506109be848261086e565b6001600160a01b038083166000908152600760209081526040808320938916835292905220556109ed8161132c565b6001600160a01b03918216600090815260066020908152604080832094881683529390529190912055610a1f81611b28565b9050610972565b5083600354610a35919061197a565b6003556001600160a01b038516600090815260046020526040902054610a5c90859061197a565b6001600160a01b038616600081815260046020526040908190209290925590517f9e71bc8eea02a63969f509818f2dafb9254532904319f9dbda79b67bd34a5f3d90610aab9087815260200190565b60405180910390a2506001949350505050565b6001600160a01b03811660009081526008602052604081205460ff16610ae357600080fd5b610af86001600160a01b038316333086611448565b6001600160a01b03821660009081526005602052604090206003810154610b2090859061197a565b60038083019190915554610b4d5783816002016000828254610b42919061197a565b90915550610baf9050565b600281015415610b70576002810154610b66908561197a565b6000600283015593505b600354610b7b611291565b610b8690600a6119f8565b610b909086611ac6565b610b9a9190611992565b8160010154610ba9919061197a565b60018201555b826001600160a01b03167ffb5edb6eb340a01f6a67189edc978df97841c43752c212fc85995ea23001763585604051610bea91815260200190565b60405180910390a25060019392505050565b6001600160a01b0381166000908152600460205260409020545b919050565b6000546001600160a01b03163314610c455760405162461bcd60e51b81526004016105569061191e565b610c4f6000611486565b565b60028181548110610c6157600080fd5b6000918252602090912001546001600160a01b0316905081565b3360009081526009602052604081205460ff16610ccf5760405162461bcd60e51b81526020600482015260126024820152712737ba1030902837b7b61026b0b730b3b2b960711b6044820152606401610556565b610cf06040518060600160405280602d8152602001611b68602d91396114d6565b6001600160a01b03821660009081526008602052604090205460ff16610d9d57610d39604051806040016040528060088152602001673334b939ba1034b360c11b8152506114d6565b6002805460018082019092557f405787fa12a823e0f2b7631cc41b3ba8828b3321ca811111fa75cd3aa3bb5ace0180546001600160a01b0319166001600160a01b0385169081179091556000908152600860205260409020805460ff191690911790555b610dd5604051806040016040528060178152602001766265666f726520736166655472616e7366657246726f6d60481b8152506114d6565b610dea6001600160a01b038316333086611448565b610e2160405180604001604052806016815260200175616674657220736166655472616e7366657246726f6d60501b8152506114d6565b600060056000846001600160a01b03166001600160a01b031681526020019081526020016000209050610e8160405180604001604052806016815260200175616674657220736166655472616e7366657246726f6d60501b8152506114d6565b838160030154610e91919061197a565b60038083019190915554610ef057610ed16040518060400160405280601181526020017005f746f74616c537570706c79203d3d203607c1b8152506114d6565b83816002016000828254610ee5919061197a565b90915550610f7a9050565b610f1860405180604001604052806007815260200166696e20656c736560c81b8152506114d6565b600281015415610f3b576002810154610f31908561197a565b6000600283015593505b600354610f46611291565b610f5190600a6119f8565b610f5b9086611ac6565b610f659190611992565b8160010154610f74919061197a565b60018201555b610fa66040518060400160405280600b81526020016a1099599bdc9948195b5a5d60aa1b8152506114d6565b826001600160a01b03167ffb5edb6eb340a01f6a67189edc978df97841c43752c212fc85995ea23001763585604051610fe191815260200190565b60405180910390a26110146040518060400160405280600a81526020016910599d195c88195b5a5d60b21b8152506114d6565b5060019392505050565b6000816001600160a01b031663313ce5676040518163ffffffff1660e01b815260040160206040518083038186803b15801561105957600080fd5b505afa15801561106d573d6000803e3d6000fd5b505050506040513d601f19601f8201168201806040525081019061109191906118ae565b60ff1692915050565b6002546000908290825b81811015611158576000600282815481106110cf57634e487b7160e01b600052603260045260246000fd5b6000918252602090912001546001600160a01b031690506110f0848261086e565b6001600160a01b0380831660009081526007602090815260408083209389168352929052205561111f8161132c565b6001600160a01b0391821660009081526006602090815260408083209488168352939052919091205561115181611b28565b90506110a4565b50336001600160a01b037f000000000000000000000000000000000000000000000000000000000000000016146111a15760405162461bcd60e51b815260040161055690611953565b60025460005b818110156106b9576000600282815481106111d257634e487b7160e01b600052603260045260246000fd5b60009182526020822001546001600160a01b031691506111f2888361086e565b9050801561127e576001600160a01b038083166000818152600760209081526040808320948d168352939052918220919091556112309089836113e5565b816001600160a01b0316886001600160a01b03167f8e0d3fa908fd7ee819155b3ce71e292b601bbeb0cd00d7758b9d226a523cb8278360405161127591815260200190565b60405180910390a35b50508061128a90611b28565b90506111a7565b60007f00000000000000000000000000000000000000000000000000000000000000006001600160a01b031663313ce5676040518163ffffffff1660e01b815260040160206040518083038186803b1580156112ec57600080fd5b505afa158015611300573d6000803e3d6000fd5b505050506040513d601f19601f8201168201806040525081019061132491906118ae565b60ff16905090565b6001600160a01b031660009081526005602052604090206001015490565b6000546001600160a01b031633146113745760405162461bcd60e51b81526004016105569061191e565b6001600160a01b0381166113d95760405162461bcd60e51b815260206004820152602660248201527f4f776e61626c653a206e6577206f776e657220697320746865207a65726f206160448201526564647265737360d01b6064820152608401610556565b6113e281611486565b50565b6040516001600160a01b03831660248201526044810182905261050790849063a9059cbb60e01b906064015b60408051601f198184030181529190526020810180516001600160e01b03166001600160e01b031990931692909217909152611519565b6040516001600160a01b03808516602483015283166044820152606481018290526114809085906323b872dd60e01b90608401611411565b50505050565b600080546001600160a01b038381166001600160a01b0319831681178455604051919092169283917f8be0079c531659141344cd1fd0a4f28419497f9722a3daafe3b4186f6b6457e09190a35050565b6113e2816040516024016114ea91906118eb565b60408051601f198184030181529190526020810180516001600160e01b031663104c13eb60e21b1790526115eb565b600061156e826040518060400160405280602081526020017f5361666545524332303a206c6f772d6c6576656c2063616c6c206661696c6564815250856001600160a01b031661160c9092919063ffffffff16565b805190915015610507578080602001905181019061158c9190611858565b6105075760405162461bcd60e51b815260206004820152602a60248201527f5361666545524332303a204552433230206f7065726174696f6e20646964206e6044820152691bdd081cdd58d8d9595960b21b6064820152608401610556565b80516a636f6e736f6c652e6c6f67602083016000808483855afa5050505050565b606061161b8484600085611623565b949350505050565b6060824710156116845760405162461bcd60e51b815260206004820152602660248201527f416464726573733a20696e73756666696369656e742062616c616e636520666f6044820152651c8818d85b1b60d21b6064820152608401610556565b6001600160a01b0385163b6116db5760405162461bcd60e51b815260206004820152601d60248201527f416464726573733a2063616c6c20746f206e6f6e2d636f6e74726163740000006044820152606401610556565b600080866001600160a01b031685876040516116f791906118cf565b60006040518083038185875af1925050503d8060008114611734576040519150601f19603f3d011682016040523d82523d6000602084013e611739565b606091505b5091509150611749828286611754565b979650505050505050565b60608315611763575081610919565b8251156117735782518084602001fd5b8160405162461bcd60e51b815260040161055691906118eb565b80356001600160a01b0381168114610c1657600080fd5b6000602082840312156117b5578081fd5b6109198261178d565b600080604083850312156117d0578081fd5b6117d98361178d565b91506117e76020840161178d565b90509250929050565b60008060408385031215611802578182fd5b61180b8361178d565b946020939093013593505050565b60008060006060848603121561182d578081fd5b6118368461178d565b925060208401359150604084013561184d81611b59565b809150509250925092565b600060208284031215611869578081fd5b815161091981611b59565b600060208284031215611885578081fd5b5035919050565b6000806040838503121561189e578182fd5b823591506117e76020840161178d565b6000602082840312156118bf578081fd5b815160ff81168114610919578182fd5b600082516118e1818460208701611afc565b9190910192915050565b600060208252825180602084015261190a816040850160208701611afc565b601f01601f19169190910160400192915050565b6020808252818101527f4f776e61626c653a2063616c6c6572206973206e6f7420746865206f776e6572604082015260600190565b6020808252600d908201526c27b7363c9027b832b930ba37b960991b604082015260600190565b6000821982111561198d5761198d611b43565b500190565b6000826119ad57634e487b7160e01b81526012600452602481fd5b500490565b80825b60018086116119c457506119ef565b8187048211156119d6576119d6611b43565b808616156119e357918102915b9490941c9380026119b5565b94509492505050565b60006109196000198484600082611a1157506001610919565b81611a1e57506000610919565b8160018114611a345760028114611a3e57611a6b565b6001915050610919565b60ff841115611a4f57611a4f611b43565b6001841b915084821115611a6557611a65611b43565b50610919565b5060208310610133831016604e8410600b8410161715611a9e575081810a83811115611a9957611a99611b43565b610919565b611aab84848460016119b2565b808604821115611abd57611abd611b43565b02949350505050565b6000816000190483118215151615611ae057611ae0611b43565b500290565b600082821015611af757611af7611b43565b500390565b60005b83811015611b17578181015183820152602001611aff565b838111156114805750506000910152565b6000600019821415611b3c57611b3c611b43565b5060010190565b634e487b7160e01b600052601160045260246000fd5b80151581146113e257600080fdfe090909093d3d3d3d20496e736964652071756575654e6577526577617264732066756e6374696f6e203d3d3d3da2646970667358221220336a6b2c37fce9a52e5ddb554b6977e461be93056de9eec2dadcf9da8e70393764736f6c63430008020033",
  "linkReferences": {},
  "deployedLinkReferences": {}
}