{
  "_format": "hh-sol-artifact-1",
  "contractName": "BaseRewardPool",
  "sourceName": "contracts/MainProtocol/interfaces/BaseRewardPool.sol",
  "abi": [
    {
      "inputs": [
        {
          "internalType": "address",
          "name": "_stakingToken",
          "type": "address"
        },
        {
          "internalType": "address",
          "name": "_rewardToken",
          "type": "address"
        },
        {
          "internalType": "address",
          "name": "_operator",
          "type": "address"
        },
        {
          "internalType": "address",
          "name": "_rewardManager",
          "type": "address"
        },
        {
          "internalType": "address",
          "name": "_mainstaking",
          "type": "address"
        }
      ],
      "stateMutability": "nonpayable",
      "type": "constructor"
    },
    {
      "anonymous": false,
      "inputs": [
        {
          "indexed": true,
          "internalType": "address",
          "name": "previousOwner",
          "type": "address"
        },
        {
          "indexed": true,
          "internalType": "address",
          "name": "newOwner",
          "type": "address"
        }
      ],
      "name": "OwnershipTransferred",
      "type": "event"
    },
    {
      "anonymous": false,
      "inputs": [
        {
          "indexed": false,
          "internalType": "uint256",
          "name": "reward",
          "type": "uint256"
        },
        {
          "indexed": true,
          "internalType": "address",
          "name": "token",
          "type": "address"
        }
      ],
      "name": "RewardAdded",
      "type": "event"
    },
    {
      "anonymous": false,
      "inputs": [
        {
          "indexed": true,
          "internalType": "address",
          "name": "user",
          "type": "address"
        },
        {
          "indexed": false,
          "internalType": "uint256",
          "name": "reward",
          "type": "uint256"
        },
        {
          "indexed": true,
          "internalType": "address",
          "name": "token",
          "type": "address"
        }
      ],
      "name": "RewardPaid",
      "type": "event"
    },
    {
      "anonymous": false,
      "inputs": [
        {
          "indexed": true,
          "internalType": "address",
          "name": "user",
          "type": "address"
        },
        {
          "indexed": false,
          "internalType": "uint256",
          "name": "amount",
          "type": "uint256"
        }
      ],
      "name": "Staked",
      "type": "event"
    },
    {
      "anonymous": false,
      "inputs": [
        {
          "indexed": true,
          "internalType": "address",
          "name": "user",
          "type": "address"
        },
        {
          "indexed": false,
          "internalType": "uint256",
          "name": "amount",
          "type": "uint256"
        }
      ],
      "name": "Withdrawn",
      "type": "event"
    },
    {
      "inputs": [
        {
          "internalType": "address",
          "name": "_account",
          "type": "address"
        }
      ],
      "name": "balanceOf",
      "outputs": [
        {
          "internalType": "uint256",
          "name": "",
          "type": "uint256"
        }
      ],
      "stateMutability": "view",
      "type": "function"
    },
    {
      "inputs": [
        {
          "internalType": "uint256",
          "name": "_amountReward",
          "type": "uint256"
        },
        {
          "internalType": "address",
          "name": "_rewardToken",
          "type": "address"
        }
      ],
      "name": "donateRewards",
      "outputs": [
        {
          "internalType": "bool",
          "name": "",
          "type": "bool"
        }
      ],
      "stateMutability": "nonpayable",
      "type": "function"
    },
    {
      "inputs": [
        {
          "internalType": "address",
          "name": "_account",
          "type": "address"
        },
        {
          "internalType": "address",
          "name": "_rewardToken",
          "type": "address"
        }
      ],
      "name": "earned",
      "outputs": [
        {
          "internalType": "uint256",
          "name": "",
          "type": "uint256"
        }
      ],
      "stateMutability": "view",
      "type": "function"
    },
    {
      "inputs": [
        {
          "internalType": "address",
          "name": "_account",
          "type": "address"
        }
      ],
      "name": "getReward",
      "outputs": [
        {
          "internalType": "bool",
          "name": "",
          "type": "bool"
        }
      ],
      "stateMutability": "nonpayable",
      "type": "function"
    },
    {
      "inputs": [],
      "name": "getRewardUser",
      "outputs": [
        {
          "internalType": "bool",
          "name": "",
          "type": "bool"
        }
      ],
      "stateMutability": "nonpayable",
      "type": "function"
    },
    {
      "inputs": [],
      "name": "getStakingToken",
      "outputs": [
        {
          "internalType": "address",
          "name": "",
          "type": "address"
        }
      ],
      "stateMutability": "view",
      "type": "function"
    },
    {
      "inputs": [
        {
          "internalType": "address",
          "name": "",
          "type": "address"
        }
      ],
      "name": "isRewardToken",
      "outputs": [
        {
          "internalType": "bool",
          "name": "",
          "type": "bool"
        }
      ],
      "stateMutability": "view",
      "type": "function"
    },
    {
      "inputs": [],
      "name": "mainRewardToken",
      "outputs": [
        {
          "internalType": "address",
          "name": "",
          "type": "address"
        }
      ],
      "stateMutability": "view",
      "type": "function"
    },
    {
      "inputs": [],
      "name": "operator",
      "outputs": [
        {
          "internalType": "address",
          "name": "",
          "type": "address"
        }
      ],
      "stateMutability": "view",
      "type": "function"
    },
    {
      "inputs": [],
      "name": "owner",
      "outputs": [
        {
          "internalType": "address",
          "name": "",
          "type": "address"
        }
      ],
      "stateMutability": "view",
      "type": "function"
    },
    {
      "inputs": [
        {
          "internalType": "address",
          "name": "",
          "type": "address"
        }
      ],
      "name": "poolManagers",
      "outputs": [
        {
          "internalType": "bool",
          "name": "",
          "type": "bool"
        }
      ],
      "stateMutability": "view",
      "type": "function"
    },
    {
      "inputs": [
        {
          "internalType": "uint256",
          "name": "_amountReward",
          "type": "uint256"
        },
        {
          "internalType": "address",
          "name": "_rewardToken",
          "type": "address"
        }
      ],
      "name": "queueNewRewards",
      "outputs": [
        {
          "internalType": "bool",
          "name": "",
          "type": "bool"
        }
      ],
      "stateMutability": "nonpayable",
      "type": "function"
    },
    {
      "inputs": [],
      "name": "renounceOwnership",
      "outputs": [],
      "stateMutability": "nonpayable",
      "type": "function"
    },
    {
      "inputs": [
        {
          "internalType": "address",
          "name": "_rewardToken",
          "type": "address"
        }
      ],
      "name": "rewardDecimals",
      "outputs": [
        {
          "internalType": "uint256",
          "name": "",
          "type": "uint256"
        }
      ],
      "stateMutability": "view",
      "type": "function"
    },
    {
      "inputs": [
        {
          "internalType": "address",
          "name": "_rewardToken",
          "type": "address"
        }
      ],
      "name": "rewardPerToken",
      "outputs": [
        {
          "internalType": "uint256",
          "name": "",
          "type": "uint256"
        }
      ],
      "stateMutability": "view",
      "type": "function"
    },
    {
      "inputs": [
        {
          "internalType": "uint256",
          "name": "",
          "type": "uint256"
        }
      ],
      "name": "rewardTokens",
      "outputs": [
        {
          "internalType": "address",
          "name": "",
          "type": "address"
        }
      ],
      "stateMutability": "view",
      "type": "function"
    },
    {
      "inputs": [
        {
          "internalType": "address",
          "name": "",
          "type": "address"
        }
      ],
      "name": "rewards",
      "outputs": [
        {
          "internalType": "address",
          "name": "rewardToken",
          "type": "address"
        },
        {
          "internalType": "uint256",
          "name": "rewardPerTokenStored",
          "type": "uint256"
        },
        {
          "internalType": "uint256",
          "name": "queuedRewards",
          "type": "uint256"
        },
        {
          "internalType": "uint256",
          "name": "historicalRewards",
          "type": "uint256"
        }
      ],
      "stateMutability": "view",
      "type": "function"
    },
    {
      "inputs": [
        {
          "internalType": "address",
          "name": "_for",
          "type": "address"
        },
        {
          "internalType": "uint256",
          "name": "_amount",
          "type": "uint256"
        }
      ],
      "name": "stakeFor",
      "outputs": [
        {
          "internalType": "bool",
          "name": "",
          "type": "bool"
        }
      ],
      "stateMutability": "nonpayable",
      "type": "function"
    },
    {
      "inputs": [],
      "name": "stakingDecimals",
      "outputs": [
        {
          "internalType": "uint256",
          "name": "",
          "type": "uint256"
        }
      ],
      "stateMutability": "view",
      "type": "function"
    },
    {
      "inputs": [],
      "name": "stakingToken",
      "outputs": [
        {
          "internalType": "address",
          "name": "",
          "type": "address"
        }
      ],
      "stateMutability": "view",
      "type": "function"
    },
    {
      "inputs": [],
      "name": "totalSupply",
      "outputs": [
        {
          "internalType": "uint256",
          "name": "",
          "type": "uint256"
        }
      ],
      "stateMutability": "view",
      "type": "function"
    },
    {
      "inputs": [
        {
          "internalType": "address",
          "name": "newOwner",
          "type": "address"
        }
      ],
      "name": "transferOwnership",
      "outputs": [],
      "stateMutability": "nonpayable",
      "type": "function"
    },
    {
      "inputs": [
        {
          "internalType": "address",
          "name": "_account",
          "type": "address"
        }
      ],
      "name": "updateFor",
      "outputs": [],
      "stateMutability": "nonpayable",
      "type": "function"
    },
    {
      "inputs": [
        {
          "internalType": "address",
          "name": "",
          "type": "address"
        },
        {
          "internalType": "address",
          "name": "",
          "type": "address"
        }
      ],
      "name": "userRewardPerTokenPaid",
      "outputs": [
        {
          "internalType": "uint256",
          "name": "",
          "type": "uint256"
        }
      ],
      "stateMutability": "view",
      "type": "function"
    },
    {
      "inputs": [
        {
          "internalType": "address",
          "name": "",
          "type": "address"
        },
        {
          "internalType": "address",
          "name": "",
          "type": "address"
        }
      ],
      "name": "userRewards",
      "outputs": [
        {
          "internalType": "uint256",
          "name": "",
          "type": "uint256"
        }
      ],
      "stateMutability": "view",
      "type": "function"
    },
    {
      "inputs": [
        {
          "internalType": "address",
          "name": "_for",
          "type": "address"
        },
        {
          "internalType": "uint256",
          "name": "_amount",
          "type": "uint256"
        },
        {
          "internalType": "bool",
          "name": "claim",
          "type": "bool"
        }
      ],
      "name": "withdrawFor",
      "outputs": [
        {
          "internalType": "bool",
          "name": "",
          "type": "bool"
        }
      ],
      "stateMutability": "nonpayable",
      "type": "function"
    }
  ],
  "bytecode": "0x60c06040523480156200001157600080fd5b5060405162001b3238038062001b328339810160408190526200003491620001af565b6200003f3362000142565b6001600160601b0319606095861b8116608090815293861b1660a0526040805193840181526001600160a01b03948516808552600060208087018281528785018381529988018381528484526005835285842098518954908b166001600160a01b0319918216178a5591516001808b01919091559a516002808b019190915590516003909901989098558754808b019098557f405787fa12a823e0f2b7631cc41b3ba8828b3321ca811111fa75cd3aa3bb5ace9097018054909716831790965590815260088552818120805460ff19908116891790915593861681526009909452808420805484168717905593168252919020805490911690911790556200021e565b600080546001600160a01b038381166001600160a01b0319831681178455604051919092169283917f8be0079c531659141344cd1fd0a4f28419497f9722a3daafe3b4186f6b6457e09190a35050565b80516001600160a01b0381168114620001aa57600080fd5b919050565b600080600080600060a08688031215620001c7578081fd5b620001d28662000192565b9450620001e26020870162000192565b9350620001f26040870162000192565b9250620002026060870162000192565b9150620002126080870162000192565b90509295509295909350565b60805160601c60a05160601c6118c56200026d6000396000818161027e015281816105390152818161094d0152610ef5015260008181610316015281816103a7015261102601526118c56000f3fe608060405234801561001057600080fd5b506004361061018e5760003560e01c80637bb7bed1116100de578063a980356a11610097578063c11f534411610071578063c11f53441461042c578063f122977714610434578063f2fde38b14610447578063f3fc7c2b1461045a5761018e565b8063a980356a146103cb578063b5fd73f8146103f6578063c00007b0146104195761018e565b80637bb7bed1146103385780638a64e0c41461034b5780638da5cb5b1461036e5780638fcf48221461037f57806399da1729146103925780639f9106d1146103a55761018e565b80632ee409081161014b5780637035ab98116101255780637035ab98146102cb57806370a08231146102f6578063715018a61461030957806372f702f3146103115761018e565b80632ee4090814610266578063570ca735146102795780635bc59ce7146102b85761018e565b80630700037d146101935780630e0a5968146102015780630e19c6991461021657806318160ddd1461023957806318838d331461024b578063211dc32d14610253575b600080fd5b6101d26101a1366004611501565b60056020526000908152604090208054600182015460028301546003909301546001600160a01b0390921692909184565b604080516001600160a01b03909516855260208501939093529183015260608201526080015b60405180910390f35b61021461020f366004611501565b61046d565b005b610229610224366004611576565b61052c565b60405190151581526020016101f8565b6003545b6040519081526020016101f8565b6102296106e5565b61023d61026136600461151b565b61088e565b61022961027436600461154d565b610940565b6102a07f000000000000000000000000000000000000000000000000000000000000000081565b6040516001600160a01b0390911681526020016101f8565b6102296102c63660046115e9565b610ade565b61023d6102d936600461151b565b600660209081526000928352604080842090915290825290205481565b61023d610304366004611501565b610c1c565b610214610c3b565b6102a07f000000000000000000000000000000000000000000000000000000000000000081565b6102a06103463660046115d1565b610ca1565b610229610359366004611501565b60096020526000908152604090205460ff1681565b6000546001600160a01b03166102a0565b61022961038d3660046115e9565b610ccb565b61023d6103a0366004611501565b610daf565b7f00000000000000000000000000000000000000000000000000000000000000006102a0565b61023d6103d936600461151b565b600760209081526000928352604080842090915290825290205481565b610229610404366004611501565b60086020526000908152604090205460ff1681565b610229610427366004611501565b610e2b565b61023d611022565b61023d610442366004611501565b6110bd565b610214610455366004611501565b6110db565b6001546102a0906001600160a01b031681565b60025460005b818110156105275760006002828154811061049e57634e487b7160e01b600052603260045260246000fd5b6000918252602090912001546001600160a01b031690506104bf848261088e565b6001600160a01b038083166000908152600760209081526040808320938916835292905220556104ee816110bd565b6001600160a01b0391821660009081526006602090815260408083209488168352939052919091205561052081611850565b9050610473565b505050565b6000336001600160a01b037f0000000000000000000000000000000000000000000000000000000000000000161461057f5760405162461bcd60e51b81526004016105769061167b565b60405180910390fd5b600254849060005b8181101561063b576000600282815481106105b257634e487b7160e01b600052603260045260246000fd5b6000918252602090912001546001600160a01b031690506105d3848261088e565b6001600160a01b03808316600090815260076020908152604080832093891683529290522055610602816110bd565b6001600160a01b0391821660009081526006602090815260408083209488168352939052919091205561063481611850565b9050610587565b508460035461064a919061180d565b6003556001600160a01b03861660009081526004602052604090205461067190869061180d565b6001600160a01b038716600081815260046020526040908190209290925590517f7084f5476618d8e60b11ef0d7d3f06914655adb8793e28ff7f018d4c76d505d5906106c09088815260200190565b60405180910390a283156106d9576106d786610e2b565b505b50600195945050505050565b6002546000903390825b818110156107a35760006002828154811061071a57634e487b7160e01b600052603260045260246000fd5b6000918252602090912001546001600160a01b0316905061073b848261088e565b6001600160a01b0380831660009081526007602090815260408083209389168352929052205561076a816110bd565b6001600160a01b0391821660009081526006602090815260408083209488168352939052919091205561079c81611850565b90506106ef565b5060025460005b81811015610883576000600282815481106107d557634e487b7160e01b600052603260045260246000fd5b60009182526020822001546001600160a01b031691506107f5338361088e565b90508015610870576001600160a01b038216600081815260076020908152604080832033808552925282209190915561082f9190836111a6565b6040518181526001600160a01b0383169033907f8e0d3fa908fd7ee819155b3ce71e292b601bbeb0cd00d7758b9d226a523cb8279060200160405180910390a35b50508061087c90611850565b90506107aa565b506001935050505090565b6001600160a01b0380821660009081526007602090815260408083209386168352929052908120546108be611022565b6108c990600a611720565b6001600160a01b038085166000908152600660209081526040808320938916835292905220546108f8856110bd565b610902919061180d565b6001600160a01b03861660009081526004602052604090205461092591906117ee565b61092f91906116ba565b61093991906116a2565b9392505050565b6000336001600160a01b037f0000000000000000000000000000000000000000000000000000000000000000161461098a5760405162461bcd60e51b81526004016105769061167b565b600254839060005b81811015610a46576000600282815481106109bd57634e487b7160e01b600052603260045260246000fd5b6000918252602090912001546001600160a01b031690506109de848261088e565b6001600160a01b03808316600090815260076020908152604080832093891683529290522055610a0d816110bd565b6001600160a01b03918216600090815260066020908152604080832094881683529390529190912055610a3f81611850565b9050610992565b5083600354610a5591906116a2565b6003556001600160a01b038516600090815260046020526040902054610a7c9085906116a2565b6001600160a01b038616600081815260046020526040908190209290925590517f9e71bc8eea02a63969f509818f2dafb9254532904319f9dbda79b67bd34a5f3d90610acb9087815260200190565b60405180910390a2506001949350505050565b6001600160a01b03811660009081526008602052604081205460ff16610b0357600080fd5b610b186001600160a01b038316333086611209565b6001600160a01b03821660009081526005602052604090206003810154610b409085906116a2565b60038083019190915554610b6d5783816002016000828254610b6291906116a2565b90915550610bcf9050565b600281015415610b90576002810154610b8690856116a2565b6000600283015593505b600354610b9b611022565b610ba690600a611720565b610bb090866117ee565b610bba91906116ba565b8160010154610bc991906116a2565b60018201555b826001600160a01b03167ffb5edb6eb340a01f6a67189edc978df97841c43752c212fc85995ea23001763585604051610c0a91815260200190565b60405180910390a25060019392505050565b6001600160a01b0381166000908152600460205260409020545b919050565b6000546001600160a01b03163314610c955760405162461bcd60e51b815260206004820181905260248201527f4f776e61626c653a2063616c6c6572206973206e6f7420746865206f776e65726044820152606401610576565b610c9f6000611247565b565b60028181548110610cb157600080fd5b6000918252602090912001546001600160a01b0316905081565b3360009081526009602052604081205460ff16610d1f5760405162461bcd60e51b81526020600482015260126024820152712737ba1030902837b7b61026b0b730b3b2b960711b6044820152606401610576565b6001600160a01b03821660009081526008602052604090205460ff16610b03576002805460018082019092557f405787fa12a823e0f2b7631cc41b3ba8828b3321ca811111fa75cd3aa3bb5ace0180546001600160a01b0319166001600160a01b0385169081179091556000818152600860205260409020805460ff1916909217909155610b1890333086611209565b6000816001600160a01b031663313ce5676040518163ffffffff1660e01b815260040160206040518083038186803b158015610dea57600080fd5b505afa158015610dfe573d6000803e3d6000fd5b505050506040513d601f19601f82011682018060405250810190610e22919061160b565b60ff1692915050565b6002546000908290825b81811015610ee957600060028281548110610e6057634e487b7160e01b600052603260045260246000fd5b6000918252602090912001546001600160a01b03169050610e81848261088e565b6001600160a01b03808316600090815260076020908152604080832093891683529290522055610eb0816110bd565b6001600160a01b03918216600090815260066020908152604080832094881683529390529190912055610ee281611850565b9050610e35565b50336001600160a01b037f00000000000000000000000000000000000000000000000000000000000000001614610f325760405162461bcd60e51b81526004016105769061167b565b60025460005b818110156106d957600060028281548110610f6357634e487b7160e01b600052603260045260246000fd5b60009182526020822001546001600160a01b03169150610f83888361088e565b9050801561100f576001600160a01b038083166000818152600760209081526040808320948d16835293905291822091909155610fc19089836111a6565b816001600160a01b0316886001600160a01b03167f8e0d3fa908fd7ee819155b3ce71e292b601bbeb0cd00d7758b9d226a523cb8278360405161100691815260200190565b60405180910390a35b50508061101b90611850565b9050610f38565b60007f00000000000000000000000000000000000000000000000000000000000000006001600160a01b031663313ce5676040518163ffffffff1660e01b815260040160206040518083038186803b15801561107d57600080fd5b505afa158015611091573d6000803e3d6000fd5b505050506040513d601f19601f820116820180604052508101906110b5919061160b565b60ff16905090565b6001600160a01b031660009081526005602052604090206001015490565b6000546001600160a01b031633146111355760405162461bcd60e51b815260206004820181905260248201527f4f776e61626c653a2063616c6c6572206973206e6f7420746865206f776e65726044820152606401610576565b6001600160a01b03811661119a5760405162461bcd60e51b815260206004820152602660248201527f4f776e61626c653a206e6577206f776e657220697320746865207a65726f206160448201526564647265737360d01b6064820152608401610576565b6111a381611247565b50565b6040516001600160a01b03831660248201526044810182905261052790849063a9059cbb60e01b906064015b60408051601f198184030181529190526020810180516001600160e01b03166001600160e01b031990931692909217909152611297565b6040516001600160a01b03808516602483015283166044820152606481018290526112419085906323b872dd60e01b906084016111d2565b50505050565b600080546001600160a01b038381166001600160a01b0319831681178455604051919092169283917f8be0079c531659141344cd1fd0a4f28419497f9722a3daafe3b4186f6b6457e09190a35050565b60006112ec826040518060400160405280602081526020017f5361666545524332303a206c6f772d6c6576656c2063616c6c206661696c6564815250856001600160a01b03166113699092919063ffffffff16565b805190915015610527578080602001905181019061130a91906115b5565b6105275760405162461bcd60e51b815260206004820152602a60248201527f5361666545524332303a204552433230206f7065726174696f6e20646964206e6044820152691bdd081cdd58d8d9595960b21b6064820152608401610576565b60606113788484600085611380565b949350505050565b6060824710156113e15760405162461bcd60e51b815260206004820152602660248201527f416464726573733a20696e73756666696369656e742062616c616e636520666f6044820152651c8818d85b1b60d21b6064820152608401610576565b6001600160a01b0385163b6114385760405162461bcd60e51b815260206004820152601d60248201527f416464726573733a2063616c6c20746f206e6f6e2d636f6e74726163740000006044820152606401610576565b600080866001600160a01b03168587604051611454919061162c565b60006040518083038185875af1925050503d8060008114611491576040519150601f19603f3d011682016040523d82523d6000602084013e611496565b606091505b50915091506114a68282866114b1565b979650505050505050565b606083156114c0575081610939565b8251156114d05782518084602001fd5b8160405162461bcd60e51b81526004016105769190611648565b80356001600160a01b0381168114610c3657600080fd5b600060208284031215611512578081fd5b610939826114ea565b6000806040838503121561152d578081fd5b611536836114ea565b9150611544602084016114ea565b90509250929050565b6000806040838503121561155f578182fd5b611568836114ea565b946020939093013593505050565b60008060006060848603121561158a578081fd5b611593846114ea565b92506020840135915060408401356115aa81611881565b809150509250925092565b6000602082840312156115c6578081fd5b815161093981611881565b6000602082840312156115e2578081fd5b5035919050565b600080604083850312156115fb578182fd5b82359150611544602084016114ea565b60006020828403121561161c578081fd5b815160ff81168114610939578182fd5b6000825161163e818460208701611824565b9190910192915050565b6000602082528251806020840152611667816040850160208701611824565b601f01601f19169190910160400192915050565b6020808252600d908201526c27b7363c9027b832b930ba37b960991b604082015260600190565b600082198211156116b5576116b561186b565b500190565b6000826116d557634e487b7160e01b81526012600452602481fd5b500490565b80825b60018086116116ec5750611717565b8187048211156116fe576116fe61186b565b8086161561170b57918102915b9490941c9380026116dd565b94509492505050565b6000610939600019848460008261173957506001610939565b8161174657506000610939565b816001811461175c576002811461176657611793565b6001915050610939565b60ff8411156117775761177761186b565b6001841b91508482111561178d5761178d61186b565b50610939565b5060208310610133831016604e8410600b84101617156117c6575081810a838111156117c1576117c161186b565b610939565b6117d384848460016116da565b8086048211156117e5576117e561186b565b02949350505050565b60008160001904831182151516156118085761180861186b565b500290565b60008282101561181f5761181f61186b565b500390565b60005b8381101561183f578181015183820152602001611827565b838111156112415750506000910152565b60006000198214156118645761186461186b565b5060010190565b634e487b7160e01b600052601160045260246000fd5b80151581146111a357600080fdfea26469706673582212206893cb142eb4ee20c000688b26b182d36ee8361aa27c965f94cca4f70a8f390964736f6c63430008020033",
  "linkReferences": {},
  "deployedLinkReferences": {}
}