{
  "_format": "hh-sol-artifact-1",
  "contractName": "Locker",
  "sourceName": "contracts/MainProtocol/Locker.sol",
  "abi": [
    {
      "inputs": [
        {
          "internalType": "address",
          "name": "_lockToken",
          "type": "address"
        },
        {
          "internalType": "address",
          "name": "_masterchief",
          "type": "address"
        },
        {
          "internalType": "uint256",
          "name": "_lockTime",
          "type": "uint256"
        },
        {
          "internalType": "uint256",
          "name": "_maxDeposits",
          "type": "uint256"
        }
      ],
      "stateMutability": "nonpayable",
      "type": "constructor"
    },
    {
      "anonymous": false,
      "inputs": [
        {
          "indexed": true,
          "internalType": "address",
          "name": "owner",
          "type": "address"
        },
        {
          "indexed": true,
          "internalType": "address",
          "name": "spender",
          "type": "address"
        },
        {
          "indexed": false,
          "internalType": "uint256",
          "name": "value",
          "type": "uint256"
        }
      ],
      "name": "Approval",
      "type": "event"
    },
    {
      "anonymous": false,
      "inputs": [
        {
          "indexed": true,
          "internalType": "address",
          "name": "user",
          "type": "address"
        },
        {
          "indexed": false,
          "internalType": "uint256",
          "name": "amount",
          "type": "uint256"
        },
        {
          "indexed": false,
          "internalType": "uint256",
          "name": "index",
          "type": "uint256"
        }
      ],
      "name": "NewDeposit",
      "type": "event"
    },
    {
      "anonymous": false,
      "inputs": [
        {
          "indexed": false,
          "internalType": "uint256",
          "name": "lockTime",
          "type": "uint256"
        }
      ],
      "name": "NewLockTime",
      "type": "event"
    },
    {
      "anonymous": false,
      "inputs": [
        {
          "indexed": true,
          "internalType": "address",
          "name": "user",
          "type": "address"
        },
        {
          "indexed": false,
          "internalType": "uint256",
          "name": "amount",
          "type": "uint256"
        },
        {
          "indexed": false,
          "internalType": "uint256",
          "name": "index",
          "type": "uint256"
        }
      ],
      "name": "NewWithdraw",
      "type": "event"
    },
    {
      "anonymous": false,
      "inputs": [
        {
          "indexed": true,
          "internalType": "address",
          "name": "previousOwner",
          "type": "address"
        },
        {
          "indexed": true,
          "internalType": "address",
          "name": "newOwner",
          "type": "address"
        }
      ],
      "name": "OwnershipTransferred",
      "type": "event"
    },
    {
      "anonymous": false,
      "inputs": [
        {
          "indexed": true,
          "internalType": "address",
          "name": "from",
          "type": "address"
        },
        {
          "indexed": true,
          "internalType": "address",
          "name": "to",
          "type": "address"
        },
        {
          "indexed": false,
          "internalType": "uint256",
          "name": "value",
          "type": "uint256"
        }
      ],
      "name": "Transfer",
      "type": "event"
    },
    {
      "inputs": [
        {
          "internalType": "address",
          "name": "owner",
          "type": "address"
        },
        {
          "internalType": "address",
          "name": "spender",
          "type": "address"
        }
      ],
      "name": "allowance",
      "outputs": [
        {
          "internalType": "uint256",
          "name": "",
          "type": "uint256"
        }
      ],
      "stateMutability": "view",
      "type": "function"
    },
    {
      "inputs": [
        {
          "internalType": "address",
          "name": "spender",
          "type": "address"
        },
        {
          "internalType": "uint256",
          "name": "amount",
          "type": "uint256"
        }
      ],
      "name": "approve",
      "outputs": [
        {
          "internalType": "bool",
          "name": "",
          "type": "bool"
        }
      ],
      "stateMutability": "nonpayable",
      "type": "function"
    },
    {
      "inputs": [
        {
          "internalType": "address",
          "name": "account",
          "type": "address"
        }
      ],
      "name": "balanceOf",
      "outputs": [
        {
          "internalType": "uint256",
          "name": "",
          "type": "uint256"
        }
      ],
      "stateMutability": "view",
      "type": "function"
    },
    {
      "inputs": [],
      "name": "decimals",
      "outputs": [
        {
          "internalType": "uint8",
          "name": "",
          "type": "uint8"
        }
      ],
      "stateMutability": "view",
      "type": "function"
    },
    {
      "inputs": [
        {
          "internalType": "address",
          "name": "spender",
          "type": "address"
        },
        {
          "internalType": "uint256",
          "name": "subtractedValue",
          "type": "uint256"
        }
      ],
      "name": "decreaseAllowance",
      "outputs": [
        {
          "internalType": "bool",
          "name": "",
          "type": "bool"
        }
      ],
      "stateMutability": "nonpayable",
      "type": "function"
    },
    {
      "inputs": [
        {
          "internalType": "uint256",
          "name": "_amount",
          "type": "uint256"
        },
        {
          "internalType": "uint256",
          "name": "_index",
          "type": "uint256"
        },
        {
          "internalType": "address",
          "name": "user",
          "type": "address"
        },
        {
          "internalType": "bool",
          "name": "force",
          "type": "bool"
        }
      ],
      "name": "depositFor",
      "outputs": [],
      "stateMutability": "nonpayable",
      "type": "function"
    },
    {
      "inputs": [
        {
          "internalType": "address",
          "name": "_user",
          "type": "address"
        }
      ],
      "name": "getUserDepositLength",
      "outputs": [
        {
          "internalType": "uint256",
          "name": "nbDeposits",
          "type": "uint256"
        }
      ],
      "stateMutability": "view",
      "type": "function"
    },
    {
      "inputs": [
        {
          "internalType": "address",
          "name": "_user",
          "type": "address"
        },
        {
          "internalType": "uint256",
          "name": "n",
          "type": "uint256"
        }
      ],
      "name": "getUserNthDeposit",
      "outputs": [
        {
          "internalType": "uint256",
          "name": "depositTime",
          "type": "uint256"
        },
        {
          "internalType": "uint256",
          "name": "endTime",
          "type": "uint256"
        },
        {
          "internalType": "uint256",
          "name": "amount",
          "type": "uint256"
        }
      ],
      "stateMutability": "view",
      "type": "function"
    },
    {
      "inputs": [
        {
          "internalType": "address",
          "name": "spender",
          "type": "address"
        },
        {
          "internalType": "uint256",
          "name": "addedValue",
          "type": "uint256"
        }
      ],
      "name": "increaseAllowance",
      "outputs": [
        {
          "internalType": "bool",
          "name": "",
          "type": "bool"
        }
      ],
      "stateMutability": "nonpayable",
      "type": "function"
    },
    {
      "inputs": [],
      "name": "lockTime",
      "outputs": [
        {
          "internalType": "uint256",
          "name": "",
          "type": "uint256"
        }
      ],
      "stateMutability": "view",
      "type": "function"
    },
    {
      "inputs": [],
      "name": "lockToken",
      "outputs": [
        {
          "internalType": "address",
          "name": "",
          "type": "address"
        }
      ],
      "stateMutability": "view",
      "type": "function"
    },
    {
      "inputs": [],
      "name": "masterchief",
      "outputs": [
        {
          "internalType": "address",
          "name": "",
          "type": "address"
        }
      ],
      "stateMutability": "view",
      "type": "function"
    },
    {
      "inputs": [],
      "name": "maxDeposits",
      "outputs": [
        {
          "internalType": "uint256",
          "name": "",
          "type": "uint256"
        }
      ],
      "stateMutability": "view",
      "type": "function"
    },
    {
      "inputs": [],
      "name": "name",
      "outputs": [
        {
          "internalType": "string",
          "name": "",
          "type": "string"
        }
      ],
      "stateMutability": "view",
      "type": "function"
    },
    {
      "inputs": [],
      "name": "owner",
      "outputs": [
        {
          "internalType": "address",
          "name": "",
          "type": "address"
        }
      ],
      "stateMutability": "view",
      "type": "function"
    },
    {
      "inputs": [],
      "name": "renounceOwnership",
      "outputs": [],
      "stateMutability": "nonpayable",
      "type": "function"
    },
    {
      "inputs": [
        {
          "internalType": "uint256",
          "name": "_newvalue",
          "type": "uint256"
        }
      ],
      "name": "setLockTime",
      "outputs": [],
      "stateMutability": "nonpayable",
      "type": "function"
    },
    {
      "inputs": [
        {
          "internalType": "uint256",
          "name": "_maxDeposits",
          "type": "uint256"
        }
      ],
      "name": "setMaxDeposits",
      "outputs": [],
      "stateMutability": "nonpayable",
      "type": "function"
    },
    {
      "inputs": [],
      "name": "symbol",
      "outputs": [
        {
          "internalType": "string",
          "name": "",
          "type": "string"
        }
      ],
      "stateMutability": "view",
      "type": "function"
    },
    {
      "inputs": [],
      "name": "totalSupply",
      "outputs": [
        {
          "internalType": "uint256",
          "name": "",
          "type": "uint256"
        }
      ],
      "stateMutability": "view",
      "type": "function"
    },
    {
      "inputs": [
        {
          "internalType": "address",
          "name": "recipient",
          "type": "address"
        },
        {
          "internalType": "uint256",
          "name": "amount",
          "type": "uint256"
        }
      ],
      "name": "transfer",
      "outputs": [
        {
          "internalType": "bool",
          "name": "",
          "type": "bool"
        }
      ],
      "stateMutability": "pure",
      "type": "function"
    },
    {
      "inputs": [
        {
          "internalType": "address",
          "name": "sender",
          "type": "address"
        },
        {
          "internalType": "address",
          "name": "recipient",
          "type": "address"
        },
        {
          "internalType": "uint256",
          "name": "amount",
          "type": "uint256"
        }
      ],
      "name": "transferFrom",
      "outputs": [
        {
          "internalType": "bool",
          "name": "",
          "type": "bool"
        }
      ],
      "stateMutability": "pure",
      "type": "function"
    },
    {
      "inputs": [
        {
          "internalType": "address",
          "name": "newOwner",
          "type": "address"
        }
      ],
      "name": "transferOwnership",
      "outputs": [],
      "stateMutability": "nonpayable",
      "type": "function"
    },
    {
      "inputs": [
        {
          "internalType": "address",
          "name": "",
          "type": "address"
        },
        {
          "internalType": "uint256",
          "name": "",
          "type": "uint256"
        }
      ],
      "name": "userDeposits",
      "outputs": [
        {
          "internalType": "uint256",
          "name": "depositTime",
          "type": "uint256"
        },
        {
          "internalType": "uint256",
          "name": "endTime",
          "type": "uint256"
        },
        {
          "internalType": "uint256",
          "name": "amount",
          "type": "uint256"
        }
      ],
      "stateMutability": "view",
      "type": "function"
    },
    {
      "inputs": [
        {
          "internalType": "uint256",
          "name": "_amount",
          "type": "uint256"
        },
        {
          "internalType": "uint256",
          "name": "_index",
          "type": "uint256"
        },
        {
          "internalType": "address",
          "name": "user",
          "type": "address"
        }
      ],
      "name": "withdrawFor",
      "outputs": [],
      "stateMutability": "nonpayable",
      "type": "function"
    }
  ],
  "bytecode": "0x60c06040523480156200001157600080fd5b506040516200163638038062001636833981016040819052620000349162000257565b6040518060400160405280600a8152602001692637b1b5b2b2102923a760b11b81525060405180604001604052806004815260200163262923a760e11b8152506200008e620000886200014060201b60201c565b62000144565b8151620000a390600490602085019062000194565b508051620000b990600590602084019062000194565b5050506001600160601b0319606085901b16608052600682905580620001255760405162461bcd60e51b815260206004820152601f60248201527f4d6178204465706f736974732073686f756c64206e6f74206265206e756c6c00604482015260640160405180910390fd5b6007555060601b6001600160601b03191660a05250620002db565b3390565b600080546001600160a01b038381166001600160a01b0319831681178455604051919092169283917f8be0079c531659141344cd1fd0a4f28419497f9722a3daafe3b4186f6b6457e09190a35050565b828054620001a2906200029e565b90600052602060002090601f016020900481019282620001c6576000855562000211565b82601f10620001e157805160ff191683800117855562000211565b8280016001018555821562000211579182015b8281111562000211578251825591602001919060010190620001f4565b506200021f92915062000223565b5090565b5b808211156200021f576000815560010162000224565b80516001600160a01b03811681146200025257600080fd5b919050565b600080600080608085870312156200026d578384fd5b62000278856200023a565b935062000288602086016200023a565b6040860151606090960151949790965092505050565b600181811c90821680620002b357607f821691505b60208210811415620002d557634e487b7160e01b600052602260045260246000fd5b50919050565b60805160601c60a05160601c611313620003236000396000818161030a01528181610515015281816106890152818161093501526109e90152600061036501526113136000f3fe608060405234801561001057600080fd5b50600436106101725760003560e01c806370a08231116100de578063a457c2d711610097578063bca7a9e211610071578063bca7a9e214610360578063d18154a414610387578063dd62ed3e1461039a578063f2fde38b146103d357600080fd5b8063a457c2d71461032c578063a9059cbb1461033f578063ae04d45d1461034d57600080fd5b806370a082311461027e578063715018a6146102a757806387fa85f6146102af5780638da5cb5b146102d857806395d89b41146102fd5780639e9284351461030557600080fd5b806318160ddd1161013057806318160ddd1461022557806323b872dd1461022d578063313ce56714610240578063354d594b1461024f578063395093511461025857806364e3826a1461026b57600080fd5b8062fed9021461017757806306fdde031461018c57806308f43333146101aa578063095ea7b3146101d85780630d668087146101fb5780630ec9c06f14610212575b600080fd5b61018a6101853660046110fa565b6103e6565b005b61019461041e565b6040516101a19190611191565b60405180910390f35b6101bd6101b83660046110d1565b6104b0565b604080519384526020840192909252908201526060016101a1565b6101eb6101e63660046110d1565b6104f2565b60405190151581526020016101a1565b61020460065481565b6040519081526020016101a1565b61018a610220366004611112565b61050a565b600354610204565b6101eb61023b366004611096565b6106f9565b604051601281526020016101a1565b61020460075481565b6101eb6102663660046110d1565b610738565b6101bd6102793660046110d1565b610777565b61020461028c366004611043565b6001600160a01b031660009081526001602052604090205490565b61018a6107e3565b6102046102bd366004611043565b6001600160a01b031660009081526008602052604090205490565b6000546001600160a01b03165b6040516001600160a01b0390911681526020016101a1565b610194610819565b6102e57f000000000000000000000000000000000000000000000000000000000000000081565b6101eb61033a3660046110d1565b610828565b6101eb61023b3660046110d1565b61018a61035b3660046110fa565b6108c5565b6102e57f000000000000000000000000000000000000000000000000000000000000000081565b61018a610395366004611146565b61092a565b6102046103a8366004611064565b6001600160a01b03918216600090815260026020908152604080832093909416825291909152205490565b61018a6103e1366004611043565b610bf2565b6000546001600160a01b031633146104195760405162461bcd60e51b8152600401610410906111e4565b60405180910390fd5b600755565b60606004805461042d9061128c565b80601f01602080910402602001604051908101604052809291908181526020018280546104599061128c565b80156104a65780601f1061047b576101008083540402835291602001916104a6565b820191906000526020600020905b81548152906001019060200180831161048957829003601f168201915b5050505050905090565b600860205281600052604060002081815481106104cc57600080fd5b600091825260209091206003909102018054600182015460029092015490935090915083565b600033610500818585610c8d565b5060019392505050565b336001600160a01b037f000000000000000000000000000000000000000000000000000000000000000016146105755760405162461bcd60e51b815260206004820152601060248201526f27b7363c9026b0b9ba32b931b434b2b360811b6044820152606401610410565b60075482106105965760405162461bcd60e51b815260040161041090611219565b6001600160a01b03811660009081526008602052604081208054849081106105ce57634e487b7160e01b600052603260045260246000fd5b9060005260206000209060030201905083816002015410156106275760405162461bcd60e51b8152602060048201526012602482015271139bdd08195b9bdd59da0819195c1bdcda5d60721b6044820152606401610410565b428160010154111561066a5760405162461bcd60e51b815260206004820152600c60248201526b139bdd081d5b9b1bd8dad95960a21b6044820152606401610410565b8381600201600082825461067e9190611275565b909155506106ae90507f000000000000000000000000000000000000000000000000000000000000000085610db2565b60408051858152602081018590526001600160a01b038416917f8588241a11a552c87735c37d70091e6ca259565161dddb4e325da612a823f74891015b60405180910390a250505050565b60405162461bcd60e51b81526020600482015260116024820152704e6f74205472616e736665727261626c6560781b6044820152600090606401610410565b3360008181526002602090815260408083206001600160a01b0387168452909152812054909190610500908290869061077290879061125d565b610c8d565b6001600160a01b0382166000908152600860205260408120805482918291829190869081106107b657634e487b7160e01b600052603260045260246000fd5b90600052602060002090600302019050806000015493508060010154925080600201549150509250925092565b6000546001600160a01b0316331461080d5760405162461bcd60e51b8152600401610410906111e4565b6108176000610ef8565b565b60606005805461042d9061128c565b3360008181526002602090815260408083206001600160a01b0387168452909152812054909190838110156108ad5760405162461bcd60e51b815260206004820152602560248201527f45524332303a2064656372656173656420616c6c6f77616e63652062656c6f77604482015264207a65726f60d81b6064820152608401610410565b6108ba8286868403610c8d565b506001949350505050565b6000546001600160a01b031633146108ef5760405162461bcd60e51b8152600401610410906111e4565b60068190556040518181527f057ac4f41f09e298debf7d5d392e5792e4a23af7c9e36df13d934f17d7fa40199060200160405180910390a150565b336001600160a01b037f000000000000000000000000000000000000000000000000000000000000000016146109955760405162461bcd60e51b815260206004820152601060248201526f27b7363c9026b0b9ba32b931b434b2b360811b6044820152606401610410565b6001600160a01b0382166000908152600860205260409020546109b990600161125d565b831080156109c8575060075483105b6109e45760405162461bcd60e51b815260040161041090611219565b610a0e7f000000000000000000000000000000000000000000000000000000000000000085610f48565b6001600160a01b038216600090815260086020526040902054831015610b30576001600160a01b0382166000908152600860205260408120805485908110610a6657634e487b7160e01b600052603260045260246000fd5b90600052602060002090600302019050600081600201541115610b005781610b005760405162461bcd60e51b815260206004820152604160248201527f4465706f7369742077696c6c20657874656e64206c6f636b2074696d65206f6660448201527f2070726576696f75732c206c61756e6368207769746820666f7263653d5472756064820152606560f81b608482015260a401610410565b42808255600654610b109161125d565b60018201556002810154610b2590869061125d565b600290910155610bb1565b60086000836001600160a01b03166001600160a01b03168152602001908152602001600020604051806060016040528042815260200160065442610b74919061125d565b8152602090810187905282546001818101855560009485529382902083516003909202019081559082015192810192909255604001516002909101555b60408051858152602081018590526001600160a01b038416917fa91e0c3165215fe453f5bf3de083d5fd6c4e62c491849155a042a647588c53a091016106eb565b6000546001600160a01b03163314610c1c5760405162461bcd60e51b8152600401610410906111e4565b6001600160a01b038116610c815760405162461bcd60e51b815260206004820152602660248201527f4f776e61626c653a206e6577206f776e657220697320746865207a65726f206160448201526564647265737360d01b6064820152608401610410565b610c8a81610ef8565b50565b6001600160a01b038316610cef5760405162461bcd60e51b8152602060048201526024808201527f45524332303a20617070726f76652066726f6d20746865207a65726f206164646044820152637265737360e01b6064820152608401610410565b6001600160a01b038216610d505760405162461bcd60e51b815260206004820152602260248201527f45524332303a20617070726f766520746f20746865207a65726f206164647265604482015261737360f01b6064820152608401610410565b6001600160a01b0383811660008181526002602090815260408083209487168084529482529182902085905590518481527f8c5be1e5ebec7d5bd14f71427d1e84f3dd0314c0f7b2291e5b200ac8c7c3b92591015b60405180910390a3505050565b6001600160a01b038216610e125760405162461bcd60e51b815260206004820152602160248201527f45524332303a206275726e2066726f6d20746865207a65726f206164647265736044820152607360f81b6064820152608401610410565b6001600160a01b03821660009081526001602052604090205481811015610e865760405162461bcd60e51b815260206004820152602260248201527f45524332303a206275726e20616d6f756e7420657863656564732062616c616e604482015261636560f01b6064820152608401610410565b6001600160a01b0383166000908152600160205260408120838303905560038054849290610eb5908490611275565b90915550506040518281526000906001600160a01b038516907fddf252ad1be2c89b69c2b068fc378daa952ba7f163c4a11628f55a4df523b3ef90602001610da5565b600080546001600160a01b038381166001600160a01b0319831681178455604051919092169283917f8be0079c531659141344cd1fd0a4f28419497f9722a3daafe3b4186f6b6457e09190a35050565b6001600160a01b038216610f9e5760405162461bcd60e51b815260206004820152601f60248201527f45524332303a206d696e7420746f20746865207a65726f2061646472657373006044820152606401610410565b8060036000828254610fb0919061125d565b90915550506001600160a01b03821660009081526001602052604081208054839290610fdd90849061125d565b90915550506040518181526001600160a01b038316906000907fddf252ad1be2c89b69c2b068fc378daa952ba7f163c4a11628f55a4df523b3ef9060200160405180910390a35050565b80356001600160a01b038116811461103e57600080fd5b919050565b600060208284031215611054578081fd5b61105d82611027565b9392505050565b60008060408385031215611076578081fd5b61107f83611027565b915061108d60208401611027565b90509250929050565b6000806000606084860312156110aa578081fd5b6110b384611027565b92506110c160208501611027565b9150604084013590509250925092565b600080604083850312156110e3578182fd5b6110ec83611027565b946020939093013593505050565b60006020828403121561110b578081fd5b5035919050565b600080600060608486031215611126578283fd5b833592506020840135915061113d60408501611027565b90509250925092565b6000806000806080858703121561115b578081fd5b843593506020850135925061117260408601611027565b915060608501358015158114611186578182fd5b939692955090935050565b6000602080835283518082850152825b818110156111bd578581018301518582016040015282016111a1565b818111156111ce5783604083870101525b50601f01601f1916929092016040019392505050565b6020808252818101527f4f776e61626c653a2063616c6c6572206973206e6f7420746865206f776e6572604082015260600190565b60208082526024908201527f4e6f7420696e207468652072616e6765206f6620616c6c6f776564206465706f6040820152637369747360e01b606082015260800190565b60008219821115611270576112706112c7565b500190565b600082821015611287576112876112c7565b500390565b600181811c908216806112a057607f821691505b602082108114156112c157634e487b7160e01b600052602260045260246000fd5b50919050565b634e487b7160e01b600052601160045260246000fdfea2646970667358221220312a2b0d08f684800a89da1e83e928a06b43955977790e829a09fa8def5bd1c664736f6c63430008040033",
  "linkReferences": {},
  "deployedLinkReferences": {}
}