{
  "_format": "hh-sol-artifact-1",
  "contractName": "RGNLOCK",
  "sourceName": "contracts/NFT/RgnLock.sol",
  "abi": [
    {
      "inputs": [],
      "stateMutability": "nonpayable",
      "type": "constructor"
    },
    {
      "anonymous": false,
      "inputs": [
        {
          "indexed": true,
          "internalType": "address",
          "name": "account",
          "type": "address"
        },
        {
          "indexed": true,
          "internalType": "uint256",
          "name": "trsrNodeId",
          "type": "uint256"
        },
        {
          "indexed": true,
          "internalType": "uint256",
          "name": "amountAdd",
          "type": "uint256"
        }
      ],
      "name": "AddToken",
      "type": "event"
    },
    {
      "anonymous": false,
      "inputs": [
        {
          "indexed": true,
          "internalType": "address",
          "name": "owner",
          "type": "address"
        },
        {
          "indexed": true,
          "internalType": "address",
          "name": "approved",
          "type": "address"
        },
        {
          "indexed": true,
          "internalType": "uint256",
          "name": "tokenId",
          "type": "uint256"
        }
      ],
      "name": "Approval",
      "type": "event"
    },
    {
      "anonymous": false,
      "inputs": [
        {
          "indexed": true,
          "internalType": "address",
          "name": "owner",
          "type": "address"
        },
        {
          "indexed": true,
          "internalType": "address",
          "name": "operator",
          "type": "address"
        },
        {
          "indexed": false,
          "internalType": "bool",
          "name": "approved",
          "type": "bool"
        }
      ],
      "name": "ApprovalForAll",
      "type": "event"
    },
    {
      "anonymous": false,
      "inputs": [
        {
          "indexed": true,
          "internalType": "address",
          "name": "account",
          "type": "address"
        },
        {
          "indexed": true,
          "internalType": "uint256",
          "name": "nftId",
          "type": "uint256"
        },
        {
          "indexed": false,
          "internalType": "uint256",
          "name": "amountToCompound",
          "type": "uint256"
        }
      ],
      "name": "Compound",
      "type": "event"
    },
    {
      "anonymous": false,
      "inputs": [
        {
          "indexed": true,
          "internalType": "address",
          "name": "account",
          "type": "address"
        },
        {
          "indexed": true,
          "internalType": "uint256",
          "name": "newTrsrNodeId",
          "type": "uint256"
        },
        {
          "indexed": false,
          "internalType": "uint256",
          "name": "amount",
          "type": "uint256"
        }
      ],
      "name": "Create",
      "type": "event"
    },
    {
      "anonymous": false,
      "inputs": [
        {
          "indexed": true,
          "internalType": "address",
          "name": "account",
          "type": "address"
        },
        {
          "indexed": true,
          "internalType": "uint256",
          "name": "trsrnodeId",
          "type": "uint256"
        },
        {
          "indexed": false,
          "internalType": "uint256",
          "name": "amoutLock",
          "type": "uint256"
        }
      ],
      "name": "GenerateBrgn",
      "type": "event"
    },
    {
      "anonymous": false,
      "inputs": [
        {
          "indexed": true,
          "internalType": "address",
          "name": "previousOwner",
          "type": "address"
        },
        {
          "indexed": true,
          "internalType": "address",
          "name": "newOwner",
          "type": "address"
        }
      ],
      "name": "OwnershipTransferred",
      "type": "event"
    },
    {
      "anonymous": false,
      "inputs": [
        {
          "indexed": false,
          "internalType": "address",
          "name": "account",
          "type": "address"
        }
      ],
      "name": "Paused",
      "type": "event"
    },
    {
      "anonymous": false,
      "inputs": [
        {
          "indexed": false,
          "internalType": "uint256",
          "name": "tokenId",
          "type": "uint256"
        },
        {
          "components": [
            {
              "internalType": "address payable",
              "name": "account",
              "type": "address"
            },
            {
              "internalType": "uint96",
              "name": "value",
              "type": "uint96"
            }
          ],
          "indexed": false,
          "internalType": "struct LibPart.Part[]",
          "name": "royalties",
          "type": "tuple[]"
        }
      ],
      "name": "RoyaltiesSet",
      "type": "event"
    },
    {
      "anonymous": false,
      "inputs": [
        {
          "indexed": true,
          "internalType": "address",
          "name": "from",
          "type": "address"
        },
        {
          "indexed": true,
          "internalType": "address",
          "name": "to",
          "type": "address"
        },
        {
          "indexed": true,
          "internalType": "uint256",
          "name": "tokenId",
          "type": "uint256"
        }
      ],
      "name": "Transfer",
      "type": "event"
    },
    {
      "anonymous": false,
      "inputs": [
        {
          "indexed": false,
          "internalType": "address",
          "name": "account",
          "type": "address"
        }
      ],
      "name": "Unpaused",
      "type": "event"
    },
    {
      "anonymous": false,
      "inputs": [
        {
          "indexed": true,
          "internalType": "address",
          "name": "account",
          "type": "address"
        },
        {
          "indexed": true,
          "internalType": "uint256",
          "name": "trsrnodeId",
          "type": "uint256"
        },
        {
          "indexed": false,
          "internalType": "uint256",
          "name": "amoutLock",
          "type": "uint256"
        }
      ],
      "name": "Withdraw",
      "type": "event"
    },
    {
      "inputs": [
        {
          "internalType": "uint256",
          "name": "",
          "type": "uint256"
        }
      ],
      "name": "_rgnsLock",
      "outputs": [
        {
          "internalType": "uint256",
          "name": "id",
          "type": "uint256"
        },
        {
          "internalType": "uint256",
          "name": "creationTime",
          "type": "uint256"
        },
        {
          "internalType": "uint256",
          "name": "lastProcessing",
          "type": "uint256"
        },
        {
          "internalType": "uint256",
          "name": "timeToLock",
          "type": "uint256"
        },
        {
          "internalType": "uint8",
          "name": "monthLock",
          "type": "uint8"
        },
        {
          "internalType": "uint256",
          "name": "rightsTime",
          "type": "uint256"
        },
        {
          "internalType": "uint256",
          "name": "rgnLock",
          "type": "uint256"
        },
        {
          "internalType": "uint256",
          "name": "bRgnLock",
          "type": "uint256"
        },
        {
          "internalType": "uint16",
          "name": "apr",
          "type": "uint16"
        },
        {
          "internalType": "address",
          "name": "owner",
          "type": "address"
        },
        {
          "internalType": "bool",
          "name": "exists",
          "type": "bool"
        }
      ],
      "stateMutability": "view",
      "type": "function"
    },
    {
      "inputs": [
        {
          "internalType": "uint256",
          "name": "_rgnLockId",
          "type": "uint256"
        },
        {
          "internalType": "uint256",
          "name": "_amountToken",
          "type": "uint256"
        }
      ],
      "name": "addTokenLock",
      "outputs": [],
      "stateMutability": "nonpayable",
      "type": "function"
    },
    {
      "inputs": [
        {
          "internalType": "uint8",
          "name": "",
          "type": "uint8"
        }
      ],
      "name": "allocByTiers",
      "outputs": [
        {
          "internalType": "uint256",
          "name": "",
          "type": "uint256"
        }
      ],
      "stateMutability": "view",
      "type": "function"
    },
    {
      "inputs": [
        {
          "internalType": "address",
          "name": "to",
          "type": "address"
        },
        {
          "internalType": "uint256",
          "name": "tokenId",
          "type": "uint256"
        }
      ],
      "name": "approve",
      "outputs": [],
      "stateMutability": "nonpayable",
      "type": "function"
    },
    {
      "inputs": [
        {
          "internalType": "address",
          "name": "owner",
          "type": "address"
        }
      ],
      "name": "balanceOf",
      "outputs": [
        {
          "internalType": "uint256",
          "name": "",
          "type": "uint256"
        }
      ],
      "stateMutability": "view",
      "type": "function"
    },
    {
      "inputs": [
        {
          "components": [
            {
              "internalType": "uint256",
              "name": "id",
              "type": "uint256"
            },
            {
              "internalType": "uint256",
              "name": "creationTime",
              "type": "uint256"
            },
            {
              "internalType": "uint256",
              "name": "lastProcessing",
              "type": "uint256"
            },
            {
              "internalType": "uint256",
              "name": "timeToLock",
              "type": "uint256"
            },
            {
              "internalType": "uint8",
              "name": "monthLock",
              "type": "uint8"
            },
            {
              "internalType": "uint256",
              "name": "rightsTime",
              "type": "uint256"
            },
            {
              "internalType": "uint256",
              "name": "rgnLock",
              "type": "uint256"
            },
            {
              "internalType": "uint256",
              "name": "bRgnLock",
              "type": "uint256"
            },
            {
              "internalType": "uint16",
              "name": "apr",
              "type": "uint16"
            },
            {
              "internalType": "address",
              "name": "owner",
              "type": "address"
            },
            {
              "internalType": "bool",
              "name": "exists",
              "type": "bool"
            }
          ],
          "internalType": "struct RGNLOCK.RgnLockEntity",
          "name": "rgnLock",
          "type": "tuple"
        }
      ],
      "name": "calculateRewardsBrgn",
      "outputs": [
        {
          "internalType": "uint256",
          "name": "",
          "type": "uint256"
        }
      ],
      "stateMutability": "view",
      "type": "function"
    },
    {
      "inputs": [],
      "name": "compoundDelay",
      "outputs": [
        {
          "internalType": "uint256",
          "name": "",
          "type": "uint256"
        }
      ],
      "stateMutability": "view",
      "type": "function"
    },
    {
      "inputs": [
        {
          "internalType": "uint256",
          "name": "_rgnLockId",
          "type": "uint256"
        },
        {
          "internalType": "bool",
          "name": "inside",
          "type": "bool"
        }
      ],
      "name": "compoundReward",
      "outputs": [],
      "stateMutability": "nonpayable",
      "type": "function"
    },
    {
      "inputs": [
        {
          "internalType": "uint256",
          "name": "_rgnLockId",
          "type": "uint256"
        }
      ],
      "name": "generateBRgn",
      "outputs": [],
      "stateMutability": "nonpayable",
      "type": "function"
    },
    {
      "inputs": [
        {
          "internalType": "uint8",
          "name": "",
          "type": "uint8"
        }
      ],
      "name": "generateRgnByTiers",
      "outputs": [
        {
          "internalType": "uint256",
          "name": "",
          "type": "uint256"
        }
      ],
      "stateMutability": "view",
      "type": "function"
    },
    {
      "inputs": [
        {
          "internalType": "uint256",
          "name": "tokenId",
          "type": "uint256"
        }
      ],
      "name": "getApproved",
      "outputs": [
        {
          "internalType": "address",
          "name": "",
          "type": "address"
        }
      ],
      "stateMutability": "view",
      "type": "function"
    },
    {
      "inputs": [
        {
          "internalType": "address",
          "name": "_owner",
          "type": "address"
        }
      ],
      "name": "getNftsOfOwner",
      "outputs": [
        {
          "internalType": "uint32[]",
          "name": "",
          "type": "uint32[]"
        }
      ],
      "stateMutability": "view",
      "type": "function"
    },
    {
      "inputs": [
        {
          "internalType": "uint256",
          "name": "id",
          "type": "uint256"
        }
      ],
      "name": "getRaribleRoyalties",
      "outputs": [
        {
          "components": [
            {
              "internalType": "address payable",
              "name": "account",
              "type": "address"
            },
            {
              "internalType": "uint96",
              "name": "value",
              "type": "uint96"
            }
          ],
          "internalType": "struct LibPart.Part[]",
          "name": "",
          "type": "tuple[]"
        }
      ],
      "stateMutability": "view",
      "type": "function"
    },
    {
      "inputs": [
        {
          "internalType": "address",
          "name": "owner",
          "type": "address"
        },
        {
          "internalType": "address",
          "name": "operator",
          "type": "address"
        }
      ],
      "name": "isApprovedForAll",
      "outputs": [
        {
          "internalType": "bool",
          "name": "",
          "type": "bool"
        }
      ],
      "stateMutability": "view",
      "type": "function"
    },
    {
      "inputs": [
        {
          "internalType": "address",
          "name": "account",
          "type": "address"
        },
        {
          "internalType": "uint256",
          "name": "_rgnLockId",
          "type": "uint256"
        }
      ],
      "name": "isApprovedOrOwnerOfNft",
      "outputs": [
        {
          "internalType": "bool",
          "name": "",
          "type": "bool"
        }
      ],
      "stateMutability": "view",
      "type": "function"
    },
    {
      "inputs": [
        {
          "internalType": "address",
          "name": "_account",
          "type": "address"
        },
        {
          "internalType": "uint256",
          "name": "_amountLock",
          "type": "uint256"
        },
        {
          "internalType": "uint8",
          "name": "_timeToLock",
          "type": "uint8"
        }
      ],
      "name": "mint",
      "outputs": [],
      "stateMutability": "nonpayable",
      "type": "function"
    },
    {
      "inputs": [],
      "name": "name",
      "outputs": [
        {
          "internalType": "string",
          "name": "",
          "type": "string"
        }
      ],
      "stateMutability": "view",
      "type": "function"
    },
    {
      "inputs": [
        {
          "internalType": "address",
          "name": "_owner",
          "type": "address"
        }
      ],
      "name": "nftsOwnedBy",
      "outputs": [
        {
          "internalType": "uint16",
          "name": "",
          "type": "uint16"
        }
      ],
      "stateMutability": "view",
      "type": "function"
    },
    {
      "inputs": [],
      "name": "owner",
      "outputs": [
        {
          "internalType": "address",
          "name": "",
          "type": "address"
        }
      ],
      "stateMutability": "view",
      "type": "function"
    },
    {
      "inputs": [
        {
          "internalType": "uint256",
          "name": "tokenId",
          "type": "uint256"
        }
      ],
      "name": "ownerOf",
      "outputs": [
        {
          "internalType": "address",
          "name": "",
          "type": "address"
        }
      ],
      "stateMutability": "view",
      "type": "function"
    },
    {
      "inputs": [],
      "name": "paused",
      "outputs": [
        {
          "internalType": "bool",
          "name": "",
          "type": "bool"
        }
      ],
      "stateMutability": "view",
      "type": "function"
    },
    {
      "inputs": [
        {
          "internalType": "uint256",
          "name": "_tokenId",
          "type": "uint256"
        }
      ],
      "name": "pendingTokens",
      "outputs": [
        {
          "internalType": "uint256",
          "name": "pendingRGN",
          "type": "uint256"
        },
        {
          "internalType": "uint256",
          "name": "pendingBRGN",
          "type": "uint256"
        }
      ],
      "stateMutability": "view",
      "type": "function"
    },
    {
      "inputs": [],
      "name": "renounceOwnership",
      "outputs": [],
      "stateMutability": "nonpayable",
      "type": "function"
    },
    {
      "inputs": [],
      "name": "rgnPerSec",
      "outputs": [
        {
          "internalType": "uint256",
          "name": "",
          "type": "uint256"
        }
      ],
      "stateMutability": "view",
      "type": "function"
    },
    {
      "inputs": [
        {
          "internalType": "uint256",
          "name": "_rgnLockId",
          "type": "uint256"
        }
      ],
      "name": "rightToVote",
      "outputs": [
        {
          "internalType": "bool",
          "name": "",
          "type": "bool"
        }
      ],
      "stateMutability": "view",
      "type": "function"
    },
    {
      "inputs": [],
      "name": "royaltiesAddress",
      "outputs": [
        {
          "internalType": "address",
          "name": "",
          "type": "address"
        }
      ],
      "stateMutability": "view",
      "type": "function"
    },
    {
      "inputs": [
        {
          "internalType": "uint256",
          "name": "_tokenId",
          "type": "uint256"
        },
        {
          "internalType": "uint256",
          "name": "_salePrice",
          "type": "uint256"
        }
      ],
      "name": "royaltyInfo",
      "outputs": [
        {
          "internalType": "address",
          "name": "receiver",
          "type": "address"
        },
        {
          "internalType": "uint256",
          "name": "royaltyAmount",
          "type": "uint256"
        }
      ],
      "stateMutability": "view",
      "type": "function"
    },
    {
      "inputs": [
        {
          "internalType": "address",
          "name": "from",
          "type": "address"
        },
        {
          "internalType": "address",
          "name": "to",
          "type": "address"
        },
        {
          "internalType": "uint256",
          "name": "tokenId",
          "type": "uint256"
        }
      ],
      "name": "safeTransferFrom",
      "outputs": [],
      "stateMutability": "nonpayable",
      "type": "function"
    },
    {
      "inputs": [
        {
          "internalType": "address",
          "name": "from",
          "type": "address"
        },
        {
          "internalType": "address",
          "name": "to",
          "type": "address"
        },
        {
          "internalType": "uint256",
          "name": "tokenId",
          "type": "uint256"
        },
        {
          "internalType": "bytes",
          "name": "_data",
          "type": "bytes"
        }
      ],
      "name": "safeTransferFrom",
      "outputs": [],
      "stateMutability": "nonpayable",
      "type": "function"
    },
    {
      "inputs": [
        {
          "internalType": "uint8",
          "name": "_month",
          "type": "uint8"
        },
        {
          "internalType": "uint256",
          "name": "_alloc",
          "type": "uint256"
        }
      ],
      "name": "setAllocByTiers",
      "outputs": [],
      "stateMutability": "nonpayable",
      "type": "function"
    },
    {
      "inputs": [
        {
          "internalType": "address",
          "name": "operator",
          "type": "address"
        },
        {
          "internalType": "bool",
          "name": "approved",
          "type": "bool"
        }
      ],
      "name": "setApprovalForAll",
      "outputs": [],
      "stateMutability": "nonpayable",
      "type": "function"
    },
    {
      "inputs": [
        {
          "internalType": "contract BRGN",
          "name": "_brgn",
          "type": "address"
        }
      ],
      "name": "setBToken",
      "outputs": [],
      "stateMutability": "nonpayable",
      "type": "function"
    },
    {
      "inputs": [
        {
          "internalType": "uint64",
          "name": "value",
          "type": "uint64"
        },
        {
          "internalType": "uint256",
          "name": "pid",
          "type": "uint256"
        }
      ],
      "name": "setBrgnPerRgn",
      "outputs": [],
      "stateMutability": "nonpayable",
      "type": "function"
    },
    {
      "inputs": [
        {
          "internalType": "uint8",
          "name": "value",
          "type": "uint8"
        },
        {
          "internalType": "uint256",
          "name": "pid",
          "type": "uint256"
        }
      ],
      "name": "setPercentTotalRgnSupplyByTiers",
      "outputs": [],
      "stateMutability": "nonpayable",
      "type": "function"
    },
    {
      "inputs": [
        {
          "internalType": "contract storageSVG",
          "name": "_svg",
          "type": "address"
        }
      ],
      "name": "setSvg",
      "outputs": [],
      "stateMutability": "nonpayable",
      "type": "function"
    },
    {
      "inputs": [
        {
          "internalType": "uint256",
          "name": "_time",
          "type": "uint256"
        }
      ],
      "name": "setTimeBeforeRights",
      "outputs": [],
      "stateMutability": "nonpayable",
      "type": "function"
    },
    {
      "inputs": [
        {
          "internalType": "uint8[]",
          "name": "_timeLock",
          "type": "uint8[]"
        }
      ],
      "name": "setTimeLockMonth",
      "outputs": [],
      "stateMutability": "nonpayable",
      "type": "function"
    },
    {
      "inputs": [
        {
          "internalType": "contract RGN",
          "name": "_rgn",
          "type": "address"
        }
      ],
      "name": "setToken",
      "outputs": [],
      "stateMutability": "nonpayable",
      "type": "function"
    },
    {
      "inputs": [
        {
          "internalType": "bytes4",
          "name": "interfaceId",
          "type": "bytes4"
        }
      ],
      "name": "supportsInterface",
      "outputs": [
        {
          "internalType": "bool",
          "name": "",
          "type": "bool"
        }
      ],
      "stateMutability": "view",
      "type": "function"
    },
    {
      "inputs": [],
      "name": "symbol",
      "outputs": [
        {
          "internalType": "string",
          "name": "",
          "type": "string"
        }
      ],
      "stateMutability": "view",
      "type": "function"
    },
    {
      "inputs": [],
      "name": "timeBeforeRights",
      "outputs": [
        {
          "internalType": "uint256",
          "name": "",
          "type": "uint256"
        }
      ],
      "stateMutability": "view",
      "type": "function"
    },
    {
      "inputs": [
        {
          "internalType": "uint256",
          "name": "index",
          "type": "uint256"
        }
      ],
      "name": "tokenByIndex",
      "outputs": [
        {
          "internalType": "uint256",
          "name": "",
          "type": "uint256"
        }
      ],
      "stateMutability": "view",
      "type": "function"
    },
    {
      "inputs": [
        {
          "internalType": "address",
          "name": "owner",
          "type": "address"
        },
        {
          "internalType": "uint256",
          "name": "index",
          "type": "uint256"
        }
      ],
      "name": "tokenOfOwnerByIndex",
      "outputs": [
        {
          "internalType": "uint256",
          "name": "",
          "type": "uint256"
        }
      ],
      "stateMutability": "view",
      "type": "function"
    },
    {
      "inputs": [
        {
          "internalType": "uint256",
          "name": "_rgnLockId",
          "type": "uint256"
        }
      ],
      "name": "tokenURI",
      "outputs": [
        {
          "internalType": "string",
          "name": "",
          "type": "string"
        }
      ],
      "stateMutability": "view",
      "type": "function"
    },
    {
      "inputs": [],
      "name": "totalAllocPoint",
      "outputs": [
        {
          "internalType": "uint256",
          "name": "",
          "type": "uint256"
        }
      ],
      "stateMutability": "view",
      "type": "function"
    },
    {
      "inputs": [],
      "name": "totalSupply",
      "outputs": [
        {
          "internalType": "uint256",
          "name": "",
          "type": "uint256"
        }
      ],
      "stateMutability": "view",
      "type": "function"
    },
    {
      "inputs": [],
      "name": "totalValueBrgnLocked",
      "outputs": [
        {
          "internalType": "uint256",
          "name": "",
          "type": "uint256"
        }
      ],
      "stateMutability": "view",
      "type": "function"
    },
    {
      "inputs": [],
      "name": "totalValueLocked",
      "outputs": [
        {
          "internalType": "uint256",
          "name": "",
          "type": "uint256"
        }
      ],
      "stateMutability": "view",
      "type": "function"
    },
    {
      "inputs": [
        {
          "internalType": "uint8",
          "name": "",
          "type": "uint8"
        }
      ],
      "name": "totalrgnLockByTiers",
      "outputs": [
        {
          "internalType": "uint256",
          "name": "",
          "type": "uint256"
        }
      ],
      "stateMutability": "view",
      "type": "function"
    },
    {
      "inputs": [
        {
          "internalType": "address",
          "name": "from",
          "type": "address"
        },
        {
          "internalType": "address",
          "name": "to",
          "type": "address"
        },
        {
          "internalType": "uint256",
          "name": "tokenId",
          "type": "uint256"
        }
      ],
      "name": "transferFrom",
      "outputs": [],
      "stateMutability": "nonpayable",
      "type": "function"
    },
    {
      "inputs": [
        {
          "internalType": "address",
          "name": "newOwner",
          "type": "address"
        }
      ],
      "name": "transferOwnership",
      "outputs": [],
      "stateMutability": "nonpayable",
      "type": "function"
    },
    {
      "inputs": [
        {
          "internalType": "uint256",
          "name": "_rgnLockId",
          "type": "uint256"
        }
      ],
      "name": "withdraw",
      "outputs": [],
      "stateMutability": "nonpayable",
      "type": "function"
    }
  ],
  "bytecode": "0x60806040523480156200001157600080fd5b50604080518082018252600781526652676e4c6f636b60c81b6020808301918252835180850190945260048452631491d39360e21b9084015281519192916200005d9160019162000201565b5080516200007390600290602084019062000201565b50506001600755506008805460ff191690556200009033620001af565b62015180601b5562069780601c55620f4236601d556000601e556040805160a0810182526001815260036020820152600691810191909152600c606082015260126080820152620000e690601890600562000290565b506040805160a081018252601e8082526020820152601491810191909152600a6060820181905260808201526200012290601990600562000290565b506040805160a0810182526702c68af0bb140000815267058d15e1762800006020820152670853a0d2313c000091810191909152670b1a2bc2ec5000006060820152670de0b6b3a764000060808201526200018290601a90600562000338565b50601f80546001600160a01b03191673d1c20fe83019b402f7aa9663db1f736f1f88364517905562000437565b600d80546001600160a01b038381166001600160a01b0319831681179093556040519116919082907f8be0079c531659141344cd1fd0a4f28419497f9722a3daafe3b4186f6b6457e090600090a35050565b8280546200020f90620003fa565b90600052602060002090601f0160209004810192826200023357600085556200027e565b82601f106200024e57805160ff19168380011785556200027e565b828001600101855582156200027e579182015b828111156200027e57825182559160200191906001019062000261565b506200028c929150620003e3565b5090565b82805482825590600052602060002090601f016020900481019282156200027e5791602002820160005b83821115620002fa57835183826101000a81548160ff021916908360ff1602179055509260200192600101602081600001049283019260010302620002ba565b8015620003295782816101000a81549060ff0219169055600101602081600001049283019260010302620002fa565b50506200028c929150620003e3565b828054828255906000526020600020906003016004900481019282156200027e5791602002820160005b83821115620003ae57835183826101000a8154816001600160401b0302191690836001600160401b03160217905550926020019260080160208160070104928301926001030262000362565b8015620003295782816101000a8154906001600160401b030219169055600801602081600701049283019260010302620003ae565b5b808211156200028c5760008155600101620003e4565b6002810460018216806200040f57607f821691505b602082108114156200043157634e487b7160e01b600052602260045260246000fd5b50919050565b61481b80620004476000396000f3fe608060405234801561001057600080fd5b506004361061030c5760003560e01c80636352211e1161019d578063af878e31116100e9578063d4ac0fa1116100a2578063e985e9c51161007c578063e985e9c5146107cb578063ec18154e14610807578063f2fde38b14610810578063fc56251d146108235761030c565b8063d4ac0fa1146106cf578063d5b202c8146106d8578063d66cb332146106eb5761030c565b8063af878e3114610664578063b88d4fde14610684578063bb97a9dc14610697578063c87b56dd146106a0578063cad3fc10146106b3578063d05f2271146106c65761030c565b80638da5cb5b116101565780639d913c64116101305780639d913c641461060b578063a22cb4651461061e578063a8a658fc14610631578063aed9ab8c146106445761030c565b80638da5cb5b146105e957806393399b7e146105fa57806395d89b41146106035761030c565b80636352211e1461056257806370a08231146105755780637141555414610588578063715018a61461059b5780637fae025b146105a3578063816e7bcb146105c35761030c565b80632e1a7d4d1161025c578063352fc85f1161021557806342842e0e116101ef57806342842e0e1461051e5780634f6ccce7146105315780635c975abb146105445780636112e8ac1461054f5761030c565b8063352fc85f146104c357806338828094146104eb5780633d5f8126146104fe5761030c565b80632e1a7d4d146104515780632f22a98a146104645780632f5d99e6146104775780632f745c591461048a578063328825351461049d57806333fbfcdf146104b05761030c565b806314030cb6116102c957806318160ddd116102a357806318160ddd146103f157806318f99693146103f957806323b872dd1461040c5780632a55205a1461041f5761030c565b806314030cb6146103b4578063144fa6d7146103c757806317caf6f1146103da5761030c565b806301ffc9a71461031157806306fdde0314610339578063081250191461034e578063081812fc14610363578063095ea7b31461038e5780630dce9237146103a1575b600080fd5b61032461031f366004614169565b610843565b60405190151581526020015b60405180910390f35b610341610892565b60405161033091906144a4565b61036161035c366004613ee4565b610924565b005b6103766103713660046142c0565b610979565b6040516001600160a01b039091168152602001610330565b61036161039c366004614053565b610a0e565b6103616103af3660046142c0565b610b24565b6103616103c23660046142c0565b610e6a565b6103616103d5366004613ee4565b610e99565b6103e3601e5481565b604051908152602001610330565b600b546103e3565b6103616104073660046140bb565b610ee5565b61036161041a366004613f38565b610f26565b61043261042d366004614312565b610f57565b604080516001600160a01b039093168352602083019190915201610330565b61036161045f3660046142c0565b611070565b610361610472366004614333565b61143b565b6103616104853660046142f0565b6114c6565b6103e3610498366004614053565b6115a1565b602054610376906001600160a01b031681565b6103616104be366004614376565b61163a565b6104d66104d13660046142c0565b6116b4565b60408051928352602083019190915201610330565b6103246104f93660046142c0565b611806565b6103e361050c36600461435c565b60176020526000908152604090205481565b61036161052c366004613f38565b6118cb565b6103e361053f3660046142c0565b6118e6565b60085460ff16610324565b61036161055d36600461407e565b611987565b6103766105703660046142c0565b611d9b565b6103e3610583366004613ee4565b611e12565b610361610596366004613ee4565b611e99565b610361611ee5565b6103e36105b136600461435c565b60166020526000908152604090205481565b6105d66105d1366004613ee4565b611f1b565b60405161ffff9091168152602001610330565b600d546001600160a01b0316610376565b6103e3601b5481565b610341611f7b565b610361610619366004614312565b611f8a565b61036161062c36600461401f565b6121a4565b61032461063f366004614053565b6121af565b610657610652366004613ee4565b6121c2565b604051610330919061445a565b6103e361067236600461435c565b60156020526000908152604090205481565b610361610692366004613f78565b6122ce565b6103e360115481565b6103416106ae3660046142c0565b612306565b6103e36106c1366004614214565b612454565b6103e3601c5481565b6103e3601d5481565b6103616106e6366004614376565b6125d2565b6107676106f93660046142c0565b600e60205260009081526040902080546001820154600283015460038401546004850154600586015460068701546007880154600890980154969795969495939460ff93841694929391929161ffff8216916001600160a01b036201000082041691600160b01b909104168b565b604080519b8c5260208c019a909a52988a0197909752606089019590955260ff909316608088015260a087019190915260c086015260e085015261ffff166101008401526001600160a01b0316610120830152151561014082015261016001610330565b6103246107d9366004613f00565b6001600160a01b03918216600090815260066020908152604080832093909416825291909152205460ff1690565b6103e360105481565b61036161081e366004613ee4565b61262c565b6108366108313660046142c0565b6126c7565b6040516103309190614447565b60006001600160e01b0319821663656cb66560e11b148061087457506001600160e01b0319821663152a902d60e11b145b156108815750600161088d565b61088a8261274d565b90505b919050565b6060600180546108a1906146fc565b80601f01602080910402602001604051908101604052809291908181526020018280546108cd906146fc565b801561091a5780601f106108ef5761010080835404028352916020019161091a565b820191906000526020600020905b8154815290600101906020018083116108fd57829003601f168201915b5050505050905090565b600d546001600160a01b031633146109575760405162461bcd60e51b815260040161094e90614533565b60405180910390fd5b601480546001600160a01b0319166001600160a01b0392909216919091179055565b6000818152600360205260408120546001600160a01b03166109f25760405162461bcd60e51b815260206004820152602c60248201527f4552433732313a20617070726f76656420717565727920666f72206e6f6e657860448201526b34b9ba32b73a103a37b5b2b760a11b606482015260840161094e565b506000908152600560205260409020546001600160a01b031690565b6000610a1982611d9b565b9050806001600160a01b0316836001600160a01b03161415610a875760405162461bcd60e51b815260206004820152602160248201527f4552433732313a20617070726f76616c20746f2063757272656e74206f776e656044820152603960f91b606482015260840161094e565b336001600160a01b0382161480610aa35750610aa381336107d9565b610b155760405162461bcd60e51b815260206004820152603860248201527f4552433732313a20617070726f76652063616c6c6572206973206e6f74206f7760448201527f6e6572206e6f7220617070726f76656420666f7220616c6c0000000000000000606482015260840161094e565b610b1f8383612772565b505050565b60026007541415610b775760405162461bcd60e51b815260206004820152601f60248201527f5265656e7472616e637947756172643a207265656e7472616e742063616c6c00604482015260640161094e565b6002600755610b846127e0565b80610b8e81612886565b60085460ff1615610bb15760405162461bcd60e51b815260040161094e90614509565b6000828152600e602052604090206008810154600160b01b900460ff16610c0f5760405162461bcd60e51b81526020600482015260126024820152711499db881b1bd8dac81b9bdd08195e1a5cdd60721b604482015260640161094e565b6040805161016081018252825481526001830154602082015260028301549181019190915260038201546060820152600482015460ff9081166080830152600583015460a0830152600683015460c0830152600783015460e0830152600883015461ffff81166101008401526001600160a01b0362010000820416610120840152600160b01b9004161515610140820152610ca99061291a565b610cc55760405162461bcd60e51b815260040161094e906145b9565b6040805161016081018252825481526001830154602082015260028301549181019190915260038201546060820152600482015460ff9081166080830152600583015460a0830152600683015460c0830152600783015460e0830152600883015461ffff81166101008401526001600160a01b0362010000820416610120840152600160b01b9004161515610140820152600090610d6290612454565b6013546040516340c10f1960e01b8152306004820152602481018390529192506001600160a01b0316906340c10f1990604401600060405180830381600087803b158015610daf57600080fd5b505af1158015610dc3573d6000803e3d6000fd5b50505050838260080160029054906101000a90046001600160a01b03166001600160a01b03167f6b26096245cbed98b81398e4df8ffea01dee3c4e46e21a4a91d0fbf60108df2c8460060154604051610e1e91815260200190565b60405180910390a380826007016000828254610e3a9190614662565b909155505042600283015560118054829190600090610e5a908490614662565b9091555050600160075550505050565b600d546001600160a01b03163314610e945760405162461bcd60e51b815260040161094e90614533565b601c55565b600d546001600160a01b03163314610ec35760405162461bcd60e51b815260040161094e90614533565b601280546001600160a01b0319166001600160a01b0392909216919091179055565b600d546001600160a01b03163314610f0f5760405162461bcd60e51b815260040161094e90614533565b8051610f22906018906020840190613deb565b5050565b610f303382612937565b610f4c5760405162461bcd60e51b815260040161094e90614568565b610b1f838383612a2e565b600082815260208181526040808320805482518185028101850190935280835284938493929190849084015b82821015610fd257600084815260209081902060408051808201909152908401546001600160a01b0381168252600160a01b90046001600160601b031681830152825260019092019101610f83565b505050509050600081511115611067578060008151811061100357634e487b7160e01b600052603260045260246000fd5b6020026020010151600001516127108260008151811061103357634e487b7160e01b600052603260045260246000fd5b6020026020010151602001516001600160601b031686611053919061469a565b61105d919061467a565b9250925050611069565b505b9250929050565b600260075414156110c35760405162461bcd60e51b815260206004820152601f60248201527f5265656e7472616e637947756172643a207265656e7472616e742063616c6c00604482015260640161094e565b60026007556110d06127e0565b806110da81612886565b60085460ff16156110fd5760405162461bcd60e51b815260040161094e90614509565b6000828152600e602052604090206008810154600160b01b900460ff1661115b5760405162461bcd60e51b81526020600482015260126024820152711499db881b1bd8dac81b9bdd08195e1a5cdd60721b604482015260640161094e565b6040805161016081018252825481526001830154602082015260028301549181019190915260038201546060820152600482015460ff9081166080830152600583015460a0830152600683015460c0830152600783015460e0830152600883015461ffff81166101008401526001600160a01b0362010000820416610120840152600160b01b90041615156101408201526111f59061291a565b6112115760405162461bcd60e51b815260040161094e906145b9565b600381015442116112765760405162461bcd60e51b815260206004820152602960248201527f496d706f737369626c65207769746864726177206265666f72652074696d6520604482015268746f20756e6c6f636b60b81b606482015260840161094e565b6112818360016114c6565b601254600882015460068301546040516340c10f1960e01b81526001600160a01b03620100009093048316600482015260248101919091529116906340c10f1990604401600060405180830381600087803b1580156112df57600080fd5b505af11580156112f3573d6000803e3d6000fd5b50506013546007840154604051632770a7eb60e21b815230600482015260248101919091526001600160a01b039091169250639dc29fac9150604401600060405180830381600087803b15801561134957600080fd5b505af115801561135d573d6000803e3d6000fd5b5050505061136a83612bd5565b6008810154600682015460405190815284916201000090046001600160a01b0316907ff279e6a1f5e320cca91135676d9cb6e44ca8a08c0b88342bcdb1144f6511b5689060200160405180910390a38060060154601060008282546113cf91906146b9565b90915550506007810154601180546000906113eb9084906146b9565b909155505060006006820181905560078201819055600582015560088101805460ff60b01b19169055426002820155600481015460068201546114319160ff1690612bfb565b5050600160075550565b600d546001600160a01b031633146114655760405162461bcd60e51b815260040161094e90614533565b81601a828154811061148757634e487b7160e01b600052603260045260246000fd5b90600052602060002090600491828204019190066008026101000a81548167ffffffffffffffff021916908367ffffffffffffffff1602179055505050565b816114d081612886565b60085460ff16156114f35760405162461bcd60e51b815260040161094e90614509565b60006114ff8484612c1d565b9050600081116115645760405162461bcd60e51b815260206004820152602a60248201527f596f75206d757374207761697420756e74696c20796f752063616e20636f6d7060448201526937bab7321030b3b0b4b760b11b606482015260840161094e565b604051818152849033907f0e311a2c6dbfb0153ec3a8a5bdca09070b3e5f60768fdc10a20453f38d1868739060200160405180910390a350505050565b60006115ac83611e12565b821061160e5760405162461bcd60e51b815260206004820152602b60248201527f455243373231456e756d657261626c653a206f776e657220696e646578206f7560448201526a74206f6620626f756e647360a81b606482015260840161094e565b506001600160a01b03821660009081526009602090815260408083208484529091529020545b92915050565b600d546001600160a01b031633146116645760405162461bcd60e51b815260040161094e90614533565b816019828154811061168657634e487b7160e01b600052603260045260246000fd5b90600052602060002090602091828204019190066101000a81548160ff021916908360ff1602179055505050565b6000818152600e602090815260408083208151610160810183528154815260018201549381019390935260028101549183019190915260038101546060830152600481015460ff9081166080840152600582015460a0840152600682015460c0840152600782015460e0840152600882015461ffff81166101008501526001600160a01b0362010000820416610120850152600160b01b9004161515610140830152829161176190612e59565b6040805161016081018252835481526001840154602082015260028401549181019190915260038301546060820152600483015460ff9081166080830152600584015460a0830152600684015460c0830152600784015460e0830152600884015461ffff81166101008401526001600160a01b0362010000820416610120840152600160b01b90041615156101408201529093506117fe90612454565b915050915091565b6000818152600e602090815260408083208151610160810183528154815260018201549381019390935260028101549183019190915260038101546060830152600481015460ff9081166080840152600582015460a08401819052600683015460c0850152600783015460e085015260089092015461ffff81166101008501526001600160a01b0362010000820416610120850152600160b01b900416151561014083015242106118bb57600191505061088d565b600091505061088d565b50919050565b610b1f838383604051806020016040528060008152506122ce565b60006118f1600b5490565b82106119545760405162461bcd60e51b815260206004820152602c60248201527f455243373231456e756d657261626c653a20676c6f62616c20696e646578206f60448201526b7574206f6620626f756e647360a01b606482015260840161094e565b600b828154811061197557634e487b7160e01b600052603260045260246000fd5b90600052602060002001549050919050565b3233146119d65760405162461bcd60e51b815260206004820152601e60248201527f5468652063616c6c657220697320616e6f7468657220636f6e74726163740000604482015260640161094e565b806119e081612f21565b611a2c5760405162461bcd60e51b815260206004820152601860248201527f536f72727920756e6b6e6f776e206d6f6e7468206c6f636b0000000000000000604482015260640161094e565b6000336012546040516370a0823160e01b81526001600160a01b0380841660048301529293509116906370a082319060240160206040518083038186803b158015611a7657600080fd5b505afa158015611a8a573d6000803e3d6000fd5b505050506040513d601f19601f82011682018060405250810190611aae91906142d8565b841115611af35760405162461bcd60e51b815260206004820152601360248201527242616c616e6365202452474e20746f206c6f7760681b604482015260640161094e565b611afd8484612f9b565b611b495760405162461bcd60e51b815260206004820181905260248201527f536f72727920696d706f737369626c6520637265617465206d6f7265206e6674604482015260640161094e565b601254604051632770a7eb60e21b81526001600160a01b0383811660048301526024820187905290911690639dc29fac90604401600060405180830381600087803b158015611b9757600080fd5b505af1158015611bab573d6000803e3d6000fd5b505050508360106000828254611bc19190614662565b9091555050600f805460010190556000611bda600f5490565b9050611be684866130fa565b604051806101600160405280611bfb600f5490565b8152602001428152602001428152602001611c1586612f21565b611c1f9042614662565b81526020018560ff168152602001601c54611c374290565b611c419190614662565b815260208082018890526000604080840182905260608085018390526001600160a01b038c8116608080880191909152600160a0978801819052898652600e87529484902088518155958801519486019490945591860151600285015585015160038401559084015160048301805460ff191660ff90921691909117905591830151600582015560c0830151600682015560e08301516007820155610100830151600890910180546101208501516101409095015161ffff1990911661ffff9093169290921762010000600160b01b0319166201000094909316939093029190911760ff60b01b1916600160b01b91151591909102179055611d43868261311c565b611d4f816101f4613136565b80866001600160a01b03167f278b0fd0170e87df8d6e9c94b47d3ff7382de693c547e6089b53f9972c53238987604051611d8b91815260200190565b60405180910390a3505050505050565b6000818152600360205260408120546001600160a01b03168061088a5760405162461bcd60e51b815260206004820152602960248201527f4552433732313a206f776e657220717565727920666f72206e6f6e657869737460448201526832b73a103a37b5b2b760b91b606482015260840161094e565b60006001600160a01b038216611e7d5760405162461bcd60e51b815260206004820152602a60248201527f4552433732313a2062616c616e636520717565727920666f7220746865207a65604482015269726f206164647265737360b01b606482015260840161094e565b506001600160a01b031660009081526004602052604090205490565b600d546001600160a01b03163314611ec35760405162461bcd60e51b815260040161094e90614533565b601380546001600160a01b0319166001600160a01b0392909216919091179055565b600d546001600160a01b03163314611f0f5760405162461bcd60e51b815260040161094e90614533565b611f196000613204565b565b600080805b600f548111611f74576000818152600e60205260409020600801546001600160a01b0385811662010000909204161415611f625781611f5e81614731565b9250505b80611f6c81614753565b915050611f20565b5092915050565b6060600280546108a1906146fc565b81611f9481612886565b60085460ff1615611fb75760405162461bcd60e51b815260040161094e90614509565b600082116120005760405162461bcd60e51b81526020600482015260166024820152751491d388199d5b991cc81a5b9cdd59999a58da595b9d60521b604482015260640161094e565b6000838152600e60209081526040918290208251610160810184528154815260018201549281019290925260028101549282019290925260038201546060820152600482015460ff9081166080830152600583015460a0830152600683015460c0830152600783015460e0830152600883015461ffff81166101008401526001600160a01b0362010000820416610120840152600160b01b90041615156101408201526120ac9061291a565b6120c85760405162461bcd60e51b815260040161094e906145b9565b600033601254604051632770a7eb60e21b81526001600160a01b03808416600483015260248201889052929350911690639dc29fac90604401600060405180830381600087803b15801561211b57600080fd5b505af115801561212f573d6000803e3d6000fd5b50505050838260060160008282546121479190614662565b909155505042600283015560048201546121649060ff16856130fa565b81546040518591906001600160a01b038416907f95e3437dd8ba0917dafa24cca906f3d48785c2c7fe6f8f41acd8cfb25b938bb990600090a45050505050565b610f22338383613256565b60006121bb8383612937565b9392505050565b606060006121cf600f5490565b905060006121dc84611f1b565b61ffff16905060008167ffffffffffffffff81111561220b57634e487b7160e01b600052604160045260246000fd5b604051908082528060200260200182016040528015612234578160200160208202803683370190505b5090506000805b8481116122c3576000818152600e60205260409020600801546001600160a01b03888116620100009092041614156122b1578083838151811061228e57634e487b7160e01b600052603260045260246000fd5b63ffffffff90921660209283029190910190910152816122ad81614753565b9250505b806122bb81614753565b91505061223b565b509095945050505050565b6122d83383612937565b6122f45760405162461bcd60e51b815260040161094e90614568565b61230084848484613325565b50505050565b6000818152600e602090815260409182902082516101608101845281548082526001830154938201939093526002820154818501526003820154606080830182905260048085015460ff90811660808601819052600587015460a0870152600687015460c08701819052600788015460e0880181905260089098015461ffff81166101008901526001600160a01b0362010000820481166101208a0152600160b01b909104909316151561014088018190526014549a51632e9f0c7760e11b815294850152602484015260448301949094526064820195909552608481019290925260a482019490945292939092911690635d3e18ee9060c40160006040518083038186803b15801561241857600080fd5b505afa15801561242c573d6000803e3d6000fd5b505050506040513d6000823e601f3d908101601f191682016040526121bb91908101906141a1565b600080600090506000670de0b6b3a76400008460c00151612475919061467a565b601a612487866080015160ff16613358565b60ff16815481106124a857634e487b7160e01b600052603260045260246000fd5b90600052602060002090600491828204019190066008029054906101000a900467ffffffffffffffff1667ffffffffffffffff166124e6919061469a565b9050600060646124f98660800151612f21565b61250490601e61469a565b61250e919061467a565b9050818560e00151106125575760405162461bcd60e51b815260206004820152601160248201527026b0bc1033b2b732b930ba3290313933b760791b604482015260640161094e565b6000612563828461467a565b905085604001516125714290565b111561259f57600086604001516125854290565b61258f91906146b9565b905061259b828261469a565b9450505b828660e00151856125b09190614662565b11156125c85760e08601516125c590846146b9565b93505b5091949350505050565b600d546001600160a01b031633146125fc5760405162461bcd60e51b815260040161094e90614533565b60ff82166000908152601660205260408120829055601e8054839290612623908490614662565b90915550505050565b600d546001600160a01b031633146126565760405162461bcd60e51b815260040161094e90614533565b6001600160a01b0381166126bb5760405162461bcd60e51b815260206004820152602660248201527f4f776e61626c653a206e6577206f776e657220697320746865207a65726f206160448201526564647265737360d01b606482015260840161094e565b6126c481613204565b50565b600081815260208181526040808320805482518185028101850190935280835260609492939192909184015b8282101561274257600084815260209081902060408051808201909152908401546001600160a01b0381168252600160a01b90046001600160601b0316818301528252600190920191016126f3565b505050509050919050565b60006001600160e01b0319821663780e9d6360e01b148061088a575061088a826133d6565b600081815260056020526040902080546001600160a01b0319166001600160a01b03841690811790915581906127a782611d9b565b6001600160a01b03167f8c5be1e5ebec7d5bd14f71427d1e84f3dd0314c0f7b2291e5b200ac8c7c3b92560405160405180910390a45050565b338061282e5760405162461bcd60e51b815260206004820152601f60248201527f43616e6e6f742062652066726f6d20746865207a65726f206164647265737300604482015260640161094e565b600061283982611e12565b116126c45760405162461bcd60e51b815260206004820152601c60248201527f4e6f204e6674206f776e65642062792074686973206163636f756e7400000000604482015260640161094e565b3361289082613426565b6128d55760405162461bcd60e51b8152602060048201526016602482015275151a1a5cc81b999d08191bd95cdb89dd08195e1a5cdd60521b604482015260640161094e565b6128df81836121af565b610f225760405162461bcd60e51b815260206004820152600c60248201526b2737ba1030b71037bbb732b960a11b604482015260640161094e565b6000601b54826040015161292e9190614662565b42101592915050565b6000818152600360205260408120546001600160a01b03166129b05760405162461bcd60e51b815260206004820152602c60248201527f4552433732313a206f70657261746f7220717565727920666f72206e6f6e657860448201526b34b9ba32b73a103a37b5b2b760a11b606482015260840161094e565b60006129bb83611d9b565b9050806001600160a01b0316846001600160a01b031614806129f65750836001600160a01b03166129eb84610979565b6001600160a01b0316145b80612a2657506001600160a01b0380821660009081526006602090815260408083209388168352929052205460ff165b949350505050565b826001600160a01b0316612a4182611d9b565b6001600160a01b031614612aa55760405162461bcd60e51b815260206004820152602560248201527f4552433732313a207472616e736665722066726f6d20696e636f72726563742060448201526437bbb732b960d91b606482015260840161094e565b6001600160a01b038216612b075760405162461bcd60e51b8152602060048201526024808201527f4552433732313a207472616e7366657220746f20746865207a65726f206164646044820152637265737360e01b606482015260840161094e565b612b12838383613535565b612b1d600082612772565b6001600160a01b0383166000908152600460205260408120805460019290612b469084906146b9565b90915550506001600160a01b0382166000908152600460205260408120805460019290612b74908490614662565b909155505060008181526003602052604080822080546001600160a01b0319166001600160a01b0386811691821790925591518493918716917fddf252ad1be2c89b69c2b068fc378daa952ba7f163c4a11628f55a4df523b3ef91a4610b1f565b6000818152600e6020526040902060088101805460ff60b01b19169055610f2282613595565b60ff8216600090815260156020526040812080548392906126239084906146b9565b6000828152600e602090815260408083208151610160810183528154815260018201549381019390935260028101549183019190915260038101546060830152600481015460ff9081166080840152600582015460a0840152600682015460c0840152600782015460e0840152600882015461ffff81166101008501526001600160a01b0362010000820416610120850152600160b01b900416151561014083015290612cc99061291a565b612cd7576000915050611634565b6040805161016081018252825481526001830154602082015260028301549181019190915260038201546060820152600482015460ff9081166080830152600583015460a0830152600683015460c0830152600783015460e0830152600883015461ffff81166101008401526001600160a01b0362010000820416610120840152600160b01b9004161515610140820152600090612d7490612e59565b600483015460ff16600090815260176020526040902081905590508015612a265742600283015583612e155760125460088301546040516340c10f1960e01b81526001600160a01b036201000090920482166004820152602481018490529116906340c10f1990604401600060405180830381600087803b158015612df857600080fd5b505af1158015612e0c573d6000803e3d6000fd5b50505050612a26565b8060106000828254612e279190614662565b9250508190555080826006016000828254612e429190614662565b90915550506004820154612a269060ff16826130fa565b6040810151600090819042111561088a5760008360400151612e784290565b612e8291906146b9565b601e54608086015160ff16600090815260166020526040812054601d549394509092612eae908561469a565b612eb8919061469a565b612ec2919061467a565b9050600060105482612ed4919061467a565b608087015160ff16600090815260176020526040902054612ef59190614662565b905064e8d4a51000818760c00151612f0d919061469a565b612f17919061467a565b9695505050505050565b60008160ff1660121415612f3a57506302d24bd061088d565b8160ff16600c1415612f5157506301e187e061088d565b8160ff1660061415612f67575062f0c3f061088d565b8160ff1660031415612f7d5750627861f861088d565b8160ff1660011415612f935750622820a861088d565b50600061088d565b600082612fd65760405162461bcd60e51b815260206004820152600960248201526802452474e20697320360bc1b604482015260640161094e565b6000612fe48360ff16613358565b90506000606460198360ff168154811061300e57634e487b7160e01b600052603260045260246000fd5b60009182526020918290208282040154601254604080516318160ddd60e01b81529051601f9094166101000a90920460ff16936001600160a01b03909116926318160ddd926004808201939291829003018186803b15801561306f57600080fd5b505afa158015613083573d6000803e3d6000fd5b505050506040513d601f19601f820116820180604052508101906130a791906142d8565b6130b1919061469a565b6130bb919061467a565b60ff831660009081526015602052604090205490915081906130de908790614662565b10156130ef57600192505050611634565b600092505050611634565b60ff821660009081526015602052604081208054839290612623908490614662565b610f2282826040518060200160405280600081525061363d565b604080516001808252818301909252600091816020015b604080518082019091526000808252602082015281526020019060019003908161314d579050509050818160008151811061319857634e487b7160e01b600052603260045260246000fd5b6020908102919091018101516001600160601b03909216910152601f5481516001600160a01b039091169082906000906131e257634e487b7160e01b600052603260045260246000fd5b60209081029190910101516001600160a01b039091169052610b1f8382613670565b600d80546001600160a01b038381166001600160a01b0319831681179093556040519116919082907f8be0079c531659141344cd1fd0a4f28419497f9722a3daafe3b4186f6b6457e090600090a35050565b816001600160a01b0316836001600160a01b031614156132b85760405162461bcd60e51b815260206004820152601960248201527f4552433732313a20617070726f766520746f2063616c6c657200000000000000604482015260640161094e565b6001600160a01b03838116600081815260066020908152604080832094871680845294825291829020805460ff191686151590811790915591519182527f17307eab39ab6107e8899845ad3d59bd9653f200f220920489ca2b5937696c31910160405180910390a3505050565b613330848484612a2e565b61333c848484846138db565b6123005760405162461bcd60e51b815260040161094e906144b7565b6000805b60185460ff821610156133cd578260188260ff168154811061338e57634e487b7160e01b600052603260045260246000fd5b60009182526020918290209181049091015460ff601f9092166101000a90041614156133bb57905061088d565b806133c58161476e565b91505061335c565b50606492915050565b60006001600160e01b031982166380ac58cd60e01b148061340757506001600160e01b03198216635b5e139f60e01b145b8061088a57506301ffc9a760e01b6001600160e01b031983161461088a565b60008082116134775760405162461bcd60e51b815260206004820152601b60248201527f4964206d75737420626520686967686572207468616e207a65726f0000000000604482015260640161094e565b6000828152600e60209081526040918290208251610160810184528154815260018201549281019290925260028101549282019290925260038201546060820152600482015460ff9081166080830152600583015460a0830152600683015460c0830152600783015460e083015260089092015461ffff81166101008301526001600160a01b0362010000820416610120830152600160b01b900490911615801561014083015261352c57600191505061088d565b50600092915050565b60085460ff16156135585760405162461bcd60e51b815260040161094e90614509565b6000818152600e6020526040902060088101805462010000600160b01b031916620100006001600160a01b038616021790556123008484846139e8565b60006135a082611d9b565b90506135ae81600084613535565b6135b9600083612772565b6001600160a01b03811660009081526004602052604081208054600192906135e29084906146b9565b909155505060008281526003602052604080822080546001600160a01b0319169055518391906001600160a01b038416907fddf252ad1be2c89b69c2b068fc378daa952ba7f163c4a11628f55a4df523b3ef908390a4610f22565b6136478383613aa5565b61365460008484846138db565b610b1f5760405162461bcd60e51b815260040161094e906144b7565b6000805b82518110156138715760006001600160a01b03168382815181106136a857634e487b7160e01b600052603260045260246000fd5b6020026020010151600001516001600160a01b0316141561370b5760405162461bcd60e51b815260206004820152601b60248201527f526563697069656e742073686f756c642062652070726573656e740000000000604482015260640161094e565b82818151811061372b57634e487b7160e01b600052603260045260246000fd5b6020026020010151602001516001600160601b0316600014156137905760405162461bcd60e51b815260206004820181905260248201527f526f79616c74792076616c75652073686f756c6420626520706f736974697665604482015260640161094e565b8281815181106137b057634e487b7160e01b600052603260045260246000fd5b6020026020010151602001516001600160601b0316826137d09190614662565b915060008085815260200190815260200160002083828151811061380457634e487b7160e01b600052603260045260246000fd5b602090810291909101810151825460018101845560009384529282902081519301805491909201516001600160601b0316600160a01b026001600160a01b039384166001600160a01b0319909216919091179092169190911790558061386981614753565b915050613674565b5061271081106138d15760405162461bcd60e51b815260206004820152602560248201527f526f79616c747920746f74616c2076616c75652073686f756c64206265203c20604482015264031303030360dc1b606482015260840161094e565b610b1f8383613bf4565b60006001600160a01b0384163b156139dd57604051630a85bd0160e11b81526001600160a01b0385169063150b7a029061391f903390899088908890600401614414565b602060405180830381600087803b15801561393957600080fd5b505af1925050508015613969575060408051601f3d908101601f1916820190925261396691810190614185565b60015b6139c3573d808015613997576040519150601f19603f3d011682016040523d82523d6000602084013e61399c565b606091505b5080516139bb5760405162461bcd60e51b815260040161094e906144b7565b805181602001fd5b6001600160e01b031916630a85bd0160e11b149050612a26565b506001949350505050565b6001600160a01b038316613a4357613a3e81600b80546000838152600c60205260408120829055600182018355919091527f0175b7a638427703f0dbe7bb9bbf987a2551717b34e79f33b5b1008d1fa01db90155565b613a66565b816001600160a01b0316836001600160a01b031614613a6657613a668382613c31565b6001600160a01b038216613a8257613a7d81613cce565b610b1f565b826001600160a01b0316826001600160a01b031614610b1f57610b1f8282613da7565b6001600160a01b038216613afb5760405162461bcd60e51b815260206004820181905260248201527f4552433732313a206d696e7420746f20746865207a65726f2061646472657373604482015260640161094e565b6000818152600360205260409020546001600160a01b031615613b605760405162461bcd60e51b815260206004820152601c60248201527f4552433732313a20746f6b656e20616c7265616479206d696e74656400000000604482015260640161094e565b613b6c60008383613535565b6001600160a01b0382166000908152600460205260408120805460019290613b95908490614662565b909155505060008181526003602052604080822080546001600160a01b0319166001600160a01b03861690811790915590518392907fddf252ad1be2c89b69c2b068fc378daa952ba7f163c4a11628f55a4df523b3ef908290a4610f22565b7f3fa96d7b6bcbfe71ef171666d84db3cf52fa2d1c8afdb1cc8e486177f208b7df8282604051613c259291906145f0565b60405180910390a15050565b60006001613c3e84611e12565b613c4891906146b9565b6000838152600a6020526040902054909150808214613c9b576001600160a01b03841660009081526009602090815260408083208584528252808320548484528184208190558352600a90915290208190555b506000918252600a602090815260408084208490556001600160a01b039094168352600981528383209183525290812055565b600b54600090613ce0906001906146b9565b6000838152600c6020526040812054600b8054939450909284908110613d1657634e487b7160e01b600052603260045260246000fd5b9060005260206000200154905080600b8381548110613d4557634e487b7160e01b600052603260045260246000fd5b6000918252602080832090910192909255828152600c9091526040808220849055858252812055600b805480613d8b57634e487b7160e01b600052603160045260246000fd5b6001900381819060005260206000200160009055905550505050565b6000613db283611e12565b6001600160a01b0390931660009081526009602090815260408083208684528252808320859055938252600a9052919091209190915550565b82805482825590600052602060002090601f01602090048101928215613e815791602002820160005b83821115613e5257835183826101000a81548160ff021916908360ff1602179055509260200192600101602081600001049283019260010302613e14565b8015613e7f5782816101000a81549060ff0219169055600101602081600001049283019260010302613e52565b505b50613e8d929150613e91565b5090565b5b80821115613e8d5760008155600101613e92565b803561088d816147ba565b8035801515811461088d57600080fd5b803561ffff8116811461088d57600080fd5b803560ff8116811461088d57600080fd5b600060208284031215613ef5578081fd5b81356121bb816147ba565b60008060408385031215613f12578081fd5b8235613f1d816147ba565b91506020830135613f2d816147ba565b809150509250929050565b600080600060608486031215613f4c578081fd5b8335613f57816147ba565b92506020840135613f67816147ba565b929592945050506040919091013590565b60008060008060808587031215613f8d578081fd5b8435613f98816147ba565b93506020850135613fa8816147ba565b925060408501359150606085013567ffffffffffffffff811115613fca578182fd5b8501601f81018713613fda578182fd5b8035613fed613fe88261463a565b614609565b818152886020838501011115614001578384fd5b81602084016020830137908101602001929092525092959194509250565b60008060408385031215614031578182fd5b823561403c816147ba565b915061404a60208401613eb1565b90509250929050565b60008060408385031215614065578182fd5b8235614070816147ba565b946020939093013593505050565b600080600060608486031215614092578081fd5b833561409d816147ba565b9250602084013591506140b260408501613ed3565b90509250925092565b600060208083850312156140cd578182fd5b823567ffffffffffffffff808211156140e4578384fd5b818501915085601f8301126140f7578384fd5b813581811115614109576141096147a4565b8381029150614119848301614609565b8181528481019084860184860187018a1015614133578788fd5b8795505b8386101561415c5761414881613ed3565b835260019590950194918601918601614137565b5098975050505050505050565b60006020828403121561417a578081fd5b81356121bb816147cf565b600060208284031215614196578081fd5b81516121bb816147cf565b6000602082840312156141b2578081fd5b815167ffffffffffffffff8111156141c8578182fd5b8201601f810184136141d8578182fd5b80516141e6613fe88261463a565b8181528560208385010111156141fa578384fd5b61420b8260208301602086016146d0565b95945050505050565b6000610160808385031215614227578182fd5b61423081614609565b90508235815260208301356020820152604083013560408201526060830135606082015261426060808401613ed3565b608082015260a083013560a082015260c083013560c082015260e083013560e0820152610100614291818501613ec1565b908201526101206142a3848201613ea6565b908201526101406142b5848201613eb1565b908201529392505050565b6000602082840312156142d1578081fd5b5035919050565b6000602082840312156142e9578081fd5b5051919050565b60008060408385031215614302578182fd5b8235915061404a60208401613eb1565b60008060408385031215614324578182fd5b50508035926020909101359150565b60008060408385031215614345578182fd5b823567ffffffffffffffff81168114614070578283fd5b60006020828403121561436d578081fd5b6121bb82613ed3565b60008060408385031215614388578182fd5b61407083613ed3565b6000815180845260208085019450808401835b838110156143dd57815180516001600160a01b031688528301516001600160601b031683880152604090960195908201906001016143a4565b509495945050505050565b600081518084526144008160208601602086016146d0565b601f01601f19169290920160200192915050565b6001600160a01b0385811682528416602082015260408101839052608060608201819052600090612f17908301846143e8565b6000602082526121bb6020830184614391565b6020808252825182820181905260009190848201906040850190845b8181101561449857835163ffffffff1683529284019291840191600101614476565b50909695505050505050565b6000602082526121bb60208301846143e8565b60208082526032908201527f4552433732313a207472616e7366657220746f206e6f6e20455243373231526560408201527131b2b4bb32b91034b6b83632b6b2b73a32b960711b606082015260800190565b60208082526010908201526f14185d5cd8589b194e881c185d5cd95960821b604082015260600190565b6020808252818101527f4f776e61626c653a2063616c6c6572206973206e6f7420746865206f776e6572604082015260600190565b60208082526031908201527f4552433732313a207472616e736665722063616c6c6572206973206e6f74206f6040820152701ddb995c881b9bdc88185c1c1c9bdd9959607a1b606082015260800190565b60208082526019908201527f536f7272792064656c6179206973206e6f742070617373656400000000000000604082015260600190565b600083825260406020830152612a266040830184614391565b604051601f8201601f1916810167ffffffffffffffff81118282101715614632576146326147a4565b604052919050565b600067ffffffffffffffff821115614654576146546147a4565b50601f01601f191660200190565b600082198211156146755761467561478e565b500190565b60008261469557634e487b7160e01b81526012600452602481fd5b500490565b60008160001904831182151516156146b4576146b461478e565b500290565b6000828210156146cb576146cb61478e565b500390565b60005b838110156146eb5781810151838201526020016146d3565b838111156123005750506000910152565b60028104600182168061471057607f821691505b602082108114156118c557634e487b7160e01b600052602260045260246000fd5b600061ffff808316818114156147495761474961478e565b6001019392505050565b60006000198214156147675761476761478e565b5060010190565b600060ff821660ff8114156147855761478561478e565b60010192915050565b634e487b7160e01b600052601160045260246000fd5b634e487b7160e01b600052604160045260246000fd5b6001600160a01b03811681146126c457600080fd5b6001600160e01b0319811681146126c457600080fdfea264697066735822122026d3ae1652ae56aec7d5b9c06b08c14d20780827ee01868f94e36bf7371116de64736f6c63430008020033",
  "linkReferences": {},
  "deployedLinkReferences": {}
}