{
  "_format": "hh-sol-artifact-1",
  "contractName": "RGNLOCK",
  "sourceName": "contracts/NFT/RGNLOCK.sol",
  "abi": [
    {
      "inputs": [
        {
          "internalType": "contract UtilsNftLock",
          "name": "_addrUtils",
          "type": "address"
        }
      ],
      "stateMutability": "nonpayable",
      "type": "constructor"
    },
    {
      "anonymous": false,
      "inputs": [
        {
          "indexed": true,
          "internalType": "address",
          "name": "account",
          "type": "address"
        },
        {
          "indexed": true,
          "internalType": "uint256",
          "name": "trsrNodeId",
          "type": "uint256"
        },
        {
          "indexed": true,
          "internalType": "uint256",
          "name": "amountAdd",
          "type": "uint256"
        }
      ],
      "name": "AddToken",
      "type": "event"
    },
    {
      "anonymous": false,
      "inputs": [
        {
          "indexed": true,
          "internalType": "address",
          "name": "owner",
          "type": "address"
        },
        {
          "indexed": true,
          "internalType": "address",
          "name": "approved",
          "type": "address"
        },
        {
          "indexed": true,
          "internalType": "uint256",
          "name": "tokenId",
          "type": "uint256"
        }
      ],
      "name": "Approval",
      "type": "event"
    },
    {
      "anonymous": false,
      "inputs": [
        {
          "indexed": true,
          "internalType": "address",
          "name": "owner",
          "type": "address"
        },
        {
          "indexed": true,
          "internalType": "address",
          "name": "operator",
          "type": "address"
        },
        {
          "indexed": false,
          "internalType": "bool",
          "name": "approved",
          "type": "bool"
        }
      ],
      "name": "ApprovalForAll",
      "type": "event"
    },
    {
      "anonymous": false,
      "inputs": [
        {
          "indexed": true,
          "internalType": "address",
          "name": "account",
          "type": "address"
        },
        {
          "indexed": true,
          "internalType": "uint256",
          "name": "nftId",
          "type": "uint256"
        },
        {
          "indexed": false,
          "internalType": "uint256",
          "name": "amountToCompound",
          "type": "uint256"
        }
      ],
      "name": "Compound",
      "type": "event"
    },
    {
      "anonymous": false,
      "inputs": [
        {
          "indexed": true,
          "internalType": "address",
          "name": "account",
          "type": "address"
        },
        {
          "indexed": true,
          "internalType": "uint256",
          "name": "newTrsrNodeId",
          "type": "uint256"
        },
        {
          "indexed": false,
          "internalType": "uint256",
          "name": "amount",
          "type": "uint256"
        }
      ],
      "name": "Create",
      "type": "event"
    },
    {
      "anonymous": false,
      "inputs": [
        {
          "indexed": true,
          "internalType": "address",
          "name": "account",
          "type": "address"
        },
        {
          "indexed": true,
          "internalType": "uint256",
          "name": "trsrnodeId",
          "type": "uint256"
        },
        {
          "indexed": false,
          "internalType": "uint256",
          "name": "amoutLock",
          "type": "uint256"
        }
      ],
      "name": "GenerateBrgn",
      "type": "event"
    },
    {
      "anonymous": false,
      "inputs": [
        {
          "indexed": false,
          "internalType": "address",
          "name": "account",
          "type": "address"
        }
      ],
      "name": "Paused",
      "type": "event"
    },
    {
      "anonymous": false,
      "inputs": [
        {
          "indexed": false,
          "internalType": "uint256",
          "name": "tokenId",
          "type": "uint256"
        },
        {
          "components": [
            {
              "internalType": "address payable",
              "name": "account",
              "type": "address"
            },
            {
              "internalType": "uint96",
              "name": "value",
              "type": "uint96"
            }
          ],
          "indexed": false,
          "internalType": "struct LibPart.Part[]",
          "name": "royalties",
          "type": "tuple[]"
        }
      ],
      "name": "RoyaltiesSet",
      "type": "event"
    },
    {
      "anonymous": false,
      "inputs": [
        {
          "indexed": true,
          "internalType": "address",
          "name": "from",
          "type": "address"
        },
        {
          "indexed": true,
          "internalType": "address",
          "name": "to",
          "type": "address"
        },
        {
          "indexed": true,
          "internalType": "uint256",
          "name": "tokenId",
          "type": "uint256"
        }
      ],
      "name": "Transfer",
      "type": "event"
    },
    {
      "anonymous": false,
      "inputs": [
        {
          "indexed": false,
          "internalType": "address",
          "name": "account",
          "type": "address"
        }
      ],
      "name": "Unpaused",
      "type": "event"
    },
    {
      "anonymous": false,
      "inputs": [
        {
          "indexed": true,
          "internalType": "address",
          "name": "account",
          "type": "address"
        },
        {
          "indexed": true,
          "internalType": "uint256",
          "name": "trsrnodeId",
          "type": "uint256"
        },
        {
          "indexed": false,
          "internalType": "uint256",
          "name": "amoutLock",
          "type": "uint256"
        }
      ],
      "name": "Withdraw",
      "type": "event"
    },
    {
      "inputs": [
        {
          "components": [
            {
              "internalType": "uint256",
              "name": "id",
              "type": "uint256"
            },
            {
              "internalType": "uint256",
              "name": "creationTime",
              "type": "uint256"
            },
            {
              "internalType": "uint256",
              "name": "lastProcessing",
              "type": "uint256"
            },
            {
              "internalType": "uint256",
              "name": "timeToLock",
              "type": "uint256"
            },
            {
              "internalType": "uint8",
              "name": "monthLock",
              "type": "uint8"
            },
            {
              "internalType": "uint256",
              "name": "rightsTime",
              "type": "uint256"
            },
            {
              "internalType": "uint256",
              "name": "rgnLock",
              "type": "uint256"
            },
            {
              "internalType": "uint256",
              "name": "bRgnLock",
              "type": "uint256"
            },
            {
              "internalType": "uint16",
              "name": "apr",
              "type": "uint16"
            },
            {
              "internalType": "address",
              "name": "owner",
              "type": "address"
            },
            {
              "internalType": "bool",
              "name": "exists",
              "type": "bool"
            }
          ],
          "internalType": "struct RGNLOCK.RgnLockEntity",
          "name": "rgnLock",
          "type": "tuple"
        }
      ],
      "name": "_calculateRewardsBrgn",
      "outputs": [
        {
          "internalType": "uint256",
          "name": "",
          "type": "uint256"
        }
      ],
      "stateMutability": "view",
      "type": "function"
    },
    {
      "inputs": [
        {
          "internalType": "uint256",
          "name": "",
          "type": "uint256"
        }
      ],
      "name": "_rgnsLock",
      "outputs": [
        {
          "internalType": "uint256",
          "name": "id",
          "type": "uint256"
        },
        {
          "internalType": "uint256",
          "name": "creationTime",
          "type": "uint256"
        },
        {
          "internalType": "uint256",
          "name": "lastProcessing",
          "type": "uint256"
        },
        {
          "internalType": "uint256",
          "name": "timeToLock",
          "type": "uint256"
        },
        {
          "internalType": "uint8",
          "name": "monthLock",
          "type": "uint8"
        },
        {
          "internalType": "uint256",
          "name": "rightsTime",
          "type": "uint256"
        },
        {
          "internalType": "uint256",
          "name": "rgnLock",
          "type": "uint256"
        },
        {
          "internalType": "uint256",
          "name": "bRgnLock",
          "type": "uint256"
        },
        {
          "internalType": "uint16",
          "name": "apr",
          "type": "uint16"
        },
        {
          "internalType": "address",
          "name": "owner",
          "type": "address"
        },
        {
          "internalType": "bool",
          "name": "exists",
          "type": "bool"
        }
      ],
      "stateMutability": "view",
      "type": "function"
    },
    {
      "inputs": [
        {
          "internalType": "uint256",
          "name": "_rgnLockId",
          "type": "uint256"
        },
        {
          "internalType": "uint256",
          "name": "_amountToken",
          "type": "uint256"
        }
      ],
      "name": "addTokenLock",
      "outputs": [],
      "stateMutability": "payable",
      "type": "function"
    },
    {
      "inputs": [
        {
          "internalType": "uint8",
          "name": "",
          "type": "uint8"
        }
      ],
      "name": "allocByTiers",
      "outputs": [
        {
          "internalType": "uint256",
          "name": "",
          "type": "uint256"
        }
      ],
      "stateMutability": "view",
      "type": "function"
    },
    {
      "inputs": [
        {
          "internalType": "address",
          "name": "to",
          "type": "address"
        },
        {
          "internalType": "uint256",
          "name": "tokenId",
          "type": "uint256"
        }
      ],
      "name": "approve",
      "outputs": [],
      "stateMutability": "nonpayable",
      "type": "function"
    },
    {
      "inputs": [
        {
          "internalType": "address",
          "name": "owner",
          "type": "address"
        }
      ],
      "name": "balanceOf",
      "outputs": [
        {
          "internalType": "uint256",
          "name": "",
          "type": "uint256"
        }
      ],
      "stateMutability": "view",
      "type": "function"
    },
    {
      "inputs": [],
      "name": "compoundDelay",
      "outputs": [
        {
          "internalType": "uint256",
          "name": "",
          "type": "uint256"
        }
      ],
      "stateMutability": "view",
      "type": "function"
    },
    {
      "inputs": [
        {
          "internalType": "uint256",
          "name": "_rgnLockId",
          "type": "uint256"
        },
        {
          "internalType": "bool",
          "name": "inside",
          "type": "bool"
        }
      ],
      "name": "compoundReward",
      "outputs": [],
      "stateMutability": "nonpayable",
      "type": "function"
    },
    {
      "inputs": [],
      "name": "fees",
      "outputs": [
        {
          "internalType": "uint256",
          "name": "",
          "type": "uint256"
        }
      ],
      "stateMutability": "view",
      "type": "function"
    },
    {
      "inputs": [
        {
          "internalType": "uint256",
          "name": "_rgnLockId",
          "type": "uint256"
        }
      ],
      "name": "generateBRgn",
      "outputs": [],
      "stateMutability": "nonpayable",
      "type": "function"
    },
    {
      "inputs": [
        {
          "internalType": "uint8",
          "name": "",
          "type": "uint8"
        }
      ],
      "name": "generateRgnByTiers",
      "outputs": [
        {
          "internalType": "uint256",
          "name": "",
          "type": "uint256"
        }
      ],
      "stateMutability": "view",
      "type": "function"
    },
    {
      "inputs": [
        {
          "internalType": "uint256",
          "name": "tokenId",
          "type": "uint256"
        }
      ],
      "name": "getApproved",
      "outputs": [
        {
          "internalType": "address",
          "name": "",
          "type": "address"
        }
      ],
      "stateMutability": "view",
      "type": "function"
    },
    {
      "inputs": [
        {
          "internalType": "uint256",
          "name": "id",
          "type": "uint256"
        }
      ],
      "name": "getRaribleRoyalties",
      "outputs": [
        {
          "components": [
            {
              "internalType": "address payable",
              "name": "account",
              "type": "address"
            },
            {
              "internalType": "uint96",
              "name": "value",
              "type": "uint96"
            }
          ],
          "internalType": "struct LibPart.Part[]",
          "name": "",
          "type": "tuple[]"
        }
      ],
      "stateMutability": "view",
      "type": "function"
    },
    {
      "inputs": [
        {
          "internalType": "address",
          "name": "owner",
          "type": "address"
        },
        {
          "internalType": "address",
          "name": "operator",
          "type": "address"
        }
      ],
      "name": "isApprovedForAll",
      "outputs": [
        {
          "internalType": "bool",
          "name": "",
          "type": "bool"
        }
      ],
      "stateMutability": "view",
      "type": "function"
    },
    {
      "inputs": [
        {
          "internalType": "address",
          "name": "account",
          "type": "address"
        },
        {
          "internalType": "uint256",
          "name": "_rgnLockId",
          "type": "uint256"
        }
      ],
      "name": "isApprovedOrOwnerOfNft",
      "outputs": [
        {
          "internalType": "bool",
          "name": "",
          "type": "bool"
        }
      ],
      "stateMutability": "view",
      "type": "function"
    },
    {
      "inputs": [
        {
          "internalType": "address",
          "name": "_account",
          "type": "address"
        },
        {
          "internalType": "uint256",
          "name": "_amountLock",
          "type": "uint256"
        },
        {
          "internalType": "uint8",
          "name": "_timeToLock",
          "type": "uint8"
        }
      ],
      "name": "mint",
      "outputs": [],
      "stateMutability": "payable",
      "type": "function"
    },
    {
      "inputs": [],
      "name": "name",
      "outputs": [
        {
          "internalType": "string",
          "name": "",
          "type": "string"
        }
      ],
      "stateMutability": "view",
      "type": "function"
    },
    {
      "inputs": [
        {
          "internalType": "uint256",
          "name": "tokenId",
          "type": "uint256"
        }
      ],
      "name": "ownerOf",
      "outputs": [
        {
          "internalType": "address",
          "name": "",
          "type": "address"
        }
      ],
      "stateMutability": "view",
      "type": "function"
    },
    {
      "inputs": [],
      "name": "paused",
      "outputs": [
        {
          "internalType": "bool",
          "name": "",
          "type": "bool"
        }
      ],
      "stateMutability": "view",
      "type": "function"
    },
    {
      "inputs": [
        {
          "internalType": "uint256",
          "name": "_tokenId",
          "type": "uint256"
        }
      ],
      "name": "pendingTokens",
      "outputs": [
        {
          "internalType": "uint256",
          "name": "pendingRGN",
          "type": "uint256"
        },
        {
          "internalType": "uint256",
          "name": "pendingBRGN",
          "type": "uint256"
        }
      ],
      "stateMutability": "view",
      "type": "function"
    },
    {
      "inputs": [],
      "name": "rgnPerSec",
      "outputs": [
        {
          "internalType": "uint256",
          "name": "",
          "type": "uint256"
        }
      ],
      "stateMutability": "view",
      "type": "function"
    },
    {
      "inputs": [
        {
          "internalType": "uint256",
          "name": "_rgnLockId",
          "type": "uint256"
        }
      ],
      "name": "rightToVote",
      "outputs": [
        {
          "internalType": "bool",
          "name": "",
          "type": "bool"
        }
      ],
      "stateMutability": "view",
      "type": "function"
    },
    {
      "inputs": [
        {
          "internalType": "address",
          "name": "from",
          "type": "address"
        },
        {
          "internalType": "address",
          "name": "to",
          "type": "address"
        },
        {
          "internalType": "uint256",
          "name": "tokenId",
          "type": "uint256"
        }
      ],
      "name": "safeTransferFrom",
      "outputs": [],
      "stateMutability": "nonpayable",
      "type": "function"
    },
    {
      "inputs": [
        {
          "internalType": "address",
          "name": "from",
          "type": "address"
        },
        {
          "internalType": "address",
          "name": "to",
          "type": "address"
        },
        {
          "internalType": "uint256",
          "name": "tokenId",
          "type": "uint256"
        },
        {
          "internalType": "bytes",
          "name": "_data",
          "type": "bytes"
        }
      ],
      "name": "safeTransferFrom",
      "outputs": [],
      "stateMutability": "nonpayable",
      "type": "function"
    },
    {
      "inputs": [
        {
          "internalType": "uint8",
          "name": "_month",
          "type": "uint8"
        },
        {
          "internalType": "uint256",
          "name": "_alloc",
          "type": "uint256"
        }
      ],
      "name": "setAllocByTiers",
      "outputs": [],
      "stateMutability": "nonpayable",
      "type": "function"
    },
    {
      "inputs": [
        {
          "internalType": "address",
          "name": "operator",
          "type": "address"
        },
        {
          "internalType": "bool",
          "name": "approved",
          "type": "bool"
        }
      ],
      "name": "setApprovalForAll",
      "outputs": [],
      "stateMutability": "nonpayable",
      "type": "function"
    },
    {
      "inputs": [
        {
          "internalType": "contract BRGN",
          "name": "_brgn",
          "type": "address"
        }
      ],
      "name": "setBToken",
      "outputs": [],
      "stateMutability": "nonpayable",
      "type": "function"
    },
    {
      "inputs": [],
      "name": "setRoyalties",
      "outputs": [],
      "stateMutability": "nonpayable",
      "type": "function"
    },
    {
      "inputs": [
        {
          "internalType": "contract storageSVG",
          "name": "_svg",
          "type": "address"
        }
      ],
      "name": "setSvg",
      "outputs": [],
      "stateMutability": "nonpayable",
      "type": "function"
    },
    {
      "inputs": [
        {
          "internalType": "uint256",
          "name": "_time",
          "type": "uint256"
        }
      ],
      "name": "setTimeBeforeRights",
      "outputs": [],
      "stateMutability": "nonpayable",
      "type": "function"
    },
    {
      "inputs": [
        {
          "internalType": "uint8[]",
          "name": "_timeLock",
          "type": "uint8[]"
        }
      ],
      "name": "setTimeLockMonth",
      "outputs": [],
      "stateMutability": "nonpayable",
      "type": "function"
    },
    {
      "inputs": [
        {
          "internalType": "contract RGN",
          "name": "_rgn",
          "type": "address"
        }
      ],
      "name": "setToken",
      "outputs": [],
      "stateMutability": "nonpayable",
      "type": "function"
    },
    {
      "inputs": [
        {
          "internalType": "contract UtilsNftLock",
          "name": "_utils",
          "type": "address"
        }
      ],
      "name": "setUtils",
      "outputs": [],
      "stateMutability": "nonpayable",
      "type": "function"
    },
    {
      "inputs": [
        {
          "internalType": "bytes4",
          "name": "interfaceId",
          "type": "bytes4"
        }
      ],
      "name": "supportsInterface",
      "outputs": [
        {
          "internalType": "bool",
          "name": "",
          "type": "bool"
        }
      ],
      "stateMutability": "view",
      "type": "function"
    },
    {
      "inputs": [],
      "name": "symbol",
      "outputs": [
        {
          "internalType": "string",
          "name": "",
          "type": "string"
        }
      ],
      "stateMutability": "view",
      "type": "function"
    },
    {
      "inputs": [],
      "name": "timeBeforeRights",
      "outputs": [
        {
          "internalType": "uint256",
          "name": "",
          "type": "uint256"
        }
      ],
      "stateMutability": "view",
      "type": "function"
    },
    {
      "inputs": [
        {
          "internalType": "uint256",
          "name": "index",
          "type": "uint256"
        }
      ],
      "name": "tokenByIndex",
      "outputs": [
        {
          "internalType": "uint256",
          "name": "",
          "type": "uint256"
        }
      ],
      "stateMutability": "view",
      "type": "function"
    },
    {
      "inputs": [
        {
          "internalType": "address",
          "name": "owner",
          "type": "address"
        },
        {
          "internalType": "uint256",
          "name": "index",
          "type": "uint256"
        }
      ],
      "name": "tokenOfOwnerByIndex",
      "outputs": [
        {
          "internalType": "uint256",
          "name": "",
          "type": "uint256"
        }
      ],
      "stateMutability": "view",
      "type": "function"
    },
    {
      "inputs": [
        {
          "internalType": "uint256",
          "name": "_rgnLockId",
          "type": "uint256"
        }
      ],
      "name": "tokenURI",
      "outputs": [
        {
          "internalType": "string",
          "name": "",
          "type": "string"
        }
      ],
      "stateMutability": "view",
      "type": "function"
    },
    {
      "inputs": [],
      "name": "totalAllocPoint",
      "outputs": [
        {
          "internalType": "uint256",
          "name": "",
          "type": "uint256"
        }
      ],
      "stateMutability": "view",
      "type": "function"
    },
    {
      "inputs": [],
      "name": "totalSupply",
      "outputs": [
        {
          "internalType": "uint256",
          "name": "",
          "type": "uint256"
        }
      ],
      "stateMutability": "view",
      "type": "function"
    },
    {
      "inputs": [],
      "name": "totalValueBrgnLocked",
      "outputs": [
        {
          "internalType": "uint256",
          "name": "",
          "type": "uint256"
        }
      ],
      "stateMutability": "view",
      "type": "function"
    },
    {
      "inputs": [],
      "name": "totalValueLocked",
      "outputs": [
        {
          "internalType": "uint256",
          "name": "",
          "type": "uint256"
        }
      ],
      "stateMutability": "view",
      "type": "function"
    },
    {
      "inputs": [
        {
          "internalType": "uint8",
          "name": "",
          "type": "uint8"
        }
      ],
      "name": "totalrgnLockByTiers",
      "outputs": [
        {
          "internalType": "uint256",
          "name": "",
          "type": "uint256"
        }
      ],
      "stateMutability": "view",
      "type": "function"
    },
    {
      "inputs": [
        {
          "internalType": "address",
          "name": "from",
          "type": "address"
        },
        {
          "internalType": "address",
          "name": "to",
          "type": "address"
        },
        {
          "internalType": "uint256",
          "name": "tokenId",
          "type": "uint256"
        }
      ],
      "name": "transferFrom",
      "outputs": [],
      "stateMutability": "nonpayable",
      "type": "function"
    },
    {
      "inputs": [
        {
          "internalType": "uint256",
          "name": "_rgnLockId",
          "type": "uint256"
        }
      ],
      "name": "withdraw",
      "outputs": [],
      "stateMutability": "nonpayable",
      "type": "function"
    }
  ],
  "bytecode": "0x60806040523480156200001157600080fd5b506040516200449738038062004497833981016040819052620000349162000449565b604080518082018252600781526652676e4c6f636b60c81b6020808301918252835180850190945260048452631491d39360e21b9084015281519192916200007f9160019162000250565b5080516200009590600290602084019062000250565b50506001600755506008805460ff1916905566b1a2bc2ec5000060195562015180601d5562069780601e55620f4236601f55620000d6565b60405180910390fd5b600060209081556040805160a08101825260038152600692810192909252600c9082015260186060820152602460808201526200011890601a906005620002df565b506040805160a081018252601e8082526020820152601491810191909152600a6060820181905260808201526200015490601b906005620002df565b506040805160a0810182526702c68af0bb140000815267058d15e1762800006020820152670853a0d2313c000091810191909152670b1a2bc2ec5000006060820152670de0b6b3a76400006080820152620001b490601c90600562000387565b50601580546001600160a01b03191633179055620001d281620001d9565b50620004b6565b620001e362000205565b601480546001600160a01b0319166001600160a01b0392909216919091179055565b6015546001600160a01b031633146200024e5760405162461bcd60e51b815260206004820152600a60248201526927b7363c9037bbb732b960b11b6044820152606401620000cd565b565b8280546200025e9062000479565b90600052602060002090601f016020900481019282620002825760008555620002cd565b82601f106200029d57805160ff1916838001178555620002cd565b82800160010185558215620002cd579182015b82811115620002cd578251825591602001919060010190620002b0565b50620002db92915062000432565b5090565b82805482825590600052602060002090601f01602090048101928215620002cd5791602002820160005b838211156200034957835183826101000a81548160ff021916908360ff160217905550926020019260010160208160000104928301926001030262000309565b8015620003785782816101000a81549060ff021916905560010160208160000104928301926001030262000349565b5050620002db92915062000432565b82805482825590600052602060002090600301600490048101928215620002cd5791602002820160005b83821115620003fd57835183826101000a8154816001600160401b0302191690836001600160401b031602179055509260200192600801602081600701049283019260010302620003b1565b8015620003785782816101000a8154906001600160401b030219169055600801602081600701049283019260010302620003fd565b5b80821115620002db576000815560010162000433565b6000602082840312156200045b578081fd5b81516001600160a01b038116811462000472578182fd5b9392505050565b6002810460018216806200048e57607f821691505b60208210811415620004b057634e487b7160e01b600052602260045260246000fd5b50919050565b613fd180620004c66000396000f3fe60806040526004361061027d5760003560e01c80636352211e1161014f578063a8a658fc116100c1578063d4ac0fa11161007a578063d4ac0fa11461077d578063d5b202c814610793578063d66cb332146107b3578063e985e9c5146108a0578063ec18154e146108c0578063fc56251d146108d65761027d565b8063a8a658fc146106c4578063af878e31146106e4578063b88d4fde14610711578063bb97a9dc14610731578063c87b56dd14610747578063d05f2271146107675761027d565b80638333503d116101135780638333503d1461063057806393399b7e1461065057806395d89b41146106665780639af1d35a1461067b5780639d913c6414610691578063a22cb465146106a45761027d565b80636352211e1461058357806369953501146105a357806370a08231146105c357806371415554146105e35780637fae025b146106035761027d565b806323b872dd116101f35780633d5f8126116101ac5780633d5f8126146104d657806342842e0e146105035780634ae0dbde146105235780634f6ccce7146105385780635c975abb146105585780636112e8ac146105705761027d565b806323b872dd146104015780632e1a7d4d146104215780632f5d99e6146104415780632f745c5914610461578063352fc85f1461048157806338828094146104b65761027d565b80630dce9237116102455780630dce92371461034857806314030cb614610368578063144fa6d71461038857806317caf6f1146103a857806318160ddd146103cc57806318f99693146103e15761027d565b806301ffc9a71461028257806306fdde03146102b757806308125019146102d9578063081812fc146102fb578063095ea7b314610328575b600080fd5b34801561028e57600080fd5b506102a261029d36600461397d565b610903565b60405190151581526020015b60405180910390f35b3480156102c357600080fd5b506102cc610952565b6040516102ae9190613c68565b3480156102e557600080fd5b506102f96102f43660046136fa565b6109e4565b005b34801561030757600080fd5b5061031b610316366004613ad3565b610a0e565b6040516102ae9190613ba7565b34801561033457600080fd5b506102f9610343366004613868565b610a9b565b34801561035457600080fd5b506102f9610363366004613ad3565b610bac565b34801561037457600080fd5b506102f9610383366004613ad3565b610e9d565b34801561039457600080fd5b506102f96103a33660046136fa565b610eaa565b3480156103b457600080fd5b506103be60205481565b6040519081526020016102ae565b3480156103d857600080fd5b50600b546103be565b3480156103ed57600080fd5b506102f96103fc3660046138d0565b610ed4565b34801561040d57600080fd5b506102f961041c36600461374e565b610ef3565b34801561042d57600080fd5b506102f961043c366004613ad3565b610f24565b34801561044d57600080fd5b506102f961045c366004613b03565b611297565b34801561046d57600080fd5b506103be61047c366004613868565b611372565b34801561048d57600080fd5b506104a161049c366004613ad3565b61140b565b604080519283526020830191909152016102ae565b3480156104c257600080fd5b506102a26104d1366004613ad3565b61155d565b3480156104e257600080fd5b506103be6104f1366004613b46565b60186020526000908152604090205481565b34801561050f57600080fd5b506102f961051e36600461374e565b611622565b34801561052f57600080fd5b506102f961163d565b34801561054457600080fd5b506103be610553366004613ad3565b6116bd565b34801561056457600080fd5b5060085460ff166102a2565b6102f961057e366004613893565b61175e565b34801561058f57600080fd5b5061031b61059e366004613ad3565b611c15565b3480156105af57600080fd5b506102f96105be3660046136fa565b611c8c565b3480156105cf57600080fd5b506103be6105de3660046136fa565b611cb6565b3480156105ef57600080fd5b506102f96105fe3660046136fa565b611d3d565b34801561060f57600080fd5b506103be61061e366004613b46565b60176020526000908152604090205481565b34801561063c57600080fd5b506103be61064b366004613a27565b611d67565b34801561065c57600080fd5b506103be601d5481565b34801561067257600080fd5b506102cc611eba565b34801561068757600080fd5b506103be60195481565b6102f961069f366004613b25565b611ec9565b3480156106b057600080fd5b506102f96106bf366004613834565b61212e565b3480156106d057600080fd5b506102a26106df366004613868565b612139565b3480156106f057600080fd5b506103be6106ff366004613b46565b60166020526000908152604090205481565b34801561071d57600080fd5b506102f961072c36600461378e565b61214c565b34801561073d57600080fd5b506103be60105481565b34801561075357600080fd5b506102cc610762366004613ad3565b61217e565b34801561077357600080fd5b506103be601e5481565b34801561078957600080fd5b506103be601f5481565b34801561079f57600080fd5b506102f96107ae366004613b60565b6122cc565b3480156107bf57600080fd5b5061083c6107ce366004613ad3565b600d60205260009081526040902080546001820154600283015460038401546004850154600586015460068701546007880154600890980154969795969495939460ff93841694929391929161ffff8216916001600160a01b036201000082041691600160b01b909104168b565b604080519b8c5260208c019a909a52988a0197909752606089019590955260ff909316608088015260a087019190915260c086015260e085015261ffff166101008401526001600160a01b03166101208301521515610140820152610160016102ae565b3480156108ac57600080fd5b506102a26108bb366004613716565b612304565b3480156108cc57600080fd5b506103be600f5481565b3480156108e257600080fd5b506108f66108f1366004613ad3565b612332565b6040516102ae9190613c07565b60006001600160e01b0319821663656cb66560e11b148061093457506001600160e01b0319821663152a902d60e11b145b156109415750600161094d565b61094a826123b8565b90505b919050565b60606001805461096190613ecf565b80601f016020809104026020016040519081016040528092919081815260200182805461098d90613ecf565b80156109da5780601f106109af576101008083540402835291602001916109da565b820191906000526020600020905b8154815290600101906020018083116109bd57829003601f168201915b5050505050905090565b6109ec6123dd565b601380546001600160a01b0319166001600160a01b0392909216919091179055565b6000610a1982612426565b610a7f5760405162461bcd60e51b815260206004820152602c60248201527f4552433732313a20617070726f76656420717565727920666f72206e6f6e657860448201526b34b9ba32b73a103a37b5b2b760a11b60648201526084015b60405180910390fd5b506000908152600560205260409020546001600160a01b031690565b6000610aa682611c15565b9050806001600160a01b0316836001600160a01b03161415610b145760405162461bcd60e51b815260206004820152602160248201527f4552433732313a20617070726f76616c20746f2063757272656e74206f776e656044820152603960f91b6064820152608401610a76565b336001600160a01b0382161480610b305750610b3081336108bb565b610b9d5760405162461bcd60e51b815260206004820152603860248201527f4552433732313a20617070726f76652063616c6c6572206973206e6f74206f776044820152771b995c881b9bdc88185c1c1c9bdd995908199bdc88185b1b60421b6064820152608401610a76565b610ba78383612443565b505050565b60026007541415610bcf5760405162461bcd60e51b8152600401610a7690613da7565b6002600755610bdc6124b1565b80610be68161250d565b60085460ff1615610c095760405162461bcd60e51b8152600401610a7690613ccd565b6000828152600d602052604090206008810154600160b01b900460ff16610c425760405162461bcd60e51b8152600401610a7690613cf7565b6040805161016081018252825481526001830154602082015260028301549181019190915260038201546060820152600482015460ff9081166080830152600583015460a0830152600683015460c0830152600783015460e0830152600883015461ffff81166101008401526001600160a01b0362010000820416610120840152600160b01b9004161515610140820152610cdc906125c0565b610cf85760405162461bcd60e51b8152600401610a7690613d74565b6040805161016081018252825481526001830154602082015260028301549181019190915260038201546060820152600482015460ff9081166080830152600583015460a0830152600683015460c0830152600783015460e0830152600883015461ffff81166101008401526001600160a01b0362010000820416610120840152600160b01b9004161515610140820152600090610d9590611d67565b6012546040516340c10f1960e01b81529192506001600160a01b0316906340c10f1990610dc89030908590600401613bee565b600060405180830381600087803b158015610de257600080fd5b505af1158015610df6573d6000803e3d6000fd5b50505050838260080160029054906101000a90046001600160a01b03166001600160a01b03167f6b26096245cbed98b81398e4df8ffea01dee3c4e46e21a4a91d0fbf60108df2c8460060154604051610e5191815260200190565b60405180910390a380826007016000828254610e6d9190613e35565b909155505042600283015560108054829190600090610e8d908490613e35565b9091555050600160075550505050565b610ea56123dd565b601e55565b610eb26123dd565b601180546001600160a01b0319166001600160a01b0392909216919091179055565b610edc6123dd565b8051610eef90601a906020840190613601565b5050565b610efd33826125dd565b610f195760405162461bcd60e51b8152600401610a7690613d23565b610ba783838361269f565b60026007541415610f475760405162461bcd60e51b8152600401610a7690613da7565b6002600755610f546124b1565b80610f5e8161250d565b60085460ff1615610f815760405162461bcd60e51b8152600401610a7690613ccd565b6000828152600d602052604090206008810154600160b01b900460ff16610fba5760405162461bcd60e51b8152600401610a7690613cf7565b6040805161016081018252825481526001830154602082015260028301549181019190915260038201546060820152600482015460ff9081166080830152600583015460a0830152600683015460c0830152600783015460e0830152600883015461ffff81166101008401526001600160a01b0362010000820416610120840152600160b01b9004161515610140820152611054906125c0565b6110705760405162461bcd60e51b8152600401610a7690613d74565b600381015442116110d55760405162461bcd60e51b815260206004820152602960248201527f496d706f737369626c65207769746864726177206265666f72652074696d6520604482015268746f20756e6c6f636b60b81b6064820152608401610a76565b6110e0836001611297565b601154600882015460068301546040516340c10f1960e01b81526001600160a01b03938416936340c10f1993611123936201000090910490911691600401613bee565b600060405180830381600087803b15801561113d57600080fd5b505af1158015611151573d6000803e3d6000fd5b50506012546007840154604051632770a7eb60e21b81526001600160a01b039092169350639dc29fac925061118b91309190600401613bee565b600060405180830381600087803b1580156111a557600080fd5b505af11580156111b9573d6000803e3d6000fd5b505050506111c683612834565b6008810154600682015460405190815284916201000090046001600160a01b0316907ff279e6a1f5e320cca91135676d9cb6e44ca8a08c0b88342bcdb1144f6511b5689060200160405180910390a38060060154600f600082825461122b9190613e8c565b9091555050600781015460108054600090611247908490613e8c565b909155505060006006820181905560078201819055600582015560088101805460ff60b01b191690554260028201556004810154600682015461128d9160ff169061285a565b5050600160075550565b816112a18161250d565b60085460ff16156112c45760405162461bcd60e51b8152600401610a7690613ccd565b60006112d0848461287c565b9050600081116113355760405162461bcd60e51b815260206004820152602a60248201527f596f75206d757374207761697420756e74696c20796f752063616e20636f6d7060448201526937bab7321030b3b0b4b760b11b6064820152608401610a76565b604051818152849033907f0e311a2c6dbfb0153ec3a8a5bdca09070b3e5f60768fdc10a20453f38d1868739060200160405180910390a350505050565b600061137d83611cb6565b82106113df5760405162461bcd60e51b815260206004820152602b60248201527f455243373231456e756d657261626c653a206f776e657220696e646578206f7560448201526a74206f6620626f756e647360a81b6064820152608401610a76565b506001600160a01b03821660009081526009602090815260408083208484529091529020545b92915050565b6000818152600d602090815260408083208151610160810183528154815260018201549381019390935260028101549183019190915260038101546060830152600481015460ff9081166080840152600582015460a0840152600682015460c0840152600782015460e0840152600882015461ffff81166101008501526001600160a01b0362010000820416610120850152600160b01b900416151561014083015282916114b890612aba565b6040805161016081018252835481526001840154602082015260028401549181019190915260038301546060820152600483015460ff9081166080830152600584015460a0830152600684015460c0830152600784015460e0830152600884015461ffff81166101008401526001600160a01b0362010000820416610120840152600160b01b900416151561014082015290935061155590611d67565b915050915091565b6000818152600d602090815260408083208151610160810183528154815260018201549381019390935260028101549183019190915260038101546060830152600481015460ff9081166080840152600582015460a08401819052600683015460c0850152600783015460e085015260089092015461ffff81166101008501526001600160a01b0362010000820416610120850152600160b01b9004161515610140830152421061161257600191505061094d565b600091505061094d565b50919050565b610ba78383836040518060200160405280600081525061214c565b6116456123dd565b60145460405163dc95c4a760e01b81526001600160a01b039091169063dc95c4a7906116899073d1c20fe83019b402f7aa9663db1f736f1f88364590600401613ba7565b600060405180830381600087803b1580156116a357600080fd5b505af11580156116b7573d6000803e3d6000fd5b50505050565b60006116c8600b5490565b821061172b5760405162461bcd60e51b815260206004820152602c60248201527f455243373231456e756d657261626c653a20676c6f62616c20696e646578206f60448201526b7574206f6620626f756e647360a01b6064820152608401610a76565b600b828154811061174c57634e487b7160e01b600052603260045260246000fd5b90600052602060002001549050919050565b3233146117ad5760405162461bcd60e51b815260206004820152601e60248201527f5468652063616c6c657220697320616e6f7468657220636f6e747261637400006044820152606401610a76565b806117b781612b89565b6117fe5760405162461bcd60e51b8152602060048201526018602482015277536f72727920756e6b6e6f776e206d6f6e7468206c6f636b60401b6044820152606401610a76565b6011546040516370a0823160e01b815233916001600160a01b0316906370a082319061182e908490600401613ba7565b60206040518083038186803b15801561184657600080fd5b505afa15801561185a573d6000803e3d6000fd5b505050506040513d601f19601f8201168201806040525081019061187e9190613aeb565b8411156118c35760405162461bcd60e51b815260206004820152601360248201527242616c616e6365202452474e20746f206c6f7760681b6044820152606401610a76565b6019543410156119155760405162461bcd60e51b815260206004820152601a60248201527f696e73756666696369656e742066756e647320666f72206665650000000000006044820152606401610a76565b61191f8484612c04565b61196b5760405162461bcd60e51b815260206004820181905260248201527f536f72727920696d706f737369626c6520637265617465206d6f7265206e66746044820152606401610a76565b601154604051632770a7eb60e21b81526001600160a01b0390911690639dc29fac9061199d9084908890600401613bee565b600060405180830381600087803b1580156119b757600080fd5b505af11580156119cb573d6000803e3d6000fd5b5050505083600f60008282546119e19190613e35565b9091555050600e8054600101905560006119fa600e5490565b9050611a068486612d63565b604051806101600160405280611a1b600e5490565b8152602001428152602001428152602001611a3586612b89565b611a3f9042613e35565b81526020018560ff168152602001601e54611a574290565b611a619190613e35565b815260208082018890526000604080840182905260608085018390526001600160a01b038c8116608080880191909152600160a0978801819052898652600d87529484902088518155958801519486019490945591860151600285015585015160038401559084015160048301805460ff191660ff90921691909117905591830151600582015560c0830151600682015560e08301516007820155610100830151600890910180546101208501516101409095015161ffff1990911661ffff9093169290921762010000600160b01b0319166201000094909316939093029190911760ff60b01b1916600160b01b91151591909102179055611b638682612d85565b60145460405163615a868d60e11b8152600481018390526101f460248201526001600160a01b039091169063c2b50d1a90604401600060405180830381600087803b158015611bb157600080fd5b505af1158015611bc5573d6000803e3d6000fd5b5050505080866001600160a01b03167f278b0fd0170e87df8d6e9c94b47d3ff7382de693c547e6089b53f9972c53238987604051611c0591815260200190565b60405180910390a3505050505050565b6000818152600360205260408120546001600160a01b03168061094a5760405162461bcd60e51b815260206004820152602960248201527f4552433732313a206f776e657220717565727920666f72206e6f6e657869737460448201526832b73a103a37b5b2b760b91b6064820152608401610a76565b611c946123dd565b601480546001600160a01b0319166001600160a01b0392909216919091179055565b60006001600160a01b038216611d215760405162461bcd60e51b815260206004820152602a60248201527f4552433732313a2062616c616e636520717565727920666f7220746865207a65604482015269726f206164647265737360b01b6064820152608401610a76565b506001600160a01b031660009081526004602052604090205490565b611d456123dd565b601280546001600160a01b0319166001600160a01b0392909216919091179055565b6000806064611d798460800151612b89565b611d8490601e613e6d565b611d8e9190613e4d565b905060008360c00151600a611da39190613e6d565b601c611db5866080015160ff16612d9f565b60ff1681548110611dd657634e487b7160e01b600052603260045260246000fd5b90600052602060002090600491828204019190066008029054906101000a90046001600160401b03166001600160401b0316611e129190613e6d565b9050808460e0015110611e5b5760405162461bcd60e51b815260206004820152601160248201527026b0bc1033b2b732b930ba3290313933b760791b6044820152606401610a76565b60008460400151611e694290565b611e739190613e8c565b611e7d8484613e4d565b611e879190613e6d565b9050818560e0015182611e9a9190613e35565b1115611eb25760e0850151611eaf9083613e8c565b90505b949350505050565b60606002805461096190613ecf565b81611ed38161250d565b60085460ff1615611ef65760405162461bcd60e51b8152600401610a7690613ccd565b60008211611f3f5760405162461bcd60e51b81526020600482015260166024820152751491d388199d5b991cc81a5b9cdd59999a58da595b9d60521b6044820152606401610a76565b601954341015611f915760405162461bcd60e51b815260206004820152601b60248201527f696e73756666696369656e742066756e647320666f72206665657300000000006044820152606401610a76565b6000838152600d60209081526040918290208251610160810184528154815260018201549281019290925260028101549282019290925260038201546060820152600482015460ff9081166080830152600583015460a0830152600683015460c0830152600783015460e0830152600883015461ffff81166101008401526001600160a01b0362010000820416610120840152600160b01b900416151561014082015261203d906125c0565b6120595760405162461bcd60e51b8152600401610a7690613d74565b601154604051632770a7eb60e21b815233916001600160a01b031690639dc29fac9061208b9084908890600401613bee565b600060405180830381600087803b1580156120a557600080fd5b505af11580156120b9573d6000803e3d6000fd5b50505050838260060160008282546120d19190613e35565b909155505042600283015560048201546120ee9060ff1685612d63565b81546040518591906001600160a01b038416907f95e3437dd8ba0917dafa24cca906f3d48785c2c7fe6f8f41acd8cfb25b938bb990600090a45050505050565b610eef338383612e1d565b600061214583836125dd565b9392505050565b61215633836125dd565b6121725760405162461bcd60e51b8152600401610a7690613d23565b6116b784848484612ee8565b6000818152600d602090815260409182902082516101608101845281548082526001830154938201939093526002820154818501526003820154606080830182905260048085015460ff90811660808601819052600587015460a0870152600687015460c08701819052600788015460e0880181905260089098015461ffff81166101008901526001600160a01b0362010000820481166101208a0152600160b01b909104909316151561014088018190526013549a51632e9f0c7760e11b815294850152602484015260448301949094526064820195909552608481019290925260a482019490945292939092911690635d3e18ee9060c40160006040518083038186803b15801561229057600080fd5b505afa1580156122a4573d6000803e3d6000fd5b505050506040513d6000823e601f3d908101601f1916820160405261214591908101906139b5565b6122d46123dd565b60ff82166000908152601760209081526040822083905580548392906122fb908490613e35565b90915550505050565b6001600160a01b03918216600090815260066020908152604080832093909416825291909152205460ff1690565b600081815260208181526040808320805482518185028101850190935280835260609492939192909184015b828210156123ad57600084815260209081902060408051808201909152908401546001600160a01b0381168252600160a01b90046001600160601b03168183015282526001909201910161235e565b505050509050919050565b60006001600160e01b0319821663780e9d6360e01b148061094a575061094a82612f1b565b6015546001600160a01b031633146124245760405162461bcd60e51b815260206004820152600a60248201526927b7363c9037bbb732b960b11b6044820152606401610a76565b565b6000908152600360205260409020546001600160a01b0316151590565b600081815260056020526040902080546001600160a01b0319166001600160a01b038416908117909155819061247882611c15565b6001600160a01b03167f8c5be1e5ebec7d5bd14f71427d1e84f3dd0314c0f7b2291e5b200ac8c7c3b92560405160405180910390a45050565b3360006124bd82611cb6565b1161250a5760405162461bcd60e51b815260206004820152601c60248201527f4e6f204e6674206f776e65642062792074686973206163636f756e74000000006044820152606401610a76565b50565b3361251782612f6b565b61255c5760405162461bcd60e51b8152602060048201526016602482015275151a1a5cc81b999d08191bd95cdb89dd08195e1a5cdd60521b6044820152606401610a76565b6125668183612139565b610eef5760405162461bcd60e51b815260206004820152602560248201527f596f7520646f206e6f74206861766520636f6e74726f6c206f766572207468696044820152641cc81b999d60da1b6064820152608401610a76565b6000601d5482604001516125d49190613e35565b42101592915050565b60006125e882612426565b6126495760405162461bcd60e51b815260206004820152602c60248201527f4552433732313a206f70657261746f7220717565727920666f72206e6f6e657860448201526b34b9ba32b73a103a37b5b2b760a11b6064820152608401610a76565b600061265483611c15565b9050806001600160a01b0316846001600160a01b0316148061268f5750836001600160a01b031661268484610a0e565b6001600160a01b0316145b80611eb25750611eb28185612304565b826001600160a01b03166126b282611c15565b6001600160a01b0316146127165760405162461bcd60e51b815260206004820152602560248201527f4552433732313a207472616e736665722066726f6d20696e636f72726563742060448201526437bbb732b960d91b6064820152608401610a76565b6001600160a01b0382166127785760405162461bcd60e51b8152602060048201526024808201527f4552433732313a207472616e7366657220746f20746865207a65726f206164646044820152637265737360e01b6064820152608401610a76565b612783838383613026565b61278e600082612443565b6001600160a01b03831660009081526004602052604081208054600192906127b7908490613e8c565b90915550506001600160a01b03821660009081526004602052604081208054600192906127e5908490613e35565b909155505060008181526003602052604080822080546001600160a01b0319166001600160a01b038681169182179092559151849391871691600080516020613f7c83398151915291a4610ba7565b6000818152600d6020526040902060088101805460ff60b01b19169055610eef82613086565b60ff8216600090815260166020526040812080548392906122fb908490613e8c565b6000828152600d602090815260408083208151610160810183528154815260018201549381019390935260028101549183019190915260038101546060830152600481015460ff9081166080840152600582015460a0840152600682015460c0840152600782015460e0840152600882015461ffff81166101008501526001600160a01b0362010000820416610120850152600160b01b900416151561014083015290612928906125c0565b612936576000915050611405565b6040805161016081018252825481526001830154602082015260028301549181019190915260038201546060820152600482015460ff9081166080830152600583015460a0830152600683015460c0830152600783015460e0830152600883015461ffff81166101008401526001600160a01b0362010000820416610120840152600160b01b90041615156101408201526000906129d390612aba565b600483015460ff16600090815260186020526040902081905590508015611eb25742600283015583612a765760115460088301546040516340c10f1960e01b81526001600160a01b03928316926340c10f1992612a3f9262010000909104909116908590600401613bee565b600060405180830381600087803b158015612a5957600080fd5b505af1158015612a6d573d6000803e3d6000fd5b50505050611eb2565b80600f6000828254612a889190613e35565b9250508190555080826006016000828254612aa39190613e35565b90915550506004820154611eb29060ff1682612d63565b6040810151600090819042111561094a5760008360400151612ad94290565b612ae39190613e8c565b9050600060205460176000876080015160ff1660ff16815260200190815260200160002054601f5484612b169190613e6d565b612b209190613e6d565b612b2a9190613e4d565b90506000600f5482612b3c9190613e4d565b608087015160ff16600090815260186020526040902054612b5d9190613e35565b905064e8d4a51000818760c00151612b759190613e6d565b612b7f9190613e4d565b9695505050505050565b60008160ff1660241415612ba257506305a39a8061094d565b8160ff1660181415612bb957506303c2670061094d565b8160ff16600c1415612bd057506301e1338061094d565b8160ff1660061415612be6575062f099c061094d565b8160ff1660031415612bfc575062784ce061094d565b50600061094d565b600082612c3f5760405162461bcd60e51b815260206004820152600960248201526802452474e20697320360bc1b6044820152606401610a76565b6000612c4d8360ff16612d9f565b905060006064601b8360ff1681548110612c7757634e487b7160e01b600052603260045260246000fd5b60009182526020918290208282040154601154604080516318160ddd60e01b81529051601f9094166101000a90920460ff16936001600160a01b03909116926318160ddd926004808201939291829003018186803b158015612cd857600080fd5b505afa158015612cec573d6000803e3d6000fd5b505050506040513d601f19601f82011682018060405250810190612d109190613aeb565b612d1a9190613e6d565b612d249190613e4d565b60ff83166000908152601660205260409020549091508190612d47908790613e35565b1015612d5857600192505050611405565b600092505050611405565b60ff8216600090815260166020526040812080548392906122fb908490613e35565b610eef82826040518060200160405280600081525061311c565b6000805b601a5460ff82161015612e145782601a8260ff1681548110612dd557634e487b7160e01b600052603260045260246000fd5b60009182526020918290209181049091015460ff601f9092166101000a9004161415612e0257905061094d565b80612e0c81613f04565b915050612da3565b50606492915050565b816001600160a01b0316836001600160a01b03161415612e7b5760405162461bcd60e51b815260206004820152601960248201527822a9219b99189d1030b8383937bb32903a379031b0b63632b960391b6044820152606401610a76565b6001600160a01b03838116600081815260066020908152604080832094871680845294825291829020805460ff191686151590811790915591519182527f17307eab39ab6107e8899845ad3d59bd9653f200f220920489ca2b5937696c31910160405180910390a3505050565b612ef384848461269f565b612eff8484848461314f565b6116b75760405162461bcd60e51b8152600401610a7690613c7b565b60006001600160e01b031982166380ac58cd60e01b1480612f4c57506001600160e01b03198216635b5e139f60e01b145b8061094a57506301ffc9a760e01b6001600160e01b031983161461094a565b6000818152600d602090815260408083208151610160810183528154815260018201549381019390935260028101549183019190915260038101546060830152600481015460ff9081166080840152600582015460a0840152600682015460c0840152600782015460e084015260089091015461ffff81166101008401526001600160a01b0362010000820416610120840152600160b01b90041615801561014083015261301d57600191505061094d565b50600092915050565b60085460ff16156130495760405162461bcd60e51b8152600401610a7690613ccd565b6000818152600d6020526040902060088101805462010000600160b01b031916620100006001600160a01b038616021790556116b784848461325c565b600061309182611c15565b905061309f81600084613026565b6130aa600083612443565b6001600160a01b03811660009081526004602052604081208054600192906130d3908490613e8c565b909155505060008281526003602052604080822080546001600160a01b0319169055518391906001600160a01b03841690600080516020613f7c833981519152908390a4610eef565b6131268383613319565b613133600084848461314f565b610ba75760405162461bcd60e51b8152600401610a7690613c7b565b60006001600160a01b0384163b1561325157604051630a85bd0160e11b81526001600160a01b0385169063150b7a0290613193903390899088908890600401613bbb565b602060405180830381600087803b1580156131ad57600080fd5b505af19250505080156131dd575060408051601f3d908101601f191682019092526131da91810190613999565b60015b613237573d80801561320b576040519150601f19603f3d011682016040523d82523d6000602084013e613210565b606091505b50805161322f5760405162461bcd60e51b8152600401610a7690613c7b565b805181602001fd5b6001600160e01b031916630a85bd0160e11b149050611eb2565b506001949350505050565b6001600160a01b0383166132b7576132b281600b80546000838152600c60205260408120829055600182018355919091527f0175b7a638427703f0dbe7bb9bbf987a2551717b34e79f33b5b1008d1fa01db90155565b6132da565b816001600160a01b0316836001600160a01b0316146132da576132da8382613447565b6001600160a01b0382166132f6576132f1816134e4565b610ba7565b826001600160a01b0316826001600160a01b031614610ba757610ba782826135bd565b6001600160a01b03821661336f5760405162461bcd60e51b815260206004820181905260248201527f4552433732313a206d696e7420746f20746865207a65726f20616464726573736044820152606401610a76565b61337881612426565b156133c55760405162461bcd60e51b815260206004820152601c60248201527f4552433732313a20746f6b656e20616c7265616479206d696e746564000000006044820152606401610a76565b6133d160008383613026565b6001600160a01b03821660009081526004602052604081208054600192906133fa908490613e35565b909155505060008181526003602052604080822080546001600160a01b0319166001600160a01b0386169081179091559051839290600080516020613f7c833981519152908290a4610eef565b6000600161345484611cb6565b61345e9190613e8c565b6000838152600a60205260409020549091508082146134b1576001600160a01b03841660009081526009602090815260408083208584528252808320548484528184208190558352600a90915290208190555b506000918252600a602090815260408084208490556001600160a01b039094168352600981528383209183525290812055565b600b546000906134f690600190613e8c565b6000838152600c6020526040812054600b805493945090928490811061352c57634e487b7160e01b600052603260045260246000fd5b9060005260206000200154905080600b838154811061355b57634e487b7160e01b600052603260045260246000fd5b6000918252602080832090910192909255828152600c9091526040808220849055858252812055600b8054806135a157634e487b7160e01b600052603160045260246000fd5b6001900381819060005260206000200160009055905550505050565b60006135c883611cb6565b6001600160a01b0390931660009081526009602090815260408083208684528252808320859055938252600a9052919091209190915550565b82805482825590600052602060002090601f016020900481019282156136975791602002820160005b8382111561366857835183826101000a81548160ff021916908360ff160217905550926020019260010160208160000104928301926001030261362a565b80156136955782816101000a81549060ff0219169055600101602081600001049283019260010302613668565b505b506136a39291506136a7565b5090565b5b808211156136a357600081556001016136a8565b803561094d81613f50565b8035801515811461094d57600080fd5b803561ffff8116811461094d57600080fd5b803560ff8116811461094d57600080fd5b60006020828403121561370b578081fd5b813561214581613f50565b60008060408385031215613728578081fd5b823561373381613f50565b9150602083013561374381613f50565b809150509250929050565b600080600060608486031215613762578081fd5b833561376d81613f50565b9250602084013561377d81613f50565b929592945050506040919091013590565b600080600080608085870312156137a3578081fd5b84356137ae81613f50565b935060208501356137be81613f50565b92506040850135915060608501356001600160401b038111156137df578182fd5b8501601f810187136137ef578182fd5b80356138026137fd82613e0e565b613dde565b818152886020838501011115613816578384fd5b81602084016020830137908101602001929092525092959194509250565b60008060408385031215613846578182fd5b823561385181613f50565b915061385f602084016136c7565b90509250929050565b6000806040838503121561387a578182fd5b823561388581613f50565b946020939093013593505050565b6000806000606084860312156138a7578081fd5b83356138b281613f50565b9250602084013591506138c7604085016136e9565b90509250925092565b600060208083850312156138e2578182fd5b82356001600160401b03808211156138f8578384fd5b818501915085601f83011261390b578384fd5b81358181111561391d5761391d613f3a565b838102915061392d848301613dde565b8181528481019084860184860187018a1015613947578788fd5b8795505b838610156139705761395c816136e9565b83526001959095019491860191860161394b565b5098975050505050505050565b60006020828403121561398e578081fd5b813561214581613f65565b6000602082840312156139aa578081fd5b815161214581613f65565b6000602082840312156139c6578081fd5b81516001600160401b038111156139db578182fd5b8201601f810184136139eb578182fd5b80516139f96137fd82613e0e565b818152856020838501011115613a0d578384fd5b613a1e826020830160208601613ea3565b95945050505050565b6000610160808385031215613a3a578182fd5b613a4381613dde565b905082358152602083013560208201526040830135604082015260608301356060820152613a73608084016136e9565b608082015260a083013560a082015260c083013560c082015260e083013560e0820152610100613aa48185016136d7565b90820152610120613ab68482016136bc565b90820152610140613ac88482016136c7565b908201529392505050565b600060208284031215613ae4578081fd5b5035919050565b600060208284031215613afc578081fd5b5051919050565b60008060408385031215613b15578182fd5b8235915061385f602084016136c7565b60008060408385031215613b37578182fd5b50508035926020909101359150565b600060208284031215613b57578081fd5b612145826136e9565b60008060408385031215613b72578182fd5b613885836136e9565b60008151808452613b93816020860160208601613ea3565b601f01601f19169290920160200192915050565b6001600160a01b0391909116815260200190565b6001600160a01b0385811682528416602082015260408101839052608060608201819052600090612b7f90830184613b7b565b6001600160a01b03929092168252602082015260400190565b602080825282518282018190526000919060409081850190868401855b82811015613c5b57815180516001600160a01b031685528601516001600160601b0316868501529284019290850190600101613c24565b5091979650505050505050565b6000602082526121456020830184613b7b565b60208082526032908201527f4552433732313a207472616e7366657220746f206e6f6e20455243373231526560408201527131b2b4bb32b91034b6b83632b6b2b73a32b960711b606082015260800190565b60208082526010908201526f14185d5cd8589b194e881c185d5cd95960821b604082015260600190565b6020808252601290820152711499db881b1bd8dac81b9bdd08195e1a5cdd60721b604082015260600190565b60208082526031908201527f4552433732313a207472616e736665722063616c6c6572206973206e6f74206f6040820152701ddb995c881b9bdc88185c1c1c9bdd9959607a1b606082015260800190565b60208082526019908201527814dbdc9c9e4819195b185e481a5cc81b9bdd081c185cdcd959603a1b604082015260600190565b6020808252601f908201527f5265656e7472616e637947756172643a207265656e7472616e742063616c6c00604082015260600190565b604051601f8201601f191681016001600160401b0381118282101715613e0657613e06613f3a565b604052919050565b60006001600160401b03821115613e2757613e27613f3a565b50601f01601f191660200190565b60008219821115613e4857613e48613f24565b500190565b600082613e6857634e487b7160e01b81526012600452602481fd5b500490565b6000816000190483118215151615613e8757613e87613f24565b500290565b600082821015613e9e57613e9e613f24565b500390565b60005b83811015613ebe578181015183820152602001613ea6565b838111156116b75750506000910152565b600281046001821680613ee357607f821691505b6020821081141561161c57634e487b7160e01b600052602260045260246000fd5b600060ff821660ff811415613f1b57613f1b613f24565b60010192915050565b634e487b7160e01b600052601160045260246000fd5b634e487b7160e01b600052604160045260246000fd5b6001600160a01b038116811461250a57600080fd5b6001600160e01b03198116811461250a57600080fdfeddf252ad1be2c89b69c2b068fc378daa952ba7f163c4a11628f55a4df523b3efa26469706673582212209d56cbbb752f86199704bb14cd802c3180614df7224ffaa4cb63e4a91151577e64736f6c63430008020033",
  "linkReferences": {},
  "deployedLinkReferences": {}
}