{
  "_format": "hh-sol-artifact-1",
  "contractName": "RGNLOCK",
  "sourceName": "contracts/NFT/RgnLock.sol",
  "abi": [
    {
      "inputs": [],
      "stateMutability": "nonpayable",
      "type": "constructor"
    },
    {
      "anonymous": false,
      "inputs": [
        {
          "indexed": true,
          "internalType": "address",
          "name": "account",
          "type": "address"
        },
        {
          "indexed": true,
          "internalType": "uint256",
          "name": "trsrNodeId",
          "type": "uint256"
        },
        {
          "indexed": true,
          "internalType": "uint256",
          "name": "amountAdd",
          "type": "uint256"
        }
      ],
      "name": "AddToken",
      "type": "event"
    },
    {
      "anonymous": false,
      "inputs": [
        {
          "indexed": true,
          "internalType": "address",
          "name": "owner",
          "type": "address"
        },
        {
          "indexed": true,
          "internalType": "address",
          "name": "approved",
          "type": "address"
        },
        {
          "indexed": true,
          "internalType": "uint256",
          "name": "tokenId",
          "type": "uint256"
        }
      ],
      "name": "Approval",
      "type": "event"
    },
    {
      "anonymous": false,
      "inputs": [
        {
          "indexed": true,
          "internalType": "address",
          "name": "owner",
          "type": "address"
        },
        {
          "indexed": true,
          "internalType": "address",
          "name": "operator",
          "type": "address"
        },
        {
          "indexed": false,
          "internalType": "bool",
          "name": "approved",
          "type": "bool"
        }
      ],
      "name": "ApprovalForAll",
      "type": "event"
    },
    {
      "anonymous": false,
      "inputs": [
        {
          "indexed": true,
          "internalType": "address",
          "name": "account",
          "type": "address"
        },
        {
          "indexed": true,
          "internalType": "uint256",
          "name": "nftId",
          "type": "uint256"
        },
        {
          "indexed": false,
          "internalType": "uint256",
          "name": "amountToCompound",
          "type": "uint256"
        }
      ],
      "name": "Compound",
      "type": "event"
    },
    {
      "anonymous": false,
      "inputs": [
        {
          "indexed": true,
          "internalType": "address",
          "name": "account",
          "type": "address"
        },
        {
          "indexed": true,
          "internalType": "uint256",
          "name": "newTrsrNodeId",
          "type": "uint256"
        },
        {
          "indexed": false,
          "internalType": "uint256",
          "name": "amount",
          "type": "uint256"
        }
      ],
      "name": "Create",
      "type": "event"
    },
    {
      "anonymous": false,
      "inputs": [
        {
          "indexed": true,
          "internalType": "address",
          "name": "account",
          "type": "address"
        },
        {
          "indexed": true,
          "internalType": "uint256",
          "name": "trsrnodeId",
          "type": "uint256"
        },
        {
          "indexed": false,
          "internalType": "uint256",
          "name": "amoutLock",
          "type": "uint256"
        }
      ],
      "name": "GenerateBrgn",
      "type": "event"
    },
    {
      "anonymous": false,
      "inputs": [
        {
          "indexed": true,
          "internalType": "address",
          "name": "previousOwner",
          "type": "address"
        },
        {
          "indexed": true,
          "internalType": "address",
          "name": "newOwner",
          "type": "address"
        }
      ],
      "name": "OwnershipTransferred",
      "type": "event"
    },
    {
      "anonymous": false,
      "inputs": [
        {
          "indexed": false,
          "internalType": "address",
          "name": "account",
          "type": "address"
        }
      ],
      "name": "Paused",
      "type": "event"
    },
    {
      "anonymous": false,
      "inputs": [
        {
          "indexed": false,
          "internalType": "uint256",
          "name": "tokenId",
          "type": "uint256"
        },
        {
          "components": [
            {
              "internalType": "address payable",
              "name": "account",
              "type": "address"
            },
            {
              "internalType": "uint96",
              "name": "value",
              "type": "uint96"
            }
          ],
          "indexed": false,
          "internalType": "struct LibPart.Part[]",
          "name": "royalties",
          "type": "tuple[]"
        }
      ],
      "name": "RoyaltiesSet",
      "type": "event"
    },
    {
      "anonymous": false,
      "inputs": [
        {
          "indexed": true,
          "internalType": "address",
          "name": "from",
          "type": "address"
        },
        {
          "indexed": true,
          "internalType": "address",
          "name": "to",
          "type": "address"
        },
        {
          "indexed": true,
          "internalType": "uint256",
          "name": "tokenId",
          "type": "uint256"
        }
      ],
      "name": "Transfer",
      "type": "event"
    },
    {
      "anonymous": false,
      "inputs": [
        {
          "indexed": false,
          "internalType": "address",
          "name": "account",
          "type": "address"
        }
      ],
      "name": "Unpaused",
      "type": "event"
    },
    {
      "anonymous": false,
      "inputs": [
        {
          "indexed": true,
          "internalType": "address",
          "name": "account",
          "type": "address"
        },
        {
          "indexed": true,
          "internalType": "uint256",
          "name": "trsrnodeId",
          "type": "uint256"
        },
        {
          "indexed": false,
          "internalType": "uint256",
          "name": "amoutLock",
          "type": "uint256"
        }
      ],
      "name": "Withdraw",
      "type": "event"
    },
    {
      "inputs": [
        {
          "components": [
            {
              "internalType": "uint256",
              "name": "id",
              "type": "uint256"
            },
            {
              "internalType": "uint256",
              "name": "creationTime",
              "type": "uint256"
            },
            {
              "internalType": "uint256",
              "name": "lastProcessing",
              "type": "uint256"
            },
            {
              "internalType": "uint256",
              "name": "timeToLock",
              "type": "uint256"
            },
            {
              "internalType": "uint8",
              "name": "monthLock",
              "type": "uint8"
            },
            {
              "internalType": "uint256",
              "name": "rightsTime",
              "type": "uint256"
            },
            {
              "internalType": "uint256",
              "name": "rgnLock",
              "type": "uint256"
            },
            {
              "internalType": "uint256",
              "name": "bRgnLock",
              "type": "uint256"
            },
            {
              "internalType": "uint16",
              "name": "apr",
              "type": "uint16"
            },
            {
              "internalType": "address",
              "name": "owner",
              "type": "address"
            },
            {
              "internalType": "bool",
              "name": "exists",
              "type": "bool"
            }
          ],
          "internalType": "struct RGNLOCK.RgnLockEntity",
          "name": "rgnLock",
          "type": "tuple"
        }
      ],
      "name": "_calculateRewardsBrgn",
      "outputs": [
        {
          "internalType": "uint256",
          "name": "",
          "type": "uint256"
        }
      ],
      "stateMutability": "view",
      "type": "function"
    },
    {
      "inputs": [
        {
          "internalType": "uint256",
          "name": "",
          "type": "uint256"
        }
      ],
      "name": "_rgnsLock",
      "outputs": [
        {
          "internalType": "uint256",
          "name": "id",
          "type": "uint256"
        },
        {
          "internalType": "uint256",
          "name": "creationTime",
          "type": "uint256"
        },
        {
          "internalType": "uint256",
          "name": "lastProcessing",
          "type": "uint256"
        },
        {
          "internalType": "uint256",
          "name": "timeToLock",
          "type": "uint256"
        },
        {
          "internalType": "uint8",
          "name": "monthLock",
          "type": "uint8"
        },
        {
          "internalType": "uint256",
          "name": "rightsTime",
          "type": "uint256"
        },
        {
          "internalType": "uint256",
          "name": "rgnLock",
          "type": "uint256"
        },
        {
          "internalType": "uint256",
          "name": "bRgnLock",
          "type": "uint256"
        },
        {
          "internalType": "uint16",
          "name": "apr",
          "type": "uint16"
        },
        {
          "internalType": "address",
          "name": "owner",
          "type": "address"
        },
        {
          "internalType": "bool",
          "name": "exists",
          "type": "bool"
        }
      ],
      "stateMutability": "view",
      "type": "function"
    },
    {
      "inputs": [
        {
          "internalType": "uint256",
          "name": "_rgnLockId",
          "type": "uint256"
        },
        {
          "internalType": "uint256",
          "name": "_amountToken",
          "type": "uint256"
        }
      ],
      "name": "addTokenLock",
      "outputs": [],
      "stateMutability": "nonpayable",
      "type": "function"
    },
    {
      "inputs": [
        {
          "internalType": "uint8",
          "name": "",
          "type": "uint8"
        }
      ],
      "name": "allocByTiers",
      "outputs": [
        {
          "internalType": "uint256",
          "name": "",
          "type": "uint256"
        }
      ],
      "stateMutability": "view",
      "type": "function"
    },
    {
      "inputs": [
        {
          "internalType": "address",
          "name": "to",
          "type": "address"
        },
        {
          "internalType": "uint256",
          "name": "tokenId",
          "type": "uint256"
        }
      ],
      "name": "approve",
      "outputs": [],
      "stateMutability": "nonpayable",
      "type": "function"
    },
    {
      "inputs": [
        {
          "internalType": "address",
          "name": "owner",
          "type": "address"
        }
      ],
      "name": "balanceOf",
      "outputs": [
        {
          "internalType": "uint256",
          "name": "",
          "type": "uint256"
        }
      ],
      "stateMutability": "view",
      "type": "function"
    },
    {
      "inputs": [],
      "name": "compoundDelay",
      "outputs": [
        {
          "internalType": "uint256",
          "name": "",
          "type": "uint256"
        }
      ],
      "stateMutability": "view",
      "type": "function"
    },
    {
      "inputs": [
        {
          "internalType": "uint256",
          "name": "_rgnLockId",
          "type": "uint256"
        },
        {
          "internalType": "bool",
          "name": "inside",
          "type": "bool"
        }
      ],
      "name": "compoundReward",
      "outputs": [],
      "stateMutability": "nonpayable",
      "type": "function"
    },
    {
      "inputs": [
        {
          "internalType": "uint256",
          "name": "_rgnLockId",
          "type": "uint256"
        }
      ],
      "name": "generateBRgn",
      "outputs": [],
      "stateMutability": "nonpayable",
      "type": "function"
    },
    {
      "inputs": [
        {
          "internalType": "uint8",
          "name": "",
          "type": "uint8"
        }
      ],
      "name": "generateRgnByTiers",
      "outputs": [
        {
          "internalType": "uint256",
          "name": "",
          "type": "uint256"
        }
      ],
      "stateMutability": "view",
      "type": "function"
    },
    {
      "inputs": [
        {
          "internalType": "uint256",
          "name": "tokenId",
          "type": "uint256"
        }
      ],
      "name": "getApproved",
      "outputs": [
        {
          "internalType": "address",
          "name": "",
          "type": "address"
        }
      ],
      "stateMutability": "view",
      "type": "function"
    },
    {
      "inputs": [
        {
          "internalType": "address",
          "name": "_owner",
          "type": "address"
        }
      ],
      "name": "getNftsOfOwner",
      "outputs": [
        {
          "internalType": "uint32[]",
          "name": "",
          "type": "uint32[]"
        }
      ],
      "stateMutability": "view",
      "type": "function"
    },
    {
      "inputs": [
        {
          "internalType": "uint256",
          "name": "id",
          "type": "uint256"
        }
      ],
      "name": "getRaribleRoyalties",
      "outputs": [
        {
          "components": [
            {
              "internalType": "address payable",
              "name": "account",
              "type": "address"
            },
            {
              "internalType": "uint96",
              "name": "value",
              "type": "uint96"
            }
          ],
          "internalType": "struct LibPart.Part[]",
          "name": "",
          "type": "tuple[]"
        }
      ],
      "stateMutability": "view",
      "type": "function"
    },
    {
      "inputs": [
        {
          "internalType": "address",
          "name": "owner",
          "type": "address"
        },
        {
          "internalType": "address",
          "name": "operator",
          "type": "address"
        }
      ],
      "name": "isApprovedForAll",
      "outputs": [
        {
          "internalType": "bool",
          "name": "",
          "type": "bool"
        }
      ],
      "stateMutability": "view",
      "type": "function"
    },
    {
      "inputs": [
        {
          "internalType": "address",
          "name": "account",
          "type": "address"
        },
        {
          "internalType": "uint256",
          "name": "_rgnLockId",
          "type": "uint256"
        }
      ],
      "name": "isApprovedOrOwnerOfNft",
      "outputs": [
        {
          "internalType": "bool",
          "name": "",
          "type": "bool"
        }
      ],
      "stateMutability": "view",
      "type": "function"
    },
    {
      "inputs": [
        {
          "internalType": "address",
          "name": "_account",
          "type": "address"
        },
        {
          "internalType": "uint256",
          "name": "_amountLock",
          "type": "uint256"
        },
        {
          "internalType": "uint8",
          "name": "_timeToLock",
          "type": "uint8"
        }
      ],
      "name": "mint",
      "outputs": [],
      "stateMutability": "nonpayable",
      "type": "function"
    },
    {
      "inputs": [],
      "name": "name",
      "outputs": [
        {
          "internalType": "string",
          "name": "",
          "type": "string"
        }
      ],
      "stateMutability": "view",
      "type": "function"
    },
    {
      "inputs": [
        {
          "internalType": "address",
          "name": "_owner",
          "type": "address"
        }
      ],
      "name": "nftsOwnedBy",
      "outputs": [
        {
          "internalType": "uint16",
          "name": "",
          "type": "uint16"
        }
      ],
      "stateMutability": "view",
      "type": "function"
    },
    {
      "inputs": [],
      "name": "owner",
      "outputs": [
        {
          "internalType": "address",
          "name": "",
          "type": "address"
        }
      ],
      "stateMutability": "view",
      "type": "function"
    },
    {
      "inputs": [
        {
          "internalType": "uint256",
          "name": "tokenId",
          "type": "uint256"
        }
      ],
      "name": "ownerOf",
      "outputs": [
        {
          "internalType": "address",
          "name": "",
          "type": "address"
        }
      ],
      "stateMutability": "view",
      "type": "function"
    },
    {
      "inputs": [],
      "name": "paused",
      "outputs": [
        {
          "internalType": "bool",
          "name": "",
          "type": "bool"
        }
      ],
      "stateMutability": "view",
      "type": "function"
    },
    {
      "inputs": [
        {
          "internalType": "uint256",
          "name": "_tokenId",
          "type": "uint256"
        }
      ],
      "name": "pendingTokens",
      "outputs": [
        {
          "internalType": "uint256",
          "name": "pendingRGN",
          "type": "uint256"
        },
        {
          "internalType": "uint256",
          "name": "pendingBRGN",
          "type": "uint256"
        }
      ],
      "stateMutability": "view",
      "type": "function"
    },
    {
      "inputs": [],
      "name": "renounceOwnership",
      "outputs": [],
      "stateMutability": "nonpayable",
      "type": "function"
    },
    {
      "inputs": [],
      "name": "rgnPerSec",
      "outputs": [
        {
          "internalType": "uint256",
          "name": "",
          "type": "uint256"
        }
      ],
      "stateMutability": "view",
      "type": "function"
    },
    {
      "inputs": [
        {
          "internalType": "uint256",
          "name": "_rgnLockId",
          "type": "uint256"
        }
      ],
      "name": "rightToVote",
      "outputs": [
        {
          "internalType": "bool",
          "name": "",
          "type": "bool"
        }
      ],
      "stateMutability": "view",
      "type": "function"
    },
    {
      "inputs": [],
      "name": "royaltiesAddress",
      "outputs": [
        {
          "internalType": "address",
          "name": "",
          "type": "address"
        }
      ],
      "stateMutability": "view",
      "type": "function"
    },
    {
      "inputs": [
        {
          "internalType": "uint256",
          "name": "_tokenId",
          "type": "uint256"
        },
        {
          "internalType": "uint256",
          "name": "_salePrice",
          "type": "uint256"
        }
      ],
      "name": "royaltyInfo",
      "outputs": [
        {
          "internalType": "address",
          "name": "receiver",
          "type": "address"
        },
        {
          "internalType": "uint256",
          "name": "royaltyAmount",
          "type": "uint256"
        }
      ],
      "stateMutability": "view",
      "type": "function"
    },
    {
      "inputs": [
        {
          "internalType": "address",
          "name": "from",
          "type": "address"
        },
        {
          "internalType": "address",
          "name": "to",
          "type": "address"
        },
        {
          "internalType": "uint256",
          "name": "tokenId",
          "type": "uint256"
        }
      ],
      "name": "safeTransferFrom",
      "outputs": [],
      "stateMutability": "nonpayable",
      "type": "function"
    },
    {
      "inputs": [
        {
          "internalType": "address",
          "name": "from",
          "type": "address"
        },
        {
          "internalType": "address",
          "name": "to",
          "type": "address"
        },
        {
          "internalType": "uint256",
          "name": "tokenId",
          "type": "uint256"
        },
        {
          "internalType": "bytes",
          "name": "_data",
          "type": "bytes"
        }
      ],
      "name": "safeTransferFrom",
      "outputs": [],
      "stateMutability": "nonpayable",
      "type": "function"
    },
    {
      "inputs": [
        {
          "internalType": "uint8",
          "name": "_month",
          "type": "uint8"
        },
        {
          "internalType": "uint256",
          "name": "_alloc",
          "type": "uint256"
        }
      ],
      "name": "setAllocByTiers",
      "outputs": [],
      "stateMutability": "nonpayable",
      "type": "function"
    },
    {
      "inputs": [
        {
          "internalType": "address",
          "name": "operator",
          "type": "address"
        },
        {
          "internalType": "bool",
          "name": "approved",
          "type": "bool"
        }
      ],
      "name": "setApprovalForAll",
      "outputs": [],
      "stateMutability": "nonpayable",
      "type": "function"
    },
    {
      "inputs": [
        {
          "internalType": "contract BRGN",
          "name": "_brgn",
          "type": "address"
        }
      ],
      "name": "setBToken",
      "outputs": [],
      "stateMutability": "nonpayable",
      "type": "function"
    },
    {
      "inputs": [
        {
          "internalType": "contract storageSVG",
          "name": "_svg",
          "type": "address"
        }
      ],
      "name": "setSvg",
      "outputs": [],
      "stateMutability": "nonpayable",
      "type": "function"
    },
    {
      "inputs": [
        {
          "internalType": "uint256",
          "name": "_time",
          "type": "uint256"
        }
      ],
      "name": "setTimeBeforeRights",
      "outputs": [],
      "stateMutability": "nonpayable",
      "type": "function"
    },
    {
      "inputs": [
        {
          "internalType": "uint8[]",
          "name": "_timeLock",
          "type": "uint8[]"
        }
      ],
      "name": "setTimeLockMonth",
      "outputs": [],
      "stateMutability": "nonpayable",
      "type": "function"
    },
    {
      "inputs": [
        {
          "internalType": "contract RGN",
          "name": "_rgn",
          "type": "address"
        }
      ],
      "name": "setToken",
      "outputs": [],
      "stateMutability": "nonpayable",
      "type": "function"
    },
    {
      "inputs": [
        {
          "internalType": "bytes4",
          "name": "interfaceId",
          "type": "bytes4"
        }
      ],
      "name": "supportsInterface",
      "outputs": [
        {
          "internalType": "bool",
          "name": "",
          "type": "bool"
        }
      ],
      "stateMutability": "view",
      "type": "function"
    },
    {
      "inputs": [],
      "name": "symbol",
      "outputs": [
        {
          "internalType": "string",
          "name": "",
          "type": "string"
        }
      ],
      "stateMutability": "view",
      "type": "function"
    },
    {
      "inputs": [],
      "name": "timeBeforeRights",
      "outputs": [
        {
          "internalType": "uint256",
          "name": "",
          "type": "uint256"
        }
      ],
      "stateMutability": "view",
      "type": "function"
    },
    {
      "inputs": [
        {
          "internalType": "uint256",
          "name": "index",
          "type": "uint256"
        }
      ],
      "name": "tokenByIndex",
      "outputs": [
        {
          "internalType": "uint256",
          "name": "",
          "type": "uint256"
        }
      ],
      "stateMutability": "view",
      "type": "function"
    },
    {
      "inputs": [
        {
          "internalType": "address",
          "name": "owner",
          "type": "address"
        },
        {
          "internalType": "uint256",
          "name": "index",
          "type": "uint256"
        }
      ],
      "name": "tokenOfOwnerByIndex",
      "outputs": [
        {
          "internalType": "uint256",
          "name": "",
          "type": "uint256"
        }
      ],
      "stateMutability": "view",
      "type": "function"
    },
    {
      "inputs": [
        {
          "internalType": "uint256",
          "name": "_rgnLockId",
          "type": "uint256"
        }
      ],
      "name": "tokenURI",
      "outputs": [
        {
          "internalType": "string",
          "name": "",
          "type": "string"
        }
      ],
      "stateMutability": "view",
      "type": "function"
    },
    {
      "inputs": [],
      "name": "totalAllocPoint",
      "outputs": [
        {
          "internalType": "uint256",
          "name": "",
          "type": "uint256"
        }
      ],
      "stateMutability": "view",
      "type": "function"
    },
    {
      "inputs": [],
      "name": "totalSupply",
      "outputs": [
        {
          "internalType": "uint256",
          "name": "",
          "type": "uint256"
        }
      ],
      "stateMutability": "view",
      "type": "function"
    },
    {
      "inputs": [],
      "name": "totalValueBrgnLocked",
      "outputs": [
        {
          "internalType": "uint256",
          "name": "",
          "type": "uint256"
        }
      ],
      "stateMutability": "view",
      "type": "function"
    },
    {
      "inputs": [],
      "name": "totalValueLocked",
      "outputs": [
        {
          "internalType": "uint256",
          "name": "",
          "type": "uint256"
        }
      ],
      "stateMutability": "view",
      "type": "function"
    },
    {
      "inputs": [
        {
          "internalType": "uint8",
          "name": "",
          "type": "uint8"
        }
      ],
      "name": "totalrgnLockByTiers",
      "outputs": [
        {
          "internalType": "uint256",
          "name": "",
          "type": "uint256"
        }
      ],
      "stateMutability": "view",
      "type": "function"
    },
    {
      "inputs": [
        {
          "internalType": "address",
          "name": "from",
          "type": "address"
        },
        {
          "internalType": "address",
          "name": "to",
          "type": "address"
        },
        {
          "internalType": "uint256",
          "name": "tokenId",
          "type": "uint256"
        }
      ],
      "name": "transferFrom",
      "outputs": [],
      "stateMutability": "nonpayable",
      "type": "function"
    },
    {
      "inputs": [
        {
          "internalType": "address",
          "name": "newOwner",
          "type": "address"
        }
      ],
      "name": "transferOwnership",
      "outputs": [],
      "stateMutability": "nonpayable",
      "type": "function"
    },
    {
      "inputs": [
        {
          "internalType": "uint256",
          "name": "_rgnLockId",
          "type": "uint256"
        }
      ],
      "name": "withdraw",
      "outputs": [],
      "stateMutability": "nonpayable",
      "type": "function"
    }
  ],
  "bytecode": "0x60806040523480156200001157600080fd5b50604080518082018252600781526652676e4c6f636b60c81b6020808301918252835180850190945260048452631491d39360e21b9084015281519192916200005d9160019162000200565b5080516200007390600290602084019062000200565b50506001600755506008805460ff191690556200009033620001ae565b62015180601b5562069780601c55620f4236601d556000601e556040805160a0810182526003815260066020820152600c9181019190915260186060820181905260246080830152620000e59160056200028f565b506040805160a081018252601e8082526020820152601491810191909152600a606082018190526080820152620001219060199060056200028f565b506040805160a0810182526702c68af0bb140000815267058d15e1762800006020820152670853a0d2313c000091810191909152670b1a2bc2ec5000006060820152670de0b6b3a764000060808201526200018190601a90600562000337565b50601f80546001600160a01b03191673d1c20fe83019b402f7aa9663db1f736f1f88364517905562000436565b600d80546001600160a01b038381166001600160a01b0319831681179093556040519116919082907f8be0079c531659141344cd1fd0a4f28419497f9722a3daafe3b4186f6b6457e090600090a35050565b8280546200020e90620003f9565b90600052602060002090601f0160209004810192826200023257600085556200027d565b82601f106200024d57805160ff19168380011785556200027d565b828001600101855582156200027d579182015b828111156200027d57825182559160200191906001019062000260565b506200028b929150620003e2565b5090565b82805482825590600052602060002090601f016020900481019282156200027d5791602002820160005b83821115620002f957835183826101000a81548160ff021916908360ff1602179055509260200192600101602081600001049283019260010302620002b9565b8015620003285782816101000a81549060ff0219169055600101602081600001049283019260010302620002f9565b50506200028b929150620003e2565b828054828255906000526020600020906003016004900481019282156200027d5791602002820160005b83821115620003ad57835183826101000a8154816001600160401b0302191690836001600160401b03160217905550926020019260080160208160070104928301926001030262000361565b8015620003285782816101000a8154906001600160401b030219169055600801602081600701049283019260010302620003ad565b5b808211156200028b5760008155600101620003e3565b6002810460018216806200040e57607f821691505b602082108114156200043057634e487b7160e01b600052602260045260246000fd5b50919050565b61476c80620004466000396000f3fe608060405234801561001057600080fd5b50600436106102b65760003560e01c806370a0823111610172578063aed9ab8c116100d9578063d4ac0fa111610092578063d4ac0fa114610639578063d5b202c814610642578063d66cb33214610655578063e985e9c514610735578063ec18154e14610748578063f2fde38b14610751578063fc56251d14610764576102b6565b8063aed9ab8c146105c1578063af878e31146105e1578063b88d4fde14610601578063bb97a9dc14610614578063c87b56dd1461061d578063d05f227114610630576102b6565b80638da5cb5b1161012b5780638da5cb5b1461056f57806393399b7e1461057757806395d89b41146105805780639d913c6414610588578063a22cb4651461059b578063a8a658fc146105ae576102b6565b806370a08231146104e857806371415554146104fb578063715018a61461050e5780637fae025b14610516578063816e7bcb146105365780638333503d1461055c576102b6565b80632a55205a1161022157806338828094116101da578063388280941461045e5780633d5f81261461047157806342842e0e146104915780634f6ccce7146104a45780635c975abb146104b75780636112e8ac146104c25780636352211e146104d5576102b6565b80632a55205a146103c95780632e1a7d4d146103ea5780632f5d99e6146103fd5780632f745c59146104105780633288253514610423578063352fc85f14610436576102b6565b806314030cb61161027357806314030cb61461035e578063144fa6d71461037157806317caf6f11461038457806318160ddd1461039b57806318f99693146103a357806323b872dd146103b6576102b6565b806301ffc9a7146102bb57806306fdde03146102e357806308125019146102f8578063081812fc1461030d578063095ea7b3146103385780630dce92371461034b575b600080fd5b6102ce6102c9366004613ff1565b610784565b60405190151581526020015b60405180910390f35b6102eb6107d3565b6040516102da919061431b565b61030b610306366004613d6e565b610865565b005b61032061031b366004614147565b6108bf565b6040516001600160a01b0390911681526020016102da565b61030b610346366004613edc565b610947565b61030b610359366004614147565b610a58565b61030b61036c366004614147565b610d49565b61030b61037f366004613d6e565b610d7d565b61038d601e5481565b6040519081526020016102da565b600b5461038d565b61030b6103b1366004613f44565b610dce565b61030b6103c4366004613dc2565b610e14565b6103dc6103d7366004614199565b610e45565b6040516102da9291906142a5565b61030b6103f8366004614147565b610f5e565b61030b61040b366004614177565b6112d1565b61038d61041e366004613edc565b6113ac565b602054610320906001600160a01b031681565b610449610444366004614147565b611445565b604080519283526020830191909152016102da565b6102ce61046c366004614147565b611597565b61038d61047f3660046141ba565b60176020526000908152604090205481565b61030b61049f366004613dc2565b61165c565b61038d6104b2366004614147565b611677565b60085460ff166102ce565b61030b6104d0366004613f07565b611718565b6103206104e3366004614147565b611b64565b61038d6104f6366004613d6e565b611bdb565b61030b610509366004613d6e565b611c62565b61030b611cb3565b61038d6105243660046141ba565b60166020526000908152604090205481565b610549610544366004613d6e565b611cee565b60405161ffff90911681526020016102da565b61038d61056a36600461409b565b611d4e565b610320611ea1565b61038d601b5481565b6102eb611eb0565b61030b610596366004614199565b611ebf565b61030b6105a9366004613ea8565b6120d2565b6102ce6105bc366004613edc565b6120dd565b6105d46105cf366004613d6e565b6120f0565b6040516102da91906142d1565b61038d6105ef3660046141ba565b60156020526000908152604090205481565b61030b61060f366004613e02565b61224f565b61038d60115481565b6102eb61062b366004614147565b612287565b61038d601c5481565b61038d601d5481565b61030b6106503660046141d4565b6123d5565b6106d1610663366004614147565b600e60205260009081526040902080546001820154600283015460038401546004850154600586015460068701546007880154600890980154969795969495939460ff93841694929391929161ffff8216916001600160a01b036201000082041691600160b01b909104168b565b604080519b8c5260208c019a909a52988a0197909752606089019590955260ff909316608088015260a087019190915260c086015260e085015261ffff166101008401526001600160a01b03166101208301521515610140820152610160016102da565b6102ce610743366004613d8a565b612434565b61038d60105481565b61030b61075f366004613d6e565b612462565b610777610772366004614147565b612502565b6040516102da91906142be565b60006001600160e01b0319821663656cb66560e11b14806107b557506001600160e01b0319821663152a902d60e11b145b156107c2575060016107ce565b6107cb82612588565b90505b919050565b6060600180546107e29061462d565b80601f016020809104026020016040519081016040528092919081815260200182805461080e9061462d565b801561085b5780601f106108305761010080835404028352916020019161085b565b820191906000526020600020905b81548152906001019060200180831161083e57829003601f168201915b5050505050905090565b3361086e611ea1565b6001600160a01b03161461089d5760405162461bcd60e51b815260040161089490614407565b60405180910390fd5b601480546001600160a01b0319166001600160a01b0392909216919091179055565b60006108ca826125ad565b61092b5760405162461bcd60e51b815260206004820152602c60248201527f4552433732313a20617070726f76656420717565727920666f72206e6f6e657860448201526b34b9ba32b73a103a37b5b2b760a11b6064820152608401610894565b506000908152600560205260409020546001600160a01b031690565b600061095282611b64565b9050806001600160a01b0316836001600160a01b031614156109c05760405162461bcd60e51b815260206004820152602160248201527f4552433732313a20617070726f76616c20746f2063757272656e74206f776e656044820152603960f91b6064820152608401610894565b336001600160a01b03821614806109dc57506109dc8133610743565b610a495760405162461bcd60e51b815260206004820152603860248201527f4552433732313a20617070726f76652063616c6c6572206973206e6f74206f776044820152771b995c881b9bdc88185c1c1c9bdd995908199bdc88185b1b60421b6064820152608401610894565b610a5383836125ca565b505050565b60026007541415610a7b5760405162461bcd60e51b8152600401610894906144ec565b6002600755610a88612638565b80610a92816126de565b60085460ff1615610ab55760405162461bcd60e51b8152600401610894906143dd565b6000828152600e602052604090206008810154600160b01b900460ff16610aee5760405162461bcd60e51b81526004016108949061443c565b6040805161016081018252825481526001830154602082015260028301549181019190915260038201546060820152600482015460ff9081166080830152600583015460a0830152600683015460c0830152600783015460e0830152600883015461ffff81166101008401526001600160a01b0362010000820416610120840152600160b01b9004161515610140820152610b8890612772565b610ba45760405162461bcd60e51b8152600401610894906144b9565b6040805161016081018252825481526001830154602082015260028301549181019190915260038201546060820152600482015460ff9081166080830152600583015460a0830152600683015460c0830152600783015460e0830152600883015461ffff81166101008401526001600160a01b0362010000820416610120840152600160b01b9004161515610140820152600090610c4190611d4e565b6013546040516340c10f1960e01b81529192506001600160a01b0316906340c10f1990610c7490309085906004016142a5565b600060405180830381600087803b158015610c8e57600080fd5b505af1158015610ca2573d6000803e3d6000fd5b50505050838260080160029054906101000a90046001600160a01b03166001600160a01b03167f6b26096245cbed98b81398e4df8ffea01dee3c4e46e21a4a91d0fbf60108df2c8460060154604051610cfd91815260200190565b60405180910390a380826007016000828254610d199190614593565b909155505042600283015560118054829190600090610d39908490614593565b9091555050600160075550505050565b33610d52611ea1565b6001600160a01b031614610d785760405162461bcd60e51b815260040161089490614407565b601c55565b33610d86611ea1565b6001600160a01b031614610dac5760405162461bcd60e51b815260040161089490614407565b601280546001600160a01b0319166001600160a01b0392909216919091179055565b33610dd7611ea1565b6001600160a01b031614610dfd5760405162461bcd60e51b815260040161089490614407565b8051610e10906018906020840190613c75565b5050565b610e1e338261278f565b610e3a5760405162461bcd60e51b815260040161089490614468565b610a53838383612851565b600082815260208181526040808320805482518185028101850190935280835284938493929190849084015b82821015610ec057600084815260209081902060408051808201909152908401546001600160a01b0381168252600160a01b90046001600160601b031681830152825260019092019101610e71565b505050509050600081511115610f555780600081518110610ef157634e487b7160e01b600052603260045260246000fd5b60200260200101516000015161271082600081518110610f2157634e487b7160e01b600052603260045260246000fd5b6020026020010151602001516001600160601b031686610f4191906145cb565b610f4b91906145ab565b9250925050610f57565b505b9250929050565b60026007541415610f815760405162461bcd60e51b8152600401610894906144ec565b6002600755610f8e612638565b80610f98816126de565b60085460ff1615610fbb5760405162461bcd60e51b8152600401610894906143dd565b6000828152600e602052604090206008810154600160b01b900460ff16610ff45760405162461bcd60e51b81526004016108949061443c565b6040805161016081018252825481526001830154602082015260028301549181019190915260038201546060820152600482015460ff9081166080830152600583015460a0830152600683015460c0830152600783015460e0830152600883015461ffff81166101008401526001600160a01b0362010000820416610120840152600160b01b900416151561014082015261108e90612772565b6110aa5760405162461bcd60e51b8152600401610894906144b9565b6003810154421161110f5760405162461bcd60e51b815260206004820152602960248201527f496d706f737369626c65207769746864726177206265666f72652074696d6520604482015268746f20756e6c6f636b60b81b6064820152608401610894565b61111a8360016112d1565b601254600882015460068301546040516340c10f1960e01b81526001600160a01b03938416936340c10f199361115d9362010000909104909116916004016142a5565b600060405180830381600087803b15801561117757600080fd5b505af115801561118b573d6000803e3d6000fd5b50506013546007840154604051632770a7eb60e21b81526001600160a01b039092169350639dc29fac92506111c5913091906004016142a5565b600060405180830381600087803b1580156111df57600080fd5b505af11580156111f3573d6000803e3d6000fd5b50505050611200836129e6565b6008810154600682015460405190815284916201000090046001600160a01b0316907ff279e6a1f5e320cca91135676d9cb6e44ca8a08c0b88342bcdb1144f6511b5689060200160405180910390a380600601546010600082825461126591906145ea565b90915550506007810154601180546000906112819084906145ea565b909155505060006006820181905560078201819055600582015560088101805460ff60b01b19169055426002820155600481015460068201546112c79160ff1690612a0c565b5050600160075550565b816112db816126de565b60085460ff16156112fe5760405162461bcd60e51b8152600401610894906143dd565b600061130a8484612a2e565b90506000811161136f5760405162461bcd60e51b815260206004820152602a60248201527f596f75206d757374207761697420756e74696c20796f752063616e20636f6d7060448201526937bab7321030b3b0b4b760b11b6064820152608401610894565b604051818152849033907f0e311a2c6dbfb0153ec3a8a5bdca09070b3e5f60768fdc10a20453f38d1868739060200160405180910390a350505050565b60006113b783611bdb565b82106114195760405162461bcd60e51b815260206004820152602b60248201527f455243373231456e756d657261626c653a206f776e657220696e646578206f7560448201526a74206f6620626f756e647360a81b6064820152608401610894565b506001600160a01b03821660009081526009602090815260408083208484529091529020545b92915050565b6000818152600e602090815260408083208151610160810183528154815260018201549381019390935260028101549183019190915260038101546060830152600481015460ff9081166080840152600582015460a0840152600682015460c0840152600782015460e0840152600882015461ffff81166101008501526001600160a01b0362010000820416610120850152600160b01b900416151561014083015282916114f290612c6c565b6040805161016081018252835481526001840154602082015260028401549181019190915260038301546060820152600483015460ff9081166080830152600584015460a0830152600684015460c0830152600784015460e0830152600884015461ffff81166101008401526001600160a01b0362010000820416610120840152600160b01b900416151561014082015290935061158f90611d4e565b915050915091565b6000818152600e602090815260408083208151610160810183528154815260018201549381019390935260028101549183019190915260038101546060830152600481015460ff9081166080840152600582015460a08401819052600683015460c0850152600783015460e085015260089092015461ffff81166101008501526001600160a01b0362010000820416610120850152600160b01b9004161515610140830152421061164c5760019150506107ce565b60009150506107ce565b50919050565b610a538383836040518060200160405280600081525061224f565b6000611682600b5490565b82106116e55760405162461bcd60e51b815260206004820152602c60248201527f455243373231456e756d657261626c653a20676c6f62616c20696e646578206f60448201526b7574206f6620626f756e647360a01b6064820152608401610894565b600b828154811061170657634e487b7160e01b600052603260045260246000fd5b90600052602060002001549050919050565b3233146117675760405162461bcd60e51b815260206004820152601e60248201527f5468652063616c6c657220697320616e6f7468657220636f6e747261637400006044820152606401610894565b8061177181612d34565b6117b85760405162461bcd60e51b8152602060048201526018602482015277536f72727920756e6b6e6f776e206d6f6e7468206c6f636b60401b6044820152606401610894565b6000336012546040516370a0823160e01b81526001600160a01b0380841660048301529293509116906370a082319060240160206040518083038186803b15801561180257600080fd5b505afa158015611816573d6000803e3d6000fd5b505050506040513d601f19601f8201168201806040525081019061183a919061415f565b84111561187f5760405162461bcd60e51b815260206004820152601360248201527242616c616e6365202452474e20746f206c6f7760681b6044820152606401610894565b6118898484612daf565b6118d55760405162461bcd60e51b815260206004820181905260248201527f536f72727920696d706f737369626c6520637265617465206d6f7265206e66746044820152606401610894565b601254604051632770a7eb60e21b81526001600160a01b0390911690639dc29fac9061190790849088906004016142a5565b600060405180830381600087803b15801561192157600080fd5b505af1158015611935573d6000803e3d6000fd5b50505050836010600082825461194b9190614593565b9091555050600f805460010190556000611964600f5490565b90506119708486612f0e565b6119af6040518060400160405280601c81526020017f696e206d696e742066756e6374696f6e2c206f776e6572203d2025730000000081525087612f30565b6040518061016001604052806119c4600f5490565b81526020014281526020014281526020016119de86612d34565b6119e89042614593565b81526020018560ff168152602001601c54611a004290565b611a0a9190614593565b815260208082018890526000604080840182905260608085018390526001600160a01b038c8116608080880191909152600160a0978801819052898652600e87529484902088518155958801519486019490945591860151600285015585015160038401559084015160048301805460ff191660ff90921691909117905591830151600582015560c0830151600682015560e08301516007820155610100830151600890910180546101208501516101409095015161ffff1990911661ffff9093169290921762010000600160b01b0319166201000094909316939093029190911760ff60b01b1916600160b01b91151591909102179055611b0c8682612f75565b611b18816101f4612f8f565b80866001600160a01b03167f278b0fd0170e87df8d6e9c94b47d3ff7382de693c547e6089b53f9972c53238987604051611b5491815260200190565b60405180910390a3505050505050565b6000818152600360205260408120546001600160a01b0316806107cb5760405162461bcd60e51b815260206004820152602960248201527f4552433732313a206f776e657220717565727920666f72206e6f6e657869737460448201526832b73a103a37b5b2b760b91b6064820152608401610894565b60006001600160a01b038216611c465760405162461bcd60e51b815260206004820152602a60248201527f4552433732313a2062616c616e636520717565727920666f7220746865207a65604482015269726f206164647265737360b01b6064820152608401610894565b506001600160a01b031660009081526004602052604090205490565b33611c6b611ea1565b6001600160a01b031614611c915760405162461bcd60e51b815260040161089490614407565b601380546001600160a01b0319166001600160a01b0392909216919091179055565b33611cbc611ea1565b6001600160a01b031614611ce25760405162461bcd60e51b815260040161089490614407565b611cec600061305d565b565b600080805b600f548111611d47576000818152600e60205260409020600801546001600160a01b0385811662010000909204161415611d355781611d3181614662565b9250505b80611d3f81614684565b915050611cf3565b5092915050565b6000806064611d608460800151612d34565b611d6b90601e6145cb565b611d7591906145ab565b905060008360c00151600a611d8a91906145cb565b601a611d9c866080015160ff166130af565b60ff1681548110611dbd57634e487b7160e01b600052603260045260246000fd5b90600052602060002090600491828204019190066008029054906101000a90046001600160401b03166001600160401b0316611df991906145cb565b9050808460e0015110611e425760405162461bcd60e51b815260206004820152601160248201527026b0bc1033b2b732b930ba3290313933b760791b6044820152606401610894565b60008460400151611e504290565b611e5a91906145ea565b611e6484846145ab565b611e6e91906145cb565b9050818560e0015182611e819190614593565b1115611e995760e0850151611e9690836145ea565b90505b949350505050565b600d546001600160a01b031690565b6060600280546107e29061462d565b81611ec9816126de565b60085460ff1615611eec5760405162461bcd60e51b8152600401610894906143dd565b60008211611f355760405162461bcd60e51b81526020600482015260166024820152751491d388199d5b991cc81a5b9cdd59999a58da595b9d60521b6044820152606401610894565b6000838152600e60209081526040918290208251610160810184528154815260018201549281019290925260028101549282019290925260038201546060820152600482015460ff9081166080830152600583015460a0830152600683015460c0830152600783015460e0830152600883015461ffff81166101008401526001600160a01b0362010000820416610120840152600160b01b9004161515610140820152611fe190612772565b611ffd5760405162461bcd60e51b8152600401610894906144b9565b601254604051632770a7eb60e21b815233916001600160a01b031690639dc29fac9061202f90849088906004016142a5565b600060405180830381600087803b15801561204957600080fd5b505af115801561205d573d6000803e3d6000fd5b50505050838260060160008282546120759190614593565b909155505042600283015560048201546120929060ff1685612f0e565b81546040518591906001600160a01b038416907f95e3437dd8ba0917dafa24cca906f3d48785c2c7fe6f8f41acd8cfb25b938bb990600090a45050505050565b610e1033838361312d565b60006120e9838361278f565b9392505050565b606060006120fd600f5490565b9050600061210a84611cee565b61ffff1690506000816001600160401b0381111561213857634e487b7160e01b600052604160045260246000fd5b604051908082528060200260200182016040528015612161578160200160208202803683370190505b5090506000805b848111612244576121c3604051806040016040528060088152602001672573203d3d20257360c01b815250600e600084815260200190815260200160002060080160029054906101000a90046001600160a01b0316896131f8565b6000818152600e60205260409020600801546001600160a01b0388811662010000909204161415612232578083838151811061220f57634e487b7160e01b600052603260045260246000fd5b63ffffffff909216602092830291909101909101528161222e81614684565b9250505b8061223c81614684565b915050612168565b509095945050505050565b612259338361278f565b6122755760405162461bcd60e51b815260040161089490614468565b6122818484848461323f565b50505050565b6000818152600e602090815260409182902082516101608101845281548082526001830154938201939093526002820154818501526003820154606080830182905260048085015460ff90811660808601819052600587015460a0870152600687015460c08701819052600788015460e0880181905260089098015461ffff81166101008901526001600160a01b0362010000820481166101208a0152600160b01b909104909316151561014088018190526014549a51632e9f0c7760e11b815294850152602484015260448301949094526064820195909552608481019290925260a482019490945292939092911690635d3e18ee9060c40160006040518083038186803b15801561239957600080fd5b505afa1580156123ad573d6000803e3d6000fd5b505050506040513d6000823e601f3d908101601f191682016040526120e99190810190614029565b336123de611ea1565b6001600160a01b0316146124045760405162461bcd60e51b815260040161089490614407565b60ff82166000908152601660205260408120829055601e805483929061242b908490614593565b90915550505050565b6001600160a01b03918216600090815260066020908152604080832093909416825291909152205460ff1690565b3361246b611ea1565b6001600160a01b0316146124915760405162461bcd60e51b815260040161089490614407565b6001600160a01b0381166124f65760405162461bcd60e51b815260206004820152602660248201527f4f776e61626c653a206e6577206f776e657220697320746865207a65726f206160448201526564647265737360d01b6064820152608401610894565b6124ff8161305d565b50565b600081815260208181526040808320805482518185028101850190935280835260609492939192909184015b8282101561257d57600084815260209081902060408051808201909152908401546001600160a01b0381168252600160a01b90046001600160601b03168183015282526001909201910161252e565b505050509050919050565b60006001600160e01b0319821663780e9d6360e01b14806107cb57506107cb82613272565b6000908152600360205260409020546001600160a01b0316151590565b600081815260056020526040902080546001600160a01b0319166001600160a01b03841690811790915581906125ff82611b64565b6001600160a01b03167f8c5be1e5ebec7d5bd14f71427d1e84f3dd0314c0f7b2291e5b200ac8c7c3b92560405160405180910390a45050565b33806126865760405162461bcd60e51b815260206004820152601f60248201527f43616e6e6f742062652066726f6d20746865207a65726f2061646472657373006044820152606401610894565b600061269182611bdb565b116124ff5760405162461bcd60e51b815260206004820152601c60248201527f4e6f204e6674206f776e65642062792074686973206163636f756e74000000006044820152606401610894565b336126e8826132c2565b61272d5760405162461bcd60e51b8152602060048201526016602482015275151a1a5cc81b999d08191bd95cdb89dd08195e1a5cdd60521b6044820152606401610894565b61273781836120dd565b610e105760405162461bcd60e51b815260206004820152600c60248201526b2737ba1030b71037bbb732b960a11b6044820152606401610894565b6000601b5482604001516127869190614593565b42101592915050565b600061279a826125ad565b6127fb5760405162461bcd60e51b815260206004820152602c60248201527f4552433732313a206f70657261746f7220717565727920666f72206e6f6e657860448201526b34b9ba32b73a103a37b5b2b760a11b6064820152608401610894565b600061280683611b64565b9050806001600160a01b0316846001600160a01b031614806128415750836001600160a01b0316612836846108bf565b6001600160a01b0316145b80611e995750611e998185612434565b826001600160a01b031661286482611b64565b6001600160a01b0316146128c85760405162461bcd60e51b815260206004820152602560248201527f4552433732313a207472616e736665722066726f6d20696e636f72726563742060448201526437bbb732b960d91b6064820152608401610894565b6001600160a01b03821661292a5760405162461bcd60e51b8152602060048201526024808201527f4552433732313a207472616e7366657220746f20746865207a65726f206164646044820152637265737360e01b6064820152608401610894565b6129358383836133d1565b6129406000826125ca565b6001600160a01b03831660009081526004602052604081208054600192906129699084906145ea565b90915550506001600160a01b0382166000908152600460205260408120805460019290612997908490614593565b909155505060008181526003602052604080822080546001600160a01b0319166001600160a01b03868116918217909255915184939187169160008051602061471783398151915291a4610a53565b6000818152600e6020526040902060088101805460ff60b01b19169055610e1082613431565b60ff82166000908152601560205260408120805483929061242b9084906145ea565b6000828152600e602090815260408083208151610160810183528154815260018201549381019390935260028101549183019190915260038101546060830152600481015460ff9081166080840152600582015460a0840152600682015460c0840152600782015460e0840152600882015461ffff81166101008501526001600160a01b0362010000820416610120850152600160b01b900416151561014083015290612ada90612772565b612ae857600091505061143f565b6040805161016081018252825481526001830154602082015260028301549181019190915260038201546060820152600482015460ff9081166080830152600583015460a0830152600683015460c0830152600783015460e0830152600883015461ffff81166101008401526001600160a01b0362010000820416610120840152600160b01b9004161515610140820152600090612b8590612c6c565b600483015460ff16600090815260176020526040902081905590508015611e995742600283015583612c285760125460088301546040516340c10f1960e01b81526001600160a01b03928316926340c10f1992612bf192620100009091049091169085906004016142a5565b600060405180830381600087803b158015612c0b57600080fd5b505af1158015612c1f573d6000803e3d6000fd5b50505050611e99565b8060106000828254612c3a9190614593565b9250508190555080826006016000828254612c559190614593565b90915550506004820154611e999060ff1682612f0e565b604081015160009081904211156107cb5760008360400151612c8b4290565b612c9591906145ea565b601e54608086015160ff16600090815260166020526040812054601d549394509092612cc190856145cb565b612ccb91906145cb565b612cd591906145ab565b9050600060105482612ce791906145ab565b608087015160ff16600090815260176020526040902054612d089190614593565b905064e8d4a51000818760c00151612d2091906145cb565b612d2a91906145ab565b9695505050505050565b60008160ff1660241415612d4d57506305a39a806107ce565b8160ff1660181415612d6457506303c267006107ce565b8160ff16600c1415612d7b57506301e133806107ce565b8160ff1660061415612d91575062f099c06107ce565b8160ff1660031415612da7575062784ce06107ce565b5060006107ce565b600082612dea5760405162461bcd60e51b815260206004820152600960248201526802452474e20697320360bc1b6044820152606401610894565b6000612df88360ff166130af565b90506000606460198360ff1681548110612e2257634e487b7160e01b600052603260045260246000fd5b60009182526020918290208282040154601254604080516318160ddd60e01b81529051601f9094166101000a90920460ff16936001600160a01b03909116926318160ddd926004808201939291829003018186803b158015612e8357600080fd5b505afa158015612e97573d6000803e3d6000fd5b505050506040513d601f19601f82011682018060405250810190612ebb919061415f565b612ec591906145cb565b612ecf91906145ab565b60ff83166000908152601560205260409020549091508190612ef2908790614593565b1015612f035760019250505061143f565b60009250505061143f565b60ff82166000908152601560205260408120805483929061242b908490614593565b610e108282604051602401612f4692919061432e565b60408051601f198184030181529190526020810180516001600160e01b031663319af33360e01b1790526134c7565b610e108282604051806020016040528060008152506134e8565b604080516001808252818301909252600091816020015b6040805180820190915260008082526020820152815260200190600190039081612fa65790505090508181600081518110612ff157634e487b7160e01b600052603260045260246000fd5b6020908102919091018101516001600160601b03909216910152601f5481516001600160a01b0390911690829060009061303b57634e487b7160e01b600052603260045260246000fd5b60209081029190910101516001600160a01b039091169052610a53838261351b565b600d80546001600160a01b038381166001600160a01b0319831681179093556040519116919082907f8be0079c531659141344cd1fd0a4f28419497f9722a3daafe3b4186f6b6457e090600090a35050565b6000805b60185460ff82161015613124578260188260ff16815481106130e557634e487b7160e01b600052603260045260246000fd5b60009182526020918290209181049091015460ff601f9092166101000a90041614156131125790506107ce565b8061311c8161469f565b9150506130b3565b50606492915050565b816001600160a01b0316836001600160a01b0316141561318b5760405162461bcd60e51b815260206004820152601960248201527822a9219b99189d1030b8383937bb32903a379031b0b63632b960391b6044820152606401610894565b6001600160a01b03838116600081815260066020908152604080832094871680845294825291829020805460ff191686151590811790915591519182527f17307eab39ab6107e8899845ad3d59bd9653f200f220920489ca2b5937696c31910160405180910390a3505050565b610a5383838360405160240161321093929190614358565b60408051601f198184030181529190526020810180516001600160e01b03166307e763af60e51b1790526134c7565b61324a848484612851565b61325684848484613786565b6122815760405162461bcd60e51b81526004016108949061438b565b60006001600160e01b031982166380ac58cd60e01b14806132a357506001600160e01b03198216635b5e139f60e01b145b806107cb57506301ffc9a760e01b6001600160e01b03198316146107cb565b60008082116133135760405162461bcd60e51b815260206004820152601b60248201527f4964206d75737420626520686967686572207468616e207a65726f00000000006044820152606401610894565b6000828152600e60209081526040918290208251610160810184528154815260018201549281019290925260028101549282019290925260038201546060820152600482015460ff9081166080830152600583015460a0830152600683015460c0830152600783015460e083015260089092015461ffff81166101008301526001600160a01b0362010000820416610120830152600160b01b90049091161580156101408301526133c85760019150506107ce565b50600092915050565b60085460ff16156133f45760405162461bcd60e51b8152600401610894906143dd565b6000818152600e6020526040902060088101805462010000600160b01b031916620100006001600160a01b03861602179055612281848484613893565b600061343c82611b64565b905061344a816000846133d1565b6134556000836125ca565b6001600160a01b038116600090815260046020526040812080546001929061347e9084906145ea565b909155505060008281526003602052604080822080546001600160a01b0319169055518391906001600160a01b03841690600080516020614717833981519152908390a4610e10565b80516a636f6e736f6c652e6c6f67602083016000808483855afa5050505050565b6134f28383613950565b6134ff6000848484613786565b610a535760405162461bcd60e51b81526004016108949061438b565b6000805b825181101561371c5760006001600160a01b031683828151811061355357634e487b7160e01b600052603260045260246000fd5b6020026020010151600001516001600160a01b031614156135b65760405162461bcd60e51b815260206004820152601b60248201527f526563697069656e742073686f756c642062652070726573656e7400000000006044820152606401610894565b8281815181106135d657634e487b7160e01b600052603260045260246000fd5b6020026020010151602001516001600160601b03166000141561363b5760405162461bcd60e51b815260206004820181905260248201527f526f79616c74792076616c75652073686f756c6420626520706f7369746976656044820152606401610894565b82818151811061365b57634e487b7160e01b600052603260045260246000fd5b6020026020010151602001516001600160601b03168261367b9190614593565b91506000808581526020019081526020016000208382815181106136af57634e487b7160e01b600052603260045260246000fd5b602090810291909101810151825460018101845560009384529282902081519301805491909201516001600160601b0316600160a01b026001600160a01b039384166001600160a01b0319909216919091179092169190911790558061371481614684565b91505061351f565b50612710811061377c5760405162461bcd60e51b815260206004820152602560248201527f526f79616c747920746f74616c2076616c75652073686f756c64206265203c20604482015264031303030360dc1b6064820152608401610894565b610a538383613a7e565b60006001600160a01b0384163b1561388857604051630a85bd0160e11b81526001600160a01b0385169063150b7a02906137ca903390899088908890600401614272565b602060405180830381600087803b1580156137e457600080fd5b505af1925050508015613814575060408051601f3d908101601f191682019092526138119181019061400d565b60015b61386e573d808015613842576040519150601f19603f3d011682016040523d82523d6000602084013e613847565b606091505b5080516138665760405162461bcd60e51b81526004016108949061438b565b805181602001fd5b6001600160e01b031916630a85bd0160e11b149050611e99565b506001949350505050565b6001600160a01b0383166138ee576138e981600b80546000838152600c60205260408120829055600182018355919091527f0175b7a638427703f0dbe7bb9bbf987a2551717b34e79f33b5b1008d1fa01db90155565b613911565b816001600160a01b0316836001600160a01b031614613911576139118382613abb565b6001600160a01b03821661392d5761392881613b58565b610a53565b826001600160a01b0316826001600160a01b031614610a5357610a538282613c31565b6001600160a01b0382166139a65760405162461bcd60e51b815260206004820181905260248201527f4552433732313a206d696e7420746f20746865207a65726f20616464726573736044820152606401610894565b6139af816125ad565b156139fc5760405162461bcd60e51b815260206004820152601c60248201527f4552433732313a20746f6b656e20616c7265616479206d696e746564000000006044820152606401610894565b613a08600083836133d1565b6001600160a01b0382166000908152600460205260408120805460019290613a31908490614593565b909155505060008181526003602052604080822080546001600160a01b0319166001600160a01b0386169081179091559051839290600080516020614717833981519152908290a4610e10565b7f3fa96d7b6bcbfe71ef171666d84db3cf52fa2d1c8afdb1cc8e486177f208b7df8282604051613aaf929190614523565b60405180910390a15050565b60006001613ac884611bdb565b613ad291906145ea565b6000838152600a6020526040902054909150808214613b25576001600160a01b03841660009081526009602090815260408083208584528252808320548484528184208190558352600a90915290208190555b506000918252600a602090815260408084208490556001600160a01b039094168352600981528383209183525290812055565b600b54600090613b6a906001906145ea565b6000838152600c6020526040812054600b8054939450909284908110613ba057634e487b7160e01b600052603260045260246000fd5b9060005260206000200154905080600b8381548110613bcf57634e487b7160e01b600052603260045260246000fd5b6000918252602080832090910192909255828152600c9091526040808220849055858252812055600b805480613c1557634e487b7160e01b600052603160045260246000fd5b6001900381819060005260206000200160009055905550505050565b6000613c3c83611bdb565b6001600160a01b0390931660009081526009602090815260408083208684528252808320859055938252600a9052919091209190915550565b82805482825590600052602060002090601f01602090048101928215613d0b5791602002820160005b83821115613cdc57835183826101000a81548160ff021916908360ff1602179055509260200192600101602081600001049283019260010302613c9e565b8015613d095782816101000a81549060ff0219169055600101602081600001049283019260010302613cdc565b505b50613d17929150613d1b565b5090565b5b80821115613d175760008155600101613d1c565b80356107ce816146eb565b803580151581146107ce57600080fd5b803561ffff811681146107ce57600080fd5b803560ff811681146107ce57600080fd5b600060208284031215613d7f578081fd5b81356120e9816146eb565b60008060408385031215613d9c578081fd5b8235613da7816146eb565b91506020830135613db7816146eb565b809150509250929050565b600080600060608486031215613dd6578081fd5b8335613de1816146eb565b92506020840135613df1816146eb565b929592945050506040919091013590565b60008060008060808587031215613e17578081fd5b8435613e22816146eb565b93506020850135613e32816146eb565b92506040850135915060608501356001600160401b03811115613e53578182fd5b8501601f81018713613e63578182fd5b8035613e76613e718261456c565b61453c565b818152886020838501011115613e8a578384fd5b81602084016020830137908101602001929092525092959194509250565b60008060408385031215613eba578182fd5b8235613ec5816146eb565b9150613ed360208401613d3b565b90509250929050565b60008060408385031215613eee578081fd5b8235613ef9816146eb565b946020939093013593505050565b600080600060608486031215613f1b578081fd5b8335613f26816146eb565b925060208401359150613f3b60408501613d5d565b90509250925092565b60006020808385031215613f56578182fd5b82356001600160401b0380821115613f6c578384fd5b818501915085601f830112613f7f578384fd5b813581811115613f9157613f916146d5565b8381029150613fa184830161453c565b8181528481019084860184860187018a1015613fbb578788fd5b8795505b83861015613fe457613fd081613d5d565b835260019590950194918601918601613fbf565b5098975050505050505050565b600060208284031215614002578081fd5b81356120e981614700565b60006020828403121561401e578081fd5b81516120e981614700565b60006020828403121561403a578081fd5b81516001600160401b0381111561404f578182fd5b8201601f8101841361405f578182fd5b805161406d613e718261456c565b818152856020838501011115614081578384fd5b614092826020830160208601614601565b95945050505050565b60006101608083850312156140ae578182fd5b6140b78161453c565b9050823581526020830135602082015260408301356040820152606083013560608201526140e760808401613d5d565b608082015260a083013560a082015260c083013560c082015260e083013560e0820152610100614118818501613d4b565b9082015261012061412a848201613d30565b9082015261014061413c848201613d3b565b908201529392505050565b600060208284031215614158578081fd5b5035919050565b600060208284031215614170578081fd5b5051919050565b60008060408385031215614189578182fd5b82359150613ed360208401613d3b565b600080604083850312156141ab578182fd5b50508035926020909101359150565b6000602082840312156141cb578081fd5b6120e982613d5d565b600080604083850312156141e6578182fd5b613ef983613d5d565b6000815180845260208085019450808401835b8381101561423b57815180516001600160a01b031688528301516001600160601b03168388015260409096019590820190600101614202565b509495945050505050565b6000815180845261425e816020860160208601614601565b601f01601f19169290920160200192915050565b6001600160a01b0385811682528416602082015260408101839052608060608201819052600090612d2a90830184614246565b6001600160a01b03929092168252602082015260400190565b6000602082526120e960208301846141ef565b6020808252825182820181905260009190848201906040850190845b8181101561430f57835163ffffffff16835292840192918401916001016142ed565b50909695505050505050565b6000602082526120e96020830184614246565b6000604082526143416040830185614246565b905060018060a01b03831660208301529392505050565b60006060825261436b6060830186614246565b6001600160a01b0394851660208401529290931660409091015292915050565b60208082526032908201527f4552433732313a207472616e7366657220746f206e6f6e20455243373231526560408201527131b2b4bb32b91034b6b83632b6b2b73a32b960711b606082015260800190565b60208082526010908201526f14185d5cd8589b194e881c185d5cd95960821b604082015260600190565b6020808252818101527f4f776e61626c653a2063616c6c6572206973206e6f7420746865206f776e6572604082015260600190565b6020808252601290820152711499db881b1bd8dac81b9bdd08195e1a5cdd60721b604082015260600190565b60208082526031908201527f4552433732313a207472616e736665722063616c6c6572206973206e6f74206f6040820152701ddb995c881b9bdc88185c1c1c9bdd9959607a1b606082015260800190565b60208082526019908201527814dbdc9c9e4819195b185e481a5cc81b9bdd081c185cdcd959603a1b604082015260600190565b6020808252601f908201527f5265656e7472616e637947756172643a207265656e7472616e742063616c6c00604082015260600190565b600083825260406020830152611e9960408301846141ef565b604051601f8201601f191681016001600160401b0381118282101715614564576145646146d5565b604052919050565b60006001600160401b03821115614585576145856146d5565b50601f01601f191660200190565b600082198211156145a6576145a66146bf565b500190565b6000826145c657634e487b7160e01b81526012600452602481fd5b500490565b60008160001904831182151516156145e5576145e56146bf565b500290565b6000828210156145fc576145fc6146bf565b500390565b60005b8381101561461c578181015183820152602001614604565b838111156122815750506000910152565b60028104600182168061464157607f821691505b6020821081141561165657634e487b7160e01b600052602260045260246000fd5b600061ffff8083168181141561467a5761467a6146bf565b6001019392505050565b6000600019821415614698576146986146bf565b5060010190565b600060ff821660ff8114156146b6576146b66146bf565b60010192915050565b634e487b7160e01b600052601160045260246000fd5b634e487b7160e01b600052604160045260246000fd5b6001600160a01b03811681146124ff57600080fd5b6001600160e01b0319811681146124ff57600080fdfeddf252ad1be2c89b69c2b068fc378daa952ba7f163c4a11628f55a4df523b3efa26469706673582212200eb45fdfc7f4b9ac8f14044244ff8d8d0246fe192893ddbf84fa96c509768ee364736f6c63430008020033",
  "linkReferences": {},
  "deployedLinkReferences": {}
}