{
  "_format": "hh-sol-artifact-1",
  "contractName": "RGNLOCK",
  "sourceName": "contracts/NFT/RgnLock.sol",
  "abi": [
    {
      "inputs": [],
      "stateMutability": "nonpayable",
      "type": "constructor"
    },
    {
      "anonymous": false,
      "inputs": [
        {
          "indexed": true,
          "internalType": "address",
          "name": "account",
          "type": "address"
        },
        {
          "indexed": true,
          "internalType": "uint256",
          "name": "trsrNodeId",
          "type": "uint256"
        },
        {
          "indexed": true,
          "internalType": "uint256",
          "name": "amountAdd",
          "type": "uint256"
        }
      ],
      "name": "AddToken",
      "type": "event"
    },
    {
      "anonymous": false,
      "inputs": [
        {
          "indexed": true,
          "internalType": "address",
          "name": "owner",
          "type": "address"
        },
        {
          "indexed": true,
          "internalType": "address",
          "name": "approved",
          "type": "address"
        },
        {
          "indexed": true,
          "internalType": "uint256",
          "name": "tokenId",
          "type": "uint256"
        }
      ],
      "name": "Approval",
      "type": "event"
    },
    {
      "anonymous": false,
      "inputs": [
        {
          "indexed": true,
          "internalType": "address",
          "name": "owner",
          "type": "address"
        },
        {
          "indexed": true,
          "internalType": "address",
          "name": "operator",
          "type": "address"
        },
        {
          "indexed": false,
          "internalType": "bool",
          "name": "approved",
          "type": "bool"
        }
      ],
      "name": "ApprovalForAll",
      "type": "event"
    },
    {
      "anonymous": false,
      "inputs": [
        {
          "indexed": true,
          "internalType": "address",
          "name": "account",
          "type": "address"
        },
        {
          "indexed": true,
          "internalType": "uint256",
          "name": "nftId",
          "type": "uint256"
        },
        {
          "indexed": false,
          "internalType": "uint256",
          "name": "amountToCompound",
          "type": "uint256"
        }
      ],
      "name": "Compound",
      "type": "event"
    },
    {
      "anonymous": false,
      "inputs": [
        {
          "indexed": true,
          "internalType": "address",
          "name": "account",
          "type": "address"
        },
        {
          "indexed": true,
          "internalType": "uint256",
          "name": "newTrsrNodeId",
          "type": "uint256"
        },
        {
          "indexed": false,
          "internalType": "uint256",
          "name": "amount",
          "type": "uint256"
        }
      ],
      "name": "Create",
      "type": "event"
    },
    {
      "anonymous": false,
      "inputs": [
        {
          "indexed": true,
          "internalType": "address",
          "name": "account",
          "type": "address"
        },
        {
          "indexed": true,
          "internalType": "uint256",
          "name": "trsrnodeId",
          "type": "uint256"
        },
        {
          "indexed": false,
          "internalType": "uint256",
          "name": "amoutLock",
          "type": "uint256"
        }
      ],
      "name": "GenerateBrgn",
      "type": "event"
    },
    {
      "anonymous": false,
      "inputs": [
        {
          "indexed": true,
          "internalType": "address",
          "name": "previousOwner",
          "type": "address"
        },
        {
          "indexed": true,
          "internalType": "address",
          "name": "newOwner",
          "type": "address"
        }
      ],
      "name": "OwnershipTransferred",
      "type": "event"
    },
    {
      "anonymous": false,
      "inputs": [
        {
          "indexed": false,
          "internalType": "address",
          "name": "account",
          "type": "address"
        }
      ],
      "name": "Paused",
      "type": "event"
    },
    {
      "anonymous": false,
      "inputs": [
        {
          "indexed": false,
          "internalType": "uint256",
          "name": "tokenId",
          "type": "uint256"
        },
        {
          "components": [
            {
              "internalType": "address payable",
              "name": "account",
              "type": "address"
            },
            {
              "internalType": "uint96",
              "name": "value",
              "type": "uint96"
            }
          ],
          "indexed": false,
          "internalType": "struct LibPart.Part[]",
          "name": "royalties",
          "type": "tuple[]"
        }
      ],
      "name": "RoyaltiesSet",
      "type": "event"
    },
    {
      "anonymous": false,
      "inputs": [
        {
          "indexed": true,
          "internalType": "address",
          "name": "from",
          "type": "address"
        },
        {
          "indexed": true,
          "internalType": "address",
          "name": "to",
          "type": "address"
        },
        {
          "indexed": true,
          "internalType": "uint256",
          "name": "tokenId",
          "type": "uint256"
        }
      ],
      "name": "Transfer",
      "type": "event"
    },
    {
      "anonymous": false,
      "inputs": [
        {
          "indexed": false,
          "internalType": "address",
          "name": "account",
          "type": "address"
        }
      ],
      "name": "Unpaused",
      "type": "event"
    },
    {
      "anonymous": false,
      "inputs": [
        {
          "indexed": true,
          "internalType": "address",
          "name": "account",
          "type": "address"
        },
        {
          "indexed": true,
          "internalType": "uint256",
          "name": "trsrnodeId",
          "type": "uint256"
        },
        {
          "indexed": false,
          "internalType": "uint256",
          "name": "amoutLock",
          "type": "uint256"
        }
      ],
      "name": "Withdraw",
      "type": "event"
    },
    {
      "inputs": [
        {
          "internalType": "uint256",
          "name": "",
          "type": "uint256"
        }
      ],
      "name": "_rgnsLock",
      "outputs": [
        {
          "internalType": "uint256",
          "name": "id",
          "type": "uint256"
        },
        {
          "internalType": "uint256",
          "name": "creationTime",
          "type": "uint256"
        },
        {
          "internalType": "uint256",
          "name": "lastProcessing",
          "type": "uint256"
        },
        {
          "internalType": "uint256",
          "name": "timeToLock",
          "type": "uint256"
        },
        {
          "internalType": "uint8",
          "name": "monthLock",
          "type": "uint8"
        },
        {
          "internalType": "uint256",
          "name": "rightsTime",
          "type": "uint256"
        },
        {
          "internalType": "uint256",
          "name": "rgnLock",
          "type": "uint256"
        },
        {
          "internalType": "uint256",
          "name": "bRgnLock",
          "type": "uint256"
        },
        {
          "internalType": "uint16",
          "name": "apr",
          "type": "uint16"
        },
        {
          "internalType": "address",
          "name": "owner",
          "type": "address"
        }
      ],
      "stateMutability": "view",
      "type": "function"
    },
    {
      "inputs": [
        {
          "internalType": "uint256",
          "name": "_rgnLockId",
          "type": "uint256"
        },
        {
          "internalType": "uint256",
          "name": "_amountToken",
          "type": "uint256"
        }
      ],
      "name": "addTokenLock",
      "outputs": [],
      "stateMutability": "nonpayable",
      "type": "function"
    },
    {
      "inputs": [
        {
          "internalType": "uint8",
          "name": "",
          "type": "uint8"
        }
      ],
      "name": "allocByTiers",
      "outputs": [
        {
          "internalType": "uint256",
          "name": "",
          "type": "uint256"
        }
      ],
      "stateMutability": "view",
      "type": "function"
    },
    {
      "inputs": [
        {
          "internalType": "address",
          "name": "to",
          "type": "address"
        },
        {
          "internalType": "uint256",
          "name": "tokenId",
          "type": "uint256"
        }
      ],
      "name": "approve",
      "outputs": [],
      "stateMutability": "nonpayable",
      "type": "function"
    },
    {
      "inputs": [
        {
          "internalType": "address",
          "name": "owner",
          "type": "address"
        }
      ],
      "name": "balanceOf",
      "outputs": [
        {
          "internalType": "uint256",
          "name": "",
          "type": "uint256"
        }
      ],
      "stateMutability": "view",
      "type": "function"
    },
    {
      "inputs": [
        {
          "components": [
            {
              "internalType": "uint256",
              "name": "id",
              "type": "uint256"
            },
            {
              "internalType": "uint256",
              "name": "creationTime",
              "type": "uint256"
            },
            {
              "internalType": "uint256",
              "name": "lastProcessing",
              "type": "uint256"
            },
            {
              "internalType": "uint256",
              "name": "timeToLock",
              "type": "uint256"
            },
            {
              "internalType": "uint8",
              "name": "monthLock",
              "type": "uint8"
            },
            {
              "internalType": "uint256",
              "name": "rightsTime",
              "type": "uint256"
            },
            {
              "internalType": "uint256",
              "name": "rgnLock",
              "type": "uint256"
            },
            {
              "internalType": "uint256",
              "name": "bRgnLock",
              "type": "uint256"
            },
            {
              "internalType": "uint16",
              "name": "apr",
              "type": "uint16"
            },
            {
              "internalType": "address",
              "name": "owner",
              "type": "address"
            }
          ],
          "internalType": "struct RGNLOCK.RgnLockEntity",
          "name": "rgnLock",
          "type": "tuple"
        }
      ],
      "name": "calculateRewardsBrgn",
      "outputs": [
        {
          "internalType": "uint256",
          "name": "",
          "type": "uint256"
        }
      ],
      "stateMutability": "view",
      "type": "function"
    },
    {
      "inputs": [],
      "name": "compoundDelay",
      "outputs": [
        {
          "internalType": "uint256",
          "name": "",
          "type": "uint256"
        }
      ],
      "stateMutability": "view",
      "type": "function"
    },
    {
      "inputs": [
        {
          "internalType": "uint256",
          "name": "_rgnLockId",
          "type": "uint256"
        },
        {
          "internalType": "bool",
          "name": "inside",
          "type": "bool"
        }
      ],
      "name": "compoundReward",
      "outputs": [],
      "stateMutability": "nonpayable",
      "type": "function"
    },
    {
      "inputs": [
        {
          "internalType": "uint256",
          "name": "_rgnLockId",
          "type": "uint256"
        }
      ],
      "name": "generateBRgn",
      "outputs": [],
      "stateMutability": "nonpayable",
      "type": "function"
    },
    {
      "inputs": [
        {
          "internalType": "uint256",
          "name": "tokenId",
          "type": "uint256"
        }
      ],
      "name": "getApproved",
      "outputs": [
        {
          "internalType": "address",
          "name": "",
          "type": "address"
        }
      ],
      "stateMutability": "view",
      "type": "function"
    },
    {
      "inputs": [
        {
          "internalType": "address",
          "name": "_owner",
          "type": "address"
        }
      ],
      "name": "getNftsOfOwner",
      "outputs": [
        {
          "internalType": "uint32[]",
          "name": "",
          "type": "uint32[]"
        }
      ],
      "stateMutability": "view",
      "type": "function"
    },
    {
      "inputs": [
        {
          "internalType": "uint256",
          "name": "id",
          "type": "uint256"
        }
      ],
      "name": "getRaribleRoyalties",
      "outputs": [
        {
          "components": [
            {
              "internalType": "address payable",
              "name": "account",
              "type": "address"
            },
            {
              "internalType": "uint96",
              "name": "value",
              "type": "uint96"
            }
          ],
          "internalType": "struct LibPart.Part[]",
          "name": "",
          "type": "tuple[]"
        }
      ],
      "stateMutability": "view",
      "type": "function"
    },
    {
      "inputs": [
        {
          "internalType": "address",
          "name": "owner",
          "type": "address"
        },
        {
          "internalType": "address",
          "name": "operator",
          "type": "address"
        }
      ],
      "name": "isApprovedForAll",
      "outputs": [
        {
          "internalType": "bool",
          "name": "",
          "type": "bool"
        }
      ],
      "stateMutability": "view",
      "type": "function"
    },
    {
      "inputs": [
        {
          "internalType": "address",
          "name": "account",
          "type": "address"
        },
        {
          "internalType": "uint256",
          "name": "_rgnLockId",
          "type": "uint256"
        }
      ],
      "name": "isApprovedOrOwnerOfNft",
      "outputs": [
        {
          "internalType": "bool",
          "name": "",
          "type": "bool"
        }
      ],
      "stateMutability": "view",
      "type": "function"
    },
    {
      "inputs": [
        {
          "internalType": "address",
          "name": "_account",
          "type": "address"
        },
        {
          "internalType": "uint256",
          "name": "_amountLock",
          "type": "uint256"
        },
        {
          "internalType": "uint8",
          "name": "_timeToLock",
          "type": "uint8"
        }
      ],
      "name": "mint",
      "outputs": [],
      "stateMutability": "nonpayable",
      "type": "function"
    },
    {
      "inputs": [],
      "name": "name",
      "outputs": [
        {
          "internalType": "string",
          "name": "",
          "type": "string"
        }
      ],
      "stateMutability": "view",
      "type": "function"
    },
    {
      "inputs": [
        {
          "internalType": "address",
          "name": "_owner",
          "type": "address"
        }
      ],
      "name": "nftsOwnedBy",
      "outputs": [
        {
          "internalType": "uint16",
          "name": "",
          "type": "uint16"
        }
      ],
      "stateMutability": "view",
      "type": "function"
    },
    {
      "inputs": [],
      "name": "owner",
      "outputs": [
        {
          "internalType": "address",
          "name": "",
          "type": "address"
        }
      ],
      "stateMutability": "view",
      "type": "function"
    },
    {
      "inputs": [
        {
          "internalType": "uint256",
          "name": "tokenId",
          "type": "uint256"
        }
      ],
      "name": "ownerOf",
      "outputs": [
        {
          "internalType": "address",
          "name": "",
          "type": "address"
        }
      ],
      "stateMutability": "view",
      "type": "function"
    },
    {
      "inputs": [],
      "name": "paused",
      "outputs": [
        {
          "internalType": "bool",
          "name": "",
          "type": "bool"
        }
      ],
      "stateMutability": "view",
      "type": "function"
    },
    {
      "inputs": [
        {
          "internalType": "uint256",
          "name": "_tokenId",
          "type": "uint256"
        }
      ],
      "name": "pendingTokens",
      "outputs": [
        {
          "internalType": "uint256",
          "name": "pendingRGN",
          "type": "uint256"
        },
        {
          "internalType": "uint256",
          "name": "pendingBRGN",
          "type": "uint256"
        }
      ],
      "stateMutability": "view",
      "type": "function"
    },
    {
      "inputs": [],
      "name": "renounceOwnership",
      "outputs": [],
      "stateMutability": "nonpayable",
      "type": "function"
    },
    {
      "inputs": [],
      "name": "rgnPerSec",
      "outputs": [
        {
          "internalType": "uint256",
          "name": "",
          "type": "uint256"
        }
      ],
      "stateMutability": "view",
      "type": "function"
    },
    {
      "inputs": [
        {
          "internalType": "uint256",
          "name": "_rgnLockId",
          "type": "uint256"
        }
      ],
      "name": "rightToVote",
      "outputs": [
        {
          "internalType": "bool",
          "name": "",
          "type": "bool"
        }
      ],
      "stateMutability": "view",
      "type": "function"
    },
    {
      "inputs": [],
      "name": "royaltiesAddress",
      "outputs": [
        {
          "internalType": "address",
          "name": "",
          "type": "address"
        }
      ],
      "stateMutability": "view",
      "type": "function"
    },
    {
      "inputs": [
        {
          "internalType": "uint256",
          "name": "_tokenId",
          "type": "uint256"
        },
        {
          "internalType": "uint256",
          "name": "_salePrice",
          "type": "uint256"
        }
      ],
      "name": "royaltyInfo",
      "outputs": [
        {
          "internalType": "address",
          "name": "receiver",
          "type": "address"
        },
        {
          "internalType": "uint256",
          "name": "royaltyAmount",
          "type": "uint256"
        }
      ],
      "stateMutability": "view",
      "type": "function"
    },
    {
      "inputs": [
        {
          "internalType": "address",
          "name": "from",
          "type": "address"
        },
        {
          "internalType": "address",
          "name": "to",
          "type": "address"
        },
        {
          "internalType": "uint256",
          "name": "tokenId",
          "type": "uint256"
        }
      ],
      "name": "safeTransferFrom",
      "outputs": [],
      "stateMutability": "nonpayable",
      "type": "function"
    },
    {
      "inputs": [
        {
          "internalType": "address",
          "name": "from",
          "type": "address"
        },
        {
          "internalType": "address",
          "name": "to",
          "type": "address"
        },
        {
          "internalType": "uint256",
          "name": "tokenId",
          "type": "uint256"
        },
        {
          "internalType": "bytes",
          "name": "_data",
          "type": "bytes"
        }
      ],
      "name": "safeTransferFrom",
      "outputs": [],
      "stateMutability": "nonpayable",
      "type": "function"
    },
    {
      "inputs": [
        {
          "internalType": "uint8",
          "name": "_month",
          "type": "uint8"
        },
        {
          "internalType": "uint256",
          "name": "_alloc",
          "type": "uint256"
        }
      ],
      "name": "setAllocByTiers",
      "outputs": [],
      "stateMutability": "nonpayable",
      "type": "function"
    },
    {
      "inputs": [
        {
          "internalType": "address",
          "name": "operator",
          "type": "address"
        },
        {
          "internalType": "bool",
          "name": "approved",
          "type": "bool"
        }
      ],
      "name": "setApprovalForAll",
      "outputs": [],
      "stateMutability": "nonpayable",
      "type": "function"
    },
    {
      "inputs": [
        {
          "internalType": "contract BRGN",
          "name": "_brgn",
          "type": "address"
        }
      ],
      "name": "setBToken",
      "outputs": [],
      "stateMutability": "nonpayable",
      "type": "function"
    },
    {
      "inputs": [
        {
          "internalType": "uint64",
          "name": "value",
          "type": "uint64"
        },
        {
          "internalType": "uint256",
          "name": "pid",
          "type": "uint256"
        }
      ],
      "name": "setBrgnPerRgn",
      "outputs": [],
      "stateMutability": "nonpayable",
      "type": "function"
    },
    {
      "inputs": [
        {
          "internalType": "uint8",
          "name": "value",
          "type": "uint8"
        },
        {
          "internalType": "uint256",
          "name": "pid",
          "type": "uint256"
        }
      ],
      "name": "setPercentTotalRgnSupplyByTiers",
      "outputs": [],
      "stateMutability": "nonpayable",
      "type": "function"
    },
    {
      "inputs": [
        {
          "internalType": "uint256",
          "name": "_rgnPerSec",
          "type": "uint256"
        }
      ],
      "name": "setRgnPerSec",
      "outputs": [],
      "stateMutability": "nonpayable",
      "type": "function"
    },
    {
      "inputs": [
        {
          "internalType": "contract storageSVG",
          "name": "_svg",
          "type": "address"
        }
      ],
      "name": "setSvg",
      "outputs": [],
      "stateMutability": "nonpayable",
      "type": "function"
    },
    {
      "inputs": [
        {
          "internalType": "uint256",
          "name": "_time",
          "type": "uint256"
        }
      ],
      "name": "setTimeBeforeRights",
      "outputs": [],
      "stateMutability": "nonpayable",
      "type": "function"
    },
    {
      "inputs": [
        {
          "internalType": "uint8[]",
          "name": "_timeLock",
          "type": "uint8[]"
        }
      ],
      "name": "setTimeLockMonth",
      "outputs": [],
      "stateMutability": "nonpayable",
      "type": "function"
    },
    {
      "inputs": [
        {
          "internalType": "contract RGN",
          "name": "_rgn",
          "type": "address"
        }
      ],
      "name": "setToken",
      "outputs": [],
      "stateMutability": "nonpayable",
      "type": "function"
    },
    {
      "inputs": [
        {
          "internalType": "bytes4",
          "name": "interfaceId",
          "type": "bytes4"
        }
      ],
      "name": "supportsInterface",
      "outputs": [
        {
          "internalType": "bool",
          "name": "",
          "type": "bool"
        }
      ],
      "stateMutability": "view",
      "type": "function"
    },
    {
      "inputs": [],
      "name": "symbol",
      "outputs": [
        {
          "internalType": "string",
          "name": "",
          "type": "string"
        }
      ],
      "stateMutability": "view",
      "type": "function"
    },
    {
      "inputs": [],
      "name": "timeBeforeRights",
      "outputs": [
        {
          "internalType": "uint256",
          "name": "",
          "type": "uint256"
        }
      ],
      "stateMutability": "view",
      "type": "function"
    },
    {
      "inputs": [
        {
          "internalType": "uint256",
          "name": "index",
          "type": "uint256"
        }
      ],
      "name": "tokenByIndex",
      "outputs": [
        {
          "internalType": "uint256",
          "name": "",
          "type": "uint256"
        }
      ],
      "stateMutability": "view",
      "type": "function"
    },
    {
      "inputs": [
        {
          "internalType": "address",
          "name": "owner",
          "type": "address"
        },
        {
          "internalType": "uint256",
          "name": "index",
          "type": "uint256"
        }
      ],
      "name": "tokenOfOwnerByIndex",
      "outputs": [
        {
          "internalType": "uint256",
          "name": "",
          "type": "uint256"
        }
      ],
      "stateMutability": "view",
      "type": "function"
    },
    {
      "inputs": [
        {
          "internalType": "uint256",
          "name": "_rgnLockId",
          "type": "uint256"
        }
      ],
      "name": "tokenURI",
      "outputs": [
        {
          "internalType": "string",
          "name": "",
          "type": "string"
        }
      ],
      "stateMutability": "view",
      "type": "function"
    },
    {
      "inputs": [],
      "name": "totalAllocPoint",
      "outputs": [
        {
          "internalType": "uint256",
          "name": "",
          "type": "uint256"
        }
      ],
      "stateMutability": "view",
      "type": "function"
    },
    {
      "inputs": [
        {
          "internalType": "uint8",
          "name": "",
          "type": "uint8"
        }
      ],
      "name": "totalRgnLockByTiers",
      "outputs": [
        {
          "internalType": "uint256",
          "name": "",
          "type": "uint256"
        }
      ],
      "stateMutability": "view",
      "type": "function"
    },
    {
      "inputs": [],
      "name": "totalSupply",
      "outputs": [
        {
          "internalType": "uint256",
          "name": "",
          "type": "uint256"
        }
      ],
      "stateMutability": "view",
      "type": "function"
    },
    {
      "inputs": [],
      "name": "totalValueBrgnLocked",
      "outputs": [
        {
          "internalType": "uint256",
          "name": "",
          "type": "uint256"
        }
      ],
      "stateMutability": "view",
      "type": "function"
    },
    {
      "inputs": [],
      "name": "totalValueLocked",
      "outputs": [
        {
          "internalType": "uint256",
          "name": "",
          "type": "uint256"
        }
      ],
      "stateMutability": "view",
      "type": "function"
    },
    {
      "inputs": [
        {
          "internalType": "address",
          "name": "from",
          "type": "address"
        },
        {
          "internalType": "address",
          "name": "to",
          "type": "address"
        },
        {
          "internalType": "uint256",
          "name": "tokenId",
          "type": "uint256"
        }
      ],
      "name": "transferFrom",
      "outputs": [],
      "stateMutability": "nonpayable",
      "type": "function"
    },
    {
      "inputs": [
        {
          "internalType": "address",
          "name": "newOwner",
          "type": "address"
        }
      ],
      "name": "transferOwnership",
      "outputs": [],
      "stateMutability": "nonpayable",
      "type": "function"
    },
    {
      "inputs": [
        {
          "internalType": "uint256",
          "name": "_rgnLockId",
          "type": "uint256"
        }
      ],
      "name": "withdraw",
      "outputs": [],
      "stateMutability": "nonpayable",
      "type": "function"
    }
  ],
  "bytecode": "0x60806040523480156200001157600080fd5b50604080518082018252600781526652676e4c6f636b60c81b6020808301918252835180850190945260048452631491d39360e21b9084015281519192916200005d916001916200020a565b508051620000739060029060208401906200020a565b50506001600755506008805460ff191690556200009033620001b8565b62015180601a5562069780601b556b019d971e4fe8401e74000000601c556000601d556040805160a0810182526001815260036020820152600691810191909152600c606082015260126080820152620000ef90601790600562000299565b506040805160a081018252601e8082526020820152601491810191909152600a6060820181905260808201526200012b90601890600562000299565b506040805160a0810182526702c68af0bb140000815267058d15e1762800006020820152670853a0d2313c000091810191909152670b1a2bc2ec5000006060820152670de0b6b3a764000060808201526200018b90601990600562000341565b50601e80546001600160a01b03191673d1c20fe83019b402f7aa9663db1f736f1f88364517905562000440565b600d80546001600160a01b038381166001600160a01b0319831681179093556040519116919082907f8be0079c531659141344cd1fd0a4f28419497f9722a3daafe3b4186f6b6457e090600090a35050565b828054620002189062000403565b90600052602060002090601f0160209004810192826200023c576000855562000287565b82601f106200025757805160ff191683800117855562000287565b8280016001018555821562000287579182015b82811115620002875782518255916020019190600101906200026a565b5062000295929150620003ec565b5090565b82805482825590600052602060002090601f01602090048101928215620002875791602002820160005b838211156200030357835183826101000a81548160ff021916908360ff1602179055509260200192600101602081600001049283019260010302620002c3565b8015620003325782816101000a81549060ff021916905560010160208160000104928301926001030262000303565b505062000295929150620003ec565b82805482825590600052602060002090600301600490048101928215620002875791602002820160005b83821115620003b757835183826101000a8154816001600160401b0302191690836001600160401b0316021790555092602001926008016020816007010492830192600103026200036b565b8015620003325782816101000a8154906001600160401b030219169055600801602081600701049283019260010302620003b7565b5b80821115620002955760008155600101620003ed565b6002810460018216806200041857607f821691505b602082108114156200043a57634e487b7160e01b600052602260045260246000fd5b50919050565b6147bd80620004506000396000f3fe608060405234801561001057600080fd5b506004361061030c5760003560e01c80636352211e1161019d578063aed9ab8c116100e9578063d5b202c8116100a2578063ec18154e1161007c578063ec18154e146107d2578063f2fde38b146107db578063fc56251d146107ee578063fd0f33891461080e5761030c565b8063d5b202c8146106b8578063d66cb332146106cb578063e985e9c5146107965761030c565b8063aed9ab8c14610657578063b88d4fde14610677578063bb97a9dc1461068a578063c87b56dd14610693578063d05f2271146106a6578063d4ac0fa1146106af5761030c565b80638da5cb5b1161015657806395d89b411161013057806395d89b41146106165780639d913c641461061e578063a22cb46514610631578063a8a658fc146106445761030c565b80638da5cb5b146105e95780639041b9b9146105fa57806393399b7e1461060d5761030c565b80636352211e1461056257806370a08231146105755780637141555414610588578063715018a61461059b5780637fae025b146105a3578063816e7bcb146105c35761030c565b80632e1a7d4d1161025c578063352fc85f1161021557806347f32c7e116101ef57806347f32c7e146105115780634f6ccce7146105315780635c975abb146105445780636112e8ac1461054f5761030c565b8063352fc85f146104c357806338828094146104eb57806342842e0e146104fe5761030c565b80632e1a7d4d146104515780632f22a98a146104645780632f5d99e6146104775780632f745c591461048a578063328825351461049d57806333fbfcdf146104b05761030c565b806314030cb6116102c957806318160ddd116102a357806318160ddd146103f157806318f99693146103f957806323b872dd1461040c5780632a55205a1461041f5761030c565b806314030cb6146103b4578063144fa6d7146103c757806317caf6f1146103da5761030c565b806301ffc9a71461031157806306fdde0314610339578063081250191461034e578063081812fc14610363578063095ea7b31461038e5780630dce9237146103a1575b600080fd5b61032461031f36600461411d565b610821565b60405190151581526020015b60405180910390f35b610341610870565b6040516103309190614446565b61036161035c366004613e98565b610902565b005b610376610371366004614262565b610957565b6040516001600160a01b039091168152602001610330565b61036161039c366004614007565b6109ec565b6103616103af366004614262565b610b02565b6103616103c2366004614262565b610dd8565b6103616103d5366004613e98565b610e07565b6103e3601d5481565b604051908152602001610330565b600b546103e3565b61036161040736600461406f565b610e53565b61036161041a366004613eec565b610e94565b61043261042d3660046142b4565b610ec5565b604080516001600160a01b039093168352602083019190915201610330565b61036161045f366004614262565b610fde565b6103616104723660046142d5565b611371565b610361610485366004614292565b6113fc565b6103e3610498366004614007565b6114d7565b601f54610376906001600160a01b031681565b6103616104be366004614318565b611570565b6104d66104d1366004614262565b6115ea565b60408051928352602083019190915201610330565b6103246104f9366004614262565b611718565b61036161050c366004613eec565b6117d2565b6103e361051f3660046142fe565b60156020526000908152604090205481565b6103e361053f366004614262565b6117ed565b60085460ff16610324565b61036161055d366004614032565b61188e565b610376610570366004614262565b611ca4565b6103e3610583366004613e98565b611d1b565b610361610596366004613e98565b611da2565b610361611dee565b6103e36105b13660046142fe565b60166020526000908152604090205481565b6105d66105d1366004613e98565b611e24565b60405161ffff9091168152602001610330565b600d546001600160a01b0316610376565b6103e36106083660046141c8565b611e84565b6103e3601a5481565b610341612002565b61036161062c3660046142b4565b612011565b61036161063f366004613fd3565b612219565b610324610652366004614007565b612224565b61066a610665366004613e98565b612237565b60405161033091906143fc565b610361610685366004613f2c565b612343565b6103e360115481565b6103416106a1366004614262565b61237b565b6103e3601b5481565b6103e3601c5481565b6103616106c6366004614318565b6124eb565b61073d6106d9366004614262565b600e60205260009081526040902080546001820154600283015460038401546004850154600586015460068701546007880154600890980154969795969495939460ff90931693919290919061ffff8116906201000090046001600160a01b03168a565b604080519a8b5260208b019990995297890196909652606088019490945260ff909216608087015260a086015260c085015260e084015261ffff166101008301526001600160a01b031661012082015261014001610330565b6103246107a4366004613eb4565b6001600160a01b03918216600090815260066020908152604080832093909416825291909152205460ff1690565b6103e360105481565b6103616107e9366004613e98565b612545565b6108016107fc366004614262565b6125e0565b60405161033091906143e9565b61036161081c366004614262565b612666565b60006001600160e01b0319821663656cb66560e11b148061085257506001600160e01b0319821663152a902d60e11b145b1561085f5750600161086b565b61086882612695565b90505b919050565b60606001805461087f9061469e565b80601f01602080910402602001604051908101604052809291908181526020018280546108ab9061469e565b80156108f85780601f106108cd576101008083540402835291602001916108f8565b820191906000526020600020905b8154815290600101906020018083116108db57829003601f168201915b5050505050905090565b600d546001600160a01b031633146109355760405162461bcd60e51b815260040161092c906144d5565b60405180910390fd5b601480546001600160a01b0319166001600160a01b0392909216919091179055565b6000818152600360205260408120546001600160a01b03166109d05760405162461bcd60e51b815260206004820152602c60248201527f4552433732313a20617070726f76656420717565727920666f72206e6f6e657860448201526b34b9ba32b73a103a37b5b2b760a11b606482015260840161092c565b506000908152600560205260409020546001600160a01b031690565b60006109f782611ca4565b9050806001600160a01b0316836001600160a01b03161415610a655760405162461bcd60e51b815260206004820152602160248201527f4552433732313a20617070726f76616c20746f2063757272656e74206f776e656044820152603960f91b606482015260840161092c565b336001600160a01b0382161480610a815750610a8181336107a4565b610af35760405162461bcd60e51b815260206004820152603860248201527f4552433732313a20617070726f76652063616c6c6572206973206e6f74206f7760448201527f6e6572206e6f7220617070726f76656420666f7220616c6c0000000000000000606482015260840161092c565b610afd83836126ba565b505050565b60026007541415610b555760405162461bcd60e51b815260206004820152601f60248201527f5265656e7472616e637947756172643a207265656e7472616e742063616c6c00604482015260640161092c565b6002600755610b62612728565b80610b6c816127ce565b60085460ff1615610b8f5760405162461bcd60e51b815260040161092c906144ab565b6000828152600e60209081526040918290208251610140810184528154815260018201549281019290925260028101549282019290925260038201546060820152600482015460ff166080820152600582015460a0820152600682015460c0820152600782015460e0820152600882015461ffff81166101008301526201000090046001600160a01b0316610120820152610c2990612862565b610c455760405162461bcd60e51b815260040161092c9061455b565b6040805161014081018252825481526001830154602082015260028301549181019190915260038201546060820152600482015460ff166080820152600582015460a0820152600682015460c0820152600782015460e0820152600882015461ffff81166101008301526201000090046001600160a01b0316610120820152600090610cd090611e84565b6013546040516340c10f1960e01b8152306004820152602481018390529192506001600160a01b0316906340c10f1990604401600060405180830381600087803b158015610d1d57600080fd5b505af1158015610d31573d6000803e3d6000fd5b50505050838260080160029054906101000a90046001600160a01b03166001600160a01b03167f6b26096245cbed98b81398e4df8ffea01dee3c4e46e21a4a91d0fbf60108df2c8460060154604051610d8c91815260200190565b60405180910390a380826007016000828254610da89190614604565b909155505042600283015560118054829190600090610dc8908490614604565b9091555050600160075550505050565b600d546001600160a01b03163314610e025760405162461bcd60e51b815260040161092c906144d5565b601b55565b600d546001600160a01b03163314610e315760405162461bcd60e51b815260040161092c906144d5565b601280546001600160a01b0319166001600160a01b0392909216919091179055565b600d546001600160a01b03163314610e7d5760405162461bcd60e51b815260040161092c906144d5565b8051610e90906017906020840190613d9f565b5050565b610e9e338261287f565b610eba5760405162461bcd60e51b815260040161092c9061450a565b610afd838383612976565b600082815260208181526040808320805482518185028101850190935280835284938493929190849084015b82821015610f4057600084815260209081902060408051808201909152908401546001600160a01b0381168252600160a01b90046001600160601b031681830152825260019092019101610ef1565b505050509050600081511115610fd55780600081518110610f7157634e487b7160e01b600052603260045260246000fd5b60200260200101516000015161271082600081518110610fa157634e487b7160e01b600052603260045260246000fd5b6020026020010151602001516001600160601b031686610fc1919061463c565b610fcb919061461c565b9250925050610fd7565b505b9250929050565b600260075414156110315760405162461bcd60e51b815260206004820152601f60248201527f5265656e7472616e637947756172643a207265656e7472616e742063616c6c00604482015260640161092c565b600260075561103e612728565b80611048816127ce565b60085460ff161561106b5760405162461bcd60e51b815260040161092c906144ab565b6000828152600e60209081526040918290208251610140810184528154815260018201549281019290925260028101549282019290925260038201546060820152600482015460ff166080820152600582015460a0820152600682015460c0820152600782015460e082015260089091015461ffff81166101008301526201000090046001600160a01b031661012082015261110681612862565b6111225760405162461bcd60e51b815260040161092c9061455b565b606081015142116111875760405162461bcd60e51b815260206004820152602960248201527f496d706f737369626c65207769746864726177206265666f72652074696d6520604482015268746f20756e6c6f636b60b81b606482015260840161092c565b6111928360006113fc565b60125461012082015160c08301516040516340c10f1960e01b81526001600160a01b03928316600482015260248101919091529116906340c10f1990604401600060405180830381600087803b1580156111eb57600080fd5b505af11580156111ff573d6000803e3d6000fd5b505060135460e0840151604051632770a7eb60e21b815230600482015260248101919091526001600160a01b039091169250639dc29fac9150604401600060405180830381600087803b15801561125557600080fd5b505af1158015611269573d6000803e3d6000fd5b5050505061127683612b1d565b828161012001516001600160a01b03167ff279e6a1f5e320cca91135676d9cb6e44ca8a08c0b88342bcdb1144f6511b5688360c001516040516112bb91815260200190565b60405180910390a38060c00151601060008282546112d9919061465b565b909155505060e0810151601180546000906112f590849061465b565b9250508190555061130e81608001518260c00151612b26565b50506000908152600e602052604081208181556001808201839055600282018390556003820183905560048201805460ff191690556005820183905560068201839055600780830193909355600890910180546001600160b01b03191690559055565b600d546001600160a01b0316331461139b5760405162461bcd60e51b815260040161092c906144d5565b81601982815481106113bd57634e487b7160e01b600052603260045260246000fd5b90600052602060002090600491828204019190066008026101000a81548167ffffffffffffffff021916908367ffffffffffffffff1602179055505050565b81611406816127ce565b60085460ff16156114295760405162461bcd60e51b815260040161092c906144ab565b60006114358484612b48565b90506000811161149a5760405162461bcd60e51b815260206004820152602a60248201527f596f75206d757374207761697420756e74696c20796f752063616e20636f6d7060448201526937bab7321030b3b0b4b760b11b606482015260840161092c565b604051818152849033907f0e311a2c6dbfb0153ec3a8a5bdca09070b3e5f60768fdc10a20453f38d1868739060200160405180910390a350505050565b60006114e283611d1b565b82106115445760405162461bcd60e51b815260206004820152602b60248201527f455243373231456e756d657261626c653a206f776e657220696e646578206f7560448201526a74206f6620626f756e647360a81b606482015260840161092c565b506001600160a01b03821660009081526009602090815260408083208484529091529020545b92915050565b600d546001600160a01b0316331461159a5760405162461bcd60e51b815260040161092c906144d5565b81601882815481106115bc57634e487b7160e01b600052603260045260246000fd5b90600052602060002090602091828204019190066101000a81548160ff021916908360ff1602179055505050565b6000818152600e602090815260408083208151610140810183528154815260018201549381019390935260028101549183019190915260038101546060830152600481015460ff166080830152600581015460a0830152600681015460c0830152600781015460e0830152600881015461ffff81166101008401526201000090046001600160a01b0316610120830152829161168590612d47565b6040805161014081018252835481526001840154602082015260028401549181019190915260038301546060820152600483015460ff166080820152600583015460a0820152600683015460c0820152600783015460e0820152600883015461ffff81166101008301526201000090046001600160a01b031661012082015290935061171090611e84565b915050915091565b6000818152600e602090815260408083208151610140810183528154815260018201549381019390935260028101549183019190915260038101546060830152600481015460ff166080830152600581015460a0830152600681015460c0830152600781015460e08301526008015461ffff81166101008301526201000090046001600160a01b03166101208201526117ae4290565b8160a00151116117c257600191505061086b565b600091505061086b565b50919050565b610afd83838360405180602001604052806000815250612343565b60006117f8600b5490565b821061185b5760405162461bcd60e51b815260206004820152602c60248201527f455243373231456e756d657261626c653a20676c6f62616c20696e646578206f60448201526b7574206f6620626f756e647360a01b606482015260840161092c565b600b828154811061187c57634e487b7160e01b600052603260045260246000fd5b90600052602060002001549050919050565b3233146118dd5760405162461bcd60e51b815260206004820152601e60248201527f5468652063616c6c657220697320616e6f7468657220636f6e74726163740000604482015260640161092c565b806118e781612dee565b6119335760405162461bcd60e51b815260206004820152601860248201527f536f72727920756e6b6e6f776e206d6f6e7468206c6f636b0000000000000000604482015260640161092c565b60085460ff16156119565760405162461bcd60e51b815260040161092c906144ab565b6000336012546040516370a0823160e01b81526001600160a01b0380841660048301529293509116906370a082319060240160206040518083038186803b1580156119a057600080fd5b505afa1580156119b4573d6000803e3d6000fd5b505050506040513d601f19601f820116820180604052508101906119d8919061427a565b841115611a275760405162461bcd60e51b815260206004820152601860248201527f596f75722062616c616e6365202452474e20746f206c6f770000000000000000604482015260640161092c565b611a318484612e68565b611a7d5760405162461bcd60e51b815260206004820152601860248201527f416c6c6f636174696f6e206c696d697420726561636865640000000000000000604482015260640161092c565b601254604051632770a7eb60e21b81526001600160a01b0383811660048301526024820187905290911690639dc29fac90604401600060405180830381600087803b158015611acb57600080fd5b505af1158015611adf573d6000803e3d6000fd5b505050508360106000828254611af59190614604565b9091555050600f805460010190556000611b0e600f5490565b9050611b1a8486613011565b604051806101400160405280611b2f600f5490565b8152602001428152602001428152602001611b4986612dee565b611b539042614604565b81526020018560ff168152602001601b54611b6b4290565b611b759190614604565b815260208082018890526000604080840182905260608085018390526001600160a01b038c8116608096870152878452600e8552928290208651815593860151600185015590850151600284015584015160038301559183015160048201805460ff191660ff90921691909117905560a0830151600582015560c0830151600682015560e08301516007820155610100830151600890910180546101209094015161ffff1990941661ffff9092169190911762010000600160b01b031916620100009390921692909202179055611c4c8682613033565b611c58816101f461304d565b80866001600160a01b03167f278b0fd0170e87df8d6e9c94b47d3ff7382de693c547e6089b53f9972c53238987604051611c9491815260200190565b60405180910390a3505050505050565b6000818152600360205260408120546001600160a01b0316806108685760405162461bcd60e51b815260206004820152602960248201527f4552433732313a206f776e657220717565727920666f72206e6f6e657869737460448201526832b73a103a37b5b2b760b91b606482015260840161092c565b60006001600160a01b038216611d865760405162461bcd60e51b815260206004820152602a60248201527f4552433732313a2062616c616e636520717565727920666f7220746865207a65604482015269726f206164647265737360b01b606482015260840161092c565b506001600160a01b031660009081526004602052604090205490565b600d546001600160a01b03163314611dcc5760405162461bcd60e51b815260040161092c906144d5565b601380546001600160a01b0319166001600160a01b0392909216919091179055565b600d546001600160a01b03163314611e185760405162461bcd60e51b815260040161092c906144d5565b611e22600061311b565b565b600080805b600f548111611e7d576000818152600e60205260409020600801546001600160a01b0385811662010000909204161415611e6b5781611e67816146d3565b9250505b80611e75816146f5565b915050611e29565b5092915050565b600080600090506000670de0b6b3a76400008460c00151611ea5919061461c565b6019611eb7866080015160ff1661316d565b60ff1681548110611ed857634e487b7160e01b600052603260045260246000fd5b90600052602060002090600491828204019190066008029054906101000a900467ffffffffffffffff1667ffffffffffffffff16611f16919061463c565b905060006064611f298660800151612dee565b611f3490601e61463c565b611f3e919061461c565b9050818560e0015110611f875760405162461bcd60e51b815260206004820152601160248201527026b0bc1033b2b732b930ba3290313933b760791b604482015260640161092c565b6000611f93828461461c565b90508560400151611fa14290565b1115611fcf5760008660400151611fb54290565b611fbf919061465b565b9050611fcb828261463c565b9450505b828660e0015185611fe09190614604565b1115611ff85760e0860151611ff5908461465b565b93505b5091949350505050565b60606002805461087f9061469e565b8161201b816127ce565b60085460ff161561203e5760405162461bcd60e51b815260040161092c906144ab565b600082116120875760405162461bcd60e51b81526020600482015260166024820152751491d388199d5b991cc81a5b9cdd59999a58da595b9d60521b604482015260640161092c565b6000838152600e60209081526040918290208251610140810184528154815260018201549281019290925260028101549282019290925260038201546060820152600482015460ff166080820152600582015460a0820152600682015460c0820152600782015460e0820152600882015461ffff81166101008301526201000090046001600160a01b031661012082015261212190612862565b61213d5760405162461bcd60e51b815260040161092c9061455b565b600033601254604051632770a7eb60e21b81526001600160a01b03808416600483015260248201889052929350911690639dc29fac90604401600060405180830381600087803b15801561219057600080fd5b505af11580156121a4573d6000803e3d6000fd5b50505050838260060160008282546121bc9190614604565b909155505042600283015560048201546121d99060ff1685613011565b81546040518591906001600160a01b038416907f95e3437dd8ba0917dafa24cca906f3d48785c2c7fe6f8f41acd8cfb25b938bb990600090a45050505050565b610e903383836131eb565b6000612230838361287f565b9392505050565b60606000612244600f5490565b9050600061225184611e24565b61ffff16905060008167ffffffffffffffff81111561228057634e487b7160e01b600052604160045260246000fd5b6040519080825280602002602001820160405280156122a9578160200160208202803683370190505b5090506000805b848111612338576000818152600e60205260409020600801546001600160a01b0388811662010000909204161415612326578083838151811061230357634e487b7160e01b600052603260045260246000fd5b63ffffffff9092166020928302919091019091015281612322816146f5565b9250505b80612330816146f5565b9150506122b0565b509095945050505050565b61234d338361287f565b6123695760405162461bcd60e51b815260040161092c9061450a565b612375848484846132ba565b50505050565b6000818152600e6020908152604091829020825161014081018452815480825260018301549382019390935260028201549381019390935260038101546060848101829052600483015460ff1660808601819052600584015460a0870152600684015460c08701819052600785015460e0880181905260089095015461ffff81166101008901526001600160a01b0362010000909104811661012089015260145493979693169463122aa2d59491939192909161243788612d47565b61244089611e84565b6124498c6132ed565b6040516001600160e01b031960e08b901b16815260048101989098526024880196909652604487019490945260ff9092166064860152608485015260a484015260c483015260e48201526101040160006040518083038186803b1580156124af57600080fd5b505afa1580156124c3573d6000803e3d6000fd5b505050506040513d6000823e601f3d908101601f191682016040526122309190810190614155565b600d546001600160a01b031633146125155760405162461bcd60e51b815260040161092c906144d5565b60ff82166000908152601660205260408120829055601d805483929061253c908490614604565b90915550505050565b600d546001600160a01b0316331461256f5760405162461bcd60e51b815260040161092c906144d5565b6001600160a01b0381166125d45760405162461bcd60e51b815260206004820152602660248201527f4f776e61626c653a206e6577206f776e657220697320746865207a65726f206160448201526564647265737360d01b606482015260840161092c565b6125dd8161311b565b50565b600081815260208181526040808320805482518185028101850190935280835260609492939192909184015b8282101561265b57600084815260209081902060408051808201909152908401546001600160a01b0381168252600160a01b90046001600160601b03168183015282526001909201910161260c565b505050509050919050565b600d546001600160a01b031633146126905760405162461bcd60e51b815260040161092c906144d5565b601c55565b60006001600160e01b0319821663780e9d6360e01b1480610868575061086882613429565b600081815260056020526040902080546001600160a01b0319166001600160a01b03841690811790915581906126ef82611ca4565b6001600160a01b03167f8c5be1e5ebec7d5bd14f71427d1e84f3dd0314c0f7b2291e5b200ac8c7c3b92560405160405180910390a45050565b33806127765760405162461bcd60e51b815260206004820152601f60248201527f43616e6e6f742062652066726f6d20746865207a65726f206164647265737300604482015260640161092c565b600061278182611d1b565b116125dd5760405162461bcd60e51b815260206004820152601c60248201527f4e6f204e6674206f776e65642062792074686973206163636f756e7400000000604482015260640161092c565b336127d882613479565b61281d5760405162461bcd60e51b8152602060048201526016602482015275151a1a5cc81b999d08191bd95cdb89dd08195e1a5cdd60521b604482015260640161092c565b6128278183612224565b610e905760405162461bcd60e51b815260206004820152600c60248201526b2737ba1030b71037bbb732b960a11b604482015260640161092c565b6000601a5482604001516128769190614604565b42101592915050565b6000818152600360205260408120546001600160a01b03166128f85760405162461bcd60e51b815260206004820152602c60248201527f4552433732313a206f70657261746f7220717565727920666f72206e6f6e657860448201526b34b9ba32b73a103a37b5b2b760a11b606482015260840161092c565b600061290383611ca4565b9050806001600160a01b0316846001600160a01b0316148061293e5750836001600160a01b031661293384610957565b6001600160a01b0316145b8061296e57506001600160a01b0380821660009081526006602090815260408083209388168352929052205460ff165b949350505050565b826001600160a01b031661298982611ca4565b6001600160a01b0316146129ed5760405162461bcd60e51b815260206004820152602560248201527f4552433732313a207472616e736665722066726f6d20696e636f72726563742060448201526437bbb732b960d91b606482015260840161092c565b6001600160a01b038216612a4f5760405162461bcd60e51b8152602060048201526024808201527f4552433732313a207472616e7366657220746f20746865207a65726f206164646044820152637265737360e01b606482015260840161092c565b612a5a8383836134e9565b612a656000826126ba565b6001600160a01b0383166000908152600460205260408120805460019290612a8e90849061465b565b90915550506001600160a01b0382166000908152600460205260408120805460019290612abc908490614604565b909155505060008181526003602052604080822080546001600160a01b0319166001600160a01b0386811691821790925591518493918716917fddf252ad1be2c89b69c2b068fc378daa952ba7f163c4a11628f55a4df523b3ef91a4610afd565b6125dd81613549565b60ff82166000908152601560205260408120805483929061253c90849061465b565b6000828152600e602090815260408083208151610140810183528154815260018201549381019390935260028101549183019190915260038101546060830152600481015460ff166080830152600581015460a0830152600681015460c0830152600781015460e0830152600881015461ffff81166101008401526201000090046001600160a01b031661012083015290612be290612862565b612bf057600091505061156a565b6040805161014081018252825481526001830154602082015260028301549181019190915260038201546060820152600482015460ff166080820152600582015460a0820152600682015460c0820152600782015460e0820152600882015461ffff81166101008301526201000090046001600160a01b0316610120820152600090612c7b90612d47565b9050801561296e5742600283015583612d035760125460088301546040516340c10f1960e01b81526001600160a01b036201000090920482166004820152602481018490529116906340c10f1990604401600060405180830381600087803b158015612ce657600080fd5b505af1158015612cfa573d6000803e3d6000fd5b5050505061296e565b8060106000828254612d159190614604565b9250508190555080826006016000828254612d309190614604565b9091555050600482015461296e9060ff1682613011565b604081015160009081904211156108685760008360400151612d664290565b612d70919061465b565b601d54608086015160ff16600090815260166020526040812054601c549394509092612d9c908561463c565b612da6919061463c565b612db0919061461c565b9050600060105482612dc2919061461c565b905064e8d4a51000818760c00151612dda919061463c565b612de4919061461c565b9695505050505050565b60008160ff1660121415612e0757506302d24bd061086b565b8160ff16600c1415612e1e57506301e187e061086b565b8160ff1660061415612e34575062f0c3f061086b565b8160ff1660031415612e4a5750627861f861086b565b8160ff1660011415612e605750622820a861086b565b50600061086b565b600082612ea35760405162461bcd60e51b815260206004820152600960248201526802452474e20697320360bc1b604482015260640161092c565b6000612eb18360ff1661316d565b90508060ff1660641415612efd5760405162461bcd60e51b81526020600482015260136024820152720dadedce8d0e640c8de40dcdee840dac2e8c6d606b1b604482015260640161092c565b6000606460188360ff1681548110612f2557634e487b7160e01b600052603260045260246000fd5b60009182526020918290208282040154601254604080516318160ddd60e01b81529051601f9094166101000a90920460ff16936001600160a01b03909116926318160ddd926004808201939291829003018186803b158015612f8657600080fd5b505afa158015612f9a573d6000803e3d6000fd5b505050506040513d601f19601f82011682018060405250810190612fbe919061427a565b612fc8919061463c565b612fd2919061461c565b60ff83166000908152601560205260409020549091508190612ff5908790614604565b10156130065760019250505061156a565b60009250505061156a565b60ff82166000908152601560205260408120805483929061253c908490614604565b610e908282604051806020016040528060008152506135f1565b604080516001808252818301909252600091816020015b604080518082019091526000808252602082015281526020019060019003908161306457905050905081816000815181106130af57634e487b7160e01b600052603260045260246000fd5b6020908102919091018101516001600160601b03909216910152601e5481516001600160a01b039091169082906000906130f957634e487b7160e01b600052603260045260246000fd5b60209081029190910101516001600160a01b039091169052610afd8382613624565b600d80546001600160a01b038381166001600160a01b0319831681179093556040519116919082907f8be0079c531659141344cd1fd0a4f28419497f9722a3daafe3b4186f6b6457e090600090a35050565b6000805b60175460ff821610156131e2578260178260ff16815481106131a357634e487b7160e01b600052603260045260246000fd5b60009182526020918290209181049091015460ff601f9092166101000a90041614156131d057905061086b565b806131da81614710565b915050613171565b50606492915050565b816001600160a01b0316836001600160a01b0316141561324d5760405162461bcd60e51b815260206004820152601960248201527f4552433732313a20617070726f766520746f2063616c6c657200000000000000604482015260640161092c565b6001600160a01b03838116600081815260066020908152604080832094871680845294825291829020805460ff191686151590811790915591519182527f17307eab39ab6107e8899845ad3d59bd9653f200f220920489ca2b5937696c31910160405180910390a3505050565b6132c5848484612976565b6132d18484848461388f565b6123755760405162461bcd60e51b815260040161092c90614459565b6000818152600e6020908152604080832081516101408101835281548152600182015493810193909352600281015491830182905260038101546060840152600481015460ff166080840152600581015460a0840152600681015460c0840152600781015460e08401526008015461ffff81166101008401526201000090046001600160a01b031661012083015282906133844290565b111561340757601d54608083015160ff16600090815260166020526040812054601c546301e187e09391906133b9908561463c565b6133c3919061463c565b6133cd919061461c565b90506000601054826133df919061461c565b905064e8d4a51000818660c001516133f7919061463c565b613401919061461c565b93505050505b670de0b6b3a76400008260c0015161341f919061461c565b61296e908261461c565b60006001600160e01b031982166380ac58cd60e01b148061345a57506001600160e01b03198216635b5e139f60e01b145b8061086857506301ffc9a760e01b6001600160e01b0319831614610868565b60008082116134ca5760405162461bcd60e51b815260206004820152601b60248201527f4964206d75737420626520686967686572207468616e207a65726f0000000000604482015260640161092c565b6000828152600360205260409020546001600160a01b03161515610868565b60085460ff161561350c5760405162461bcd60e51b815260040161092c906144ab565b6000818152600e6020526040902060088101805462010000600160b01b031916620100006001600160a01b0386160217905561237584848461399c565b600061355482611ca4565b9050613562816000846134e9565b61356d6000836126ba565b6001600160a01b038116600090815260046020526040812080546001929061359690849061465b565b909155505060008281526003602052604080822080546001600160a01b0319169055518391906001600160a01b038416907fddf252ad1be2c89b69c2b068fc378daa952ba7f163c4a11628f55a4df523b3ef908390a4610e90565b6135fb8383613a59565b613608600084848461388f565b610afd5760405162461bcd60e51b815260040161092c90614459565b6000805b82518110156138255760006001600160a01b031683828151811061365c57634e487b7160e01b600052603260045260246000fd5b6020026020010151600001516001600160a01b031614156136bf5760405162461bcd60e51b815260206004820152601b60248201527f526563697069656e742073686f756c642062652070726573656e740000000000604482015260640161092c565b8281815181106136df57634e487b7160e01b600052603260045260246000fd5b6020026020010151602001516001600160601b0316600014156137445760405162461bcd60e51b815260206004820181905260248201527f526f79616c74792076616c75652073686f756c6420626520706f736974697665604482015260640161092c565b82818151811061376457634e487b7160e01b600052603260045260246000fd5b6020026020010151602001516001600160601b0316826137849190614604565b91506000808581526020019081526020016000208382815181106137b857634e487b7160e01b600052603260045260246000fd5b602090810291909101810151825460018101845560009384529282902081519301805491909201516001600160601b0316600160a01b026001600160a01b039384166001600160a01b0319909216919091179092169190911790558061381d816146f5565b915050613628565b5061271081106138855760405162461bcd60e51b815260206004820152602560248201527f526f79616c747920746f74616c2076616c75652073686f756c64206265203c20604482015264031303030360dc1b606482015260840161092c565b610afd8383613ba8565b60006001600160a01b0384163b1561399157604051630a85bd0160e11b81526001600160a01b0385169063150b7a02906138d39033908990889088906004016143b6565b602060405180830381600087803b1580156138ed57600080fd5b505af192505050801561391d575060408051601f3d908101601f1916820190925261391a91810190614139565b60015b613977573d80801561394b576040519150601f19603f3d011682016040523d82523d6000602084013e613950565b606091505b50805161396f5760405162461bcd60e51b815260040161092c90614459565b805181602001fd5b6001600160e01b031916630a85bd0160e11b14905061296e565b506001949350505050565b6001600160a01b0383166139f7576139f281600b80546000838152600c60205260408120829055600182018355919091527f0175b7a638427703f0dbe7bb9bbf987a2551717b34e79f33b5b1008d1fa01db90155565b613a1a565b816001600160a01b0316836001600160a01b031614613a1a57613a1a8382613be5565b6001600160a01b038216613a3657613a3181613c82565b610afd565b826001600160a01b0316826001600160a01b031614610afd57610afd8282613d5b565b6001600160a01b038216613aaf5760405162461bcd60e51b815260206004820181905260248201527f4552433732313a206d696e7420746f20746865207a65726f2061646472657373604482015260640161092c565b6000818152600360205260409020546001600160a01b031615613b145760405162461bcd60e51b815260206004820152601c60248201527f4552433732313a20746f6b656e20616c7265616479206d696e74656400000000604482015260640161092c565b613b20600083836134e9565b6001600160a01b0382166000908152600460205260408120805460019290613b49908490614604565b909155505060008181526003602052604080822080546001600160a01b0319166001600160a01b03861690811790915590518392907fddf252ad1be2c89b69c2b068fc378daa952ba7f163c4a11628f55a4df523b3ef908290a4610e90565b7f3fa96d7b6bcbfe71ef171666d84db3cf52fa2d1c8afdb1cc8e486177f208b7df8282604051613bd9929190614592565b60405180910390a15050565b60006001613bf284611d1b565b613bfc919061465b565b6000838152600a6020526040902054909150808214613c4f576001600160a01b03841660009081526009602090815260408083208584528252808320548484528184208190558352600a90915290208190555b506000918252600a602090815260408084208490556001600160a01b039094168352600981528383209183525290812055565b600b54600090613c949060019061465b565b6000838152600c6020526040812054600b8054939450909284908110613cca57634e487b7160e01b600052603260045260246000fd5b9060005260206000200154905080600b8381548110613cf957634e487b7160e01b600052603260045260246000fd5b6000918252602080832090910192909255828152600c9091526040808220849055858252812055600b805480613d3f57634e487b7160e01b600052603160045260246000fd5b6001900381819060005260206000200160009055905550505050565b6000613d6683611d1b565b6001600160a01b0390931660009081526009602090815260408083208684528252808320859055938252600a9052919091209190915550565b82805482825590600052602060002090601f01602090048101928215613e355791602002820160005b83821115613e0657835183826101000a81548160ff021916908360ff1602179055509260200192600101602081600001049283019260010302613dc8565b8015613e335782816101000a81549060ff0219169055600101602081600001049283019260010302613e06565b505b50613e41929150613e45565b5090565b5b80821115613e415760008155600101613e46565b803561086b8161475c565b8035801515811461086b57600080fd5b803561ffff8116811461086b57600080fd5b803560ff8116811461086b57600080fd5b600060208284031215613ea9578081fd5b81356122308161475c565b60008060408385031215613ec6578081fd5b8235613ed18161475c565b91506020830135613ee18161475c565b809150509250929050565b600080600060608486031215613f00578081fd5b8335613f0b8161475c565b92506020840135613f1b8161475c565b929592945050506040919091013590565b60008060008060808587031215613f41578081fd5b8435613f4c8161475c565b93506020850135613f5c8161475c565b925060408501359150606085013567ffffffffffffffff811115613f7e578182fd5b8501601f81018713613f8e578182fd5b8035613fa1613f9c826145dc565b6145ab565b818152886020838501011115613fb5578384fd5b81602084016020830137908101602001929092525092959194509250565b60008060408385031215613fe5578182fd5b8235613ff08161475c565b9150613ffe60208401613e65565b90509250929050565b60008060408385031215614019578182fd5b82356140248161475c565b946020939093013593505050565b600080600060608486031215614046578081fd5b83356140518161475c565b92506020840135915061406660408501613e87565b90509250925092565b60006020808385031215614081578182fd5b823567ffffffffffffffff80821115614098578384fd5b818501915085601f8301126140ab578384fd5b8135818111156140bd576140bd614746565b83810291506140cd8483016145ab565b8181528481019084860184860187018a10156140e7578788fd5b8795505b83861015614110576140fc81613e87565b8352600195909501949186019186016140eb565b5098975050505050505050565b60006020828403121561412e578081fd5b813561223081614771565b60006020828403121561414a578081fd5b815161223081614771565b600060208284031215614166578081fd5b815167ffffffffffffffff81111561417c578182fd5b8201601f8101841361418c578182fd5b805161419a613f9c826145dc565b8181528560208385010111156141ae578384fd5b6141bf826020830160208601614672565b95945050505050565b60006101408083850312156141db578182fd5b6141e4816145ab565b90508235815260208301356020820152604083013560408201526060830135606082015261421460808401613e87565b608082015260a083013560a082015260c083013560c082015260e083013560e0820152610100614245818501613e75565b90820152610120614257848201613e5a565b908201529392505050565b600060208284031215614273578081fd5b5035919050565b60006020828403121561428b578081fd5b5051919050565b600080604083850312156142a4578182fd5b82359150613ffe60208401613e65565b600080604083850312156142c6578182fd5b50508035926020909101359150565b600080604083850312156142e7578182fd5b823567ffffffffffffffff81168114614024578283fd5b60006020828403121561430f578081fd5b61223082613e87565b6000806040838503121561432a578182fd5b61402483613e87565b6000815180845260208085019450808401835b8381101561437f57815180516001600160a01b031688528301516001600160601b03168388015260409096019590820190600101614346565b509495945050505050565b600081518084526143a2816020860160208601614672565b601f01601f19169290920160200192915050565b6001600160a01b0385811682528416602082015260408101839052608060608201819052600090612de49083018461438a565b6000602082526122306020830184614333565b6020808252825182820181905260009190848201906040850190845b8181101561443a57835163ffffffff1683529284019291840191600101614418565b50909695505050505050565b600060208252612230602083018461438a565b60208082526032908201527f4552433732313a207472616e7366657220746f206e6f6e20455243373231526560408201527131b2b4bb32b91034b6b83632b6b2b73a32b960711b606082015260800190565b60208082526010908201526f14185d5cd8589b194e881c185d5cd95960821b604082015260600190565b6020808252818101527f4f776e61626c653a2063616c6c6572206973206e6f7420746865206f776e6572604082015260600190565b60208082526031908201527f4552433732313a207472616e736665722063616c6c6572206973206e6f74206f6040820152701ddb995c881b9bdc88185c1c1c9bdd9959607a1b606082015260800190565b60208082526019908201527f536f7272792064656c6179206973206e6f742070617373656400000000000000604082015260600190565b60008382526040602083015261296e6040830184614333565b604051601f8201601f1916810167ffffffffffffffff811182821017156145d4576145d4614746565b604052919050565b600067ffffffffffffffff8211156145f6576145f6614746565b50601f01601f191660200190565b6000821982111561461757614617614730565b500190565b60008261463757634e487b7160e01b81526012600452602481fd5b500490565b600081600019048311821515161561465657614656614730565b500290565b60008282101561466d5761466d614730565b500390565b60005b8381101561468d578181015183820152602001614675565b838111156123755750506000910152565b6002810460018216806146b257607f821691505b602082108114156117cc57634e487b7160e01b600052602260045260246000fd5b600061ffff808316818114156146eb576146eb614730565b6001019392505050565b600060001982141561470957614709614730565b5060010190565b600060ff821660ff81141561472757614727614730565b60010192915050565b634e487b7160e01b600052601160045260246000fd5b634e487b7160e01b600052604160045260246000fd5b6001600160a01b03811681146125dd57600080fd5b6001600160e01b0319811681146125dd57600080fdfea2646970667358221220cf57c36c0b372e6fc9895e4abd7f8bfa7a31325708db9a2d7b24332348f7ecec64736f6c63430008020033",
  "linkReferences": {},
  "deployedLinkReferences": {}
}