{
  "_format": "hh-sol-artifact-1",
  "contractName": "VestedEscrow",
  "sourceName": "contracts/MainProtocol/VestedEscrow.sol",
  "abi": [
    {
      "inputs": [
        {
          "internalType": "address",
          "name": "rewardToken_",
          "type": "address"
        },
        {
          "internalType": "uint256",
          "name": "starttime_",
          "type": "uint256"
        },
        {
          "internalType": "uint256",
          "name": "endtime_",
          "type": "uint256"
        },
        {
          "internalType": "address",
          "name": "stakeContract_",
          "type": "address"
        },
        {
          "internalType": "address",
          "name": "fundAdmin_",
          "type": "address"
        }
      ],
      "stateMutability": "nonpayable",
      "type": "constructor"
    },
    {
      "anonymous": false,
      "inputs": [
        {
          "indexed": true,
          "internalType": "address",
          "name": "user",
          "type": "address"
        },
        {
          "indexed": false,
          "internalType": "uint256",
          "name": "amount",
          "type": "uint256"
        }
      ],
      "name": "Claim",
      "type": "event"
    },
    {
      "anonymous": false,
      "inputs": [
        {
          "indexed": true,
          "internalType": "address",
          "name": "recipient",
          "type": "address"
        },
        {
          "indexed": false,
          "internalType": "uint256",
          "name": "reward",
          "type": "uint256"
        }
      ],
      "name": "Fund",
      "type": "event"
    },
    {
      "inputs": [
        {
          "internalType": "uint256",
          "name": "_amount",
          "type": "uint256"
        }
      ],
      "name": "addTokens",
      "outputs": [
        {
          "internalType": "bool",
          "name": "",
          "type": "bool"
        }
      ],
      "stateMutability": "nonpayable",
      "type": "function"
    },
    {
      "inputs": [],
      "name": "admin",
      "outputs": [
        {
          "internalType": "address",
          "name": "",
          "type": "address"
        }
      ],
      "stateMutability": "view",
      "type": "function"
    },
    {
      "inputs": [
        {
          "internalType": "address",
          "name": "_recipient",
          "type": "address"
        }
      ],
      "name": "balanceOf",
      "outputs": [
        {
          "internalType": "uint256",
          "name": "",
          "type": "uint256"
        }
      ],
      "stateMutability": "view",
      "type": "function"
    },
    {
      "inputs": [
        {
          "internalType": "address",
          "name": "_recipient",
          "type": "address"
        }
      ],
      "name": "claim",
      "outputs": [],
      "stateMutability": "nonpayable",
      "type": "function"
    },
    {
      "inputs": [],
      "name": "claim",
      "outputs": [],
      "stateMutability": "nonpayable",
      "type": "function"
    },
    {
      "inputs": [],
      "name": "claimAndStake",
      "outputs": [],
      "stateMutability": "nonpayable",
      "type": "function"
    },
    {
      "inputs": [],
      "name": "endTime",
      "outputs": [
        {
          "internalType": "uint256",
          "name": "",
          "type": "uint256"
        }
      ],
      "stateMutability": "view",
      "type": "function"
    },
    {
      "inputs": [
        {
          "internalType": "uint256",
          "name": "",
          "type": "uint256"
        }
      ],
      "name": "extraRewards",
      "outputs": [
        {
          "internalType": "address",
          "name": "",
          "type": "address"
        }
      ],
      "stateMutability": "view",
      "type": "function"
    },
    {
      "inputs": [
        {
          "internalType": "address[]",
          "name": "_recipient",
          "type": "address[]"
        },
        {
          "internalType": "uint256[]",
          "name": "_amount",
          "type": "uint256[]"
        }
      ],
      "name": "fund",
      "outputs": [
        {
          "internalType": "bool",
          "name": "",
          "type": "bool"
        }
      ],
      "stateMutability": "nonpayable",
      "type": "function"
    },
    {
      "inputs": [],
      "name": "fundAdmin",
      "outputs": [
        {
          "internalType": "address",
          "name": "",
          "type": "address"
        }
      ],
      "stateMutability": "view",
      "type": "function"
    },
    {
      "inputs": [
        {
          "internalType": "address",
          "name": "",
          "type": "address"
        }
      ],
      "name": "initialLocked",
      "outputs": [
        {
          "internalType": "uint256",
          "name": "",
          "type": "uint256"
        }
      ],
      "stateMutability": "view",
      "type": "function"
    },
    {
      "inputs": [],
      "name": "initialLockedSupply",
      "outputs": [
        {
          "internalType": "uint256",
          "name": "",
          "type": "uint256"
        }
      ],
      "stateMutability": "view",
      "type": "function"
    },
    {
      "inputs": [
        {
          "internalType": "address",
          "name": "_recipient",
          "type": "address"
        }
      ],
      "name": "lockedOf",
      "outputs": [
        {
          "internalType": "uint256",
          "name": "",
          "type": "uint256"
        }
      ],
      "stateMutability": "view",
      "type": "function"
    },
    {
      "inputs": [],
      "name": "lockedSupply",
      "outputs": [
        {
          "internalType": "uint256",
          "name": "",
          "type": "uint256"
        }
      ],
      "stateMutability": "view",
      "type": "function"
    },
    {
      "inputs": [],
      "name": "rewardToken",
      "outputs": [
        {
          "internalType": "contract IERC20",
          "name": "",
          "type": "address"
        }
      ],
      "stateMutability": "view",
      "type": "function"
    },
    {
      "inputs": [
        {
          "internalType": "address",
          "name": "_admin",
          "type": "address"
        }
      ],
      "name": "setAdmin",
      "outputs": [],
      "stateMutability": "nonpayable",
      "type": "function"
    },
    {
      "inputs": [
        {
          "internalType": "address",
          "name": "_fundadmin",
          "type": "address"
        }
      ],
      "name": "setFundAdmin",
      "outputs": [],
      "stateMutability": "nonpayable",
      "type": "function"
    },
    {
      "inputs": [],
      "name": "stakeContract",
      "outputs": [
        {
          "internalType": "address",
          "name": "",
          "type": "address"
        }
      ],
      "stateMutability": "view",
      "type": "function"
    },
    {
      "inputs": [],
      "name": "startTime",
      "outputs": [
        {
          "internalType": "uint256",
          "name": "",
          "type": "uint256"
        }
      ],
      "stateMutability": "view",
      "type": "function"
    },
    {
      "inputs": [
        {
          "internalType": "address",
          "name": "",
          "type": "address"
        }
      ],
      "name": "totalClaimed",
      "outputs": [
        {
          "internalType": "uint256",
          "name": "",
          "type": "uint256"
        }
      ],
      "stateMutability": "view",
      "type": "function"
    },
    {
      "inputs": [],
      "name": "totalTime",
      "outputs": [
        {
          "internalType": "uint256",
          "name": "",
          "type": "uint256"
        }
      ],
      "stateMutability": "view",
      "type": "function"
    },
    {
      "inputs": [],
      "name": "unallocatedSupply",
      "outputs": [
        {
          "internalType": "uint256",
          "name": "",
          "type": "uint256"
        }
      ],
      "stateMutability": "view",
      "type": "function"
    },
    {
      "inputs": [
        {
          "internalType": "address",
          "name": "_recipient",
          "type": "address"
        }
      ],
      "name": "vestedOf",
      "outputs": [
        {
          "internalType": "uint256",
          "name": "",
          "type": "uint256"
        }
      ],
      "stateMutability": "view",
      "type": "function"
    },
    {
      "inputs": [],
      "name": "vestedSupply",
      "outputs": [
        {
          "internalType": "uint256",
          "name": "",
          "type": "uint256"
        }
      ],
      "stateMutability": "view",
      "type": "function"
    }
  ],
  "bytecode": "0x60806040523480156200001157600080fd5b50604051620014be380380620014be833981016040819052620000349162000196565b6001600055428410156200008f5760405162461bcd60e51b815260206004820152601460248201527f7374617274206d7573742062652066757475726500000000000000000000000060448201526064015b60405180910390fd5b838311620000e05760405162461bcd60e51b815260206004820152601360248201527f656e64206d757374206265206772656174657200000000000000000000000000604482015260640162000086565b600180546001600160a01b0319166001600160a01b038716179055600584905560068390556200011d838562000164602090811b6200080717901c565b600755600280546001600160a01b03199081163317909155600380546001600160a01b03938416908316179055600480549390921692169190911790555062000217915050565b6000620001728284620001f3565b9392505050565b80516001600160a01b03811681146200019157600080fd5b919050565b600080600080600060a08688031215620001ae578081fd5b620001b98662000179565b94506020860151935060408601519250620001d76060870162000179565b9150620001e76080870162000179565b90509295509295909350565b6000828210156200021257634e487b7160e01b81526011600452602481fd5b500390565b61129780620002276000396000f3fe608060405234801561001057600080fd5b50600436106101585760003560e01c80639c456583116100c3578063ca5c7b911161007c578063ca5c7b91146102c0578063cb1a4fc0146102c8578063d9844dc0146102d0578063ef5d9ae8146102d8578063f7c618c1146102f8578063f851a4401461030b57610158565b80639c45658314610248578063a5f1e2821461025b578063a96d1edc1461026e578063aa04ae7814610281578063b1e56f6b1461028a578063c6ed8990146102ad57610158565b806358533e0a1161011557806358533e0a146101f4578063704b6c02146101fd57806370a082311461021057806378e97925146102235780637d086b291461022c578063944771041461023557610158565b8063099d695f1461015d5780631a186227146101905780631e83409a146101bb5780633197cbb6146101d057806340c35446146101d95780634e71d92d146101ec575b600080fd5b61017d61016b366004610fe8565b600a6020526000908152604090205481565b6040519081526020015b60405180910390f35b6004546101a3906001600160a01b031681565b6040516001600160a01b039091168152602001610187565b6101ce6101c9366004610fe8565b61031e565b005b61017d60065481565b6101a36101e73660046110a9565b610415565b6101ce61043f565b61017d60075481565b6101ce61020b366004610fe8565b61044a565b61017d61021e366004610fe8565b610496565b61017d60055481565b61017d60085481565b61017d610243366004610fe8565b6104d1565b6003546101a3906001600160a01b031681565b61017d610269366004610fe8565b6104e3565b6101ce61027c366004610fe8565b610516565b61017d60095481565b61029d610298366004611020565b610562565b6040519015158152602001610187565b61029d6102bb3660046110a9565b61077b565b61017d6107d8565b6101ce6107f4565b61017d6107fd565b61017d6102e6366004610fe8565b600b6020526000908152604090205481565b6001546101a3906001600160a01b031681565b6002546101a3906001600160a01b031681565b6002600054141561034a5760405162461bcd60e51b815260040161034190611147565b60405180910390fd5b6002600090815561035b8242610813565b6001600160a01b0383166000908152600b602052604081205491925090610383908390610807565b6001600160a01b0384166000908152600b60205260409020549091506103a99082610881565b6001600160a01b038085166000908152600b60205260409020919091556001546103d59116848361088d565b60405181815233907f47cee97cb7acd717b3c0aa1435d004cd5b3c8c57d70dbceb4e4458bbd60e39d4906020015b60405180910390a25050600160005550565b600c818154811061042557600080fd5b6000918252602090912001546001600160a01b0316905081565b6104483361031e565b565b6002546001600160a01b031633146104745760405162461bcd60e51b815260040161034190611128565b600280546001600160a01b0319166001600160a01b0392909216919091179055565b6000806104a38342610813565b6001600160a01b0384166000908152600b60205260409020549091506104ca908290610807565b9392505050565b60006104dd8242610813565b92915050565b6000806104f08342610813565b6001600160a01b0384166000908152600a60205260409020549091506104ca9082610807565b6002546001600160a01b031633146105405760405162461bcd60e51b815260040161034190611128565b600380546001600160a01b0319166001600160a01b0392909216919091179055565b6000600260005414156105875760405162461bcd60e51b815260040161034190611147565b60026000556003546001600160a01b03163314806105af57506002546001600160a01b031633145b6105cb5760405162461bcd60e51b815260040161034190611128565b6000805b858110156107485760008585838181106105f957634e487b7160e01b600052603260045260246000fd5b90506020020135905061065f81600a60008b8b8781811061062a57634e487b7160e01b600052603260045260246000fd5b905060200201602081019061063f9190610fe8565b6001600160a01b0316815260208101919091526040016000205490610881565b600a60008a8a8681811061068357634e487b7160e01b600052603260045260246000fd5b90506020020160208101906106989190610fe8565b6001600160a01b031681526020810191909152604001600020556106bc8382610881565b92508787838181106106de57634e487b7160e01b600052603260045260246000fd5b90506020020160208101906106f39190610fe8565b6001600160a01b03167fda8220a878ff7a89474ccffdaa31ea1ed1ffbb0207d5051afccc4fbaf81f9bcd8260405161072d91815260200190565b60405180910390a2508061074081611218565b9150506105cf565b506008546107569082610881565b6008556009546107669082610807565b60095550600190506001600055949350505050565b6002546000906001600160a01b031633146107a85760405162461bcd60e51b815260040161034190611128565b6001546107c0906001600160a01b03163330856108f5565b6009546107cd9083610881565b600955506001919050565b60006107ee6107e5610933565b60085490610807565b90505b90565b6104483361097f565b60006107ee610933565b60006104ca82846111d5565b6000600554821015610827575060006104dd565b6001600160a01b0383166000908152600a6020526040812054600554909190610851908590610807565b90506000610877600754838561086791906111b6565b6108719190611196565b84610c12565b9695505050505050565b60006104ca828461117e565b6040516001600160a01b0383166024820152604481018290526108f090849063a9059cbb60e01b906064015b60408051601f198184030181529190526020810180516001600160e01b03166001600160e01b031990931692909217909152610c28565b505050565b6040516001600160a01b038085166024830152831660448201526064810182905261092d9085906323b872dd60e01b906084016108b9565b50505050565b600554600090429081101561094c5760009150506107f1565b600854600554600090610960908490610807565b90506000610976600754838561086791906111b6565b94505050505090565b600260005414156109a25760405162461bcd60e51b815260040161034190611147565b60026000556004546001600160a01b03166109f55760405162461bcd60e51b81526020600482015260136024820152721b9bc81cdd185ada5b99c818dbdb9d1c9858dd606a1b6044820152606401610341565b60015460048054604080516372f702f360e01b815290516001600160a01b0394851694909216926372f702f3928282019260209290829003018186803b158015610a3e57600080fd5b505afa158015610a52573d6000803e3d6000fd5b505050506040513d601f19601f82011682018060405250810190610a769190611004565b6001600160a01b031614610ac35760405162461bcd60e51b81526020600482015260146024820152730e6e8c2d6ca40e8ded6cadc40dad2e6dac2e8c6d60631b6044820152606401610341565b6000610acf8242610813565b6001600160a01b0383166000908152600b602052604081205491925090610af7908390610807565b6001600160a01b0384166000908152600b6020526040902054909150610b1d9082610881565b6001600160a01b038085166000908152600b6020526040812092909255600454600154610b5293908316929190911690610cfa565b600454600154610b6f916001600160a01b03918216911683610cfa565b600480546040516305dc812160e31b81526001600160a01b038681169382019390935260248101849052911690632ee4090890604401600060405180830381600087803b158015610bbf57600080fd5b505af1158015610bd3573d6000803e3d6000fd5b50505050826001600160a01b03167f47cee97cb7acd717b3c0aa1435d004cd5b3c8c57d70dbceb4e4458bbd60e39d48260405161040391815260200190565b6000818310610c2157816104ca565b5090919050565b6000610c7d826040518060400160405280602081526020017f5361666545524332303a206c6f772d6c6576656c2063616c6c206661696c6564815250856001600160a01b0316610e1e9092919063ffffffff16565b8051909150156108f05780806020019051810190610c9b9190611089565b6108f05760405162461bcd60e51b815260206004820152602a60248201527f5361666545524332303a204552433230206f7065726174696f6e20646964206e6044820152691bdd081cdd58d8d9595960b21b6064820152608401610341565b801580610d835750604051636eb1769f60e11b81523060048201526001600160a01b03838116602483015284169063dd62ed3e9060440160206040518083038186803b158015610d4957600080fd5b505afa158015610d5d573d6000803e3d6000fd5b505050506040513d601f19601f82011682018060405250810190610d8191906110c1565b155b610dee5760405162461bcd60e51b815260206004820152603660248201527f5361666545524332303a20617070726f76652066726f6d206e6f6e2d7a65726f60448201527520746f206e6f6e2d7a65726f20616c6c6f77616e636560501b6064820152608401610341565b6040516001600160a01b0383166024820152604481018290526108f090849063095ea7b360e01b906064016108b9565b6060610e2d8484600085610e35565b949350505050565b606082471015610e965760405162461bcd60e51b815260206004820152602660248201527f416464726573733a20696e73756666696369656e742062616c616e636520666f6044820152651c8818d85b1b60d21b6064820152608401610341565b6001600160a01b0385163b610eed5760405162461bcd60e51b815260206004820152601d60248201527f416464726573733a2063616c6c20746f206e6f6e2d636f6e74726163740000006044820152606401610341565b600080866001600160a01b03168587604051610f0991906110d9565b60006040518083038185875af1925050503d8060008114610f46576040519150601f19603f3d011682016040523d82523d6000602084013e610f4b565b606091505b5091509150610f5b828286610f66565b979650505050505050565b60608315610f755750816104ca565b825115610f855782518084602001fd5b8160405162461bcd60e51b815260040161034191906110f5565b60008083601f840112610fb0578182fd5b50813567ffffffffffffffff811115610fc7578182fd5b6020830191508360208083028501011115610fe157600080fd5b9250929050565b600060208284031215610ff9578081fd5b81356104ca81611249565b600060208284031215611015578081fd5b81516104ca81611249565b60008060008060408587031215611035578283fd5b843567ffffffffffffffff8082111561104c578485fd5b61105888838901610f9f565b90965094506020870135915080821115611070578384fd5b5061107d87828801610f9f565b95989497509550505050565b60006020828403121561109a578081fd5b815180151581146104ca578182fd5b6000602082840312156110ba578081fd5b5035919050565b6000602082840312156110d2578081fd5b5051919050565b600082516110eb8184602087016111ec565b9190910192915050565b60006020825282518060208401526111148160408501602087016111ec565b601f01601f19169190910160400192915050565b602080825260059082015264042c2eae8d60db1b604082015260600190565b6020808252601f908201527f5265656e7472616e637947756172643a207265656e7472616e742063616c6c00604082015260600190565b6000821982111561119157611191611233565b500190565b6000826111b157634e487b7160e01b81526012600452602481fd5b500490565b60008160001904831182151516156111d0576111d0611233565b500290565b6000828210156111e7576111e7611233565b500390565b60005b838110156112075781810151838201526020016111ef565b8381111561092d5750506000910152565b600060001982141561122c5761122c611233565b5060010190565b634e487b7160e01b600052601160045260246000fd5b6001600160a01b038116811461125e57600080fd5b5056fea26469706673582212209beda7366fa17a10e7b95fa24c66060b54bceba8d239d3c77160850cbdb48b1564736f6c63430008020033",
  "linkReferences": {},
  "deployedLinkReferences": {}
}