{
  "_format": "hh-sol-artifact-1",
  "contractName": "storageSVG",
  "sourceName": "contracts/NFT/SvgStorage.sol",
  "abi": [
    {
      "inputs": [],
      "stateMutability": "nonpayable",
      "type": "constructor"
    },
    {
      "anonymous": false,
      "inputs": [
        {
          "indexed": true,
          "internalType": "address",
          "name": "previousOwner",
          "type": "address"
        },
        {
          "indexed": true,
          "internalType": "address",
          "name": "newOwner",
          "type": "address"
        }
      ],
      "name": "OwnershipTransferred",
      "type": "event"
    },
    {
      "inputs": [
        {
          "internalType": "uint256",
          "name": "pid",
          "type": "uint256"
        },
        {
          "internalType": "string",
          "name": "draw",
          "type": "string"
        }
      ],
      "name": "addData",
      "outputs": [],
      "stateMutability": "nonpayable",
      "type": "function"
    },
    {
      "inputs": [],
      "name": "owner",
      "outputs": [
        {
          "internalType": "address",
          "name": "",
          "type": "address"
        }
      ],
      "stateMutability": "view",
      "type": "function"
    },
    {
      "inputs": [
        {
          "internalType": "uint256",
          "name": "",
          "type": "uint256"
        }
      ],
      "name": "paths",
      "outputs": [
        {
          "internalType": "string",
          "name": "",
          "type": "string"
        }
      ],
      "stateMutability": "view",
      "type": "function"
    },
    {
      "inputs": [],
      "name": "renounceOwnership",
      "outputs": [],
      "stateMutability": "nonpayable",
      "type": "function"
    },
    {
      "inputs": [
        {
          "internalType": "uint256",
          "name": "amountRgn",
          "type": "uint256"
        },
        {
          "internalType": "uint256",
          "name": "time",
          "type": "uint256"
        },
        {
          "internalType": "uint256",
          "name": "apr",
          "type": "uint256"
        },
        {
          "internalType": "uint256",
          "name": "bRgn",
          "type": "uint256"
        },
        {
          "internalType": "uint8",
          "name": "month",
          "type": "uint8"
        }
      ],
      "name": "returnSVG",
      "outputs": [
        {
          "internalType": "string",
          "name": "",
          "type": "string"
        }
      ],
      "stateMutability": "view",
      "type": "function"
    },
    {
      "inputs": [
        {
          "internalType": "contract RGNLOCK",
          "name": "_rgnLock",
          "type": "address"
        }
      ],
      "name": "setRgnLock",
      "outputs": [],
      "stateMutability": "nonpayable",
      "type": "function"
    },
    {
      "inputs": [
        {
          "internalType": "bool",
          "name": "exists",
          "type": "bool"
        },
        {
          "internalType": "uint256",
          "name": "RgnLock",
          "type": "uint256"
        },
        {
          "internalType": "uint256",
          "name": "timeToLock",
          "type": "uint256"
        },
        {
          "internalType": "uint256",
          "name": "BRgnLock",
          "type": "uint256"
        },
        {
          "internalType": "uint8",
          "name": "monthLock",
          "type": "uint8"
        },
        {
          "internalType": "uint256",
          "name": "id",
          "type": "uint256"
        }
      ],
      "name": "tokenURI",
      "outputs": [
        {
          "internalType": "string",
          "name": "",
          "type": "string"
        }
      ],
      "stateMutability": "view",
      "type": "function"
    },
    {
      "inputs": [
        {
          "internalType": "address",
          "name": "newOwner",
          "type": "address"
        }
      ],
      "name": "transferOwnership",
      "outputs": [],
      "stateMutability": "nonpayable",
      "type": "function"
    }
  ],
  "bytecode": "0x608060405234801561001057600080fd5b5061001a3361001f565b61006f565b600080546001600160a01b038381166001600160a01b0319831681178455604051919092169283917f8be0079c531659141344cd1fd0a4f28419497f9722a3daafe3b4186f6b6457e09190a35050565b6114078061007e6000396000f3fe608060405234801561001057600080fd5b50600436106100785760003560e01c80630dd05e081461007d57806342413315146100925780635d3e18ee146100a5578063715018a6146100ce5780638da5cb5b146100d6578063c5761b88146100f6578063f2fde38b14610109578063fc1bcd491461011c575b600080fd5b61009061008b366004610c4f565b61012f565b005b6100906100a0366004610ce7565b610189565b6100b86100b3366004610c72565b6101dc565b6040516100c591906111cf565b60405180910390f35b6100906102fc565b6100de610337565b6040516001600160a01b0390911681526020016100c5565b6100b8610104366004610d9d565b610346565b610090610117366004610c4f565b61058f565b6100b861012a366004610ccf565b61062f565b33610138610337565b6001600160a01b0316146101675760405162461bcd60e51b815260040161015e90611202565b60405180910390fd5b600280546001600160a01b0319166001600160a01b0392909216919091179055565b33610192610337565b6001600160a01b0316146101b85760405162461bcd60e51b815260040161015e90611202565b600082815260016020908152604090912082516101d792840190610ba5565b505050565b6060866102435760405162461bcd60e51b815260206004820152602f60248201527f4552433732314d657461646174613a2055524920717565727920666f72206e6f60448201526e3732bc34b9ba32b73a103a37b5b2b760891b606482015260840161015e565b6000610253878760328888610346565b90506000610260886106c9565b610269876106c9565b60405160200161027a929190610fe0565b604051602081830303815290604052905060006102cb610299866106c9565b6102a2876106c9565b85856040516020016102b7949392919061109f565b604051602081830303815290604052610811565b9050806040516020016102de919061118a565b60405160208183030381529060405293505050509695505050505050565b33610305610337565b6001600160a01b03161461032b5760405162461bcd60e51b815260040161015e90611202565b6103356000610988565b565b6000546001600160a01b031690565b60408051808201909152601a81527f646174613a696d6167652f7376672b786d6c3b6261736536342c00000000000060208083019190915260008080526001909152606091907fa6eef7e35abe7026729641147f7915573c7e97b47efa546f5f6e3230263bcb496103b6856109d8565b600160008190526020527fcc69885fda6bcc1a4ace058b4a62bf5e179ea78fd58a1ccd71c22cc9b688792f6103ea8a6106c9565b600260005260016020527fd9d16d34ffb15ba3a3d852f0d403e2ce1d691fb54de27ac87cd2f993f3ec330f61041e8d6106c9565b60405160200161043396959493929190610f79565b60408051601f19818403018152919052600360009081526001602052909150817f7dfe757ecd65cbd7922a9c0161e935dd7fdbcc0e999689c7d31633896b1fc60b61047d886106c9565b600460005260016020527fedc95719e9a3b28dd8e80877cb5880a9be7de1a13fc8b05e7999683b6b5676436104b189610abe565b6001602090815260076000526040516105359695949392917fe2689cd4a84e23ad2f564004f1c9013e9589d260bde6380aba3ca7e09e4df40c917f8f331abe73332f95a25873e8b430885974c0409691f89d643119a11623a7924a917fdc686ec4a0ff239c70e7c7c36e8f853eced3bc8618f48d2b816da2a74311237e9101610ee4565b6040516020818303038152906040529050600061055c826040516020016102b79190610e99565b90508381604051602001610571929190610eb5565b60405160208183030381529060405294505050505095945050505050565b33610598610337565b6001600160a01b0316146105be5760405162461bcd60e51b815260040161015e90611202565b6001600160a01b0381166106235760405162461bcd60e51b815260206004820152602660248201527f4f776e61626c653a206e6577206f776e657220697320746865207a65726f206160448201526564647265737360d01b606482015260840161015e565b61062c81610988565b50565b60016020526000908152604090208054610648906112fa565b80601f0160208091040260200160405190810160405280929190818152602001828054610674906112fa565b80156106c15780601f10610696576101008083540402835291602001916106c1565b820191906000526020600020905b8154815290600101906020018083116106a457829003601f168201915b505050505081565b6060816106ee57506040805180820190915260018152600360fc1b602082015261080c565b8160005b8115610718578061070281611335565b91506107119050600a83611274565b91506106f2565b60008167ffffffffffffffff81111561074157634e487b7160e01b600052604160045260246000fd5b6040519080825280601f01601f19166020018201604052801561076b576020820181803683370190505b509050815b8515610806576107816001826112b3565b90506000610790600a88611274565b61079b90600a611294565b6107a590886112b3565b6107b090603061124f565b905060008160f81b9050808484815181106107db57634e487b7160e01b600052603260045260246000fd5b60200101906001600160f81b031916908160001a9053506107fd600a89611274565b97505050610770565b50925050505b919050565b6060815160001415610832575060408051602081019091526000815261080c565b600060405180606001604052806040815260200161139260409139905060006003845160026108619190611237565b61086b9190611274565b610876906004611294565b90506000610885826020611237565b67ffffffffffffffff8111156108ab57634e487b7160e01b600052604160045260246000fd5b6040519080825280601f01601f1916602001820160405280156108d5576020820181803683370190505b509050818152600183018586518101602084015b818310156109435760039283018051603f601282901c811687015160f890811b8552600c83901c8216880151811b6001860152600683901c8216880151811b60028601529116860151901b938201939093526004016108e9565b60038951066001811461095d576002811461096e5761097a565b613d3d60f01b60011983015261097a565b603d60f81b6000198301525b509398975050505050505050565b600080546001600160a01b038381166001600160a01b0319831681178455604051919092169283917f8be0079c531659141344cd1fd0a4f28419497f9722a3daafe3b4186f6b6457e09190a35050565b60608160ff1660061415610a0a57506040805180820190915260078152660234445373635360cc1b602082015261080c565b8160ff16600c1415610a3a57506040805180820190915260078152662336443835394360c81b602082015261080c565b8160ff1660181415610a6a57506040805180820190915260078152662335303642374560c81b602082015261080c565b8160ff1660241415610a9a57506040805180820190915260078152662332333237324360c81b602082015261080c565b506040805180820190915260078152662336423638353760c81b602082015261080c565b60608160ff1660061415610af1575060408051808201909152600881526736206d6f6e74687360c01b602082015261080c565b8160ff16600c1415610b20575060408051808201909152600681526518903cb2b0b960d11b602082015261080c565b8160ff1660181415610b5057506040805180820190915260078152663220796561727360c81b602082015261080c565b8160ff1660241415610b8057506040805180820190915260078152663320796561727360c81b602082015261080c565b5060408051808201909152600881526733206d6f6e74687360c01b602082015261080c565b828054610bb1906112fa565b90600052602060002090601f016020900481019282610bd35760008555610c19565b82601f10610bec57805160ff1916838001178555610c19565b82800160010185558215610c19579182015b82811115610c19578251825591602001919060010190610bfe565b50610c25929150610c29565b5090565b5b80821115610c255760008155600101610c2a565b803560ff8116811461080c57600080fd5b600060208284031215610c60578081fd5b8135610c6b8161137c565b9392505050565b60008060008060008060c08789031215610c8a578182fd5b86358015158114610c99578283fd5b9550602087013594506040870135935060608701359250610cbc60808801610c3e565b915060a087013590509295509295509295565b600060208284031215610ce0578081fd5b5035919050565b60008060408385031215610cf9578182fd5b82359150602083013567ffffffffffffffff80821115610d17578283fd5b818501915085601f830112610d2a578283fd5b813581811115610d3c57610d3c611366565b604051601f8201601f19908116603f01168101908382118183101715610d6457610d64611366565b81604052828152886020848701011115610d7c578586fd5b82602086016020830137856020848301015280955050505050509250929050565b600080600080600060a08688031215610db4578081fd5b85359450602086013593506040860135925060608601359150610dd960808701610c3e565b90509295509295909350565b60008151610df78185602086016112ca565b9290920192915050565b805460009060028104600180831680610e1b57607f831692505b6020808410821415610e3b57634e487b7160e01b86526022600452602486fd5b818015610e4f5760018114610e6057610e8d565b60ff19861689528489019650610e8d565b60008881526020902060005b86811015610e855781548b820152908501908301610e6c565b505084890196505b50505050505092915050565b60008251610eab8184602087016112ca565b9190910192915050565b60008351610ec78184602088016112ca565b835190830190610edb8183602088016112ca565b01949350505050565b60008951610ef6818460208e016112ca565b610f028184018b610e01565b90508851610f14818360208d016112ca565b610f208183018a610e01565b9150508651610f33818360208b016112ca565b610f3f81830188610e01565b9150506b031b7b6b4b7339039b7b7b7160a51b8152610f6a610f64600c830187610e01565b85610e01565b9b9a5050505050505050505050565b6000610f858289610e01565b8751610f95818360208c016112ca565b610fa181830189610e01565b9150508551610fb4818360208a016112ca565b610fc081830187610e01565b9150508351610fd38183602088016112ca565b0198975050505050505050565b60007f2261747472696275746573223a5b7b2274726169745f74797065223a2252474e825266081b1bd8dad95960ca1b60208301526a1116113b30b63ab2911d1160a91b806027840152845161103d8160328601602089016112ca565b80840190507f227d2c7b2274726169745f74797065223a224252474e206c6f636b6564000000603282015281604f8201528451915061108382605a8301602088016112ca565b62227d5d60e81b9101605a810191909152605d01949350505050565b607b60f81b8152710113730b6b2911d10112923a7103637b1b5960751b600182015284516000906110d7816013850160208a016112ca565b601160f91b60139184019182018190526c16101132b234ba34b7b7111d1160991b60148301528651611110816021850160208b016112ca565b60219201918201526a16101134b6b0b3b2911d1160a91b6022820152845161113f81602d8401602089016112ca565b61117e61117161116b61115e602d85870101601160f91b815260010190565b600b60fa1b815260010190565b87610de5565b607d60f81b815260010190565b98975050505050505050565b60007f646174613a6170706c69636174696f6e2f6a736f6e3b6261736536342c000000825282516111c281601d8501602087016112ca565b91909101601d0192915050565b60006020825282518060208401526111ee8160408501602087016112ca565b601f01601f19169190910160400192915050565b6020808252818101527f4f776e61626c653a2063616c6c6572206973206e6f7420746865206f776e6572604082015260600190565b6000821982111561124a5761124a611350565b500190565b600060ff821660ff84168060ff0382111561126c5761126c611350565b019392505050565b60008261128f57634e487b7160e01b81526012600452602481fd5b500490565b60008160001904831182151516156112ae576112ae611350565b500290565b6000828210156112c5576112c5611350565b500390565b60005b838110156112e55781810151838201526020016112cd565b838111156112f4576000848401525b50505050565b60028104600182168061130e57607f821691505b6020821081141561132f57634e487b7160e01b600052602260045260246000fd5b50919050565b600060001982141561134957611349611350565b5060010190565b634e487b7160e01b600052601160045260246000fd5b634e487b7160e01b600052604160045260246000fd5b6001600160a01b038116811461062c57600080fdfe4142434445464748494a4b4c4d4e4f505152535455565758595a6162636465666768696a6b6c6d6e6f707172737475767778797a303132333435363738392b2fa26469706673582212204565e64efb6d5eae1d0e17776175c6de9f91c8b7c1baaf01007b6bac8bbff6f164736f6c63430008020033",
  "linkReferences": {},
  "deployedLinkReferences": {}
}