{
  "_format": "hh-sol-artifact-1",
  "contractName": "storageSVG",
  "sourceName": "contracts/NFT/SvgStorage.sol",
  "abi": [
    {
      "inputs": [],
      "stateMutability": "nonpayable",
      "type": "constructor"
    },
    {
      "anonymous": false,
      "inputs": [
        {
          "indexed": true,
          "internalType": "address",
          "name": "previousOwner",
          "type": "address"
        },
        {
          "indexed": true,
          "internalType": "address",
          "name": "newOwner",
          "type": "address"
        }
      ],
      "name": "OwnershipTransferred",
      "type": "event"
    },
    {
      "inputs": [
        {
          "internalType": "uint256",
          "name": "pid",
          "type": "uint256"
        },
        {
          "internalType": "string",
          "name": "draw",
          "type": "string"
        }
      ],
      "name": "addData",
      "outputs": [],
      "stateMutability": "nonpayable",
      "type": "function"
    },
    {
      "inputs": [],
      "name": "owner",
      "outputs": [
        {
          "internalType": "address",
          "name": "",
          "type": "address"
        }
      ],
      "stateMutability": "view",
      "type": "function"
    },
    {
      "inputs": [
        {
          "internalType": "uint256",
          "name": "",
          "type": "uint256"
        }
      ],
      "name": "paths",
      "outputs": [
        {
          "internalType": "string",
          "name": "",
          "type": "string"
        }
      ],
      "stateMutability": "view",
      "type": "function"
    },
    {
      "inputs": [],
      "name": "renounceOwnership",
      "outputs": [],
      "stateMutability": "nonpayable",
      "type": "function"
    },
    {
      "inputs": [
        {
          "internalType": "uint256",
          "name": "amountRgn",
          "type": "uint256"
        },
        {
          "internalType": "uint256",
          "name": "time",
          "type": "uint256"
        },
        {
          "internalType": "uint256",
          "name": "apr",
          "type": "uint256"
        },
        {
          "internalType": "uint256",
          "name": "bRgn",
          "type": "uint256"
        },
        {
          "internalType": "uint8",
          "name": "month",
          "type": "uint8"
        }
      ],
      "name": "returnSVG",
      "outputs": [
        {
          "internalType": "string",
          "name": "",
          "type": "string"
        }
      ],
      "stateMutability": "view",
      "type": "function"
    },
    {
      "inputs": [
        {
          "internalType": "contract RGNLOCK",
          "name": "_rgnLock",
          "type": "address"
        }
      ],
      "name": "setRgnLock",
      "outputs": [],
      "stateMutability": "nonpayable",
      "type": "function"
    },
    {
      "inputs": [
        {
          "internalType": "contract UtilsNftLock",
          "name": "_utils",
          "type": "address"
        }
      ],
      "name": "setUtils",
      "outputs": [],
      "stateMutability": "nonpayable",
      "type": "function"
    },
    {
      "inputs": [
        {
          "internalType": "bool",
          "name": "exists",
          "type": "bool"
        },
        {
          "internalType": "uint256",
          "name": "RgnLock",
          "type": "uint256"
        },
        {
          "internalType": "uint256",
          "name": "timeToLock",
          "type": "uint256"
        },
        {
          "internalType": "uint256",
          "name": "BRgnLock",
          "type": "uint256"
        },
        {
          "internalType": "uint8",
          "name": "monthLock",
          "type": "uint8"
        },
        {
          "internalType": "uint256",
          "name": "id",
          "type": "uint256"
        }
      ],
      "name": "tokenURI",
      "outputs": [
        {
          "internalType": "string",
          "name": "",
          "type": "string"
        }
      ],
      "stateMutability": "view",
      "type": "function"
    },
    {
      "inputs": [
        {
          "internalType": "address",
          "name": "newOwner",
          "type": "address"
        }
      ],
      "name": "transferOwnership",
      "outputs": [],
      "stateMutability": "nonpayable",
      "type": "function"
    }
  ],
  "bytecode": "0x608060405234801561001057600080fd5b5061001a3361001f565b61006f565b600080546001600160a01b038381166001600160a01b0319831681178455604051919092169283917f8be0079c531659141344cd1fd0a4f28419497f9722a3daafe3b4186f6b6457e09190a35050565b6115038061007e6000396000f3fe608060405234801561001057600080fd5b50600436106100835760003560e01c80630dd05e0814610088578063424133151461009d5780635d3e18ee146100b057806369953501146100d9578063715018a6146100ec5780638da5cb5b146100f4578063c5761b8814610114578063f2fde38b14610127578063fc1bcd491461013a575b600080fd5b61009b610096366004610dc7565b61014d565b005b61009b6100ab366004610ed7565b6101a7565b6100c36100be366004610dea565b6101fa565b6040516100d09190611396565b60405180910390f35b61009b6100e7366004610dc7565b6104eb565b61009b61053c565b6100fc610577565b6040516001600160a01b0390911681526020016100d0565b6100c3610122366004610f56565b610586565b61009b610135366004610dc7565b6109c5565b6100c3610148366004610ebf565b610a65565b33610156610577565b6001600160a01b0316146101855760405162461bcd60e51b815260040161017c906113a9565b60405180910390fd5b600380546001600160a01b0319166001600160a01b0392909216919091179055565b336101b0610577565b6001600160a01b0316146101d65760405162461bcd60e51b815260040161017c906113a9565b600082815260016020908152604090912082516101f592840190610d1d565b505050565b6060866102615760405162461bcd60e51b815260206004820152602f60248201527f4552433732314d657461646174613a2055524920717565727920666f72206e6f60448201526e3732bc34b9ba32b73a103a37b5b2b760891b606482015260840161017c565b6000610271878760328888610586565b600254604051637bb7ca8760e11b8152600481018a90529192506000916001600160a01b039091169063f76f950e9060240160006040518083038186803b1580156102bb57600080fd5b505afa1580156102cf573d6000803e3d6000fd5b505050506040513d6000823e601f3d908101601f191682016040526102f79190810190610e47565b600254604051637bb7ca8760e11b8152600481018990526001600160a01b039091169063f76f950e9060240160006040518083038186803b15801561033b57600080fd5b505afa15801561034f573d6000803e3d6000fd5b505050506040513d6000823e601f3d908101601f191682016040526103779190810190610e47565b6040516020016103889291906111c5565b60408051808303601f1901815290829052600254637bb7ca8760e11b8352600483018790529092506000916001600160a01b039091169063daa68c21908790839063f76f950e9060240160006040518083038186803b1580156103ea57600080fd5b505afa1580156103fe573d6000803e3d6000fd5b505050506040513d6000823e601f3d908101601f191682016040526104269190810190610e47565b868660405160200161043b9493929190611284565b6040516020818303038152906040526040518263ffffffff1660e01b81526004016104669190611396565b60006040518083038186803b15801561047e57600080fd5b505afa158015610492573d6000803e3d6000fd5b505050506040513d6000823e601f3d908101601f191682016040526104ba9190810190610e47565b9050806040516020016104cd9190611351565b60405160208183030381529060405293505050509695505050505050565b336104f4610577565b6001600160a01b03161461051a5760405162461bcd60e51b815260040161017c906113a9565b600280546001600160a01b0319166001600160a01b0392909216919091179055565b33610545610577565b6001600160a01b03161461056b5760405162461bcd60e51b815260040161017c906113a9565b6105756000610aff565b565b6000546001600160a01b031690565b60408051808201909152601a81527f646174613a696d6167652f7376672b786d6c3b6261736536342c00000000000060208083019190915260008080526001909152606091907fa6eef7e35abe7026729641147f7915573c7e97b47efa546f5f6e3230263bcb496105f685610b4f565b60016000819052602052600254604051637bb7ca8760e11b8152600481018b90527fcc69885fda6bcc1a4ace058b4a62bf5e179ea78fd58a1ccd71c22cc9b688792f916001600160a01b03169063f76f950e9060240160006040518083038186803b15801561066457600080fd5b505afa158015610678573d6000803e3d6000fd5b505050506040513d6000823e601f3d908101601f191682016040526106a09190810190610e47565b60026000819052600160205254604051637bb7ca8760e11b8152600481018e90527fd9d16d34ffb15ba3a3d852f0d403e2ce1d691fb54de27ac87cd2f993f3ec330f916001600160a01b03169063f76f950e9060240160006040518083038186803b15801561070e57600080fd5b505afa158015610722573d6000803e3d6000fd5b505050506040513d6000823e601f3d908101601f1916820160405261074a9190810190610e47565b60405160200161075f9695949392919061115e565b60408051808303601f1901815290829052600360009081526001602052600254637bb7ca8760e11b8452600484018990529193509183917f7dfe757ecd65cbd7922a9c0161e935dd7fdbcc0e999689c7d31633896b1fc60b916001600160a01b039091169063f76f950e9060240160006040518083038186803b1580156107e557600080fd5b505afa1580156107f9573d6000803e3d6000fd5b505050506040513d6000823e601f3d908101601f191682016040526108219190810190610e47565b600460005260016020527fedc95719e9a3b28dd8e80877cb5880a9be7de1a13fc8b05e7999683b6b56764361085589610c36565b6001602090815260076000526040516108d99695949392917fe2689cd4a84e23ad2f564004f1c9013e9589d260bde6380aba3ca7e09e4df40c917f8f331abe73332f95a25873e8b430885974c0409691f89d643119a11623a7924a917fdc686ec4a0ff239c70e7c7c36e8f853eced3bc8618f48d2b816da2a74311237e91016110c9565b60408051601f19818403018152908290526002549092506000916001600160a01b039091169063daa68c219061091390859060200161107e565b6040516020818303038152906040526040518263ffffffff1660e01b815260040161093e9190611396565b60006040518083038186803b15801561095657600080fd5b505afa15801561096a573d6000803e3d6000fd5b505050506040513d6000823e601f3d908101601f191682016040526109929190810190610e47565b905083816040516020016109a792919061109a565b60405160208183030381529060405294505050505095945050505050565b336109ce610577565b6001600160a01b0316146109f45760405162461bcd60e51b815260040161017c906113a9565b6001600160a01b038116610a595760405162461bcd60e51b815260206004820152602660248201527f4f776e61626c653a206e6577206f776e657220697320746865207a65726f206160448201526564647265737360d01b606482015260840161017c565b610a6281610aff565b50565b60016020526000908152604090208054610a7e90611467565b80601f0160208091040260200160405190810160405280929190818152602001828054610aaa90611467565b8015610af75780601f10610acc57610100808354040283529160200191610af7565b820191906000526020600020905b815481529060010190602001808311610ada57829003601f168201915b505050505081565b600080546001600160a01b038381166001600160a01b0319831681178455604051919092169283917f8be0079c531659141344cd1fd0a4f28419497f9722a3daafe3b4186f6b6457e09190a35050565b60608160ff1660061415610b8157506040805180820190915260078152660234445373635360cc1b6020820152610c31565b8160ff16600c1415610bb157506040805180820190915260078152662336443835394360c81b6020820152610c31565b8160ff1660181415610be157506040805180820190915260078152662335303642374560c81b6020820152610c31565b8160ff1660241415610c1157506040805180820190915260078152662332333237324360c81b6020820152610c31565b506040805180820190915260078152662336423638353760c81b60208201525b919050565b60608160ff1660061415610c69575060408051808201909152600881526736206d6f6e74687360c01b6020820152610c31565b8160ff16600c1415610c98575060408051808201909152600681526518903cb2b0b960d11b6020820152610c31565b8160ff1660181415610cc857506040805180820190915260078152663220796561727360c81b6020820152610c31565b8160ff1660241415610cf857506040805180820190915260078152663320796561727360c81b6020820152610c31565b5060408051808201909152600881526733206d6f6e74687360c01b6020820152610c31565b828054610d2990611467565b90600052602060002090601f016020900481019282610d4b5760008555610d91565b82601f10610d6457805160ff1916838001178555610d91565b82800160010185558215610d91579182015b82811115610d91578251825591602001919060010190610d76565b50610d9d929150610da1565b5090565b5b80821115610d9d5760008155600101610da2565b803560ff81168114610c3157600080fd5b600060208284031215610dd8578081fd5b8135610de3816114b8565b9392505050565b60008060008060008060c08789031215610e02578182fd5b86358015158114610e11578283fd5b9550602087013594506040870135935060608701359250610e3460808801610db6565b915060a087013590509295509295509295565b600060208284031215610e58578081fd5b815167ffffffffffffffff811115610e6e578182fd5b8201601f81018413610e7e578182fd5b8051610e91610e8c8261140f565b6113de565b818152856020838501011115610ea5578384fd5b610eb6826020830160208601611437565b95945050505050565b600060208284031215610ed0578081fd5b5035919050565b60008060408385031215610ee9578182fd5b82359150602083013567ffffffffffffffff811115610f06578182fd5b8301601f81018513610f16578182fd5b8035610f24610e8c8261140f565b818152866020838501011115610f38578384fd5b81602084016020830137908101602001929092525090939092509050565b600080600080600060a08688031215610f6d578081fd5b85359450602086013593506040860135925060608601359150610f9260808701610db6565b90509295509295909350565b60008151808452610fb6816020860160208601611437565b601f01601f19169290920160200192915050565b60008151610fdc818560208601611437565b9290920192915050565b80546000906002810460018083168061100057607f831692505b602080841082141561102057634e487b7160e01b86526022600452602486fd5b818015611034576001811461104557611072565b60ff19861689528489019650611072565b60008881526020902060005b8681101561106a5781548b820152908501908301611051565b505084890196505b50505050505092915050565b60008251611090818460208701611437565b9190910192915050565b600083516110ac818460208801611437565b8351908301906110c0818360208801611437565b01949350505050565b600089516110db818460208e01611437565b6110e78184018b610fe6565b905088516110f9818360208d01611437565b6111058183018a610fe6565b9150508651611118818360208b01611437565b61112481830188610fe6565b9150506b031b7b6b4b7339039b7b7b7160a51b815261114f611149600c830187610fe6565b85610fe6565b9b9a5050505050505050505050565b600061116a8289610fe6565b875161117a818360208c01611437565b61118681830189610fe6565b9150508551611199818360208a01611437565b6111a581830187610fe6565b91505083516111b8818360208801611437565b0198975050505050505050565b60007f2261747472696275746573223a5b7b2274726169745f74797065223a2252474e825266081b1bd8dad95960ca1b60208301526a1116113b30b63ab2911d1160a91b8060278401528451611222816032860160208901611437565b80840190507f227d2c7b2274726169745f74797065223a224252474e206c6f636b6564000000603282015281604f8201528451915061126882605a830160208801611437565b62227d5d60e81b9101605a810191909152605d01949350505050565b607b60f81b8152710113730b6b2911d10112923a7103637b1b5960751b600182015260138101859052601160f91b603382018190526c16101132b234ba34b7b7111d1160991b60348301528451600091906112e6816041860160208a01611437565b8301604181018290526a16101134b6b0b3b2911d1160a91b6042820152855161131681604d840160208a01611437565b01604d8101829052600b60fa1b604e820152611345611338604f830187610fca565b607d60f81b815260010190565b98975050505050505050565b60007f646174613a6170706c69636174696f6e2f6a736f6e3b6261736536342c0000008252825161138981601d850160208701611437565b91909101601d0192915050565b600060208252610de36020830184610f9e565b6020808252818101527f4f776e61626c653a2063616c6c6572206973206e6f7420746865206f776e6572604082015260600190565b604051601f8201601f1916810167ffffffffffffffff81118282101715611407576114076114a2565b604052919050565b600067ffffffffffffffff821115611429576114296114a2565b50601f01601f191660200190565b60005b8381101561145257818101518382015260200161143a565b83811115611461576000848401525b50505050565b60028104600182168061147b57607f821691505b6020821081141561149c57634e487b7160e01b600052602260045260246000fd5b50919050565b634e487b7160e01b600052604160045260246000fd5b6001600160a01b0381168114610a6257600080fdfea26469706673582212205905a64a8c7b2fe69552de04d5ffea92cfacda69c402f8f21ef3f27cac9faaa664736f6c63430008020033",
  "linkReferences": {},
  "deployedLinkReferences": {}
}