{
  "_format": "hh-sol-artifact-1",
  "contractName": "storageSVG",
  "sourceName": "contracts/NFT/SvgStorage.sol",
  "abi": [
    {
      "inputs": [],
      "stateMutability": "nonpayable",
      "type": "constructor"
    },
    {
      "anonymous": false,
      "inputs": [
        {
          "indexed": true,
          "internalType": "address",
          "name": "previousOwner",
          "type": "address"
        },
        {
          "indexed": true,
          "internalType": "address",
          "name": "newOwner",
          "type": "address"
        }
      ],
      "name": "OwnershipTransferred",
      "type": "event"
    },
    {
      "inputs": [
        {
          "internalType": "uint256",
          "name": "pid",
          "type": "uint256"
        },
        {
          "internalType": "string",
          "name": "draw",
          "type": "string"
        }
      ],
      "name": "addData",
      "outputs": [],
      "stateMutability": "nonpayable",
      "type": "function"
    },
    {
      "inputs": [],
      "name": "owner",
      "outputs": [
        {
          "internalType": "address",
          "name": "",
          "type": "address"
        }
      ],
      "stateMutability": "view",
      "type": "function"
    },
    {
      "inputs": [
        {
          "internalType": "uint256",
          "name": "",
          "type": "uint256"
        }
      ],
      "name": "paths",
      "outputs": [
        {
          "internalType": "string",
          "name": "",
          "type": "string"
        }
      ],
      "stateMutability": "view",
      "type": "function"
    },
    {
      "inputs": [],
      "name": "renounceOwnership",
      "outputs": [],
      "stateMutability": "nonpayable",
      "type": "function"
    },
    {
      "inputs": [
        {
          "internalType": "uint256",
          "name": "amountRgn",
          "type": "uint256"
        },
        {
          "internalType": "uint256",
          "name": "time",
          "type": "uint256"
        },
        {
          "internalType": "uint256",
          "name": "apr",
          "type": "uint256"
        },
        {
          "internalType": "uint256",
          "name": "bRgn",
          "type": "uint256"
        },
        {
          "internalType": "uint8",
          "name": "month",
          "type": "uint8"
        }
      ],
      "name": "returnSVG",
      "outputs": [
        {
          "internalType": "string",
          "name": "",
          "type": "string"
        }
      ],
      "stateMutability": "view",
      "type": "function"
    },
    {
      "inputs": [
        {
          "internalType": "contract RGNLOCK",
          "name": "_rgnLock",
          "type": "address"
        }
      ],
      "name": "setRgnLock",
      "outputs": [],
      "stateMutability": "nonpayable",
      "type": "function"
    },
    {
      "inputs": [
        {
          "internalType": "bool",
          "name": "exists",
          "type": "bool"
        },
        {
          "internalType": "uint256",
          "name": "RgnLock",
          "type": "uint256"
        },
        {
          "internalType": "uint256",
          "name": "timeToLock",
          "type": "uint256"
        },
        {
          "internalType": "uint256",
          "name": "BRgnLock",
          "type": "uint256"
        },
        {
          "internalType": "uint8",
          "name": "monthLock",
          "type": "uint8"
        },
        {
          "internalType": "uint256",
          "name": "id",
          "type": "uint256"
        }
      ],
      "name": "tokenURI",
      "outputs": [
        {
          "internalType": "string",
          "name": "",
          "type": "string"
        }
      ],
      "stateMutability": "view",
      "type": "function"
    },
    {
      "inputs": [
        {
          "internalType": "address",
          "name": "newOwner",
          "type": "address"
        }
      ],
      "name": "transferOwnership",
      "outputs": [],
      "stateMutability": "nonpayable",
      "type": "function"
    }
  ],
  "bytecode": "0x608060405234801561001057600080fd5b5061001a3361001f565b61006f565b600080546001600160a01b038381166001600160a01b0319831681178455604051919092169283917f8be0079c531659141344cd1fd0a4f28419497f9722a3daafe3b4186f6b6457e09190a35050565b6114a18061007e6000396000f3fe608060405234801561001057600080fd5b50600436106100885760003560e01c80638da5cb5b1161005b5780638da5cb5b146100e6578063c5761b8814610101578063f2fde38b14610114578063fc1bcd491461012757610088565b80630dd05e081461008d57806342413315146100a25780635d3e18ee146100b5578063715018a6146100de575b600080fd5b6100a061009b366004610cc9565b61013a565b005b6100a06100b0366004610d61565b61018f565b6100c86100c3366004610cec565b6101dd565b6040516100d59190611269565b60405180910390f35b6100a06102fd565b6000546040516001600160a01b0390911681526020016100d5565b6100c861010f366004610e17565b610333565b6100a0610122366004610cc9565b6105b2565b6100c8610135366004610d49565b61064d565b6000546001600160a01b0316331461016d5760405162461bcd60e51b81526004016101649061129c565b60405180910390fd5b600280546001600160a01b0319166001600160a01b0392909216919091179055565b6000546001600160a01b031633146101b95760405162461bcd60e51b81526004016101649061129c565b600082815260016020908152604090912082516101d892840190610c1f565b505050565b6060866102445760405162461bcd60e51b815260206004820152602f60248201527f4552433732314d657461646174613a2055524920717565727920666f72206e6f60448201526e3732bc34b9ba32b73a103a37b5b2b760891b6064820152608401610164565b6000610254878760328888610333565b90506000610261886106e7565b61026a876106e7565b60405160200161027b92919061107a565b604051602081830303815290604052905060006102cc61029a866106e7565b6102a3876106e7565b85856040516020016102b89493929190611139565b60405160208183030381529060405261082f565b9050806040516020016102df9190611224565b60405160208183030381529060405293505050509695505050505050565b6000546001600160a01b031633146103275760405162461bcd60e51b81526004016101649061129c565b61033160006109a6565b565b60408051808201909152601a81527f646174613a696d6167652f7376672b786d6c3b6261736536342c00000000000060208083019190915260008080526001909152606091907fa6eef7e35abe7026729641147f7915573c7e97b47efa546f5f6e3230263bcb496103a3856109f6565b600160008190526020527fcc69885fda6bcc1a4ace058b4a62bf5e179ea78fd58a1ccd71c22cc9b688792f6103d787610adc565b600260005260016020527fd9d16d34ffb15ba3a3d852f0d403e2ce1d691fb54de27ac87cd2f993f3ec330f61040b8c6106e7565b600360005260016020527f7dfe757ecd65cbd7922a9c0161e935dd7fdbcc0e999689c7d31633896b1fc60b61043f8f6106e7565b604051602001610456989796959493929190610ff2565b60408051601f19818403018152919052600460009081526001602052909150817fedc95719e9a3b28dd8e80877cb5880a9be7de1a13fc8b05e7999683b6b5676436104a0886106e7565b600560005260016020527fe2689cd4a84e23ad2f564004f1c9013e9589d260bde6380aba3ca7e09e4df40c6104d489610b32565b6001602090815260086000526040516105589695949392917f8f331abe73332f95a25873e8b430885974c0409691f89d643119a11623a7924a917fdc686ec4a0ff239c70e7c7c36e8f853eced3bc8618f48d2b816da2a74311237e917f4db623e5c4870b62d3fc9b4e8f893a1a77627d75ab45d9ff7e56ba19564af99b9101610f5e565b6040516020818303038152906040529050600061057f826040516020016102b89190610f13565b90508381604051602001610594929190610f2f565b60405160208183030381529060405294505050505095945050505050565b6000546001600160a01b031633146105dc5760405162461bcd60e51b81526004016101649061129c565b6001600160a01b0381166106415760405162461bcd60e51b815260206004820152602660248201527f4f776e61626c653a206e6577206f776e657220697320746865207a65726f206160448201526564647265737360d01b6064820152608401610164565b61064a816109a6565b50565b6001602052600090815260409020805461066690611394565b80601f016020809104026020016040519081016040528092919081815260200182805461069290611394565b80156106df5780601f106106b4576101008083540402835291602001916106df565b820191906000526020600020905b8154815290600101906020018083116106c257829003601f168201915b505050505081565b60608161070c57506040805180820190915260018152600360fc1b602082015261082a565b8160005b81156107365780610720816113cf565b915061072f9050600a8361130e565b9150610710565b60008167ffffffffffffffff81111561075f57634e487b7160e01b600052604160045260246000fd5b6040519080825280601f01601f191660200182016040528015610789576020820181803683370190505b509050815b85156108245761079f60018261134d565b905060006107ae600a8861130e565b6107b990600a61132e565b6107c3908861134d565b6107ce9060306112e9565b905060008160f81b9050808484815181106107f957634e487b7160e01b600052603260045260246000fd5b60200101906001600160f81b031916908160001a90535061081b600a8961130e565b9750505061078e565b50925050505b919050565b6060815160001415610850575060408051602081019091526000815261082a565b600060405180606001604052806040815260200161142c604091399050600060038451600261087f91906112d1565b610889919061130e565b61089490600461132e565b905060006108a38260206112d1565b67ffffffffffffffff8111156108c957634e487b7160e01b600052604160045260246000fd5b6040519080825280601f01601f1916602001820160405280156108f3576020820181803683370190505b509050818152600183018586518101602084015b818310156109615760039283018051603f601282901c811687015160f890811b8552600c83901c8216880151811b6001860152600683901c8216880151811b60028601529116860151901b93820193909352600401610907565b60038951066001811461097b576002811461098c57610998565b613d3d60f01b600119830152610998565b603d60f81b6000198301525b509398975050505050505050565b600080546001600160a01b038381166001600160a01b0319831681178455604051919092169283917f8be0079c531659141344cd1fd0a4f28419497f9722a3daafe3b4186f6b6457e09190a35050565b60608160ff1660031415610a2857506040805180820190915260078152660234445373635360cc1b602082015261082a565b8160ff1660061415610a5857506040805180820190915260078152662336443835394360c81b602082015261082a565b8160ff16600c1415610a8857506040805180820190915260078152662335303642374560c81b602082015261082a565b8160ff1660121415610ab857506040805180820190915260078152662332333237324360c81b602082015261082a565b506040805180820190915260078152662336423638353760c81b602082015261082a565b60608160ff1660121415610b0e57506040805180820190915260078152660234445373635360cc1b602082015261082a565b506040805180820190915260078152662332443332333960c81b602082015261082a565b60608160ff1660031415610b65575060408051808201909152600881526733206d6f6e74687360c01b602082015261082a565b8160ff1660061415610b96575060408051808201909152600881526736206d6f6e74687360c01b602082015261082a565b8160ff16600c1415610bc857506040805180820190915260098152683132206d6f6e74687360b81b602082015261082a565b8160ff1660121415610bfa57506040805180820190915260098152683138206d6f6e74687360b81b602082015261082a565b5060408051808201909152600881526731206d6f6e74687360c01b602082015261082a565b828054610c2b90611394565b90600052602060002090601f016020900481019282610c4d5760008555610c93565b82601f10610c6657805160ff1916838001178555610c93565b82800160010185558215610c93579182015b82811115610c93578251825591602001919060010190610c78565b50610c9f929150610ca3565b5090565b5b80821115610c9f5760008155600101610ca4565b803560ff8116811461082a57600080fd5b600060208284031215610cda578081fd5b8135610ce581611416565b9392505050565b60008060008060008060c08789031215610d04578182fd5b86358015158114610d13578283fd5b9550602087013594506040870135935060608701359250610d3660808801610cb8565b915060a087013590509295509295509295565b600060208284031215610d5a578081fd5b5035919050565b60008060408385031215610d73578182fd5b82359150602083013567ffffffffffffffff80821115610d91578283fd5b818501915085601f830112610da4578283fd5b813581811115610db657610db6611400565b604051601f8201601f19908116603f01168101908382118183101715610dde57610dde611400565b81604052828152886020848701011115610df6578586fd5b82602086016020830137856020848301015280955050505050509250929050565b600080600080600060a08688031215610e2e578081fd5b85359450602086013593506040860135925060608601359150610e5360808701610cb8565b90509295509295909350565b60008151610e71818560208601611364565b9290920192915050565b805460009060028104600180831680610e9557607f831692505b6020808410821415610eb557634e487b7160e01b86526022600452602486fd5b818015610ec95760018114610eda57610f07565b60ff19861689528489019650610f07565b60008881526020902060005b86811015610eff5781548b820152908501908301610ee6565b505084890196505b50505050505092915050565b60008251610f25818460208701611364565b9190910192915050565b60008351610f41818460208801611364565b835190830190610f55818360208801611364565b01949350505050565b60008951610f70818460208e01611364565b610f7c8184018b610e7b565b90508851610f8e818360208d01611364565b610f9a8183018a610e7b565b9150508651610fad818360208b01611364565b610fb981830188610e7b565b9150506a31b7b6b4b7339039b7b7b760a91b8152610fe3610fdd600b830187610e7b565b85610e7b565b9b9a5050505050505050505050565b6000610ffe828b610e7b565b895161100e818360208e01611364565b61101a8183018b610e7b565b915050875161102d818360208c01611364565b61103981830189610e7b565b915050855161104c818360208a01611364565b61105881830187610e7b565b915050835161106b818360208801611364565b019a9950505050505050505050565b60007f2261747472696275746573223a5b7b2274726169745f74797065223a2252474e825266081b1bd8dad95960ca1b60208301526a1116113b30b63ab2911d1160a91b80602784015284516110d7816032860160208901611364565b80840190507f227d2c7b2274726169745f74797065223a224252474e206c6f636b6564000000603282015281604f8201528451915061111d82605a830160208801611364565b62227d5d60e81b9101605a810191909152605d01949350505050565b607b60f81b8152710113730b6b2911d10112923a7103637b1b5960751b60018201528451600090611171816013850160208a01611364565b601160f91b60139184019182018190526c16101132b234ba34b7b7111d1160991b601483015286516111aa816021850160208b01611364565b60219201918201526a16101134b6b0b3b2911d1160a91b602282015284516111d981602d840160208901611364565b61121861120b6112056111f8602d85870101601160f91b815260010190565b600b60fa1b815260010190565b87610e5f565b607d60f81b815260010190565b98975050505050505050565b60007f646174613a6170706c69636174696f6e2f6a736f6e3b6261736536342c0000008252825161125c81601d850160208701611364565b91909101601d0192915050565b6000602082528251806020840152611288816040850160208701611364565b601f01601f19169190910160400192915050565b6020808252818101527f4f776e61626c653a2063616c6c6572206973206e6f7420746865206f776e6572604082015260600190565b600082198211156112e4576112e46113ea565b500190565b600060ff821660ff84168060ff03821115611306576113066113ea565b019392505050565b60008261132957634e487b7160e01b81526012600452602481fd5b500490565b6000816000190483118215151615611348576113486113ea565b500290565b60008282101561135f5761135f6113ea565b500390565b60005b8381101561137f578181015183820152602001611367565b8381111561138e576000848401525b50505050565b6002810460018216806113a857607f821691505b602082108114156113c957634e487b7160e01b600052602260045260246000fd5b50919050565b60006000198214156113e3576113e36113ea565b5060010190565b634e487b7160e01b600052601160045260246000fd5b634e487b7160e01b600052604160045260246000fd5b6001600160a01b038116811461064a57600080fdfe4142434445464748494a4b4c4d4e4f505152535455565758595a6162636465666768696a6b6c6d6e6f707172737475767778797a303132333435363738392b2fa2646970667358221220b068cb7dccc417c5a48946774ff127f39c30bf444bf10cda240515c9575e405864736f6c63430008020033",
  "linkReferences": {},
  "deployedLinkReferences": {}
}