{
  "_format": "hh-sol-artifact-1",
  "contractName": "storageSVG",
  "sourceName": "contracts/NFT/SvgStorage.sol",
  "abi": [
    {
      "inputs": [],
      "stateMutability": "nonpayable",
      "type": "constructor"
    },
    {
      "anonymous": false,
      "inputs": [
        {
          "indexed": true,
          "internalType": "address",
          "name": "previousOwner",
          "type": "address"
        },
        {
          "indexed": true,
          "internalType": "address",
          "name": "newOwner",
          "type": "address"
        }
      ],
      "name": "OwnershipTransferred",
      "type": "event"
    },
    {
      "inputs": [
        {
          "internalType": "uint256",
          "name": "pid",
          "type": "uint256"
        },
        {
          "internalType": "string",
          "name": "draw",
          "type": "string"
        }
      ],
      "name": "addData",
      "outputs": [],
      "stateMutability": "nonpayable",
      "type": "function"
    },
    {
      "inputs": [],
      "name": "owner",
      "outputs": [
        {
          "internalType": "address",
          "name": "",
          "type": "address"
        }
      ],
      "stateMutability": "view",
      "type": "function"
    },
    {
      "inputs": [
        {
          "internalType": "uint256",
          "name": "",
          "type": "uint256"
        }
      ],
      "name": "paths",
      "outputs": [
        {
          "internalType": "string",
          "name": "",
          "type": "string"
        }
      ],
      "stateMutability": "view",
      "type": "function"
    },
    {
      "inputs": [],
      "name": "renounceOwnership",
      "outputs": [],
      "stateMutability": "nonpayable",
      "type": "function"
    },
    {
      "inputs": [
        {
          "internalType": "uint256",
          "name": "amountRgn",
          "type": "uint256"
        },
        {
          "internalType": "uint256",
          "name": "time",
          "type": "uint256"
        },
        {
          "internalType": "uint256",
          "name": "apr",
          "type": "uint256"
        },
        {
          "internalType": "uint256",
          "name": "bRgn",
          "type": "uint256"
        },
        {
          "internalType": "uint8",
          "name": "month",
          "type": "uint8"
        }
      ],
      "name": "returnSVG",
      "outputs": [
        {
          "internalType": "string",
          "name": "",
          "type": "string"
        }
      ],
      "stateMutability": "view",
      "type": "function"
    },
    {
      "inputs": [
        {
          "internalType": "contract RGNLOCK",
          "name": "_rgnLock",
          "type": "address"
        }
      ],
      "name": "setRgnLock",
      "outputs": [],
      "stateMutability": "nonpayable",
      "type": "function"
    },
    {
      "inputs": [
        {
          "internalType": "uint256",
          "name": "RgnLock",
          "type": "uint256"
        },
        {
          "internalType": "uint256",
          "name": "timeToLock",
          "type": "uint256"
        },
        {
          "internalType": "uint256",
          "name": "BRgnLock",
          "type": "uint256"
        },
        {
          "internalType": "uint8",
          "name": "monthLock",
          "type": "uint8"
        },
        {
          "internalType": "uint256",
          "name": "id",
          "type": "uint256"
        },
        {
          "internalType": "uint256",
          "name": "rewardsRgn",
          "type": "uint256"
        },
        {
          "internalType": "uint256",
          "name": "rewardsBRgn",
          "type": "uint256"
        },
        {
          "internalType": "uint256",
          "name": "apr",
          "type": "uint256"
        }
      ],
      "name": "tokenURI",
      "outputs": [
        {
          "internalType": "string",
          "name": "",
          "type": "string"
        }
      ],
      "stateMutability": "view",
      "type": "function"
    },
    {
      "inputs": [
        {
          "internalType": "address",
          "name": "newOwner",
          "type": "address"
        }
      ],
      "name": "transferOwnership",
      "outputs": [],
      "stateMutability": "nonpayable",
      "type": "function"
    }
  ],
  "bytecode": "0x608060405234801561001057600080fd5b5061001a3361001f565b61006f565b600080546001600160a01b038381166001600160a01b0319831681178455604051919092169283917f8be0079c531659141344cd1fd0a4f28419497f9722a3daafe3b4186f6b6457e09190a35050565b6114e98061007e6000396000f3fe608060405234801561001057600080fd5b50600436106100885760003560e01c80638da5cb5b1161005b5780638da5cb5b146100e6578063c5761b8814610101578063f2fde38b14610114578063fc1bcd491461012757610088565b80630dd05e081461008d578063122aa2d5146100a257806342413315146100cb578063715018a6146100de575b600080fd5b6100a061009b366004610c8d565b61013a565b005b6100b56100b0366004610dc6565b61018f565b6040516100c291906112b1565b60405180910390f35b6100a06100d9366004610cc8565b61025f565b6100a06102ad565b6000546040516001600160a01b0390911681526020016100c2565b6100b561010f366004610d7e565b6102e3565b6100a0610122366004610c8d565b610576565b6100b5610135366004610cb0565b610611565b6000546001600160a01b0316331461016d5760405162461bcd60e51b8152600401610164906112e4565b60405180910390fd5b600280546001600160a01b0319166001600160a01b0392909216919091179055565b606060006101a08a8a858b8b6102e3565b905060006101ad8b6106ab565b6101b68a6106ab565b6101bf886106ab565b6101c8886106ab565b6040516020016101db9493929190611043565b6040516020818303038152906040529050600061022c6101fa896106ab565b6102038a6106ab565b8585604051602001610218949392919061119b565b6040516020818303038152906040526107f3565b90508060405160200161023f919061126c565b604051602081830303815290604052935050505098975050505050505050565b6000546001600160a01b031633146102895760405162461bcd60e51b8152600401610164906112e4565b600082815260016020908152604090912082516102a892840190610be3565b505050565b6000546001600160a01b031633146102d75760405162461bcd60e51b8152600401610164906112e4565b6102e1600061096a565b565b60408051808201909152601a81527f646174613a696d6167652f7376672b786d6c3b6261736536342c00000000000060208083019190915260008080526001909152606091907fa6eef7e35abe7026729641147f7915573c7e97b47efa546f5f6e3230263bcb49610353856109ba565b600160008190526020527fcc69885fda6bcc1a4ace058b4a62bf5e179ea78fd58a1ccd71c22cc9b688792f61038787610aa0565b600260005260016020527fd9d16d34ffb15ba3a3d852f0d403e2ce1d691fb54de27ac87cd2f993f3ec330f6103bb8c6106ab565b600360005260016020527f7dfe757ecd65cbd7922a9c0161e935dd7fdbcc0e999689c7d31633896b1fc60b6103ef8f6106ab565b604051602001610406989796959493929190610fbb565b60408051601f19818403018152919052600460009081526001602052909150817fedc95719e9a3b28dd8e80877cb5880a9be7de1a13fc8b05e7999683b6b567643610450886106ab565b600560005260016020527fe2689cd4a84e23ad2f564004f1c9013e9589d260bde6380aba3ca7e09e4df40c61048489610af6565b600660005260016020527f8f331abe73332f95a25873e8b430885974c0409691f89d643119a11623a7924a6104b88d6106ab565b60016020908152600860005260405161051c98979695949392917fdc686ec4a0ff239c70e7c7c36e8f853eced3bc8618f48d2b816da2a74311237e917f4db623e5c4870b62d3fc9b4e8f893a1a77627d75ab45d9ff7e56ba19564af99b9101610f27565b60405160208183030381529060405290506000610543826040516020016102189190610edc565b90508381604051602001610558929190610ef8565b60405160208183030381529060405294505050505095945050505050565b6000546001600160a01b031633146105a05760405162461bcd60e51b8152600401610164906112e4565b6001600160a01b0381166106055760405162461bcd60e51b815260206004820152602660248201527f4f776e61626c653a206e6577206f776e657220697320746865207a65726f206160448201526564647265737360d01b6064820152608401610164565b61060e8161096a565b50565b6001602052600090815260409020805461062a906113dc565b80601f0160208091040260200160405190810160405280929190818152602001828054610656906113dc565b80156106a35780601f10610678576101008083540402835291602001916106a3565b820191906000526020600020905b81548152906001019060200180831161068657829003601f168201915b505050505081565b6060816106d057506040805180820190915260018152600360fc1b60208201526107ee565b8160005b81156106fa57806106e481611417565b91506106f39050600a83611356565b91506106d4565b60008167ffffffffffffffff81111561072357634e487b7160e01b600052604160045260246000fd5b6040519080825280601f01601f19166020018201604052801561074d576020820181803683370190505b509050815b85156107e857610763600182611395565b90506000610772600a88611356565b61077d90600a611376565b6107879088611395565b610792906030611331565b905060008160f81b9050808484815181106107bd57634e487b7160e01b600052603260045260246000fd5b60200101906001600160f81b031916908160001a9053506107df600a89611356565b97505050610752565b50925050505b919050565b606081516000141561081457506040805160208101909152600081526107ee565b600060405180606001604052806040815260200161147460409139905060006003845160026108439190611319565b61084d9190611356565b610858906004611376565b90506000610867826020611319565b67ffffffffffffffff81111561088d57634e487b7160e01b600052604160045260246000fd5b6040519080825280601f01601f1916602001820160405280156108b7576020820181803683370190505b509050818152600183018586518101602084015b818310156109255760039283018051603f601282901c811687015160f890811b8552600c83901c8216880151811b6001860152600683901c8216880151811b60028601529116860151901b938201939093526004016108cb565b60038951066001811461093f57600281146109505761095c565b613d3d60f01b60011983015261095c565b603d60f81b6000198301525b509398975050505050505050565b600080546001600160a01b038381166001600160a01b0319831681178455604051919092169283917f8be0079c531659141344cd1fd0a4f28419497f9722a3daafe3b4186f6b6457e09190a35050565b60608160ff16600314156109ec57506040805180820190915260078152660234445373635360cc1b60208201526107ee565b8160ff1660061415610a1c57506040805180820190915260078152662336443835394360c81b60208201526107ee565b8160ff16600c1415610a4c57506040805180820190915260078152662335303642374560c81b60208201526107ee565b8160ff1660121415610a7c57506040805180820190915260078152662332333237324360c81b60208201526107ee565b506040805180820190915260078152662336423638353760c81b60208201526107ee565b60608160ff1660121415610ad257506040805180820190915260078152660234445373635360cc1b60208201526107ee565b506040805180820190915260078152662332443332333960c81b60208201526107ee565b60608160ff1660031415610b29575060408051808201909152600881526733206d6f6e74687360c01b60208201526107ee565b8160ff1660061415610b5a575060408051808201909152600881526736206d6f6e74687360c01b60208201526107ee565b8160ff16600c1415610b8c57506040805180820190915260098152683132206d6f6e74687360b81b60208201526107ee565b8160ff1660121415610bbe57506040805180820190915260098152683138206d6f6e74687360b81b60208201526107ee565b5060408051808201909152600881526731206d6f6e74687360c01b60208201526107ee565b828054610bef906113dc565b90600052602060002090601f016020900481019282610c115760008555610c57565b82601f10610c2a57805160ff1916838001178555610c57565b82800160010185558215610c57579182015b82811115610c57578251825591602001919060010190610c3c565b50610c63929150610c67565b5090565b5b80821115610c635760008155600101610c68565b803560ff811681146107ee57600080fd5b600060208284031215610c9e578081fd5b8135610ca98161145e565b9392505050565b600060208284031215610cc1578081fd5b5035919050565b60008060408385031215610cda578081fd5b82359150602083013567ffffffffffffffff80821115610cf8578283fd5b818501915085601f830112610d0b578283fd5b813581811115610d1d57610d1d611448565b604051601f8201601f19908116603f01168101908382118183101715610d4557610d45611448565b81604052828152886020848701011115610d5d578586fd5b82602086016020830137856020848301015280955050505050509250929050565b600080600080600060a08688031215610d95578081fd5b85359450602086013593506040860135925060608601359150610dba60808701610c7c565b90509295509295909350565b600080600080600080600080610100898b031215610de2578283fd5b883597506020890135965060408901359550610e0060608a01610c7c565b979a969950949760808101359660a0820135965060c0820135955060e0909101359350915050565b60008151610e3a8185602086016113ac565b9290920192915050565b805460009060028104600180831680610e5e57607f831692505b6020808410821415610e7e57634e487b7160e01b86526022600452602486fd5b818015610e925760018114610ea357610ed0565b60ff19861689528489019650610ed0565b60008881526020902060005b86811015610ec85781548b820152908501908301610eaf565b505084890196505b50505050505092915050565b60008251610eee8184602087016113ac565b9190910192915050565b60008351610f0a8184602088016113ac565b835190830190610f1e8183602088016113ac565b01949350505050565b60008a51610f39818460208f016113ac565b610f458184018c610e44565b90508951610f57818360208e016113ac565b610f638183018b610e44565b9150508751610f76818360208c016113ac565b610f8281830189610e44565b9150508551610f95818360208a016113ac565b610faa610fa482840188610e44565b86610e44565b9d9c50505050505050505050505050565b6000610fc7828b610e44565b8951610fd7818360208e016113ac565b610fe38183018b610e44565b9150508751610ff6818360208c016113ac565b61100281830189610e44565b9150508551611015818360208a016113ac565b61102181830187610e44565b91505083516110348183602088016113ac565b019a9950505050505050505050565b60007f2261747472696275746573223a5b7b2274726169745f74797065223a2252474e825266081b1bd8dad95960ca1b60208301526a1116113b30b63ab2911d1160a91b80602784015286516110a0816032860160208b016113ac565b80840190507f227d2c7b2274726169745f74797065223a224252474e206c6f636b6564000000603282015281604f82015286516110e481605a840160208b016113ac565b8082019150507f227d2c7b2274726169745f74797065223a2250656e64696e672052474e000000605a8201528160778201528551915061112b8260828301602089016113ac565b8181019150507f227d2c7b2274726169745f74797065223a2250656e64696e67206252474e0000608282015261119061118161117b60a084016a1116113b30b63ab2911d1160a91b8152600b0190565b86610e28565b62227d5d60e81b815260030190565b979650505050505050565b607b60f81b8152710113730b6b2911d10112923a7103637b1b5960751b600182015284516000906111d3816013850160208a016113ac565b601160f91b60139184019182018190526c16101132b234ba34b7b7111d1160991b6014830152865161120c816021850160208b016113ac565b602192019182018190526a16101134b6b0b3b2911d1160a91b6022830152855161123d81602d850160208a016113ac565b602d920191820152600b60fa1b602e82015261119061125f602f830186610e28565b607d60f81b815260010190565b60007f646174613a6170706c69636174696f6e2f6a736f6e3b6261736536342c000000825282516112a481601d8501602087016113ac565b91909101601d0192915050565b60006020825282518060208401526112d08160408501602087016113ac565b601f01601f19169190910160400192915050565b6020808252818101527f4f776e61626c653a2063616c6c6572206973206e6f7420746865206f776e6572604082015260600190565b6000821982111561132c5761132c611432565b500190565b600060ff821660ff84168060ff0382111561134e5761134e611432565b019392505050565b60008261137157634e487b7160e01b81526012600452602481fd5b500490565b600081600019048311821515161561139057611390611432565b500290565b6000828210156113a7576113a7611432565b500390565b60005b838110156113c75781810151838201526020016113af565b838111156113d6576000848401525b50505050565b6002810460018216806113f057607f821691505b6020821081141561141157634e487b7160e01b600052602260045260246000fd5b50919050565b600060001982141561142b5761142b611432565b5060010190565b634e487b7160e01b600052601160045260246000fd5b634e487b7160e01b600052604160045260246000fd5b6001600160a01b038116811461060e57600080fdfe4142434445464748494a4b4c4d4e4f505152535455565758595a6162636465666768696a6b6c6d6e6f707172737475767778797a303132333435363738392b2fa26469706673582212208df330577f20e8e6fe91dc404ea57fa13ea4340f3e6c9210dd1d65e832ae6e0b64736f6c63430008020033",
  "linkReferences": {},
  "deployedLinkReferences": {}
}